:020000040800F2
:1000000058680020590200086102000863020008D5
:10001000750200087702000879020008000000005D
:10002000000000000000000000000000CD010008FA
:100030007D02000800000000010200084F43000894
:100040008302000883020008830200080000000009
:1000500000000000C341000883020008830200087A
:1000600083020008000000008302000883020008E9
:100070008302000800000000830200080B3900081A
:1000800083020008830200080000000083020008C9
:1000900083020008000000000000000000000000D3
:1000A00000000000000000000000000083020008C3
:1000B000830200088302000883020008830200080C
:1000C00000F002F800F073F80AA090E8000C8244F7
:1000D0008344AAF10107DA4501D100F068F8AFF2D4
:1000E000090EBAE80F0013F0010F18BFFB1A43F016
:1000F0000103184760F7000080F700000A444FF042
:10010000000C10F8013B13F0070408BF10F8014B76
:100110001D1108BF10F8015B641E05D010F8016BBB
:10012000641E01F8016BF9D113F0080F1EBF10F81F
:10013000014BAD1C0C1B09D16D1E58BF01F801CB42
:10014000FAD505E014F8016B01F8016B6D1EF9D5C5
:100150009142D6D3704700000023002400250026DA
:10016000103A28BF78C1FBD8520728BF30C148BF1A
:100170000B60704766290BF0FB85642908F0E08767
:10018000632909F0B284002070471FB509F0B0FD63
:100190000400002000210BF0ADF8401C606000203E
:1001A00000210BF0BDF8E0601FBD10B510BD09F0D7
:1001B000D1FE1146FFF7E9FF01F02FFB0AF042F9EB
:1001C00003B4FFF7F2FF03BC0AF076FB1A4B196881
:1001D0000868B0E8F00F80F309884FF0000080F362
:1001E00011884EF00D0E70470000000003480068B3
:1001F000006880F3088862B600DF00BF08ED00E009
:10020000EFF309800C4B1A6820E9F00F106008B575
:100210004FF0200080F3118804F0A5FD4FF000009E
:1002200080F31188BDE8084019680868B0E8F00F4D
:1002300080F30988704700BFB0010020EFF3118000
:100240004FF0200181F31188704780F311887047C7
:10025000EFF30580704700000D4880470D480047C8
:10026000FEE71EF0040F0CBFEFF30880EFF30980E8
:1002700003F0DABAFEE7FEE7FEE7FEE7FEE7FEE799
:10028000FEE7FEE704480549054A064B70470000B3
:100290000B030008C10000085862002058680020C5
:1002A000586400205864002010B51F4BD8681F4CBC
:1002B0008007002801DA601000E02046D968C907ED
:1002C00000D04008D968490704D55968C1F3032113
:1002D000491C4843D968164AC1F3012139B10129A3
:1002E00007D002290DD049F64040106010BD1460BF
:1002F00010BDD968C1F30311491CB0FBF1F01060C7
:1003000010BD4FF40040106010BD07480949C1619D
:10031000C1680021C16042684160826881600269F1
:10032000016142694161BFE70000024000127A00AA
:100330000000002010000008002101604160016100
:100340004161416203210162704710B54A88026130
:100350000A894B890C881A448B8903EB04231A44BD
:10036000CB881A440260CA8989881144416010BD53
:10037000002181800722C280418101818181022286
:10038000428001807047002904D0416841F0020199
:100390004160704741684FF6FD72114041607047FF
:1003A000002A03D042690A434261704742698A4386
:1003B000426170478069814301D00020704701206D
:1003C0007047C069084201D0012070470020704783
:1003D000026A0A4302627047002A03D0426A0A4353
:1003E00042627047426AC94389B20A40426270471A
:1003F00081607047806880B27047C068084201D051
:10040000012070470020704710B50B4BDA6A0B4C87
:10041000A04205D142F0807020F0FF020A4308E0BC
:10042000074CA04205D142F0007020F47F4040EA22
:100430000122DA6210BD000000000240000004400A
:1004400000000A400021C1600161416001608160DB
:1004500041618161C16170472DE9FF4FD0F804907F
:100460008768D0F80CA0D0F81080D0F814C082694A
:100470000192C26900920022012303254FF0011668
:100480000C885EE05FEAC47B56D091F802B029EA9E
:1004900003090BFA02FB49EA0B0991F808E04FEA5D
:1004A000420B0EFA0BFEAF434EEA0707CDF80CB035
:1004B00091F80AB02AEA030A0BFA02FB4AEA0B0A8D
:1004C00091F803E002F1100B0EFA0BFECDF808B024
:1004D00091F804B028EA060848EA0E080BFA02FB75
:1004E00048EA0B0891F805E0DDF808B02CEA060CA4
:1004F0000EFA0BFE91F806B04CEA0E0C0BFA02FB5A
:100500004CEA0B0C91F809E0DDF80CB00EFA0BFE8A
:10051000DDF804B02BEA050B4EEA0B0ECDF804E033
:10052000DDF800B091F807E02BEA030B0EFA02FEAB
:100530004BEA0E0BCDF800B05B00AD007600521C0C
:100540006408002C9ED14749884202D14FF01F0118
:1005500001E04FF0000129EA0109C0F8049002D13E
:100560004FF01F0101E04FF0000127EA010787600B
:1005700002D14FF01F0101E04FF000012AEA010A09
:10058000C0F80CA002D14FF01F0101E04FF00001B4
:1005900028EA0108C0F8108002D14FF01F0101E0E5
:1005A0004FF000012CEA010CC0F814C002D14FF04A
:1005B0001F0101E04FF00001019A22EA010282616D
:1005C00002D14FF01F0101E04FF00001009A22EA32
:1005D0000102C261BDE8FF8F4FF6FF71018000216B
:1005E0008170C170017141718171C171017241727B
:1005F000817270470068084201D0012070470020D6
:100600007047006870470368164A904201D11F2264
:1006100000E0002293430B43036070470368114AD4
:10062000904201D11F2200E000220A43934303605D
:10063000704710B503680B4CA04201D11F2400E0A5
:100640000024A34312B10B43036010BD8B4303602E
:1006500010BD044A904201D11F2200E000229143C4
:100660000160704700000B400021C16001604160E3
:100670008160016241628162C162016341638163A1
:10068000C163016641668166C16601614161816144
:10069000C161016741678167C16701644164816429
:1006A000C164016541658165C165704710B50A88FF
:1006B00002604A8842608A888260CA880B898C8975
:1006C0001A444B8923441A44CB891A44C2604A8A8B
:1006D0008B8A1A44CB8A098A03EB01111144016504
:1006E00010BD0021018041808180C1800181418154
:1006F0008181C181018241828182C1827047C26849
:10070000002902D042F0010101E022F00101C160A4
:100710007047016070474160704781607047C368EF
:1007200023F002031A44C26081607047006880B2FF
:100730007047C26822F470621144C1607047C26899
:1007400022F030021144C1607047C26822F0C0023A
:100750001144C1607047C26822F008021144C160B0
:10076000704710B5046D24F0FE04114401EB031131
:100770002144016510BD026D22F0F00202EB01116F
:1007800001657047026D22F00C021144016570474B
:10079000026D22F00202114401657047026D22F0E1
:1007A0000102114401657047C0680007002801DBA1
:1007B0000020704708207047C0684007002801DB10
:1007C000002070470120704710B54A88CB884C89BB
:1007D0001A440B8923441A448B8902EB8312CB8978
:1007E0001A440B8A1A448B88002B01D002F5005260
:1007F0000B8800EB83031A62488ACA8A1044898AEC
:1008000001B1001D186610BD00210180418081806A
:10081000C180018141818181C181018241828182C6
:10082000C182704700EB81000261704700EB8100DC
:100830000267704710B500EB81000146046E24F09A
:100840000804234403660846026110BD10B500EB9E
:1008500081000146046E24F0080423440366084620
:10086000026710BD00EB8100006980B2704700EBA9
:100870008100006F80B2704700EB8100203001687A
:10088000002A02D041F4807101E021F480710160FE
:10089000704700EB8100016A21F4005111440162AC
:1008A000704700EB8100016A21F48051114401621C
:1008B000704700EB8100016A21F46061114401621C
:1008C000704700EB8100016A21F0C00101EB821149
:1008D0000162704700EB8100016A21F03001114490
:1008E0000162704700EB8100016A21F00F011144A1
:1008F0000162704700EB8100006A4004002801DBC0
:10090000002070470120704700EB8100016E21F04C
:10091000030111440166704700EB810060300168FB
:10092000002A02D041F0040101E021F0040101603D
:10093000704710B5CA884B880C8902EB03128B886C
:100940009B0003EB04331A444B8902EB83228B890F
:1009500002EB03220B8800EB830002630A8A4B8AB6
:10096000C9891A4402EB0121016410BD00214180B4
:100970008180C180018141818181C1810182418267
:10098000704710B5029C00EB8100016B21F01F0144
:10099000240104EB82021A441144016310BD00EBF0
:1009A0008100016B21F00C0101EB820101637047B2
:1009B00000EB8100016B21F00301114401637047DA
:1009C00000EB8100016B21F0100101EB02110163CA
:1009D000704710B5029C00EB8100016B21F4F851C7
:1009E000240304EB822202EB03221144016310BDB5
:1009F00000EB8100016B21F4406101EB8221016376
:100A0000704700EB8100016B21F4407101EB022182
:100A10000163704700EB8100016B21F4805101EB11
:100A200002310163704710B5029C03EB022222449D
:100A300000EB8100026410BD406D7047406D0842BC
:100A400001D00120704700207047426D8A43426503
:100A50007047C36D002A01D00B4300E08B43C36590
:100A60007047836D002A01D00B4300E08B43836500
:100A70007047426D806D02400A40002A01D001207B
:100A800070470020704710B50F4B5A6A0F4CA042B8
:100A900005D122F0FF00084340F0807212E00C4CB8
:100AA000A04206D122F47F4040EA012040F00072CB
:100AB00008E0084CA04205D122F47F0040EA014042
:100AC00040F080625A6210BD000002400000074002
:100AD00000800740000008403C480021816001611F
:100AE0000122826101604160704738498A68037958
:100AF0009B06002B02DA42F0200201E022F02002E5
:100B00008A6000680860000A486070470021416000
:100B10000121016070472D4A9168002802D041F000
:100B2000800001E021F0800090607047274A9168C2
:100B3000002802D041F0400001E021F04000906028
:100B4000704722480069C00701D00120704700208B
:100B500070471E48816941F00101816170471B4A5D
:100B600020F00100084350619020906170471749C0
:100B700048611020886170471448402181617047A6
:100B8000124940F02000886170471048C068C0B228
:100B900070470E488169006941EA0020C14340EA7C
:100BA0000140704700B50246FFF7F3FF824301D0D2
:100BB000002000BD012000BD00B50246FFF7E9FF9F
:100BC000104201D0012000BD002000BD0000054002
:100BD000D1480021016041608160C16001614161D3
:100BE0008269C269016241628162C1627047826842
:100BF000016803791144C26802EB0372114402696F
:100C000011444269008B114401EB4050C349C24A70
:100C100013688B43184410607047002101604160E5
:100C20008160C1600161416181617047BA4A1168A8
:100C300021F0F07101EB40501060704730B5B649BB
:100C40000A68B64BDB1C1A40D0E900342344D0E9D3
:100C5000024504EB0514234444692344C469234436
:100C6000446A234490F8284003EB446313444A68E1
:100C700022F40032048C02EB44420B604A60028B87
:100C80000A61428B8A600069886230BD30B5A24932
:100C90004A68A34B1A40D0E900342344D0E9024506
:100CA00004EB0514234444692344C4692344048C9D
:100CB00003EB8443446A234490F8284003EB4463E5
:100CC0001A444A60028B4A61428BCA600069C8625A
:100CD00030BD0021016041608160C16001614161FE
:100CE00001834183C16101624162816270478A4A26
:100CF0001168002802D041F0010001E021F001005C
:100D000010607047844A5168002802D041F0010009
:100D100001E021F00100506070477F4A116821F422
:100D2000F87101EB0010106070477B4A516821F4A4
:100D3000F87101EB00105060704777498862704786
:100D40007549C8627047744B1A6822F402720844ED
:100D5000104418607047704B5A6822F402720844BD
:100D60001044586070476C4A116821F0080108442B
:100D700010607047684A516821F0080108445060CB
:100D80007047654A116821F400710844106070478B
:100D9000614A516821F4007108445060704710B5F1
:100DA0005D4B1C6824F4806422441A6018619960C9
:100DB00010BD10B5584B5C6824F4806422445A601E
:100DC0005861D96010BD5449086170475249486163
:100DD00070475149886070474F49C86070474E4816
:100DE000016841F00201016070474B48416841F0E1
:100DF0000201416070474848806970474648C069B1
:100E000070474548016A406A01EB0040704742481C
:100E1000006A70474048406A704700B50246FFF7D5
:100E2000F0FF104201D0012000BD002000BD3A4972
:100E3000096A014201D001207047002070473649FD
:100E4000496A014201D001207047002070473248B2
:100E5000016A21F00101016270472F48416A21F0C7
:100E60000101416270472C48016A21F002010162D0
:100E700070472948416A21F002014162704770B50C
:100E8000254E336A756A84008004020C002904D060
:100E900042EA030045EA144103E023EA020025EA9E
:100EA00014413062716270BD1B4B1A6A002902D076
:100EB00042EA800001E022EA800018627047164B87
:100EC0005A6A002902D042EA800001E022EA80004A
:100ED0005862704700B50246FFF793FF02EA90019F
:100EE000014009B1012000BD002000BD0A49096A86
:100EF00000EA91000840002801D00120704700203E
:100F000070470549496A00EA91000840002801D06D
:100F10000120704700207047008008400000FFF16A
:100F20000300FBF100210163C162416090228261F4
:100F300001624162816202224263816381644FF4F3
:100F400040710163704770B586B004460D4601A834
:100F500000F086FB01986B49896A6B4B01229C4229
:100F600005D101F007018A40B0FBF2F007E0674BC2
:100F70009C4204D1C1F302218A40B0FBF2F02A68FE
:100F80009108B0FBF1F3990903F03F03800003EBF4
:100F90008116B0FBF6F0801AC001B0FBF2F0022817
:100FA00002D9002006B070BD6162A362E06AA98820
:100FB000EA886B8911432A891A4311430143E1628C
:100FC000206B4FF680718843A9890143216301207A
:100FD000E8E74FF41651016000218180C180018152
:100FE00041814FF4407181817047002904D0016B29
:100FF00041F0010101637047016B4FF6FE72114031
:1010000001637047002A03D0826B0A4382637047F2
:10101000826B8A4382637047C06B814301D000209A
:10102000704701207047006C084201D001207047D2
:1010300000207047426C0A434264704742EAC10193
:1010400041637047002A03D0826C0A438264704770
:10105000826CC94389B20A4082647047C1F30801B7
:1010600001607047006880B27047002904D0C16AEF
:1010700041F00101C1627047C16A4FF6FE7211432F
:10108000C162704730B585B004460D46042D08D1C5
:10109000684600F0E5FA00984FF4E111B0FBF1F07A
:1010A0002062206B2843206305B030BD002904D0A6
:1010B000016B41F0020101637047016B4FF6FD7255
:1010C0001143016370478069084201D001207047D5
:1010D0000020704710B50B4B9A6A0B4CA04205D10B
:1010E00042F0807020F0FF020A4308E0074CA04263
:1010F00005D142F0007020F47F4040EA01229A625C
:1011000010BD0000000002400000034000800340CA
:1011100010B583680268B3F1406F26D08469641EFD
:101120009B0E9C4022440A604269042A1FD0C26878
:10113000B2F1404F1FD083695B1E920F934042680B
:101140001A444A60D0E903231A43446A836823435C
:101150001A43036A1A43C3691A43836940695B1ED1
:1011600042EA031202438A6010BD0A60DCE742686B
:101170000C324A60E6E742684A60E3E770480021C3
:10118000416081604161491EC1614162C162416348
:10119000C1630121C1647047002905D06849C9684D
:1011A00001EB00111046B3E7664901EB0011104650
:1011B000AEE701EB00111046AAE770B58AB005460C
:1011C0000C465F4E5F48B06021680091F16801EB0A
:1011D000051101914FF000610291090103914FF057
:1011E00008510491042105916168890006914FF42A
:1011F00000410791A1680891E168099100EB051190
:101200006846FFF785FF01207060607D0122AA40DB
:10121000012809D0F2617262B2627263207D0128F6
:1012200004D0F2630AB070BDB261F4E7B263F9E7CB
:1012300070B506460C46424D4249A9602068002818
:1012400003D001EB0611FFF763FF606820B1E96886
:1012500001EB0611FFF75CFF01206860607B012253
:10126000B24001280AD0EA616A62AA62A07B38B162
:101270002A63207B012805D0EA6370BDAA61F3E7E9
:101280006A63F6E7AA6370BD002101604160816076
:101290000173417381737047002101604160816077
:1012A000C160016101754175704701228240244887
:1012B000012901D0C26270478262704701218140DA
:1012C0001F48416170471E490120C86470471C4A8D
:1012D000002907D0D16801EB00100089C0F3091084
:1012E000401C7047916801EB0010F6E710B5012231
:1012F0008240134CD2B2092920D2DFE801F01F0549
:10130000090D101316191C00206800F0010010BD13
:10131000E06C00F0010010BDA06A104010BD206A12
:10132000104010BD2069104010BDA069104010BDD4
:10133000206B104010BDA06B104010BD002010BDF0
:101340000080024000040020FE4A002903D0D16939
:101350000143D1617047D1698143D1617047F94A36
:10136000D16821F440710143D1607047C0F342114C
:10137000012909D0F449C96B00F01F0201209040F7
:10138000084204D001207047EE490968F4E70020C4
:10139000704708B5002000904FF4C0631720FFF796
:1013A000E5FF0099491C00910099994201D200285B
:1013B000F4D01720FFF7DAFF08B1012008BD0020A4
:1013C00008BDE2490860704700B50120FFF7F9FF4A
:1013D000FFF7DFFF0020FFF7C2FFDA48C1680021F6
:1013E000C16042684160826881600269016142694E
:1013F000416182698161D649C16100BD00B5FFF7D5
:10140000E3FF0121C806FFF79FFFCF48C16B41F4FE
:101410008101C163C16B01F48101C16300BDC94990
:101420008A6822F003028A60012806D0022803D1CC
:10143000886840F0030088607047886840F00100C9
:101440008860704708B5002000904FF4C0632220E8
:10145000FFF78CFF0099491C00910099994201D235
:101460000028F4D02220FFF781FF08B1012008BD39
:10147000002008BDB449CA6B22F00302CA630128E8
:1014800006D0022803D1C86B40F00300C863704740
:10149000C86B40F00100C863704708B50020009099
:1014A0004FF4C0630D20FFF761FF0099491C0091C4
:1014B0000099994201D20028F4D00D20FFF756FF81
:1014C00008B1012008BD002008BD9F4AD16B21F062
:1014D0007C5141EA0060D06370479C491C39086028
:1014E0007047994AD16B21F4F81141EA0040D0636A
:1014F000704708B5002000904FF4C0631520FFF737
:1015000035FF0099491C00910099994201D20028A9
:10151000F4D01520FFF72AFF08B1012008BD0020F4
:1015200008BD884AD36823F003030343D36050689F
:1015300020F4706040EA012050608648D0F888109E
:10154000002904D0012140F88C1F00210160704760
:1015500081490860704781490860704708B50020DC
:1015600000904FF4C0632120FFF700FF0099491C51
:1015700000910099994201D20028F4D02120FFF770
:10158000F5FE08B1012008BD002008BD6D4AD168F4
:1015900021F0F00141EA0010D0607047694A1369F8
:1015A00023F0030303431361506820F0F00040EA86
:1015B000011050606748D0F88010002904D0012144
:1015C00040F8841F0021016070476549086070473A
:1015D00064490860704708B5002000904FF4C0636C
:1015E0002020FFF7C3FE0099491C00910099994201
:1015F00001D20028F4D02020FFF7B8FE08B1012066
:1016000008BD002008BD5849086070475749086068
:1016100070474C4A516921F03301014351617047D1
:10162000484A516921F4706141EA002050617047D5
:101630004F4908607047434A916921F0F00141EA3F
:101640000010906170474B49086070473D4A9169AE
:1016500021F00F01014391617047474908607047CD
:101660002DE9F04FDFF8ECB0DBF88411DFF80CA1C6
:1016700000294FEA4A0501D0514600E02946DBF82F
:10168000802102B149080B46DBF88821DFF8B4C09D
:101690002AB1DCF80420C2F30322521C5343DCF8C5
:1016A0000C204FF40048C2F3012249F640490127BB
:1016B00052B1012A0AD0022A1BD0C0F80090DBF8F0
:1016C0000422CAB1524618E00560F8E7DCF80C20A5
:1016D0004FEA1212120701D41A4608E0DCF80C2077
:1016E000C2F30212521C07FA02F2B3FBF2F20260DA
:1016F000E5E7C0F80080E2E72A46DBF8004204B1E3
:1017000052081446DBF808622EB1DCF80460C6F318
:101710000316761C74432646DBF810B2BBF1000FAB
:1017200000D076084660DCF8186036095FEA067B70
:1017300007D506F0070B0BF1010B07FA0BF6B5FB0B
:10174000F6F51DE00000024000800D40D807B043D0
:1017500010000008000040428801404288004042DA
:1017600008024042800040422002404210024042B3
:10177000B4024042240340422003404200093D009D
:10178000C560DCF818605FEA067B07D506F0070B3A
:101790000BF1010B07FA0BF6BAFBF6FAC0F810A032
:1017A000DCF8146016F0030604D0012E1AD0022EC5
:1017B0001AD02146DCF81420C2F30112B2B1012A7A
:1017C00016D0022A00D02946DCF81420120A13078A
:1017D00005D502F00702521C9740B1FBF7F181607A
:1017E000BDE8F08F1146E5E71946E3E74146EBE730
:1017F0004946E9E708B504226946002001F0AEF841
:101800000422694640F2FC7001F0A8F8524A00999F
:10181000914201D040F0020008BD1FB501F0E3FB8A
:1018200001F015FC00F06CFE01F007FE01F02BFE4C
:1018300001F07BFE01F067FC01F032FE01F06AFD71
:1018400001F0D8FD01F0E7F900F0F1F90125434876
:10185000E90300240160502001F05BFF552001F0F6
:101860005BFF3F48046044603E480570CDE900548A
:101870000294002380223CA13D48039403F080F8A9
:101880003C48CDE901040226002380223AA13D48CC
:101890000096039403F074F80094019402940023DA
:1018A000802239A13A48039403F06AF80320CDE975
:1018B000000402940023802236A13948039403F0E7
:1018C0005FF8CDE9005402940023802235A1384806
:1018D000039403F055F8CDE90064029400238022BC
:1018E00034A13548039403F04BF8CDE900540123AB
:1018F0001E020294324631A13348039403F040F8AB
:10190000CDE9005402940123324630A132480394B9
:1019100003F036F8CDE900540294022332462FA199
:101920002948039403F02CF8CDE9005402940223D3
:1019300032462DA12848039403F022F8CDE9005443
:101940000294002380222BA12E48039403F018F860
:1019500003F000FBFEE700001122334400E100E049
:10196000800000207000002047554920746F7000EF
:10197000332700082C000020436F6E766572746573
:1019800072000000EB1F0008536572766963650002
:10199000BD2D00084469737061746368657200004E
:1019A00039230008627574746F6E7320746F700051
:1019B0009139000841444300091A00085541525426
:1019C0003120525800000000C93E000855415254D1
:1019D00031205458000000009940000855415254ED
:1019E00032205258000000005541525432205458C1
:1019F00000000000536F756E642064726976657232
:101A000000000000932E000808B5002204210520E4
:101A100002F029FD604C606180B1032200210120A9
:101A200002F021FDA06120B100231A46194602F000
:101A3000A9FDA06918B14FF0FF3534E0FEE7FEE7DD
:101A40000320207000232A461946A06902F050FEA8
:101A50002089800800EB800081B2A1806089800825
:101A6000E0804E4A126F526B927B520707D500EB13
:101A700080004FF6FF7202EA4000E08002E000EBD7
:101A80008000E080E08841434FF47A7091FBF0F0F1
:101A9000E0600620206142483F4900231A46103189
:101AA000006802F06FFD00232A466946606902F073
:101AB0001FFE00980128F6D1C2E770B5364C00220F
:101AC0002146607801250426C978032838D005DC32
:101AD00050B101280ED0022804D12AE0102840D0AD
:101AE000112845D0627070BD2078A0700028FAD00F
:101AF000657070BDA07800F00501012908D081074C
:101B00000DD520F00200A07010206070628170BDC1
:101B100020F00500A07002206070228170BD62700C
:101B20002270A069BDE8704000231A46194602F0F1
:101B30008EBD0420FFF7F1F8E6700320607070BDE1
:101B4000042904D2FFF757F9218908442081E0785D
:101B500028B1FFF744F9E078401EE07070BD657071
:101B600070BD0720FFF7D9F8E6701120607070BDD6
:101B7000042904D2FFF73FF9618908446081FFF727
:101B80002EF9E07828B1FFF72AF9E078401EE070DE
:101B900070BD657070BD0000040000202C0800209E
:101BA0004C00002070B500244A4D686820F0C00049
:101BB00068600A2000F0BDFC0646474800688106C0
:101BC00000D41024400701D444F480742868C1076D
:101BD00001D144F00104810701D444F0020441071B
:101BE00001D444F00404C10601D444F00804800682
:101BF00001D444F02004304600F0A0FC0028FAD1C3
:101C00002868696841F0C0016960010601D444F0A8
:101C10004004400601D444F080043048048070BD84
:101C20002F48002141808180C180018170470020C0
:101C30002B4A00210A3222F81010401CC0B2092899
:101C4000F9D3EDE72DE9F041FFF7ACFF2348008819
:101C500020F00F05FFF7E4FF0021214C01274FF68C
:101C6000FF7C04F10A0607FA01F082B236F811008F
:101C70000CEA4000154201D040F0010000F00303DF
:101C8000012B04D0022B06D0032B19D111E063885D
:101C90001343638014E0A3881343A380C0F3880335
:101CA000A3F58078B8F1FF080AD0E3881343E380F6
:101CB00006E0C0F38803FF2B02D12389134323815D
:101CC00026F81100491CC9B20929CCD32580BDE8EA
:101CD000F081000000000B4000800A40200000203E
:101CE000000800201E48006840F30000401C7047B8
:101CF0001C48006840F38020401C70471A4A0128A5
:101D000003D004211046FEF789BC04211046FEF7DB
:101D10007ABC15480068C0F380007047124A012859
:101D200003D008211046FEF779BC08211046FEF7C3
:101D30006ABC0B4A012803D002211046FEF76EBC94
:101D400002211046FEF75FBC084A012803D040215B
:101D50001046FEF763BC40211046FEF754BC00005D
:101D600000800A4000000B4000800E4000800C40C4
:101D700010B5002300241470847BE40706D0C488C7
:101D80008C4203DB21460AB102241470847BA40731
:101D900006D504898C4203DC21460AB10124147063
:101DA00044888C4203DB21460AB1082414708488DD
:101DB0008C4203DC21460AB10424147002888A4252
:101DC00001D001800123184610BD10B501280AD0AA
:101DD00058B1B348006F0024801CFFF7C9FF00B161
:101DE0000124204610BDAE48F5E7AD483830F2E793
:101DF0000178022904D001290AD049B10020704796
:101E0000A749096F097801F00101017001207047AD
:101E10000120704770B5A24C217841F0010121F0FA
:101E2000020141F0010121F00201217041F28831EB
:101E300061800021A18042F21072E28021816281E2
:101E4000A181E281227C22F0010222F002022274AE
:101E500094F8202022F004054FF47A636382A18273
:101E600044F62062E28221836283A183E28325F02B
:101E7000010525F0020584F8205094F8305045F013
:101E800004066384A1845500E58421856585A185C8
:101E9000E58526F0010525F0020584F8305004F1AF
:101EA0001205656394F8385025F0010525F0020508
:101EB00084F8385042F6E0656587A187E287A4F888
:101EC0004010A4F84220A4F84410A4F8462094F846
:101ED000485025F0010525F0020584F8485094F893
:101EE000585025F004055E10A4F84A60A4F84C1080
:101EF000A4F84E20A4F85010A4F85220A4F85410CE
:101F0000A4F8562025F0010525F0020584F8585064
:101F100094F8685045F00405A4F85A30A4F85C1011
:101F2000A4F85E20A4F86010A4F86220A4F864105D
:101F3000A4F8662025F0010121F0020184F8681060
:101F400004F14A01E16694F8751041F0010121F0B5
:101F5000020184F875100521A4F87610012829D013
:101F600004F13800206700F0F8F800F0AEF800281F
:101F7000FBD0206F007800F00100FFF7CFFE206F4C
:101F8000406B807BC0F38000FFF7D3FE206F40885A
:101F900000F08EF8206F406B817B0088C1F38001D8
:101FA00000F08BF8206F0078BDE87040C0F340006F
:101FB000FFF7CABE3A48D5E70A220A7004224A70DF
:101FC00002780A7142784A710022CA718A71837854
:101FD0000A7A63F301020A72C37863F383020A7216
:101FE000007960F305120A7270471FB500220C21B8
:101FF000052002F038FA2B4D286070B3002002F063
:10200000D9FE0021286802F0FDF9254E4FF0FF3778
:10201000012400233A4601A9286802F069FB9DF8D3
:10202000040088B30428F4D10DF10600FFF7E0FEA8
:10203000A8B19DF806006A460399FFF7C6FEC007DF
:102040000FD0306F9DF80610027802F00102914225
:1020500007D1408800F02CF803E0FFE7FEE7FF20FF
:1020600000900F4901A81039FFF7A6FF0C4810385F
:10207000C4719DF80010817101460B4800231A4677
:10208000006802F07FFAC4E7FFE76C600748054983
:1020900000231A46091D006802F074FAB9E700002F
:1020A0002C08002024000020400000201800002000
:1020B0000521B0FBF1F001F026BB012900D1400859
:1020C0000521B0FBF1F001F021BB9548007800F04C
:1020D0001000704710B5924C2178C90701D0132029
:1020E00010BD2178C90601D4112010BD72B6FFF7CA
:1020F00015FE62B60820607060780028FCD11020C0
:1021000010BD10B5864C2178C90701D0132010BD31
:102110002178C90601D4112010BDFFF70AFE08205E
:10212000607060780028FCD1102010BD7C480178D8
:10213000C90701D0102070470178490701D5122046
:1021400070470178C90601D4112070470121417000
:1021500041780029FCD11020704771480178890727
:10216000002901DA102070470221417041780029CE
:10217000FCD1102070476A480178C90701D01120AE
:1021800070470421417041780029FCD1102070472C
:102190002DE9F041624D28784FF4FA7710F00A0FDC
:1021A00001D0AF8003E0A88808B1401EA880A888AD
:1021B00048B100245B4E54B1E88808B1401EE88065
:1021C000012C08D015E0FFF78DFD0446F2E7B6F8C4
:1021D0007600E880F4E7A88958B996F8750080077A
:1021E00007D55248012300224F49006802F02FFA18
:1021F000AF814FF04B08012C16D1E888A0B996F8B2
:102200007500C00710D0287820F0010028702878C9
:1022100040F006002870A5F80880464801230022F7
:102220004349006802F013FA6878400703D528781C
:1022300020F004002870687880070DD52878800782
:102240000AD4287820F001002870287840F0020095
:102250002870A5F8088010E06878C0070DD02878AD
:10226000C0070AD12878400707D4287820F0020058
:102270002870287840F0010028706878000701D5A0
:10228000322028816878C00600D56F81A878C00701
:1022900004D0287840F00800287006E0A87880076D
:1022A00003D5287820F00800287000206870A870F6
:1022B000287810F00A0F03D00020FFF71FFD05E07B
:1022C0002878C00702D00120FFF718FD00202978E8
:1022D000C90702D0698901B90120012C03D096F801
:1022E0007410022901D140F0020000F049FD288954
:1022F00030B1401E2881287820F01000287003E0BB
:10230000287840F010002870688908B1401E688164
:10231000A889002801D0401EA881BDE8F0810000F6
:10232000300000202C0800208CBE0008580000203F
:1023300070BE0008240000208EB0002210210A2068
:1023400002F091F8DFF89C81C8F8000000287ED0E8
:10235000FA2002F09BFC0420029001250395624CB8
:1023600000231A4602A9206802F00CF90020FFF7AA
:1023700051FD5E48006802F058FD642002F086FCC2
:102380000320029000231A4602A9206802F0FAF8FE
:102390002E040196564F00231A4601A9386802F010
:1023A000F1F84FF0FF3900234A460AA9D8F8000097
:1023B00002F09EF99DF82800072849D0082858D037
:1023C000092863D00A28EED1052002909DF82F003D
:1023D0008DF80C009DF8300000F003018DF80D1011
:1023E000C0F381018DF80F10C0F301108DF80E00BD
:1023F00000231A4602A9206802F0C4F89DF82D00B7
:10240000012811D002280FD09DF82E0080B34FF480
:1024100000300190019840F03200019000231A46EC
:1024200001A9386802F0AEF89DF82D00012801D00E
:102430000228B8D18DF8105001284BD02D48002328
:102440001A4604A9006802F09DF8ACE7FFE7FEE732
:102450000295BDF82C00ADF80C00BDF82E00ADF8CB
:102460000E0000231A4602A9206802F08BF89AE7B2
:102470002EE002200290BDF82C00ADF80C000023E5
:102480001A4602A9206802F07DF88CE79DF82C001E
:102490008DF81C009DF829008DF81D009DF82D0079
:1024A0008DF81E009DF82E008DF81F009DF82F005E
:1024B0008DF820009DF830008DF821000D980990CE
:1024C0000D4800231A4607A9006802F05BF86AE786
:1024D00001969FE7094800231A4604A9006802F004
:1024E00051F860E7400000204C0000202C00002044
:1024F00058000020A0010020240000209C010020A2
:1025000011480168C9070AD1016841F08071016072
:102510000E4800214160016841F0010101607047EF
:102520000A4840687047081A704708494968081AFD
:1025300070470649496801EB4010704703494968F4
:10254000081AC00F70470000FCED00E0001000E02A
:102550001A4908788006000E0870194A1368DB05CE
:10256000002B02DA40F0010008701068800503D5E6
:10257000087840F002000870087800F00F000F287B
:102580000CD2DFE800F00B0C080B080B0B0C0C0B4B
:102590000B080B080C004888401E4880704748888C
:1025A000401C4880704705498A88488820F003000D
:1025B0008880801A00B28010C880704744000020D4
:1025C00000000B40042811D004DC012808D00228A8
:1025D00004D109E0082805D0102809D00020704750
:1025E0000120704708207047022070470420704780
:1025F00010207047C0B27047012802D0CD484088F3
:102600007047CC483838FAE7012802D0C948C0885A
:102610007047C8483838FAE7012802D0C548808892
:102620007047C4483838FAE7012803D0C14821B1BF
:1026300040897047BF483838F9E70089704701285A
:1026400005D0BC4831B1007CC0F340007047B948A8
:102650003838F7E7007C00F001007047012804D00B
:10266000B44829B1223000887047B2483838F8E7BA
:102670001230F8E7012804D0AE4829B12230808812
:102680007047AC483838F8E71230F8E7012804D032
:10269000A84829B1223040887047A6483838F8E762
:1026A0001230F8E7012805D0A24831B1223032B10A
:1026B000008970479F483838F7E71230F7E7C0883D
:1026C0007047012807D09B4841B1223042B1807B3E
:1026D000C0F34000704797483838F5E71230F5E707
:1026E000807B00F0010070479248383890F8750000
:1026F00000F0010070478F48383890F87500C0F33B
:10270000400070478B483838B0F876007047012891
:1027100005D08848406B807BC0F3800070478548B7
:102720003838F7E783483838006F007800F0010048
:10273000704786B0002208210A2001F094FE7E4CEA
:102740002060C0B102F023FE7C4804F0F9FC4FF099
:10275000FF3500232A4604A9206801F0C9FF049828
:102760000C28F6D2DFE800F016293B081C42BD0613
:10277000060606CAEDE7FEE7FFF7D4FF03F067FAA7
:10278000F0208DF8080002A96C4804F01DFC04F04C
:1027900061FCDEE704F017FD694800F08AFAD8E72B
:1027A000F1208DF8080005988DF8090002A963480A
:1027B00004F00AFC04F04EFCCBE7BDF81600FFF76E
:1027C00001FF0646BDF81400FFF714FF014600297B
:1027D000BFD0002EBDD0304604F0A7FDB9E7BDF94B
:1027E00014000028B5D004F0B0FDB2E79DF8140045
:1027F000C00708D09DF81500FFF7FEFE01469DF8C2
:10280000150003F0F8F99DF8140080070CD59DF829
:1028100017109DF81500FFF721FF02469DF81710CD
:102820009DF8150003F0EEF99DF81400400713D54C
:102830009DF816109DF81500FFF7F6FE03469DF86B
:1028400016109DF81500FFF7FAFE02469DF81610C7
:102850009DF8150004F0DFF99DF8140000071AD563
:102860009DF816209DF817109DF81500FFF71AFF28
:1028700006469DF816209DF817109DF81500FFF7E5
:1028800020FF034600969DF816209DF817109DF82E
:10289000150004F0D2F99DF81400C00608D59DF883
:1028A0001500FFF734FF01469DF8150003F0B7F956
:1028B0009DF81400800603D5FFF734FF03F0C7F935
:1028C0009DF81400400689D5FFF70EFF0346FFF779
:1028D00012FF0146FFF716FF0246184604F0C2F940
:1028E00037E71848008803F01FF91748008803F0FD
:1028F00036F91648006803F04EF92AE71448B0F993
:10290000000003F064F924E7124A0923137003233B
:102910005370042313715071D1600F4800231A467D
:102920000C49006801F02EBE704770477047704731
:1029300070470000640800204C00002090520020E6
:10294000345B0020080000200A0000201000002056
:1029500050000020A4080020400000202DE9F0478E
:1029600007460D461446002607F4E060C00940F013
:10297000A0084FF080494846FEF71EF90128FAD119
:1029800000214046FEF7EBF84FF0007A5046FEF784
:1029900013F90128FAD14FF000494846FEF70CF927
:1029A000012805D00126FEF7E7F83046BDE8F0879C
:1029B000F8B2FEF7DCF857463846FEF7FDF8012876
:1029C000FAD14846FEF7F8F8012801D00226EAE7D6
:1029D00001214046FEF7C3F83846FEF7EDF801281E
:1029E000FAD14846FEF7E8F8012812D00326DAE7C4
:1029F0001CB10020FEF7C4F802E00820FEF7C0F882
:102A00003846FEF7D9F80128FAD1FEF7BEF805F8E6
:102A1000010B2000A4F10104E4B2E9D1C3E72DE9E0
:102A2000F04780460D461446002608F4E060C009D1
:102A300040F0A0074FF080494846FEF7BDF8012856
:102A4000FAD100213846FEF78AF84FF00077384671
:102A5000FEF7B2F80128FAD14FF000494846FEF7D8
:102A6000ABF8012804D00126FEF786F830469DE732
:102A700008F0FF00FEF77BF83846FEF79DF80128C6
:102A8000FAD14846FEF798F8012801D00226EBE774
:102A90004FF400480DE02878FEF769F86D1C3846C1
:102AA000FEF78AF80128FAD14046FEF785F801289A
:102AB00005D02000A4F10104E4B2ECD1D4E7032650
:102AC000D2E710B54FF080442046FEF775F8012894
:102AD000FAD10021A020FEF742F84FF00074204602
:102AE000FEF76AF80128FAD1FEF746F84FF00040E9
:102AF000FEF762F8012801D0002010BD012010BDB2
:102B000070B50446012901D144F480749A4D022124
:102B10002846FDF772FC0128F9D121462846BDE878
:102B20007040FDF765BC10B5FFF703FD0446204675
:102B3000FFF704FD0028FAD110BD10B58F4A012817
:102B400007D004211046FDF769FDBDE810401420B0
:102B5000E9E704211046FDF756FDF6E770B50021C0
:102B6000E220FFF7CDFF00213D20FFF7C9FF002144
:102B70000120FFF7C5FF0021E120FFF7C1FF002181
:102B80000846FFF7BDFF00212420FFF7B9FF002111
:102B90009020FFF7B5FF0021A020FFF7B1FF002133
:102BA000C820FFF7ADFF0021A620FFF7A9FF0021F5
:102BB000A420FFF7A5FF00212F20FFF7A1FF002190
:102BC0004020FFF79DFF0021F820FFF799FF00212B
:102BD000D020FFF795FF00213020FFF791FF002163
:102BE000B020FFF78DFF00211020FFF789FF0021A3
:102BF0000846FFF785FF002440F25F3501210020E1
:102C0000FFF77EFF641CA4B2AC42F7D3BDE870406E
:102C10000021AF2074E770B5584C01212046FDF724
:102C2000FDFC42F210752846FFF77DFF012120468A
:102C3000FDF7E9FC2846FFF776FF0120FFF77DFF4F
:102C4000FFF78CFF4C4C10212046FDF7D6FB0028E7
:102C5000F9D10220FFF771FFFFF780FF1021204616
:102C6000FDF7CBFB0028F9D170BD70B50D46FFF71D
:102C700064FF0021B020FFF743FF00211020FFF781
:102C80003FFF00210846FFF73BFF00244FF4587632
:102C900015F814000121FFF733FF641CA4B2B442FD
:102CA000F6D3354C10212046FDF7A7FB0028F9D1BB
:102CB00070BD2DE9F047064609270120FFF73DFFCB
:102CC0000021B020FFF71CFF00211020FFF718FFA4
:102CD00000210846FFF714FF60244FF0000811E0C0
:102CE0000025641EA4B20121305DFFF709FF6D1CB1
:102CF000ADB2602DF5D304F59074A4B208F10108CB
:102D000008F0FF08B845EBD3DFF86C901021484677
:102D1000FDF773FB0028F9D10220FFF70EFF002119
:102D2000B020FFF7EDFE00211020FFF7E9FE0021A3
:102D30000846FFF7E5FEC0244FF0000811E000252B
:102D4000641EA4B20121305DFFF7DAFE6D1CADB246
:102D5000602DF5D304F59074A4B208F1010808F0D1
:102D6000FF08B845EBD310214846FDF746FB002885
:102D7000F9D1BDE8F087000000000A4000800C4057
:102D800070B504460C4DE00704D080212846FDF7BD
:102D900045FC03E080212846FDF735FCA00705D55A
:102DA0002846BDE870404021FDF738BC2846BDE804
:102DB00070404021FDF727BC00000B4008B502F031
:102DC000ECF800900220FDF7B0FF1C4CFA21684699
:102DD00001F033FF00260025FEF707F8022001F07E
:102DE00055FFFEF70BF8304486B26D1C0A2DF3D365
:102DF000304608F004FC124A124B08F04FFC124A0D
:102E0000124B08F04BFC0022114B08F0D1FA08F0ED
:102E1000C7FB00B22080192801DA322000E0400010
:102E200080B200F076FC0B2060600A480349002362
:102E30001A46091D006801F0A5FBC7E750000020F5
:102E40009A9999999999B93F21B0726891EDCCBF3F
:102E500000C06C404C000020052800D300204749EA
:102E600051F8200070474649421E8A604008486178
:102E70007047434A516B40F60C439943002803D0F6
:102E800040F60800014302E040F204400143516370
:102E900070470EB500200190804683460022042131
:102EA0000A2001F0E0FA3549091F086080BBFEE7FF
:102EB00088B2090C404554D98046019151E0D8456B
:102EC00000D901244FF0000A062C40D2DFE804F0BC
:102ED0003F030C1A23370198FFF7BEFF81460224F7
:102EE000C3464FF0000839E0D9F80400009099F883
:102EF00000700098384303D009F1080903242DE03D
:102F000000242BE02FB17F1EBFB2009E042425E0D9
:102F100027E0022422E03088758855EA000107D0B6
:102F2000361D38B1FFF79FFF0120FFF7A2FF04E035
:102F3000032413E00020FFF79CFF05240EE025B1D9
:102F40006D1EADB24FF0010A08E0042406E04FF018
:102F5000000B0020FFF78DFF4FF0010ABAF1000FC0
:102F6000B2D006480023001F5A1E02A9006801F0D3
:102F7000BFFB029911F5803FA1D099E75C000020CA
:102F800000000740FE48FD49816001214160704713
:102F90002DE9F04107460D46F94E0124BC40F4628C
:102FA0002868002804D0F54901EB0711FEF7B0F8B6
:102FB000686820B1F16801EB0711FEF7A9F8687B9A
:102FC00001280AD0F4617462A87B40B13463287B85
:102FD000012806D0F463BDE8F081B461F3E77463BF
:102FE000F5E7B463F7E710B50120FEF718FAFEF72E
:102FF00029FA012800D0FEE707210220FEF791FA06
:103000000120FEF7A8FAFEF7A9FA012800D0FEE792
:103010000020FEF7BBFA0120FEF79AFA4FF4807009
:10302000FEF79DF92020FEF7F4FA0020FEF7F8FAEB
:103030000120FEF7FDFAFDF737F90121D148FEF72F
:1030400083F9BDE810400121CF48FEF77DB92DE995
:10305000F041CE4908684FF6FF021040CC4A40F4D8
:103060004070104308606FF00407384600F0FAFB28
:10307000C84C2060BD10284600F0F4FB60606E1064
:10308000304600F0EFFBA060052000F0EBFBE060B5
:103090000F2000F0E7FB20610621052000F0D6FBA1
:1030A00006210F2000F0D2FB384600F0DBFB206049
:1030B000284600F0D7FB6060304600F0D3FBA060EC
:1030C000052000F0CFFBE0600F2000F0CBFB20617B
:1030D00081E710B56FF0040000F0C4FBAD4C206038
:1030E0006FF0010000F0BEFB60604FF0FF3000F0B9
:1030F000B9FBA060052000F0B5FBE0600F2000F0F8
:10310000B1FB206110BD2DE9FE4FDFF88CB25846AF
:10311000FDF798F9A148FDF795F9A148FDF792F957
:10312000A048FDF78FF9A048FDF78CF99F48FDF7FF
:1031300089F9C0219948FDF766FA6846FDF74CFA0F
:103140002120ADF8000001248DF80A406946584658
:10315000FDF782F94FF00409ADF800908DF80340B7
:1031600069465846FDF778F90225ADF800508DF80C
:1031700002408DF8094069465846FDF76DF9182060
:10318000ADF800008DF8085069465846FDF764F91F
:103190006846FDF721FA4FF0800AADF800A08DF8DF
:1031A0000A408DF8095003268DF808608DF802401A
:1031B00069465846FDF750F94027ADF800704FF0CA
:1031C00000088DF8028069465846FDF745F96846C3
:1031D000FDF702FA40F23770ADF800008DF80A40B2
:1031E00069466E48FDF738F9A002ADF8000069465F
:1031F0006A48FDF731F9C020ADF800008DF80240B3
:103200008DF8094069466548FDF726F96846FDF7DF
:10321000E3F9ADF800908DF80A408DF808508DF86C
:10322000094069465E48FDF717F9ADF800608DF872
:10323000095069465A48FDF70FF96846FDF7CCF981
:103240009720ADF8000069465648FDF705F928209B
:10325000ADF800008DF80A408DF808508DF809503F
:103260008DF8024069464F48FDF7F6F8ADF800705A
:103270008DF8044069464B48FDF7EEF86846FDF7C7
:10328000ABF94520ADF800008DF80A408DF80950E3
:103290008DF8024069464448FDF7DEF8ADF800A01D
:1032A0008DF8086069464048FDF7D6F80A20ADF869
:1032B00000008DF8085069463B48FDF7CDF8684698
:1032C000FDF78AF90C20ADF800008DF80A408DF862
:1032D00009408DF8024069463448FDF7BDF868465C
:1032E000FDF77AF9ADF800508DF80A408DF80950D5
:1032F0008DF808608DF8024069462C48FDF7ACF85F
:10330000ADF800408DF8028069462848FDF7A4F822
:10331000BDE8FE8F2DE9FF476846FDF75AFEDFF84E
:1033200090904846FDF7FEFD4FF4E1360096602789
:10333000ADF804700024ADF80640ADF808404FF039
:103340001008ADF80A80FD00ADF80C500021484689
:10335000FDF7C0FE69464846FDF7F5FD01214846E8
:10336000FDF743FEDFF84CA05046FDF7DBFD00966D
:10337000ADF80470ADF806401EE000000004002027
:10338000008002400000E023E0C413000CED00E0E8
:103390000000FA05B408002000800A4000000B403D
:1033A00000800B4000000C4000800C4000800E406C
:1033B0000080034000000340ADF80840ADF80A80EB
:1033C000ADF80C5000215046FDF784FE694650468A
:1033D000FDF7B9FD01215046FDF707FE0222114617
:1033E0005046FDF72BFE022211464846FDF726FE09
:1033F000BDE8FF8770B5FDF7C1FEF8484FF0FF3418
:1034000004628461861501213046FDF79DFFF44D6D
:1034100000212846FCF7F8FF00216962F14841626B
:103420003046FDF791FFF04AC2F8FC41C2F8FC407B
:10343000FFF7A8FD2020D06770BD1FB56846FCF7D8
:1034400097FFE84C00212046FCF7DEFF0420ADF892
:1034500000000222ADF802200021ADF8041008207F
:10346000ADF80600ADF80810ADF80A10ADF80C1074
:10347000ADF80E2069462046FCF767FF0121204683
:10348000FCF781FF1FBD1CB50120FDF744FB4FF485
:1034900080700090002001906846FDF726FB1CBD5F
:1034A00030B593B0FDF794FB0CA8FDF7B6FB0024F4
:1034B0000C940A200D904FF400300E9040000F90B5
:1034C0004000109040001190012512950CA8FDF7C6
:1034D0008EFB01A8FDF7FDFB0420019002940394EC
:1034E0001F20049005940694ADF81C40ADF81E40D2
:1034F000E802089009954FF4E0400A900B9401A867
:10350000FDF79CFB01A8FDF7C1FB00210620FDF79C
:10351000CBFC00210620FDF7D2FC0120FDF7E7FBE4
:103520000120FDF7EFFB13B030BD2DE9F04391B062
:103530000BA8FDF7D6F81F20ADF82E0040F2F310CF
:10354000ADF83000A94E0BA93046FDF7AFF805A83D
:10355000FDF75AF90024ADF816404FF44068ADF875
:103560001E800125ADF814504FF00809ADF82690E3
:1035700005A93046FDF728F96846FDF7F7F9ADF8DB
:103580000240ADF80450ADF80650ADF80840ADF873
:103590000A50ADF80C50ADF8005069463046FDF7C2
:1035A000C8F9F920706100213046FDF76CFA01215D
:1035B0003046FDF7A4F80BA8FDF793F8ADF82E50B0
:1035C00040F6FF70ADF83000894F0BA93846FDF783
:1035D0006DF805A8FDF718F9ADF81640ADF81E8096
:1035E000ADF82690ADF8144005A93846FDF7ECF883
:1035F0000226ADF8146005A93846FDF7E5F805A8E0
:10360000FDF702F9ADF816406802ADF81E00ADF8FE
:103610001450ADF8264005A93846FDF7D5F86846A0
:10362000FDF7A4F9ADF80850ADF80A60ADF80C50FC
:10363000ADF8004069463846FDF77BF9ADF800600B
:1036400069463846FDF775F93C61BC617C61012231
:1036500091023846FDF705FA00213846FDF713FAC6
:1036600001213846FDF74BF80BA8FDF73AF80F207B
:10367000ADF82E006320ADF830005E4F0BA9384640
:10368000FDF714F805A8FDF7BFF8ADF81440ADF844
:103690001640ADF81E80ADF8269005A93846FDF716
:1036A00093F86846FDF762F9ADF80040ADF80460A4
:1036B000ADF80240ADF8065069463846FDF739F9D5
:1036C000ADF8146005A93846FDF77EF8ADF8006046
:1036D000ADF80440ADF80640ADF80A60ADF808500A
:1036E000ADF80C5069463846FDF723F93C61BC61E2
:1036F00000213846FDF7C7F901213846FCF7FFFFE6
:1037000011B0BDE8F0833A490861704738498861D3
:103710007047384988617047642800D9642035496A
:103720000861704710B5FEF7E3FA00287BD172B646
:103730000020FEF7E3FA41F28830FEF7FAFE044675
:103740000020FFF7E9FF0020FFF7E3FF0020FFF76D
:10375000DAFF0020FFF7DAFF002004F068FE002007
:1037600004F046FE244804F08FFF01230A220021C2
:1037700022A005F01FF801230A2260211FA005F0F6
:1037800019F82046FEF7DAFE0028FAD1FEF7C6FA4D
:103790000020FEF7CEFA0020FEF7D6FA1A48FFF70F
:1037A00088FA4FF47A70FEF7C4FE04462046FEF70E
:1037B000C5FE0028FAD11548FCF744FE1448FCF772
:1037C00041FE1448FCF73EFE1348FCF73BFE13484D
:1037D000FCF738FE1248FCF735FEFEE70080024099
:1037E0000000044000000A4084E000E000000740C0
:1037F000008007400000084000EF0008506F776528
:1038000072204F4646000000345B002000800A40D2
:1038100000000B4000800B4000000C4000800C407A
:1038200000800E40FFE710BD144902680A6042683C
:103830004A6082688A60C268CA6002690A61426935
:103840004A6182698A61C069C861FEE74907090E59
:10385000002804DA0A4A00F00F0081547047094A30
:1038600081547047002805DA054900F00F00405CDC
:10387000400970470349405C40097047F008002048
:1038800014ED00E000E400E07CB5FEF749FE0546DB
:1038900000200190364C217839B36168491E61607F
:1038A00009D100903348002301AA6946006800F05E
:1038B000CEFE19206060A168491EA16008D12F4882
:1038C000002301AA2C49006800F0C1FE3220A0604C
:1038D000E168491EE16008D12A48002301AA28496D
:1038E000006800F0B4FE0520E060019818B1264998
:1038F0004FF0805008602846FEF717FE1C49103133
:103900000A68824200D208607CBD10B5FEF708FE4E
:103910000446FFF707FF16494888401E0004000CC4
:10392000488003D105204880FEF7C7F8FEF730FC39
:10393000FEF70EFE154A506900F5486080B29168A6
:10394000814201D29168401A50614FF48061104663
:10395000FDF77BF8FEF7E4FD01462046FEF7E3FDA8
:10396000034910314A68824200D2486010BD00000D
:10397000700000204C0000207CBE000824000020C5
:1039800088BE00085800002004ED00E000800740D9
:1039900086B001F002FB0190434E444DDFF810A1C8
:1039A0004FF0090B01274FF003084FF6FF790A216A
:1039B00001A801F042F9FEF745F9FEF7F4FD8DF894
:1039C00008B0B07880060AD58DF80C808DF80D709F
:1039D00000231A4602A9286800F0D4FD0DE03079D2
:1039E00080060AD58DF80C8000208DF80D0000238C
:1039F0001A4602A9286800F0C5FD7088010602D4A5
:103A0000B188C90509D502208DF80C0000231A469B
:103A100002A9286800F0B6FD0AE010F4A07F07D0E4
:103A20008DF80C7000231A4602A9286800F0AAFD40
:103A300007208DF808000124ADF80E407088204260
:103A400007D0ADF80C7000231A4602A9286800F0D0
:103A500099FDF088204207D0ADF80C8000231A466B
:103A600002A9286800F08EFD3089204208D0052088
:103A7000ADF80C0000231A4602A9286800F082FD68
:103A800009EA4404002CD7D1BAF9000000288ED0EE
:103A900008218DF80810ADF80C0000231A4602A981
:103AA000286800F06FFD82E7000800204000002039
:103AB0004A0000202DE9F0410546884616461F467B
:103AC0002C460C35216821B1404605F02BFD00281D
:103AD000F6D120793070A0683860BDE8F08170B50B
:103AE00004460E4625460834296821B1304605F0C3
:103AF00019FD0028F6D1284670BD2DE9FC47804607
:103B00000C461546002C12D00020286068604FF04B
:103B100001094E466B4601AA3648D8F80010FFF757
:103B2000C9FF641EE7B2009800285ED15FE0002064
:103B3000BDE8FC8758F826100098FFF7D0FF044630
:103B40006079010605D5761CF6B27F1E17F0FF07D7
:103B50004DD000F07F00062843D2DFE800F042039A
:103B60000D172635217958F8260005EBC10148606C
:103B7000207905F8309034E02179E08805EBC10127
:103B800088802179022005F831002AE0002258F8C7
:103B90002600114605F0CFFB217905EBC1014860F5
:103BA0002179032005F831001BE0002258F8260097
:103BB000114605F088FB217905EBC10148602179A8
:103BC000042005F831000CE058F82600002107F029
:103BD00080FB217905EBC10148602179052005F8BA
:103BE0003100761CF6B27F1EFFB2002FA2D19DF8E5
:103BF00004009DE7500100204160428000230380C3
:103C00004FF6FF7002E0521E21F81200002AFAD18E
:103C100070470388426832F813200A804FF6FF711C
:103C20008A420ED00388426822F813104288018825
:103C3000521E914201DA491C00E00021018001205E
:103C400070470020704730B58FB01446C64A904286
:103C500001D1012500E003250190486802904FF052
:103C6000406003904FF0804004904FF088500590E2
:103C7000012206924888079000200890910409913B
:103C8000C9000A9101A90B910C900D908DF8382074
:103C90008DF839008DF83A00E8B20BA9FFF778F9F2
:103CA000B24800EB051001682160416861608068DE
:103CB000A0600FB030BD10B5012815D0C822AC49A6
:103CC000AC48FFF799FFAD4CAB4AAA492046FFF735
:103CD000BAFF01210320FDF7E8FA20460122BDE8E2
:103CE00010401146FDF7AEB9A248C822A4490838D1
:103CF000FFF782FFA04A9F499B4C0C3A08392046A7
:103D0000FFF7A1FF01210846FDF7CFFA2046012267
:103D1000BDE810401146FDF795B9F8B50D461446BB
:103D2000012805D0934E35B12CB1208818B117E089
:103D3000904E083EF7E70020F8BDBDF8002012F4D1
:103D4000E06F0DD1D3B22A68501C28601370208810
:103D5000401E82B2228052B10A2B08D00D2B06D011
:103D600069463046FFF755FF0028E6D1F8BD01202F
:103D7000F8BD70B588B00023012906D0814C8DF8BC
:103D8000103004D14FF0010103E07F4CF7E74FF012
:103D900002018DF811108DF804304FF002054FF03C
:103DA000030601281ED00121022866D0032879D0FD
:103DB000042873D08DF804509DF8100030B173487A
:103DC00000231A4604A9006800F0DCFB9DF80400FB
:103DD000002805D000231A4601A9206800F0D2FB74
:103DE00008B070BD1078042198B39088092340B1C1
:103DF00001280BD002280ED003281FD08DF80460B4
:103E0000DAE78DF810308DF81450D5E78DF81030C2
:103E10008DF81450D0E7107E68B18DF810308DF811
:103E20001410107A08B1908900E002208DF8150076
:103E3000D0690790C0E78DF80410BDE7107EB0B1DF
:103E40008DF8103006208DF81400107A10B190898A
:103E500001E00FE002208DF81500107C08B1908A77
:103E600000E002208DF81600D0690790A4E78DF8D5
:103E70000410A1E78DF804109EE7107878B1107A4D
:103E800068B107208DF810009089ADF81600908871
:103E9000ADF814008DF804108EE703E010E08DF803
:103EA000046089E7107840B108208DF810009088F0
:103EB000ADF814008DF804107EE78DF804607BE700
:103EC0000A208DF8040077E7A2B000F0FF08B8F1EF
:103ED000010F1ED0284C5C3421945027209701F00C
:103EE0005CF801904046FFF7E6FE052101A800F0CE
:103EF000A4FE20AA21A94046FFF70FFF0028F4D016
:103F0000BDF88000C0F1500080B2002301260022DD
:103F100016E0194C0C34DFE7A55C202D1FD0092DCD
:103F20001DD00A2D1BD00D2D19D03EB1A518194654
:103F30000CAE5B1C9BB246F821500026521CD2B23C
:103F40008242E9D343B1D9B202AA0CA8FFF7D5FD4A
:103F500002AA4146FFF70DFF20972194C5E70021F3
:103F6000A1540126EAE700000000034000040020FD
:103F7000B80A002094010020540C00200080034067
:103F800028090020A00100209C0100204000002002
:103F900010B50021B14C0A46491CC9B204EBC2035A
:103FA0001A780AB18242F6D1586810BD1FB5AC4AE2
:103FB000904201D1002300E0022300220A60486001
:103FC0008A604FF04040C8600A61012048618A6100
:103FD000CA6184040C6244054C6200920192029210
:103FE0008DF80C008DF80D208DF80E20D8B26946A2
:103FF000FEF7CEFF1FBD2DE9F05F834688461646CB
:104000001C469748834502D14FF0000701E04FF06E
:10401000020702D1DFF84C9203E0DFF8489209F181
:10402000640902D1DFF840A232E0DFF83CA20AF1D5
:10403000040A2DE0B6F1005F0ED2642C01D964258C
:1040400000E025462A463146484605F040FA601B06
:1040500084B22E44484602E0304625460024C8F883
:104060000000C8F81850F8B242460021FDF794F855
:10407000F8B20121FDF719F9012202215846FCF797
:10408000E1FF00235A1E1946DAF8000000F030FB69
:10409000002CCFD1BDE8F09F8EB0C0B2012805D072
:1040A000714EA6F1040605D16F4C06E06E4EA6F1E6
:1040B0000806F8E76C4C04F1040402D1DFF8A08193
:1040C00001E0DFF8A88101D1664F02E0654F07F1FA
:1040D000640704A94046FFF769FF00220C210A206B
:1040E00000F0C1F9306020B303220021012000F06C
:1040F000BAF9206020B100231A46194600F042FAAE
:104100002068B8B100231A46194600F0F1FA4FF0C2
:10411000FF3900234A4601A9306800F0E9FA9DF80A
:104120000400811F052933D2DFE801F005050B0BE0
:104130000F00FEE7FEE7029D284605F035F984B240
:104140002DE0029DBDF80C4029E03D460024DFF83B
:1041500020A148A12846DAF8002004F08BFF284669
:1041600005F022F983B22A4604A94046FFF743FF2F
:1041700047A12846DAF8042004F07CFF284605F021
:1041800013F983B22A4604A94046FFF734FF06E03C
:10419000FFF7FEFE0546284605F006F984B235B164
:1041A0002CB123462A4604A94046FFF724FF9DF878
:1041B0000400072801D00928ABD1029801F009F8C2
:1041C000A7E738B500200090384CA06A264DC007FC
:1041D000A5F108050DD12248816C890709D5816CAC
:1041E00021F00201816400236A461946A86800F0A4
:1041F0002EFAA06A40070DD41C48816C890709D5A6
:10420000816C21F00201816400236A461946E86846
:1042100000F01DFAA06A800709D4254825490A68DC
:1042200002614A684261896881610220A062A06AD5
:10423000000709D41E4820490A6802634A6842639D
:10424000896881630820A06202210020FDF74EF8F2
:10425000012801D1FDF737F838BD000030BF000854
:1042600000000340000D0020A40100200080034056
:10427000800000205379737469636B20686F6F6BE3
:10428000206D6178207469636B733A2025640D009A
:1042900054696D65723220495352206D61782074E3
:1042A00069636B733A2025640D00000000800240B2
:1042B00000040020480C0020540C0020FBF7BEFF37
:1042C000FEE7A0F120004FF08073C36181612849AF
:1042D000416140F8202970474FF0E0204FF6FF1170
:1042E000416107210161704710B52248016841F41E
:1042F0007F010160016841F07F410160FFF7ECFF41
:104300001D4900200860FBF771FF002010BD7047B9
:1043100018494FF080501C390860BFF34F8FBFF32E
:104320006F8F704710B5FBF789FF13480168491C70
:104330000160BFF34F8FBFF36F8F10BD0E49086848
:10434000401E0860002801D1FBF77FBF704710B501
:10435000FBF774FF00F09FFB20B106494FF080503F
:104360001C390860BDE810400020FBF76EBF00005C
:10437000BD42000820ED00E0AC01002000F1080182
:1043800041604FF0FF328260C16001610021016035
:10439000704700210161704742684A6093688B60F2
:1043A00093685960916008610168491C0160704719
:1043B00030B50C68621C02D000F1080202E002690C
:1043C00004E01A4653681D68A542FAD953684B6049
:1043D00099608A60516008610168491C016030BDC4
:1043E000D0E901219160D0E90112516001694A6868
:1043F000824201D182684A60002202610868401E40
:104400000860704770B504460D46FFF78BFFD4E98E
:104410000F12206801FB020060600020A06320688A
:10442000A060E06B226C2168401E00FB0210E0607F
:104430004FF0FF306064A06404F110004DB1FFF74D
:104440009DFF04F12400FFF799FFFFF777FF01209C
:1044500070BD21690029F8D000F0CEFD0128F4D10B
:10446000FFF756FFF1E72DE9F04105460F4600261C
:10447000002D16D04C2000F066FE04468CB105FBE2
:1044800007F0401C00F05FFE206038B1E563276450
:1044900001212046FFF7B6FF264602E0204600F045
:1044A00098FE3046BDE8F08170B50446FFF73AFF4C
:1044B00004F124050AE0606A58B1284600F09CFD2A
:1044C00008B100F0F0FDA06C401EA064A06C0028B4
:1044D000F1DC4FF0FF35A564FFF730FFFFF722FF57
:1044E00004F110060AE0206958B1304600F084FD5E
:1044F00008B100F0D8FD606C401E6064606C00285C
:10450000F1DC6564BDE87040FFF718BF10B50446E4
:10451000FFF708FFA06BE16B884201D1012400E0A6
:104520000024FFF70BFF204610BD70B5044615466A
:10453000226C002A22D07DB1E06804F054FFE168CB
:10454000206C091AE1602268914202D26168081A5F
:10455000E060022D0DD011E0A06804F044FF216C52
:10456000A0680844A0606168884207D32068A06002
:1045700004E0A06B10B1A06B401EA063A06B401CB8
:10458000A06370BD2DE9FF4182B0044688461F46F6
:1045900000250026FFF7C6FEA06BE16B884205D31D
:1045A000022F03D00498A8B1C5B11BE03A4641469A
:1045B0002046FFF7BAFF606A38B104F1240000F02A
:1045C0001BFD012801D1FFF7A3FEFFF7B7FE012075
:1045D00006B067E7FFF7B2FE0020F9E7684600F093
:1045E00037FD0125FFF7AAFE00F022FBFFF79AFE38
:1045F000606C401C00D16664A06C401C00D1A664B5
:10460000FFF79CFE04A9684600F028FD30B1204663
:10461000FFF74AFF00F0A7FA0020D9E72046FFF78E
:1046200075FF70B104F11000049900F0CBFC204636
:10463000FFF73AFF00F097FA0028ABD1FFF768FECA
:10464000A8E72046FFF730FF00F08DFAA2E72DE93A
:10465000F04104460F4615461E46FBF7EFFD804627
:10466000A06BE16B884207D3022E05D000244046A0
:10467000FBF7EBFD204615E7324639462046FFF7AB
:1046800054FFA06C401C04D0A06C401CA06401240A
:10469000EDE7606A0028FAD004F1240000F0ACFCD9
:1046A0000028F4D0002DF2D001202860EFE710B5EB
:1046B0000446FFF737FEA06B20B10024FFF73EFE53
:1046C000204610BD0124F9E730B40C460368002BE6
:1046D0000CD0026CC1681144C1604568A94200D386
:1046E000C360C168204630BC04F07DBE30BC70475A
:1046F0002DE9FF4182B0044688461F46002500266A
:10470000FFF710FEA06B10B3E56841462046FFF7A7
:10471000DBFF6FB1E560606A30B104F1240000F0A6
:104720006BFC08B1FFF7F4FDFFF708FE01204FE72F
:10473000A06B401EA06320690028F5D004F1100092
:1047400000F05AFC0128EFD1FFF7E2FDECE70498F6
:1047500008B125B107E0FFF7F1FD002038E7684612
:1047600000F076FC0125FFF7E9FD00F061FAFFF7A4
:10477000D9FD606C401C00D16664A06C401C00D167
:10478000A664FFF7DBFD04A9684600F067FC30B1C2
:104790002046FFF789FE00F0E6F9002018E72046E2
:1047A000FFF785FF70B104F12400049900F00AFCC2
:1047B0002046FFF779FE00F0D6F90028A0D1FFF7D8
:1047C000A7FD9DE72046FFF76FFE00F0CCF997E7C5
:1047D0002DE9F04104460F461546FBF72FFD06462E
:1047E000A06BE0B139462046FFF76EFFA06B401E7C
:1047F000A063606C401C04D0606C401C60640124A9
:104800000EE020690028FAD004F1100000F0F4FB5B
:104810000028F4D0002DF2D001202860EFE700241A
:104820003046FBF712FD20463CE62DE9F0410446F8
:104830000F46FBF703FD0646A06B38B1E568394625
:104840002046FFF741FFE560012400E000243046E8
:10485000FBF7FBFC204625E610B50446FFF762FD9A
:10486000A46BFFF76BFD204610BD10B50446FFF7A3
:1048700059FDD4E90E10441AFFF760FD204610BD23
:10488000806B704710B50446206800F0A2FC2046FB
:10489000BDE8104000F09DBC806B002801D00020D6
:1048A000704701207047816BC06B814201D10120AC
:1048B000704700207047000070B50024FE4D04EBE7
:1048C000840005EB8000FFF759FD641C052CF6D32E
:1048D000F9486430FFF752FDF7487830FFF74EFD96
:1048E000F5488C30FFF74AFDF348A030FFF746FD4E
:1048F000F148B430FFF742FDEF49F04864310163FD
:104900001431416370BD70B5044615460023E218AA
:10491000C85C82F83400C85C10B15B1C102BF6D365
:10492000002084F84300052D00D30425E562201DF6
:10493000FFF72FFD04F11800FFF72BFD2461C5F1EF
:104940000500A061646270BD70B506460D46442046
:1049500000F0F9FB044644B1B60045B12846206397
:1049600048B1A522314604F083FD204670BD304693
:1049700000F0E9FBF3E7204600F02BFC0024F4E70D
:104980002DE9FF4F81B08246DDE90E681099174688
:104990009B463846FFF7D8FF0446C84DF4B3216B59
:1049A000781E01EB800020F0070900973246204670
:1049B000119B0299FFF7A7FF5A4651464846FFF759
:1049C00080FC2060B8F1000F01D0C8F80040FFF76C
:1049D000A9FCA868401CA860286810B1686938B1B3
:1049E0000BE02C60A868012807D1FFF765FF04E001
:1049F0002868C06AB04200D82C60A86A401CA8622F
:104A0000E06A2969884200D92861AB4900EB80003F
:104A100001EB8000211DFFF7BFFC00E003E0012453
:104A2000FFF78CFC01E04FF0FF34012C07D16869DF
:104A300028B12868C06AB04201D2FFF769FC05B00E
:104A40002046BDE8F08F70B50446FFF76BFC9B4D28
:104A500004B92C68201DFFF7C3FCA06A18B104F14B
:104A60001800FFF7BDFC9448211DA030FFF794FC0F
:104A70006868401C6860A86A401CA862FFF75EFC7A
:104A80006869002806D02868844203D1BDE87040D8
:104A9000FFF73EBC70BD2DE9F0470025874FB86990
:104AA00000280AD0F869401CF861FEF7EDFE386A6C
:104AB00000B101252846BDE8F087F868401CF86081
:104AC000FE684FF0FF3976B9386B796B39637863DC
:104AD000786A401C7862386B0068A0B1386BC06897
:104AE000C0684068F862F86ADFF8CC8186420FD36C
:104AF000386B006850B1386BC068C4686068864223
:104B000015D2F86204E0C7F82C90ECE7C7F82C90B7
:104B10003868C06A00EB800058F82000012800D9EE
:104B20000125F8690028C2D1FEF7AEFEBFE7201DBF
:104B3000FFF756FCA06A18B104F11800FFF750FC0B
:104B4000E06A3969884200D9386100EB800008EBDF
:104B50008000211DFFF720FCE06A3968C96A88429D
:104B6000C6D30125C4E72DE9F0410027FFF7DAFBA2
:104B7000524DA869401EA861A869D8BBA868C8B3EF
:104B8000DFF83481012608F18C081CE0D8F80C000D
:104B9000C46804F11800FFF723FC201DFFF720FC78
:104BA000E06A2969884200D9286100EB8001424807
:104BB00000EB8100211DFFF7EFFBE06A2968C96A5D
:104BC000884200D32E62D8F800000028DED1E869C0
:104BD00038B909E0FFF75FFF00B12E62E869401EB7
:104BE000E861E8690028F5D1286A012802D1012787
:104BF000FFF78EFBFFF7A2FB3846BDE8F08170B5EA
:104C000004462E4D28684460E868844206D229682C
:104C1000686B091DBDE87040FFF7CABB2968286BA7
:104C2000091DFFF7C5FBE86A844200D2EC6270BD43
:104C300022488169491C8161704770B505460C4660
:104C40000022FFF7F5FF1D4EF0682B681C448342DD
:104C500005D9A34208D9844206D9012204E0A3421F
:104C600001D8844200D901222C6032B13068001D85
:104C7000FFF7B6FB2046FFF7C2FFFFF774FF0028DF
:104C800003D1BDE87040FFF743BB70BD10B50246CD
:104C90000020002A0DD0FFF7CBFF0848C1688C1810
:104CA0000068001DFFF79CFB2046FFF7A8FFFFF7F9
:104CB0005AFF002808D103E0C80D0020B0010020F1
:104CC000BDE81040FFF724BB10BD10B50446FFF748
:104CD00029FB0CB9F6480468E46AFFF72FFB20466D
:104CE00010BD2DE9F04104460D460026052D00D3E8
:104CF0000425FFF717FBEE4F04B93C68E06AA842B1
:104D00002DD0854208D939688C4209D03968C96AE2
:104D1000A94205D8012603E039688C4200D101265A
:104D2000E562C5F10501A161E24D00EB800061691A
:104D300005EB800081420ED1201DFFF751FBE06A98
:104D40003969884200D9386100EB800005EB8000AA
:104D5000211DFFF721FB012E01D1FFF7D9FABDE894
:104D6000F041FFF7EBBAD2498869002802D0012050
:104D70000862704700200862CE4A02E00869401EBF
:104D80000861086900EB800052F820000028F5D087
:104D9000086900EB800002EB8000426852684260C4
:104DA00000F108039A4201D1526842604068C0682D
:104DB0000860704770B50446FFF7B4FABC4D04B9FB
:104DC0002C68201DFFF70CFBA06A18B104F1180035
:104DD000FFF706FBB748211DB430FFF7DDFAFFF7F8
:104DE000ADFA286884420DD1686918B1BDE87040F9
:104DF000FFF78EBAAF48A968B4300068884202D184
:104E00000020286070BDBDE87040ACE70021A94BD0
:104E10004269B4339A4206D1806AA3F128029042D3
:104E200001D000B901210846704770B50446002C36
:104E300025D09F4D2868844221D0FFF773FA204681
:104E4000FFF7E4FF012816D1201DFFF7C9FAE06A39
:104E50002969884200D92861964900EB800001EB5E
:104E60008000211DFFF798FAE06A2968C96A884224
:104E700001D3FFF74DFABDE87040FFF75FBA70BD90
:104E80002DE9F04104460025FBF7D8F907462046F6
:104E9000FFF7BCFF012808D1854EB06950B18548A5
:104EA00004F118018C30FFF777FA3846FBF7CDF99B
:104EB0002846A2E6E06A3168C96A884200D3012523
:104EC000201DFFF78DFAE06A3169884200D9306110
:104ED000784900EB800001EB8000211DFFF75CFAB0
:104EE000E3E710B50446206B00F073F92046BDE8F7
:104EF000104000F06EB970B56E4E6D4DA0361CE0DE
:104F0000FFF796FE306820B10024FFF72CFEA4B90D
:104F100001E00124F9E7FFF705FAF068C468201DF5
:104F2000FFF75EFAA868401EA8606868401E6860C7
:104F3000FFF704FA2046FFF7D4FF68680028DFD1A6
:104F400070BD5C4CFFF7D7FF20680128FAD9FFF746
:104F5000DFF9F7E71FB5002400940194029423467B
:104F6000802255A156480394FFF70AFD012809D174
:104F7000FBF764F94E4801214161C460BDE81F4060
:104F8000FFF7B2B91FBD10B5FBF758F9484900202B
:104F90004861BDE81040FFF7BAB910B5FFF7C2F994
:104FA0004348C468FFF7CAF9204610BD10B5FBF7A7
:104FB00045F93F49CC68FBF748F9204610BD3C480D
:104FC0008068704770B50D46394C21681831FFF77D
:104FD000EFF92068001DFFF703FA681C04D0E068B1
:104FE0002844BDE870400AE62168BDE870403148B9
:104FF000091DB430FFF7D0B970B5C068C46804F1BA
:1050000018000646FFF7ECF9294DAA696AB129484C
:1050100031468C30FFF7C0F9E06A2968C96A8842D6
:1050200014D301200121296270BD201DFFF7D8F99A
:10503000E06A2969884200D928611E4900EB800096
:1050400001EB8000211DFFF7A7F9E5E7002070BD07
:1050500017494A6A0260C9684160704770B50446E2
:105060000D46FFF75FF91249C8682A68531C08D03B
:105070002368496A8B4206D06168814203D80124C3
:105080000DE000240BE06168401A904206D2101A2D
:1050900028602046FFF7DCFF002400E00124FFF732
:1050A0004DF9204670BD024901200862704700009A
:1050B000B0010020C80D002049444C45000000000C
:1050C000434F000830B5544900E011460A68824257
:1050D000FBD34B685C18844203D140681844486095
:1050E00008460D6844682318AB420DD14A4B0C3B6F
:1050F0001B689A4206D05268224442600A681268CD
:10510000026002E0036000E00260814200D00860BB
:1051100030BD424820F007013F4801600023436052
:1051200044F2F830084408383B4A0C3A10604360B7
:10513000036044F2F0334B600860506808385060F8
:10514000D806906070472DE9F04105460026FFF72C
:105150006FFD314F0C3F386808B9FFF7DAFFB868C8
:10516000054231D13DB10835680704D005F007008C
:10517000C0F1080005443DB37868854224D826492B
:105180000846046801E0214604466068A84202D24D
:1051900020680028F7D13868844215D00E68083698
:1051A000206808606068411B102904D960194160BB
:1051B0006560FFF787FF60687968091A7960B968E8
:1051C0000843606000202060FFF7CDFC3046BDE85A
:1051D000F08170B5002819D0083804460E4D60687B
:1051E0000C3DA968084211D02268002A0ED18843DC
:1051F0006060FFF71DFD60686968084468602046CC
:10520000FFF760FFBDE87040FFF7ADBC70BD02481E
:105210000C38406870477047F4010020980E002059
:10522000F7B582B06D4C9DF80C006B4F9DF80D10DA
:10523000227A6B4D0B286FD004DC012826D002287F
:1052400010D104E0F0280ED0F128F9D113E042F09B
:10525000100040F0400040F08000207201215F48C3
:1052600002F068FA90E05F495B4801F0ADFE5A48F1
:1052700002F06AF988E009B1012000E002202978F3
:105280000843287042F0400020727DE0002003F0C7
:10529000AFF8207A4FF00006000632D5B87CCDE991
:1052A000000651483B7C027850480178002003F00A
:1052B0006FF94F4803F0E8F9012302221C214DA0A9
:1052C00003F078FA01230F2208214CA003F072FAB0
:1052D0000123022265214DA003F06CFA4E4803F031
:1052E000D3F901230F226A214CA003F063FA0120B5
:1052F0002421CDE9001060231B2219464A4803F0FF
:1053000047F94A4803F0C0F9287800F00300012863
:1053100003D0022808D00DE016E001233722052132
:1053200043A003F047FA05E001233722052143A0FB
:1053300003F040FA2E70607A20F001006072207A4B
:1053400020F0400020721FE005291DD1BDF80E009D
:10535000012819D1387AC0060BD53B491E4801F007
:1053600033FE2049394801F02FFE384802F0ECF8AE
:105370000AE03549354801F027FE1A49164801F080
:1053800023FE154802F0E0F805B00120F0BD10B58D
:105390000021124802F02FFC10482D4941610221E2
:1053A00080F824100E49091D81620B4A0A60826A46
:1053B0002649516000218181C181C021018244219F
:1053C000418200F0E8F9054801F04DF8BDE81040D1
:1053D000014801F066BD0000E0540020905200201A
:1053E000FC01002078BF00082602002024020020D3
:1053F00000EF00085053323030000000506F7765E6
:105400007220737570706C79000000004D44523347
:1054100032463951780000002CD40008706F77654F
:105420007265642062790000BCF400088CC5000835
:10543000454550524F4D204F4B00000045455052BE
:105440004F4D204641494C0072BF00087055002066
:105450002152000810B5FF4CFD492378884207D13E
:10546000C86A00EB800041001846FDF74DFA0BE0DA
:10547000F7494C31884207D1C86A617800EB800057
:1054800042001846FDF751FA002010BD2DE9FC41FD
:1054900004464FF00106607A4FF00007C0074FF056
:1054A0000C051CD0EA48844219D1207A00070BD59C
:1054B000022002F09DFFCDE9005606232722582145
:1054C000E54803F065F80AE0012002F091FFCDE91C
:1054D0000057062327225821DF4803F059F8607A45
:1054E000C0071DD0DA484C30844219D1207A000719
:1054F0000BD5022002F07CFFCDE9005606232722BF
:10550000B821D54803F044F80AE0012002F070FF0A
:10551000CDE9005706232722B821CF4803F038F8F9
:105520000020BDE8FC8110B50023137053804B7838
:10553000012B02D0072B16D021E04888082806D07E
:10554000012807D0022808D0042809D017E001203C
:10555000107014E00220107011E0042010700EE0B2
:10556000032010700BE090F828301B0705D4402270
:105570000A7001F029FD012010BD488850800020EC
:1055800010BD10B501244878072802D00024204619
:1055900010BDB048B1F902100078002904DA4FF0CC
:1055A0000001FDF7C4F9F2E7F1DD4FF00101FDF76D
:1055B000BEF9ECE71CB5417AC90721D0A4494C39A2
:1055C00088421DD1007A4FF00C0400070CD5022050
:1055D00002F00EFF0120CDE9004006233822802191
:1055E0009D4802F0D5FF0BE0012002F001FF0020F2
:1055F000CDE90040062338228021974802F0C8FFF9
:1056000000201CBD10B50020914B944A197A0C075C
:105610009349002C07DA087093F82A00C870052017
:10562000908101200CE08A4B4C331C7A240707D56B
:105630000120087093F82A00C8706520908101202D
:10564000844A13784B7052788A70002808D08549B4
:10565000824801F0B9FCBDE81040804801F074BFF9
:1056600010BD70B50C46002010706078012806D07F
:10567000032810D005282CD0072831D03EE06088C0
:10568000022802D0042803D038E00320107035E04F
:105690000420107032E0608810282FD16C484FF041
:1056A0004005007A00070AD569484C3001F04CFFEC
:1056B0002570674821464C3001F086FC07E06448BD
:1056C00001F042FF25702146614801F07DFC012078
:1056D00070BD6088102811D1FFF794FF012070BDC4
:1056E000B4F90200002802DA4FF0030005E002DD01
:1056F0004FF0040001E04FF0000010704FF0000088
:1057000070BD10B55248A830007A0006002832DA81
:10571000002002F06DFE102002F083FE0123C02263
:105720003721002002F0AEFE01230D223821302067
:1057300002F0F8FE01230D2238218A2002F0F2FE49
:10574000494802F0A1FF01232922022147A003F0CA
:1057500031F8012329224B2146A003F02BF8012325
:105760002922622141A003F025F801232922AB213F
:1057700041A003F01FF8002010BD10B53448A83038
:10578000007A0007002804DA31480121A83001F02E
:1057900014FF002010BD2DE9F05F01462C48A83011
:1057A00002F029FA2A481421A83080F8241000F1C8
:1057B00030018162A0F508720A60826AA0F5F27178
:1057C0005160826A3C319160826A3C31D160826A68
:1057D0003C311161816AA0F1F4054D61826A1C4976
:1057E0009161816AA0F15C04CC610226067600F129
:1057F0008001C16180220A70C26920495160C2697A
:1058000001211172C2691E49D16000218181C181CB
:10581000C021018244214182417A21F0020141727A
:1058200090F82C1021F0010180F82C10154901622C
:105830000146A0F5087002F0C1FDA4F5E271012057
:1058400088810020C8815E200882202048821BE0D9
:105850003854002008020020C4F600086C590020CB
:105860000D02002078BF000800EF00085345543AAD
:105870000000000056000000410000007B570008B7
:105880000357000863560008062081F82C0001F138
:1058900030004862FE48886201F50871A1F5F27097
:1058A00002F08CFDA4F5C4704FF06109A0F80C90D3
:1058B000A4F5C4710020C8815E200882202048829F
:1058C000062081F82C0001F130004862F04888621F
:1058D00001F5F271A1F5D47002F070FDA4F5A67186
:1058E0008B2088813920C881342008820B2048828F
:1058F000062081F82C0001F130004862E5488862FA
:1059000001F5D471A1F5B67002F058FDA4F58871C7
:10591000372088813920C881282008820B204882BE
:1059200008464FF0050880F82C8030304862D9488E
:10593000886201F5B671A1F5987002F03FFDA4F1FF
:10594000D401012088813920C88108462D2707828B
:105950000B204882084680F82C8030304862CD48C1
:10596000886201F59871284602F028FDA5F80C9090
:105970003920E881192028820B20688285F82C8044
:10598000A4F168006862C348A862287A40F0010068
:1059900028720D20E872687A20F002006872A4F183
:1059A0005C0001210170BC4941600B210172BB49BF
:1059B000C1602E76E86100F1B801103002F0D1FA32
:1059C000A4F14C011E20888108462125C58107824B
:1059D0004FF01508A0F81280002081F8490001203E
:1059E00081F84A000B20C8720846DFF8B492C0F86C
:1059F000249080F82B6080F82A604FF0030A80F82A
:105A000029A090F8280020F0100081F8280008460E
:105A100041F2040BC0F834B0F01E88630846407AA7
:105A200020F0020048729F480862A831204602F028
:105A300098FA7E20A081E5812782A4F812800020B8
:105A400084F84900012084F84A000C20E072C4F870
:105A5000249084F82B6084F82A6084F829A094F8B4
:105A6000280020F0100084F82800C4F834B0F01E9C
:105A7000A063607A20F0020060728A48206204F11C
:105A80004C000121017088494160C12101728749A0
:105A9000C160A0F198010E76C8612676E061BDE88C
:105AA000F05FA831824801F035BD1CB581498048BE
:105AB00001F08AFA8048007858B1804C40208DF877
:105AC0000000204601F040FD6946204601F07CFAC6
:105AD0001CBD7A4C4C3CF1E70A2190FBF1F1774870
