:020000040800F2
:100000007872002061020008690200086B02000893
:100010007D0200087F020008810200080000000045
:10002000000000000000000000000000D5010008F2
:100030008502000800000000090200083B58000883
:100040008B0200088B0200088B02000800000000F1
:1000500000000000AD4F00088B0200088B02000872
:100060008B020008000000008B0200088B020008D1
:100070008B020008000000008B020008CF4500083A
:100080008B0200088B020008000000008B020008B1
:100090008B020008000000000000000000000000CB
:1000A0000000000000000000000000008B020008BB
:1000B0008B0200088B0200088B0200088B020008EC
:1000C00000F002F800F076F80AA090E8000C8244F4
:1000D0008344AAF10107DA4501D100F06BF8AFF2D1
:1000E000090EBAE80F0013F0010F18BFFB1A43F016
:1000F0000103184750280100702801000A444FF0FE
:10010000000C10F8013B13F0070408BF10F8014B76
:100110001D1108BF10F8015B641E05D010F8016BBB
:10012000641E01F8016BF9D113F0080F1EBF10F81F
:10013000014BAD1C0C1B09D16D1E58BF01F801CB42
:10014000FAD505E014F8016B01F8016B6D1EF9D5C5
:100150009142D6D3704700000023002400250026DA
:10016000103A28BF78C1FBD8520728BF30C148BF1A
:100170000B60704766290EF0478664290CF02480D6
:1001800063290CF0208573290CF025850020704729
:100190001FB50CF0F9FD0400002000210EF0F6F868
:1001A000401C6060002000210EF006F9E0601FBDD9
:1001B00010B510BD0CF01AFF1146FFF7E9FF01F072
:1001C0001DFB0DF08BF903B4FFF7F2FF03BC0DF03C
:1001D000BFFB00001A4B19680868B0E8F00F80F305
:1001E00009884FF0000080F311884EF00D0E704723
:1001F0000000000003480068006880F3088862B6C9
:1002000000DF00BF08ED00E0EFF309800C4B1A6837
:1002100020E9F00F106008B54FF0200080F311883E
:1002200006F02CF84FF0000080F31188BDE808407C
:1002300019680868B0E8F00F80F30988704700BFBC
:10024000D8010020EFF311804FF0200181F31188D5
:10025000704780F311887047EFF305807047000006
:100260000D4880470D480047FEE71EF0040F0CBF05
:10027000EFF30880EFF3098004F0F9B8FEE7FEE73A
:10028000FEE7FEE7FEE7FEE7FEE7FEE70448054976
:10029000054A064B7047000013030008C100000820
:1002A000786C002078720020786E0020786E002034
:1002B00010B51F4BD8681F4C8007002801DA60106A
:1002C00000E02046D968C90700D04008D96849072E
:1002D00004D55968C1F30321491C4843D968164A1B
:1002E000C1F3012139B1012907D002290DD049F606
:1002F0004040106010BD146010BDD968C1F30311F7
:10030000491CB0FBF1F0106010BD4FF400401060CC
:1003100010BD07480949C161C1680021C160426838
:100320004160826881600269016142694161BFE7A1
:100330000000024000127A000000002010000008B7
:10034000002101604160016141614162032101625C
:10035000704710B54A8802610A894B890C881A4493
:100360008B8903EB04231A44CB881A440260CA89A0
:1003700089881144416010BD002181800722C2801C
:1003800041810181818102224280018070470029E0
:1003900004D0416841F002014160704741684FF666
:1003A000FD72114041607047002A03D042690A4340
:1003B0004261704742698A43426170478069814364
:1003C00001D00020704701207047C069084201D069
:1003D0000120704700207047026A0A43026270479A
:1003E000002A03D0426A0A4342627047426AC94304
:1003F00089B20A404262704781607047806880B26B
:100400007047C068084201D0012070470020704743
:1004100010B50B4BDA6A0B4CA04205D142F080704C
:1004200020F0FF020A4308E0074CA04205D142F049
:10043000007020F47F4040EA0122DA6210BD000023
:10044000000002400000044000000A400021C1609A
:10045000016141600160816041618161C1617047FA
:100460002DE9FF4FD0F804908768D0F80CA0D0F8A1
:100470001080D0F814C082690192C26900920022F3
:10048000012303254FF001160C885EE05FEAC47B70
:1004900056D091F802B029EA03090BFA02FB49EAA7
:1004A0000B0991F808E04FEA420B0EFA0BFEAF433E
:1004B0004EEA0707CDF80CB091F80AB02AEA030A11
:1004C0000BFA02FB4AEA0B0A91F803E002F1100B67
:1004D0000EFA0BFECDF808B091F804B028EA060831
:1004E00048EA0E080BFA02FB48EA0B0891F805E00F
:1004F000DDF808B02CEA060C0EFA0BFE91F806B0F7
:100500004CEA0E0C0BFA02FB4CEA0B0C91F809E0DA
:10051000DDF80CB00EFA0BFEDDF804B02BEA050B8B
:100520004EEA0B0ECDF804E0DDF800B091F807E0DC
:100530002BEA030B0EFA02FE4BEA0E0BCDF800B0CD
:100540005B00AD007600521C6408002C9ED1474928
:10055000884202D14FF01F0101E04FF0000129EA6B
:100560000109C0F8049002D14FF01F0101E04FF0E3
:10057000000127EA0107876002D14FF01F0101E067
:100580004FF000012AEA010AC0F80CA002D14FF096
:100590001F0101E04FF0000128EA0108C0F81080B7
:1005A00002D14FF01F0101E04FF000012CEA010CD5
:1005B000C0F814C002D14FF01F0101E04FF000015C
:1005C000019A22EA0102826102D14FF01F0101E08B
:1005D0004FF00001009A22EA0102C261BDE8FF8FDC
:1005E0004FF6FF71018000218170C170017141716E
:1005F0008171C17101724172817270470068084255
:1006000001D00120704700207047006870470368E0
:10061000164A904201D11F2200E0002293430B436F
:10062000036070470368114A904201D11F2200E025
:1006300000220A4393430360704710B503680B4CD4
:10064000A04201D11F2400E00024A34312B10B43B8
:10065000036010BD8B43036010BD044A904201D17A
:100660001F2200E0002291430160704700000B4010
:100670000021C1600160416081600162416281626C
:10068000C162016341638163C16301664166816642
:10069000C166016141618161C16101674167816733
:1006A000C167016441648164C1640165416581651C
:1006B000C165704710B50A8802604A8842608A881E
:1006C0008260CA880B898C891A444B8923441A4456
:1006D000CB891A44C2604A8A8B8A1A44CB8A098A17
:1006E00003EB01111144016510BD0021018041801F
:1006F0008180C180018141818181C18101824182EA
:100700008182C1827047C268002902D042F0010193
:1007100001E022F00101C160704701607047416053
:10072000704781607047C36823F002031A44C260B7
:1007300081607047006880B27047C26822F47062BE
:100740001144C1607047C26822F030021144C16098
:100750007047C26822F0C0021144C1607047C2688D
:1007600022F008021144C160704710B5046D24F0F6
:10077000FE04114401EB03112144016510BD026D1B
:1007800022F0F00202EB011101657047026D22F0C8
:100790000C02114401657047026D22F002021144FF
:1007A00001657047026D22F0010211440165704736
:1007B000C0680007002801DB002070470820704750
:1007C000C0684007002801DB002070470120704707
:1007D00010B54A88CB884C891A440B8923441A44A3
:1007E0008B8902EB8312CB891A440B8A1A448B88BB
:1007F000002B01D002F500520B8800EB83031A6234
:10080000488ACA8A1044898A01B1001D186610BD41
:100810000021018041808180C180018141818181ED
:10082000C181018241828182C182704700EB8100D7
:100830000261704700EB81000267704710B500EB62
:1008400081000146046E24F0080423440366084630
:10085000026110BD10B500EB81000146046E24F06A
:100860000804234403660846026710BD00EB8100BC
:10087000006980B2704700EB8100006F80B2704762
:1008800000EB810020300168002A02D041F4807121
:1008900001E021F480710160704700EB8100016A82
:1008A00021F4005111440162704700EB8100016A9C
:1008B00021F4805111440162704700EB8100016A0C
:1008C00021F4606111440162704700EB8100016A0C
:1008D00021F0C00101EB82110162704700EB810041
:1008E000016A21F0300111440162704700EB810080
:1008F000016A21F00F0111440162704700EB810091
:10090000006A4004002801DB002070470120704786
:1009100000EB8100016E21F0030111440166704774
:1009200000EB810060300168002A02D041F0040130
:1009300001E021F004010160704710B5CA884B88BE
:100940000C8902EB03128B889B0003EB04331A44DF
:100950004B8902EB83228B8902EB03220B8800EB8D
:10096000830002630A8A4B8AC9891A4402EB012177
:10097000016410BD002141808180C18001814181DD
:100980008181C18101824182704710B5029C00EBD8
:100990008100016B21F01F01240104EB82021A4443
:1009A0001144016310BD00EB8100016B21F00C01CB
:1009B00001EB82010163704700EB8100016B21F0C4
:1009C000030111440163704700EB8100016B21F0CA
:1009D000100101EB02110163704710B5029C00EB9E
:1009E0008100016B21F4F851240304EB822202EB15
:1009F00003221144016310BD00EB8100016B21F45F
:100A0000406101EB82210163704700EB8100016BC3
:100A100021F4407101EB02210163704700EB81007A
:100A2000016B21F4805101EB02310163704710B575
:100A3000029C03EB0222224400EB8100026410BD01
:100A4000406D7047406D084201D001207047002082
:100A50007047426D8A4342657047C36D002A01D0DA
:100A60000B4300E08B43C3657047836D002A01D0C0
:100A70000B4300E08B4383657047426D806D0240FD
:100A80000A40002A01D0012070470020704710B5AD
:100A90000F4B5A6A0F4CA04205D122F0FF000843C9
:100AA00040F0807212E00C4CA04206D122F47F404C
:100AB00040EA012040F0007208E0084CA04205D155
:100AC00022F47F0040EA014040F080625A6210BD8B
:100AD000000002400000074000800740000008407E
:100AE0003C48002181600161012282610160416016
:100AF000704738498A6803799B06002B02DA42F076
:100B0000200201E022F020028A6000680860000AEA
:100B100048607047002141600121016070472D4A03
:100B20009168002802D041F0800001E021F08000AF
:100B300090607047274A9168002802D041F0400039
:100B400001E021F040009060704722480069C00732
:100B500001D001207047002070471E48816941F094
:100B60000101816170471B4A20F001000843506178
:100B70009020906170471749486110208861704744
:100B80001448402181617047124940F0200088617B
:100B900070471048C068C0B270470E48816900694C
:100BA00041EA0020C14340EA0140704700B50246D7
:100BB000FFF7F3FF824301D0002000BD012000BDFC
:100BC00000B50246FFF7E9FF104201D0012000BD49
:100BD000002000BD00000540D148002101604160B7
:100BE0008160C160016141618269C26901624162E3
:100BF0008162C16270478268016803791144C268EA
:100C000002EB03721144026911444269008B1144E2
:100C100001EB4050C349C24A13688B43184410602B
:100C200070470021016041608160C16001614161E4
:100C300081617047BA4A116821F0F07101EB4050B0
:100C40001060704730B5B6490A68B64BDB1C1A40D5
:100C5000D0E900342344D0E9024504EB05142344D1
:100C600044692344C4692344446A234490F82840D7
:100C700003EB446313444A6822F40032048C02EB11
:100C800044420B604A60028B0A61428B8A600069B1
:100C9000886230BD30B5A2494A68A34B1A40D0E9FA
:100CA00000342344D0E9024504EB0514234444698D
:100CB0002344C4692344048C03EB8443446A2344DF
:100CC00090F8284003EB44631A444A60028B4A615F
:100CD000428BCA600069C86230BD0021016041607A
:100CE0008160C1600161416101834183C161016231
:100CF0004162816270478A4A1168002802D041F03F
:100D0000010001E021F0010010607047844A516841
:100D1000002802D041F0010001E021F00100506004
:100D200070477F4A116821F4F87101EB00101060E0
:100D300070477B4A516821F4F87101EB0010506054
:100D400070477749886270477549C8627047744B2D
:100D50001A6822F402720844104418607047704BFD
:100D60005A6822F4027208441044586070476C4A72
:100D7000116821F00801084410607047684A516802
:100D800021F00801084450607047654A116821F459
:100D90000071084410607047614A516821F4007185
:100DA00008445060704710B55D4B1C6824F48064A3
:100DB00022441A601861996010BD10B5584B5C68E8
:100DC00024F4806422445A605861D96010BD5449AB
:100DD00008617047524948617047514988607047BF
:100DE0004F49C86070474E48016841F002010160F8
:100DF00070474B48416841F00201416070474848E4
:100E0000806970474648C06970474548016A406A32
:100E100001EB004070474248006A70474048406A12
:100E2000704700B50246FFF7F0FF104201D00120E5
:100E300000BD002000BD3A49096A014201D00120ED
:100E40007047002070473649496A014201D00120AD
:100E50007047002070473248016A21F001010162A9
:100E600070472F48416A21F00101416270472C48C8
:100E7000016A21F00201016270472948416A21F0AC
:100E800002014162704770B5254E336A756A84006D
:100E90008004020C002904D042EA030045EA144110
:100EA00003E023EA020025EA14413062716270BD5A
:100EB0001B4B1A6A002902D042EA800001E022EAB4
:100EC000800018627047164B5A6A002902D042EA25
:100ED000800001E022EA80005862704700B50246B7
:100EE000FFF793FF02EA9001014009B1012000BD24
:100EF000002000BD0A49096A00EA91000840002864
:100F000001D001207047002070470549496A00EA76
:100F100091000840002801D0012070470020704750
:100F2000008008400000FFF10300FBF10021016395
:100F3000C16241609022826101624162816202224B
:100F40004263816381644FF440710163704770B5FF
:100F500086B004460D4601A800F086FB01986B4957
:100F6000896A6B4B01229C4205D101F007018A403E
:100F7000B0FBF2F007E0674B9C4204D1C1F30221C1
:100F80008A40B0FBF2F02A689108B0FBF1F39909AE
:100F900003F03F03800003EB8116B0FBF6F0801AEC
:100FA000C001B0FBF2F0022802D9002006B070BDEB
:100FB0006162A362E06AA988EA886B8911432A8981
:100FC0001A4311430143E162206B4FF6807188435D
:100FD000A989014321630120E8E74FF4165101601C
:100FE00000218180C180018141814FF44071818164
:100FF0007047002904D0016B41F001010163704783
:10100000016B4FF6FE72114001637047002A03D056
:10101000826B0A4382637047826B8A4382637047A4
:10102000C06B814301D00020704701207047006CE5
:10103000084201D00120704700207047426C0A43EB
:101040004264704742EAC10141637047002A03D0FD
:10105000826C0A4382647047826CC94389B20A4039
:1010600082647047C1F3080101607047006880B274
:101070007047002904D0C16A41F00101C162704784
:10108000C16A4FF6FE721143C162704730B585B038
:1010900004460D46042D08D1684600F0E5FA009894
:1010A0004FF4E111B0FBF1F02062206B2843206384
:1010B00005B030BD002904D0016B41F0020101638D
:1010C0007047016B4FF6FD721143016370478069F1
:1010D000084201D0012070470020704710B50B4B2B
:1010E0009A6A0B4CA04205D142F0807020F0FF02BA
:1010F0000A4308E0074CA04205D142F0007020F4FA
:101100007F4040EA01229A6210BD000000000240C8
:10111000000003400080034010B583680268B3F10B
:10112000406F26D08469641E9B0E9C4022440A6056
:101130004269042A1FD0C268B2F1404F1FD08369B0
:101140005B1E920F934042681A444A60D0E9032321
:101150001A43446A836823431A43036A1A43C369E0
:101160001A43836940695B1E42EA031202438A60A4
:1011700010BD0A60DCE742680C324A60E6E742686C
:101180004A60E3E770480021416081604161491E87
:10119000C1614162C1624163C1630121C1647047A1
:1011A000002905D06849C96801EB00111046B3E772
:1011B000664901EB00111046AEE701EB0011104645
:1011C000AAE770B58AB005460C465F4E5F48B0602E
:1011D00021680091F16801EB051101914FF0006168
:1011E0000291090103914FF00851049104210591E6
:1011F0006168890006914FF400410791A168089148
:10120000E168099100EB05116846FFF785FF0120B1
:101210007060607D0122AA40012809D0F2617262EB
:10122000B2627263207D012804D0F2630AB070BDFF
:10123000B261F4E7B263F9E770B506460C46424D79
:101240004249A9602068002803D001EB0611FFF78E
:1012500063FF606820B1E96801EB0611FFF75CFFEE
:1012600001206860607B0122B24001280AD0EA6157
:101270006A62AA62A07B38B12A63207B012805D06C
:10128000EA6370BDAA61F3E76A63F6E7AA6370BD1B
:101290000021016041608160017341738173704777
:1012A0000021016041608160C1600161017541758B
:1012B0007047012282402448012901D0C262704750
:1012C00082627047012181401F48416170471E4979
:1012D0000120C86470471C4A002907D0D16801EB7F
:1012E00000100089C0F30910401C7047916801EBA1
:1012F0000010F6E710B501228240134CD2B2092942
:1013000020D2DFE801F01F05090D101316191C008B
:10131000206800F0010010BDE06C00F0010010BD7D
:10132000A06A104010BD206A104010BD2069104016
:1013300010BDA069104010BD206B104010BDA06B07
:10134000104010BD002010BD0080024000040020AD
:10135000FE4A002903D0D1690143D1617047D169A8
:101360008143D1617047F94AD16821F4407101434A
:10137000D1607047C0F34211012909D0F449C96B0B
:1013800000F01F0201209040084204D00120704765
:10139000EE490968F4E70020704708B50020009086
:1013A0004FF4C0631720FFF7E5FF0099491C009137
:1013B0000099994201D20028F4D01720FFF7DAFFF4
:1013C00008B1012008BD002008BDE249086070474F
:1013D00000B50120FFF7F9FFFFF7DFFF0020FFF75F
:1013E000C2FFDA48C1680021C1604268416082687A
:1013F0008160026901614269416182698161D64906
:10140000C16100BD00B5FFF7E3FF0121C806FFF78A
:101410009FFFCF48C16B41F48101C163C16B01F4EF
:101420008101C16300BDC9498A6822F003028A6054
:10143000012806D0022803D1886840F003008860A4
:101440007047886840F001008860704708B5002048
:1014500000904FF4C0632220FFF78CFF0099491CD5
:1014600000910099994201D20028F4D02220FFF780
:1014700081FF08B1012008BD002008BDB449CA6B36
:1014800022F00302CA63012806D0022803D1C86BE8
:1014900040F00300C8637047C86B40F00100C863A8
:1014A000704708B5002000904FF4C0630D20FFF78F
:1014B00061FF0099491C00910099994201D20028CE
:1014C000F4D00D20FFF756FF08B1012008BD002021
:1014D00008BD9F4AD16B21F07C5141EA0060D06386
:1014E00070479C491C3908607047994AD16B21F4B8
:1014F000F81141EA0040D063704708B50020009021
:101500004FF4C0631520FFF735FF0099491C009187
:101510000099994201D20028F4D01520FFF72AFF44
:1015200008B1012008BD002008BD884AD36823F017
:1015300003030343D360506820F4706040EA012045
:1015400050608648D0F88810002904D0012140F866
:101550008C1F0021016070478149086070478149F4
:101560000860704708B5002000904FF4C063212048
:10157000FFF700FF0099491C00910099994201D2A0
:101580000028F4D02120FFF7F5FE08B1012008BDA6
:10159000002008BD6D4AD16821F0F00141EA001039
:1015A000D0607047694A136923F003030343136152
:1015B000506820F0F00040EA011050606748D0F811
:1015C0008010002904D0012140F8841F002101600F
:1015D000704765490860704764490860704708B5FE
:1015E000002000904FF4C0632020FFF7C3FE009955
:1015F000491C00910099994201D20028F4D0202082
:10160000FFF7B8FE08B1012008BD002008BD584909
:10161000086070475749086070474C4A516921F08B
:101620003301014351617047484A516921F47061A7
:1016300041EA0020506170474F4908607047434AB3
:10164000916921F0F00141EA0010906170474B4927
:10165000086070473D4A916921F00F010143916193
:1016600070474749086070472DE9F04FDFF8ECB04C
:10167000DBF88411DFF80CA100294FEA4A0501D0FC
:10168000514600E02946DBF8802102B149080B46AB
:10169000DBF88821DFF8B4C02AB1DCF80420C2F3FB
:1016A0000322521C5343DCF80C204FF40048C2F3D1
:1016B000012249F64049012752B1012A0AD0022AE3
:1016C0001BD0C0F80090DBF80422CAB1524618E0E3
:1016D0000560F8E7DCF80C204FEA1212120701D47B
:1016E0001A4608E0DCF80C20C2F30212521C07FA7A
:1016F00002F2B3FBF2F20260E5E7C0F80080E2E735
:101700002A46DBF8004204B152081446DBF80862AE
:101710002EB1DCF80460C6F30316761C744326462B
:10172000DBF810B2BBF1000F00D076084660DCF8A1
:10173000186036095FEA067B07D506F0070B0BF148
:10174000010B07FA0BF6B5FBF6F51DE000000240B1
:1017500000800D40D807B043100000080000404250
:1017600088014042880040420802404280004042D6
:101770002002404210024042B40240422403404250
:101780002003404200093D00C560DCF818605FEAB4
:10179000067B07D506F0070B0BF1010B07FA0BF6DA
:1017A000BAFBF6FAC0F810A0DCF8146016F00306D5
:1017B00004D0012E1AD0022E1AD02146DCF81420B3
:1017C000C2F30112B2B1012A16D0022A00D0294672
:1017D000DCF81420120A130705D502F00702521C88
:1017E0009740B1FBF7F18160BDE8F08F1146E5E766
:1017F0001946E3E74146EBE74946E9E71FB502F042
:10180000D6F902F008FA01F061FB02F0FAFB02F0EF
:101810001EFC02F06EFC02F05AFA02F025FC02F007
:101820005DFB02F0CBFB00F00AFA01F0D8FF4A485A
:101830000125E9030024016000F07BFC502002F048
:101840004CFD552002F04CFD44480460446044487F
:101850000570CDE9005402940023802241A1434841
:10186000039404F01FFB4248CDE901040226002343
:10187000802240A142480096039404F013FB009498
:1018800001940294002380223EA14048039404F076
:1018900009FB0320CDE900040294002380223CA12F
:1018A0003E48039404F0FEFACDE90054029400236C
:1018B00080223BA13D48039404F0F4FACDE9006492
:1018C0000294002380223AA13A48039404F0EAFAF1
:1018D000CDE9005401231E020294324636A1394854
:1018E000039404F0DFFACDE9005402940123324658
:1018F00035A13848039404F0D5FACDE90054029498
:101900000223324634A12F48039404F0CBFACDE9E8
:10191000005402940223324632A12E48039404F06C
:10192000C1FACDE9005402940023802230A134484A
:10193000039404F0B7FA00940194029400238022E7
:1019400030A13448039404F0ADFA02F000FE02F036
:101950002BFE04F08AFDFEE700E100E08400002099
:101960007C00002047554920746F7000D12F00087B
:101970002C000020436F6E76657274657200000063
:101980006B2200085365727669636500853900082B
:101990004469737061746368657200007D2A000891
:1019A000627574746F6E7320746F70002D47000839
:1019B00041444300191A00085541525431205258ED
:1019C00000000000874C0008554152543120545803
:1019D000000000005D4E000855415254322052581C
:1019E00000000000554152543220545800000000BD
:1019F000536F756E64206472697665720000000032
:101A00005B3A0008454550524F4D20647269766537
:101A1000720000008F56000808B50022042105203E
:101A200003F097FF604C606180B103220021012028
:101A300003F08FFFA06120B100231A46194604F07D
:101A400017F8A06918B14FF0FF3534E0FEE7FEE764
:101A50000320207000232A461946A06904F0BEF82E
:101A60002089800800EB800081B2A1806089800815
:101A7000E0804E4A126F526B927B520707D500EB03
:101A800080004FF6FF7202EA4000E08002E000EBC7
:101A90008000E080E08841434FF47A7091FBF0F0E1
:101AA000E0600820206142483F4900231A46103177
:101AB000006803F0DDFF00232A466946606904F0F0
:101AC0008DF800980128F6D1C2E770B5364C002297
:101AD0002146607801250426C978032838D005DC22
:101AE00050B101280ED0022804D12AE0102840D09D
:101AF000112845D0627070BD2078A0700028FAD0FF
:101B0000657070BDA07800F00501012908D081073B
:101B10000DD520F00200A07010206070628170BDB1
:101B200020F00500A07002206070228170BD6270FC
:101B30002270A069BDE8704000231A46194603F0E0
:101B4000FCBF0420FFF7EDF8E6700320607070BD65
:101B5000042904D2FFF753F9218908442081E07851
:101B600028B1FFF740F9E078401EE07070BD657065
:101B700070BD0720FFF7D5F8E6701120607070BDCA
:101B8000042904D2FFF73BF9618908446081FFF71B
:101B90002AF9E07828B1FFF726F9E078401EE070D6
:101BA00070BD657070BD0000040000202C0800208E
:101BB0005400002070B500244A4D686820F0C00031
:101BC00068600A2001F09BF90646474800688106D4
:101BD00000D41024400701D444F480742868C1075D
:101BE00001D144F00104810701D444F0020441070B
:101BF00001D444F00404C10601D444F00804800672
:101C000001D444F02004304601F07EF90028FAD1D6
:101C10002868696841F0C0016960010601D444F098
:101C20004004400601D444F080043048048070BD74
:101C30002F48002141808180C180018170470020B0
:101C40002B4A00210A3222F81010401CC0B2092889
:101C5000F9D3EDE72DE9F041FFF7ACFF2348008809
:101C600020F00F05FFF7E4FF0021214C01274FF67C
:101C7000FF7C04F10A0607FA01F082B236F811007F
:101C80000CEA4000154201D040F0010000F00303CF
:101C9000012B04D0022B06D0032B19D111E063884D
:101CA0001343638014E0A3881343A380C0F3880325
:101CB000A3F58078B8F1FF080AD0E3881343E380E6
:101CC00006E0C0F38803FF2B02D12389134323814D
:101CD00026F81100491CC9B20929CCD32580BDE8DA
:101CE000F081000000000B4000800A40200000202E
:101CF000000800201E48006840F30000401C7047A8
:101D00001C48006840F38020401C70471A4A012894
:101D100003D004211046FEF785BC04211046FEF7CF
:101D200076BC15480068C0F380007047124A01284D
:101D300003D008211046FEF775BC08211046FEF7B7
:101D400066BC0B4A012803D002211046FEF76ABC8C
:101D500002211046FEF75BBC084A012803D040214F
:101D60001046FEF75FBC40211046FEF750BC000055
:101D700000800A4000000B4000800E4000800C40B4
:101D8000FE4890F87400012801D00020704701201F
:101D90007047012803D0F948383040887047F74829
:101DA000FBE7012803D0F5483830C0887047F34876
:101DB000FBE7012803D0F148383080887047EF48AE
:101DC000FBE7012804D0ED48383019B1408970474D
:101DD000EA48FAE700897047012806D0E74838301A
:101DE00029B1007CC0F340007047E448F8E7007C6C
:101DF00000F001007047012805D0E048383021B1DB
:101E0000223000887047DD48F9E71230F9E70128F1
:101E100005D0DA48383021B1223080887047D74861
:101E2000F9E71230F9E7012805D0D448383021B15C
:101E3000223040887047D148F9E71230F9E701288D
:101E400006D0CE48383029B122302AB100897047F7
:101E5000CA48F8E71230F8E7C0887047012808D070
:101E6000C648383039B122303AB1807BC0F34000E7
:101E70007047C248F6E71230F6E7807B00F00100B9
:101E80007047BE4890F8750000F001007047BB48ED
:101E900090F87500C0F340007047B848B0F876007D
:101EA0007047012806D0B5483830406B807BC0F3BE
:101EB00080007047B148F8E7B048006F007800F044
:101EC0000100704710B50022847BE30704D0C3886B
:101ED0008B4201DB19460222A30704D503898B42FA
:101EE00001DC1946012243888B4201DB194604229A
:101EF00083888B4201DC194603220180104610BD05
:101F000030B500244589954201DB2A4604248589A1
:101F1000954201DC2A460324857B29B1028163F3C3
:101F200041058573204630BDC28063F3000585738B
:101F3000F8E7012803D091483830801CC2E78F4869
:101F4000FBE770B50546012D0BD08C4C3834A01C36
:101F5000FFF7D6FF064661882846FFF7EAFF3046BE
:101F600070BD864CF3E7012805D08448383021B194
:101F700022301146A6E78148F9E71230F9E72DE94A
:101F8000F0410E4611461A46069B0546012D0FD01C
:101F90007A4C383476B122342046FFF7B1FF074639
:101FA000228831462846FFF7DEFF3846BDE8F0813B
:101FB000724CEFE71234EFE730B5054602EBD27012
:101FC0004210012A02DA0122042005E0FA2A02DD89
:101FD000FA22032000E00020684B75331C7865F37B
:101FE000000461F341041C70A3F8012030BD0128F6
:101FF00006D0002804D06148006F007800F001008E
:102000007047002807D0012805D05C48006F406B5E
:10201000807BC0F380007047594858490068891C8C
:1020200002880A804288CA8082880A8183798A7BF2
:1020300063F300028A73C37963F341028A73028AED
:102040000A82428ACA82828A0A83837D8A7F63F3F4
:1020500000028A77C37D63F341028A77028B0A8488
:10206000428BCA84828B0A85837F91F82E2063F38A
:10207000000281F82E20C37F63F3410281F82E20F5
:10208000891E90F82020002A4DD001F122023A3119
:1020900041F8062C02890A804289CA8082890A8115
:1020A000837B8A7B63F300028A73C37B63F3410201
:1020B0008A73428C0A82828CCA82C28C0A8390F80C
:1020C00028308A7F63F300028A7790F8293063F31F
:1020D00041028A77428D0A84828DCA84C28D0A8524
:1020E00090F8303091F82E2063F3000281F82E2012
:1020F00090F8313063F3410281F82E203A3990F89C
:1021000032209AB11D4A5A3241F86C2F10F8343FF0
:102110004A7A63F300024A72437863F341024A72D7
:10212000408848817047154A1232B0E7134A4A3254
:10213000EAE710B5782111480AF008FA0F4C1C3470
:1021400014F81C0C40F0010020F0020004F81C0CF4
:10215000002024F8180C42F2107124F8161C24F800
:10216000100C24F80E1C217921F00401217124F8AF
:10217000080C44F6206124F8061C03E02C0800201B
:10218000C401002020806180227D42F0040222757B
:1021900020814A00628120826282227F22F0010235
:1021A00022F002022277208461842085618594F8E0
:1021B0003C2022F0040284F83C202086618620879F
:1021C000618794F84C2042F0040284F84C20A4F873
:1021D0004000A4F84210A4F84800A4F84A1094F86B
:1021E000590040F0010020F0020084F85900052059
:1021F000A4F85A00A4F10A00A06138302065123812
:1022000060651C3C00F04BFB00F001FB0028FBD09C
:10221000206F007800F00100FFF788FD206F406B11
:10222000807BC0F38000FFF78CFD206F408800F0BA
:10223000E1FA206F406B817B0088C1F3800100F0E0
:10224000DEFA206F0078BDE81040C0F34000FFF7D1
:1022500083BD0A220A7004224A7002780A7140780B
:1022600048710020C871887170471FB500220C2189
:10227000052003F06EFBDFF8E893C9F8000018B3FF
:10228000002103F035FBF74EF74D06F138074FF00C
:10229000020B4FF00008A6F110044FF0010ADFF81E
:1022A000C09300235A1E01A9D9F8000003F096FC40
:1022B0009DF804000C28F2D2DFE800F0F5F4F3F208
:1022C0004CBA78F6F0EFEE07FEE796F874000128B6
:1022D00001D100F0E4FA86F87480FFF79DFE02E079
:1022E000012003F05EFF00F092FA0028F8D0306F72
:1022F000406B807BC0F3800000F0A5FA102814D05A
:102300004FF0110900F0CBFAD64901A81039FFF7B8
:10231000A0FF0B20E07184F80690D24900231A46F2
:102320001039286803F0A4FBB9E7306F408800F04B
:1023300061FA306F406B817B0088C1F3800100F04F
:102340005EFA306F0078C0F34000FFF705FD4FF0F4
:102350001009D9E79DF80800FFF749FE8DF808003D
:102360000399FFF7E6FD8146306F9DF8081002786B
:1023700002F00102914202D1408800F03BFAB949D3
:1023800001A81039FFF765FF84F807A09DF8081031
:10239000207A61F30100207284F80690B14900238D
:1023A0001A461039286803F063FB78E79DF80800A7
:1023B000FFF71DFE8DF808009DF80900FFF721FECC
:1023C0008DF809009DF8083001461846039AFFF77A
:1023D000CAFD8146306F9DF80810027802F00102B4
:1023E00091420AD1406B9DF80920817BC1F38001A5
:1023F0008A4202D1008800F002FA9A4901A81039F5
:10240000FFF727FF84F807B09DF80810207A61F3E2
:1024100001009DF8091061F38300207284F8069092
:10242000904900231A461039286803F021FB36E74B
:102430009DF80800FFF7DBFD8DF808009DF80A30D5
:102440009DF80910039AFFF77CFD8146306F9DF8D7
:102450000810027802F00102914202D1408800F097
:10246000C9F9804901A81039FFF7F3FE0320E07194
:102470009DF80810207A61F301009DF8091061F3BE
:102480000510207284F80690764900231A46103908
:10249000286803F0EDFA02E77EE130E1BCE003E0FA
:1024A0004DE064E143E194E19DF80800FFF79FFDF2
:1024B0008DF808009DF80900FFF7A3FD8DF80900CD
:1024C0009DF80B1000919DF808C001469DF80A2068
:1024D0006046039BFFF753FD8146306F9DF808105F
:1024E000027802F0010291420AD1406B9DF8092066
:1024F000817BC1F380018A4202D1008800F07FF91C
:10250000584901A81039FFF7A4FE0420E0719DF896
:102510000810207A61F301009DF8091061F383002F
:102520009DF80A1061F30510207284F806904D4959
:1025300000231A461039286803F09AFAAFE69DF88E
:102540000800FFF754FD8DF80800316F097801F09D
:10255000010188424DD096F87400012807D100F09F
:102560009EF986F8748002E0012003F01AFE00F064
:102570004EF90028F8D09DF8080000F04DF9102819
:1025800004D04FF0110900F08AF934E09DF80800FA
:10259000012802D03846306704E03248FBE70120CA
:1025A00003F0FFFD00F033F90028F8D0306F406BE6
:1025B000807BC0F3800000F046F9102804D04FF073
:1025C000110900F06CF916E0306F408800F012F944
:1025D000306F406B817B0088C1F3800100F00FF900
:1025E000306F0078C0F34000FFF7B6FB4FF01009E2
:1025F00001E04FF003091B4901A81039FFF729FE3C
:102600000720E07184F80690164900231A46103915
:10261000286803F02DFA42E69DF80800FFF7E7FC72
:102620008DF808009DF80900FFF7EBFC8DF8090014
:102630009DF80810012919D0B946D9F83420927BA9
:10264000C2F38002904243D0326F127802F001024E
:10265000914233D196F8740001280DD12CE000008E
:10266000240000202C08002040000020DFF8789192
:10267000E3E7012003F095FD00F0C9F80028F8D049
:102680009DF8090000F0DFF8102803D000F007F9EA
:1026900011231EE09DF8090058B109F12200C9F884
:1026A0003400817B0088C1F3800100F0A8F810237A
:1026B0000FE009F11200F2E711230AE028B109F155
:1026C0002200C9F83400102303E009F11200F8E7F2
:1026D0000323454901A81039FFF7BBFD0620E0712F
:1026E0009DF80810207A61F301002072A3713E4921
:1026F00000231A461039286803F0BAF9CFE59DF88F
:1027000009109DF80800039AFFF756FC0346364966
:1027100001A81039FFF79DFD0520E071A371324932
:1027200000231A461039286803F0A2F9B7E596F895
:10273000740090B1022810D010232B4901A8103941
:10274000FFF787FD0820E071A371274900231A468F
:102750001039286803F08CF9A1E500F089F81028F9
:1027600001D01123E9E786F874A01023E5E700F013
:1027700096F886F8748010231B4901A81039FFF7DA
:1027800068FD0920E071A371174900231A4610392A
:10279000286803F06DF982E586F874B000F08DF8D2
:1027A000102814D000F07BF813200A212170042295
:1027B000627084F8048084F80580E171A0710A4990
:1027C00000231A461039286803F052F967E51220F1
:1027D000EBE7C9F804A0064800231A46034900683D
:1027E00003F046F95BE500002C08002028000020DB
:1027F000180000200521B0FBF1F001F068BD0129AF
:1028000000D140080521B0FBF1F001F063BD95480F
:10281000007800F01000704710B5924C2178C9077D
:1028200001D0132010BD2178C90601D4112010BD9C
:1028300072B6FFF77BFA62B60820607060780028F5
:10284000FCD1102010BD10B5864C2178C90701D0ED
:10285000132010BD2178C90601D4112010BDFFF747
:1028600070FA0820607060780028FCD1102010BD3C
:102870007C480178C90701D01020704701784907CA
:1028800001D5122070470178C90601D41120704784
:102890000121417041780029FCD110207047714816
:1028A00001788907002901DA102070470221417060
:1028B00041780029FCD1102070476A480178C90787
:1028C00001D0112070470421417041780029FCD1CA
:1028D000102070472DE9F041624D28784FF4FA77C7
:1028E00010F00A0F01D0AF8003E0A88808B1401EA5
:1028F000A880A88848B100245B4E54B1E88808B18C
:10290000401EE880012C08D015E0FFF7F3F90446DB
:10291000F2E7B6F87600E880F4E7A88958B996F8A7
:102920007500800707D55248012300224F490068EF
:1029300003F003F9AF814FF04B08012C16D1E88862
:10294000A0B996F87500C00710D0287820F00100D3
:102950002870287840F006002870A5F808804648BE
:10296000012300224349006803F0E7F86878400734
:1029700003D5287820F004002870687880070DD5EA
:10298000287880070AD4287820F001002870287859
:1029900040F002002870A5F8088010E06878C007B1
:1029A0000DD02878C0070AD12878400707D42878A6
:1029B00020F002002870287840F001002870687824
:1029C000000701D5322028816878C00600D56F81C4
:1029D000A878C00704D0287840F00800287006E0E6
:1029E000A878800703D5287820F0080028700020F8
:1029F0006870A870287810F00A0F03D00020FFF745
:102A000085F905E02878C00702D00120FFF77EF99C
:102A100000202978C90702D0698901B90120012C59
:102A200003D096F87410022901D140F0020000F0A2
:102A30008BFF288930B1401E2881287820F01000B3
:102A4000287003E0287840F010002870688908B1E9
:102A5000401E6881A889002801D0401EA881BDE8D9
:102A6000F0810000300000202C0800202CEF00082E
:102A70006400002008EF0008240000208EB000222F
:102A800010210A2002F065FFFE4D2860002873D057
:102A900003220021012002F05CFF686020B10023C6
:102AA0001A46194602F0E4FF6868002865D0322013
:102AB00003F077FBF4484FF0000980F8009001A97B
:102AC0008160F049091D416000231A461946686873
:102AD00003F084F8ED484FF0FF3800234246EA49FE
:102AE000006802F0C5FF002342461946686803F0FB
:102AF00075F8042002909DF80400E0B300200390D4
:102B0000E34C00231A4602A9206802F0B1FF0B2013
:102B10008DF81C00DF480023424607A9006802F038
:102B2000A7FF7D2003F03DFB0320029000231A46FF
:102B300002A9206802F09CFF0627029702208DF868
:102B40000C009DF8040000F00C008DF80D009DF8BD
:102B50002C008DF80E000023424602A9206802F0E6
:102B600087FFDFF834A3CDF800A0CC4E00231A462F
:102B70006946306802E01DE01AE01AE002F078FFD2
:102B8000C74D4FF00108DFF8FCB200235A1E0AA916
:102B9000DBF8000003F022F89DF82800C01F0A2887
:102BA000F1D2DFE800F0091AEDFD408E4EACDE27D1
:102BB000FEE7FEE70120A2E7CDF80880BDF82C0073
:102BC000ADF80C00BDF82E00ADF80E0000231A463B
:102BD00002A9206802F04CFFD5E702200290BDF860
:102BE0002C00ADF80C0000231A4602A9206802F060
:102BF0003FFFC8E70B208DF810009DF82900012841
:102C000009D00228BFD1A74800231A4604A90068AA
:102C100002F02EFFB7E7A44800231A4604A9006873
:102C200002F026FFAFE79848022101709DF82C10B2
:102C300001720146954800231A46006802F018FF09
:102C4000A1E79DF82D00B0B102978DF80C908DF89A
:102C50000D009DF82C008DF80E0000235A1E02A9CD
:102C6000206802F005FF009500231A466946306887
:102C700002F0FEFE87E70B208DF81C0085484FF020
:102C8000FF3B00235A4607A9006802F0F1FE0297B5
:102C90008DF80C909DF82D008DF80D009DF82C00FE
:102CA0008DF80E0000235A4602A9206802F0E0FECB
:102CB000CDF800A000231A466946306802F0D8FE1D
:102CC00061E77148032101709DF82C1001720C9985
:102CD000C16000231A461946DBF8040002F07EFFAB
:102CE0006A4800231A466849006802F0C1FE0023C2
:102CF0005A1E1946DBF8040002F070FF43E79DF806
:102D00002D00B0B102978DF80C808DF80D009DF864
:102D10002C008DF80E0000235A1E02A9206802F034
:102D2000A7FE009500231A466946306802F0A0FE0F
:102D300029E702978DF80C808DF80D009DF82C0086
:102D40008DF80E0000235A1E02A9206802F090FEA2
:102D5000CDF800A000231A466946306802F088FECC
:102D600011E79DF82D109DF82C0002F07DFC072046
:102D7000029000235A1E02A9206802F079FE02E7A1
:102D80009DF82C008DF81C009DF829008DF81D0081
:102D9000DDE90C01CDE9080100231A4607A900E08E
:102DA00004E03C48006802F063FEECE60520029077
:102DB0009DF82F008DF80C009DF8300000F0030105
:102DC0008DF80D10C0F381018DF80F10C0F30110C4
:102DD0008DF80E0000231A4602A9206802F048FE72
:102DE0009DF82D0001283CD002283AD0CDF8009063
:102DF0009DF82F000B2825D2DFE800F024060606F8
:102E000006060E0E242419009DF82E0008B1009528
:102E10001FE0CDF800A01CE09DF82E00032802D092
:102E2000112802D015E0009513E0009511E09DF8FF
:102E30002E00132802D01D4800900AE01848801C7C
:102E4000009006E09DF82E00112801D0132800D133
:102E50000095009828B100231A466946306802F0B0
:102E600007FE9DF82D00012801D0022887D18DF89A
:102E7000108001281FD00B4800231A4604A90068BF
:102E800016E0000040000020A4080020C801002037
:102E900054000020240000203200010064000020C3
:102EA00032000200B4010020B00100203400030011
:102EB00002F0DEFD67E6044800231A4604A9006814
:102EC00002F0D6FD5FE60000B00100201148016865
:102ED000C9070AD1016841F0807101600E480021E4
:102EE0004160016841F00101016070470A48406893
:102EF0007047081A704708494968081A7047064918
:102F0000496801EB4010704703494968081AC00F2F
:102F100070470000FCED00E0001000E01A4908785E
:102F20008006000E0870194A1368DB05002B02DAD0
:102F300040F0010008701068800503D5087840F063
:102F400002000870087800F00F000F280CD2DFE8AC
:102F500000F00B0C080B080B0B0C0C0B0B080B08F0
:102F60000C004888401E488070474888401C4880B4
:102F7000704705498A88488820F003008880801AB5
:102F800000B28010C88070474800002000000B404D
:102F900038B5FC4A012313701072C2F80CD01161CD
:102FA000F94C00231A461946A06802F017FEF748AC
:102FB00000235D1E2A46F349006802F059FD0023F4
:102FC0002A461946A06802F009FE9DF8000038BDA7
:102FD00086B0002208210A2002F0BBFCEA4D68609E
:102FE00068B303220021012002F0B3FCA86020B1E5
:102FF00000231A46194602F03BFDA86800B3E148D9
:1030000003214170E0490831416003F004FEE048CB
:1030100006F031FB4FF0FF360023324604A9686802
:1030200002F0DCFD04980E28F6D2DFE800F0283D1F
:10303000450A304AE5FDD207070707DFECE7FEE760
:10304000FEE7FEF739FF04F05EFAF0208DF8080085
:1030500002A9CF4806F055FA06F09BFA0024C949A8
:1030600020461431FFF794FF0146C64A2046143229
:1030700005F00AFD641CE4B20A2CF0D3CCE706F09C
:1030800070FC06F03BFBC34800F0F7FBC4E7F120FF
:103090008DF8080005988DF8090002A9BC4806F0D3
:1030A00030FA06F076FAB7E7BDF81400C1B2BDF801
:1030B000160006F035FCAFE7BDF9140006F040FC41
:1030C000AAE79DF814000828A6D2DFE800F004055E
:1030D0000F1D3C74656F9FE79DF81500FEF759FEC4
:1030E00001469DF8150004F0E2F995E79DF81710E8
:1030F0009DF81500FEF77FFE02469DF817109DF81B
:10310000150004F0DBF987E79DF816109DF815000F
:10311000FEF757FE04469DF816109DF81500FEF7C1
:103120005BFE02469DF816109DF81500234605F03B
:1031300082FC9DF81500FEF72CFE01469DF8150057
:1031400004F0B5F968E79DF816209DF817109DF872
:103150001500FEF774FE04469DF816209DF8171022
:103160009DF81500FEF77AFE034600949DF81620A0
:103170009DF817109DF8150005F06FFC9DF81710CD
:103180009DF81500FEF737FE02469DF817109DF8D2
:10319000150004F093F93FE79DF81500FEF781FE56
:1031A00001469DF8150004F096F935E7FEF784FE18
:1031B00004F0A9F930E7FEF764FE0446FEF767FE67
:1031C0000746FEF76AFE02463946204605F05AFCDD
:1031D00022E77148008804F003F97048008804F081
:1031E0001AF96F48006804F032F915E76D48B0F934
:1031F000000004F048F90FE79DF8140020B1012801
:103200002FD002287BD160E09DF81500B8B10828C6
:1032100020D01E2300220321022005F06DFF594912
:103220009DF81600143100E06CE0FFF7B1FE014696
:10323000544A9DF81600143205F026FC5FE0002287
:103240001E231146104605F057FFFEF735FE04F029
:103250005AF954E002211E230022084605F04CFFD3
:10326000DDE79DF81500A8B1082827D01E2300220D
:103270000321022005F040FF42499DF81600143159
:10328000FFF786FE01463F4A9DF81600143205F00E
:10329000FBFB34E000221E230121104605F02CFF29
:1032A00038499DF816001431FFF772FE0146354A81
:1032B0009DF81600143205F0E7FB20E002211E23E2
:1032C0000022084605F018FFD6E702F0C8F980B1E1
:1032D0009DF8150030B11E2300220421012005F0C5
:1032E0000BFF0CE000221E230521104605F004FF11
:1032F00005E000221E230421104605F0FDFE0020FB
:10330000287089E604F0E6FC86E61E4A0923103A96
:10331000137003235370042313711072D160224879
:10332000002318495A1E1039006802F0A1BB30B4BE
:10333000144C0925103C2570032565700525257161
:1033400020726172A272E360174821460023006870
:1033500030BC5A1E02F08CBB30B40A4B0924103B1F
:103360001C7003245C7006241C7118725972DA6098
:103370000D480023034900685A1E30BC103902F082
:1033800077BB0000C808002050000020C8010020C2
:103390007453002058650020080000200A00002017
:1033A000100000205C00002040000020F0B4049DCC
:1033B000354C092626700326667007262671207272
:1033C0006172A272E372E560304821460023006812
:1033D000F0BC5A1E02F04CBB2B4A09231370032386
:1033E00053700823137110725172284800235A1E1B
:1033F0002549006802F03CBB30B4234B09241C7003
:1034000003255D701C7118725972DA601F48002321
:103410005A1E006830BC1C4902F02ABB10B51C4C77
:10342000217800290BD118490B220A70087117481E
:1034300000231A46006802F01BFB0120207010BD1B
:1034400010B5134C2278002A0DD10F4A0C231370AB
:10345000107191600D4800231A460B49006802F074
:1034600007FB0120207010BD074A0F2313700323B0
:10347000537010715171054800235A1E02490068AB
:1034800002F0F6BA70470000B808002040000020A3
:10349000500000202DE9F04707460D46144600264F
:1034A00007F4E060C00940F0A0084FF080494846AA
:1034B000FDF786FB0128FAD100214046FDF753FBBA
:1034C0004FF0007A5046FDF77BFB0128FAD14FF010
:1034D00000494846FDF774FB012805D00126FDF799
:1034E0004FFB3046BDE8F087F8B2FDF744FB574686
:1034F0003846FDF765FB0128FAD14846FDF760FB29
:10350000012801D00226EAE701214046FDF72BFB06
:103510003846FDF755FB0128FAD14846FDF750FB28
:10352000012812D00326DAE71CB10020FDF72CFB9E
:1035300002E00820FDF728FB3846FDF741FB012893
:10354000FAD1FDF726FB05F8010B2000A4F10104D8
:10355000E4B2E9D1C3E710B54FF080442046FDF74F
:103560002FFB0128FAD10021A020FDF7FCFA4FF033
:1035700000742046FDF724FB0128FAD1FDF700FB7B
:103580004FF00040FDF71CFB012801D0002010BDCA
:10359000012010BD2DE9F04106460F461546FFF704
:1035A000DAFF0028FBD012E006F00F00C0F1100493
:1035B000AC4200D9ECB2224639463046FFF76AFFEA
:1035C000002807D1301986B2281B85B22744002D68
:1035D000EAD10020BDE8F0812DE9F04780460D4694
:1035E0001446002608F4E060C00940F0A0074FF040
:1035F00080494846FDF7E4FA0128FAD1002138460F
:10360000FDF7B1FA4FF000773846FDF7D9FA0128F7
:10361000FAD14FF000494846FDF7D2FA012804D00C
:103620000126FDF7ADFA30465CE708F0FF00FDF734
:10363000A2FA3846FDF7C4FA0128FAD14846FDF748
:10364000BFFA012801D00226EBE74FF400480DE055
:103650002878FDF790FA6D1C3846FDF7B1FA01287D
:10366000FAD14046FDF7ACFA012805D02000A4F1BC
:103670000104E4B2ECD1D4E70326D2E72DE9F0410E
:1036800006460F461546FFF766FF0028FBD016E0FA
:1036900006F00F00C0F11004AC4200D9ECB2224693
:1036A00039463046FFF798FF002893D1301986B28B
:1036B000281B85B22744FFF74EFF0028FBD0002DC2
:1036C000E6D1002086E7000070B50446012901D14B
:1036D00044F480749A4D02212846FCF792FE01289A
:1036E000F9D121462846BDE87040FCF785BE10B5EB
:1036F000FFF705FC04462046FFF706FC0028FAD138
:1037000010BD10B58F4A012807D004211046FCF7E0
:1037100089FFBDE810401420E9E704211046FCF7BA
:1037200076FFF6E770B50021E220FFF7CDFF00211C
:103730003D20FFF7C9FF00210120FFF7C5FF002151
:10374000E120FFF7C1FF00210846FFF7BDFF002180
:103750002420FFF7B9FF00219020FFF7B5FF0021DB
:10376000A020FFF7B1FF0021C820FFF7ADFF002127
:10377000A620FFF7A9FF0021A420FFF7A5FF002145
:103780002F20FFF7A1FF00214020FFF79DFF002120
:10379000F820FFF799FF0021D020FFF795FF0021C7
:1037A0003020FFF791FF0021B020FFF78DFF0021AF
:1037B0001020FFF789FF00210846FFF785FF00244E
:1037C00040F25F3501210020FFF77EFF641CA4B2A8
:1037D000AC42F7D3BDE870400021AF2074E770B56C
:1037E000584C01212046FCF71DFF4FF47A6528460E
:1037F000FFF77DFF01212046FCF709FF2846FFF770
:1038000076FF0120FFF77DFFFFF78CFF4C4C102166
:103810002046FCF7F6FD0028F9D10220FFF771FFE2
:10382000FFF780FF10212046FCF7EBFD0028F9D1BF
:1038300070BD70B50D46FFF764FF0021B020FFF7A3
:1038400043FF00211020FFF73FFF00210846FFF74C
:103850003BFF00244FF4587615F814000121FFF7C0
:1038600033FF641CA4B2B442F6D3354C1021204679
:10387000FCF7C7FD0028F9D170BD2DE9F0470646D9
:1038800009270120FFF73DFF0021B020FFF71CFFB3
:1038900000211020FFF718FF00210846FFF714FF52
:1038A00060244FF0000811E00025641EA4B201213D
:1038B000305DFFF709FF6D1CADB2602DF5D304F547
:1038C0009074A4B208F1010808F0FF08B845EBD3E2
:1038D000DFF86C9010214846FCF793FD0028F9D1E1
:1038E0000220FFF70EFF0021B020FFF7EDFE0021C0
:1038F0001020FFF7E9FE00210846FFF7E5FEC0248F
:103900004FF0000811E00025641EA4B20121305DD3
:10391000FFF7DAFE6D1CADB2602DF5D304F590749F
:10392000A4B208F1010808F0FF08B845EBD3102154
:103930004846FCF766FD0028F9D1BDE8F087000095
:1039400000000A4000800C4070B504460C4DE007B2
:1039500004D080212846FCF765FE03E0802128463C
:10396000FCF755FEA00705D52846BDE8704040216C
:10397000FCF758BE2846BDE870404021FCF747BE22
:1039800000000B4008B502F097FD00900220FDF703
:10399000D0F91C4CFA21684602F0DAFB002600251B
:1039A000FDF727FA022002F0FCFBFDF72BFA30446A
:1039B00086B26D1C0A2DF3D330460AF06CFE124A13
:1039C000124B0AF0B7FE124A124B0AF0B3FE002265
:1039D000114B0AF039FD0AF02FFE00B220801928A1
:1039E00001DA322000E0400080B200F076FC0D20C9
:1039F00060600A48034900231A46091D006802F066
:103A000037F8C7E75C0000209A9999999999B93FCE
:103A100021B0726891EDCCBF00C06C405400002012
:103A2000052800D30020474951F820007047464937
:103A3000421E8A60400848617047434A516B40F615
:103A40000C439943002803D040F60800014302E0EC
:103A500040F204400143516370470EB500200190CD
:103A600080468346002204210A2001F072FF354976
:103A7000091F086080BBFEE788B2090C404554D995
:103A80008046019151E0D84500D901244FF0000A49
:103A9000062C40D2DFE804F03F030C1A23370198CC
:103AA000FFF7BEFF81460224C3464FF0000839E00D
:103AB000D9F80400009099F800700098384303D0BA
:103AC00009F1080903242DE000242BE02FB17F1E0B
:103AD000BFB2009E042425E027E0022422E03088C3
:103AE000758855EA000107D0361D38B1FFF79FFFF2
:103AF0000120FFF7A2FF04E0032413E00020FFF7FA
:103B00009CFF05240EE025B16D1EADB24FF0010AF9
:103B100008E0042406E04FF0000B0020FFF78DFFC3
:103B20004FF0010ABAF1000FB2D006480023001F7F
:103B30005A1E02A9006802F051F8029911F5803F5F
:103B4000A1D099E76800002000000740FE48FD4929
:103B500081600121416070472DE9F04107460D4623
:103B6000F94E0124BC40F4622868002804D0F549CD
:103B700001EB0711FDF7D0FA686820B1F16801EB9D
:103B80000711FDF7C9FA687B01280AD0F461746255
:103B9000A87B40B13463287B012806D0F463BDE8DC
:103BA000F081B461F3E77463F5E7B463F7E710B548
:103BB0000120FDF738FCFDF749FC012800D0FEE7A5
:103BC00007210220FDF7B1FC0120FDF7C8FCFDF73D
:103BD000C9FC012800D0FEE70020FDF7DBFC012036
:103BE000FDF7BAFC4FF48070FDF7BDFB2020FDF718
:103BF00014FD0020FDF718FD0120FDF71DFDFCF769
:103C000057FB0121D148FDF7A3FBBDE8104001217E
:103C1000CF48FDF79DBB2DE9F041CE4908684FF62E
:103C2000FF021040CC4A40F44070104308606FF02F
:103C30000407384600F039FCC84C2060BD10284607
:103C400000F033FC60606E10304600F02EFCA06087
:103C5000052000F02AFCE0600F2000F026FC206127
:103C60000621052000F015FC06210F2000F011FCB4
:103C7000384600F01AFC2060284600F016FC606010
:103C8000304600F012FCA060052000F00EFCE06061
:103C90000F2000F00AFC206181E710B56FF00400EE
:103CA00000F003FCAD4C20606FF0010000F0FDFB64
:103CB00060604FF0FF3000F0F8FBA060052000F0DE
:103CC000F4FBE0600F2000F0F0FB206110BD2DE957
:103CD000FE4FDFF88CB25846FCF7B8FBA148FCF762
:103CE000B5FBA148FCF7B2FBA048FCF7AFFBA0482E
:103CF000FCF7ACFB9F48FCF7A9FBC0219948FCF7F7
:103D000086FC6846FCF76CFC2120ADF8000001241D
:103D10008DF80A4069465846FCF7A2FB4FF00409AB
:103D2000ADF800908DF8034069465846FCF798FBC3
:103D30000225ADF800508DF802408DF80940694623
:103D40005846FCF78DFB1820ADF800008DF80850A0
:103D500069465846FCF784FB6846FCF741FC4FF087
:103D6000800AADF800A08DF80A408DF809500326AE
:103D70008DF808608DF8024069465846FCF770FBE4
:103D80004027ADF800704FF000088DF802806946BA
:103D90005846FCF765FB6846FCF722FC40F237709A
:103DA000ADF800008DF80A4069466E48FCF758FBF4
:103DB000A002ADF8000069466A48FCF751FBC0203C
:103DC000ADF800008DF802408DF80940694665485D
:103DD000FCF746FB6846FCF703FCADF800908DF855
:103DE0000A408DF808508DF8094069465E48FCF796
:103DF00037FBADF800608DF8095069465A48FCF76A
:103E00002FFB6846FCF7ECFB9720ADF800006946F5
:103E10005648FCF725FB2820ADF800008DF80A4035
:103E20008DF808508DF809508DF8024069464F48CA
:103E3000FCF716FBADF800708DF8044069464B485E
:103E4000FCF70EFB6846FCF7CBFB4520ADF8000005
:103E50008DF80A408DF809508DF8024069464448B3
:103E6000FCF7FEFAADF800A08DF8086069464048FE
:103E7000FCF7F6FA0A20ADF800008DF80850694604
:103E80003B48FCF7EDFA6846FCF7AAFB0C20ADF8BE
:103E900000008DF80A408DF809408DF8024069460F
:103EA0003448FCF7DDFA6846FCF79AFBADF80050A1
:103EB0008DF80A408DF809508DF808608DF80240A1
:103EC00069462C48FCF7CCFAADF800408DF802802A
:103ED00069462848FCF7C4FABDE8FE8F2DE9FF4784
:103EE0006846FDF77AF8DFF890904846FDF71EF82F
:103EF0004FF4E13600966027ADF804700024ADF869
:103F00000640ADF808404FF01008ADF80A80FD00FB
:103F1000ADF80C5000214846FDF7E0F869464846E8
:103F2000FDF715F801214846FDF763F8DFF84CA0CE
:103F30005046FCF7FBFF0096ADF80470ADF8064064
:103F40001EE0000000040020008002400000E0238A
:103F5000E0C413000CED00E00000FA05EC080020BE
:103F600000800A4000000B4000800B4000000C4025
:103F700000800C4000800E400080034000000340A1
:103F8000ADF80840ADF80A80ADF80C50002150465D
:103F9000FDF7A4F869465046FCF7D9FF01215046C9
:103FA000FDF727F8022211465046FDF74BF8022292
:103FB00011464846FDF746F8BDE8FF8770B5FDF7A6
:103FC000E1F8FF484FF0FF34046284618615012157
:103FD0003046FDF7BDF9FB4D00212846FCF718FAE5
:103FE00000216962F84841623046FDF7B1F9F74AAD
:103FF000C2F8FC41C2F8FC40FFF7A8FD2020D067C2
:1040000070BD1FB56846FCF7B7F9EF4C002120469C
:10401000FCF7FEF90420ADF800000222ADF8022002
:104020000021ADF804100820ADF80600ADF8081026
:10403000ADF80A10ADF80C10ADF80E206946204618
:10404000FCF787F901212046FCF7A1F91FBD1CB53B
:104050000120FCF764FD4FF4807000900020019077
:104060006846FCF746FD1CBD30B593B0FCF7B4FDC7
:104070000CA8FCF7D6FD00240C940A200D904FF4F8
:1040800000300E9040000F904000109040001190C2
:10409000012512950CA8FCF7AEFD01A8FCF71DFE4A
:1040A00004200190029403941F2004900594069428
:1040B000ADF81C40ADF81E40E802089009954FF499
:1040C000E0400A900B9401A8FCF7BCFD01A8FCF7A6
:1040D000E1FD00210620FCF7EBFE00210620FCF7A5
:1040E000F2FE0120FCF707FE0120FCF70FFE13B0E3
:1040F00030BD2DE9F04391B00BA8FCF7F6FA1F2074
:10410000ADF82E0040F2F310ADF83000B04E0BA920
:104110003046FCF7CFFA05A8FCF77AFB0024ADF88F
:1041200016404FF44068ADF81E800125ADF81450DC
:104130004FF00809ADF8269005A93046FCF748FB7A
:104140006846FCF717FCADF80240ADF80450ADF836
:104150000650ADF80840ADF80A50ADF80C50ADF877
:10416000005069463046FCF7E8FBF92070610021F9
:104170003046FCF78CFC01213046FCF7C4FA0BA852
:10418000FCF7B3FAADF82E5040F6FF70ADF83000F2
:10419000904F0BA93846FCF78DFA05A8FCF738FBC1
:1041A000ADF81640ADF81E80ADF82690ADF814407D
:1041B00005A93846FCF70CFB0226ADF8146005A9EA
:1041C0003846FCF705FB05A8FCF722FBADF81640C6
:1041D0006802ADF81E00ADF81450ADF8264005A9F0
:1041E0003846FCF7F5FA6846FCF7C4FBADF8085012
:1041F000ADF80A60ADF80C50ADF80040694638469D
:10420000FCF79BFBADF8006069463846FCF795FB70
:104210003C61BC617C61012291023846FCF725FCBF
:1042200000213846FCF733FC01213846FCF76BFAD5
:104230000BA8FCF75AFA0F20ADF82E006320ADF85A
:104240003000654F0BA93846FCF734FA05A8FCF797
:10425000DFFAADF81440ADF81640ADF81E80ADF8A9
:10426000269005A93846FCF7B3FA6846FCF782FBAE
:10427000ADF80040ADF80460ADF80240ADF806506E
:1042800069463846FCF759FBADF8146005A9384675
:10429000FCF79EFAADF80060ADF80440ADF80640BA
:1042A000ADF80A60ADF80850ADF80C5069463846D4
:1042B000FCF743FB3C61BC6100213846FCF7E7FB9F
:1042C00001213846FCF71FFA11B0BDE8F0834149DF
:1042D000086170473F49886170473F49886170476E
:1042E000642800D964203C490861704770B5FDF727
:1042F00007FD002860D172B60020FDF707FD41F2EE
:104300008830FEF7FCFD04460020FFF7E6FF0020A2
:10431000FFF7DDFF0020FFF7DDFF002006F03DFE88
:10432000002006F01BFE2D4806F064FF002201234A
:1043300011462BA007F032F82C48FFF79EFA2046D2
:10434000FEF7E2FD0028FAD1FDF7F0FC0020FDF7B2
:10435000F8FC0020FDF700FD01F0EDF8054601F046
:1043600005F9044601230022602121A007F016F878
:1043700001232222602121A007F010F8214806F035
:1043800039FFD5B101230C2279211FA007F006F8CF
:10439000A4B1112C63D001232E2279211AA006F09A
:1043A000FDFF1248FFF769FA1A48FEF7A8FD044618
:1043B0002046FEF7A9FD2FE058E042E048E000006B
:1043C000008002400000044000000A4084E000E059
:1043D000000007400080074000000840A4130108C7
:1043E000506F776572204F464600000058650020E8
:1043F00053657474696E67730000000050726F66D5
:10440000696C6500CC0401084E4F542073617665D9
:104410006400000040420F000028C9D12948FCF781
:1044200015F82948FCF712F82848FCF70FF8284837
:10443000FCF70CF82748FCF709F82748FCF706F8C2
:10444000FEE701230C22792124A006F0A7FF9FE7B5
:1044500001232E22792121A006F0A0FFA1E701234C
:104460002E22792120A006F099FF9AE770BD2249FB
:1044700002680A6042684A6082688A60C268CA60EC
:1044800002690A6142694A6182698A61C069C861D8
:10449000FEE74907090E002804DA184A00F00F0069
:1044A00081547047164A81547047002805DA134931
:1044B00000F00F00405C400970471149405C400922
:1044C0007047000000800A4000000B4000800B4055
:1044D00000000C4000800C4000800E407361766547
:1044E00064204F4B000000006E6F74207265717580
:1044F00072696564000000002809002014ED00E0E6
:1045000000E400E010B502F014FAC0B260B1012876
:1045100013D002281AD1484800231A460068BDE883
:104520001040444901F0A4BA454800231A460068E7
:10453000BDE81040414901F09BBA434800231A46A8
:104540000068BDE810403F4901F092BA10BD38B58F
:104550003E4D0023012232213DA0009502F0BCF91E
:104560003F4C206001231A4605213EA0009502F031
:10457000B3F960600223012219213FA0009502F0E7
:10458000ABF9A060032301220A213EA0009502F0AE
:10459000A3F9E060002054F8201021B1401CC0B203
:1045A0000428F8D338BDFEE7F8B50024661E2C4D6C
:1045B00001F082FF02460096002355F824001946B8
:1045C00002F04CF8641CE4B2042CF1D3F8BD10B531
:1045D000FEF78CFC0446FFF789FE30490888401E30
:1045E0000004000C088003D105200880FDF76DFA57
:1045F000FEF770F9FEF792FC294A506900F5486011
:1046000080B29168814201D29168401A50614FF4A2
:1046100080611046FCF71DFAFEF768FC0146204653
:10462000FEF767FC1D49091D4A68824200D24860B6
:1046300010BD000020EF00085400002014EF000817
:104640002400002028EF0008640000200545000831
:10465000436F6E7665727465722074696D65720061
:1046600060090020536F756E64206472697665720C
:104670002074696D657200004755492074696D6545
:1046800072000000427574746F6E732064726976F4
:1046900065722074696D6572000000008000002062
:1046A000008007406E48807870476D4840787047BA
:1046B0006B480078704710B501F0AAF8BDE81040CB
:1046C00001F0B2B8704710B5002401F0A1F86449B8
:1046D00064484A78002A07D0428802F4807207D1E1
:1046E000408800F4807006E0828802F48072F6E769
:1046F000808800F48070897821B1012908D00229CE
:1047000010D10DE008B102240CE05AB1012409E0F7
:1047100040B1FDF735FB08B1012403E0022401E0BC
:1047200000B1012401F080F8204610BD86B001F0F0
:10473000C3FE01904A484FF0000980F8019001261D
:104740008670DFF82081484DDFF820B103274FF64F
:10475000FF7A0A2101A801F0FBFCFDF77BFAFEF7C6
:1047600008FCFFF7B0FF044609208DF8080098F810
:10477000020080060AD58DF80C708DF810600023B9
:104780001A4602A9286801F073F90DE098F80400B0
:10479000800609D58DF80C708DF8109000231A460C
:1047A00002A9286801F064F9B8F80200010606D4ED
:1047B000012C04D040060CD4022C0AD011E00220B7
:1047C0008DF80C0000231A4602A9286801F050F960
:1047D00007E08DF80C6000231A4602A9286801F052
:1047E00047F907208DF808000124ADF80E40B8F80D
:1047F0000200204207D0ADF80C6000231A4602A93F
:10480000286801F035F9B8F80600204207D0ADF865
:104810000C7000231A4602A9286801F029F9B8F89B
:104820000800204208D00520ADF80C0000231A46ED
:1048300002A9286801F01CF90AEA4404002CD4D12A
:10484000BBF90000002884D008218DF80810ADF8CD
:104850000C0000231A4602A9286801F009F978E73C
:104860008C00002000080020400000204E000020A6
:104870002DE9F0410546884616461F462C460C3564
:10488000216821B1404607F0B3FE0028F6D1207917
:104890003070A0683860BDE8F08170B504460E46FF
:1048A00025460834296821B1304607F0A1FE0028CA
:1048B000F6D1284670BD2DE9FC4780460C461546CA
:1048C000002C0FD04FF001094E466B4601AA374825
:1048D000D8F80010FFF7CCFF641EE7B2009800285C
:1048E0005ED15FE00020BDE8FC8758F826100098F4
:1048F000FFF7D3FF04466079010605D5761CF6B2B2
:104900007F1E17F0FF074DD000F07F00062843D22E
:10491000DFE800F042030D172635217958F826000C
:1049200005EBC1014860207905F8309034E0217929
:10493000E08805EBC10188802179022005F831006B
:104940002AE0002258F82600114607F038FD2179A8
:1049500005EBC10148602179032005F831001BE017
:10496000002258F82600114607F0F1FC217905EBEA
:10497000C10148602179042005F831000CE058F8A5
:104980002600002109F0F1FC217905EBC101486006
:104990002179052005F83100761CF6B27F1EFFB2A2
:1049A000002FA2D19DF804009DE7000058010020CF
:1049B00041604280002303804FF6FF7002E0521EE8
:1049C00021F81200002AFAD170470388426832F8B1
:1049D00013200A804FF6FF718A420ED00388426886
:1049E00022F8131042880188521E914201DA491CB4
:1049F00000E000210180012070470020704730B5A1
:104A00008FB01446C94A904201D1012500E0032528
:104A10000190486802904FF0406003904FF0804052
:104A200004904FF088500590012206924888079024
:104A30000020089091040991C9000A9101A90B91E5
:104A40000C900D908DF838208DF839008DF83A00D3
:104A5000E8B20BA9FFF780F8B54800EB0510016834
:104A60002160416861608068A0600FB030BD10B502
:104A7000012815D0C822AF49AF48FFF799FFB04CC5
:104A8000AE4AAD492046FFF7BAFF01210320FCF7EB
:104A900010FC20460122BDE810401146FCF7D6BAB2
:104AA000A548C822A7490838FFF782FFA34AA249B0
:104AB0009E4C0C3A08392046FFF7A1FF0121084619
:104AC000FCF7F7FB20460122BDE810401146FCF739
:104AD000BDBAF8B50D461446012805D0964E35B13D
:104AE0002CB1208818B117E0934E083EF7E700205C
:104AF000F8BDBDF8002012F4E06F0DD1D3B22A68E2
:104B0000501C286013702088401E82B2228052B14F
:104B10000A2B08D00D2B06D069463046FFF755FF0B
:104B20000028E6D1F8BD0120F8BDF0B587B000231C
:104B3000012906D0844C8DF80C3004D14FF00101CE
:104B400003E0824CF7E74FF002018DF80D108DF86D
:104B500000304FF001054FF002074FF00306062822
:104B600079D2DFE800F078034E6170741078042188
:104B700098B39088092340B101280BD002280ED0A9
:104B800003281FD08DF8006067E08DF80C308DF899
:104B9000107062E08DF80C308DF810505DE0107EE2
:104BA00068B18DF80C308DF81010107A08B190892A
:104BB00000E002208DF81400D06906904DE08DF8D9
:104BC00000104AE0107EB0B18DF80C3006208DF850
:104BD0001000107A10B1908901E00FE002208DF8EA
:104BE0001400107C08B1908A00E002208DF81500B6
:104BF000D069069031E08DF800102EE08DF800109D
:104C00002BE0107868B1107A58B107208DF80C00AD
:104C10009089ADF812009088ADF810008DF8005022
:104C20001BE08DF8006018E0107840B108208DF886
:104C30000C009088ADF810008DF800500DE08DF854
:104C400000600AE007E00A208DF8000005E010206F
:104C50008DF80C0001E08DF800709DF80C0030B16B
:104C60003B4800231A4603A9006800F001FF9DF8A5
:104C70000000002805D000231A466946206800F08D
:104C8000F7FE07B0F0BDA2B000F0FF08B8F1010FC9
:104C90001ED02A4D5C3521955027209701F00CFC41
:104CA00001904046FFF7E3FE052101A801F050FA0C
:104CB00020AA21A94046FFF70CFF0028F4D0BDF838
:104CC0008000C0F1500080B200240126002216E0CE
:104CD0001A4D0C35DFE7AB5C202B23D0092B21D0FC
:104CE0000A2B1FD00D2B1DD03EB1AB1821460CAEA8
:104CF000641CA4B246F821300026521CD2B2824273
:104D0000E9D364B1282102A807F020FCE1B202AA8D
:104D10000CA8FFF7D0FD02AA4146FFF706FF209737
:104D20002195C1E70021A9540126E6E700000340D0
:104D300000040020000B0020A80100209C0C002093
:104D40000080034070090020B4010020B001002061
:104D50004000002010B50021BA4C0A46491CC9B2D7
:104D600004EBC2031A780AB18242F6D1586810BD2A
:104D70001FB5B54A904201D1002300E00223002272
:104D80000A6048608A604FF04040C8600A610120B4
:104D900048618A61CA6184040C6244054C620092D5
:104DA000019202928DF80C008DF80D208DF80E20E6
:104DB000D8B26946FEF7D0FE1FBD2DE9F05F8346ED
:104DC000884616461C46A048834502D14FF000078E
:104DD00001E04FF0020702D1DFF8709203E0DFF844
:104DE0006C9209F1640902D1DFF864A232E0DFF8C5
:104DF00060A20AF1040A2DE0B6F1005F0ED2642C25
:104E000001D9642500E025462A463146484607F088
:104E1000C4FB601B84B22E44484602E0304625465F
:104E20000024C8F80000C8F81850F8B24246002123
:104E3000FCF7B6F9F8B20121FCF73BFA0122022196
:104E40005846FCF703F900235A1E1946DAF8000009
:104E500000F0C4FE002CCFD1BDE8F09F8EB0C0B2F0
:104E6000012805D07A4FA7F1040705D1784C06E058
:104E7000774FA7F10807F8E7754C04F1040402D155
:104E8000DFF8C48101E0DFF8CC8101D16F4E02E090
:104E90006E4E06F1640604A94046FFF769FF002242
:104EA0000C210A2000F055FD386020B303220021B8
:104EB000012000F04EFD206020B100231A46194663
:104EC00000F0D6FD2068B8B100231A46194600F05C
:104ED00085FE4FF0FF3900234A4601A9386800F0EB
:104EE0007DFE9DF80400811F062946D2DFE801F00F
:104EF00005050B0B0F32FEE7FEE7029D284607F083
:104F000097FA84B240E0029DBDF80C403CE0354683
:104F10000024DFF844A151A12846DAF8002007F068
:104F2000D3F8284607F084FA83B22A4604A94046FB
:104F3000FFF743FF50A12846DAF8042007F0C4F831
:104F4000284607F075FA83B22A4604A94046FFF7BF
:104F500034FF19E0354600244E484FA1006802682E
:104F6000284607F0B1F8284607F062FA83B22A46CD
:104F700004A94046FFF721FF06E0FFF7EBFE0546D8
:104F8000284607F055FA84B235B12CB123462A469B
:104F900004A94046FFF711FF9DF80400072801D03F
:104FA000092898D1029801F058FD94E738B50020FF
:104FB0000090404CA06A264DC007A5F108050DD110
:104FC0002148816C890709D5816C21F00201816437
:104FD00000236A461946A86800F0AFFDA06A4007A2
:104FE0000DD41C48816C890709D5816C21F0020120
:104FF000816400236A461946E86800F09EFDA06AB5
:10500000800709D42C482D490A6802614A68426128
:10501000896881610220A062A06A000709D426483D
:1050200027490A6802634A684263896881630820E5
:10503000A06202210020FCF75DF9012801D1FCF7F4
:1050400046F938BDD0EF000800000340480D0020AD
:10505000B80100200080034084000020537973745D
:1050600069636B20686F6F6B206D61782074696372
:105070006B733A2025640D0054696D6572322049C6
:105080005352206D6178207469636B733A202564F4
:105090000D000000C0010020506F776572206F6E18
:1050A0002F6F6666206379636C65733A2025640D03
:1050B000000000000080024000040020900C00204E
:1050C0009C0C0020484000214AF20102C30702D094
:1050D00082EA500000E04008491CC9B20829F5D313
:1050E000704770B505460C46104603E015F8011BE5
:1050F000FFF7E8FF2100A4F10104A4B2F6D170BDCE
:1051000010B5FB4C4FF0FF320821206807F0F4F98E
:10511000206800210171417101600121C17181711B
:1051200010BDF34800680168491C0160704710B564
:10513000EF4841F28831406801800021418042F20D
:10514000107282808171C1714FF4FA6303824182CF
:10515000520082828175C1755C00048341835400D2
:1051600084838177C17780F8201042F6E06404815F
:10517000418182818173C1735C1044848184C284C3
:1051800080F8281080F8291043858185C28580F831
:10519000301080F8311080F83210012280F834206D
:1051A00080F835100521C18610BD10B5D04C4FF0E8
:1051B000FF323821606807F09FF90120FCF7E9FD14
:1051C0006168088000210120FCF7FBFD61684880D0
:1051D00001210846FCF7F5FD616888800021012067
:1051E000FCF7FAFD6168887101210846FCF7F4FDBF
:1051F0006168C87100210120FCF7FDFD616808822B
:10520000002211460120FCF71AFE61684882012243
:1052100000211046FCF713FE6168888200221146C7
:105220000120FCF71BFE61688875012200211046F1
:10523000FCF714FE6168C87501210846FCF7DBFD28
:1052400061680883012100220846FCF7F8FD6168C7
:105250004883012211461046FCF7F1FD61688883FE
:10526000012100220846FCF7F9FD616888770122D8
:1052700011461046FCF7F2FD6168C8770120FCF783
:1052800010FE616881F820000020FCF782FD616853
:10529000088100210846FCF794FD616848810121DE
:1052A0000020FCF78EFD6168888100210846FCF72C
:1052B00093FD6168887301210020FCF78DFD616812
:1052C000C87300210846FCF796FD616848840022F7
:1052D00011461046FCF7B3FD616888840021012265
:1052E0000846FCF7ACFD6168C884002211461046F0
:1052F000FCF7B4FD616881F828000021012208460E
:10530000FCF7ACFD616881F8290001210020FCF761
:1053100072FD61684885002201211046FCF78FFD6F
:1053200061688885012211460020FCF788FD6168CC
:10533000C885002201211046FCF790FD616881F8C4
:105340003000012211460020FCF788FD616881F8D9
:1053500031000020FCF7A5FD616881F83200FCF700
:1053600090FD616881F83400FCF791FD616881F877
:105370003500FCF792FD6168C88610BD38B5002481
:1053800000205B4908220C31FEF704F905460E2087
:1053900002226946FEF7FEF8284310B10124204698
:1053A00038BD53484FF6FF7208210C30FFF799FEC5
:1053B000BDF800108842F2D00224F0E738B500248E
:1053C000102038224B49FEF7E5F805468D200222D1
:1053D0006946FEF7DFF8284310B10424204638BDA3
:1053E0004FF6FF7238214348FFF77BFEBDF80010EF
:1053F0008842F3D00824F1E7F8B504460A2C37D2E6
:10540000902000EBC41038223A49FEF7C3F8064654
:105410004FF4807000EBC41036490D223831FEF78E
:10542000B9F840EA060540F20D1000EBC410022264
:105430006946FEF7AFF828432E4D453510B10420DC
:105440002855F8BD4FF6FF7238212A48FFF749FE6C
:10545000024628480D213830FFF743FEBDF8001002
:10546000884202D100202855F8BD08202855F8BDF3
:105470001020F8BD2DE9F84F00241E4E90274FF460
:10548000807840F20D19453607EBC41038221949CF
:10549000FEF780F8824608EBC41016490D22383119
:1054A000FEF778F840EA0A0509EBC41002226946C3
:1054B000FEF770F8284338B104203055641CE4B27C
:1054C0000A2CE1D3BDE8F88F4FF6FF723821094866
:1054D000FFF707FE024607480D213830FFF701FEAF
:1054E000BDF80010884207D100203055E6E70000E3
:1054F000C0010020100E002008203055DEE770B5F6
:1055000004460A2C15D2A54D285D18B108280ED0E6
:10551000042070BD4FF4807000EBC4100D22FEF724
:1055200039F810B10420285570BD002070BD082046
:1055300070BD102070BD38B50024FFF7F2FD4FF6A6
:10554000FF7208219648FFF7CCFD0090082294498D
:105550000020FEF793F80546022269460E20FEF76A
:105560008DF8284300B10124204638BD38B5002409
:105570008B480C3800688079002819D0FFF715FE99
:1055800086484FF6FF7238214538FFF7AAFD009094
:105590008249382245391020FEF770F8054602226C
:1055A00069468D20FEF76AF8284310B1042400E014
:1055B0001124204638BDF8B504460D460A2C40D2C9
:1055C00076480D210D3806F0C1FF74480C2229469B
:1055D0000D3806F0E2FF71484FF6FF72382145386A
:1055E000FFF77FFD009002466C480D210D38FFF754
:1055F00078FD0090902000EBC410684938224539AE
:10560000FEF73CF806464FF4807000EBC410634987
:105610000D220D39FEF732F840EA060540F20D1072
:1056200000EBC41002226946FEF728F828435B49C4
:1056300018B1042004220A55F8BD002000220A55A2
:10564000F8BD1020F8BD0A2802D25449085C704702
:105650001020704752480C380068807970475048D5
:105660000C380068C079704770B504460D46002DAF
:1056700002D1012C00D1002400F0CAF848480C38AF
:1056800000688471C571BDE8704000F0CDB800229B
:1056900014210A2000F05DF9414E0C3EB06040B18B
:1056A0003E4FDFF800811F37A7F114054FF0FF3997
:1056B00069E0FEE7012826D0022833D0032862D112
:1056C00046E0FFF75BFE0446A00701D0FFF718FD98
:1056D000FFF7D0FE3068C07940B1FFF76FFE04439A
:1056E00014F00C0F04D0FFF722FD01E0FFF71FFDBF
:1056F000A8680470686850B3002300681A46194609
:1057000000F0B6F93FE0287A2969FFF7F8FEE9686A
:1057100008706868D8B1002300681A46194600F07E
:10572000A7F930E00D203870287AFFF78CFF7871E8
:1057300018B9287AFFF760FE7871287A387117490E
:1057400000234A461F31D8F8000000F091F91AE012
:10575000FFF72BFD686828B1002300681A46194638
:1057600000F086F90E203870287AE968FFF723FFE9
:105770007871287A3871094900234A461F31D8F8D0
:10578000000000F075F9054900234A460B31B06866
:1057900000F024FA2878002893D08BE7550E0020DB
:1057A000CC01002040000020FAF74CFDFEE7A0F1FC
:1057B00020004FF08073C36181612849416140F846
:1057C000202970474FF0E0204FF6FF11416107217B
:1057D0000161704710B52248016841F47F01016002
:1057E000016841F07F410160FFF7ECFF1D49002097
:1057F0000860FAF7FFFC002010BD704718494FF011
:1058000080501C390860BFF34F8FBFF36F8F704714
:1058100010B5FAF717FD13480168491C0160BFF382
:105820004F8FBFF36F8F10BD0E490868401E086090
:10583000002801D1FAF70DBD704710B5FAF702FD47
:1058400000F0BBFB20B106494FF080501C390860C6
:10585000BDE810400020FAF7FCBC0000A957000882
:1058600020ED00E0D401002000F1080141604FF07C
:10587000FF328260C1600161002101607047002138
:105880000161704742684A6093688B609368596011
:10589000916008610168491C0160704730B50C686F
:1058A000621C02D000F1080202E0026904E01A461C
:1058B00053681D68A542FAD953684B6099608A60A5
:1058C000516008610168491C016030BDD0E90121C7
:1058D0009160D0E90112516001694A68824201D1A8
:1058E00082684A60002202610868401E08607047B2
:1058F00070B504460D46FFF78BFFD4E90F12206800
:1059000001FB020060600020A0632068A060E06BE3
:10591000226C2168401E00FB0210E0604FF0FF3057
:105920006064A06404F110004DB1FFF79DFF04F125
:105930002400FFF799FFFFF777FF012070BD216971
:105940000029F8D000F0F7FD0128F4D1FFF756FF49
:10595000F1E72DE9F04105460F460026002D16D04F
:105960004C2001F034F804468CB105FB07F0401CD4
:1059700001F02DF8206038B1E5632764012120464D
:10598000FFF7B6FF264602E0204601F066F83046F3
:10599000BDE8F08170B50446FFF73AFF04F1240535
:1059A0000AE0606A58B1284600F0C5FD08B100F071
:1059B00024FEA06C401EA064A06C0028F1DC4FF017
:1059C000FF35A564FFF730FFFFF722FF04F1100653
:1059D0000AE0206958B1304600F0ADFD08B100F092
:1059E0000CFE606C401E6064606C0028F1DC656435
:1059F000BDE87040FFF718BF10B50446FFF708FF79
:105A0000A06BE16B884201D1012400E00024FFF784
:105A10000BFF204610BD70B504461546226C002AC7
:105A200022D07DB1E06806F022FDE168206C091A01
:105A3000E1602268914202D26168081AE060022D9A
:105A40000DD011E0A06806F012FD216CA06808449A
:105A5000A0606168884207D32068A06004E0A06B62
:105A600010B1A06B401EA063A06B401CA06370BD72
:105A70002DE9FF4182B0044688461F4600250026D6
:105A8000FFF7C6FEA06BE16B884205D3022F03D05F
:105A90000498A8B1C5B11BE03A4641462046FFF73D
:105AA000BAFF606A38B104F1240000F044FD012817
:105AB00001D1FFF7A3FEFFF7B7FE012006B067E7AD
:105AC000FFF7B2FE0020F9E7684600F060FD01250F
:105AD000FFF7AAFE00F037FBFFF79AFE606C401C50
