:020000040800F2
:10000000A868002059020008610200086302000885
:10001000750200087702000879020008000000005D
:10002000000000000000000000000000CD010008FA
:100030007D02000800000000010200084B5100088A
:100040008302000883020008830200080000000009
:1000500000000000094A000883020008830200082B
:1000600083020008000000008302000883020008E9
:1000700083020008000000008302000823410008FA
:1000800083020008830200080000000083020008C9
:1000900083020008000000000000000000000000D3
:1000A00000000000000000000000000083020008C3
:1000B000830200088302000883020008830200080C
:1000C00000F002F800F073F80AA090E8000C8244F7
:1000D0008344AAF10107DA4501D100F068F8AFF2D4
:1000E000090EBAE80F0013F0010F18BFFB1A43F016
:1000F0000103184764050100840501000A444FF01C
:10010000000C10F8013B13F0070408BF10F8014B76
:100110001D1108BF10F8015B641E05D010F8016BBB
:10012000641E01F8016BF9D113F0080F1EBF10F81F
:10013000014BAD1C0C1B09D16D1E58BF01F801CB42
:10014000FAD505E014F8016B01F8016B6D1EF9D5C5
:100150009142D6D3704700000023002400250026DA
:10016000103A28BF78C1FBD8520728BF30C148BF1A
:100170000B60704766290CF0F984642909F0DE866B
:1001800063290AF0B083002070471FB50AF0AEFC67
:100190000400002000210BF0ABFF401C6060002039
:1001A00000210BF0BBFFE0601FBD10B510BD0AF0D1
:1001B000CFFD1146FFF7E9FF01F01CFB0BF040F803
:1001C00003B4FFF7F2FF03BC0BF074FA1A4B196883
:1001D0000868B0E8F00F80F309884FF0000080F362
:1001E00011884EF00D0E70470000000003480068B3
:1001F000006880F3088862B600DF00BF08ED00E009
:10020000EFF309800C4B1A6820E9F00F106008B575
:100210004FF0200080F3118805F0A3FC4FF00000A0
:1002200080F31188BDE8084019680868B0E8F00F4D
:1002300080F30988704700BFCC010020EFF31180E4
:100240004FF0200181F31188704780F311887047C7
:10025000EFF30580704700000D4880470D480047C8
:10026000FEE71EF0040F0CBFEFF30880EFF30980E8
:1002700003F0D5BEFEE7FEE7FEE7FEE7FEE7FEE79A
:10028000FEE7FEE704480549054A064B70470000B3
:100290000B030008C1000008A8620020A868002025
:1002A000A8640020A864002010B51F4BD8681F4C1C
:1002B0008007002801DA601000E02046D968C907ED
:1002C00000D04008D968490704D55968C1F3032113
:1002D000491C4843D968164AC1F3012139B10129A3
:1002E00007D002290DD049F64040106010BD1460BF
:1002F00010BDD968C1F30311491CB0FBF1F01060C7
:1003000010BD4FF40040106010BD07480949C1619D
:10031000C1680021C16042684160826881600269F1
:10032000016142694161BFE70000024000127A00AA
:100330000000002010000008002101604160016100
:100340004161416203210162704710B54A88026130
:100350000A894B890C881A448B8903EB04231A44BD
:10036000CB881A440260CA8989881144416010BD53
:10037000002181800722C280418101818181022286
:10038000428001807047002904D0416841F0020199
:100390004160704741684FF6FD72114041607047FF
:1003A000002A03D042690A434261704742698A4386
:1003B000426170478069814301D00020704701206D
:1003C0007047C069084201D0012070470020704783
:1003D000026A0A4302627047002A03D0426A0A4353
:1003E00042627047426AC94389B20A40426270471A
:1003F00081607047806880B27047C068084201D051
:10040000012070470020704710B50B4BDA6A0B4C87
:10041000A04205D142F0807020F0FF020A4308E0BC
:10042000074CA04205D142F0007020F47F4040EA22
:100430000122DA6210BD000000000240000004400A
:1004400000000A400021C1600161416001608160DB
:1004500041618161C16170472DE9FF4FD0F804907F
:100460008768D0F80CA0D0F81080D0F814C082694A
:100470000192C26900920022012303254FF0011668
:100480000C885EE05FEAC47B56D091F802B029EA9E
:1004900003090BFA02FB49EA0B0991F808E04FEA5D
:1004A000420B0EFA0BFEAF434EEA0707CDF80CB035
:1004B00091F80AB02AEA030A0BFA02FB4AEA0B0A8D
:1004C00091F803E002F1100B0EFA0BFECDF808B024
:1004D00091F804B028EA060848EA0E080BFA02FB75
:1004E00048EA0B0891F805E0DDF808B02CEA060CA4
:1004F0000EFA0BFE91F806B04CEA0E0C0BFA02FB5A
:100500004CEA0B0C91F809E0DDF80CB00EFA0BFE8A
:10051000DDF804B02BEA050B4EEA0B0ECDF804E033
:10052000DDF800B091F807E02BEA030B0EFA02FEAB
:100530004BEA0E0BCDF800B05B00AD007600521C0C
:100540006408002C9ED14749884202D14FF01F0118
:1005500001E04FF0000129EA0109C0F8049002D13E
:100560004FF01F0101E04FF0000127EA010787600B
:1005700002D14FF01F0101E04FF000012AEA010A09
:10058000C0F80CA002D14FF01F0101E04FF00001B4
:1005900028EA0108C0F8108002D14FF01F0101E0E5
:1005A0004FF000012CEA010CC0F814C002D14FF04A
:1005B0001F0101E04FF00001019A22EA010282616D
:1005C00002D14FF01F0101E04FF00001009A22EA32
:1005D0000102C261BDE8FF8F4FF6FF71018000216B
:1005E0008170C170017141718171C171017241727B
:1005F000817270470068084201D0012070470020D6
:100600007047006870470368164A904201D11F2264
:1006100000E0002293430B43036070470368114AD4
:10062000904201D11F2200E000220A43934303605D
:10063000704710B503680B4CA04201D11F2400E0A5
:100640000024A34312B10B43036010BD8B4303602E
:1006500010BD044A904201D11F2200E000229143C4
:100660000160704700000B400021C16001604160E3
:100670008160016241628162C162016341638163A1
:10068000C163016641668166C16601614161816144
:10069000C161016741678167C16701644164816429
:1006A000C164016541658165C165704710B50A88FF
:1006B00002604A8842608A888260CA880B898C8975
:1006C0001A444B8923441A44CB891A44C2604A8A8B
:1006D0008B8A1A44CB8A098A03EB01111144016504
:1006E00010BD0021018041808180C1800181418154
:1006F0008181C181018241828182C1827047C26849
:10070000002902D042F0010101E022F00101C160A4
:100710007047016070474160704781607047C368EF
:1007200023F002031A44C26081607047006880B2FF
:100730007047C26822F470621144C1607047C26899
:1007400022F030021144C1607047C26822F0C0023A
:100750001144C1607047C26822F008021144C160B0
:10076000704710B5046D24F0FE04114401EB031131
:100770002144016510BD026D22F0F00202EB01116F
:1007800001657047026D22F00C021144016570474B
:10079000026D22F00202114401657047026D22F0E1
:1007A0000102114401657047C0680007002801DBA1
:1007B0000020704708207047C0684007002801DB10
:1007C000002070470120704710B54A88CB884C89BB
:1007D0001A440B8923441A448B8902EB8312CB8978
:1007E0001A440B8A1A448B88002B01D002F5005260
:1007F0000B8800EB83031A62488ACA8A1044898AEC
:1008000001B1001D186610BD00210180418081806A
:10081000C180018141818181C181018241828182C6
:10082000C182704700EB81000261704700EB8100DC
:100830000267704710B500EB81000146046E24F09A
:100840000804234403660846026110BD10B500EB9E
:1008500081000146046E24F0080423440366084620
:10086000026710BD00EB8100006980B2704700EBA9
:100870008100006F80B2704700EB8100203001687A
:10088000002A02D041F4807101E021F480710160FE
:10089000704700EB8100016A21F4005111440162AC
:1008A000704700EB8100016A21F48051114401621C
:1008B000704700EB8100016A21F46061114401621C
:1008C000704700EB8100016A21F0C00101EB821149
:1008D0000162704700EB8100016A21F03001114490
:1008E0000162704700EB8100016A21F00F011144A1
:1008F0000162704700EB8100006A4004002801DBC0
:10090000002070470120704700EB8100016E21F04C
:10091000030111440166704700EB810060300168FB
:10092000002A02D041F0040101E021F0040101603D
:10093000704710B5CA884B880C8902EB03128B886C
:100940009B0003EB04331A444B8902EB83228B890F
:1009500002EB03220B8800EB830002630A8A4B8AB6
:10096000C9891A4402EB0121016410BD00214180B4
:100970008180C180018141818181C1810182418267
:10098000704710B5029C00EB8100016B21F01F0144
:10099000240104EB82021A441144016310BD00EBF0
:1009A0008100016B21F00C0101EB820101637047B2
:1009B00000EB8100016B21F00301114401637047DA
:1009C00000EB8100016B21F0100101EB02110163CA
:1009D000704710B5029C00EB8100016B21F4F851C7
:1009E000240304EB822202EB03221144016310BDB5
:1009F00000EB8100016B21F4406101EB8221016376
:100A0000704700EB8100016B21F4407101EB022182
:100A10000163704700EB8100016B21F4805101EB11
:100A200002310163704710B5029C03EB022222449D
:100A300000EB8100026410BD406D7047406D0842BC
:100A400001D00120704700207047426D8A43426503
:100A50007047C36D002A01D00B4300E08B43C36590
:100A60007047836D002A01D00B4300E08B43836500
:100A70007047426D806D02400A40002A01D001207B
:100A800070470020704710B50F4B5A6A0F4CA042B8
:100A900005D122F0FF00084340F0807212E00C4CB8
:100AA000A04206D122F47F4040EA012040F00072CB
:100AB00008E0084CA04205D122F47F0040EA014042
:100AC00040F080625A6210BD000002400000074002
:100AD00000800740000008403C480021816001611F
:100AE0000122826101604160704738498A68037958
:100AF0009B06002B02DA42F0200201E022F02002E5
:100B00008A6000680860000A486070470021416000
:100B10000121016070472D4A9168002802D041F000
:100B2000800001E021F0800090607047274A9168C2
:100B3000002802D041F0400001E021F04000906028
:100B4000704722480069C00701D00120704700208B
:100B500070471E48816941F00101816170471B4A5D
:100B600020F00100084350619020906170471749C0
:100B700048611020886170471448402181617047A6
:100B8000124940F02000886170471048C068C0B228
:100B900070470E488169006941EA0020C14340EA7C
:100BA0000140704700B50246FFF7F3FF824301D0D2
:100BB000002000BD012000BD00B50246FFF7E9FF9F
:100BC000104201D0012000BD002000BD0000054002
:100BD000D1480021016041608160C16001614161D3
:100BE0008269C269016241628162C1627047826842
:100BF000016803791144C26802EB0372114402696F
:100C000011444269008B114401EB4050C349C24A70
:100C100013688B43184410607047002101604160E5
:100C20008160C1600161416181617047BA4A1168A8
:100C300021F0F07101EB40501060704730B5B649BB
:100C40000A68B64BDB1C1A40D0E900342344D0E9D3
:100C5000024504EB0514234444692344C469234436
:100C6000446A234490F8284003EB446313444A68E1
:100C700022F40032048C02EB44420B604A60028B87
:100C80000A61428B8A600069886230BD30B5A24932
:100C90004A68A34B1A40D0E900342344D0E9024506
:100CA00004EB0514234444692344C4692344048C9D
:100CB00003EB8443446A234490F8284003EB4463E5
:100CC0001A444A60028B4A61428BCA600069C8625A
:100CD00030BD0021016041608160C16001614161FE
:100CE00001834183C16101624162816270478A4A26
:100CF0001168002802D041F0010001E021F001005C
:100D000010607047844A5168002802D041F0010009
:100D100001E021F00100506070477F4A116821F422
:100D2000F87101EB0010106070477B4A516821F4A4
:100D3000F87101EB00105060704777498862704786
:100D40007549C8627047744B1A6822F402720844ED
:100D5000104418607047704B5A6822F402720844BD
:100D60001044586070476C4A116821F0080108442B
:100D700010607047684A516821F0080108445060CB
:100D80007047654A116821F400710844106070478B
:100D9000614A516821F4007108445060704710B5F1
:100DA0005D4B1C6824F4806422441A6018619960C9
:100DB00010BD10B5584B5C6824F4806422445A601E
:100DC0005861D96010BD5449086170475249486163
:100DD00070475149886070474F49C86070474E4816
:100DE000016841F00201016070474B48416841F0E1
:100DF0000201416070474848806970474648C069B1
:100E000070474548016A406A01EB0040704742481C
:100E1000006A70474048406A704700B50246FFF7D5
:100E2000F0FF104201D0012000BD002000BD3A4972
:100E3000096A014201D001207047002070473649FD
:100E4000496A014201D001207047002070473248B2
:100E5000016A21F00101016270472F48416A21F0C7
:100E60000101416270472C48016A21F002010162D0
:100E700070472948416A21F002014162704770B50C
:100E8000254E336A756A84008004020C002904D060
:100E900042EA030045EA144103E023EA020025EA9E
:100EA00014413062716270BD1B4B1A6A002902D076
:100EB00042EA800001E022EA800018627047164B87
:100EC0005A6A002902D042EA800001E022EA80004A
:100ED0005862704700B50246FFF793FF02EA90019F
:100EE000014009B1012000BD002000BD0A49096A86
:100EF00000EA91000840002801D00120704700203E
:100F000070470549496A00EA91000840002801D06D
:100F10000120704700207047008008400000FFF16A
:100F20000300FBF100210163C162416090228261F4
:100F300001624162816202224263816381644FF4F3
:100F400040710163704770B586B004460D4601A834
:100F500000F086FB01986B49896A6B4B01229C4229
:100F600005D101F007018A40B0FBF2F007E0674BC2
:100F70009C4204D1C1F302218A40B0FBF2F02A68FE
:100F80009108B0FBF1F3990903F03F03800003EBF4
:100F90008116B0FBF6F0801AC001B0FBF2F0022817
:100FA00002D9002006B070BD6162A362E06AA98820
:100FB000EA886B8911432A891A4311430143E1628C
:100FC000206B4FF680718843A9890143216301207A
:100FD000E8E74FF41651016000218180C180018152
:100FE00041814FF4407181817047002904D0016B29
:100FF00041F0010101637047016B4FF6FE72114031
:1010000001637047002A03D0826B0A4382637047F2
:10101000826B8A4382637047C06B814301D000209A
:10102000704701207047006C084201D001207047D2
:1010300000207047426C0A434264704742EAC10193
:1010400041637047002A03D0826C0A438264704770
:10105000826CC94389B20A4082647047C1F30801B7
:1010600001607047006880B27047002904D0C16AEF
:1010700041F00101C1627047C16A4FF6FE7211432F
:10108000C162704730B585B004460D46042D08D1C5
:10109000684600F0E5FA00984FF4E111B0FBF1F07A
:1010A0002062206B2843206305B030BD002904D0A6
:1010B000016B41F0020101637047016B4FF6FD7255
:1010C0001143016370478069084201D001207047D5
:1010D0000020704710B50B4B9A6A0B4CA04205D10B
:1010E00042F0807020F0FF020A4308E0074CA04263
:1010F00005D142F0007020F47F4040EA01229A625C
:1011000010BD0000000002400000034000800340CA
:1011100010B583680268B3F1406F26D08469641EFD
:101120009B0E9C4022440A604269042A1FD0C26878
:10113000B2F1404F1FD083695B1E920F934042680B
:101140001A444A60D0E903231A43446A836823435C
:101150001A43036A1A43C3691A43836940695B1ED1
:1011600042EA031202438A6010BD0A60DCE742686B
:101170000C324A60E6E742684A60E3E770480021C3
:10118000416081604161491EC1614162C162416348
:10119000C1630121C1647047002905D06849C9684D
:1011A00001EB00111046B3E7664901EB0011104650
:1011B000AEE701EB00111046AAE770B58AB005460C
:1011C0000C465F4E5F48B06021680091F16801EB0A
:1011D000051101914FF000610291090103914FF057
:1011E00008510491042105916168890006914FF42A
:1011F00000410791A1680891E168099100EB051190
:101200006846FFF785FF01207060607D0122AA40DB
:10121000012809D0F2617262B2627263207D0128F6
:1012200004D0F2630AB070BDB261F4E7B263F9E7CB
:1012300070B506460C46424D4249A9602068002818
:1012400003D001EB0611FFF763FF606820B1E96886
:1012500001EB0611FFF75CFF01206860607B012253
:10126000B24001280AD0EA616A62AA62A07B38B162
:101270002A63207B012805D0EA6370BDAA61F3E7E9
:101280006A63F6E7AA6370BD002101604160816076
:101290000173417381737047002101604160816077
:1012A000C160016101754175704701228240244887
:1012B000012901D0C26270478262704701218140DA
:1012C0001F48416170471E490120C86470471C4A8D
:1012D000002907D0D16801EB00100089C0F3091084
:1012E000401C7047916801EB0010F6E710B5012231
:1012F0008240134CD2B2092920D2DFE801F01F0549
:10130000090D101316191C00206800F0010010BD13
:10131000E06C00F0010010BDA06A104010BD206A12
:10132000104010BD2069104010BDA069104010BDD4
:10133000206B104010BDA06B104010BD002010BDF0
:101340000080024000040020FE4A002903D0D16939
:101350000143D1617047D1698143D1617047F94A36
:10136000D16821F440710143D1607047C0F342114C
:10137000012909D0F449C96B00F01F0201209040F7
:10138000084204D001207047EE490968F4E70020C4
:10139000704708B5002000904FF4C0631720FFF796
:1013A000E5FF0099491C00910099994201D200285B
:1013B000F4D01720FFF7DAFF08B1012008BD0020A4
:1013C00008BDE2490860704700B50120FFF7F9FF4A
:1013D000FFF7DFFF0020FFF7C2FFDA48C1680021F6
:1013E000C16042684160826881600269016142694E
:1013F000416182698161D649C16100BD00B5FFF7D5
:10140000E3FF0121C806FFF79FFFCF48C16B41F4FE
:101410008101C163C16B01F48101C16300BDC94990
:101420008A6822F003028A60012806D0022803D1CC
:10143000886840F0030088607047886840F00100C9
:101440008860704708B5002000904FF4C0632220E8
:10145000FFF78CFF0099491C00910099994201D235
:101460000028F4D02220FFF781FF08B1012008BD39
:10147000002008BDB449CA6B22F00302CA630128E8
:1014800006D0022803D1C86B40F00300C863704740
:10149000C86B40F00100C863704708B50020009099
:1014A0004FF4C0630D20FFF761FF0099491C0091C4
:1014B0000099994201D20028F4D00D20FFF756FF81
:1014C00008B1012008BD002008BD9F4AD16B21F062
:1014D0007C5141EA0060D06370479C491C39086028
:1014E0007047994AD16B21F4F81141EA0040D0636A
:1014F000704708B5002000904FF4C0631520FFF737
:1015000035FF0099491C00910099994201D20028A9
:10151000F4D01520FFF72AFF08B1012008BD0020F4
:1015200008BD884AD36823F003030343D36050689F
:1015300020F4706040EA012050608648D0F888109E
:10154000002904D0012140F88C1F00210160704760
:1015500081490860704781490860704708B50020DC
:1015600000904FF4C0632120FFF700FF0099491C51
:1015700000910099994201D20028F4D02120FFF770
:10158000F5FE08B1012008BD002008BD6D4AD168F4
:1015900021F0F00141EA0010D0607047694A1369F8
:1015A00023F0030303431361506820F0F00040EA86
:1015B000011050606748D0F88010002904D0012144
:1015C00040F8841F0021016070476549086070473A
:1015D00064490860704708B5002000904FF4C0636C
:1015E0002020FFF7C3FE0099491C00910099994201
:1015F00001D20028F4D02020FFF7B8FE08B1012066
:1016000008BD002008BD5849086070475749086068
:1016100070474C4A516921F03301014351617047D1
:10162000484A516921F4706141EA002050617047D5
:101630004F4908607047434A916921F0F00141EA3F
:101640000010906170474B49086070473D4A9169AE
:1016500021F00F01014391617047474908607047CD
:101660002DE9F04FDFF8ECB0DBF88411DFF80CA1C6
:1016700000294FEA4A0501D0514600E02946DBF82F
:10168000802102B149080B46DBF88821DFF8B4C09D
:101690002AB1DCF80420C2F30322521C5343DCF8C5
:1016A0000C204FF40048C2F3012249F640490127BB
:1016B00052B1012A0AD0022A1BD0C0F80090DBF8F0
:1016C0000422CAB1524618E00560F8E7DCF80C20A5
:1016D0004FEA1212120701D41A4608E0DCF80C2077
:1016E000C2F30212521C07FA02F2B3FBF2F20260DA
:1016F000E5E7C0F80080E2E72A46DBF8004204B1E3
:1017000052081446DBF808622EB1DCF80460C6F318
:101710000316761C74432646DBF810B2BBF1000FAB
:1017200000D076084660DCF8186036095FEA067B70
:1017300007D506F0070B0BF1010B07FA0BF6B5FB0B
:10174000F6F51DE00000024000800D40D807B043D0
:1017500010000008000040428801404288004042DA
:1017600008024042800040422002404210024042B3
:10177000B4024042240340422003404200093D009D
:10178000C560DCF818605FEA067B07D506F0070B3A
:101790000BF1010B07FA0BF6BAFBF6FAC0F810A032
:1017A000DCF8146016F0030604D0012E1AD0022EC5
:1017B0001AD02146DCF81420C2F30112B2B1012A7A
:1017C00016D0022A00D02946DCF81420120A13078A
:1017D00005D502F00702521C9740B1FBF7F181607A
:1017E000BDE8F08F1146E5E71946E3E74146EBE730
:1017F0004946E9E71FB501F0BEFF01F0F0FF01F037
:101800005DFA02F0E2F902F006FA02F056FA02F08E
:1018100042F802F00DFA02F045F902F0B3F900F0D7
:10182000F2F901F0C0FD43480125E90300240160FD
:1018300000F060FC502002F034FB552002F034FB35
:101840003D48046044603D480570CDE90054029471
:10185000002380223AA13C48039403F08FFF3B48C9
:10186000CDE9010402260023802239A13B480096DD
:10187000039403F083FF00940194029400238022D8
:1018800037A13948039403F079FF0320CDE9000420
:1018900002940023802235A13748039403F06EFFA1
:1018A000CDE9005402940023802234A136480394E9
:1018B00003F064FFCDE9006402940023802233A189
:1018C0003348039403F05AFFCDE9005401231E026C
:1018D000029432462FA13248039403F04FFFCDE922
:1018E00000540294012332462EA13148039403F0A0
:1018F00045FFCDE900540294022332462DA1284829
:10190000039403F03BFFCDE90054029402233246D6
:101910002BA12748039403F031FFCDE90054029432
:101920000023802229A12D48039403F027FF04F00F
:101930000FFAFEE700E100E08000002070000020C8
:1019400047554920746F7000812D00082C0000203D
:10195000436F6E7665727465720000003122000874
:1019600053657276696365004D350008446973708C
:101970006174636865720000312A000862757474CE
:101980006F6E7320746F7000A941000841444300DA
:10199000E11900085541525431205258000000000E
:1019A000E3460008554152543120545800000000CD
:1019B000B9480008554152543220525800000000E6
:1019C000554152543220545800000000536F756E38
:1019D0006420647269766572000000002336000896
:1019E00008B500220421052003F03BFC604C606137
:1019F00080B103220021012003F033FCA06120B15B
:101A000000231A46194603F0BBFCA06918B14FF039
:101A1000FF3534E0FEE7FEE70320207000232A466E
:101A20001946A06903F062FD2089800800EB800060
:101A300081B2A18060898008E0804E4A126F526BAB
:101A4000927B520707D500EB80004FF6FF7202EA47
:101A50004000E08002E000EB8000E080E08841434D
:101A60004FF47A7091FBF0F0E0600620206142486C
:101A70003F4900231A461031006803F081FC00231F
:101A80002A466946606903F031FD00980128F6D1C5
:101A9000C2E770B5364C0022214660780125042645
:101AA000C978032838D005DC50B101280ED00228AF
:101AB00004D12AE0102840D0112845D0627070BDB2
:101AC0002078A0700028FAD0657070BDA07800F072
:101AD0000501012908D081070DD520F00200A07072
:101AE00010206070628170BD20F00500A07002209F
:101AF0006070228170BD62702270A069BDE8704084
:101B000000231A46194603F0A0BC0420FFF705F98C
:101B1000E6700320607070BD042904D2FFF76BF9F2
:101B2000218908442081E07828B1FFF758F9E0784E
:101B3000401EE07070BD657070BD0720FFF7EDF8C6
:101B4000E6701120607070BD042904D2FFF753F9CC
:101B5000618908446081FFF742F9E07828B1FFF716
:101B60003EF9E078401EE07070BD657070BD000009
:101B7000040000202C0800204C00002070B5002438
:101B80004A4D686820F0C00068600A2001F0AFF894
:101B9000064647480068810600D41024400701D457
:101BA00044F480742868C10701D144F0010481071E
:101BB00001D444F00204410701D444F00404C106F6
:101BC00001D444F00804800601D444F020043046D7
:101BD00001F092F80028FAD12868696841F0C00144
:101BE0006960010601D444F04004400601D444F089
:101BF00080043048048070BD2F48002141808180DE
:101C0000C1800181704700202B4A00210A3222F84E
:101C10001010401CC0B20928F9D3EDE72DE9F041BE
:101C2000FFF7ACFF2348008820F00F05FFF7E4FF23
:101C30000021214C01274FF6FF7C04F10A0607FA28
:101C400001F082B236F811000CEA4000154201D0D2
:101C500040F0010000F00303012B04D0022B06D05A
:101C6000032B19D111E063881343638014E0A38828
:101C70001343A380C0F38803A3F58078B8F1FF086D
:101C80000AD0E3881343E38006E0C0F38803FF2B08
:101C900002D123891343238126F81100491CC9B2BC
:101CA0000929CCD32580BDE8F081000000000B405D
:101CB00000800A4020000020000800201E48006824
:101CC00040F30000401C70471C48006840F380202F
:101CD000401C70471A4A012803D004211046FEF721
:101CE0009DBC04211046FEF78EBC15480068C0F369
:101CF00080007047124A012803D008211046FEF7E1
:101D00008DBC08211046FEF77EBC0B4A012803D08B
:101D100002211046FEF782BC02211046FEF773BC7A
:101D2000084A012803D040211046FEF777BC402125
:101D30001046FEF768BC000000800A4000000B401F
:101D400000800E4000800C40012802D0FE484088F0
:101D50007047FD483838FAE7012802D0FA48C088B1
:101D60007047F9483838FAE7012802D0F6488088E9
:101D70007047F5483838FAE7012803D0F24821B116
:101D800040897047F0483838F9E7008970470128E2
:101D900005D0ED4831B1007CC0F340007047EA48FF
:101DA0003838F7E7007C00F001007047012804D0C4
:101DB000E54829B1223000887047E3483838F8E711
:101DC0001230F8E7012804D0DF4829B1223080889A
:101DD0007047DD483838F8E71230F8E7012804D0BA
:101DE000D94829B1223040887047D7483838F8E7B9
:101DF0001230F8E7012805D0D34831B1223032B192
:101E000000897047D0483838F7E71230F7E7C088C4
:101E10007047012807D0CC4841B1223042B1807BC5
:101E2000C0F340007047C8483838F5E71230F5E78E
:101E3000807B00F001007047C348383890F8750087
:101E400000F001007047C048383890F87500C0F3C2
:101E500040007047BC483838B0F876007047012819
:101E600005D0B948406B807BC0F380007047B6480E
:101E70003838F7E7B4483838006F007800F00100D0
:101E8000704710B50022847BE30704D0C3888B42DF
:101E900001DB19460222A30704D503898B4201DC2A
:101EA0001946012243888B4201DB194604228388AC
:101EB0008B4201DC194603220180104610BD30B56B
:101EC00000244589954201DB2A46042485899542F0
:101ED00001DC2A460324857B29B1028163F3410595
:101EE0008573204630BDC28063F300058573F8E733
:101EF000012802D09448801CC3E793483838FAE799
:101F000070B50546012D0AD08F4CA01CFFF7D7FFF6
:101F1000064661882846FFF7EBFF304670BD8A4CC5
:101F2000383CF2E7012804D0874829B12230114615
:101F3000A7E785483838F8E71230F8E72DE9F0418F
:101F40000E4611461A46069B0546012D0ED07E4CC4
:101F50007EB122342046FFF7B2FF07462288314681
:101F60002846FFF7DFFF3846BDE8F081764C383C65
:101F7000EEE71234EEE730B5054602EBD2704210C0
:101F8000012A02DA0122042005E0FA2A02DDFA22FF
:101F9000032000E000206C4B3D331C7865F3000407
:101FA00061F341041C70A3F8012030BD012807D063
:101FB000002805D064483838006F007800F0010030
:101FC0007047002808D0012806D05F483838006FD5
:101FD000406B807BC0F3800070475C485A490068C2
:101FE000363902880A804288CA8082880A818379C9
:101FF0008A7B63F300028A73C37963F341028A73B5
:10200000028A0A82428ACA82828A0A83837D8A7FFE
:1020100063F300028A77C37D63F341028A77028B00
:102020000A84428BCA84828B0A85837F91F82E2092
:1020300063F3000281F82E20C37F63F3410281F82D
:102040002E20891E90F82020002A4DD001F1220276
:102050003A3141F8062C02890A804289CA80828975
:102060000A81837B8A7B63F300028A73C37B63F3F9
:1020700041028A73428C0A82828CCA82C28C0A8391
:1020800090F828308A7F63F300028A7790F829302D
:1020900063F341028A77428D0A84828DCA84C28D9D
:1020A0000A8590F8303091F82E2063F3000281F811
:1020B0002E2090F8313063F3410281F82E203A3916
:1020C00090F832209AB1204A223241F86C2F10F851
:1020D000343F4A7A63F300024A72437863F3410261
:1020E0004A72408848817047174A263AB0E7164A34
:1020F0001232EAE710B514487821383808F0BEF8F3
:10210000114C1C3C14F81C0C40F0010020F00200A3
:1021100004F81C0C002024F8180C42F2107124F86A
:10212000161C24F8100C24F80E1C217921F004014F
:10213000217124F8080C44F6206124F8061C208044
:102140006180227D04E0000064080020B8010020C6
:1021500042F00402227520814A006281208262825C
:10216000227F22F0010222F0020222772084618481
:102170002085618594F83C2022F0040284F83C20FC
:10218000208661862087618794F84C2042F0040203
:1021900084F84C20A4F84000A4F84210A4F84800A9
:1021A000A4F84A1094F8590040F0010020F0020011
:1021B00084F859000520A4F85A00A4F10A00A0618F
:1021C00038302065123860651C3C00F042FB00F09E
:1021D000F8FA0028FBD0206F007800F00100FFF72C
:1021E00089FD206F406B807BC0F38000FFF78DFD81
:1021F000206F408800F0D8FA206F406B817B008808
:10220000C1F3800100F0D5FA206F0078BDE81040DE
:10221000C0F34000FFF784BD0A220A7004224A700E
:1022200002780A71407848710020C871887170473F
:102230001FB500220C21052003F013F8DFF8EC9302
:10224000C9F8000018B3002102F0DAFFF84EF94D8A
:1022500006F138074FF0020B4FF00008A6F110040A
:102260004FF0010ADFF8C49300235A1E01A9D9F8E0
:10227000000003F03BF99DF804000C28F2D2DFE8DF
:1022800000F0F5F4F3F24CBA78F6F0EFEE07FEE763
:1022900096F87400012801D100F0DBFA86F874800A
:1022A000FFF79BFE02E0012003F0EEFB00F089FA4D
:1022B0000028F8D0306F406B807BC0F3800000F0C6
:1022C0009CFA102814D04FF0110900F0C2FAD84936
:1022D00001A81039FFF7A0FF0B20E07184F80690E9
:1022E000D34900231A461039286803F049F8B9E7A2
:1022F000306F408800F058FA306F406B817B008867
:10230000C1F3800100F055FA306F0078C0F340004F
:10231000FFF706FD4FF01009D9E79DF80800FFF719
:1023200045FE8DF808000399FFF7E2FD8146306F06
:102330009DF80810027802F00102914202D1408813
:1023400000F032FABA4901A81039FFF765FF84F8A6
:1023500007A09DF80810207A61F30100207284F82C
:102360000690B34900231A461039286803F008F88C
:1023700078E79DF80800FFF719FE8DF808009DF832
:102380000900FFF71EFE8DF809009DF80830014690
:102390001846039AFFF7C6FD8146306F9DF8081076
:1023A000027802F0010291420AD1406B9DF80920A7
:1023B000817BC1F380018A4202D1008800F0F9F9E3
:1023C0009B4901A81039FFF727FF84F807B09DF853
:1023D0000810207A61F301009DF8091061F3830071
:1023E000207284F80690924900231A461039286812
:1023F00002F0C6FF36E79DF80800FFF7D7FD8DF81D
:1024000008009DF80A309DF80910039AFFF778FD3F
:102410008146306F9DF80810027802F00102914267
:1024200002D1408800F0C0F9814901A81039FFF7B6
:10243000F3FE0320E0719DF80810207A61F301009B
:102440009DF8091061F30510207284F80690784910
:1024500000231A461039286802F092FF02E776E15D
:102460002EE1BCE003E04DE05EE13FE18BE19DF851
:102470000800FFF79BFD8DF808009DF80900FFF7A5
:10248000A0FD8DF809009DF80B1000919DF808C083
:1024900001469DF80A206046039BFFF74FFD8146E9
:1024A000306F9DF80810027802F0010291420AD1C3
:1024B000406B9DF80920817BC1F380018A4202D1E3
:1024C000008800F076F95A4901A81039FFF7A4FEF8
:1024D0000420E0719DF80810207A61F301009DF856
:1024E000091061F383009DF80A1061F30510207252
:1024F00084F806904E4900231A461039286802F0E5
:102500003FFFAFE69DF80800FFF750FD8DF808008B
:10251000316F097801F0010188424DD096F87400BE
:10252000012807D100F095F986F8748002E00120B7
:1025300003F0AAFA00F045F90028F8D09DF8080049
:1025400000F044F9102804D04FF0110900F081F98F
:1025500034E09DF80800012802D03846306704E0D6
:102560003348FBE7012003F08FFA00F02AF9002836
:10257000F8D0306F406B807BC0F3800000F03DF9F5
:10258000102804D04FF0110900F063F916E0306F05
:10259000408800F009F9306F406B817B0088C1F3FF
:1025A000800100F006F9306F0078C0F34000FFF7BB
:1025B000B7FB4FF0100901E04FF003091C4901A8D7
:1025C0001039FFF729FE0720E07184F806901849BA
:1025D00000231A461039286802F0D2FE42E69DF820
:1025E0000800FFF7E3FC8DF808009DF80900FFF7ED
:1025F000E8FC8DF809009DF80810012912D0B946B1
:10260000D9F83420927BC2F38002904243D0326FDB
:10261000127802F00102914233D196F87400012839
:102620000DD12CE0DFF80890EAE70000240000203C
:102630002C08002040000020012003F025FA00F0C3
:10264000C0F80028F8D09DF8090000F0D6F810284E
:1026500003D000F0FEF811231EE09DF8090058B1E8
:1026600009F12200C9F83400817B0088C1F38001A0
:1026700000F09FF810230FE009F11200F2E7112398
:102680000AE028B109F12200C9F83400102303E060
:1026900009F11200F8E70323404901A8FFF7BCFD48
:1026A0000620E0719DF80810207A61F30100207285
:1026B000A37100231A463949286802F061FED1E56A
:1026C0009DF809109DF80800039AFFF754FC034693
:1026D000324901A8FFF7A0FD0520E071A371002396
:1026E0001A462E49286802F04BFEBBE596F87400A6
:1026F00080B102280ED01023284901A8FFF78CFDD5
:102700000820E071A37100231A462449286802F0CA
:1027100037FEA7E500F086F8102801D01123EBE77B
:1027200086F874A01023E7E700F093F886F8748029
:1027300010231A4901A8FFF76FFD0920E071A3716A
:1027400000231A461549286802F01AFE8AE586F821
:1027500074B000F08CF8102813D000F07AF8132031
:102760000A2121700422627084F8048084F80580B4
:10277000E171A07100231A460849286802F000FEA2
:1027800070E51220ECE7C9F804A0064800231A46B9
:102790000349006802F0F4FD64E500001C08002015
:1027A00028000020180000200521B0FBF1F001F006
:1027B00072BB012900D140080521B0FBF1F001F006
:1027C0006DBB9548007800F01000704710B5924C32
:1027D0002178C90701D0132010BD2178C90601D482
:1027E000112010BD72B6FFF785FA62B6082060703E
:1027F00060780028FCD1102010BD10B5864C2178DF
:10280000C90701D0132010BD2178C90601D41120B9
:1028100010BDFFF77AFA0820607060780028FCD1BC
:10282000102010BD7C480178C90701D010207047E6
:102830000178490701D5122070470178C90601D4F3
:10284000112070470121417041780029FCD11020EE
:102850007047714801788907002901DA1020704714
:102860000221417041780029FCD1102070476A484C
:102870000178C90701D011207047042141704178C7
:102880000029FCD1102070472DE9F041624D2878D5
:102890004FF4FA7710F00A0F01D0AF8003E0A88858
:1028A00008B1401EA880A88848B100245B4E54B1EE
:1028B000E88808B1401EE880012C08D015E0FFF739
:1028C000FDF90446F2E7B6F87600E880F4E7A88957
:1028D00058B996F87500800707D5524801230022A1
:1028E0004F49006802F0B1FDAF814FF04B08012C59
:1028F00016D1E888A0B996F87500C00710D02878DE
:1029000020F001002870287840F006002870A5F813
:1029100008804648012300224349006802F095FDE3
:102920006878400703D5287820F00400287068787C
:1029300080070DD5287880070AD4287820F0010078
:102940002870287840F002002870A5F8088010E070
:102950006878C0070DD02878C0070AD128784007CA
:1029600007D4287820F002002870287840F0010071
:1029700028706878000701D5322028816878C00661
:1029800000D56F81A878C00704D0287840F00800EF
:10299000287006E0A878800703D5287820F0080082
:1029A000287000206870A870287810F00A0F03D0F3
:1029B0000020FFF78FF905E02878C00702D001203A
:1029C000FFF788F900202978C90702D0698901B981
:1029D0000120012C03D096F87410022901D140F097
:1029E000020000F095FD288930B1401E288128782A
:1029F00020F01000287003E0287840F010002870C4
:102A0000688908B1401E6881A889002801D0401E4D
:102A1000A881BDE8F0810000300000202C080020D3
:102A200088CC0008580000206CCC0008240000204E
:102A30008EB0002210210A2002F013FC964C206078
:102A4000E8B3642003F020F802F0C3F904210291F6
:102A5000B0B300200390914D00231A4602A92868C4
:102A600002F08EFC0B268DF81C608D4F00235A1E41
:102A700007A9386802F084FCFA2003F005F8032067
:102A8000029000231A4602A9286802F079FCDFF8B8
:102A900014B2CDF804B0844800231A4601A9006896
:102AA00002F06EFC814CDFF80892DFF808A24FF0CC
:102AB0000108794800235A1E0AA9006801E00DE0C8
:102AC0000DE002F013FD9DF82800C01F0728F0D28A
:102AD000DFE800F00718586B3D522500FEE70120A3
:102AE000B8E7CDF80880BDF82C00ADF80C00BDF8B3
:102AF0002E00ADF80E0000231A4602A9286802F045
:102B00003FFCD6E702200290BDF82C00ADF80C0087
:102B100000231A4602A9286802F032FCC9E78DF8A2
:102B200010609DF82900012809D00228C1D1002396
:102B30001A4604A9DAF8000002F022FCB9E70023E3
:102B40001A4604A9D9F8000002F01AFCB1E79DF872
:102B50002C0002F0A6FA0028ABD19DF82C0002F060
:102B6000FFF90028A5D18DF81C60421E002307A99B
:102B7000386802F005FC9CE79DF82C000C9902F0E7
:102B80004CFA96E79DF82C008DF81C009DF8290062
:102B90008DF81D00DDE90C01CDE9080100231A467E
:102BA00007A9386802F0ECFB83E7052002909DF846
:102BB0002F008DF80C009DF8300000F003018DF817
:102BC0000D10C0F381018DF80F10C0F301108DF8C6
:102BD0000E0000231A4602A9286802F0D1FB9DF8D6
:102BE0002D0001283DD002283BD0002001909DF807
:102BF0002F000B2825D2DFE800F024060606060683
:102C00000E0E242419009DF82E0008B101941FE037
:102C1000CDF804B01CE09DF82E00032802D0112846
:102C200002D015E0019413E0019411E09DF82E000C
:102C3000132802D0204801900AE01C48801C019013
:102C400006E09DF82E00112801D0132800D1019430
:102C5000019830B1144800231A4601A9006802F017
:102C60008FFB9DF82D00012801D0022889D18DF815
:102C70001080012807D000231A4604A9DAF80000C2
:102C800002F07EFB15E700231A4604A9D9F80000DC
:102C900002F076FB0DE70000400000204C00002011
:102CA0002400002032000100580000203200020001
:102CB000A8010020AC010020340003001148016885
:102CC000C9070AD1016841F0807101600E480021F6
:102CD0004160016841F00101016070470A484068A5
:102CE0007047081A704708494968081A704706492A
:102CF000496801EB4010704703494968081AC00F42
:102D000070470000FCED00E0001000E01A49087870
:102D10008006000E0870194A1368DB05002B02DAE2
:102D200040F0010008701068800503D5087840F075
:102D300002000870087800F00F000F280CD2DFE8BE
:102D400000F00B0C080B080B0B0C0C0B0B080B0802
:102D50000C004888401E488070474888401C4880C6
:102D6000704705498A88488820F003008880801AC7
:102D700000B28010C88070474400002000000B4063
:102D800086B0002208210A2002F06BFAAA4C2060CB
:102D9000C0B103F0FAF9A94805F0D0F84FF0FF35BB
:102DA00000232A4604A9206802F0A0FB04980C28FE
:102DB000F6D2DFE800F0162931081C36BE060606FA
:102DC00006CBEDE7FEE7FFF755F803F03EFEF020F7
:102DD0008DF8080002A9994804F0F4FF05F038F8CE
:102DE000DEE705F0EEF8964800F02BFBD8E7F1207F
:102DF0008DF8080005988DF8090002A98F4804F0A5
:102E0000E1FF05F025F8CBE7BDF81400C1B2BDF82D
:102E1000160005F088F9C3E7BDF9140005F093F931
:102E2000BEE79DF814000828BAD2DFE800F00405D8
:102E30000F1D3C74656FB3E79DF81500FEF784FF26
:102E400001469DF8150003F0D4FDA9E79DF8171081
:102E50009DF81500FEF7AAFF02469DF817109DF891
:102E6000150003F0CDFD9BE79DF816109DF81500A9
:102E7000FEF782FF06469DF816109DF81500FEF736
:102E800086FF02469DF816109DF81500334604F0A3
:102E9000C0FD9DF81500FEF757FF01469DF815008F
:102EA00003F0A7FD7CE79DF816209DF817109DF80C
:102EB0001500FEF79FFF06469DF816209DF8171097
:102EC0009DF81500FEF7A5FF034600969DF8162015
:102ED0009DF817109DF8150004F0ADFD9DF8171032
:102EE0009DF81500FEF762FF02469DF817109DF849
:102EF000150003F085FD53E79DF81500FEF7AFFFC1
:102F000001469DF8150003F088FD49E7FEF7B2FF82
:102F100003F09BFD44E7FEF78FFF0646FEF793FFA5
:102F20000746FEF797FF02463946304604F098FD03
:102F300036E74448008803F0F5FC4348008803F076
:102F40000CFD4248006803F024FD29E74048B0F931
:102F5000000003F03AFD23E73E4A092313700323E0
:102F60005370042313711072D1603B4800235A1E22
:102F70003849006802F004BA30B4364C092525708F
:102F8000032565700525257120726172A272E360C8
:102F9000314821460023006830BC5A1E02F0F0B9C7
:102FA00030B42C4B09241C7003245C7006241C7163
:102FB00018725972DA60284800235A1E006830BC23
:102FC000244902F0DDB9F0B4049D224C0926267094
:102FD000032666700726267120726172A272E37260
:102FE000E5601D48214600230068F0BC5A1E02F02F
:102FF000C7B9184A092313700323537008231371A8
:1030000010725172144800235A1E1249006802F0CF
:10301000B7B930B40F4B09241C7003255D701C71C7
:1030200018725972DA600C4800235A1E006830BCCE
:10303000084902F0A5B900004C000020E052002031
:10304000845B0020080000200A00002010000020FF
:1030500050000020A4080020400000202DE9F04787
:1030600007460D461446002607F4E060C00940F00C
:10307000A0084FF080494846FDF79EFD0128FAD18F
:1030800000214046FDF76BFD4FF0007A5046FDF7FA
:1030900093FD0128FAD14FF000494846FDF78CFD19
:1030A000012805D00126FDF767FD3046BDE8F08711
:1030B000F8B2FDF75CFD57463846FDF77DFD012867
:1030C000FAD14846FDF778FD012801D00226EAE74B
:1030D00001214046FDF743FD3846FDF76DFD01280F
:1030E000FAD14846FDF768FD012812D00326DAE739
:1030F0001CB10020FDF744FD02E00820FDF740FD73
:103100003846FDF759FD0128FAD1FDF73EFD05F8D7
:10311000010B2000A4F10104E4B2E9D1C3E710B52A
:103120004FF080442046FDF747FD0128FAD10021E9
:10313000A020FDF714FD4FF000742046FDF73CFD84
:103140000128FAD1FDF718FD4FF00040FDF734FDDE
:10315000012801D0002010BD012010BD2DE9F04153
:1031600006460F461546FFF7DAFF0028FBD012E0AF
:1031700006F00F00C0F11004AC4200D9ECB22246B8
:1031800039463046FFF76AFF002807D1301986B26A
:10319000281B85B22744002DEAD10020BDE8F0812C
:1031A0002DE9F04780460D461446002608F4E060FD
:1031B000C00940F0A0074FF080494846FDF7FCFCED
:1031C0000128FAD100213846FDF7C9FC4FF00077FD
:1031D0003846FDF7F1FC0128FAD14FF00049484686
:1031E000FDF7EAFC012804D00126FDF7C5FC3046B6
:1031F0005CE708F0FF00FDF7BAFC3846FDF7DCFCA1
:103200000128FAD14846FDF7D7FC012801D0022653
:10321000EBE74FF400480DE02878FDF7A8FC6D1CA3
:103220003846FDF7C9FC0128FAD14046FDF7C4FC39
:10323000012805D02000A4F10104E4B2ECD1D4E7C8
:103240000326D2E72DE9F04106460F461546FFF763
:1032500066FF0028FBD016E006F00F00C0F1100456
:10326000AC4200D9ECB2224639463046FFF798FF0F
:10327000002893D1301986B2281B85B22744FFF766
:103280004EFF0028FBD0002DE6D1002086E700008D
:1032900070B50446012901D144F480749A4D02218D
:1032A0002846FDF7AAF80128F9D121462846BDE8AD
:1032B0007040FDF79DB810B5FFF719FD0446204694
:1032C000FFF71AFD0028FAD110BD10B58F4A01286A
:1032D00007D004211046FDF7A1F9BDE810401420E5
:1032E000E9E704211046FDF78EF9F6E770B50021F5
:1032F000E220FFF7CDFF00213D20FFF7C9FF0021AD
:103300000120FFF7C5FF0021E120FFF7C1FF0021E9
:103310000846FFF7BDFF00212420FFF7B9FF002179
:103320009020FFF7B5FF0021A020FFF7B1FF00219B
:10333000C820FFF7ADFF0021A620FFF7A9FF00215D
:10334000A420FFF7A5FF00212F20FFF7A1FF0021F8
:103350004020FFF79DFF0021F820FFF799FF002193
:10336000D020FFF795FF00213020FFF791FF0021CB
:10337000B020FFF78DFF00211020FFF789FF00210B
:103380000846FFF785FF002440F25F350121002049
:10339000FFF77EFF641CA4B2AC42F7D3BDE87040D7
:1033A0000021AF2074E770B5584C01212046FDF78D
:1033B00035F942F210752846FFF77DFF01212046BE
:1033C000FDF721F92846FFF776FF0120FFF77DFF83
:1033D000FFF78CFF4C4C10212046FDF70EF800281B
:1033E000F9D10220FFF771FFFFF780FF102120467F
:1033F000FDF703F80028F9D170BD70B50D46FFF751
:1034000064FF0021B020FFF743FF00211020FFF7E9
:103410003FFF00210846FFF73BFF00244FF458769A
:1034200015F814000121FFF733FF641CA4B2B44265
:10343000F6D3354C10212046FCF7DFFF0028F9D1E8
:1034400070BD2DE9F047064609270120FFF73DFF33
:103450000021B020FFF71CFF00211020FFF718FF0C
:1034600000210846FFF714FF60244FF0000811E028
:103470000025641EA4B20121305DFFF709FF6D1C19
:10348000ADB2602DF5D304F59074A4B208F1010833
:1034900008F0FF08B845EBD3DFF86C9010214846E0
:1034A000FCF7ABFF0028F9D10220FFF70EFF002147
:1034B000B020FFF7EDFE00211020FFF7E9FE00210C
:1034C0000846FFF7E5FEC0244FF0000811E0002594
:1034D000641EA4B20121305DFFF7DAFE6D1CADB2AF
:1034E000602DF5D304F59074A4B208F1010808F03A
:1034F000FF08B845EBD310214846FCF77EFF0028B3
:10350000F9D1BDE8F087000000000A4000800C40BF
:1035100070B504460C4DE00704D080212846FDF725
:103520007DF803E080212846FDF76DF8A00705D55A
:103530002846BDE870404021FDF770B82846BDE838
:1035400070404021FDF75FB800000B4008B502F065
:1035500022FC00900220FDF7E8FB1C4CFA21684693
:1035600002F069FA00260025FDF73FFC022002F078
:103570008BFAFDF743FC304486B26D1C0A2DF3D361
:10358000304608F03AFF124A124B08F085FF124A03
:10359000124B08F081FF0022114B08F007FE08F0E3
:1035A000FDFE00B22080192801DA322000E0400040
:1035B00080B200F076FC0B2060600A4803490023CB
:1035C0001A46091D006801F0DBFEC7E75000002025
:1035D0009A9999999999B93F21B0726891EDCCBFA8
:1035E00000C06C404C000020052800D30020474953
:1035F00051F8200070474649421E8A6040084861E1
:103600007047434A516B40F60C439943002803D05E
:1036100040F60800014302E040F2044001435163D8
:1036200070470EB500200190804683460022042199
:103630000A2001F016FE3549091F086080BBFEE72D
:1036400088B2090C404554D98046019151E0D845D3
:1036500000D901244FF0000A062C40D2DFE804F024
:103660003F030C1A23370198FFF7BEFF814602245F
:10367000C3464FF0000839E0D9F80400009099F8EB
:1036800000700098384303D009F1080903242DE0A5
:1036900000242BE02FB17F1EBFB2009E042425E042
:1036A00027E0022422E03088758855EA000107D01F
:1036B000361D38B1FFF79FFF0120FFF7A2FF04E09E
:1036C000032413E00020FFF79CFF05240EE025B142
:1036D0006D1EADB24FF0010A08E0042406E04FF081
:1036E000000B0020FFF78DFF4FF0010ABAF1000F29
:1036F000B2D006480023001F5A1E02A9006801F03C
:10370000F5FE029911F5803FA1D099E75C000020F9
:1037100000000740FE48FD4981600121416070477B
:103720002DE9F04107460D46F94E0124BC40F462F4
:103730002868002804D0F54901EB0711FDF7E8FCE3
:10374000686820B1F16801EB0711FDF7E1FC687BC7
:1037500001280AD0F4617462A87B40B13463287BED
:10376000012806D0F463BDE8F081B461F3E7746327
:10377000F5E7B463F7E710B50120FDF750FEFDF75C
:1037800061FE012800D0FEE707210220FDF7C9FEF7
:103790000120FDF7E0FEFDF7E1FE012800D0FEE785
:1037A0000020FDF7F3FE0120FDF7D2FE4FF48070FC
:1037B000FDF7D5FD2020FDF72CFF0020FDF730FFA1
:1037C0000120FDF735FFFCF76FFD0121D148FDF722
:1037D000BBFDBDE810400121CF48FDF7B5BD2DE987
:1037E000F041CE4908684FF6FF021040CC4A40F441
:1037F0004070104308606FF00407384600F02DFC5D
:10380000C84C2060BD10284600F027FC60606E1098
:10381000304600F022FCA060052000F01EFCE060B5
:103820000F2000F01AFC20610621052000F009FCA1
:1038300006210F2000F005FC384600F00EFC206049
:10384000284600F00AFC6060304600F006FCA060EC
:10385000052000F002FCE0600F2000F0FEFB20617C
:1038600081E710B56FF0040000F0F7FBAD4C20606D
:103870006FF0010000F0F1FB60604FF0FF3000F0EE
:10388000ECFBA060052000F0E8FBE0600F2000F0FA
:10389000E4FB206110BD2DE9FE4FDFF88CB25846E5
:1038A000FCF7D0FDA148FCF7CDFDA148FCF7CAFD0F
:1038B000A048FCF7C7FDA048FCF7C4FD9F48FCF7F3
:1038C000C1FDC0219948FCF79EFE6846FCF784FEC6
:1038D0002120ADF8000001248DF80A4069465846C1
:1038E000FCF7BAFD4FF00409ADF800908DF80340E5
:1038F00069465846FCF7B0FD0225ADF800508DF83A
:1039000002408DF8094069465846FCF7A5FD18208D
:10391000ADF800008DF8085069465846FCF79CFD4C
:103920006846FCF759FE4FF0800AADF800A08DF80C
:103930000A408DF8095003268DF808608DF8024082
:1039400069465846FCF788FD4027ADF800704FF0F7
:1039500000088DF8028069465846FCF77DFD6846F0
:10396000FCF73AFE40F23770ADF800008DF80A40DF
:1039700069466E48FCF770FDA002ADF8000069468C
:103980006A48FCF769FDC020ADF800008DF80240E0
:103990008DF8094069466548FCF75EFD6846FCF70E
:1039A0001BFEADF800908DF80A408DF808508DF898
:1039B000094069465E48FCF74FFDADF800608DF8A0
:1039C000095069465A48FCF747FD6846FCF704FE73
:1039D0009720ADF8000069465648FCF73DFD2820C9
:1039E000ADF800008DF80A408DF808508DF80950A8
:1039F0008DF8024069464F48FCF72EFDADF8007087
:103A00008DF8044069464B48FCF726FD6846FCF7F4
:103A1000E3FD4520ADF800008DF80A408DF809500F
:103A20008DF8024069464448FCF716FDADF800A049
:103A30008DF8086069464048FCF70EFD0A20ADF895
:103A400000008DF8085069463B48FCF705FD6846C4
:103A5000FCF7C2FD0C20ADF800008DF80A408DF88F
:103A600009408DF8024069463448FCF7F5FC684689
:103A7000FCF7B2FDADF800508DF80A408DF8095002
:103A80008DF808608DF8024069462C48FCF7E4FC8C
:103A9000ADF800408DF8028069462848FCF7DCFC50
:103AA000BDE8FE8F2DE9FF476846FDF792FADFF883
:103AB00090904846FDF736FA4FF4E13600966027BD
:103AC000ADF804700024ADF80640ADF808404FF0A2
:103AD0001008ADF80A80FD00ADF80C5000214846F2
:103AE000FDF7F8FA69464846FDF72DFA01214846E8
:103AF000FDF77BFADFF84CA05046FDF713FA00966D
:103B0000ADF80470ADF806401EE00000000400208F
:103B1000008002400000E023E0C413000CED00E050
:103B20000000FA05B408002000800A4000000B40A5
:103B300000800B4000000C4000800C4000800E40D4
:103B40000080034000000340ADF80840ADF80A8053
:103B5000ADF80C5000215046FDF7BCFA69465046BE
:103B6000FDF7F1F901215046FDF73FFA0222114617
:103B70005046FDF763FA022211464846FDF75EFA09
:103B8000BDE8FF8770B5FDF7F9FAFF484FF0FF3445
:103B900004628461861501213046FDF7D5FBFB4D9B
:103BA00000212846FCF730FC00216962F848416298
:103BB0003046FDF7C9FBF74AC2F8FC41C2F8FC40A9
:103BC000FFF7A8FD2020D06770BD1FB56846FCF741
:103BD000CFFBEF4C00212046FCF716FC0420ADF88B
:103BE00000000222ADF802200021ADF804100820E8
:103BF000ADF80600ADF80810ADF80A10ADF80C10DD
:103C0000ADF80E2069462046FCF79FFB01212046B7
:103C1000FCF7B9FB1FBD1CB50120FCF77CFF4FF47E
:103C200080700090002001906846FCF75EFF1CBD8C
:103C300030B593B0FCF7CCFF0CA8FCF7EEFF0024E6
:103C40000C940A200D904FF400300E9040000F901D
:103C50004000109040001190012512950CA8FCF72F
:103C6000C6FF01A8FDF735F80420019002940394E3
:103C70001F20049005940694ADF81C40ADF81E403A
:103C8000E802089009954FF4E0400A900B9401A8CF
:103C9000FCF7D4FF01A8FCF7F9FF00210620FDF78F
:103CA00003F900210620FDF70AF90120FDF71FF8AE
:103CB0000120FDF727F813B030BD2DE9F04391B096
:103CC0000BA8FCF70EFD1F20ADF82E0040F2F310FC
:103CD000ADF83000B04E0BA93046FCF7E7FC05A864
:103CE000FCF792FD0024ADF816404FF44068ADF8A3
:103CF0001E800125ADF814504FF00809ADF826904C
:103D000005A93046FCF760FD6846FCF72FFEADF8CC
:103D10000240ADF80450ADF80650ADF80840ADF8DB
:103D20000A50ADF80C50ADF8005069463046FCF72B
:103D300000FEF920706100213046FCF7A4FE01214D
:103D40003046FCF7DCFC0BA8FCF7CBFCADF82E50A2
:103D500040F6FF70ADF83000904F0BA93846FCF7E5
:103D6000A5FC05A8FCF750FDADF81640ADF81E8087
:103D7000ADF82690ADF8144005A93846FCF724FDAF
:103D80000226ADF8146005A93846FCF71DFD05A80C
:103D9000FCF73AFDADF816406802ADF81E00ADF82C
:103DA0001450ADF8264005A93846FCF70DFD6846CD
:103DB000FCF7DCFDADF80850ADF80A60ADF80C502A
:103DC000ADF8004069463846FCF7B3FDADF8006039
:103DD00069463846FCF7ADFD3C61BC617C6101225F
:103DE00091023846FCF73DFE00213846FCF74BFEB9
:103DF00001213846FCF783FC0BA8FCF772FC0F206E
:103E0000ADF82E006320ADF83000654F0BA93846A1
:103E1000FCF74CFC05A8FCF7F7FCADF81440ADF836
:103E20001640ADF81E80ADF8269005A93846FCF77F
:103E3000CBFC6846FCF79AFDADF80040ADF8046095
:103E4000ADF80240ADF8065069463846FCF771FD02
:103E5000ADF8146005A93846FCF7B6FCADF8006073
:103E6000ADF80440ADF80640ADF80A60ADF8085072
:103E7000ADF80C5069463846FCF75BFD3C61BC610F
:103E800000213846FCF7FFFD01213846FCF737FCDE
:103E900011B0BDE8F0834149086170473F4988612E
:103EA00070473F4988617047642800D964203C49C5
:103EB0000861704770B5FDF707FF002860D172B642
:103EC0000020FDF707FF41F28830FEF710FF04469F
:103ED0000020FFF7E6FF0020FFF7DDFF0020FFF7DF
:103EE000DDFF002005F0A1F9002005F07FF92D4845
:103EF00005F0C8FA0022012311462BA005F058FB5B
:103F00002C48FFF79EFA2046FEF7F6FE0028FAD16D
:103F1000FDF7F0FE0020FDF7F8FE0020FDF700FFA2
:103F200000F0E0FF044600F0FAFF054601230022FE
:103F3000602121A005F03CFB01232222602121A069
:103F400005F036FBECB101230C2279211FA005F00E
:103F50002FFBBDB101232E2279211CA005F028FBE7
:103F60001448FFF76EFA1C48FEF7C1FE04462046CF
:103F7000FEF7C2FE0028FAD11848FCF763FA2FE0DA
:103F80004CE03DE043E000000080024000000440BF
:103F900000000A4084E000E0000007400080074085
:103FA0000000084000F10008506F776572204F460E
:103FB00046000000845B002053657474696E67736B
:103FC0000000000050726F66696C65004E4F54200F
:103FD000736176656400000040420F0000800A4073
:103FE0002448FCF72FFA2448FCF72CFA2348FCF766
:103FF00029FA2348FCF726FA2248FCF723FAFEE7C1
:1040000001230C22792120A005F0D2FAA1E7012397
:104010002E2279211CA005F0CBFAA1E770BD1D4925
:1040200002680A6042684A6082688A60C268CA6040
:1040300002690A6142694A6182698A61C069C8612C
:10404000FEE74907090E002804DA134A00F00F00C2
:1040500081547047114A81547047002805DA0E498F
:1040600000F00F00405C400970470C49405C40097B
:104070007047000000000B4000800B4000000C4027
:1040800000800C4000800E407361766564204F4BC9
:1040900000000000F008002014ED00E000E400E063
:1040A0007CB5FEF71BFE054600200190364C2178BA
:1040B00039B36168491E616009D10090334800231B
:1040C00001AA6946006801F0C0F919206060A16882
:1040D000491EA16008D12F48002301AA2C4900687D
:1040E00001F0B3F93220A060E168491EE16008D117
:1040F0002A48002301AA2849006801F0A6F90520F2
:10410000E060019818B126494FF0805008602846B9
:10411000FEF7E9FD1C4910310A68824200D20860AE
:104120007CBD10B5FEF7DAFD0446FFF7C3FE164965
:104130004888401E0004000C488003D105204880B8
:10414000FDF7A7FCFEF7A0FBFEF7E0FD154A50695E
:1041500000F5486080B29168814201D29168401AAE
:1041600050614FF480611046FCF76FFCFEF7B6FD1E
:1041700001462046FEF7B5FD034910314A688242E8
:1041800000D2486010BD0000700000204C000020EC
:1041900078CC00082400002084CC000858000020BF
:1041A00004ED00E00080074086B001F0F4FD0190CE
:1041B000434E444DDFF810A14FF0090B01274FF09B
:1041C00003084FF6FF790A2101A801F034FCFDF73E
:1041D00025FDFEF7C6FD8DF808B0B07880060AD53B
:1041E0008DF80C808DF8107000231A4602A92868FB
:1041F00001F0C6F80DE0307980060AD58DF80C8004
:1042000000208DF8100000231A4602A9286801F04A
:10421000B7F87088010602D4B188C90509D5022013
:104220008DF80C0000231A4602A9286801F0A8F8AE
:104230000AE010F4A07F07D08DF80C7000231A4616
:1042400002A9286801F09CF807208DF808000124D5
:10425000ADF80E407088204207D0ADF80C700023F6
:104260001A4602A9286801F08BF8F088204207D08E
:10427000ADF80C8000231A4602A9286801F080F8E6
:104280003089204208D00520ADF80C0000231A46E2
:1042900002A9286801F074F809EA4404002CD7D177
:1042A000BAF9000000288ED008218DF80810ADF86A
:1042B0000C0000231A4602A9286801F061F882E781
:1042C00000080020400000204A0000202DE9F041B5
:1042D0000546884616461F462C460C35216821B1F6
:1042E000404606F01DF80028F6D120793070A0680D
:1042F0003860BDE8F08170B504460E4625460834A6
:10430000296821B1304606F00BF80028F6D128467E
:1043100070BD2DE9FC4780460C461546002C0FD099
:104320004FF001094E466B4601AA3748D8F80010F5
:10433000FFF7CCFF641EE7B2009800285ED15FE073
:104340000020BDE8FC8758F826100098FFF7D3FF3F
:1043500004466079010605D5761CF6B27F1E17F07B
:10436000FF074DD000F07F00062843D2DFE800F0C1
:1043700042030D172635217958F8260005EBC101B7
:104380004860207905F8309034E02179E08805EB29
:10439000C10188802179022005F831002AE000223D
:1043A00058F82600114605F0C4FE217905EBC1013D
:1043B00048602179032005F831001BE0002258F8FD
:1043C0002600114605F07DFE217905EBC10148600C
:1043D0002179042005F831000CE058F8260000216E
:1043E00007F075FE217905EBC101486021790520B0
:1043F00005F83100761CF6B27F1EFFB2002FA2D165
:104400009DF804009DE700005001002041604280BB
:10441000002303804FF6FF7002E0521E21F81200C5
:10442000002AFAD170470388426832F813200A80C4
:104430004FF6FF718A420ED00388426822F81310AB
:1044400042880188521E914201DA491C00E0002195
:104450000180012070470020704730B58FB01446AE
:10446000C94A904201D1012500E003250190486826
:1044700002904FF0406003904FF0804004904FF066
:1044800088500590012206924888079000200890E5
:1044900091040991C9000A9101A90B910C900D900A
:1044A0008DF838208DF839008DF83A00E8B20BA964
:1044B000FFF736F9B54800EB051001682160416847
:1044C00061608068A0600FB030BD10B5012815D0C4
:1044D000C822AF49AF48FFF799FFB04CAE4AAD498B
:1044E0002046FFF7BAFF01210320FCF7DEFE20463D
:1044F0000122BDE810401146FCF7A4BDA548C82222
:10450000A7490838FFF782FFA34AA2499E4C0C3AFC
:1045100008392046FFF7A1FF01210846FCF7C5FE38
:1045200020460122BDE810401146FCF78BBDF8B5CE
:104530000D461446012805D0964E35B12CB1208881
:1045400018B117E0934E083EF7E70020F8BDBDF81C
:10455000002012F4E06F0DD1D3B22A68501C2860FD
:1045600013702088401E82B2228052B10A2B08D0DC
:104570000D2B06D069463046FFF755FF0028E6D1DF
:10458000F8BD0120F8BDF0B587B00023012906D0A1
:10459000844C8DF80C3004D14FF0010103E0824CC3
:1045A000F7E74FF002018DF80D108DF800304FF055
:1045B00001054FF002074FF00306062879D2DFE825
:1045C00000F078034E6170741078042198B39088DD
:1045D000092340B101280BD002280ED003281FD098
:1045E0008DF8006067E08DF80C308DF8107062E097
:1045F0008DF80C308DF810505DE0107E68B18DF8AC
:104600000C308DF81010107A08B1908900E002206B
:104610008DF81400D06906904DE08DF800104AE046
:10462000107EB0B18DF80C3006208DF81000107A95
:1046300010B1908901E00FE002208DF81400107C89
:1046400008B1908A00E002208DF81500D06906902C
:1046500031E08DF800102EE08DF800102BE010787E
:1046600068B1107A58B107208DF80C009089ADF828
:1046700012009088ADF810008DF800501BE08DF806
:10468000006018E0107840B108208DF80C00908888
:10469000ADF810008DF800500DE08DF800600AE0D4
:1046A00007E00A208DF8000005E00D208DF80C00D1
:1046B00001E08DF800709DF80C0030B13B480023FC
:1046C0001A4603A9006800F05BFE9DF80000002870
:1046D00005D000231A466946206800F051FE07B055
:1046E000F0BDA2B000F0FF08B8F1010F1ED02A4DB6
:1046F0005C3521955027209701F04DFB01904046F5
:10470000FFF7E3FE052101A801F095F920AA21A9F0
:104710004046FFF70CFF0028F4D0BDF88000C0F140
:10472000500080B200240126002216E01A4D0C35FC
:10473000DFE7AB5C202B23D0092B21D00A2B1FD025
:104740000D2B1DD03EB1AB1821460CAE641CA4B29B
:1047500046F821300026521CD2B28242E9D364B11D
:10476000282102A805F08AFDE1B202AA0CA8FFF7F1
:10477000D0FD02AA4146FFF706FF20972195C1E729
:104780000021A9540126E6E70000034000040020B0
:10479000B80A0020A0010020540C00200080034033
:1047A00028090020AC010020A801002040000020C2
:1047B00010B50021BA4C0A46491CC9B204EBC20329
:1047C0001A780AB18242F6D1586810BD1FB5B54AB1
:1047D000904201D1002300E0022300220A604860D9
:1047E0008A604FF04040C8600A61012048618A61D8
:1047F000CA6184040C6244054C62009201920292E8
:104800008DF80C008DF80D208DF80E20D8B2694679
:10481000FEF786FF1FBD2DE9F05F834688461646EA
:104820001C46A048834502D14FF0000701E04FF03D
:10483000020702D1DFF8709203E0DFF86C9209F111
:10484000640902D1DFF864A232E0DFF860A20AF165
:10485000040A2DE0B6F1005F0ED2642C01D9642564
:1048600000E025462A463146484605F02EFD601BED
:1048700084B22E44484602E0304625460024C8F85B
:104880000000C8F81850F8B242460021FCF784FC3A
:10489000F8B20121FCF709FD012202215846FCF77C
:1048A000D1FB00235A1E1946DAF8000000F01EFE64
:1048B000002CCFD1BDE8F09F8EB0C0B2012805D04A
:1048C0007A4FA7F1040705D1784C06E0774FA7F19E
:1048D0000807F8E7754C04F1040402D1DFF8C4813D
:1048E00001E0DFF8CC8101D16F4E02E06E4E06F19F
:1048F000640604A94046FFF769FF00220C210A2044
:1049000000F0AFFC386020B303220021012000F04A
:10491000A8FC206020B100231A46194600F030FDA3
:104920002068B8B100231A46194600F0DFFD4FF0A9
:10493000FF3900234A4601A9386800F0D7FD9DF8E9
:104940000400811F062946D2DFE801F005050B0BA4
:104950000F32FEE7FEE7029D284605F023FC84B2F5
:1049600040E0029DBDF80C403CE035460024DFF8F5
:1049700044A151A12846DAF8002005F079FA28462A
:1049800005F010FC83B22A4604A94046FFF743FF16
:1049900050A12846DAF8042005F06AFA284605F006
:1049A00001FC83B22A4604A94046FFF734FF19E010
:1049B000354600244E484FA100680268284605F09D
:1049C00057FA284605F0EEFB83B22A4604A9404672
:1049D000FFF721FF06E0FFF7EBFE0546284605F04E
:1049E000E1FB84B235B12CB123462A4604A94046E6
:1049F000FFF711FF9DF80400072801D0092898D17E
:104A0000029801F0E4FA94E738B500200090404C99
:104A1000A06A264DC007A5F108050DD12148816C7B
:104A2000890709D5816C21F00201816400236A465F
:104A30001946A86800F009FDA06A40070DD41C487B
:104A4000816C890709D5816C21F002018164002302
:104A50006A461946E86800F0F8FCA06A800709D4A5
:104A60002C482D490A6802614A684261896881615F
:104A70000220A062A06A000709D4264827490A68D4
:104A800002634A684263896881630820A062022148
:104A90000020FCF72BFC012801D1FCF714FC38BDE9
:104AA0002CCD000800000340000D0020B0010020C4
:104AB00000800340800000205379737469636B2089
:104AC000686F6F6B206D6178207469636B733A2037
:104AD00025640D0054696D65723220495352206D72
:104AE0006178207469636B733A2025640D000000BF
:104AF000BC010020506F776572206F6E2F6F666665
:104B0000206379636C65733A2025640D0000000012
:104B10000080024000040020480C0020540C0020BB
:104B2000484000214AF20102C30702D082EA500045
:104B300000E04008491CC9B20829F5D3704770B598
:104B400005460C46104603E015F8011BFFF7E8FF89
:104B50002100A4F10104A4B2F6D170BD10B5FE4C41
:104B60004FF0FF320821606805F080FB606800218B
:104B700001714171016010BDF74840680168491C2E
:104B80000160704710B5F44841F288310068018037
:104B90000021418042F2107282808171C1714FF414
:104BA000FA6303824182520082828175C1755C0082
:104BB00004834183540084838177C17780F8201077
:104BC00042F6E0640481418182818173C1735C108B
:104BD00044848184C28480F8281080F82910438599
:104BE0008185C28580F8301080F8311080F832104D
:104BF000012280F8342080F835100521C18610BDCF
:104C000010B5D54C4FF0FF323821206805F02EFB4F
:104C10000120FDF799F82168088000210120FDF7A7
:104C2000ABF82168488001210846FDF7A5F8216806
:104C3000888000210120FDF7AAF8216888710121F0
:104C40000846FDF7A4F82168C87100210120FDF78E
:104C5000ADF821680882002211460120FDF7CAF84C
:104C600021684882012200211046FDF7C3F821681F
:104C70008882002211460120FDF7CBF82168887553
:104C8000012200211046FDF7C4F82168C8750121F2
:104C90000846FDF78BF821680883012100220846A9
:104CA000FDF7A8F821684883012211461046FDF758
:104CB000A1F821688883012100220846FDF7A9F8A0
:104CC00021688877012211461046FDF7A2F8216875
:104CD000C8770120FDF7C3F8216881F82000002083
:104CE000FDF732F82168088100210846FDF744F8F5
:104CF0002168488101210020FDF73EF82168888164
:104D000000210846FDF743F821688873012100203F
:104D1000FDF73DF82168C87300210846FDF746F805
:104D200021684884002211461046FDF763F8216887
:104D30008884002101220846FDF75CF82168C884B8
:104D4000002211461046FDF764F8216881F828001A
:104D5000002101220846FDF75CF8216881F829004E
:104D600001210020FDF722F8216848850022012159
:104D70001046FDF73FF82168888501221146002082
:104D8000FDF738F82168C885002201211046FDF79B
:104D900040F8216881F83000012211460020FDF71B
:104DA00038F8216881F831000020FDF758F82168B3
:104DB00081F83200FDF740F8216881F83400FDF7F2
:104DC00042F8216881F83500FDF744F82168C8866B
:104DD00010BD2DE9F84F002500205F490822083159
:104DE000FEF7BCF904460E2002226946FEF7B6F92A
:104DF00020434FF6FF7BE8B301250024574F4FF0C7
:104E000090084FF4817940F20D1A08EBC410534911
:104E100038224339FEF7A2F9064609EBC4104F4980
:104E20000B220B39FEF79AF906430AEBC410022253
:104E30006946FEF793F9304378B304203855641C73
:104E4000E4B20A2CE1D31020444938224339FEF75A
:104E500085F904468D2002226946FEF77FF920433A
:104E600078B345F00405A80701D0FFF777FE15F0E9
:104E70000C0F00E005E001D0FFF784FE2846BDE8F6
:104E8000F88F35485A4608210830FFF758FEBDF81C
:104E900000108842B1D00225AFE7FFE72F485A46FD
:104EA00038214338FFF74BFE02462C480B210B38C4
:104EB000FFF745FEBDF80010884203D100203855A9
:104EC000BDE702E008203855B9E724485A463821A2
:104ED0004338FFF734FEBDF800108842C3D045F0D8
:104EE0000805C0E738B50024FFF746FE1A484FF61C
:104EF000FF7208210830FFF722FE009016490822B1
:104F000008310020FEF79EF90546022269460E2070
:104F1000FEF798F9284300B10124204638BD38B582
:104F20000024FFF76DFE0D484FF6FF72382143381D
:104F3000FFF705FE00900949382243391020FEF79B
:104F400081F90546022269468D20FEF77BF9284348
:104F500000B10424204638BDB80100200B0E00200B
:104F6000F8B504460A2C37D2902000EBC410382242
:104F70005049FEF7F3F806464FF4817000EBC41079
:104F80004C490B223831FEF7E9F840EA060540F2B9
:104F90000D1000EBC41002226946FEF7DFF828432B
:104FA000444D433510B104202855F8BD4FF6FF722B
:104FB00038214048FFF7C3FD02463E480B213830F8
:104FC000FFF7BDFDBDF80010884202D10020285532
:104FD000F8BD08202855F8BD1020F8BD70B504466E
:104FE0000A2C18D2334D4335285D18B1082810D04B
:104FF000042070BD4FF4817000EBC4102D490B22CA
:105000003831FEF7ABF810B10420285570BD0020F0
:1050100070BD082070BD102070BDF8B504460D4667
:105020000A2C3CD2FFF7ECFD22480B2229463830EF
:1050300005F04BF94FF6FF7238211E48FFF77FFD50
:10504000009002461B480B213830FFF778FD009096
:10505000902000EBC41038221649FEF7F3F80646FC
:105060004FF4817000EBC41012490B223831FEF767
:10507000E9F840EA060540F20D1000EBC4100222E8
:105080006946FEF7DFF828430A49433118B1042086
:1050900004220A55F8BD002000220A55F8BD102050
:1050A000F8BD0A2803D203494331085C7047102039
:1050B00070470000C80D0020FBF7C0F8FEE7A0F124
:1050C00020004FF08073C36181612849416140F83D
:1050D000202970474FF0E0204FF6FF114161072172
:1050E0000161704710B52248016841F47F010160F9
:1050F000016841F07F410160FFF7ECFF1D4900208E
:105100000860FBF773F8002010BD704718494FF096
:1051100080501C390860BFF34F8FBFF36F8F70470B
:1051200010B5FBF78BF813480168491C0160BFF309
:105130004F8FBFF36F8F10BD0E490868401E086087
:10514000002801D1FBF781B8704710B5FBF776F85E
:1051500000F09FFB20B106494FF080501C390860D9
:10516000BDE810400020FBF770B80000B9500008FF
:1051700020ED00E0C801002000F1080141604FF07F
:10518000FF328260C160016100210160704700212F
:105190000161704742684A6093688B609368596008
:1051A000916008610168491C0160704730B50C6866
:1051B000621C02D000F1080202E0026904E01A4613
:1051C00053681D68A542FAD953684B6099608A609C
:1051D000516008610168491C016030BDD0E90121BE
:1051E0009160D0E90112516001694A68824201D19F
:1051F00082684A60002202610868401E08607047A9
:1052000070B504460D46FFF78BFFD4E90F122068F6
:1052100001FB020060600020A0632068A060E06BDA
:10522000226C2168401E00FB0210E0604FF0FF304E
:105230006064A06404F110004DB1FFF79DFF04F11C
:105240002400FFF799FFFFF777FF012070BD216968
:105250000029F8D000F0CEFD0128F4D1FFF756FF69
:10526000F1E72DE9F04105460F460026002D16D046
:105270004C2000F066FE04468CB105FB07F0401C94
:1052800000F05FFE206038B1E5632764012120460D
:10529000FFF7B6FF264602E0204600F098FE3046B3
:1052A000BDE8F08170B50446FFF73AFF04F124052C
:1052B0000AE0606A58B1284600F09CFD08B100F091
:1052C000F0FDA06C401EA064A06C0028F1DC4FF043
:1052D000FF35A564FFF730FFFFF722FF04F110064A
:1052E0000AE0206958B1304600F084FD08B100F0B2
:1052F000D8FD606C401E6064606C0028F1DC656461
:10530000BDE87040FFF718BF10B50446FFF708FF6F
:10531000A06BE16B884201D1012400E00024FFF77B
:105320000BFF204610BD70B504461546226C002ABE
:1053300022D07DB1E06804F054FFE168206C091AC6
:10534000E1602268914202D26168081AE060022D91
:105350000DD011E0A06804F044FF216CA06808445F
:10536000A0606168884207D32068A06004E0A06B59
:1053700010B1A06B401EA063A06B401CA06370BD69
:105380002DE9FF4182B0044688461F4600250026CD
:10539000FFF7C6FEA06BE16B884205D3022F03D056
:1053A0000498A8B1C5B11BE03A4641462046FFF734
:1053B000BAFF606A38B104F1240000F01BFD012837
:1053C00001D1FFF7A3FEFFF7B7FE012006B067E7A4
:1053D000FFF7B2FE0020F9E7684600F037FD01252F
:1053E000FFF7AAFE00F022FBFFF79AFE606C401C5C
:1053F00000D16664A06C401C00D1A664FFF79CFE3F
:1054000004A9684600F028FD30B12046FFF74AFFA6
:1054100000F0A7FA0020D9E72046FFF775FF70B12A
:1054200004F11000049900F0CBFC2046FFF73AFF8E
:1054300000F097FA0028ABD1FFF768FEA8E72046F6
:10544000FFF730FF00F08DFAA2E72DE9F0410446A6
:105450000F4615461E46FAF7F1FE8046A06BE16B3B
:10546000884207D3022E05D000244046FAF7EDFE0D
:10547000204615E7324639462046FFF754FFA06C18
:10548000401C04D0A06C401CA0640124EDE7606ABD
:105490000028FAD004F1240000F0ACFC0028F4D07D
:1054A000002DF2D001202860EFE710B50446FFF789
:1054B00037FEA06B20B10024FFF73EFE204610BD52
:1054C0000124F9E730B40C460368002B0CD0026CC1
:1054D000C1681144C1604568A94200D3C360C16876
:1054E000204630BC04F07DBE30BC70472DE9FF4142
:1054F00082B0044688461F4600250026FFF710FEAE
:10550000A06B10B3E56841462046FFF7DBFF6FB1A3
:10551000E560606A30B104F1240000F06BFC08B172
:10552000FFF7F4FDFFF708FE01204FE7A06B401ED8
:10553000A06320690028F5D004F1100000F05AFCA7
:105540000128EFD1FFF7E2FDECE7049808B125B19F
:1055500007E0FFF7F1FD002038E7684600F076FC31
:105560000125FFF7E9FD00F061FAFFF7D9FD606C56
:10557000401C00D16664A06C401C00D1A664FFF7FB
:10558000DBFD04A9684600F067FC30B12046FFF758
:1055900089FE00F0E6F9002018E72046FFF785FFB6
:1055A00070B104F12400049900F00AFC2046FFF7D2
:1055B00079FE00F0D6F90028A0D1FFF7A7FD9DE7FE
:1055C0002046FFF76FFE00F0CCF997E72DE9F04198
:1055D00004460F461546FAF731FE0646A06BE0B1C9
:1055E00039462046FFF76EFFA06B401EA063606C3B
:1055F000401C04D0606C401C606401240EE02069F3
:105600000028FAD004F1100000F0F4FB0028F4D0D8
:10561000002DF2D001202860EFE700243046FAF791
:1056200014FE20463CE62DE9F04104460F46FAF709
:1056300005FE0646A06B38B1E56839462046FFF7FF
:1056400041FFE560012400E000243046FAF7FDFD4B
:10565000204625E610B50446FFF762FDA46BFFF770
:105660006BFD204610BD10B50446FFF759FDD4E987
:105670000E10441AFFF760FD204610BD806B704786
:1056800010B50446206800F0A2FC2046BDE810409A
:1056900000F09DBC806B002801D0002070470120E5
:1056A0007047816BC06B814201D10120704700209F
:1056B0007047000070B50024FE4D04EB840005EB3C
:1056C0008000FFF759FD641C052CF6D3F9486430BF
:1056D000FFF752FDF7487830FFF74EFDF5488C3064
:1056E000FFF74AFDF348A030FFF746FDF148B4301C
:1056F000FFF742FDEF49F048643101631431416323
:1057000070BD70B5044615460023E218C85C82F8E7
:105710003400C85C10B15B1C102BF6D3002084F859
:105720004300052D00D30425E562201DFFF72FFD62
:1057300004F11800FFF72BFD2461C5F10500A061FD
:10574000646270BD70B506460D46442000F0F9FB5A
:10575000044644B1B60045B12846206348B1A522AD
:10576000314604F083FD204670BD304600F0E9FB71
:10577000F3E7204600F02BFC0024F4E72DE9FF4F6F
:1057800081B08246DDE90E68109917469B4638467F
:10579000FFF7D8FF0446C84DF4B3216B781E01EB28
:1057A000800020F00709009732462046119B02999D
:1057B000FFF7A7FF5A4651464846FFF780FC206096
:1057C000B8F1000F01D0C8F80040FFF7A9FCA868A5
:1057D000401CA860286810B1686938B10BE02C60E3
:1057E000A868012807D1FFF765FF04E02868C06AB0
:1057F000B04200D82C60A86A401CA862E06A2969FF
:10580000884200D92861AB4900EB800001EB8000A1
:10581000211DFFF7BFFC00E003E00124FFF78CFC33
:1058200001E04FF0FF34012C07D1686928B12868E6
:10583000C06AB04201D2FFF769FC05B02046BDE85E
:10584000F08F70B50446FFF76BFC9B4D04B92C68D4
:10585000201DFFF7C3FCA06A18B104F11800FFF780
:10586000BDFC9448211DA030FFF794FC6868401CE3
:105870006860A86A401CA862FFF75EFC686900289F
:1058800006D02868844203D1BDE87040FFF73EBCD3
:1058900070BD2DE9F0470025874FB86900280AD070
:1058A000F869401CF861FEF7FBFB386A00B101257E
:1058B0002846BDE8F087F868401CF860FE684FF0A5
:1058C000FF3976B9386B796B39637863786A401C35
:1058D0007862386B0068A0B1386BC068C0684068F7
:1058E000F862F86ADFF8CC8186420FD3386B006823
:1058F00050B1386BC068C4686068864215D2F862DF
:1059000004E0C7F82C90ECE7C7F82C903868C06A20
:1059100000EB800058F82000012800D90125F86923
:105920000028C2D1FEF7BCFBBFE7201DFFF756FCE5
:10593000A06A18B104F11800FFF750FCE06A396959
:10594000884200D9386100EB800008EB8000211DFF
:10595000FFF720FCE06A3968C96A8842C6D301258E
:10596000C4E72DE9F0410027FFF7DAFB524DA869A3
:10597000401EA861A869D8BBA868C8B3DFF8348105
:10598000012608F18C081CE0D8F80C00C46804F16A
:105990001800FFF723FC201DFFF720FCE06A2969AF
:1059A000884200D9286100EB8001424800EB810069
:1059B000211DFFF7EFFBE06A2968C96A884200D31E
:1059C0002E62D8F800000028DED1E86938B909E075
:1059D000FFF75FFF00B12E62E869401EE861E869E9
:1059E0000028F5D1286A012802D10127FFF78EFB94
:1059F000FFF7A2FB3846BDE8F08170B504462E4D96
:105A000028684460E868844206D22968686B091DEA
:105A1000BDE87040FFF7CABB2968286B091DFFF776
:105A2000C5FBE86A844200D2EC6270BD22488169FD
:105A3000491C8161704770B505460C460022FFF78E
:105A4000F5FF1D4EF0682B681C44834205D9A34224
:105A500008D9844206D9012204E0A34201D8844235
:105A600000D901222C6032B13068001DFFF7B6FB6F
:105A70002046FFF7C2FFFFF774FF002803D1BDE8FF
:105A80007040FFF743BB70BD10B502460020002AEE
:105A90000DD0FFF7CBFF0848C1688C180068001DC7
:105AA000FFF79CFB2046FFF7A8FFFFF75AFF0028EF
:105AB00008D103E0180E0020CC010020BDE8104002
:105AC000FFF724BB10BD10B50446FFF729FB0CB946
:105AD000F6480468E46AFFF72FFB204610BD2DE965
