:020000040800F2
:10000000E073002061020008690200086B0200082A
:100010007D0200087F020008810200080000000045
:10002000000000000000000000000000D5010008F2
:10003000850200080000000009020008D3600008E3
:100040008B0200088B0200088B02000800000000F1
:1000500000000000A95C00088B0200088B02000869
:100060008B020008000000008B0200088B020008D1
:100070008B020008000000008B0200085D4B0008A6
:100080008B0200088B020008000000008B020008B1
:100090008B020008000000000000000000000000CB
:1000A0000000000000000000000000008B020008BB
:1000B0008B0200088B0200088B0200088B020008EC
:1000C00000F002F800F076F80AA090E8000C8244F4
:1000D0008344AAF10107DA4501D100F06BF8AFF2D1
:1000E000090EBAE80F0013F0010F18BFFB1A43F016
:1000F00001031847983D0100B83D01000A444FF044
:10010000000C10F8013B13F0070408BF10F8014B76
:100110001D1108BF10F8015B641E05D010F8016BBB
:10012000641E01F8016BF9D113F0080F1EBF10F81F
:10013000014BAD1C0C1B09D16D1E58BF01F801CB42
:10014000FAD505E014F8016B01F8016B6D1EF9D5C5
:100150009142D6D3704700000023002400250026DA
:10016000103A28BF78C1FBD8520728BF30C148BF1A
:100170000B607047662910F0D38064290DF0B082BF
:1001800063290DF0DE8773290DF0E38700207047A7
:100190001FB50EF085F80400002000210FF082FB4F
:1001A000401C6060002000210FF092FBE0601FBD4A
:1001B00010B510BD0EF0A6F91146FFF7E9FF01F0EA
:1001C0001DFB0EF017FC03B4FFF7F2FF03BC0EF0AB
:1001D0004BFE00001A4B19680868B0E8F00F80F376
:1001E00009884FF0000080F311884EF00D0E704723
:1001F0000000000003480068006880F3088862B6C9
:1002000000DF00BF08ED00E0EFF309800C4B1A6837
:1002100020E9F00F106008B54FF0200080F311883E
:1002200006F0C0FC4FF0000080F31188BDE80840E4
:1002300019680868B0E8F00F80F30988704700BFBC
:1002400030060020EFF311804FF0200181F3118878
:10025000704780F311887047EFF305807047000006
:100260000D4880470D480047FEE71EF0040F0CBF05
:10027000EFF30880EFF3098004F0AFBBFEE7FEE781
:10028000FEE7FEE7FEE7FEE7FEE7FEE70448054976
:10029000054A064B7047000013030008C100000820
:1002A000E06D0020E0730020E06F0020E06F002090
:1002B00010B51F4BD8681F4C8007002801DA60106A
:1002C00000E02046D968C90700D04008D96849072E
:1002D00004D55968C1F30321491C4843D968164A1B
:1002E000C1F3012139B1012907D002290DD049F606
:1002F0004040106010BD146010BDD968C1F30311F7
:10030000491CB0FBF1F0106010BD4FF400401060CC
:1003100010BD07480949C161C1680021C160426838
:100320004160826881600269016142694161BFE7A1
:100330000000024000127A000000002010000008B7
:10034000002101604160016141614162032101625C
:10035000704710B54A8802610A894B890C881A4493
:100360008B8903EB04231A44CB881A440260CA89A0
:1003700089881144416010BD002181800722C2801C
:1003800041810181818102224280018070470029E0
:1003900004D0416841F002014160704741684FF666
:1003A000FD72114041607047002A03D042690A4340
:1003B0004261704742698A43426170478069814364
:1003C00001D00020704701207047C069084201D069
:1003D0000120704700207047026A0A43026270479A
:1003E000002A03D0426A0A4342627047426AC94304
:1003F00089B20A404262704781607047806880B26B
:100400007047C068084201D0012070470020704743
:1004100010B50B4BDA6A0B4CA04205D142F080704C
:1004200020F0FF020A4308E0074CA04205D142F049
:10043000007020F47F4040EA0122DA6210BD000023
:10044000000002400000044000000A400021C1609A
:10045000016141600160816041618161C1617047FA
:100460002DE9FF4FD0F804908768D0F80CA0D0F8A1
:100470001080D0F814C082690192C26900920022F3
:10048000012303254FF001160C885EE05FEAC47B70
:1004900056D091F802B029EA03090BFA02FB49EAA7
:1004A0000B0991F808E04FEA420B0EFA0BFEAF433E
:1004B0004EEA0707CDF80CB091F80AB02AEA030A11
:1004C0000BFA02FB4AEA0B0A91F803E002F1100B67
:1004D0000EFA0BFECDF808B091F804B028EA060831
:1004E00048EA0E080BFA02FB48EA0B0891F805E00F
:1004F000DDF808B02CEA060C0EFA0BFE91F806B0F7
:100500004CEA0E0C0BFA02FB4CEA0B0C91F809E0DA
:10051000DDF80CB00EFA0BFEDDF804B02BEA050B8B
:100520004EEA0B0ECDF804E0DDF800B091F807E0DC
:100530002BEA030B0EFA02FE4BEA0E0BCDF800B0CD
:100540005B00AD007600521C6408002C9ED1474928
:10055000884202D14FF01F0101E04FF0000129EA6B
:100560000109C0F8049002D14FF01F0101E04FF0E3
:10057000000127EA0107876002D14FF01F0101E067
:100580004FF000012AEA010AC0F80CA002D14FF096
:100590001F0101E04FF0000128EA0108C0F81080B7
:1005A00002D14FF01F0101E04FF000012CEA010CD5
:1005B000C0F814C002D14FF01F0101E04FF000015C
:1005C000019A22EA0102826102D14FF01F0101E08B
:1005D0004FF00001009A22EA0102C261BDE8FF8FDC
:1005E0004FF6FF71018000218170C170017141716E
:1005F0008171C17101724172817270470068084255
:1006000001D00120704700207047006870470368E0
:10061000164A904201D11F2200E0002293430B436F
:10062000036070470368114A904201D11F2200E025
:1006300000220A4393430360704710B503680B4CD4
:10064000A04201D11F2400E00024A34312B10B43B8
:10065000036010BD8B43036010BD044A904201D17A
:100660001F2200E0002291430160704700000B4010
:100670000021C1600160416081600162416281626C
:10068000C162016341638163C16301664166816642
:10069000C166016141618161C16101674167816733
:1006A000C167016441648164C1640165416581651C
:1006B000C165704710B50A8802604A8842608A881E
:1006C0008260CA880B898C891A444B8923441A4456
:1006D000CB891A44C2604A8A8B8A1A44CB8A098A17
:1006E00003EB01111144016510BD0021018041801F
:1006F0008180C180018141818181C18101824182EA
:100700008182C1827047C268002902D042F0010193
:1007100001E022F00101C160704701607047416053
:10072000704781607047C36823F002031A44C260B7
:1007300081607047006880B27047C26822F47062BE
:100740001144C1607047C26822F030021144C16098
:100750007047C26822F0C0021144C1607047C2688D
:1007600022F008021144C160704710B5046D24F0F6
:10077000FE04114401EB03112144016510BD026D1B
:1007800022F0F00202EB011101657047026D22F0C8
:100790000C02114401657047026D22F002021144FF
:1007A00001657047026D22F0010211440165704736
:1007B000C0680007002801DB002070470820704750
:1007C000C0684007002801DB002070470120704707
:1007D00010B54A88CB884C891A440B8923441A44A3
:1007E0008B8902EB8312CB891A440B8A1A448B88BB
:1007F000002B01D002F500520B8800EB83031A6234
:10080000488ACA8A1044898A01B1001D186610BD41
:100810000021018041808180C180018141818181ED
:10082000C181018241828182C182704700EB8100D7
:100830000261704700EB81000267704710B500EB62
:1008400081000146046E24F0080423440366084630
:10085000026110BD10B500EB81000146046E24F06A
:100860000804234403660846026710BD00EB8100BC
:10087000006980B2704700EB8100006F80B2704762
:1008800000EB810020300168002A02D041F4807121
:1008900001E021F480710160704700EB8100016A82
:1008A00021F4005111440162704700EB8100016A9C
:1008B00021F4805111440162704700EB8100016A0C
:1008C00021F4606111440162704700EB8100016A0C
:1008D00021F0C00101EB82110162704700EB810041
:1008E000016A21F0300111440162704700EB810080
:1008F000016A21F00F0111440162704700EB810091
:10090000006A4004002801DB002070470120704786
:1009100000EB8100016E21F0030111440166704774
:1009200000EB810060300168002A02D041F0040130
:1009300001E021F004010160704710B5CA884B88BE
:100940000C8902EB03128B889B0003EB04331A44DF
:100950004B8902EB83228B8902EB03220B8800EB8D
:10096000830002630A8A4B8AC9891A4402EB012177
:10097000016410BD002141808180C18001814181DD
:100980008181C18101824182704710B5029C00EBD8
:100990008100016B21F01F01240104EB82021A4443
:1009A0001144016310BD00EB8100016B21F00C01CB
:1009B00001EB82010163704700EB8100016B21F0C4
:1009C000030111440163704700EB8100016B21F0CA
:1009D000100101EB02110163704710B5029C00EB9E
:1009E0008100016B21F4F851240304EB822202EB15
:1009F00003221144016310BD00EB8100016B21F45F
:100A0000406101EB82210163704700EB8100016BC3
:100A100021F4407101EB02210163704700EB81007A
:100A2000016B21F4805101EB02310163704710B575
:100A3000029C03EB0222224400EB8100026410BD01
:100A4000406D7047406D084201D001207047002082
:100A50007047426D8A4342657047C36D002A01D0DA
:100A60000B4300E08B43C3657047836D002A01D0C0
:100A70000B4300E08B4383657047426D806D0240FD
:100A80000A40002A01D0012070470020704710B5AD
:100A90000F4B5A6A0F4CA04205D122F0FF000843C9
:100AA00040F0807212E00C4CA04206D122F47F404C
:100AB00040EA012040F0007208E0084CA04205D155
:100AC00022F47F0040EA014040F080625A6210BD8B
:100AD000000002400000074000800740000008407E
:100AE0003C48002181600161012282610160416016
:100AF000704738498A6803799B06002B02DA42F076
:100B0000200201E022F020028A6000680860000AEA
:100B100048607047002141600121016070472D4A03
:100B20009168002802D041F0800001E021F08000AF
:100B300090607047274A9168002802D041F0400039
:100B400001E021F040009060704722480069C00732
:100B500001D001207047002070471E48816941F094
:100B60000101816170471B4A20F001000843506178
:100B70009020906170471749486110208861704744
:100B80001448402181617047124940F0200088617B
:100B900070471048C068C0B270470E48816900694C
:100BA00041EA0020C14340EA0140704700B50246D7
:100BB000FFF7F3FF824301D0002000BD012000BDFC
:100BC00000B50246FFF7E9FF104201D0012000BD49
:100BD000002000BD00000540D148002101604160B7
:100BE0008160C160016141618269C26901624162E3
:100BF0008162C16270478268016803791144C268EA
:100C000002EB03721144026911444269008B1144E2
:100C100001EB4050C349C24A13688B43184410602B
:100C200070470021016041608160C16001614161E4
:100C300081617047BA4A116821F0F07101EB4050B0
:100C40001060704730B5B6490A68B64BDB1C1A40D5
:100C5000D0E900342344D0E9024504EB05142344D1
:100C600044692344C4692344446A234490F82840D7
:100C700003EB446313444A6822F40032048C02EB11
:100C800044420B604A60028B0A61428B8A600069B1
:100C9000886230BD30B5A2494A68A34B1A40D0E9FA
:100CA00000342344D0E9024504EB0514234444698D
:100CB0002344C4692344048C03EB8443446A2344DF
:100CC00090F8284003EB44631A444A60028B4A615F
:100CD000428BCA600069C86230BD0021016041607A
:100CE0008160C1600161416101834183C161016231
:100CF0004162816270478A4A1168002802D041F03F
:100D0000010001E021F0010010607047844A516841
:100D1000002802D041F0010001E021F00100506004
:100D200070477F4A116821F4F87101EB00101060E0
:100D300070477B4A516821F4F87101EB0010506054
:100D400070477749886270477549C8627047744B2D
:100D50001A6822F402720844104418607047704BFD
:100D60005A6822F4027208441044586070476C4A72
:100D7000116821F00801084410607047684A516802
:100D800021F00801084450607047654A116821F459
:100D90000071084410607047614A516821F4007185
:100DA00008445060704710B55D4B1C6824F48064A3
:100DB00022441A601861996010BD10B5584B5C68E8
:100DC00024F4806422445A605861D96010BD5449AB
:100DD00008617047524948617047514988607047BF
:100DE0004F49C86070474E48016841F002010160F8
:100DF00070474B48416841F00201416070474848E4
:100E0000806970474648C06970474548016A406A32
:100E100001EB004070474248006A70474048406A12
:100E2000704700B50246FFF7F0FF104201D00120E5
:100E300000BD002000BD3A49096A014201D00120ED
:100E40007047002070473649496A014201D00120AD
:100E50007047002070473248016A21F001010162A9
:100E600070472F48416A21F00101416270472C48C8
:100E7000016A21F00201016270472948416A21F0AC
:100E800002014162704770B5254E336A756A84006D
:100E90008004020C002904D042EA030045EA144110
:100EA00003E023EA020025EA14413062716270BD5A
:100EB0001B4B1A6A002902D042EA800001E022EAB4
:100EC000800018627047164B5A6A002902D042EA25
:100ED000800001E022EA80005862704700B50246B7
:100EE000FFF793FF02EA9001014009B1012000BD24
:100EF000002000BD0A49096A00EA91000840002864
:100F000001D001207047002070470549496A00EA76
:100F100091000840002801D0012070470020704750
:100F2000008008400000FFF10300FBF10021016395
:100F3000C16241609022826101624162816202224B
:100F40004263816381644FF440710163704770B5FF
:100F500086B004460D4601A800F086FB01986B4957
:100F6000896A6B4B01229C4205D101F007018A403E
:100F7000B0FBF2F007E0674B9C4204D1C1F30221C1
:100F80008A40B0FBF2F02A689108B0FBF1F39909AE
:100F900003F03F03800003EB8116B0FBF6F0801AEC
:100FA000C001B0FBF2F0022802D9002006B070BDEB
:100FB0006162A362E06AA988EA886B8911432A8981
:100FC0001A4311430143E162206B4FF6807188435D
:100FD000A989014321630120E8E74FF4165101601C
:100FE00000218180C180018141814FF44071818164
:100FF0007047002904D0016B41F001010163704783
:10100000016B4FF6FE72114001637047002A03D056
:10101000826B0A4382637047826B8A4382637047A4
:10102000C06B814301D00020704701207047006CE5
:10103000084201D00120704700207047426C0A43EB
:101040004264704742EAC10141637047002A03D0FD
:10105000826C0A4382647047826CC94389B20A4039
:1010600082647047C1F3080101607047006880B274
:101070007047002904D0C16A41F00101C162704784
:10108000C16A4FF6FE721143C162704730B585B038
:1010900004460D46042D08D1684600F0E5FA009894
:1010A0004FF4E111B0FBF1F02062206B2843206384
:1010B00005B030BD002904D0016B41F0020101638D
:1010C0007047016B4FF6FD721143016370478069F1
:1010D000084201D0012070470020704710B50B4B2B
:1010E0009A6A0B4CA04205D142F0807020F0FF02BA
:1010F0000A4308E0074CA04205D142F0007020F4FA
:101100007F4040EA01229A6210BD000000000240C8
:10111000000003400080034010B583680268B3F10B
:10112000406F26D08469641E9B0E9C4022440A6056
:101130004269042A1FD0C268B2F1404F1FD08369B0
:101140005B1E920F934042681A444A60D0E9032321
:101150001A43446A836823431A43036A1A43C369E0
:101160001A43836940695B1E42EA031202438A60A4
:1011700010BD0A60DCE742680C324A60E6E742686C
:101180004A60E3E770480021416081604161491E87
:10119000C1614162C1624163C1630121C1647047A1
:1011A000002905D06849C96801EB00111046B3E772
:1011B000664901EB00111046AEE701EB0011104645
:1011C000AAE770B58AB005460C465F4E5F48B0602E
:1011D00021680091F16801EB051101914FF0006168
:1011E0000291090103914FF00851049104210591E6
:1011F0006168890006914FF400410791A168089148
:10120000E168099100EB05116846FFF785FF0120B1
:101210007060607D0122AA40012809D0F2617262EB
:10122000B2627263207D012804D0F2630AB070BDFF
:10123000B261F4E7B263F9E770B506460C46424D79
:101240004249A9602068002803D001EB0611FFF78E
:1012500063FF606820B1E96801EB0611FFF75CFFEE
:1012600001206860607B0122B24001280AD0EA6157
:101270006A62AA62A07B38B12A63207B012805D06C
:10128000EA6370BDAA61F3E76A63F6E7AA6370BD1B
:101290000021016041608160017341738173704777
:1012A0000021016041608160C1600161017541758B
:1012B0007047012282402448012901D0C262704750
:1012C00082627047012181401F48416170471E4979
:1012D0000120C86470471C4A002907D0D16801EB7F
:1012E00000100089C0F30910401C7047916801EBA1
:1012F0000010F6E710B501228240134CD2B2092942
:1013000020D2DFE801F01F05090D101316191C008B
:10131000206800F0010010BDE06C00F0010010BD7D
:10132000A06A104010BD206A104010BD2069104016
:1013300010BDA069104010BD206B104010BDA06B07
:10134000104010BD002010BD0080024000080020A9
:10135000FE4A002903D0D1690143D1617047D169A8
:101360008143D1617047F94AD16821F4407101434A
:10137000D1607047C0F34211012909D0F449C96B0B
:1013800000F01F0201209040084204D00120704765
:10139000EE490968F4E70020704708B50020009086
:1013A0004FF4C0631720FFF7E5FF0099491C009137
:1013B0000099994201D20028F4D01720FFF7DAFFF4
:1013C00008B1012008BD002008BDE249086070474F
:1013D00000B50120FFF7F9FFFFF7DFFF0020FFF75F
:1013E000C2FFDA48C1680021C1604268416082687A
:1013F0008160026901614269416182698161D64906
:10140000C16100BD00B5FFF7E3FF0121C806FFF78A
:101410009FFFCF48C16B41F48101C163C16B01F4EF
:101420008101C16300BDC9498A6822F003028A6054
:10143000012806D0022803D1886840F003008860A4
:101440007047886840F001008860704708B5002048
:1014500000904FF4C0632220FFF78CFF0099491CD5
:1014600000910099994201D20028F4D02220FFF780
:1014700081FF08B1012008BD002008BDB449CA6B36
:1014800022F00302CA63012806D0022803D1C86BE8
:1014900040F00300C8637047C86B40F00100C863A8
:1014A000704708B5002000904FF4C0630D20FFF78F
:1014B00061FF0099491C00910099994201D20028CE
:1014C000F4D00D20FFF756FF08B1012008BD002021
:1014D00008BD9F4AD16B21F07C5141EA0060D06386
:1014E00070479C491C3908607047994AD16B21F4B8
:1014F000F81141EA0040D063704708B50020009021
:101500004FF4C0631520FFF735FF0099491C009187
:101510000099994201D20028F4D01520FFF72AFF44
:1015200008B1012008BD002008BD884AD36823F017
:1015300003030343D360506820F4706040EA012045
:1015400050608648D0F88810002904D0012140F866
:101550008C1F0021016070478149086070478149F4
:101560000860704708B5002000904FF4C063212048
:10157000FFF700FF0099491C00910099994201D2A0
:101580000028F4D02120FFF7F5FE08B1012008BDA6
:10159000002008BD6D4AD16821F0F00141EA001039
:1015A000D0607047694A136923F003030343136152
:1015B000506820F0F00040EA011050606748D0F811
:1015C0008010002904D0012140F8841F002101600F
:1015D000704765490860704764490860704708B5FE
:1015E000002000904FF4C0632020FFF7C3FE009955
:1015F000491C00910099994201D20028F4D0202082
:10160000FFF7B8FE08B1012008BD002008BD584909
:10161000086070475749086070474C4A516921F08B
:101620003301014351617047484A516921F47061A7
:1016300041EA0020506170474F4908607047434AB3
:10164000916921F0F00141EA0010906170474B4927
:10165000086070473D4A916921F00F010143916193
:1016600070474749086070472DE9F04FDFF8ECB04C
:10167000DBF88411DFF80CA100294FEA4A0501D0FC
:10168000514600E02946DBF8802102B149080B46AB
:10169000DBF88821DFF8B4C02AB1DCF80420C2F3FB
:1016A0000322521C5343DCF80C204FF40048C2F3D1
:1016B000012249F64049012752B1012A0AD0022AE3
:1016C0001BD0C0F80090DBF80422CAB1524618E0E3
:1016D0000560F8E7DCF80C204FEA1212120701D47B
:1016E0001A4608E0DCF80C20C2F30212521C07FA7A
:1016F00002F2B3FBF2F20260E5E7C0F80080E2E735
:101700002A46DBF8004204B152081446DBF80862AE
:101710002EB1DCF80460C6F30316761C744326462B
:10172000DBF810B2BBF1000F00D076084660DCF8A1
:10173000186036095FEA067B07D506F0070B0BF148
:10174000010B07FA0BF6B5FBF6F51DE000000240B1
:1017500000800D40D807B043100000080000404250
:1017600088014042880040420802404280004042D6
:101770002002404210024042B40240422403404250
:101780002003404200093D00C560DCF818605FEAB4
:10179000067B07D506F0070B0BF1010B07FA0BF6DA
:1017A000BAFBF6FAC0F810A0DCF8146016F00306D5
:1017B00004D0012E1AD0022E1AD02146DCF81420B3
:1017C000C2F30112B2B1012A16D0022A00D0294672
:1017D000DCF81420120A130705D502F00702521C88
:1017E0009740B1FBF7F18160BDE8F08F1146E5E766
:1017F0001946E3E74146EBE74946E9E71FB502F042
:101800008EFD02F0C0FD01F097FE02F071FF02F0C4
:1018100095FF02F0E5FF02F012FE02F09CFF02F0DD
:1018200015FF02F01EFF00F010FA02F08CFB04F02E
:1018300062F949480125E9030024016000F07CFDBC
:10184000502003F0C1F8552003F0C1F8434804606C
:101850004460CDE9005402940023802240A1424814
:10186000039404F0B0FF4148CDE9010402260023AF
:1018700080223FA141480096039404F0A4FF009405
:1018800001940294002380223DA13F48039404F078
:101890009AFF0320CDE900040294002380223BA19B
:1018A0003D48039404F08FFFCDE9005402940023D7
:1018B00080223AA13C48039404F085FFCDE90064FE
:1018C00002940023802239A13948039404F07BFF5D
:1018D000CDE9005401231E020294324635A1384856
:1018E000039404F070FFCDE90054029401233246C2
:1018F00034A13748039404F066FFCDE90054029404
:101900000223324633A12E48039404F05CFFCDE954
:10191000005402940223324631A12D48039404F06E
:1019200052FFCDE900540294002380222FA13348B6
:10193000039404F048FF0094019402940023802251
:101940002FA13348039404F03EFF03F0BFF803F0E7
:10195000F2F805F01EFAFEE700E100E08800002042
:1019600047554920746F7000FD3500082C00002099
:10197000436F6E766572746572000000672400081C
:101980005365727669636500F540000844697370B9
:1019900061746368657200008D2E0008627574744E
:1019A0006F6E7320746F7000ED4C0008414443006B
:1019B000271A0008554152543120525800000000A7
:1019C0005352000855415254312054580000000031
:1019D0002D55000855415254322052580000000045
:1019E000554152543220545800000000536F756E18
:1019F000642064726976657200000000CB410008C3
:101A0000454550524F4D2064726976657200000062
:101A10002D5B00086748808870476648C08870471B
:101A20006448C068704708B500220421052004F00E
:101A3000DCFB604C606180B103220021012004F0D6
:101A4000D4FBA06120B100231A46194604F064FCBF
:101A5000A06918B14FF0FF3534E0FEE7FEE7032040
:101A6000207000232A461946A06904F03AFD208917
:101A7000800800EB800081B2A18060898008E0804E
:101A80004D4A126F526B927B520707D500EB8000D4
:101A90004FF6FF7202EA4000E08002E000EB8000B7
:101AA000E080E08841434FF47A7091FBF0F0E06011
:101AB0000820206141483F4900231A461031006840
:101AC00004F02AFC00232A466946606904F009FDF7
:101AD00000980128F6D1C2E770B5364C00222146A5
:101AE000607801250426C978032838D005DC50B178
:101AF00001280ED0022804D12AE0102840D0112855
:101B000045D0627070BD2078A0700028FAD0657052
:101B100070BDA07800F00501012908D081070DD51E
:101B200020F00200A07010206070628170BD20F073
:101B30000500A07002206070228170BD627022706A
:101B4000A069BDE8704000231A46194604F078BC2D
:101B50000420FFF7E6F8E6700320607070BD0429EA
:101B600004D2FFF74CF9218908442081E07828B19C
:101B7000FFF739F9E078401EE07070BD657070BD08
:101B80000720FFF7CEF8E6701120607070BD0429C1
:101B900004D2FFF734F9618908446081FFF723F923
:101BA000E07828B1FFF71FF9E078401EE07070BDC3
:101BB000657070BD040000202C0C0020580000202F
:101BC00070B500244C4D686820F0C00068600F209C
:101BD00001F0CBFC064649480068810600D4102479
:101BE000400701D444F480742868C10701D144F04F
:101BF0000104810701D444F00204410701D444F0F8
:101C00000404C10601D444F00804800601D444F061
:101C10002004304601F0AEFC0028FAD1286869683B
:101C200041F0C0016960010601D444F0400440065F
:101C300001D444F080043248048070BD3148002152
:101C400041808180C1800181704700202D4A0021A0
:101C50000A3222F81010401CC0B20928F9D3EDE76F
:101C60002DE9F04104F020FAFFF7AAFF04F028FA6A
:101C70002348008820F00F05FFF7E0FF0021214CEA
:101C800001274FF6FF7C04F10A0607FA01F082B241
:101C900036F811000CEA4000154201D040F0010076
:101CA00000F00303012B04D0022B06D0032B19D123
:101CB00011E063881343638014E0A3881343A38077
:101CC000C0F38803A3F58078B8F1FF080AD0E38851
:101CD0001343E38006E0C0F38803FF2B02D123897E
:101CE0001343238126F81100491CC9B20929CCD31A
:101CF0002580BDE8F081000000000B4000800A4014
:101D000020000020000C00201E48006840F3000066
:101D1000401C70471C48006840F38020401C7047FE
:101D20001A4A012803D004211046FEF77BBC042187
:101D30001046FEF76CBC15480068C0F38000704781
:101D4000124A012803D008211046FEF76BBC082177
:101D50001046FEF75CBC0B4A012803D00221104656
:101D6000FEF760BC02211046FEF751BC084A01286C
:101D700003D040211046FEF755BC40211046FEF727
:101D800046BC000000800A4000000B4000800E406E
:101D900000800C40FE4890F87400012801D000201B
:101DA000704701207047012803D0F9483830408837
:101DB0007047F748FBE7012803D0F5483830C08862
:101DC0007047F348FBE7012803D0F148383080889A
:101DD0007047EF48FBE7012804D0ED48383019B1CF
:101DE00040897047EA48FAE700897047012806D021
:101DF000E748383029B1007CC0F340007047E44820
:101E0000F8E7007C00F001007047012805D0E048A9
:101E1000383021B1223000887047DD48F9E71230B0
:101E2000F9E7012805D0DA48383021B1223080881E
:101E30007047D748F9E71230F9E7012805D0D448B0
:101E4000383021B1223040887047D148F9E712304C
:101E5000F9E7012806D0CE48383029B122302AB11E
:101E600000897047CA48F8E71230F8E7C088704721
:101E7000012808D0C648383039B122303AB1807BC9
:101E8000C0F340007047C248F6E71230F6E7807BA7
:101E900000F001007047BE4890F8750000F00100A6
:101EA0007047BB4890F87500C0F340007047B848D1
:101EB000B0F876007047012806D0B5483830406B3E
:101EC000807BC0F380007047B148F8E7B048006FEE
:101ED000007800F001007047AE48006890F90400F7
:101EE0007047AC490028096802D091F90600704794
:101EF00091F90500704710B50022847BE30704D0F8
:101F0000C3888B4201DB19460222A30704D503894B
:101F10008B4201DC1946012243888B4201DB1946C2
:101F2000042283888B4201DC19460322018010467B
:101F300010BD30B500244589954201DB2A460424B2
:101F40008589954201DC2A460324857B29B10281DB
:101F500063F341058573204630BDC28063F30005FD
:101F60008573F8E7012803D089483830801CC2E720
:101F70008748FBE770B50546012D0BD0844C3834FB
:101F8000A01CFFF7D6FF064661882846FFF7EAFF48
:101F9000304670BD7E4CF3E7012805D07C483830D0
:101FA00021B122301146A6E77948F9E71230F9E766
:101FB0002DE9F0410E4611461A46069B0546012DB5
:101FC0000FD0734C383476B122342046FFF7B1FF7E
:101FD0000746228831462846FFF7DEFF3846BDE82F
:101FE000F0816B4CEFE71234EFE730B5054602EBBA
:101FF000D2704210012A02DA0122042005E0FA2AF6
:1020000002DDFA22032000E00020614B75331C78CA
:1020100065F3000461F341041C70A3F8012030BD96
:10202000012806D0002804D05948006F007800F03D
:1020300001007047002807D0012805D05448006FE0
:10204000406B807BC0F38000704753485049006864
:10205000891C02880A804288CA8082880A81837922
:102060008A7B63F300028A73C37963F341028A7344
:10207000028A0A82428ACA82828A0A83837D8A7F8E
:1020800063F300028A77C37D63F341028A77028B90
:102090000A84428BCA84828B0A85837F91F82E2022
:1020A00063F3000281F82E20C37F63F3410281F8BD
:1020B0002E20891E90F82020002A4DD001F1220206
:1020C0003A3141F8062C02890A804289CA80828905
:1020D0000A81837B8A7B63F300028A73C37B63F389
:1020E00041028A73428C0A82828CCA82C28C0A8321
:1020F00090F828308A7F63F300028A7790F82930BD
:1021000063F341028A77428D0A84828DCA84C28D2C
:102110000A8590F8303091F82E2063F3000281F8A0
:102120002E2090F8313063F3410281F82E203A39A5
:1021300090F832209AB1164A5A3241F86C2F10F8B2
:10214000343F4A7A63F300024A72437863F34102F0
:102150004A724088488170470D4A1232B0E70C4AF3
:102160004A32EAE700B50120FFF71DFE0A4B196865
:10217000088000210120FFF72EFE19684880012108
:102180000846FFF728FE196888800021012005E035
:102190002C0C00206002002064020020FFF726FEC5
:1021A0001968887101210846FFF720FE1968C87177
:1021B00000210120FFF729FE19680882002211463C
:1021C0000120FFF746FE19684882012200211046CF
:1021D000FFF73FFE19688882002211460120FFF7B1
:1021E00047FE19688875012200211046FFF740FE5E
:1021F0001968C87501210846FFF707FE19680883AA
:10220000012100220846FFF724FE196848830122B5
:1022100011461046FFF71DFE196888830121002230
:102220000846FFF725FE19688877012211461046F7
:10223000FFF71EFE1968C8770120FFF73CFE1968FA
:1022400081F820000020FFF7AEFD19680881002109
:102250000846FFF7C0FD1968488101210020FFF7FB
:10226000BAFD1968888100210846FFF7BFFD19688B
:10227000887301210020FFF7B9FD1968C873002198
:102280000846FFF7C2FD196848840022114610462F
:10229000FFF7DFFD19688884002101220846FFF757
:1022A000D8FD1968C884002211461046FFF7E0FDEA
:1022B000196881F82800002101220846FFF7D8FD9F
:1022C000196881F8290001210020FFF79EFD196897
:1022D0004885002201211046FFF7BBFD196888855B
:1022E000012211460020FFF7B4FD1968C8850022BD
:1022F00001211046FFF7BCFD196881F8300001226A
:1023000011460020FFF7B4FD196881F83100002064
:10231000FFF7D1FD196881F83200FFF7BCFD19689D
:1023200081F83400FFF7BDFD196881F83500FFF72B
:10233000BEFD1968C88600BD10B57821FE480BF0B7
:10234000C3FBFD4C1C3414F81C0C40F0010020F0C1
:10235000020004F81C0C002024F8180C42F2107142
:1023600024F8161C24F8100C24F80E1C217921F0F6
:102370000401217124F8080C44F6206124F8061C9D
:1023800020806180227D42F00402227520814A0073
:10239000628120826282227F22F0010222F0020208
:1023A0002277208461842085618594F83C2022F086
:1023B000040284F83C20208661862087618794F897
:1023C0004C2042F0040284F84C20A4F84000A4F809
:1023D0004210A4F84800A4F84A1094F8590040F0BC
:1023E000010020F0020084F859000520A4F85A00EA
:1023F000A4F10A00A06138302065123860651C3CE9
:1024000000F02BFC00F0E1FB0028FBD0206F0078EF
:1024100000F00100FFF794FC206F406B807BC0F35D
:102420008000FFF798FC206F408800F08DFB206F44
:10243000406B817B0088C1F3800100F09BFB206F23
:102440000078BDE81040C0F34000FFF78FBC0A22BF
:102450000A7004224A7002780A714078487100209C
:10246000C8718871704786B000221021052003F0E2
:10247000BCFEDFF8C892C9F8000020B3002103F0C9
:1024800083FEAD4CAE4E04F138074FF0020B4FF017
:102490000008A4F110054FF0010ADFF8A092002314
:1024A0005A1E02A9D9F8000004F01BF89DF8080094
:1024B0000E28F2D2DFE800F0FEFDFCFB7AFAB5F957
:1024C000F8F7F6084754FEE794F87400012801D1A4
:1024D00000F0C3FB84F8748003F0E6FDFFF7B5FD60
:1024E00003F0EEFD02E0012004F0ECFA00F06DFBD9
:1024F0000028F8D0206F406B807BC0F3800000F094
:1025000080FB10280CD000F0A8FB03980028C4D052
:10251000039800231A460068194603F0FDFEBCE745
:10252000206F408800F010FB206F406B817B00889B
:10253000C1F3800100F01EFB206F0078C0F3400063
:10254000FFF714FCE1E7FFF70DFE03980028A4D085
:10255000039800231A460068194603F0DDFE9CE745
:1025600003F0A2FD77489DF81010006801719DF8F6
:10257000111041719DF81210817103F0A1FD206FBF
:10258000408800F0E1FA206F406B817B0088C1F346
:10259000800100F0EFFA03980028C0D003980023D0
:1025A0001A460068194603F0B7FE76E79DF810005A
:1025B000FFF736FD8DF8100003F076FD9DF8100052
:1025C0000599FFF7CFFC814603F07AFD206F9DF857
:1025D0001010027802F00102914202D1408800F00E
:1025E000B3FA039830B1039800231A4600681946DD
:1025F00003F092FE504902A81039FFF728FF85F832
:1026000007A09DF81010287A61F30100287285F860
:102610000690494900231A461039306803F07CFEC1
:102620003BE79DF81000FFF7FBFC8DF810009DF8CC
:102630001100FFF7FFFC8DF8110003F035FD9DF848
:1026400011109DF81000059AFFF7A6FC814603F0D3
:1026500037FD206F9DF81010027802F001029142C0
:102660000AD1406B9DF81120817BC1F380018A4221
:1026700002D1008800F07EFA039830B1039800235D
:102680001A460068194603F047FE2B4902A8103984
:10269000FFF7DDFE85F807B09DF81010287A61F38A
:1026A000010008E024E2B6E12EE15EE012E0B2E0D3
:1026B00000E2D4E138E29DF8111061F38300287242
:1026C00085F806901C4900231A461039306803F03B
:1026D00023FEE2E69DF81000FFF7A2FC8DF8100043
:1026E00003F0E2FC9DF812309DF811109DF81000E7
:1026F000059AFFF73FFC814603F0E2FC206F9DF84E
:102700001010027802F00102914202D1408800F0DC
:102710001BFA039830B1039800231A460068194643
:1027200003F0FAFD044902A81039FFF790FE0320D8
:10273000E8719DF8101007E02C0C00202400002008
:102740004000002060020020287A61F301009DF81B
:10275000111061F30510287285F8069000231A46BF
:10276000F649306803F0D8FD97E69DF81000FFF7B2
:1027700057FC8DF810009DF81100FFF75BFC8DF8F9
:10278000110003F091FC9DF8130000909DF81220B9
:102790009DF811109DF81000059BFFF709FC81467C
:1027A00003F08EFC206F9DF81010027802F00102F9
:1027B00091420AD1406B9DF81120817BC1F38001C9
:1027C0008A4202D1008800F0D5F9039830B103980D
:1027D00000231A460068194603F09EFDD74902A857
:1027E000FFF735FE0420E8719DF81010287A61F398
:1027F00001009DF8111061F383009DF8121061F340
:102800000510287285F8069000231A46CB493068D7
:1028100003F082FD41E69DF81000FFF701FC8DF802
:102820001000216F097801F00101884252D094F81C
:102830007400012807D100F010FA84F8748002E0D7
:10284000012004F03FF900F0C0F90028F8D09DF80D
:10285000100000F0BFF9102804D04FF0110900F06B
:10286000FCF939E003F020FC9DF81000012804D0A9
:102870003846206703F024FC05E0B0481030F8E744
:10288000012004F01FF900F0A0F90028F8D0206F13
:10289000406B807BC0F3800000F0B3F9102804D0B7
:1028A0004FF0110900F0D9F916E0206F408800F0D0
:1028B0004BF9206F406B817B0088C1F3800100F0F1
:1028C00059F9206F0078C0F34000FFF74FFA4FF03E
:1028D000100901E04FF00309039830B10398002379
:1028E0001A460068194603F017FD944902A8FFF73D
:1028F000AEFD0720E87185F8069000231A468F493F
:10290000306803F009FDC8E59DF81000FFF788FB6B
:102910008DF810009DF81100FFF78CFB8DF8110069
:102920009DF81010012912D0B946D9F83420927BB5
:10293000C2F3800290424ED0206F007800F0010078
:10294000814237D194F87400012808D12FE0DFF8D4
:10295000EC9109F11009E8E7012004F0B3F800F068
:1029600034F90028F8D09DF8110000F04AF9102839
:1029700004D000F072F94FF011092EE003F094FB3F
:102980009DF8110080B109F12200C9F8340003F06C
:1029900097FBD9F83400817B0088C1F3800100F0F7
:1029A000E9F84FF0100918E009F11200EDE74FF0D7
:1029B000110912E003F078FB9DF8110040B109F114
:1029C0002200C9F8340003F07BFB4FF0100904E04B
:1029D00009F11200F5E74FF00309039830B10398AD
:1029E00000231A460068194603F096FC534902A8D2
:1029F000FFF72DFD0620E8719DF81010287A61F38D
:102A00000100287285F8069000231A464B49306869
:102A100003F082FC41E503F047FB9DF811109DF89F
:102A20001000059AFFF7E1FA814603F049FB03988D
:102A300030B1039800231A460068194603F06CFC75
:102A40003E4902A8FFF703FD0520E87185F80690CE
:102A500000231A463949306803F05EFC1DE594F8FE
:102A60007400D8B1022819D04FF01009039830B182
:102A7000039800231A460068194603F04DFC2F49BD
:102A800002A8FFF7E4FC0820E87185F8069000230F
:102A90001A462A49306803F03FFCFEE400F0C6F80D
:102AA000102802D04FF01109E0E784F874A04FF02D
:102AB0001009DBE700F0D1F884F874804FF01009BA
:102AC000039830B1039800231A460068194603F0B2
:102AD00023FC1A4902A8FFF7BAFC0920E87185F81F
:102AE000069000231A461549306803F015FCD4E41B
:102AF00084F874B000F0BFF8102813D000F0ADF8DF
:102B000013200A21297004226A7085F8048085F850
:102B10000580E971A87100231A460849306803F05E
:102B2000FBFBBAE41220ECE7C9F804A00548002337
:102B30001A460349006803F0EFFBAEE41C0C0020CA
:102B400028000020180000200521B0FBF1F0C54A44
:102B5000126892F9042092FBF1F10844002801DA8E
:102B6000002004E0B0F5805F01DB40F6FF7080B22A
:102B700001F024BF30B4BB4A4FF480556C1E13687B
:102B800001290BD00521B0FBF1F093F9062092FB4F
:102B9000F1F10A18002A11DA002212E00A21B0FB32
:102BA000F1F093F9052092FBF1F10A18002A01DAFD
:102BB000002206E0AA4204DB224602E0AA4200DB31
:102BC000224690B230BC01F0FCBEA748007800F06D
:102BD0001000704710B5A44C2178C90701D013200C
:102BE00010BD2178C90601D4112010BD72B6FFF7BF
:102BF000A7F862B60820607060780028FCD1102029
:102C000010BD10B5984C2178C90701D0132010BD14
:102C10002178C90601D4112010BDFFF79CF80820C7
:102C2000607060780028FCD1102010BD8E480178BB
:102C3000C90701D0102070470178490701D512203B
:102C400070470178C90601D41120704701214170F5
:102C500041780029FCD1102070478348017889070A
:102C6000002901DA102070470221417041780029C3
:102C7000FCD1102070477C480178C90701D0112091
:102C800070470421417041780029FCD11020704721
:102C90002DE9F8434FF00008CDF80080FFF73AF82F
:102CA000714D80B9287880060DD47048006850B105
:102CB00001236A466E4903F0C3FB012803D128783B
:102CC00040F02000287028784FF4FA7710F02A0F8F
:102CD00001D0AF8003E0A88808B1401EA880A88872
:102CE00048B10024634E54B1E88808B1401EE88022
:102CF000012C08D015E0FFF707F80446F2E7B6F814
:102D00007600E880F4E7A88958B996F8750080073E
:102D100007D55A48012300225749006803F090FB69
:102D2000AF814FF04B09012C16D1E888A0B996F875
:102D30007500C00710D0287820F00100287028788E
:102D400040F006002870A5F808904E4801230022A4
:102D50004B49006803F074FB6878400703D5287876
:102D600020F004002870687880070DD52878800747
:102D70000AD4287820F001002870287840F002005A
:102D80002870A5F8089010E06878C0070DD0287862
:102D9000C0070AD12878400707D4287820F002001D
:102DA0002870287840F0010028706878000701D565
:102DB000322028816878C00600D56F81A878C007C6
:102DC00004D0287840F00800287006E0A878800732
:102DD00003D5287820F00800287085F8018085F850
:102DE000028085F80380287810F02A0F03D0002095
:102DF000FEF796FF05E02878C00702D00120FEF715
:102E00008FFF0020297801F02101012902D1698971
:102E100001B90120012C03D096F87410022901D1C8
:102E200040F0020001F044F9288930B1401E2881A9
:102E3000287820F01000287003E0287840F0100077
:102E40002870688908B1401E6881A88908B1401EB1
:102E5000A8810098002803D00B494FF080500860EB
:102E6000BDE8F88360020020300000204000002010
:102E7000400401082C0C00205C0401086C000020B8
:102E8000200401082400002004ED00E094B0002498
:102E9000002210210A2003F0A8F9FC4E306000281F
:102EA0007ED003220021012003F09FF9706020B141
:102EB00000231A46194603F02FFA7068002870D0D4
:102EC00003220021012003F090F9B06020B100231B
:102ED0001A46194603F020FAB06800287DD0002376
:102EE0001A46194603F0FDFA322003F0EBFD0520E7
:102EF0008DF8080000250395DFF8949300231A4607
:102F000002A9D9F8000003F007FAE248057006A903
:102F10008160DFF878B30BF1080BC0F804B001460C
:102F2000DD484FF0FF3800234246006803F0F4F913
:102F3000002342461946B06803F0D3FA04200790F4
:102F40009DF8180000287CD000200890D34F002363
:102F50001A4607A9386803F0DFF90B208DF8300016
:102F600000200D90CE484FF0FF38002342460CA9B8
:102F7000006803F0D1F903208DF8080000200390C9
:102F8000C34D00231A4602A9286803F0C5F97D2025
:102F900003F098FD0320079000231A4607A901E0DB
:102FA0005EE05EE0386803F0B7F94FF0060ACDF84E
:102FB0001CA002208DF820009DF8180000F00C00E5
:102FC0008DF821009DF844008DF822000023424630
:102FD00007A9386803F0A0F900E043E0DFF8C482F5
:102FE000CDF81480DFF8C09200231A4605A9D9F85D
:102FF000000003F091F98DF808A000231A4602A9F9
:10300000286803F089F9A349012014310870A74802
:1030100000231A46006803F07FF9A5489D49002364
:103020001A461431006803F077F998499948091D48
:103030004160A04D4FF0FF3A0023524610A930687E
:1030400000E010E003F04DFA9DF840000A3808282F
:10305000F0D2DFE800F0E223813AC1040AFDE9E79B
:10306000FEE7FEE7FEE701206FE70B208DF8240066
:103070009DF84100012809D00228DBD18E480023A9
:103080001A4609A9006803F047F9D3E78B480023E3
:103090001A4609A9006803F03FF9CBE7002CC9D113
:1030A000012400231A461946706803F01AFA794879
:1030B000032101709DF844100172014676480023F7
:1030C0001A46006803F028F9B4E79DF84500E0B11E
:1030D000059500231A4605A9D9F8000003F01CF94C
:1030E0000620079000208DF820009DF845008DF8FF
:1030F00021009DF844008DF822000023524607A9C4
:10310000386803F009F9002494E70B208DF83000AB
:10311000CDF834B06248002352460CA9006803F091
:10312000FBF8002352461946B06803F0DAF9032091
:103130008DF80800CDF80CB0554800231A4602A9B6
:10314000006803F0E9F8002352461946B06803F01E
:10315000C8F9CDF81480BCE7002C96D101240023D7
:103160001A461946706803F0BCF902F0BDFC0C2049
:103170008DF83000CDF834B0494800231A460CA928
:10318000006803F0C9F800235A1E1946B06803F01E
:10319000A8F94FF0040A8DF808A0CDF80CB03C480F
:1031A00000231A4602A9006803F0B6F800235A1E4D
:1031B0001946B06803F095F9364880F800A09DF8EC
:1031C000441001721299C1600146334800231A4627
:1031D000006803F0A1F82DE79DF84500D0B10595F2
:1031E0000621079101218DF820108DF821009DF80E
:1031F00044008DF822000023524607A9386803F0E6
:103200008BF800231A4605A9D9F8000003F084F8CA
:1032100000240FE7CDF81480E2E79DF8450003286D
:103220001BD0052007909DF847008DF820009DF8E1
:10323000480000F003018DF82110C0F381018DF8E2
:103240002310C0F301108DF8220000231A4600E07D
:1032500060E007A9386803F05FF89DF84500012891
:10326000B9D00228B7D0002005909DF847000B2860
:103270003ED2DFE800F03D060606060628283D3D62
:1032800033009DF84600D8B1059538E04000002095
:1032900098000020A40C00206802002058000020A4
:1032A00024000020320001006C00002048020020B1
:1032B0004C02002032000200540200205002002084
:1032C000CDF814801BE09DF84600032802D0112899
:1032D00002D014E0059512E0059510E09DF8460037
:1032E000132802D07248059009E07248059006E064
:1032F0009DF84600112801D0132800D105950598A6
:10330000002886D000231A4605A9D9F8000003F04A
:1033100003F88FE62CB100235A1E1946706803F09B
:10332000E0F802F0E1FB0C208DF83000CDF834B06D
:10333000614800231A460CA9006802F0EDFF002343
:103340005D1E2A4619463446B06803F0CAF80420C8
:103350008DF80800CDF80CB0584800231A4602A991
:10336000006802F0D9FF00232A461946A06803F03E
:10337000B8F800231A461946606803F0B2F85048BE
:103380000121017001A98160C0F80CD001464D48AF
:1033900000232A46006802F0BFFF00232A46194690
:1033A000606803F09EF872B641F2883000F0DDF8F4
:1033B0000446002001F008FB002001F0FFFA002085
:1033C00001F0FFFA002008F0D0FF002008F0AEFF67
:1033D0003D4809F0F7F80022012311463BA009F00F
:1033E000C5F90123002260213BA009F0BFF90123A8
:1033F000222260213BA009F0B9F93C4809F0E2F82B
:103400009DF80400E0B301230C22792138A009F0D3
:10341000ADF99DF80000A0B3112841D001232E2260
:10342000792133A009F0A2F9344800F0DAFD2046F2
:1034300000F0A0F80028FAD1FEF782FC0020FEF789
:103440008AFC0020FEF792FC2D4800F08EF804461E
:10345000204600F08FF80028FAD12A48FCF7F6FF42
:103460002948FCF7F3FF2948FCF7F0FF2848FCF750
:10347000EDFF2848FCF7EAFF2748FCF7E7FFFEE7E7
:1034800000E006E001230C22792124A009F06EF966
:10349000BFE701232E22792120A009F067F9C3E7B5
:1034A00001232E22792120A009F060F9BCE7000059
:1034B00034000300340002002400002098000020A3
:1034C000A40C002068020020E0280108506F7765F6
:1034D00072204F464600000053657474696E67732E
:1034E0000000000050726F66696C6500081A0108E0
:1034F0004E4F54207361766564000000BC66002066
:1035000040420F0000800A4000000B4000800B404A
:1035100000000C4000800C4000800E407361766516
:1035200064204F4B000000006E6F7420726571754F
:10353000726965640000000011480168C9070AD17A
:10354000016841F0807101600E480021416001680E
:1035500041F00101016070470A4840687047081A4D
:10356000704708494968081A70470649496801EBDD
:103570004010704703494968081AC00F704700009F
:10358000FCED00E0001000E01A4908788006000E0B
:103590000870194A1368DB05002B02DA40F00100BD
:1035A00008701068800503D5087840F002000870A4
:1035B000087800F00F000F280CD2DFE800F00B0CA9
:1035C000080B080B0B0C0C0B0B080B080C004888A5
:1035D000401E488070474888401C48807047054915
:1035E0008A88488820F003008880801A00B2801002
:1035F000C88070474C00002000000B401FB500221F
:1036000008210A2002F0F1FDFE4C6060E0B30322C5
:103610000021012002F0E9FDA06020B100231A463C
:10362000194602F079FEA06878B300231A461946BD
:1036300002F057FF03220021012002F0D6FDE060D6
:1036400020B100231A46194602F066FEE068E8B190
:1036500000231A46194602F044FFEB48032141704B
:10366000E8490831416003F0BEFFE84807F08BF8F5
:103670004FF0FF3500232A4602A9606802F031FFAF
:1036800002980E28F6D202E00BE00BE00BE0DFE838
:1036900000F021363E0B294385077F070707078285
:1036A000E8E7FEE7FEE7FEE704F084FC06F001FA37
:1036B00006F013FA06F041FA06F053FA06F02BFA78
:1036C000F0208DF800006946D04806F0A2FF06F011
:1036D000E8FFCFE707F0CDF907F098F8CC4800F005
:1036E00080FCC7E7F1208DF8000003988DF80100F9
:1036F0006946C64806F08DFF06F0D3FFBAE7BDF86D
:103700000C00C1B2BDF80E0007F092F9B2E7BDF9A6
:103710000C0007F09DF9ADE79DF80C000828A9D230
:10372000DFE800F004050A111C332B30A2E79DF8F6
:103730000D0004F0BEFB9DE79DF80F109DF80D00F5
:1037400004F0C9FB96E79DF80E109DF80D0004F0FB
:103750005AFF9DF80D0004F0ACFB8BE79DF80E209E
:103760009DF80F109DF80D0004F019FF9DF80F1043
:103770009DF80D0004F0AFFB7CE79DF80D0004F010
:10378000C0FB77E704F016FC74E706F092F971E7E6
:1037900004F039FC6EE704F049FC6BE79DF80C007F
:1037A00020B101282FD0022869D14EE09DF80D00EC
:1037B00060B1082820D01E2300220321022006F039
:1037C00022FD9DF80E0006F098F958E000221E2315
:1037D0001146104606F017FD04F0ECFB0321102003
:1037E00004F011FF10210322084604F0D8FE06F071
:1037F00060F906F0A2F942E002211E2300220846E9
:1038000006F001FDDDE79DF80D0060B1082815D038
:103810001E2300220321022006F0F5FC9DF80E0075
:1038200006F06BF92BE000221E230121104606F062
:10383000EAFC9DF80E0006F060F920E002211E234C
:103840000022084606F0DFFCE8E702F061F980B1EB
:103850009DF80D0030B11E2300220421012006F046
:10386000D2FC0CE000221E230521104606F0CBFC02
:1038700005E000221E230421104606F0C4FC0020AF
:103880002070F7E6604A1C3A10700320507001293E
:1038900002D00020506070475A480C30506070478A
:1038A00070B504460D4601210420FFF7EBFF564892
:1038B0001C380472C5600146564800235D1E2A4626
:1038C000006802F029FD4F4800232A461946C068C7
:1038D00002F007FE2046BDE8704004F0EABA70B579
:1038E00004460D46164601210620FFF7CBFF464B46
:1038F0001C3B1C725D72DE604648002342495E1E1E
:1039000032461C39006802F007FD3E48002332466B
:103910001946C06802F0E5FD29462046BDE8704022
:1039200004F0D9BA2DE9F04106460D4617469846EF
:1039300001210520FFF7A6FF334C1C3C267265725F
:10394000A772C4F80C80334800232F495C1E22461E
:103950001C39006802F0E0FC2A4800232246194680
:10396000C06802F0BEFD2946304604F04CFE3046E9
:10397000BDE8F04104F09DBA2DE9F0470746DDF8B7
:1039800020900D461646984601210720FFF77AFF42
:103990001D4C1C3C27726572A67284F80B80C4F81B
:1039A0000C901C48002318495C1E22461C390068F4
:1039B00002F0B2FC1348002322461946C06802F008
:1039C00090FD32462946384604F0E9FD294638463E
:1039D000BDE8F04704F07FBA70B504460D460121FA
:1039E0000820FFF74FFF08481C3804724572014653
:1039F000084800235D1E2A46006802F08DFC002363
:103A00002A4609E054000020F00C0020E853002072
:103A1000BC6600202400002070481946C06802F0EF
:103A200060FD2046BDE8704004F06BBA70B50446F6
:103A30000D46164601210920FFF724FF684B1C7232
:103A40005D72DE60674800235C1E224664490068A0
:103A500002F062FC6148002322461946C06802F069
:103A600040FDBDE8704006F024B810B55C4A05235F
:103A70001C321370107251725B48002358495C1E4F
:103A800022461C31006802F047FC544800232246BD
:103A90001946806802F025FDBDE8104006F01DB80B
:103AA00010B54E4C217800290CD14D490B2210390C
:103AB0000A7008714D4800231A46006802F02CFC79
:103AC0000120207010BD10B5444C2278002A0FD17F
:103AD000434A0C23103A13701071916043484049D7
:103AE00000231A461039006802F016FC01202070ED
:103AF00010BD38B53A4A02231C3213701072C2F856
:103B00000CD011613848002335495C1E22461C3117
:103B1000006802F001FC3148002322461946806803
:103B200002F0DFFC9DF8000038BD30B42C4B0224BD
:103B300010331C70187259729A722D48002328494C
:103B400000685A1E30BC103102F0E6BB70B5044666
:103B50000E46154600210920FFF794FE204B1C72EB
:103B60005E729D721F4800235A1E0068BDE87040B7
:103B70001B4902F0D1BB0EB502218DF8001041782F
:103B80008DF8011081788DF8081041680191007856
:103B90004FF0FF32012806D016480023694600681E
:103BA00002F0BAFB0EBD144800236946006802F01B
:103BB000B3FB0EBD1CB5044602F076FA20786946C8
:103BC00001F03CFA02F07CFA9DF8000060709DF86C
:103BD0000100A070019860601CBD0000540000202E
:103BE000D40C0020240000206802002040000020A7
:103BF000980000204C020020480200202DE9F047E8
:103C000007460D461446002607F4E060C00940F060
:103C1000A0084FF080494846FCF7D2FF0128FAD1AE
:103C200000214046FCF79FFF4FF0007A5046FCF71A
:103C3000C7FF0128FAD14FF000494846FCF7C0FF02
:103C4000012805D00126FCF79BFF3046BDE8F08730
:103C5000F8B2FCF790FF57463846FCF7B1FF012851
:103C6000FAD14846FCF7ACFF012801D00226EAE76A
:103C700001214046FCF777FF3846FCF7A1FF0128F9
:103C8000FAD14846FCF79CFF012812D00326DAE758
:103C90001CB10020FCF778FF02E00820FCF774FF5D
:103CA0003846FCF78DFF0128FAD1FCF772FF05F8C2
:103CB000010B2000A4F10104E4B2E9D1C3E710B57F
:103CC0004FF080442046FCF77BFF0128FAD1002109
:103CD000A020FCF748FF4FF000742046FCF770FF6F
:103CE0000128FAD1FCF74CFF4FF00040FCF768FFC9
:103CF000012801D0002010BD012010BD2DE9F041A8
:103D000006460F461546FFF7DAFF0028FBD012E003
:103D100006F00F00C0F11004AC4200D9ECB222460C
:103D200039463046FFF76AFF002807D1301986B2BE
:103D3000281B85B22744002DEAD10020BDE8F08180
:103D40002DE9F04780460D461446002608F4E06051
:103D5000C00940F0A0074FF080494846FCF730FF0B
:103D60000128FAD100213846FCF7FDFE4FF000771C
:103D70003846FCF725FF0128FAD14FF000494846A4
:103D8000FCF71EFF012804D00126FCF7F9FE30469F
:103D90005CE708F0FF00FCF7EEFE3846FCF710FF8A
:103DA0000128FAD14846FCF70BFF012801D0022672
:103DB000EBE74FF400480DE02878FCF7DCFE6D1CC3
:103DC0003846FCF7FDFE0128FAD14046FCF7F8FE24
:103DD000012805D02000A4F10104E4B2ECD1D4E71D
:103DE0000326D2E72DE9F04106460F461546FFF7B8
:103DF00066FF0028FBD016E006F00F00C0F11004AB
:103E0000AC4200D9ECB2224639463046FFF798FF63
:103E1000002893D1301986B2281B85B22744FFF7BA
:103E20004EFF0028FBD0002DE6D1002086E70000E1
:103E300070B50446012901D144F480749A4D0221E1
:103E40002846FCF7DEFA0128F9D121462846BDE8CC
:103E50007040FCF7D1BA10B5FFF787FB0446204647
:103E6000FFF788FB0028FAD110BD10B58F4A012852
:103E700007D004211046FCF7D5FBBDE81040142004
:103E8000E9E704211046FCF7C2FBF6E770B5002114
:103E9000E220FFF7CDFF00213D20FFF7C9FF002101
:103EA0000120FFF7C5FF0021E120FFF7C1FF00213E
:103EB0000846FFF7BDFF00212420FFF7B9FF0021CE
:103EC0009020FFF7B5FF0021A020FFF7B1FF0021F0
:103ED000C820FFF7ADFF0021A620FFF7A9FF0021B2
:103EE000A420FFF7A5FF00212F20FFF7A1FF00214D
:103EF0004020FFF79DFF0021F820FFF799FF0021E8
:103F0000D020FFF795FF00213020FFF791FF00211F
:103F1000B020FFF78DFF00211020FFF789FF00215F
:103F20000846FFF785FF002440F25F35012100209D
:103F3000FFF77EFF641CA4B2AC42F7D3BDE870402B
:103F40000021AF2074E770B5584C01212046FCF7E2
:103F500069FB4FF47A652846FFF77DFF0121204673
:103F6000FCF755FB2846FFF776FF0120FFF77DFFA2
:103F7000FFF78CFF4C4C10212046FCF742FA00283A
:103F8000F9D10220FFF771FFFFF780FF10212046D3
:103F9000FCF737FA0028F9D170BD70B50D46FFF770
:103FA00064FF0021B020FFF743FF00211020FFF73E
:103FB0003FFF00210846FFF73BFF00244FF45876EF
:103FC00015F814000121FFF733FF641CA4B2B442BA
:103FD000F6D3354C10212046FCF713FA0028F9D10E
:103FE00070BD2DE9F047064609270120FFF73DFF88
:103FF0000021B020FFF71CFF00211020FFF718FF61
:1040000000210846FFF714FF60244FF0000811E07C
:104010000025641EA4B20121305DFFF709FF6D1C6D
:10402000ADB2602DF5D304F59074A4B208F1010887
:1040300008F0FF08B845EBD3DFF86C901021484634
:10404000FCF7DFF90028F9D10220FFF70EFF00216D
:10405000B020FFF7EDFE00211020FFF7E9FE002160
:104060000846FFF7E5FEC0244FF0000811E00025E8
:10407000641EA4B20121305DFFF7DAFE6D1CADB203
:10408000602DF5D304F59074A4B208F1010808F08E
:10409000FF08B845EBD310214846FCF7B2F90028D9
:1040A000F9D1BDE8F087000000000A4000800C4014
:1040B00070B504460C4DE00704D080212846FCF77B
:1040C000B1FA03E080212846FCF7A1FAA00705D544
:1040D0002846BDE870404021FCF7A4BA2846BDE858
:1040E00070404021FCF793BA00000B402148B0F922
:1040F0000000704708B502F073FE00900220FCF744
:1041000018FE1C4CFA21684602F0B3FC002600257C
:10411000FCF76FFE022002F0D5FCFCF773FE304482
:1041200086B26D1C0A2DF3D330460BF040FD124AC7
:10413000124B0BF08BFD124A124B0BF087FD002245
:10414000114B0BF00DFC0BF003FD00B22080192881
:1041500001DA322000E0400080B200F035FC0D2092
:1041600060600A48034900231A46091D006802F0EE
:10417000D3F8C7E7640000209A9999999999B93FB3
:1041800021B0726891EDCCBF00C06C405800002097
:10419000052800D30020474951F8200070474649C0
:1041A000421E8A60400848617047434A516B40F69E
:1041B0000C439943002803D040F60800014302E075
:1041C00040F204400143516370470EB50020019056
:1041D00080468346002204210A2002F006F8354971
:1041E000091F086080BBFEE788B2090C404554D91E
:1041F0008046019151E0D84500D901244FF0000AD2
:10420000062C40D2DFE804F03F030C1A2337019854
:10421000FFF7BEFF81460224C3464FF0000839E095
:10422000D9F80400009099F800700098384303D042
:1042300009F1080903242DE000242BE02FB17F1E93
:10424000BFB2009E042425E027E0022422E030884B
:10425000758855EA000107D0361D38B1FFF79FFF7A
:104260000120FFF7A2FF04E0032413E00020FFF782
:104270009CFF05240EE025B16D1EADB24FF0010A82
:1042800008E0042406E04FF0000B0020FFF78DFF4C
:104290004FF0010ABAF1000FB2D006480023001F08
:1042A0005A1E02A9006802F01CF9029911F5803F1C
:1042B000A1D099E77000002000000740FB48FA49B0
:1042C00081602121416070472DE9F04107460D468C
:1042D000F64E0124BC40F4622868002804D0F2495C
:1042E00001EB0711FCF718FF686820B1F16801EBDA
:1042F0000711FCF711FF687B01280AD0F461746292
:10430000A87B40B13463287B012806D0F463BDE864
:10431000F081B461F3E77463F5E7B463F7E710B5D0
:104320000120FDF780F8FDF791F8012800D0FEE7A5
:1043300007210220FDF7F9F80120FDF710F9FDF73C
:1043400011F9012800D0FEE70020FDF723F9012034
:10435000FDF702F94FF48070FDF705F82020FDF716
:104360005CF90020FDF760F90120FDF765F9FBF726
:104370009FFF0121CE48FCF7EBFFBDE81040012173
:10438000CC48FCF7E5BF2DE9F041CB4908684FF672
:10439000FF021040C94A40F44070104308606FF0BB
:1043A0000407384600F037FBC54C2060BD10284696
:1043B00000F031FB60606E10304600F02CFBA06016
:1043C000052000F028FBE0600F2000F024FB2061B6
:1043D0000621052000F013FB06210F2000F00FFB43
:1043E000384600F018FB2060284600F014FB60609F
:1043F000304600F010FBA060052000F00CFBE060F0
:104400000F2000F008FB206181E710B56FF0040079
:1044100000F001FBAA4C20606FF0010000F0FBFAF5
:1044200060604FF0FF3000F0F6FAA060052000F069
:10443000F2FAE0600F2000F0EEFA206110BD2DE9E5
:10444000FE4FDFF880B25846FCF700F89E48FBF7B5
:10445000FDFF9E48FBF7FAFF9D48FBF7F7FF9D48DD
:10446000FBF7F4FF9C48FBF7F1FFC0219648FCF7EF
:10447000CEF86846FCF7B4F82120ADF8000001241E
:104480008DF80A4069465846FBF7EAFF4FF00409E9
:10449000ADF800908DF8034069465846FBF7E0FF01
:1044A0000225ADF800508DF802408DF809406946AC
:1044B0005846FBF7D5FF1820ADF800008DF80850DE
:1044C00069465846FBF7CCFF6846FCF789F84FF081
:1044D000800AADF800A08DF80A408DF80950032637
:1044E0008DF808608DF8024069465846FBF7B8FF22
:1044F0004027ADF800704FF000088DF80280694643
:104500005846FBF7ADFF6846FCF76AF840F2377093
:10451000ADF800008DF80A4069466B48FBF7A0FF34
:10452000A002ADF8000069466748FBF799FFC0207C
:10453000ADF800008DF802408DF8094069466248E8
:10454000FBF78EFF6846FCF74BF8ADF800908DF84E
:104550000A408DF808508DF8094069465B48FBF722
:104560007FFFADF800608DF8095069465748FBF7AA
:1045700077FF6846FCF734F89720ADF800006946ED
:104580005348FBF76DFF2820ADF800008DF80A4076
:104590008DF808508DF809508DF8024069464C4856
:1045A000FBF75EFFADF800708DF80440694648489F
:1045B000FBF756FF6846FCF713F84520ADF80000FE
:1045C0008DF80A408DF809508DF80240694641483F
:1045D000FBF746FFADF800A08DF8086069463D483E
:1045E000FBF73EFF0A20ADF800008DF80850694641
:1045F0003848FBF735FF6846FBF7F2FF0C20ADF8B3
:1046000000008DF80A408DF809408DF80240694697
:104610003148FBF725FF6846FBF7E2FFADF8005095
:104620008DF80A408DF809508DF808608DF8024029
:1046300069462948FBF714FFADF800408DF8028069
:1046400069462548FBF70CFFBDE8FE8F10B5002139
:104650002248FCF743FDBDE8104000212048FCF74C
:104660003DBD70B5FCF78EFD10484FF0FF3404627D
:104670008461861501213046FCF76AFE194D002140
:104680002846FBF7C5FE00216962174841623046A3
:10469000FCF75EFE154AC2F8FC41C2F8FC40FFF789
:1046A0000DFE2020D06770BD000800200080024071
:1046B0000000E023E0C413000CED00E00000FA0568
:1046C000040D002000800A4000000B4000800B40D9
:1046D00000000C4000800C4000800E4000000340B1
:1046E000008003400000044000000A4084E000E035
:1046F0001FB56846FBF740FECD4C00212046FBF776
:1047000087FE0420ADF800000222ADF8022000214F
:10471000ADF804100820ADF80600ADF80810ADF8AB
:104720000A10ADF80C10ADF80E2069462046FBF7D4
:1047300010FE01212046FBF72AFE1FBD1CB50120FB
:10474000FCF7EDF94FF4807000900020019068466E
:10475000FCF7CFF91CBD30B593B0FCF73DFA0CA8BF
:10476000FCF75FFA00240C940A200D904FF40030FF
:104770000E9040000F9040001090400011900125D5
:1047800012950CA8FCF737FA01A8FCF7A6FA04204A
:104790000190029403941F20049005940694ADF8B0
:1047A0001C40ADF81E40E802089009954FF4E04027
:1047B0000A900B9401A8FCF745FA01A8FCF76AFAE5
:1047C00000210620FCF774FB00210620FCF77BFB90
:1047D0000120FCF790FA0120FCF798FA13B030BDE5
:1047E0002DE9F04391B00BA8FBF77FFF1F20ADF838
:1047F0002E0040F2F310ADF830008E4E0BA930467B
:10480000FBF758FF05A8FCF703F80024ADF81640A5
:104810004FF44068ADF81E800125ADF814504FF0FC
:104820000809ADF8269005A93046FBF7D1FF684688
:10483000FCF7A0F8ADF80240ADF80450ADF8065012
:10484000ADF80840ADF80A50ADF80C50ADF8005086
:1048500069463046FCF771F8F92070610021304656
:10486000FCF715F901213046FBF74DFF0BA8FBF7CC
:104870003CFFADF82E5040F6FF70ADF830006E4FA3
:104880000BA93846FBF716FF05A8FBF7C1FFADF8EB
:104890001640ADF81E80ADF82690ADF8144005A97D
:1048A0003846FBF795FF0226ADF8146005A9384697
:1048B000FBF78EFF05A8FBF7ABFFADF816406802CB
:1048C000ADF81E00ADF81450ADF8264005A93846E5
:1048D000FBF77EFF6846FCF74DF8ADF80850ADF8E1
:1048E0000A60ADF80C50ADF8004069463846FCF758
:1048F00024F8ADF8006069463846FCF71EF83C61C4
:10490000BC617C61012291023846FCF7AEF80021BF
:104910003846FCF7BCF801213846FBF7F4FE0BA83B
:10492000FBF7E3FE0F20ADF82E006320ADF830005A
:10493000424F0BA93846FBF7BDFE05A8FBF768FF01
:10494000ADF81440ADF81640ADF81E80ADF82690D5
:1049500005A93846FBF73CFF6846FCF70BF8ADF8B5
:104960000040ADF80460ADF80240ADF8065069466D
:104970003846FBF7E2FFADF8146005A93846FBF7AF
:1049800027FFADF80060ADF80440ADF80640ADF883
:104990000A60ADF80850ADF80C5069463846FBF790
:1049A000CCFF3C61BC6100213846FCF770F8012166
:1049B0003846FBF7A8FE11B0BDE8F0831E49086138
:1049C00070471D49886170471C4988617047642899
:1049D00000D96420194908617047194902680A60C2
:1049E00042684A6082688A60C268CA6002690A6175
:1049F00042694A6182698A61C069C861FEE7490704
:104A0000090E002804DA0F4A00F00F0081547047A5
:104A10000D4A81547047002805DA0A4900F00F005A
:104A2000405C400970470849405C400970470000FD
:104A300000000A40000007400080074000000840D6
:104A4000400D002014ED00E000E400E010B502F09D
:104A500058FCC0B2052838D2DFE800F0030C151E60
:104A60002700574800231A460068BDE81040534904
:104A700001F052BC544800231A460068BDE81040BB
:104A8000504901F049BC524800231A460068BDE86D
:104A900010404E4901F040BC4F4800231A460068C0
:104AA000BDE810404B4901F037BC4D4800231A4681
:104AB0004A49006801F030FC4A4800231A46006861
:104AC000BDE81040454901F027BC10BD38B5464D42
:104AD00000230122322145A0009502F0E5FB474C5E
:104AE000206001231A46052145A0009502F0DCFB59
:104AF000606002230122192146A0009502F0D4FB38
:104B0000A060032301220A2145A0009502F0CCFBFE
:104B1000E06004230122052147A0009502F0C4FBB8
:104B20002061002054F8201021B1401CC0B205289B
:104B3000F8D338BDFEE7F8B50024661E2F4D02F00D
:104B40004FF902460096002355F82400194602F05A
:104B50006DFA641CE4B2052CF1D3F8BD10B5FEF774
:104B6000FBFC044638490888401E0004000C0880FD
:104B700003D105200880FCF7AFFFFEF789F8FEF7A8
:104B800003FD324A506900F5486080B29168814265
:104B900001D29168401A50614FF480611046FBF7D2
:104BA00058FFFEF7D9FC01462046FEF7D8FC2649FF
:104BB000091D4A68824200D2486010BD30040108D5
:104BC00024000020580401086C0000205004010853
:104BD000580000200005010898000020B4010020C2
:104BE000480200204C0200204D4A0008436F6E76B8
:104BF00065727465722074696D657200780D0020AD
:104C0000536F756E64206472697665722074696D85
:104C1000657200004755492074696D657200000097
:104C2000427574746F6E7320647269766572207455
:104C3000696D6572000000005541525420525820A1
:104C400074696D65720000008400002000800740D8
:104C5000A34880787047A24840787047A048007801
:104C60007047A0489E49006810F8382F0A704278B3
:104C70004A708078887070479A48994900680A7825
:104C800000F8382F4A78427089788170704710B5E3
:104C90000020934C2178002915D0934A637891889D
:104CA000528801F4807102F48072002B0CD01346FC
:104CB00000D11146A2784AB1012A0ED0022A02D1AF
:104CC000002900D0012010BD0B46F1E709B10220F8
:104CD00010BD002BFCD0012010BD0029FCD0FDF739
:104CE00059F808B1012010BD022010BD0EB50022F8
:104CF0000C21052001F079FA794A921E906040B3A8
:104D00000020911C087048708870DFF8E091052140
:104D100089F80110C9F8040010705070DFF8D0A1B4
:104D2000714F744E4FF001084FF0030B6C4C002391
:104D3000A41E5A1E6946A06801F0D3FB9DF800002E
:104D40000728F3D2DFE800F00443061F303D40009F
:104D5000ECE7FEE701F0A8F961489DF80810017042
:104D60009DF8091041709DF80A10817001F0A8F9B2
:104D700001980028DAD0019800231A4600681946E5
:104D800001F0CAFAD2E701F08FF9FFF76AFF01F0EC
:104D900097F901980028C9D0019800231A460068A5
:104DA000194601F0B9FAC1E7FFF766FF019800283C
:104DB000BCD0019800231A460068194601F0ACFAED
:104DC000B4E784F80080B1E784F80180AEE720788A
:104DD0000028ABD0FCF744FFFEF701FCFFF757FFBC
:104DE0000546B87880060BD589F800B089F80880A8
:104DF00000235A1E3D49DAF8000001F08DFA0EE05A
:104E0000387980060BD589F800B0002089F80800B1
:104E1000421E00233549DAF8000001F07DFA60787F
:104E2000E8B17888010606D4012D04D040060DD4DF
:104E3000022D0BD013E0022089F80000C21E0023CF
:104E40002A49DAF8000001F067FA08E089F80080E2
:104E500000235A1E2549DAF8000001F05DFA204DC2
:104E60000A35C5F800800124EC807888204208D0FB
:104E7000A5F804801A4900231A460A31306801F067
:104E80004BFAF888204208D0A5F804B01449002352
:104E90001A460A31306801F03FFA3889204208D0BA
:104EA0000520A8800E4900231A460A31306801F017
:104EB00033FA4FF6FF7000EA4404002CD4D10E48B8
:104EC000B0F90000002884D002212960A88004499C
:104ED00000231A460A31306801F01EFA26E7000066
:104EE0009200002064020020000C00208C0D0020A5
:104EF0002400002058000020520000202DE9F0413D
:104F00000546884616461F462C460C35216821B1B9
:104F1000404608F02BFE0028F6D120793070A068BA
:104F20003860BDE8F08170B504460E462546083469
:104F3000296821B1304608F019FE0028F6D128462C
:104F400070BD2DE9FC4780460C461546002C0FD05D
:104F50004FF001094E466B4601AA3748D8F80010B9
:104F6000FFF7CCFF641EE7B2009800285ED15FE037
:104F70000020BDE8FC8758F826100098FFF7D3FF03
:104F800004466079010605D5761CF6B27F1E17F03F
:104F9000FF074DD000F07F00062843D2DFE800F085
:104FA00042030D172635217958F8260005EBC1017B
:104FB0004860207905F8309034E02179E08805EBED
:104FC000C10188802179022005F831002AE0002201
:104FD00058F82600114608F07EFC217905EBC10146
:104FE00048602179032005F831001BE0002258F8C1
:104FF0002600114608F037FC217905EBC101486015
:105000002179042005F831000CE058F82600002131
:105010000AF037FC217905EBC101486021790520B0
:1050200005F83100761CF6B27F1EFFB2002FA2D128
:105030009DF804009DE700006C010020012807D0C6
:10504000FE4802780A7042684A60407848707047AB
:10505000FA480838F5E70A2803D00D2801D00020C7
:105060007047012070472DE9F0418EB000230129DF
:1050700003D0F34C05D1F34F04E0F14CA4F1040448
:10508000F8E7F14F8DF8103002D14FF0010101E047
:105090004FF002018DF811108DF8043008930B9435
:1050A00002D14FF0010101E04FF002018DF829100B
:1050B0004FF001054FF0020C4FF003084FF0FF36A0
:1050C000062876D2DFE800F0A3037D8E9B9F107840
:1050D0000423002872D0DD489188006841B101297D
:1050E00016D0022924D0032940D08DF8048090E006
:1050F0008DF828C0002332460AA901F00DF90023DB
:1051000032461946206801F0ECF98DF8045080E031
:105110008DF82850002332460AA901F0FDF800233B
:1051200032461946206801F0DCF98DF8045070E031
:10513000117EC1B18DF82830117A09B1918900E052
:1051400002218DF83010D1690D91002332460AA951
:1051500001F0E2F8002332461946206801F0C1F957
:105160008DF8045055E08DF8043052E0117E11B3F3
:1051700006218DF82810117A09B1918900E00221E9
:105180008DF83010117C09B1918A00E002218DF870
:105190003110D1690D91002332460AA901F0BCF803
:1051A000002332461946206801F09BF98DF804501F
:1051B0002FE02CE002E08DF804302AE08DF8043076
:1051C00027E0107858B1107A48B108959088ADF86A
:1051D00024009089ADF826008DF8045019E08DF870
:1051E000048016E0107838B1CDF820C09088ADF872
:1051F00024008DF804500CE08DF8048009E00A20AA
:105200008DF8040005E010208DF8100001E08DF805
:1052100004C0089830B18E480023324608A90068BF
:1052200001F07AF89DF8100030B18A480023324628
:1052300004A9006801F070F89DF80400002805D06A
:105240000023324601A9386801F066F80EB0BDE8C7
:10525000F081B0B0012868D0794C40342078012822
:1052600066D0764D00220C21052000F0BEFF61685B
:10527000086000285FD003220021012000F0B5FF64
:10528000E168086020B100231A46194601F044F88D
:10529000E0680068F0B300F007FF012001F0A1F81A
:1052A000A1680860B8B300231A46194601F019F93D
:1052B00000F006FF207800F0AFFD2078664900F08E
:1052C000C7FD0DF1090617965027ADF804704FF091
:1052D000FF3A4FF001090DF10408606800235246BF
:1052E00000682DA901F0FDF89DF8B400012825D033
:1052F000022836D00328F0D1207801AA17A900F09F
:1053000020FE8DF808000028E7D0BDF80400C0F1A9
:10531000500001E010E010E0ADF806000023ADF809
:10532000B0308DF8B29000206EE0454C241D95E71A
:10533000424D083D96E7FEE7FEE7FEE76A782078F3
:10534000696800F095FD28780028C6D0207800F024
:10535000D5FDA06800231A460068194600F0DCFF5E
:10536000BBE7207800F0D5FDA068006801F05BF88D
:10537000834601F0D9FD834506D0A068002352463C
:105380000068194601F0ADF8207800F09CFD207807
:1053900000F0CAFD1796ADF804709DF8BC20207887
:1053A0002E9900F065FD2E9868609DF8BC0068702D
:1053B0009DF8B500287000288FD0207800F09EFD61
:1053C000A06800231A460068194600F0A5FF84E78C
:1053D00008EB00025179202944D0092942D00A293A
:1053E00040D00D293ED09DF8B21059B1BDF8B01093
:1053F000521D01F1010C08EB8101ADF8B0C0CA6586
:105400008DF8B230401CC0B2BDF806108142DFD822
:10541000BDF8B00088B104F114002821834608F0DB
:1054200053FBBDF8B0005A46C1B218A8FFF789FD7A
:10543000207421785A46FFF716FE0FE0780E002000
:10544000C40100205002002054020020240000204B
:10545000580000204000002057500008ADF80470AC
:1054600017963AE753718DF8B290CBE710B500214B
:105470008B4C0A46491CC9B204EBC2031A780AB124
:105480008242F6D1586810BD38B500210091854C94
:10549000012808D000236A461946E06800F0D0FFD2
:1054A0000098C0B238BD00236A461946A06800F0D3
:1054B000C7FFF5E72DE9F04781460D461446B9F1DF
:1054C000010F06D0784F08D1DFF8D88108F108081D
:1054D00028E0754FA7F16407F5E7DFF8C88108F108
:1054E0000C081FE0B5F1005F0ED2642C01D96426D0
:1054F00000E0264632462946384608F00CFBA01B41
:1055000084B23544394602E0294626460024324614
:10551000484600F045FD00235A1E1946D8F8000001
:1055200000F0DFFF002CDDD1BDE8F0870EB500F004
:10553000FF09B9F1010F08D0DFF8688108F104080C
:1055400006D1584C04F1080405E0DFF85881F7E76C
:10555000544C04F10C0403D1534EA6F1640600E050
:10556000514E01D1514F00E0514F5249484600F091
:1055700077FC00220C210A2000F037FEC8F800005A
:1055800028B303220021012000F02FFE206020B16B
:1055900000231A46194600F0BFFE2068C0B1002360
:1055A0001A46194600F09DFF4FF0FF3A002352467D
:1055B0006946D8F8000000F094FF9DF80000811FB4
:1055C000062943D2DFE801F005050B0B0F30FEE79B
:1055D000FEE7019D284608F0B7F984B23DE0019D41
:1055E000BDF8084039E035460024DFF8CCB033A1DF
:1055F0002846DBF8002007F0F3FF284608F0A4F95E
:1056000082B229464846FFF755FF33A12846DBF80A
:10561000042007F0E5FF284608F096F982B22946F3
:105620004846FFF747FF18E035460024314832A1CD
:1056300000680268284607F0D3FF284608F084F97E
:1056400082B229464846FFF735FF06E0FFF70EFF16
:105650000546284608F078F984B2BDB1B4B138687F
:10566000A0B100231A46194600F03BFF01280DD1D6
:10567000284608F069F982B229464846FFF71AFF22
:1056800000231A461946386800F046FE9DF80000CF
:10569000072801D0092889D1019801F0C6FE85E7C5
:1056A0000C05010850020020000E002040020020DE
:1056B0004402002089540008880000205379737444
:1056C00069636B20686F6F6B206D6178207469630C
:1056D0006B733A2025640D0054696D657232204960
:1056E0005352206D6178207469636B733A2025648E
:1056F0000D00000060020020506F776572206F6E11
:105700002F6F6666206379636C65733A2025640D9C
:1057100000000000484000214AF20102C30702D005
:1057200082EA500000E04008491CC9B20829F5D3BC
:10573000704770B505460C46104603E015F8011B8E
:10574000FFF7E8FF2100A4F10104A4B2F6D170BD77
:10575000FF484FF4E13141600122027000234370A1
:10576000C16002724372704710B5FA4C4FF0FF32BD
:105770000C21206808F07EF9206800210171417138
:105780008171016001210172C17110BD10B5F14834
:1057900041F28831406801800021418042F210725C
:1057A00082808171C1714FF4FA6303824182520099
:1057B00082828175C1755C000483418354008483B7
:1057C0008177C17780F8201042F6E064048141813E
:1057D00082818173C1735C1044848184C28480F8A7
:1057E000281080F8291043858185C28580F8301003
:1057F00080F8311080F83210012280F8342080F8CF
:1058000035100522C28680F8381080F8391080F8EB
:105810003A1010BD38B500240020CD490C220C39B7
:10582000FEF76CFA05460E2002226946FEF766FA7C
:10583000284310B10124204638BDC5484FF6FF72F9
:105840000C210C38FFF775FFBDF800108842F2D02C
:105850000224F0E738B500241020BD493C22103165
:10586000FEF74CFA05468D2002226946FEF746FAFD
:10587000284310B10424204638BDB5484FF6FF72C6
:105880003C211030FFF755FFBDF800108842F2D0E0
:105890000824F0E7F8B504460A2C39D2902000EB32
:1058A000C410AB493C221031FEF728FA06464FF4EB
:1058B000807000EBC410A6490D224C31FEF71EFA91
:1058C00040EA060540F20D1000EBC41002226946C2
:1058D000FEF714FA28439E4D593510B1042028557F
:1058E000F8BD9B484FF6FF723C211030FFF721FFB7
:1058F000024697480D214C30FFF71BFFBDF8001002
:10590000884202D100202855F8BD08202855F8BD4E
:105910001020F8BD2DE9F84F00248D4E90274FF44C
:10592000807840F20D19593607EBC41088493C22A3
:105930001031FEF7E3F9824608EBC41084490D22CA
:105940004C31FEF7DBF940EA0A0509EBC4100222EC
:105950006946FEF7D3F9284338B104203055641C5A
:10596000E4B20A2CE0D3BDE8F88F79484FF6FF7215
:105970003C211030FFF7DDFE024675480D214C300A
:10598000FFF7D7FEBDF80010884202D10020305545
:10599000E5E708203055E2E770B504460A2C16D238
:1059A0006B4D5935285D18B108280ED0042070BD04
:1059B0004FF4807000EBC4100D22FEF79FF910B178
:1059C0000420285570BD002070BD082070BD102037
:1059D00070BD38B500245F4800680168491C01604B
:1059E0005B484FF6FF720C210C38FFF7A2FE0090C7
:1059F00057490C220C390020FEF7F4F90546022223
:105A000069460E20FEF7EEF9284300B10124204636
:105A100038BD38B500244F480068C079002817D039
:105A20004B484FF6FF723C211030FFF782FE00908A
:105A300047493C2210311020FEF7D4F905460222D6
:105A400069468D20FEF7CEF9284310B1042400E00A
:105A50001124204638BDF8B504460D460A2C41D223
:105A60003B480D214C3008F02FF839480C222946CC
:105A70004C3008F050F836484FF6FF723C21103099
:105A8000FFF757FE0090024631480D214C30FFF7DA
:105A900050FE0090902000EBC4102D493C221031A4
:105AA000FEF7A0F906464FF4807000EBC4102849B9
:105AB0000D224C31FEF796F940EA060540F20D1032
:105AC00000EBC41002226946FEF78CF928432049F6
:105AD000593118B1042004220A55F8BD00200022D3
