:020000040800F2
:10000000906000201D020008250200082702000859
:10001000390200083B0200083D0200080000000011
:100020000000000000000000000000009101000836
:100030004102000800000000C50100089B3D0008C7
:1000400047020008470200084702000800000000BD
:1000500000000000693B0008470200084702000852
:10006000470200080000000047020008470200089D
:10007000470200080000000047020008AD22000807
:10008000470200084702000800000000470200087D
:10009000470200080000000000000000000000000F
:1000A00000000000000000000000000047020008FF
:1000B00047020008470200084702000847020008FC
:1000C00000F002F800F055F80AA090E8000C824415
:1000D0008344AAF10107DA4501D100F04AF8AFF2F2
:1000E000090EBAE80F0013F0010F18BFFB1A43F016
:1000F000010318471CB100003CB10000103A24BFB6
:1001000078C878C1FAD8520724BF30C830C144BF7C
:1001100004680C60704700000023002400250026BE
:10012000103A28BF78C1FBD8520728BF30C148BF5A
:100130000B607047662908F04087642907F0288023
:10014000632907F01E85002070471FB508F029FFBE
:1001500007F0CAFD04000020002108F0DDFA401C71
:1001600060600020002108F0EDFAE0601FBD10B5CE
:1001700010BD07F0C3FE1146FFF7E7FF01F0FBFAE1
:1001800007F0E1FE03B4FFF7F2FF03BC07F0E6FE61
:100190001A4B19680868B0E8F00F80F309884FF02F
:1001A000000080F311884EF00D0E70470000000033
:1001B00003480068006880F3088862B600DF00BF6B
:1001C00008ED00E0EFF309800C4B1A6820E9F00F0E
:1001D000106008B54FF0200080F3118804F0E3FAB6
:1001E0004FF0000080F31188BDE8084019680868E6
:1001F000B0E8F00F80F30988704700BFA800002026
:10020000EFF311804FF0200181F31188704780F3E4
:1002100011887047EFF30580704700000D48804754
:100220000D480047FEE71EF0040F0CBFEFF30880F7
:10023000EFF3098001F0BEBFFEE7FEE7FEE7FEE751
:10024000FEE7FEE7FEE7FEE704480549054A064BE0
:1002500070470000CD020008C1000008905A00203D
:1002600090600020905C0020905C002010B51F4B37
:10027000D8681F4C800701D5601000E02046D9687F
:10028000C90700D04008D968490704D55968C1F3A7
:100290000321491C4843D968164AC1F3012139B1E9
:1002A000012907D002290DD049F64040106010BD49
:1002B000146010BDD968C1F30311491CB0FBF1F003
:1002C000106010BD4FF40040106010BD07480A498F
:1002D000C161C1680021C16042684160826881607B
:1002E0000269016142694161C0E70000000002400B
:1002F00000127A000000002010000008FE4A19B128
:10030000D1690143D1617047D1698143D16170479F
:10031000F94AD16821F440710143D1607047C0F3BC
:100320004211012909D0F549C96B00F01F020120D3
:100330009040084204D001207047EF490968F4E773
:100340000020704710B500234FF4C0641720FFF75A
:10035000E6FF5B1CA34201D20028F7D01720FFF76D
:10036000DEFF08B1012010BD002010BDE449086087
:10037000704700B50120FFF7F9FFFFF7E3FF00200A
:10038000FFF7C6FFDC48C1680021C16042684160D8
:1003900082688160026901614269416182698161AB
:1003A000D849C16100BD00B5FFF7E3FF0121C806D0
:1003B000FFF7A4FFD148C16B41F48101C163C16B58
:1003C00001F48101C16300BDCB498A6822F00302B8
:1003D0008A60012806D0022803D1886840F0030013
:1003E00088607047886840F001008860704710B5E9
:1003F00000234FF4C0642220FFF791FF5B1CA3424F
:1004000001D20028F7D02220FFF789FF08B1012090
:1004100010BD002010BDB949CA6B22F00302CA63A7
:10042000012806D0022803D1C86B40F00300C8633E
:100430007047C86B40F00100C863704710B50023D7
:100440004FF4C0640D20FFF76AFF5B1CA34201D28A
:100450000028F7D00D20FFF762FF08B1012010BD82
:10046000002010BDA54AD16B21F07C5141EA00600B
:10047000D0637047A2491C39086070479F4AD16B0E
:1004800021F4F81141EA0040D063704710B5002311
:100490004FF4C0641520FFF742FF5B1CA34201D25A
:1004A0000028F7D01520FFF73AFF08B1012010BD52
:1004B000002010BD904AD36823F003030343D360A8
:1004C000506820F4706040EA012050608E48D0F8F7
:1004D0008810002904D0012140F88C1F0021016000
:1004E00070478A490860704789490860704710B5AD
:1004F00000234FF4C0642120FFF711FF5B1CA342CF
:1005000001D20028F7D02120FFF709FF08B1012010
:1005100010BD002010BD784AD16821F0F00141EAF9
:100520000010D0607047744A136923F0030303433B
:100530001361506820F0F00040EA011050607248EA
:10054000D0F88010002904D0012140F8841F002138
:10055000016070476F49086070476F4908607047D5
:1005600010B500234FF4C0642020FFF7D8FE5B1CB9
:10057000A34201D20028F7D02020FFF7D0FE08B117
:10058000012010BD002010BD644908607047644917
:1005900008607047584A516921F0330101435161A5
:1005A0007047554A516921F4706141EA0020506159
:1005B00070475C49086070474F4A916921F0F0012B
:1005C00041EA0010906170475749086070474A4AF5
:1005D000916921F00F01014391617047534908600F
:1005E00070472DE9F04FDFF820B1DBF88411DFF818
:1005F00040A14FEA4A0509B1514600E02946DBF81F
:10060000802102B149080B46DBF88821DFF8E8C0F9
:100610002AB1DCF80420C2F30322521C5343DCF855
:100620000C204FF40048C2F3012249F6404901274B
:1006300052B1012A0AD0022A1BD0C0F80090DBF880
:100640000422CAB1524618E00560F8E7DCF80C2035
:100650004FEA1212120701D41A4608E0DCF80C2007
:10066000C2F30212521C07FA02F2B3FBF2F202606A
:10067000E5E7C0F80080E2E72A46DBF8004204B173
:1006800052081446DBF808622EB1DCF80460C6F3A9
:100690000316761C74432646DBF810B2BBF1000F3C
:1006A00000D076084660DCF8186036095FEA067B01
:1006B00007D506F0070B0BF1010B07FA0BF6B5FB9C
:1006C000F6F5C560DCF818605FEA067B07D506F032
:1006D000070B0BF1010B07FA0BF6BAFBF6FAC0F8A1
:1006E00010A0DCF8146016F0030604D0012E39D0F7
:1006F000022E39D021461DE00000024000800D404E
:10070000D807B04310000008000040428801404272
:10071000880040420802404280004042200240429D
:1007200010024042B40240422403404220034042AF
:1007300000093D00DCF81420C2F30112B2B1012A15
:1007400016D0022A00D02946DCF81420120A13071A
:1007500005D502F00702521C9740B1FBF7F181600A
:10076000BDE8F08F1146C6E71946C4E74146EBE7FE
:100770004946E9E700210160416001614161416250
:1007800003210162704710B54A8802610A894B89CA
:100790000C881A448B8903EB04231A44CB881A442F
:1007A0000260CA8989881144416010BD002181809E
:1007B0000722C28041810181818102224280018021
:1007C000704721B1416841F00201416070474168C2
:1007D0004FF6FD721140416070471AB142690A43F9
:1007E0004261704742698A43426170478069814330
:1007F00001D00020704701207047C069084201D035
:100800000120704700207047026A0A430262704765
:100810001AB1426A0A4342627047426AC94389B2C6
:100820000A404262704781607047806880B27047BA
:10083000C068084201D0012070470020704710B501
:100840000A4BDA6A0A4CA04205D142F0807020F0CF
:10085000FF020A4308E0074CA04205D142F00070B5
:1008600020F47F4040EA0122DA6210BD000002401D
:100870000000044000000A400021C16001614160A5
:100880000160816041618161C16170472DE9FF4F65
:10089000D0F8048082680192D0F80C900769D0F8F3
:1008A00014C082690092D0F81CA000220123032505
:1008B0004FF001160C885EE05FEAC47B56D091F8D9
:1008C00002B028EA03080BFA02FB48EA0B0891F889
:1008D00008E04FEA420B0EFA0BFECDF80CB0DDF843
:1008E00004B02BEA050B4EEA0B0ECDF804E091F8AC
:1008F0000AB029EA03090BFA02FB49EA0B0991F84D
:1009000003E002F1100B0EFA0BFECDF808B091F8DF
:1009100004B0B74347EA0E070BFA02FB47EA0B079E
:1009200091F805E0DDF808B02CEA060C0EFA0BFE93
:1009300091F806B04CEA0E0C0BFA02FB4CEA0B0CD9
:1009400091F809E0DDF80CB00EFA0BFEDDF800B00E
:100950002BEA050B4EEA0B0ECDF800E091F807B03C
:100960002AEA030A0BFA02FB4AEA0B0A5B00AD0013
:100970007600521C6408002C9ED1474A904202D156
:100980004FF01F0101E04FF0000128EA0108C0F814
:10099000048002D14FF01F0101E04FF00001019BE4
:1009A00023EA0103836002D14FF01F0101E04FF001
:1009B000000129EA0109C0F80C9002D14FF01F0193
:1009C00001E04FF0000127EA0107076102D14FF073
:1009D0001F0101E04FF000012CEA010CC0F814C027
:1009E00002D14FF01F0101E04FF00001009A22EA0E
:1009F0000102826102D14FF01F0101E04FF00001BE
:100A00002AEA010AC0F81CA0BDE8FF8F4FF6FF716B
:100A1000018000218170C170017141718171C171CA
:100A200001724172817270470068084201D0012052
:100A3000704700207047006870470368164A90426C
:100A400001D11F2200E0002293430B430360704753
:100A50000368114A904201D11F2200E000220A439C
:100A600093430360704710B503680B4CA04201D15B
:100A70001F2400E00024A34312B10B43036010BD08
:100A80008B43036010BD044A904201D11F2200E055
:100A9000002291430160704700000B400021C160BB
:100AA000016041608160016241628162C1620163F3
:100AB00041638163C163016641668166C16601610C
:100AC00041618161C161016741678167C1670164FB
:100AD00041648164C164016541658165C165704798
:100AE00010B50A8802604A8842608A888260CA8893
:100AF0000B898C891A444B8923441A44CB891A44A4
:100B0000C2604A8A8B8A1A44CB8A098A03EB011194
:100B10001144016510BD0021018041808180C180A8
:100B2000018141818181C181018241828182C182B1
:100B30007047C26811B142F0010101E022F00101E9
:100B4000C1607047016070474160704781607047C5
:100B5000C36823F002031A44C260816070470068D2
:100B600080B27047C26822F470621144C16070475D
:100B7000C26822F030021144C1607047C26822F09E
:100B8000C0021144C1607047C26822F008021144DB
:100B9000C160704710B5046D24F0FE04114401EBF0
:100BA00003112144016510BD026D22F0F00202EB39
:100BB000011101657047026D22F00C0211440165BC
:100BC0007047026D22F00202114401657047026D08
:100BD00022F00102114401657047C068000701D48A
:100BE0000020704708207047C068400701D40020EB
:100BF00070470120704710B54A88CB884C891A4449
:100C00000B8923441A448B8902EB8312CB891A4443
:100C10000B8A1A448B880BB102F500520B8800EB4B
:100C200083031A62488ACA8A1044898A01B1001D66
:100C3000186610BD0021018041808180C180018142
:100C400041818181C181018241828182C18270475B
:100C500000EB81000261704700EB81000267704782
:100C600010B500EB81000146046E24F00804234413
:100C700003660846026110BD10B500EB8100014615
:100C8000046E24F00804234403660846026710BD7E
:100C900000EB8100006980B2704700EB8100006FBB
:100CA00080B2704700EB81002030016812B141F43E
:100CB000807101E021F480710160704700EB8100D8
:100CC000016A21F4005111440162704700EB810078
:100CD000016A21F4805111440162704700EB8100E8
:100CE000016A21F4606111440162704700EB8100E8
:100CF000016A21F0C00101EB82110162704700EB33
:100D00008100016A21F0300111440162704700EB5B
:100D10008100016A21F00F0111440162704700EB6C
:100D20008100006A400401D4002070470120704710
:100D300000EB8100016E21F0030111440166704750
:100D400000EB81006030016812B141F0040101E064
:100D500021F004010160704710B5CA884B880C89E6
:100D600002EB03128B889B0003EB04331A444B897C
:100D700002EB83228B8902EB03220B8800EB8300BA
:100D800002630A8A4B8AC9891A4402EB0121016471
:100D900010BD002141808180C1800181418181811C
:100DA000C18101824182704710B5029C00EB810035
:100DB000016B21F01F01240104EB82021A4411444B
:100DC000016310BD00EB8100016B21F00C0101EB10
:100DD00082010163704700EB8100016B21F0030188
:100DE00011440163704700EB8100016B21F0100199
:100DF00001EB02110163704710B5029C00EB81000A
:100E0000016B21F4F851240304EB822202EB03224C
:100E10001144016310BD00EB8100016B21F44061BE
:100E200001EB82210163704700EB8100016B21F42B
:100E3000407101EB02210163704700EB8100016BFF
:100E400021F4805101EB02310163704710B5029C1F
:100E500003EB0222224400EB8100026410BD406DCE
:100E60007047406D084201D0012070470020704754
:100E7000426D8A4342657047C36D0AB10B4300E07F
:100E80008B43C3657047836D0AB10B4300E08B430E
:100E900083657047426D806D02400A400AB10120AF
:100EA00070470020704710B50F4B5A6A0F4CA04294
:100EB00005D122F0FF00084340F0807212E00C4C94
:100EC000A04206D122F47F4040EA012040F00072A7
:100ED00008E0084CA04205D122F47F0040EA01401E
:100EE00040F080625A6210BD0000024000000740DE
:100EF00000800740000008403B48002181600161FC
:100F00000122826101604160704737498A68436805
:100F10009B0602D542F0200201E022F020028A6006
:100F200000680860000A48607047002141600121A4
:100F3000016070472C4A916810B141F0800001E0D7
:100F400021F0800090607047274A916810B141F00D
:100F5000400001E021F040009060704722480069A5
:100F6000C00701D001207047002070471E488169EA
:100F700041F00101816170471B4A20F001000843E4
:100F80005061902090617047174948611020886136
:100F900070471548402181617047134940F0200097
:100FA000886170471048C068C0B270470E488169B8
:100FB000006941EA0020C14340EA0140704700B5A2
:100FC0000246FFF7F3FF824301D0002000BD01205D
:100FD00000BD00B50246FFF7E9FF104201D0012035
:100FE00000BD002000BD000000000540CD480021EC
:100FF000016041608160C160016141618269C269D3
:10100000016241628162C16270478268016843681F
:101010001144C26802EB037211440269114442692F
:101020008069114401EB4050BF4BBE490A689A43A6
:101030001044086070470021016041608160C16018
:101040000161416181617047B64A116821F0F07118
:1010500001EB40501060704730B5B2490A68B24B9E
:10106000DB1C1A40D0E900342344D0E9024504EBEC
:101070000514234444692344C4692344446A234433
:10108000846A03EB446313444A6822F40032046A1E
:1010900002EB44420B604A60028B0A61428B8A6019
:1010A0000069886230BD30B59E494A689F4B1A403E
:1010B000D0E900342344D0E9024504EB051423446D
:1010C00044692344C4692344046A03EB8443446AA7
:1010D0002344846A03EB44631A444A60028B4A61E6
:1010E000428BCA600069C86230BD00210160416066
:1010F0008160C1600161416101834183C16101621D
:10110000416281627047874A116810B141F0010065
:1011100001E021F0010010607047824A516810B16F
:1011200041F0010001E021F00100506070477D4A6C
:10113000116821F4F87101EB001010607047794AD2
:10114000516821F4F87101EB001050607047754947
:10115000886270477349C8627047724B1A6822F4FC
:10116000027208441044186070476E4B5A6822F4AB
:10117000027208441044586070476A4A116821F0AE
:101180000801084410607047664A516821F0080160
:10119000084450607047634A116821F400710844A4
:1011A000106070475F4A516821F400710844506034
:1011B000704710B55B4B1C6824F4806422441A60AD
:1011C0001861996010BD10B5564B5C6824F48064BA
:1011D00022445A605861D96010BD52490861704775
:1011E0005049486170474F49886070474D49C86011
:1011F00070474C48016841F002010160704749485E
:10120000416841F00201416070474648806970477B
:101210004448C06970474348016A406A01EB004096
:1012200070474048006A70473E48406A704700B5C2
:101230000246FFF7F0FF104201D0012000BD002060
:1012400000BD3849096A014201D0012070470020E1
:1012500070473449496A014201D00120704700209B
:1012600070473048016A21F00101016270472D4842
:10127000416A21F00101416270472A48016A21F068
:101280000201016270472748416A21F00201416270
:10129000704770B5234E336A756A84008004020C6F
:1012A00021B142EA030045EA144103E023EA0200C7
:1012B00025EA14413062716270BD1A4B1A6A11B18D
:1012C00042EA800001E022EA800018627047154B74
:1012D0005A6A11B142EA800001E022EA80005862B5
:1012E000704700B50246FFF796FF02EA9001014001
:1012F00009B1012000BD002000BD0A49096A00EAC9
:101300009100084008B1012070470020704705494E
:10131000496A00EA9100084008B1012070470020A6
:1013200070470000008008400000FFF10300FBF15F
:1013300000210163C16241609022826101624162C9
:10134000816202224263816381644FF440710163D0
:10135000704770B586B004460D4601A8FFF741F905
:1013600001986849896A684B01229C4205D101F0C5
:1013700007018A40B0FBF2F007E0644B9C4204D1C5
:10138000C1F302218A40B0FBF2F02A689108B0FB59
:10139000F1F3990903F03F03800003EB8116B0FBE2
:1013A000F6F0801AC001B0FBF2F0022802D900204A
:1013B00006B070BD6162A362E06AA988EA886B89A1
:1013C00011432A891A4311430143E162206B4FF60E
:1013D00080718843A989014321630120E8E74FF424
:1013E0001651016000218180C180018141814FF44B
:1013F00040718181704721B1016B41F001010163AE
:101400007047016B4FF6FE721140016370471AB1CD
:10141000826B0A4382637047826B8A4382637047A0
:10142000C06B814301D00020704701207047006CE1
:10143000084201D00120704700207047426C0A43E7
:101440004264704742EAC101416370471AB1826C3D
:101450000A4382647047826CC94389B20A4082643D
:101460007047C1F3080101607047006880B270479F
:1014700021B1C16A41F00101C1627047C16A4FF6F2
:10148000FE721143C162704730B585B004460D4607
:10149000042D08D16846FFF7A4F800984FF4E11135
:1014A000B0FBF1F02062206B2843206305B030BD13
:1014B00021B1016B41F0020101637047016B4FF6EE
:1014C000FD721143016370478069084201D0012019
:1014D00070470020704710B50A4B9A6A0A4CA04228
:1014E00005D142F0807020F0FF020A4308E0074C6B
:1014F000A04205D142F0007020F47F4040EA012272
:101500009A6210BD000002400000034000800340CA
:1015100010B583680268B3F1406F26D08469641EF9
:101520009B0E9C4022440A604269042A1FD0C26874
:10153000B2F1404F1FD083695B1E920F9340426807
:101540001A444A60D0E903231A43446A8368234358
:101550001A43036A1A43C3691A43836940695B1ECD
:1015600042EA031202438A6010BD0A60DCE7426867
:101570000C324A60E6E742684A60E3E771480021BE
:10158000416081604161491EC1614162C162416344
:10159000C1630121C164704729B16A49C96801EB7F
:1015A00000111046B4E7684901EB00111046AFE79F
:1015B00001EB00111046ABE770B58AB005460C464A
:1015C000604E6148B06021680091F16801EB05113F
:1015D00001914FF000610291090103914FF0085110
:1015E0000491042105916168890006914FF400413E
:1015F0000791A1680891E168099100EB051168461F
:10160000FFF786FF01207060607D0122AA4001285B
:1016100009D0F2617262B2627263207D012804D047
:10162000F2630AB070BDB261F4E7B263F9E770B576
:1016300006460C46434D4449A960206818B101EBA9
:101640000611FFF765FF606820B1E96801EB06113C
:10165000FFF75EFF01206860607B0122B240012835
:101660000AD0EA616A62AA62A07B38B12A63207B51
:10167000012805D0EA6370BDAA61F3E76A63F6E763
:10168000AA6370BD002101604160816001734173F4
:10169000817370470021016041608160C160016118
:1016A000017541757047012282402648012901D009
:1016B000C2627047826270470121814021484161C6
:1016C000704720490120C86470471E4A39B1D1686B
:1016D00001EB00108068C0F30910401C704791684E
:1016E00001EB0010F6E70122164B8240092926D2B1
:1016F000DFE801F02505090D1115191D21001868F5
:1017000000F001007047D86C00F001007047986A43
:101710001040C0B27047186A1040C0B270471869D4
:101720001040C0B2704798691040C0B27047186B43
:101730001040C0B27047986B1040C0B27047002094
:1017400070470000008002400004002008B5042219
:101750006946002001F018F84C49009804226946B7
:1017600040F2FC7001F010F8494A0099914201D012
:1017700040F0020008BD1FB500F0FCF800F02EF9A3
:1017800001F0D4F800F01FFB00F043FB00F093FBE6
:1017900000F080F900F04AFB00F083FA00F0F0FA64
:1017A00000F055FE00F04BFF00F053FF3948008871
:1017B000800603D5012001F0A2F902E0002001F02B
:1017C0009EF901253448E903002401604FF05000E0
:1017D00000F065FC552000F065FC30480460446072
:1017E000CDE900540294002380222DA12E480394B9
:1017F00002F0E8FD0226CDE9006402940023802275
:101800002AA12D48039402F0DDFD00940194029476
:101810000023802229A12B48039402F0D3FD03204A
:10182000CDE9000402940023802227A129480394D3
:1018300002F0C8FDCDE9006402940023802226A1B5
:101840002648039402F0BEFDCDE900542E02029416
:101850000023324622A12548039402F0B3FDCDE9CE
:10186000005402940023324621A12448039402F03C
:10187000A9FDCDE9005402940023802220A1244830
:10188000039402F09FFD03F084F8FEE75566778825
:10189000112233442200002000E100E01800002063
:1018A00047554920746F7000AD550008436F6E7640
:1018B0006572746572000000E92B0008536572764A
:1018C000696365006D300008446973706174636812
:1018D000657200000931000841444300D532000818
:1018E0005541525432205258000000005936000829
:1018F0005541525432205458000000008D3A0008DF
:10190000536F756E64206472697665720000000022
:10191000153C0008FE48FD49816001214160704787
:101920002DE9F04107460D46F94E0124BC40F46212
:10193000286820B1F54901EB0711FFF7E9FD686858
:1019400020B1F16801EB0711FFF7E2FD687B012888
:101950000AD0F4617462A87B40B13463287B01280B
:1019600006D0F463BDE8F081B461F3E77463F5E792
:10197000B463F7E710B50120FEF726FDFEF737FD4B
:10198000012800D0FEE707210220FEF793FD012089
:10199000FEF7AAFDFEF7ABFD012800D0FEE7002010
:1019A000FEF7B9FD0120FEF79CFD4FF48070FEF7B5
:1019B000AFFC2020FEF7EEFD0020FEF7F2FD012037
:1019C000FEF7F7FDFEF752FC0121D248FEF796FC28
:1019D000BDE810400121D048FEF790BC2DE9F04150
:1019E000CE4908684FF6FF021040CD4A40F44070DF
:1019F000104308606FF00407384600F0F9FBC94C4B
:101A00002060BD10284600F0F3FB60606E10304689
:101A100000F0EEFBA060052000F0EAFBE0600F2084
:101A200000F0E6FB20610621052000F0D5FB062131
:101A30000F2000F0D1FB384600F0DAFB206028468A
:101A400000F0D6FB6060304600F0D2FBA0600520BD
:101A500000F0CEFBE0600F2000F0CAFB206181E7C0
:101A600010B56FF0040000F0C3FBAE4C20606FF0C7
:101A7000010000F0BDFB60604FF0FF3000F0B8FBEC
:101A8000A060052000F0B4FBE0600F2000F0B0FB88
:101A9000206110BD2DE9FE4FDFF88CB25846FEF7ED
:101AA000EBFEA248FEF7E8FEA148FEF7E5FEA148DE
:101AB000FEF7E2FEA048FEF7DFFEA048FEF7DCFEE0
:101AC000C0219A48FEF7B9FF6846FEF79FFF212024
:101AD000ADF8000001248DF80A4069465846FEF72B
:101AE000D5FE4FF00409ADF800908DF8034069462B
:101AF0005846FEF7CBFE0225ADF800508DF80240A7
:101B00008DF8094069465846FEF7C0FE1820ADF82A
:101B100000008DF8085069465846FEF7B7FE684643
:101B2000FEF774FF4FF0800AADF800A08DF80A4070
:101B30008DF8095003268DF808608DF8024069463B
:101B40005846FEF7A3FE4027ADF800704FF000089E
:101B50008DF8028069465846FEF798FE6846FEF703
:101B600055FF40F23770ADF800008DF80A40694625
:101B70006E48FEF78BFEA002ADF8000069466B4888
:101B8000FEF784FEC020ADF800008DF802408DF80D
:101B9000094069466548FEF779FE6846FEF736FF5C
:101BA000ADF800908DF80A408DF808508DF8094086
:101BB00069465F48FEF76AFEADF800608DF809508F
:101BC00069465B48FEF762FE6846FEF71FFF9720F6
:101BD000ADF8000069465748FEF758FE2820ADF8DA
:101BE00000008DF80A408DF808508DF809508DF8E6
:101BF000024069464F48FEF749FEADF800708DF887
:101C0000044069464B48FEF741FE6846FEF7FEFE7B
:101C10004520ADF800008DF80A408DF809508DF888
:101C2000024069464448FEF731FEADF800A08DF849
:101C3000086069464048FEF729FE0A20ADF800001A
:101C40008DF8085069463C48FEF720FE6846FEF7CE
:101C5000DDFE0C20ADF800008DF80A408DF809403B
:101C60008DF8024069463548FEF710FE6846FEF7DB
:101C7000CDFEADF800508DF80A408DF809508DF872
:101C800008608DF8024069462C48FEF7FFFDADF86C
:101C900000408DF8028069462848FEF7F7FDBDE850
:101CA000FE8F2DE9FF476846FFF799FBDFF890901C
:101CB0004846FFF73DFB4FF4E13600966027ADF84C
:101CC00004700024ADF80640ADF808404FF010084D
:101CD000ADF80A80FD00ADF80C5000214846FFF732
:101CE000FAFB69464846FFF734FB01214846FFF7F7
:101CF00082FBDFF850A05046FFF71AFB0096ADF8C4
:101D00000470ADF80640ADF808401DE00004002066
:101D1000008002400000E023E0C413000CED00E06E
:101D20000000FA050008002000800A4000000B4077
:101D300000800B4000000C4000800C4000800E40F2
:101D40000080034000000340ADF80A80ADF80C505D
:101D500000215046FFF7BFFB69465046FFF7F9FAEE
:101D600001215046FFF747FB022211465046FFF77C
:101D700069FB022211464846FFF764FBBDE8FF8776
:101D800070B5FFF7FBFBF8484FF0FF340462846145
:101D9000861501213046FEF7B1FAF44D00212846A0
:101DA000FEF74DFD00216962F14841623046FEF7C1
:101DB000A5FAF04AC2F8FC41C2F8FC40FFF7AAFDC0
:101DC0002020D06770BD1FB56846FEF7EFFCE84CD9
:101DD00000212046FEF733FD0420ADF8000002226A
:101DE000ADF802200021ADF804100820ADF806007F
:101DF000ADF80810ADF80A10ADF80C10ADF80E20D3
:101E000069462046FEF7BFFC01212046FEF7D9FCBB
:101E10001FBD1CB50120FFF78DF84FF480700090B6
:101E2000002001906846FFF770F81CBD30B593B0F4
:101E3000FFF7DCF80CA8FFF7FEF800240C940A204A
:101E40000D904FF400300E9040000F904000109025
:101E500040001190012512950CA8FFF7D6F801A8B3
:101E6000FFF743F904200190029403941F2004908B
:101E700005940694ADF81C40ADF81E40E8020890A9
:101E800009954FF4E0400A900B9401A8FFF7E4F89D
:101E900001A8FFF708F900210620FFF70EFA00213C
:101EA0000620FFF714FA0120FFF72DF90120FFF7B4
:101EB00034F913B030BD2DE9F04391B00BA8FEF713
:101EC0002AFE1F20ADF82E0040F2F310ADF83000CE
:101ED000A94E0BA93046FEF703FE05A8FEF7AAFEA1
:101EE0000024ADF816404FF44068ADF81E8001257F
:101EF000ADF814504FF00809ADF8269005A930460A
:101F0000FEF779FE6846FEF744FFADF80240ADF8F3
:101F10000450ADF80650ADF80840ADF80A50ADF8E1
:101F20000C50ADF8005069463046FEF715FFF92019
:101F3000706100213046FEF7B6FF01213046FEF702
:101F4000F8FD0BA8FEF7E7FDADF82E5040F6FF7048
:101F5000ADF83000894F0BA93846FEF7C1FD05A842
:101F6000FEF768FEADF81640ADF81E80ADF826907D
:101F7000ADF8144005A93846FEF73DFE0226ADF83F
:101F8000146005A93846FEF736FE05A8FEF752FE96
:101F9000ADF816406802ADF81E00ADF81450ADF86B
:101FA000264005A93846FEF726FE6846FEF7F1FEF4
:101FB000ADF80850ADF80A60ADF80C50ADF800402F
:101FC00069463846FEF7C8FEADF8006069463846F7
:101FD000FEF7C2FE3C61BC617C6101229102384681
:101FE000FEF751FF00213846FEF75DFF012138461C
:101FF000FEF79FFD0BA8FEF78EFD0F20ADF82E001B
:102000006320ADF830005E4F0BA93846FEF768FD3F
:1020100005A8FEF70FFEADF81440ADF81640ADF878
:102020001E80ADF8269005A93846FEF7E4FD684607
:10203000FEF7AFFEADF80040ADF80460ADF8024029
:10204000ADF8065069463846FEF786FEADF81460D6
:1020500005A93846FEF7CFFDADF80060ADF80440A5
:10206000ADF80640ADF80A60ADF80850ADF80C5078
:1020700069463846FEF770FE3C61BC610021384677
:10208000FEF711FF01213846FEF753FD11B0BDE800
:10209000F0833A4908617047384988617047384988
:1020A00088617047642800D9642035490861704709
:1020B00010B500F069FC00287BD172B6002000F05A
:1020C00069FC41F2883000F04AFC04460020FFF72A
:1020D000E9FF0020FFF7E3FF0020FFF7DAFF002011
:1020E000FFF7DAFF002004F08CFA002004F06AFA0F
:1020F000244804F0ADFB01230A22002122A004F0B1
:102100003EFC01230A2260211FA004F038FC204677
:1021100000F02AFC0028FAD100F047FC012000F072
:102120004FFC012000F057FC1A4800F0DFF94FF493
:102130007A7000F014FC0446204600F015FC0028DC
:10214000FAD11548FEF798FB1448FEF795FB1448A2
:10215000FEF792FB1348FEF78FFB1348FEF78CFB4C
:102160001248FEF789FBFEE70080024000000440B1
:1021700000000A4084E000E00000074000800740C3
:10218000000008408CAB0008506F776572204F4606
:10219000460000007053002000800A4000000B4001
:1021A00000800B4000000C4000800C4000800E407E
:1021B000FFE710BD144902680A6042684A608268FD
:1021C0008A60C268CA6002690A6142694A618269BA
:1021D0008A61C069C861FEE74907090E002804DA70
:1021E0000A4A00F00F0081547047094A8154704731
:1021F000002805DA054900F00F00405C40097047EF
:102200000349405C400970473C08002014ED00E0A1
:1022100000E400E07CB500F099FB05460020019049
:102220003B4C6168491E616009D100903948002328
:1022300001AA6946006801F02EFF19206060A168BC
:10224000491EA16008D13548002301AA324900681F
:1022500001F021FF3220A060E168491EE16008D151
:102260003048002301AA2E49006801F014FF0A201B
:10227000E0602169491E216108D12C48002301AA90
:102280002949006801F007FF05202061019818B175
:1022900027494FF080500860284600F05CFB1C493D
:1022A00014310A68824200D208607CBD10B500F08B
:1022B0004DFB0446FFF7FCFE15490888401E00044C
:1022C000000C088003D10520088001F058F800F0C8
:1022D000FAFD00F01FFA174A506900F5486080B215
:1022E0009168814201D29168401A50614FF4806137
:1022F0001046FEF7BDFD00F029FB0146204600F028
:1023000028FB034914314A68824200D2486010BD5C
:1023100004000020FC000020C08F000850000020B6
:10232000D88F00085C000020F48F00088C0000208B
:1023300004ED00E00080074070B50446012901D19A
:1023400044F48074994D02212846FEF771FA012861
:10235000F9D121462846BDE87040FEF764BA10B5B1
:1023600000F0FDFA0446204600F0FEFA0028FAD1FB
:1023700010BD10B58E4A012807D004211046FEF783
:1023800067FBBDE810401420E9E704211046FEF782
:1023900054FBF6E770B50021E220FFF7CDFF0021E6
:1023A0003D20FFF7C9FF00210120FFF7C5FF0021F5
:1023B000E120FFF7C1FF00210846FFF7BDFF002124
:1023C0002420FFF7B9FF00219020FFF7B5FF00217F
:1023D000A020FFF7B1FF0021C820FFF7ADFF0021CB
:1023E000A620FFF7A9FF0021A420FFF7A5FF0021E9
:1023F0002F20FFF7A1FF00214020FFF79DFF0021C4
:10240000F820FFF799FF0021D020FFF795FF00216A
:102410003020FFF791FF0021B020FFF78DFF002152
:102420001020FFF789FF00210846FFF785FF0024F1
:1024300040F25F3501210020FFF77EFF641CA4B24B
:10244000AC42F7D3BDE870400021AF2074E770B50F
:10245000574C01212046FEF7FBFA42F21075284640
:10246000FFF77DFF01212046FEF7E7FA2846FFF738
:1024700076FF0120FFF77DFFFFF78CFF4B4C10210B
:102480002046FEF7D5F90028F9D10220FFF771FFA9
:10249000FFF780FF10212046FEF7CAF90028F9D186
:1024A00070BD70B50D46FFF764FF0021B020FFF747
:1024B00043FF00211020FFF73FFF00210846FFF7F0
:1024C0003BFF00244FF4587635F814000121C0B2C8
:1024D000FFF732FF641CA4B2B442F5D3334C102191
:1024E0002046FEF7A5F90028F9D170BD2DE9F04787
:1024F00007464FF009080120FFF73BFF0021B020FD
:10250000FFF71AFF00211020FFF716FF00210846F1
:10251000FFF712FF6024002610E000252046641E0D
:10252000A4B2385C0121FFF707FF6D1CADB2602D2E
:10253000F4D304F59074A4B2761CF6B24645ECD3FD
:10254000DFF8689010214846FEF772F90028F9D1AB
:102550000220FFF70EFF0021B020FFF7EDFE002163
:102560001020FFF7E9FE00210846FFF7E5FEC02432
:10257000002610E000252046641EA4B2385C01212C
:10258000FFF7DAFE6D1CADB2602DF4D304F5907444
:10259000A4B2761CF6B24645ECD310214846FEF7AD
:1025A00047F90028F9D1BDE8F087000000000A4093
:1025B00000800C4070B50024434D686820F0C000D6
:1025C00068600A2000F0CBF90646404800688106A2
:1025D00000D41024400701D444F480742868C10753
:1025E00001D144F00104810701D444F00204410701
:1025F00001D444F00404C10601D444F00804800668
:1026000001D444F02004304600F0AEF90028FAD19D
:102610002868696841F0C0016960010601D444F08E
:102620004004400601D444F080042948048070BD71
:1026300027480021801C41808180C1807047002094
:10264000244A002122F81010401CC0B20928F9D3F6
:10265000EEE72DE9F041FFF7ADFF1D48008820F0BF
:102660000F05FFF7E5FF0020194C0127194EA41CA8
:1026700007FA00F18AB236F810104904090C154225
:1026800001D041F0010101F00303012B04D0022B22
:1026900006D0032B0ED106E063881343638009E064
:1026A000A3881343A380C1F38803FF2B02D1E388DF
:1026B0001343E38026F81010401CC0B20928D7D37A
:1026C0002580BDE8F081000000000B4000800A403A
:1026D000200000207408002070B504460C4DE0076F
:1026E00004D080212846FEF7B3F903E08021284674
:1026F000FEF7A3F9A00705D52846BDE870404021A4
:10270000FEF7A6B92846BDE870404021FEF795B90E
:1027100000000B401A4908788006000E0870194A1C
:102720001368DB0502D540F00100087010688005D1
:1027300003D5087840F002000870087800F00F0018
:102740000F280CD2DFE800F00B0C080B080B0B0C69
:102750000C0B0B080B080C004888401E4880704783
:102760004888401C4880704705498A8848884FF649
:10277000FC7318408880801A00B28010C8807047AF
:102780002A00002000000B402DE9F04707460D46C7
:102790001446002607F4E060C00940F0A0084FF09E
:1027A00080494846FEF715FC0128FAD10021404631
:1027B000FEF7E2FB4FF0007A5046FEF70AFC0128D4
:1027C000FAD14FF000494846FEF703FC012805D036
:1027D0000126FEF7DEFB3046BDE8F087F8B2FEF7D3
:1027E000D3FB57463846FEF7F4FB0128FAD148469A
:1027F000FEF7EFFB012801D00226EAE7012140465F
:10280000FEF7BAFB3846FEF7E4FB0128FAD148464A
:10281000FEF7DFFB012812D00326DAE71CB1002007
:10282000FEF7BBFB02E00820FEF7B7FB3846FEF7D9
:10283000D0FB0128FAD1FEF7B5FB05F8010B20000B
:10284000A4F10104E4B2E9D1C3E72DE9F0478046E1
:102850000D461446002608F4E060C00940F0A007C9
:102860004FF080494846FEF7B4FB0128FAD1002119
:102870003846FEF781FB4FF000773846FEF7A9FB9C
:102880000128FAD14FF000494846FEF7A2FB012883
:1028900004D00126FEF77DFB30469DE708F0FF00DF
:1028A000FEF772FB3846FEF794FB0128FAD1484642
:1028B000FEF78FFB012801D00226EBE74FF400481A
:1028C0000DE02878FEF760FB6D1C3846FEF781FBB3
:1028D0000128FAD14046FEF77CFB012805D02000F4
:1028E000A4F10104E4B2ECD1D4E70326D2E710B599
:1028F0004FF080442046FEF76CFB0128FAD10021FE
:10290000A020FEF739FB4FF000742046FEF761FB74
:102910000128FAD1FEF73DFB4FF00040FEF759FBCE
:10292000012801D0002010BD012010BD1148016810
:10293000C9070AD1016841F0807101600E48002189
:102940004160016841F00101016070470A48406838
:102950007047081A704708494968081A70470649BD
:10296000496801EB4010704703494968081AC00FD5
:1029700070470000FCED00E0001000E01B4800681C
:1029800040F30000401C70471948006840F3802065
:10299000401C7047174A012803D004211046FEF757
:1029A00057B804211046FEF748B8124A012803D050
:1029B00008211046FEF74CB808211046FEF73DB836
:1029C0000A4A012803D002211046FEF741B802212D
:1029D0001046FEF732B8084A012803D040211046BD
:1029E000FEF736B840211046FEF727B800800A40AF
:1029F00000000B4000800E4000800C4010B501220A
:102A0000FB4B9B691C7C54B15C89844202DB2046F1
:102A1000052204E01C89844201DC20460422DC8873
:102A2000844202DB2046032204E09B88834201DCCF
:102A3000184602220A7080B210BD70B50823EC4A15
:102A40009269547C012C0AD0948AD58A92F8246029
:102A50006EB1D68B864205DB30460C2307E0148B23
:102A6000558BF3E7928B824201DC10460B23A84280
:102A700002DC28460A2303E0A04201DB20460923AA
:102A80000B7080B270BD30B51025012A16D0032A14
:102A90000AD0042A0DD001F108024B898C89984292
:102AA00011DA1846112512E001F11E024B8C8C8BB5
:102AB000F5E701F11C02CB8B0C8CF0E701F10A0267
:102AC000CB890C89EBE7A04201DD2046122510805E
:102AD000284630BD70B5C64DA86940880524B0FBB6
:102AE000F4F0FFF7D6FAA969488A497C012900D198
:102AF0004008B0FBF4F0BDE87040FFF7CDBA70B508
:102B0000BC4901220A7000224A7041F288334B808E
:102B10005B008B80CA804FF4FA540C8140F6B834C5
:102B20004C818B81CA810A744A744FF47A634B8258
:102B300044F620638B82CA825C000C834A8349F28C
:102B400088058D8347F23055CD830C844A8481F803
:102B5000242001F126042270627042F6E06565804F
:102B6000A380E2804FF47A55258140F2DC556581DF
:102B7000A381E281227462744FF4FA656582A382B4
:102B8000E2822383628344F25065A58341F270752B
:102B9000E5832384628484F82420954D68B1A9617B
:102BA000A8690078FFF701FFA869407CFFF708FFDC
:102BB0006078BDE87040FFF70EBFAC61F0E78C486D
:102BC0000178490706D50421417041780029FCD1DC
:102BD00010207047002070478548062141704178D9
:102BE0000029FCD10120704786B000220C2105206D
:102BF00001F05FF97E4CE06158B108264FF40038CF
:102C00007D4DDFF8F0A14FF01109DFF8F0B1012799
:102C10004EE1FEE7082855D12DE002A90498FFF700
:102C2000EDFEA169488014206061714901230022F2
:102C30001431286801F0CAF99DF80800022814D060
:102C4000032812D0042813D0052811D04FF4803067
:102C50000090009840F03200009000231A46694628
:102C6000DBF8000001F0B2F92CE0CDF80080F0E7CD
:102C7000CDF80080EDE702A90498FFF7DEFEA16918
:102C80004882152060615A490123002214312868C6
:102C900001F09CF99DF8080009281BD00A2819D0DA
:102CA0000B281AD00C2818D04FF4803000900098D0
:102CB00040F03200009000231A466946DBF800001D
:102CC00001F084F9206900F00F00012808D00228E3
:102CD00018D169E0CDF80080E9E7CDF80080E6E79B
:102CE000039803280FD0039804281CD003980528C4
:102CF0002AD00398062838D00398022845D0039894
:102D0000012844D0ACE0C4F818A06670C4F8149050
:102D10003749012300221431286801F057F96078FF
:102D20000028FCD19CE033482630A0616670C4F8CE
:102D300014902F49012300221431286801F046F92C
:102D400060780028FCD18BE0A1690020487466708F
:102D5000132060612649012300221431286801F004
:102D600035F960780028FCD17AE0A0694774667074
:102D7000132060611E49012300221431286801F0EC
:102D800025F960780028FCD16AE0276168E02078A6
:102D9000C00665D42078800662D567706078002808
:102DA000FCD1022020615BE00398022803D0039845
:102DB000032804D024E0FFF70FFF206150E0A06952
:102DC00050451DD0FFF708FF2061042001F07FFC73
:102DD000C4F818A06670C4F81490054901230022B5
:102DE0001431286801F0F2F860780028FCD137E04F
:102DF0003400002086080020FC0000208C00002009
:102E00000398042818D19248A169814214D0FFF791
:102E1000E3FE2061042001F05AFCC4F818A066709B
:102E2000C4F81490012300228A49286801F0CEF8E2
:102E300060780028FCD113E02078800710D5276146
:102E4000FFF7BDFE216908432061C00608D582480E
:102E5000009000231A466946DBF8000001F0B6F83E
:102E60000398FF2807D101977C4800231A4601A93F
:102E7000006801F0ABF872B6A0690078FFF795FD25
:102E800062B6A069407CFFF79BFD71484078FFF770
:102E9000A2FDA06902A9408AFFF7CFFDA16948827F
:102EA000488802A9FFF7AAFDA1694880FFF712FE32
:102EB00000235A1E03A9E06901F03EF90398072890
:102EC0003FF4ABAEA6E62DE9F0410020614D143D84
:102ED00029784FF4FA7611F00A0F01D0AE8005E0A0
:102EE000A98811B1491EA98000E0012018B1FFF79F
:102EF00045FD044600E000243CB1E88808B1401ECE
:102F0000E880E888C82718B111E00520E880F8E7D4
:102F1000287820F001002870287840F006002870FA
:102F20002F81012300224E49E86901F0B4F8687846
:102F3000400703D5287820F00400287068788007BF
:102F40000CD52878800709D4287820F00100287053
:102F5000287840F0020028702F810DE06878C007C3
:102F60000AD02878C00707D1287820F002002870FE
:102F7000287840F0010028706878000701D56420A7
:102F800068816878C00600D56E81A878C00704D033
:102F9000287840F00800287006E0A878800703D55C
:102FA000287820F00800287000206870A870287821
:102FB00010F00A0F03D00020FFF7ECFC05E02878A2
:102FC000C00702D00120FFF7E5FC00202978C907DF
:102FD00002D0A98901B90120012C02D02969C906B2
:102FE00001D540F00200FFF777FB012C0BD1E889F7
:102FF00048B91D48012300221A49006801F04BF826
:103000004FF47A70E881288930B1401E28812878F1
:1030100040F01000287003E0287820F0100028709D
:10302000688930B1401E6881287820F0200028701F
:1030300003E0287840F020002870A88908B1401EDD
:10304000A881E889002801D0401EE881BDE8F08110
:10305000AC08002048000020340003007400002069
:10306000CC8F0008F88F00088C00002008B501F014
:10307000B3FC00900220FEF762F81C4CFA2168466F
:1030800001F0FCFA00260025FEF7B9F8022001F055
:103090001EFBFEF7BDF8304486B26D1C0A2DF3D33B
:1030A000304605F03CFC124A124B05F04BFC124A2C
:1030B000124B05F047FC0022114B05F059FB05F0BF
:1030C000FFFB00B22080192801DA322000E0400026
:1030D00080B2FEF7E4FF122060600A480349002333
:1030E0001A46091D006800F071FFC7E75400002070
:1030F0009A9999999999B93F21B0726891EDCCBF8D
:1031000000C06C40FC00002088B0002208210A208A
:1031100000F0CFFEDFF8A8B1CBF8000048B1694F4E
:10312000694D4FF001084FF00209684E4FF0000A58
:10313000AAE0FEE7FFF78DFAFFF716FB7888800616
:1031400008D50320039000231A4603A9306800F035
:103150003DFF0AE0B888800607D5042003900023CD
:103160001A4603A9306800F031FF7888010602D4BE
:10317000B988C90508D5CDF80C9000231A4603A9D3
:10318000306800F023FF0AE010F4A07F07D0CDF8EC
:103190000C8000231A4603A9306800F017FFCDF811
:1031A0000CA0CDF8048001247888204208D044F493
:1031B0008030029000231A4601A9286800F006FF1B
:1031C000B888204208D044F40030029000231A4608
:1031D00001A9286800F0FAFEF888204208D044F4DB
:1031E000A020029000231A4601A9286800F0EEFEF4
:1031F0006004040C002CD7D13548B0F9000008B3A6
:10320000CDF80490029000231A4601A9286800F026
:10321000DDFE31E0CDF804800798029000231A46C5
:1032200001A9286800F0D2FE26E0CDF804900798A6
:10323000029000231A4601A9286800F0C7FE1BE08F
:10324000CDF80C8018E0CDF80C9015E00720039025
:103250000798049010E008200390079804900BE072
:103260000798142803D00798282803D004E00520E5
:10327000039001E006200390039828B100231A462A
:1032800003A9306800F0A2FE00235A1E06A9DBF84D
:10329000000000F051FFCDF80CA006980928EBD2F1
:1032A000DFE800F00D0C0B0A090807060500B1E77E
:1032B000BBE7E1E7D4E7CEE7C8E7C4E7C0E739E713
:1032C0005C00002022000020FC00002050000020B4
:1032D0003000002008B500220421052000F0E9FD9F
:1032E0005E4C606180B103220021012000F0E1FD0D
:1032F000A06120B100231A46194600F067FEA069BC
:1033000018B14FF0FF352BE0FEE7FEE703202070F9
:1033100000232A461946A06900F00EFF2089800884
:1033200000EB800081B2A18060898008E0804C4A77
:103330001268527C012A1DD000EB8000E080E088FA
:1033400041434FF47A7091FBF0F0E060102020616F
:103350004448424900231A461031006800F036FE06
:1033600000232A466946606900F0E6FE00980128BD
:10337000F6D1CBE700EB80004000E080DFE770B5DE
:10338000364C00222146607801250426C97803289E
:1033900038D005DC50B101280ED0022804D12AE033
:1033A000102840D0112845D0627070BD2078A070E0
:1033B0000028FAD0657070BDA07800F005010129E1
:1033C00008D081070DD520F00200A0701020607099
:1033D000628170BD20F00500A07002206070228123
:1033E00070BD62702270A069BDE8704000231A466B
:1033F000194600F050BE0420FDF799FEE670032048
:10340000607070BD042904D2FDF7FFFE21890844D5
:103410002081E07828B1FDF7ECFEE078401EE070F6
:1034200070BD657070BD0720FDF781FEE67011204C
:10343000607070BD042904D2FDF7E7FE618908447D
:103440006081FDF7D6FEE07828B1FDF7D2FEE07886
:10345000401EE07070BD657070BD0000600000200F
:103460004C000020FC0000204160428000230380CB
:103470004FF6FF7002E0521E21F81200002AFAD126
:1034800070470388426832F813200A804FF6FF71B4
:103490008A420ED00388426822F8131042880188BD
:1034A000521E914201DA491C00E0002101800120F6
:1034B00070470020704730B58FB01446FA4A9042EA
:1034C00001D1012500E003250190486802904FF0EA
:1034D000406003904FF0804004904FF0885005907A
:1034E00001220692488807900020089091040991D3
:1034F000C9000A9101A90B910C900D908DF838200C
:103500008DF839008DF83A000BA9E8B2FEF708FAF9
:10351000E64800EB05100168216041686160806841
:10352000A0600FB030BD1FB5DF4A904201D100232B
:1035300000E0022300220A6048608A604FF04040A9
:10354000C8600A61012048618A61CA6184040C6212
:1035500044054C620092019202928DF80C008DF8A5
:103560000D208DF80E206946D8B2FEF7D9F91FBD9F
:1035700010B50446CEA1204604F020F8A8B1CEA193
:10358000204604F01BF890B1CDA1204604F016F8B7
:1035900078B1CEA1204604F011F860B1CEA120464A
:1035A00004F00CF848B1002010BD012010BD082027
:1035B00010BD022010BD042010BD102010BD10B59C
:1035C0000446C8A1204603F0F9FFD0B1C7A12046A8
:1035D00003F0F4FFB8B1C6A1204603F0EFFFA0B19D
:1035E000C6A1204603F0EAFF88B1C6A1204603F039
:1035F000E5FF70B1C5A1204603F0E0FF58B10020FF
:1036000010BD012010BD022010BD032010BD0420FC
:1036100010BD052010BD062010BD1CB50446204677
:1036200003F00EFF01F0ADFA01900198002812D0CE
:103630002146019803F0E0FE0220ADF80000B548F5
:1036400000231A466946006800F0C0FC002802D139
:10365000019801F0DCFA1CBDBCB000240025012655
:1036600001F0BAF90590AB48C822AB490830FFF722
:10367000FBFEA8498C4FA94A08313846FFF71BFFCB
:1036800001210846FEF70FF8012211463846FDF7E2
:10369000DDFE0DF1A008A1460127052105A800F0D7
:1036A000EDFF7EE0BDF84C0010F4E06F79D1C0B2C0
:1036B000202806D00D280BD00A2809D0012E0DD0C5
:1036C00015E02146641CA4B208F80190012613E01D
:1036D0002146641CA4B208F801900DE0294614AB01
:1036E00008EB04026D1CADB243F8212000262146F0
:1036F000641CA4B208F801000D2803D00A2801D0E8
:10370000502C4ED1002D49D0CDF80C904FF4807044
:10371000ADF8040082A1149803F050FF002849D0AE
:1037200080A1149803F04AFF002845D07EA1149888
:1037300003F044FF002842D07EA1149803F03EFF1E
:1037400000284CD07EA1149803F038FF002856D0F2
:1037500080A1149803F032FF002860D07EA1149855
:1037600003F02CFF00287CD07FA1149803F026FFE3
:1037700000286BD040F20110ADF80400039830B17E
:103780007E4800231A4603A9006800F01FFC614828
:1037900000231A4601A9006800F018FC0024002547
:1037A00001265C4813A90830FFF76BFE00283FF4A0
:1037B00074AF77E70397E1E702200390DEE7022D7D
:1037C00004D2ADF804706EA00290D7E703200390F6
:1037D00000221146159803F0D6FD0490CEE7022D85
:1037E00004D2ADF804706DA00290C7E704200390E6
:1037F00000221146159803F0C6FD0490BEE7022D85
:1038000004D2ADF804706CA00290B7E705200390D5
:1038100000221146159803F0B6FD0490AEE7032D83
:1038200004D2ADF804706DA00290A7E71598FFF7D9
:10383000C6FE04465CB11698FFF79AFE60B10821F7
:10384000039140EA0440049098E70AE019E0ADF8DB
:1038500004706BA0029091E7ADF804706EA0029026
:103860008CE7022D04D2ADF8047071A0029085E7B8
:103870000720039000221146159803F04CFD049098
:103880007CE7734C73A106A8226803F01BFC06A812
:10389000FFF7C3FE76A106A8626803F013FC06A832
:1038A000FFF7BBFE6AE700000000034000040020B1
:1038B00062746E5F6573630062746E5F6F6B0000AD
:1038C00062746E5F6C6566740000000062746E5F07
:1038D000726967687400000062746E5F656E636F82
:1038E00064657200646F776E000000007570000000
:1038F00075705F73686F72740000000075705F6CA4
:103900006F6E6700686F6C64000000007265706520
:10391000617400007C00002038090020C80A0020E3
:103920006F6E00006F6666007365745F766F6C740F
:10393000616765007365745F63757272656E7400AC
:103940007365745F63757272656E745F6C696D69BF
:10395000740000006B657900656E636F6465725F6B
:1039600064656C74610000006765745F74696D65FF
:103970005F70726F66696C696E6700005C000020A2
:103980004552523A206D697373696E6720617267A0
:10399000756D656E74205B6D565D0D004552523A33
:1039A000206D697373696E6720617267756D656EEE
:1039B00074205B6D415D0D004552523A206D697374
:1039C00073696E6720617267756D656E7420283249
:1039D000302F3430295B415D0D0000004552523AD2
:1039E000206D697373696E67206B657920636F6DF5
:1039F0006D616E6420617267756D656E74730D0024
:103A00004552523A20756E6B6E6F776E206B6579FA
:103A100020636F64650D00004552523A20756E6B4D
:103A20006E6F776E206B657920747970650D00007C
:103A30004552523A206D697373696E6720617267EF
:103A4000756D656E74205B7469636B735D0D00004A
:103A5000180000205379737469636B20686F6F6B73
:103A6000206D6178207469636B733A2025640D00C2
:103A700054696D65723220495352206D617820740B
:103A800069636B733A2025640D0000008CB0DFF889
:103A9000309169464846FFF746FD002208210A207A
:103AA00000F007FA474E3060B8B30322002101202E
:103AB00000F0FFF9706020B100231A46194600F0AB
:103AC00085FA706850B300231A46194600F034FB9B
:103AD0004FF000584FF0FF3700233A460AA93068EC
:103AE00000F02AFBBDF8280001281AD0022818D0BF
:103AF000B0F5807F17D0344C204603F0A1FC05467A
:103B0000444513D2642D00D964252A4621462F4806
:103B100003F029FD2D48009009E000E000E0FEE7F9
:103B2000FEE70B9CE8E7284C241FE5E70094069588
:103B300000216A460846FDF72FFD01210020FDF710
:103B4000B2FD012202214846FDF780FC00233A46DF
:103B50001946706800F0F0FABDF828000228BBD1C1
:103B60000B9801F054F8B7E738B500200090184CD6
:103B7000A06AC0070ED11248816C89070AD5816CF2
:103B800021F0020181640F4800236A46194640680B
:103B900000F081FAA06A800709D40E480E490A682D
:103BA00002614A684261896881610220A062022143
:103BB0000020FDF798FD012801D1FDF782FD38BDF9
:103BC000000003407C000020E48F0008D40800209F
:103BD0000080024000040020C80A0020052800D30D
:103BE0000020474951F8200070474649421E8A602C
:103BF000400848617047434A516B40F60C43994373
:103C000018B140F60800014302E040F204400143CD
:103C1000516370470EB50020019080468346002214
:103C200004210A2000F045F93549091F086080BBCE
:103C3000FEE788B2090C404554D98046019151E015
:103C4000D84500D901244FF0000A062C40D2DFE805
:103C500004F03F030C1A23370198FFF7BFFF81469A
:103C60000224C3464FF0000839E0D9F80400009060
:103C700099F800700098384303D009F1080903242B
:103C80002DE000242BE02FB17F1EBFB2009E042444
:103C900025E027E0022422E03088758855EA0001FB
:103CA00007D0361D38B1FFF7A0FF0120FFF7A3FFB3
:103CB00004E0032413E00020FFF79DFF05240EE03D
:103CC00025B16D1EADB24FF0010A08E0042406E0F4
:103CD0004FF0000B0020FFF78EFF4FF0010ABAF102
:103CE000000FB2D006480023001F5A1E02A9006828
:103CF00000F022FA029911F5803FA1D099E7000067
:103D00009000002000000740FCF77AFAFEE7A0F1DF
:103D100020004FF08073C36181612849416140F800
:103D2000202970474FF0E0204FF6FF114161072135
:103D30000161704710B52248016841F47F010160BC
:103D4000016841F07F410160FFF7ECFF1D49002051
:103D50000860FCF72DFA002010BD704718494FF09D
:103D600080501C390860BFF34F8FBFF36F8F7047CF
:103D700010B5FCF745FA13480168491C0160BFF310
:103D80004F8FBFF36F8F10BD0E490868401E08604B
:103D9000002801D1FCF73BBA704710B5FCF730FAA8
:103DA00000F09BFB20B106494FF080501C390860A1
:103DB000BDE810400020FCF72ABA0000093D0008C9
:103DC00020ED00E0A400002000F1080141604FF068
:103DD000FF328260C16001610021016070470021F3
:103DE0000161704742684A6093688B6093685960CC
:103DF000916008610168491C0160704730B50C682A
:103E0000621C02D000F1080202E0026904E01A46D6
:103E100053681D68A542FAD953684B6099608A605F
:103E2000516008610168491C016030BDD0E9012181
:103E30009160D0E90112516001694A68824201D162
:103E400082684A60002202610868401E086070476C
:103E500070B504460D46FFF78BFFD4E90F122068BA
:103E600001FB020060600020A0632068A060E06B9E
:103E7000226C2168401E00FB0210E0604FF0FF3012
:103E80006064A06404F110004DB1FFF79DFF04F1E0
:103E90002400FFF799FFFFF777FF012070BD21692C
:103EA0000029F8D000F0C7FD0128F4D1FFF756FF34
:103EB000F1E72DE9F04105460F460026B5B14C204B
:103EC00000F05FFE04468CB105FB07F0401C00F0DB
:103ED00058FE206038B1E563276401212046FFF7D2
:103EE000B7FF264602E0204600F091FE3046BDE8CE
:103EF000F08170B50446FFF73BFF04F124050AE0AA
:103F0000606A58B1284600F096FD08B100F0EAFD5D
:103F1000A06C401EA064A06C0028F1DC4FF0FF35BF
:103F2000A564FFF731FFFFF723FF04F110060AE055
:103F3000206958B1304600F07EFD08B100F0D2FD96
:103F4000606C401E6064606C0028F1DC6564BDE854
:103F50007040FFF719BF10B50446FFF709FFA06BCB
:103F6000E16B884201D1012400E00024FFF70CFF3F
:103F7000204610BD70B504461546226C12B37DB1C3
:103F8000E06803F07CFAE168206C091AE1602268BD
:103F9000914202D26168081AE060022D0DD011E052
:103FA000A06803F06CFA216CA0680844A060616806
:103FB000884207D32068A06004E0A06B10B1A06B1A
:103FC000401EA063A06B401CA06370BD2DE9FF41A3
:103FD00082B0044688461F4600250026FFF7C8FE2B
:103FE000A06BE16B884205D3022F03D00498A8B1DF
:103FF000C5B11BE03A4641462046FFF7BBFF606A69
:1040000038B104F1240000F016FD012801D1FFF7BA
:10401000A5FEFFF7B9FE012006B068E7FFF7B4FE82
:104020000020F9E7684600F032FD0125FFF7ACFEFD
:1040300000F01FFBFFF79CFE606C401C00D1666423
:10404000A06C401C00D1A664FFF79EFE04A9684640
:1040500000F023FD30B12046FFF74BFF00F0A4FA3B
:104060000020D9E72046FFF776FF70B104F1100079
:10407000049900F0C6FC2046FFF73BFF00F094FADD
:104080000028ABD1FFF76AFEA8E72046FFF731FF13
:1040900000F08AFAA2E72DE9F04104460F461546E2
:1040A0001E46FCF7ADF88046A06BE16B884207D353
:1040B000022E05D000244046FCF7A9F8204616E75A
:1040C000324639462046FFF755FFA06C401C04D00D
:1040D000A06C401CA0640124EDE7606A0028FAD0BF
:1040E00004F1240000F0A7FC0028F4D0002DF2D049
:1040F00001202860EFE710B50446FFF739FEA06BFA
:1041000020B10024FFF740FE204610BD0124F9E74E
:1041100030B40C460368002B0CD0026CC16811440B
:10412000C1604568A94200D3C360C168204630BC65
:1041300003F0A5B930BC70472DE9FF4182B00446B9
:1041400088461F4600250026FFF712FEA06B10B31D
:10415000E56841462046FFF7DBFF6FB1E560606A26
:1041600030B104F1240000F066FC08B1FFF7F6FD61
:10417000FFF70AFE01204FE7A06B401EA0632069F5
:104180000028F5D004F1100000F055FC0128EFD113
:10419000FFF7E4FDECE7049808B125B107E0FFF76D
:1041A000F3FD002038E7684600F071FC0125FFF7B9
:1041B000EBFD00F05EFAFFF7DBFD606C401C00D108
:1041C0006664A06C401C00D1A664FFF7DDFD04A965
:1041D000684600F062FC30B12046FFF78AFE00F02E
:1041E000E3F9002018E72046FFF785FF70B104F1DE
:1041F0002400049900F005FC2046FFF77AFE00F049
:10420000D3F90028A0D1FFF7A9FD9DE72046FFF7CD
:1042100070FE00F0C9F997E72DE9F04104460F461A
:104220001546FBF7EDFF0646A06BE0B13946204688
:10423000FFF76EFFA06B401EA063606C401C04D0B3
:10424000606C401C606401240EE020690028FAD0F4
:1042500004F1100000F0EFFB0028F4D0002DF2D0A4
:1042600001202860EFE700243046FBF7D0FF20460E
:104270003DE62DE9F04104460F46FBF7C1FF064637
:10428000A06B38B1E56839462046FFF741FFE5608D
:10429000012400E000243046FBF7B9FF204626E663
:1042A00010B50446FFF764FDA46BFFF76DFD2046D3
:1042B00010BD10B50446FFF75BFDD4E90E10441A9B
:1042C000FFF762FD204610BD806B704710B50446B5
:1042D000206800F09CFC2046BDE8104000F097BC30
:1042E000806B08B10020704701207047816BC06B64
:1042F000814201D1012070470020704770B5002431
:10430000FE4D04EB840005EB8000FFF75DFD641CAF
:10431000052CF6D3F9486430FFF756FDF74878309E
:10432000FFF752FDF5488C30FFF74EFDF348A03003
:10433000FFF74AFDF148B430FFF746FDEF49F0487A
:10434000643101631431416370BD70B50446154694
:104350000023E218C85C82F83400C85C10B15B1C12
:10436000102BF6D3002084F84300052D00D304253C
:10437000E562201DFFF733FD04F11800FFF72FFD64
:104380002461C5F10500A061646270BD70B5064688
:104390000D46442000F0F5FB044644B1B60045B19B
:1043A0002846206348B1A522314603F0ADF82046E7
:1043B00070BD304600F0E5FBF3E7204600F027FC37
:1043C0000024F4E72DE9FF4F81B08246DDE90E6855
:1043D000109917469B463846FFF7D8FF0446C84D4C
:1043E000F4B3216B781E01EB800020F007090097E1
:1043F00032462046119B0299FFF7A7FF5A465146C5
:104400004846FFF784FC2060B8F1000F01D0C8F8DF
:104410000040FFF7ADFCA868401CA860286810B1F8
:10442000686938B10BE02C60A868012807D1FFF754
:1044300065FF04E02868C06AB04200D82C60A86A12
:10444000401CA862E06A2969884200D92861AB490A
:1044500000EB800001EB8000211DFFF7C3FC00E0B2
:1044600003E00124FFF790FC01E04FF0FF34012C42
:1044700007D1686928B12868C06AB04201D2FFF745
:104480006DFC05B02046BDE8F08F70B50446FFF71F
:104490006FFC9B4D04B92C68201DFFF7C7FCA06A78
:1044A00018B104F11800FFF7C1FC9448211DA03099
:1044B000FFF798FC6868401C6860A86A401CA86206
:1044C000FFF762FC6869002806D02868844203D19F
:1044D000BDE87040FFF742BC70BD2DE9F0470025F4
:1044E000874FB86950B1F869401CF861FDF792FE3A
:1044F000386A00B101252846BDE8F087F868401CFD
:10450000F860FE684FF0FF3976B9386B796B396324
:104510007863786A401C7862386B0068A0B1386BA9
:10452000C068C0684068F862F86ADFF8D0818642E7
:104530000FD3386B006850B1386BC068C4686068CE
:10454000864215D2F86204E0C7F82C90ECE7C7F871
:104550002C903868C06A00EB800058F820000128D1
:1045600000D90125F8690028C2D1FDF753FEBFE745
:10457000201DFFF75BFCA06A18B104F11800FFF7DB
:1045800055FCE06A3969884200D9386100EB800047
:1045900008EB8000211DFFF725FCE06A3968C96A35
:1045A0008842C6D30125C4E72DE9F0410027FFF773
:1045B000DFFB534DA869401EA861A869D8BBA86855
:1045C000C8B3DFF83881012608F18C081CE0D8F860
:1045D0000C00C46804F11800FFF728FC201DFFF749
:1045E00025FCE06A2969884200D92861434900EB2B
:1045F000800001EB8000211DFFF7F4FBE06A2968D1
:10460000C96A884200D32E62D8F800000028DED1A3
:10461000E86938B909E0FFF760FF00B12E62E86988
:10462000401EE861E8690028F5D1286A012802D116
:104630000127FFF793FBFFF7A7FB3846BDE8F081A2
:1046400070B504462E4D28684460E868844206D25E
:104650002968686B091DBDE87040FFF7CFBB29686A
:10466000286B091DFFF7CAFBE86A844200D2EC629E
:1046700070BD23488169491C8161704770B505464A
:104680000C460022FFF7F5FF1D4EF0682B681C4416
:10469000834205D9A34208D9844206D9012204E005
:1046A000A34201D8844200D901222C6032B1306883
:1046B000001DFFF7BBFB2046FFF7C2FFFFF774FFAB
:1046C000002803D1BDE87040FFF748BB70BD10B5AE
:1046D000024600206AB1FFF7CCFF0948C1688C1878
:1046E0000068001DFFF7A2FB2046FFF7A9FFFFF7B8
:1046F0005BFF002808D1BDE8104003E0D40A002089
:10470000A8000020FFF72ABB10BD10B50446FFF734
:104710002FFB0CB9F5480468E46AFFF735FB204627
:1047200010BD2DE9F04104460D460026052D00D3AD
:104730000425FFF71DFBED4F04B93C68E06AA84271
:104740002DD0854208D939688C4209D03968C96AA8
:10475000A94205D8012603E039688C4200D1012620
:10476000E562C5F10501A161E14D00EB80006169E1
:1047700005EB800081420ED1201DFFF757FBE06A58
:104780003969884200D9386100EB800005EB800070
:10479000211DFFF727FB012E01D1FFF7DFFABDE84E
:1047A000F041FFF7F1BAD149886910B101200862E0
:1047B000704700200862CE4A02E00869401E086186
:1047C000086900EB800052F820000028F5D0086945
:1047D00000EB800002EB800042685268426000F10A
:1047E00008039A4201D1526842604068C06808607C
:1047F000704770B50446FFF7BBFABC4D04B92C688E
:10480000201DFFF713FBA06A18B104F11800FFF791
:104810000DFBB748211DB430FFF7E4FAFFF7B4FAF7
:10482000286884420DD1686918B1BDE87040FFF76F
:1048300095BAAF48A968B4300068884202D1002018
:10484000286070BDBDE87040ADE70021A84B42690B
:10485000B4339A4206D1806AA3F12802904201D073
:1048600000B901210846704770B50446002C25D0D8
:104870009E4D2868844221D0FFF77AFA2046FFF740
:10488000E4FF012816D1201DFFF7D0FAE06A29695C
:10489000884200D92861964900EB800001EB800036
:1048A000211DFFF79FFAE06A2968C96A884201D38F
:1048B000FFF754FABDE87040FFF766BA70BD2DE906
:1048C000F04104460025FBF79BFC07462046FFF716
:1048D000BCFF012808D1854EB06950B1844804F16D
:1048E00018018C30FFF77EFA3846FBF790FC28461B
:1048F000A4E6E06A3168C96A884200D30125201D18
:10490000FFF794FAE06A3169884200D9306178494A
:1049100000EB800001EB8000211DFFF763FAE3E765
:1049200010B50446206B00F072F92046BDE8104037
:1049300000F06DB970B56E4E6C4DA0361CE0FFF7FF
:1049400098FE306820B10024FFF72EFEA4B901E0E4
:104950000124F9E7FFF70CFAF068C468201DFFF79F
:1049600065FAA868401EA8606868401E6860FFF786
:104970000BFA2046FFF7D4FF68680028DFD170BD2E
:104980005B4CFFF7D7FF20680128FAD9FFF7E6F95B
:10499000F7E71FB500240094019402942346802277
:1049A00054A156480394FFF70DFD012809D1FBF7E8
:1049B00027FC4E4801214161C460BDE81F40FFF75C
:1049C000B9B91FBD10B5FBF71BFC48490020486171
:1049D000BDE81040FFF7C1B910B5FFF7C9F943486A
:1049E000C468FFF7D1F9204610BD10B5FBF708FCED
:1049F0003E49CC68FBF70BFC204610BD3B48806865
:104A0000704770B50D46394C21681831FFF7F6F93B
:104A10002068001DFFF70AFA681C04D0E0682844EB
:104A2000BDE870400CE62168BDE870403048091DC3
:104A3000B430FFF7D7B970B5C068C46804F1180086
:104A40000646FFF7F3F9294DAA696AB128483146AD
:104A50008C30FFF7C7F9E06A2968C96A884214D325
:104A600001200121296270BD201DFFF7DFF9E06AF6
:104A70002969884200D928611D4900EB800001EBBB
:104A80008000211DFFF7AEF9E5E7002070BD174952
:104A90004A6A0260C9684160704770B504460D46B5
:104AA000FFF766F91149C8682A68531C08D02368C3
:104AB000496A8B4206D06168814203D801240DE027
:104AC00000240BE06168401A904206D2101A286058
:104AD0002046FFF7DCFF002400E00124FFF754F933
:104AE000204670BD0149012008627047A8000020DF
:104AF000D40A002049444C450000000081490008C8
:104B000030B5544900E011460A688242FBD34B6835
:104B10005C18844203D140681844486008460D6818
:104B200044682318AB420DD14A4B0C3B1B689A4298
:104B300006D05268224442600A681268026002E0AD
:104B4000036000E00260814200D0086030BD42484E
:104B500020F007013F4801600023436044F2F83031
:104B6000084408383B4A0C3A10604360036044F242
:104B7000F0334B600860506808385060D806906089
:104B800070472DE9F04105460026FFF772FD314FD1
:104B90000C3F386808B9FFF7DAFFB868054231D131
:104BA0003DB10835680704D005F00700C0F10800E2
:104BB00005443DB37868854224D8264908460468F0
:104BC00001E0214604466068A84202D2206800281D
:104BD000F7D13868844215D00E680836206808601E
:104BE0006068411B102904D9601941606560FFF7B6
:104BF00087FF60687968091A7960B968084360605E
:104C000000202060FFF7D0FC3046BDE8F08170B591
:104C1000002819D0083804460E4D60680C3DA9687C
:104C2000084211D02268002A0ED188436060FFF745
:104C300020FD60686968084468602046FFF760FFEF
:104C4000BDE87040FFF7B0BC70BD02480C3840684A
:104C500070477047EC000020A40B002007B59DF8BA
:104C6000040008284AD006DC354A0128117A1AD0F7
:104C7000022843D104E0092840D00B283ED11AE095
:104C800041F0100040F0400040F08000107201211F
:104C90002B4801F0E0F82B492B4800F049FD2A4849
:104CA00000F0E8FF2AE0507A20F00100507221F075
:104CB0004000107222E09DF8050005281ED1BDF8C5
:104CC000060001281AD12048007AC0060BD5002121
:104CD0001D4801F08CF801211C4801F088F81B48A0
:104CE00000F0C8FF0AE00021184801F080F8012117
:104CF000154801F07CF8144800F0BCFF01200EBDFF
:104D000010B500210E4801F02AFA0D481049416102
:104D1000022180F820100F4941620B4A0A600B4AB9
:104D20004A6000218181C181C021018244214182E8
:104D300000F063F9BDE81040014800F0E3BB00005B
:104D40009C4F0020B4900008C8510020145200204D
:104D50005D4C0008F400002010B5FE49884207D1E0
:104D6000886A00EB80004004000C00F0AAFC0AE016
:104D7000F8494831884206D1886A00EB8000400437
:104D8000000C00F0A8FC002010BD2DE9FC410446F9
:104D90004FF00106607A4FF00C05C0074FF0000796
:104DA0001CD0EC48844219D1207A00070BD5022090
:104DB00001F008FCCDE90056062328225821E648D8
:104DC00001F0CCFC0AE0012001F0FCFBCDE900572A
:104DD000062328225821E04801F0C0FC607AC00771
:104DE0001DD0DC484830844219D1207A00070BD509
:104DF000022001F0E7FBCDE9005606232822B82166
:104E0000D54801F0ABFC0AE0012001F0DBFBCDE965
:104E1000005706232822B821CF4801F09FFC00202C
:104E2000BDE8FC8137B501249DF804100C2906D09B
:104E3000DDE9011201F0A5FA044620463EBD90F8D6
:104E40002410090705D5DDE9011201F09AFA04469C
:104E5000F3E740218DF8041001A900F069FCECE7AC
:104E600010B5012408780C2802D00024204610BD7B
:104E7000B1F90220002A04DA4FF0000000F035FCFE
:104E8000F4E7F3DD4FF0010000F02FFCEEE71CB576
:104E9000417AC90721D0AF49483988421DD1007AEB
:104EA0004FF00C0400070CD5022001F08BFB012011
:104EB000CDE90040062338228021A74801F04EFCAE
:104EC0000BE0012001F07EFB0020CDE9004006232D
:104ED00038228021A04801F041FC00201CBDF7B51C
:104EE000064601259DF80410012904D0092947D060
:104EF0000B297AD152E09748A03001F03FFE954C43
:104F0000A034207A000632D5002001F05BFB10208F
:104F100001F071FB0123C0223721002001F09AFB30
:104F200001230D223821302001F0E3FB01230D2263
:104F300038218A2001F0DDFB884801F089FC01233B
:104F40002922022186A001F01AFD012329224B21EA
:104F500085A001F014FD01232922622180A001F027
:104F60000EFD01232922AB2180A001F008FD607A0B
:104F700020F001006072207A20F0400020723AE0B8
:104F8000DDE90112304601F057F80546012D32D116
:104F900070480121A03000F0A5FE2CE09DF805200E
:104FA000BDF80610012A01D1012924D0012A1CD103
:104FB00007291AD167484FF04004007A00070BD543
:104FC0006448483000F056FE8DF80440614801A95D
:104FD000483000F0ADFB08E05E4800F04BFE8DF875
:104FE000044001A95B4800F0A3FBDDE90112304653
:104FF00001F022F805462846FEBD2DE9F05F014686
:105000005448A03001F0ABF852495948A0314861EA
:10501000082081F8200001F12C0048622C31A0F515
:105020000B70086038304860383088603830C860AD
:105030003830086100F1380608464661454C846105
:10504000A0F18405C56100202C398881C881C02069
:105050000882442048820846407A20F002004872C4
:10506000084690F8280020F0010081F82800A1F5FA
:10507000007001F08DFAA4F5B07101208881C8811B
:105080005E20088220204882062081F8280001F155
:105090002C0008623748486201F50071A1F5E47000
:1050A00001F076FAA4F594704FF06109A0F80C9025
:1050B000A4F594710120C8815E20088220204882D6
:1050C000062081F8280001F12C0008622948486276
:1050D00001F5E471A1F5C87001F05AFAA4F1F001EC
:1050E0008D2088813920C881322008820B20488297
:1050F000062081F8280001F12C0008621748486258
:1051000001F5C871A1F5AC7001F042FAA4F1B80143
:10511000372088813920C881282008820B204882C6
:105120000846052780F828702C3008620B48486232
:1051300001F5AC71A1F5907001F02AFAA4F180019B
:10514000012088813920C88108464FF02D08A0F839
:10515000108011E02851002070B100088CAB0008CD
:105160005345543A00000000560000004100000082
:10517000DF4E000830B100080B204882084680F856
:1051800028702C300862A748486201F590713046BB
:1051900001F0FEF9A6F80C903920F0811920308238
:1051A0000B20708286F82870A4F11C0030629D48A4
:1051B0007062307A40F0010030720D20F072707A27
:1051C00020F002007072A4F11000012101709649D4
:1051D00041600C2101729549C16002273776F06168
:1051E00000F1B001103001F06FF904F10804DFF8AC
:1051F0004092C4F80C904FF01E00A0804FF0220A9D
:10520000A4F806A0A4F808804FF0150BA4F80AB083
:105210004FF0000084F83D004FF0010084F83E009C
:105220004FF00B00E070834EA661E777A7774FF051
:1052300003006077207F40F01000207741F20400E7
:10524000A0624FF00000E062607820F00200607021
:1052500005F15801284601F037F905F10805C5F8B0
:105260000C904FF07E00A880A5F806A0A5F8088055
:10527000A5F80AB04FF0000085F83D004FF001009E
:1052800085F83E004FF00C00E870AE61EF77AF7725
:105290004FF003006877287F40F01000287741F234
:1052A0000400A8624FF00000E862687820F0020075
:1052B000687061484FF001010170604941604FF032
:1052C000C10101725E49C160277460612F74686119
:1052D000BDE8F09F70B503F00BFE5A4903F046FDA0
:1052E00003F018FD584C02460B46256A57A1284684
:1052F00001F0E8FE94F8290040F0020084F829004B
:10530000207A40F04000207270BD0A21B0FBF1F11C
:105310004948903800F067BF70B503F0E9FD49498E
:1053200003F024FD03F0F6FC474C024638340B46EC
:10533000256A48A1284601F0C5FE94F8290040F0EE
:10534000020084F82900207A40F04000207270BDED
:105350000A21B0FBF1F13848483800F044BF70B57D
:1053600003F0C6FD374903F001FD03F0D3FC364CD2
:10537000024670340B46256A38A1284601F0A2FE89
:1053800094F8290040F0020084F82900207A40F0C7
:105390004000207270BD10B502462B4CB023A834DB
:1053A00030A1206A01F08EFE94F8290040F002003E
:1053B00084F82900207A40F04000207210BD10B51A
:1053C000214C0146E0340129206A0DD027A101F0CB
:1053D00079FE94F8290040F0020084F82900207A30
:1053E00040F04000207210BD22A101F06BFEF0E7FA
:1053F00010B5114C0100A4F1D804206A0DD01FA1F2
:1054000001F060FE94F8290040F0020084F82900C1
:10541000207A40F04000207210BD19A101F052FE28
:10542000F0E700008CAB00088F4E0008614E0008CA
:10543000254E000850AD0008B85100208B4D0008E3
:10544000594D000800007A44C84F002025322E3202
:105450006676000025322E326661000025332E323A
:1054600066570000253264256343000043682E31EF
:105470003256000043682E3556000000343041009B
:105480003230410037B501259DF80410012908D0BC
:1054900009292BD0DDE9011200F0CEFD0546284692
:1054A0003EBD2C4801F06AFB2A4C207A000614D538
:1054B000002001F087F8284801F0CAF901230022F2
:1054C000142126A001F05BFA274801F0C1F901235D
:1054D0001E22142125A001F052FA607A20F001006A
:1054E0006072207A20F040002072D8E7DDE90112D6
:1054F00000F0A2FD0546012DD1D10121154800F093
:10550000F1FBCCE710B50146124800F028FE114827
:1055100018494161082180F8201000F12C024262F4
:105520000021116051609160D16011615161916100
:10553000D1618181C181C021018244214182417AAE
:1055400021F00201417290F8281021F0010180F849
:10555000281010BD14520020909F000853657474E9
:10556000696E6773000000008CAB0008544F444F15
:105570002100000085540008042811D004DC012813
:1055800008D0022804D109E0082805D0102809D045
:1055900000207047012070470220704703207047A9
:1055A0000420704707207047C0B270471CB5002226
:1055B00008210A20FEF77DFC534D286028B3FFF731
:1055C0009FFB524800F06FF9514C4FF0FF3600231B
:1055D000324669462868FEF7AFFD0098112854D07E
:1055E00014DC00B3012824D0022834D01028EED1D6
:1055F00048480088FFF76EFE47480088FFF78CFE9A
:1056000046480068FFF7ABFEE1E7FEE7122852D0FC
:1056100013282CD0142825D01528D8D12068408AEA
:10562000FFF796FED3E700F081F93D48FCF75EFFF7
:10563000CDE7019880B2FFF79FFF0746002FC6D045
:105640000198000CFFF7B0FF01460029BFD0384693
:1056500000F01DFABBE7019800B20028B7D000F0B7
:1056600026FAB4E720684088FFF74FFEAFE72068CE
:10567000407C012807D00020FFF7BAFE2068408A4E
:10568000FFF766FEA3E70120F6E720680078FFF742
:1056900096FE20684088FFF738FE2068408AFFF7B2
:1056A00057FE2068407C012803D00020FFF7A0FEB1
:1056B0008DE70120FAE71B48B0F90000FFF76BFE09
:1056C00085E7194907220A604860184800231A46EE
:1056D0000068FEF77BBC144908220A604860134842
:1056E00000231A460068FEF771BC0F49012808D054
:1056F000052008600D4800231A460B490068FEF794
:1057000065BC06200860F5E7FC0000209C4F0020E7
:105710004C00002064000020660000206C00002087
:1057200070530020540000206052002050000020E0
:1057300010B5FE4A9378142B1BD253780C6803EBF8
:10574000430302EB83039C6089889981517801EBC4
:10575000410102EB810148609078401C90705078C4
:10576000401CC0B25070142801D10020507001209C
:1057700010BD002010BDED4A9378E3B1137803EB20
:10578000430302EB83035B680360107800EB400087
:1057900002EB800083680B60808988809078401ECF
:1057A00090701078401CC0B21070142801D10020F5
:1057B000107001207047002070470EB50CE0DDE945
:1057C000001243699847012806D00298406818B132
:1057D000029002980028F2D1694602A8FFF7CBFF99
:1057E0000028F6D10EBD03B5D1484068002802D08C
:1057F0006946FFF79DFF0CBD30B5039D002810D111
:10580000CA4C103C218060802046007912B140F0E3
:10581000010001E020F0010020F002002071A360EF
:10582000E56030BD002808D1C048103809B100211A
:105830004180017941F0020101717047002808D1CF
:10584000BA48103809B100214180017921F00201E4
:10585000017170477CB50546B648016BC06ACDE959
:105860000001002D1ED1B14C103C2079810719D5C3
:105870006188491C89B261802288914212D300213B
:105880006180C10702D020F002002071A06820B121
:105890008DF801506946FFF74BFFE168002901D000
:1058A000284688477CBD70B5A04900258D700D70D5
:1058B0004D7000219D4B103B03EB0112147924F035
:1058C00002041471491CC9B20029F5D09849086036
:1058D0004D609849FFF72CFFBDE870406DE770B54B
:1058E000B1F90430B1F900609A1B002A06DDB1F964
:1058F0000620B1F90240111B002901DC002070BD17
:10590000B0F90C50AB420DDBB0F90E108A4209DB46
:10591000028A2A44521EB24204DB408A0844401ED6
:10592000A04201DA002070BD012070BD2DE9FF41C9
:105930007F480468B4F90E10B4F90C0001F012F9B4
:10594000207A40060AD57B486369D0F8061000919A
:105950004089ADF804002046019A9847207A410713
:105960006DD594F8221094F82020914251D24A1C0F
:1059700084F82220626A52F82150002DE0D02A7A61
:10598000D306DDD5000604D542F0800040F040008B
:105990002872207A00062FD4287A40062CD5A889B0
:1059A000ADF80800E889ADF80A00A8892A8A1044F1
:1059B000401EADF80C00E8896A8A1044401EADF81C
:1059C0000E00491CCFB213E0606A50F827606EB138
:1059D000307AC0060AD502A93046FFF780FF28B109
:1059E000307A40F0800040F0400030727F1CFFB2FF
:1059F00094F82000B842E7D8287A410601D440073D
:105A00009ED52C46B4F90E10B4F90C0001F0AEF896
:105A100096E7002184F8221020F080002072606850
:105A200048B1E089404201B2A089404200B201F091
:105A30009DF8646884E7FFF7C0FEBDE8FF8120F0B1
:105A400080002072E089404201B2A089404200B249
:105A500001F08CF8646873E71CB50A238DF80030F8
:105A60008DF80120ADF80200ADF80410304A5068FE
:105A700030B1417A490703D56946FFF759FE03E083
:105A800069461068FFF754FEFFF797FE1CBD1CB572
:105A90000B228DF800208DF80110ADF8020024488B
:105AA00069464068FFF744FEFFF787FE1CBD1CB542
:105AB0000C218DF8001000218DF80110ADF80200C6
:105AC0001B4869464068FFF733FEFFF776FE1CBDB2
:105AD00010B500242046FFF7BDFE641CE4B2002C84
