:020000040800F2
:10000000C85900200D020008150200081702000858
:10001000190200081B0200081D0200080000000071
:100020000000000000000000000000008101000846
:100030002102000800000000B5010008273A00086E
:10004000270200082702000827020008000000001D
:10005000000000002702000827020008270200080D
:1000600027020008000000002702000827020008FD
:1000700027020008000000002702000831310008B4
:1000800027020008270200080000000027020008DD
:10009000270200080000000000000000000000002F
:1000A000000000000000000000000000270200081F
:1000B000270200082702000827020008270200087C
:1000C00000F002F800F04CF80AA090E8000C82441E
:1000D0008344AAF10107DA4501D100F041F8AFF2FB
:1000E000090EBAE80F0013F0010F18BFFB1A43F016
:1000F00001031847687C0000887C0000103A24BF88
:1001000078C878C1FAD8520724BF30C830C144BF7C
:1001100004680C60704700000023002400250026BE
:10012000103A28BF78C1FBD8520728BF30C148BF5A
:100130000B607047662906F0A082632905F0B7803E
:10014000002070471FB506F08CFA05F0DFF80400B8
:100150000020002105F050FEE0601FBD10B510BD6D
:1001600005F0FCF91146FFF7EDFF01F002FB05F089
:100170001AFA03B4FFF7F2FF03BC05F05FFA0000C0
:100180001A4B19680868B0E8F00F80F309884FF03F
:10019000000080F311884EF00D0E70470000000043
:1001A00003480068006880F3088862B600DF00BF7B
:1001B00008ED00E0EFF309800C4B1A6820E9F00F1E
:1001C000106008B54FF0BF0080F3118804F0A9FA61
:1001D0004FF0000080F31188BDE8084019680868F6
:1001E000B0E8F00F80F30988704700BF8800002056
:1001F000EFF311804FF0BF0181F31188704780F356
:1002000011887047EFF30580704700000948804768
:1002100009480047FEE7FEE7FEE7FEE7FEE7FEE7E8
:10022000FEE7FEE7FEE7FEE704480549054A064B00
:1002300070470000D1020008C1000008C853002028
:10024000C8590020C8550020C855002030B52E4C94
:10025000E46804F00204022C01D12C4800E02C4890
:10026000294CE46804F00104012C00D14008014647
:10027000254CE46804F00404042C05D1224C646885
:10028000C4F30324631C59431F4CE468C4F30124E2
:1002900024B1012C06D0022C13D10DE01C4C1D4DB5
:1002A0002C6013E0184CE468C4F30314641CB1FB25
:1002B000F4F2184C226009E04FF40044154D2C6014
:1002C00004E049F64044134D2C6000BF00BF30BD30
:1002D00000B511480C49C8610846C0680020C860D4
:1002E0000846406800204860084680680020886012
:1002F00008460069002008610846406900204861FE
:10030000FFF7A4FF00BD00000000024000093D000F
:1003100000127A00000000201000000829B1F94AFC
:10032000D2690243F74BDA6104E0F64AD2698243AC
:10033000F44BDA6170470146F24AD06820F440700D
:100340000843D060704710B5014601F0E003202B50
:1003500002D1EC4B1A6801E0EB4BDA6B01F01F04A1
:100360000123A340134201D0012000E0002010BD72
:1003700070B5002600BF1720FFF7E5FF0546761C85
:10038000B6F5C06F01D2002DF5D01720FFF7DBFFC7
:1003900008B1012400E00024204670BDDB494FF085
:1003A000844202EB41118865704700B50120FFF7D8
:1003B000F5FFFFF7DDFF0020FFF7BDFFD148C06864
:1003C0000020D049C86008464068002048600846C0
:1003D000806800208860084600690020086108469F
:1003E0004069002048610846806900208861C8484B
:1003F000C86100BD00B5FFF7D8FF0121C806FFF7AF
:100400008DFFC148C06B40F48100BF49C8630846F6
:10041000C06B00F48100C86300BDBA49896821F04F
:100420000301B84A9160012802D002280ED106E0EB
:10043000B449896841F00101B24A916007E0B149CD
:10044000896841F00301AF4A916000E000BF00BF3E
:10045000704770B5002600BF2220FFF774FF0546E5
:10046000761CB6F5C06F01D2002DF5D02220FFF723
:100470006AFF08B1012400E00024204670BDA249B3
:10048000C96B21F00301A04AD163012802D00228E0
:100490000ED106E09C49C96B41F001019A4AD16333
:1004A00007E09949C96B41F00301974AD16300E025
:1004B00000BF00BF704770B5002600BF0D20FFF7DA
:1004C00042FF0546761CB6F5C06F01D2002DF5D06F
:1004D0000D20FFF738FF08B1012400E0002420467A
:1004E00070BD0146884AD06B20F07C5040EA016024
:1004F000D063704785494FF0844202EB4111C863D5
:1005000070470146804AD06B20F4F81040EA014061
:10051000D063704770B5002600BF1520FFF713FFAA
:100520000546761CB6F5C06F01D2002DF5D015201A
:10053000FFF709FF08B1012400E00024204670BD48
:1005400030B502466F4BD86820F003001043D860E6
:10055000586820F4706040EA012058606D4B4FF0FD
:10056000844404EB43139B685BB10124694B4FF057
:10057000844505EB4313DC600024664B05EB431315
:10058000DC6030BD634908314FF0844202EB411119
:10059000886070475F494FF0844202EB41118860E8
:1005A000704770B5002600BF2120FFF7CCFE05463E
:1005B000761CB6F5C06F01D2002DF5D02120FFF7D3
:1005C000C2FE08B1012400E00024204670BD0146AF
:1005D0004C4AD06820F0F00040EA0110D06070472B
:1005E00030B50246474B186920F0030010431861EC
:1005F000586820F0F00040EA01105860454B4FF079
:10060000844404EB43131B685BB10124414B4FF05E
:10061000844505EB43135C6000243E4B05EB43131C
:100620005C6030BD3B490C314FF0844202EB41111C
:100630008860704737494FF0844202EB41110860EF
:10064000704770B5002600BF2020FFF77CFE0546EE
:10065000761CB6F5C06F01D2002DF5D02020FFF733
:1006600072FE08B1012400E00024204670BD294933
:100670000C314FF0844202EB41110862704725496A
:100680000C314FF0844202EB411108617047014682
:100690001C4A506920F033000843506170470146FE
:1006A000184A506920F4706040EA01205061704798
:1006B000184910314FF0844202EB411148637047F2
:1006C0000146104A906920F0F00040EA0110906164
:1006D0007047104914314FF0844202EB41114862D7
:1006E00070470146074A906920F00F000843906167
:1006F0007047084914314FF0844202EB41110862FF
:10070000704700000000024000800D403C800D005A
:1007100010000008040002002DE9FC4F0146DFF83C
:100720007CB24FF0844E0EEB4B1BDBF804B0BBF1F8
:10073000000F01D09A4B00E09A4BDFF860B24FF007
:10074000844E0EEB4B1BDBF800B0BBF1000F00D06A
:100750005B081C46DFF844B24FF0844E0EEB4B1B97
:10076000DBF808B0BBF1000F0DD0DFF83CB2DBF8CE
:1007700004B0CBF3032B0BF1010BCDF800B0DDF887
:1007800000B004FB0BF4DFF820B2DBF80CB0CBF3C5
:10079000012BBBF1000F06D0BBF1010F08D0BBF15C
:1007A000020F26D120E0DFF8FCB1C1F800B025E04F
:1007B000DFF8F4B1DBF80CB04FF0080E1EEA1B1F97
:1007C00001D1A0460DE0DFF8E0B1DBF80CB0CBF3CF
:1007D000021B0BF1010B4FF0010E0EFA0BFEB4FBE6
:1007E000FEF8C1F8008009E04FF4004BC1F800B0FA
:1007F00004E049F6404BC1F800B000BF00BFDFF88D
:100800009CB10BF1040B4FF0844E0EEB4B1BDBF84D
:1008100004B0BBF1000F01D0614D00E0614DDFF885
:100820007CB10BF1040B4FF0844E0EEB4B1BDBF84D
:1008300000B0BBF1000F00D06D082F46DFF85CB1AF
:100840000BF1040B4FF0844E0EEB4B1BDBF808B0A2
:10085000BBF1000F0DD0DFF850B1DBF804B0CBF3E3
:10086000031B0BF1010BCDF800B0DDF800B007FB66
:100870000BF7B946DFF824B10BF1040B4FF0844EAF
:100880000EEB4B1BDBF810B0BBF1000F01D04FEAB1
:100890005909C1F80490DFF810B1DBF818B04FEA3D
:1008A0001B1010F0080F02D1DFF8F8C00BE000F0C9
:1008B000070B0BF1010B4FF0010E0EFA0BF0DFF8F6
:1008C000E4B0BBFBF0FCC1F80CC0DFF8DCB0DBF837
:1008D000180010F0080F04D1DFF8C4B0CDF804B050
:1008E0000DE000F0070B0BF1010B4FF0010E0EFABB
:1008F0000BF0DFF8ACB0BBFBF0FBCDF804B0DDF8DB
:1009000004B0C1F810B0DFF8A0B0DBF814B01BF0F1
:10091000030B06D0BBF1010F05D0BBF1020F06D1CE
:1009200003E01E4605E02E4603E0264601E03E4673
:1009300000BF00BFDFF870B0DBF814B0CBF3011BD1
:10094000BBF1000F06D0BBF1010F06D0BBF1020FC7
:1009500008D105E04FF4004206E049F6404203E0CA
:10096000324601E0624600BF00BFDFF83CB0DBF872
:1009700014B04FEA1B2010F0080F01D1924609E095
:1009800000F0070B0BF1010B4FF0010E0EFA0BF00C
:10099000B2FBF0FAC1F808A0BDE8FC8F0C00020021
:1009A00000093D0000127A000000024000210160B1
:1009B000416001614161416203210162704710B5EC
:1009C0004B8803610B890C8803EB04234C89234477
:1009D0008C892344CC881A190260CB898C881A1917
:1009E000426010BD002181800721C180002141812A
:1009F000018181810221418000210180704721B164
:100A0000426842F00202426004E042684FF6FD7321
:100A10001A40426070471AB143690B43436102E0D8
:100A200043698B4343617047024693690B408B4295
:100A300001D1012000E0002070470246D3690B423B
:100A400001D0012000E000207047026A0A430262E0
:100A5000704710B51AB1436A0B43436204E0436A1E
:100A6000CC43A4B22340436210BD8160704701466D
:100A7000886880B270470246D3680B4201D00120DB
:100A800000E00020704702460B4BD86A0B4B9A429D
:100A900005D140F0807020F0FF00084308E0084BCB
:100AA0009A4205D140F0007020F47F4040EA0120D6
:100AB000014BD86270470000000002400000044073
:100AC00000000A400021C160016141600160816055
:100AD00041618161C16170472DE9FE4F4768D0F8DF
:100AE00008C0D0F80C80D0F81090D0F814A0CDF841
:100AF00008A0D0F818A0CDF804A0D0F81CA0CDF81C
:100B000000A00022012303254FF001160C885DE0B0
:100B100014F0010F55D027EA030A91F802B00BFA3E
:100B200002FB4AEA0B0791F808A04FEA420B0AFAC7
:100B30000BFA2CEA050B4AEA0B0C28EA030A91F897
:100B40000AB00BFA02FB4AEA0B0829EA060A91F8F6
:100B500003B002F1100E0BFA0EFB4AEA0B0A91F8F1
:100B600004B00BFA02FB4AEA0B09DDF808A02AEAF6
:100B7000060A91F805B00BFA0EFB4AEA0B0A91F847
:100B800006B00BFA02FB4AEA0B0ACDF808A091F86E
:100B900009A04FEA420B0AFA0BFADDF804B02BEA7F
:100BA000050B4AEA0B0ACDF804A0DDF800A02AEAFA
:100BB000030A91F807B00BFA02FB4AEA0B0ACDF8D8
:100BC00000A05B00AD007600521C6408002C9FD191
:100BD000DFF85CA1504502D14FF01F0A01E04FF051
:100BE000000A27EA0A0AC0F804A0DFF844A1504529
:100BF00002D14FF01F0A01E04FF0000A2CEA0A0A66
:100C0000C0F808A0DFF828A1504502D14FF01F0A14
:100C100001E04FF0000A28EA0A0AC0F80CA0DFF849
:100C200010A1504502D14FF01F0A01E04FF0000A19
:100C300029EA0A0AC0F810A0DFF8F4A0504502D152
:100C40004FF01F0B01E04FF0000BDDF808A02AEA7F
:100C50000B0AC0F814A0DFF8D8A0504502D14FF01D
:100C60001F0B01E04FF0000BDDF804A02AEA0B0A8D
:100C7000C0F818A0DFF8B8A0504502D14FF01F0B04
:100C800001E04FF0000BDDF800A02AEA0B0AC0F8E3
:100C90001CA0BDE8FE8F4FF6FF710180002181701E
:100CA000C170017141718171C171017241728172B2
:100CB0007047024613680B4201D0012000E000207B
:100CC00070470146086870470268194B984201D185
:100CD0001F2300E000239A430A4302607047026822
:100CE000134B984201D11F2300E000230B439A438A
:100CF0000260704730B5134604680D4DA84201D11B
:100D00001F2500E0002524EA05021BB142EA010488
:100D1000046002E022EA0104046030BD044A90420B
:100D200001D11F2200E0002221EA02020260704786
:100D300000000B400021C1600160416081600162E0
:100D400041628162C162016341638163C163016683
:100D500041668166C166016141618161C16101676E
:100D600041678167C167016441648164C164016551
:100D700041658165C165704730B50C8804604C8859
:100D800044608C888460CC880D892C444D892C4427
:100D90008D892C44CD896319C3604C8A0D8A04EB7C
:100DA00005148D8A2C44CD8A6219026530BD00215C
:100DB000018041808180C180018141818181C18127
:100DC000018241828182C18270470A46C16812B1A4
:100DD00041F0010101E021F00101C16070470160B3
:100DE0007047416070478160704710B50B46C1681D
:100DF00021F002011144C160836010BD0146086802
:100E000080B270470A46C16821F470611144C16024
:100E100070470A46C16821F030011144C160704733
:100E20000A46C16821F0C0011144C16070470A46FA
:100E3000C16821F008011144C160704730B50C460B
:100E4000016D21F0FE01A51805EB0315294401658C
:100E500030BD0A46016D21F0F00101EB0211016580
:100E600070470A46016D21F00C011144016570477D
:100E70000A46016D21F002011144016570470A46DE
:100E8000016D21F001011144016570470146CA68F6
:100E900012F0080F01D1002000E008207047014641
:100EA000CA6812F0040F01D1002000E00120704751
:100EB00070B54D88CE8835440E8935444E89354409
:100EC0008E8905EB8615CE8935440E8AAC198D883E
:100ED0000DB104F500540A8800F1200545F82240C0
:100EE0004D8ACE8AAB198D8A05B11B1D00F16005B4
:100EF00045F8223070BD0021018041808180C18091
:100F0000018141818181C181018241828182C182CD
:100F1000704710B500F1100404EB81031A6010BD96
:100F200010B500F1700404EB81031A6010BDF0B538
:100F3000144600F1600707EB81052A6822F00802D9
:100F40001A442A60503F07EB81063460F0BDF0B5CB
:100F5000144600F1600707EB81052A6822F00802B9
:100F60001A442A60103707EB81063460F0BD10B5D3
:100F7000024602F1100000EB81031C68A0B210BD14
:100F800010B5024602F1700000EB81031C68A0B2AC
:100F900010BD30B5034603F1200505EB8104206840
:100FA00012B140F4807001E020F48070206030BD08
:100FB00030B5034603F1200505EB8104206820F4D9
:100FC00000501044206030BD30B5034603F12005C9
:100FD00005EB8104206820F480501044206030BD6F
:100FE00030B5034603F1200505EB8104206820F4A9
:100FF00060601044206030BD30B5034603F1200529
:1010000005EB8104206820F0C00000EB8210206016
:1010100030BD30B5034603F1200505EB810420689F
:1010200020F030001044206030BD30B5034603F19D
:10103000200505EB8104206820F00F00104420609B
:1010400030BD10B5024602F1200404EB81031C6898
:1010500014F4804F01D1002000E0012010BD30B514
:10106000034603F1600505EB8104206820F00300CE
:101070001044206030BD30B5034603F1600505EB38
:101080008104206812B140F0040001E020F0040067
:10109000206030BD70B54D882D018E8805EB86052A
:1010A000CE8835440E8905EB06354E8905EB86253D
:1010B0008E8905EB06230A8800F1300545F82230B9
:1010C0000D8ACE8905EB06254E8AAC1900F1400544
:1010D00045F8224070BD002141808180C18001819E
:1010E00041818181C181018241827047F0B504460E
:1010F000059E04F1300707EB8105286820F01F00EA
:10110000370107EB82071F4438442860F0BD30B533
:10111000034603F1300505EB8104206820F00C0044
:1011200000EB8200206030BD30B5034603F130058E
:1011300005EB8104206820F003001044206030BDDE
:1011400030B5034603F1300505EB8104206820F03B
:10115000100000EB0210206030BDF0B50446059E83
:1011600004F1300707EB8105286820F4F8503703B5
:1011700007EB822707EB032738442860F0BD30B522
:10118000034603F1300505EB8104206820F440603C
:1011900000EB8220206030BD30B5034603F13005FE
:1011A00005EB8104206820F4407000EB02202060F1
:1011B00030BD30B5034603F1300505EB81042068EE
:1011C00020F4805000EB0230206030BD70B5049CEC
:1011D00003EB0226351900F1400646F8215070BD98
:1011E0000146486D70470246536D0B4201D1002005
:1011F00000E001207047426D8A434265704710B598
:101200001346C26D0BB10A4300E08A43C26510BDAC
:1012100010B51346826D0BB10A4300E08A43826524
:1012200010BD30B50246546D956D2C4004EA0103A3
:101230000BB9002000E0012030BD0246104B586A77
:10124000104B9A4205D120F0FF00084340F0807017
:1012500012E00D4B9A4206D120F47F4040EA012073
:1012600040F0007008E0094B9A4205D120F47F005D
:1012700040EA014040F08060014B58627047000036
:1012800000000240000007400080074000000840C6
:1012900041480021816001610121816100210160DB
:1012A0004160704710B501463B4882684C6814F0B5
:1012B000200F02D042F0200201E022F020028260E2
:1012C0000B6803601C0A446010BD002141600121CD
:1012D000016070470146304A906811B140F08000CB
:1012E00001E020F080009060704701462A4A906833
:1012F00011B140F0400001E020F0400090607047E4
:1013000025490A6902F00102012A01D1012000E009
:10131000002070472048816941F0010181617047D8
:101320001D4A20F001030B435361902393617047E2
:1013300001461948416110228261704716484021D8
:1013400081617047144940F020028A617047124958
:10135000C868C0B2704710498A690B6942EA032025
:10136000C24340EA0240704730B50446FFF7F3FF3E
:101370002040A04201D1012500E00025284630BDD3
:1013800030B50546FFF7E7FF284201D0012400E011
:101390000024204630BD0000000005400020E34945
:1013A000086048608860C8600861486108468069D4
:1013B0000846C0690020086248628862C8627047B7
:1013C00010B5D0E9003403EB047384682344C46887
:1013D00023440469234444692344846903EB44514E
:1013E000D34AD24B1B6893430B44D04C236010BDAF
:1013F0000021016041608160C160016141618161E2
:101400007047CA4A126822F0F07101EB4052C74B94
:101410001A60704710B5C54B1A68C54BDB1C1A40E3
:10142000D0E90034234484682344C46803EB0413E4
:1014300044692344C4692344446A2344846A03EB13
:1014400044631A44B94B596821F40031036A01EB33
:101450004341B64B1A605960038BB44C2361438BF4
:10146000A3600369A36210BDB04A5168B14A11403C
:10147000D0E900231A4483681A44C36802EB0312BC
:1014800043691A44C3691A44036A02EB8342436AFC
:101490001A44836A02EB43621144A44A5160028BEE
:1014A000A24B5A61428BDA600269DA62704700210E
:1014B000016041608160C1600161416101834183DC
:1014C000C16101624162816270470146974A1068BA
:1014D00011B140F0010001E020F00100934A1060DA
:1014E00070470146914A506811B140F0010001E097
:1014F00020F001008D4A5060704701468B4A106809
:1015000020F4F87000EB0110106070470146874A24
:10151000506820F4F87000EB011050607047834968
:10152000886270478149C862704702467F4B1868DD
:1015300020F40270531818447C4B18607047024620
:101540007A4B586820F4027053181844774B58604F
:1015500070470146754A106820F008000844106082
:1015600070470146714A506820F0080008445060F6
:10157000704701466D4A106820F4007008441060FE
:1015800070470146694A506820F400700844506072
:10159000704710B50346654C206820F48060104405
:1015A00020602361A16010BD10B503465F4C6068E8
:1015B00020F48060104460606361E16010BD5B49AD
:1015C00008617047594948617047584988607047B9
:1015D0005649C86070475548006840F002005349BA
:1015E000086070475148406840F002004F49486029
:1015F00070474E48806970474C48C06970474B48F7
:10160000006A4A49496A00EB014070474748006A4E
:1016100070474648406A704700B50346FFF7EFFF42
:10162000184201D1002200E00122104600BD01460F
:101630003E4A126A0A4201D1002000E001207047B0
:1016400001463A4A526A0A4201D1002000E00120D4
:1016500070473648006A20F001003449086270473C
:101660003248406A20F001003049486270472F48F4
:10167000006A20F002002D49086270472B48406A3A
:1016800020F0020029494862704730B503460C46F5
:10169000264D296A6A6A980024B185B2294342EA34
:1016A000104203E085B2A94322EA10421F4D29628D
:1016B0006A6230BD0A461D4B196A12B141EA8001C7
:1016C00001E021EA8001194B196270470A46174B65
:1016D000596A12B141EA800101E021EA8001134B0D
:1016E0005962704710B50446FFF789FF034604EAC4
:1016F000930003400BB9002200E00122104610BD08
:1017000002460A4B196A02EA9103194009B90020FE
:1017100000E0012070470246044B596A02EA910337
:10172000194009B9002000E00120704700800840FE
:101730000000FFF10300FBF138B5002404226946E4
:10174000002000F0CFFE044642490098884201D0B4
:1017500044F001040422694640F2FC7000F0C2FE2D
:1017600004463D490098884201D044F002042046D6
:1017700038BD1FB500F094F800F092FF00F0B8F902
:1017800000F0DDF900F032FA00F0BFF800F0E4F903
:1017900000F036FD00F0DCFD00F0E8FD2F48008889
:1017A00010F0200F03D0012001F02BFA02E00020FE
:1017B00001F027FA0F200121814042094FF0E02378
:1017C00003EB8202C2F8001100BF502000F038FB8A
:1017D000552000F038FB00200123CDE900300290B5
:1017E000034680221EA103901F4802F011FD002035
:1017F0000223CDE900300290034680221BA1039012
:101800001D4802F005FD0020009001900290034663
:1018100080221AA103901B4802F0FAFC0020032347
:10182000CDE9003002900346802217A103901948A9
:1018300002F0EEFC00200223CDE9003002900346C6
:10184000802215A10390154802F0E2FC03F0ACF8E9
:1018500000BFFEE755667788112233441C00002044
:1018600047554920544F500007350008436F6E76A6
:1018700065727465720000003F2D00085365727632
:1018800069636500D93500084469737061746368E1
:10189000657200008D36000841444300413700085E
:1018A00010B50120FEF7B9FDFEF7D3FD012801D0E8
:1018B00000BFFEE707210220FEF742FE0120FEF7EF
:1018C00069FEFEF76EFE012801D000BFFEE7002092
:1018D000FEF77DFE0120FEF755FE4FF48070FEF707
:1018E0002AFD2020FEF7D3FE0020FEF7D8FE0120BF
:1018F000FEF7DEFEFEF7AAFC0121FE48FEF70EFD14
:101900000121FD48FEF70AFD10BD0EB5FB48FFF7AB
:10191000D9F8FB48FFF7D6F8FA48FFF7D3F8FA48AA
:10192000FFF7D0F8F948FFF7CDF8F948FFF7CAF804
:10193000C021F348FFF7C8F96846FFF7ACF921204A
:10194000ADF8000001208DF80A006946EB48FFF76A
:10195000C3F80420ADF8000001208DF803006946AB
:10196000E648FFF7B9F80220ADF8000001208DF835
:1019700002008DF809006946E048FFF7ADF818202D
:10198000ADF8000002208DF808006946DB48FFF73B
:10199000A3F86846FFF77FF9C020ADF800000120EA
:1019A0008DF802008DF809008DF80A006946D348C9
:1019B000FFF792F86846FFF76EF940F23770ADF81E
:1019C000000001208DF80A006946CD48FFF784F831
:1019D0004FF48060ADF800006946C948FFF77CF815
:1019E000C020ADF8000001208DF802008DF809003C
:1019F0006946C348FFF770F86846FFF74CF90420C2
:101A0000ADF8000001208DF80A0002208DF80800D2
:101A100001208DF809006946BA48FFF75DF80320F8
:101A2000ADF8000002208DF809006946B548FFF7BF
:101A300053F86846FFF72FF99720ADF80000694684
:101A4000B148FFF749F82820ADF8000001208DF8D3
:101A50000A0002208DF808008DF8090001208DF899
:101A600002006946A848FFF737F84020ADF80000AB
:101A700001208DF804006946A348FFF72DF8684659
:101A8000FFF709F94520ADF8000001208DF80A00A4
:101A900002208DF8090001208DF8020069469B485C
:101AA000FFF71AF88020ADF8000003208DF8080039
:101AB00069469648FFF710F80A20ADF800000220AA
:101AC0008DF8080069469148FFF706F86846FFF769
:101AD000E2F80C20ADF8000001208DF80A008DF826
:101AE00009008DF8020069468948FEF7F5FF0EBD32
:101AF0001FB56846FEF776FF00218648FEF7C3FF54
:101B00000420ADF800000220ADF802000020ADF87E
:101B100004000820ADF806000020ADF80800ADF87C
:101B20000A00ADF80C000220ADF80E0069467948B5
:101B3000FEF745FF01217748FEF761FF1FBD1CB589
:101B40000120FFF7C7FB4FF4807000900020019048
:101B50006846FFF7A7FB1CBD00B593B0FFF71EFC5E
:101B60000CA8FFF745FC00200C900A200D904FF4C4
:101B700000300E9040000F904000109040001190F7
:101B8000012012900CA8FFF71BFC01A8FFF78FFCA7
:101B9000042001900020029003901F200490002058
:101BA00005900690ADF81C00ADF81E004FF40060E3
:101BB0000890012009904FF4E0400A9000200B901B
:101BC00001A8FFF727FC01A8FFF74EFC0021062023
:101BD000FFF770FD00210620FFF778FD0120FFF7D9
:101BE00074FC0120FFF77DFC13B000BD00B591B07F
:101BF0000BA8FFF7DCF81F20ADF82E0040F2F31021
:101C0000ADF830000BA94448FFF7B6F805A8FFF778
:101C100072F90020ADF816004FF44060ADF81E00D8
:101C20000120ADF8140005A93B48FFF741F96846CB
:101C3000FFF751FA0020ADF802000120ADF80400D2
:101C4000ADF806000020ADF808000120ADF80A004C
:101C5000ADF80C00ADF8000069462F48FFF71AFAFE
:101C6000F9202D49486100212B48FFF7E6FA0121B0
:101C70002948FFF7AAF80BA8FFF799F80120ADF85B
:101C80002E0040F6FF70ADF830000BA92348FFF797
:101C900073F805A8FFF72FF90020ADF816004FF4F0
:101CA0004060ADF81E000020ADF8140005A91B48E7
:101CB000FFF7FEF80220ADF8140005A91748FFF75A
:101CC000F7F805A8FFF717F90020ADF816004FF454
:101CD0000070ADF81E000120ADF814000020ADF832
:101CE000260005A90D48FFF7E3F86846FFF7F3F96A
:101CF000012015E00000E02300C4130000800A402A
:101D000000000B4000800B4000000C4000800C40A5
:101D100000800E4000000A4000000740008007409D
:101D2000ADF808000220ADF80A000120ADF80C0063
:101D30000020ADF8000069467C48FFF7ABF90220AF
:101D4000ADF8000069467948FFF7A4F9002077490B
:101D5000086188614861012209157448FFF758FA43
:101D600000217248FFF769FA01217048FFF72DF84A
:101D70000BA8FFF71CF80F20ADF82E006320ADF87C
:101D800030000BA96A48FEF7F7FF05A8FFF7B3F884
:101D90000020ADF81400ADF816004FF44060ADF827
:101DA0001E0005A96248FFF783F86846FFF793F91C
:101DB0000020ADF800000220ADF804000020ADF8CE
:101DC00002000120ADF8060069465948FFF762F9A4
:101DD0000220ADF8140005A95548FFF769F8022064
:101DE000ADF800000020ADF80400ADF806000220B8
:101DF000ADF80A000120ADF80800ADF80C00694606
:101E00004B48FFF747F900204949086188610021E4
:101E10004748FFF712FA01214548FEF7D6FF11B0F7
:101E200000BD424908617047404988617047414997
:101E30008860014600EBD17252103E4B5A617047E8
:101E40003B4988617047642800DD64203849086197
:101E5000704738B500F057FC002865D172B60020F5
:101E600000F057FC00F0E7F800F005F941F2883087
:101E700000F02AFC04460020FFF7E5FF0020FFF7F2
:101E8000DFFF0020FFF7CDFF0020FFF7CDFF00218F
:101E9000294800F0E8FC0021284800F0E4FC26482E
:101EA000274B28A20A210090002000F0C9FD2348FA
:101EB000234B24A20A210090002000F0C1FD00BFA6
:101EC000204600F00CFC0028FAD100F030FC012084
:101ED00000F03BFC012000F046FC1749012000F017
:101EE000B9F91649022000F0B5F94FF47A7000F004
:101EF000EBFB044600BF204600F0F1FB0028FAD1BE
:101F00001348FEF7DFFD1348FEF7DCFD1248FEF72D
:101F1000D9FD1248FEF7D6FD1148FEF7D3FD114852
:101F2000FEF7D0FD00BFFEE738BD0000008007408F
:101F30000000084000000740D20000209207002067
:101F4000C0760008506F776572204F46460000004B
:101F500000800A4000000B4000800B4000000C4055
:101F600000800C4000800E401CB5002001905048BD
:101F70000068401E4E4908600AD10090002301AA63
:101F800069464C48006801F089FF192048490860FB
:101F900049480068401E4849086009D1002301AA49
:101FA00046494748006801F079FF322042490860FD
:101FB00044480068401E434908600AD1009000234D
:101FC00001AA69464048006801F068FF0A203D49BF
:101FD0000860019818B14FF080503C4908601CBD62
:101FE00070B5B0F1807F01D36FF07F400246B2F14F
:101FF000807F00D31EE022F07F41491E4FF0E02396
:10200000596159170723002908DA5C07260E2F4C5F
:10201000143401F00F052D1F665503E05C07250EF3
:102020002B4C655400BF00214FF0E023996107213C
:10203000196100BF70BD4FF0E020006920F0010081
:102040004FF0E02108617047224A1268111800BF62
:10205000204A12688A42FBD1704701461E4A506BE3
:1020600040F60C42904340F6080210431A4A50636F
:102070001A4A118070471849486B40F60C41884352
:1020800040F20441084314494863704700B50346D1
:102090001846FFF7E2FF00BF104800880028FBD178
:1020A00000BD00BF0D4800880028FBD1704700002C
:1020B00008000020480000200C0000208066000876
:1020C00040000020100000205000002004ED00E03F
:1020D00000E400E004000020000007401800002099
:1020E00070B504460D462646012D01D146F4807692
:1020F00000BF02216B48FEF7BEFC0128F9D1314632
:102100006848FEF7B2FC70BD70B50446204600F08A
:10211000DBFA054600BF284600F0E1FA0028FAD1B4
:1021200070BD10B50446012C04D104215E48FEF7B1
:10213000CBFD03E004215C48FEF7D1FD1420FFF73E
:10214000E3FF10BD10B50021E220FFF7C9FF002119
:102150003D20FFF7C5FF00210120FFF7C1FF00214F
:10216000E120FFF7BDFF00210846FFF7B9FF00217E
:102170002420FFF7B5FF00219020FFF7B1FF0021D9
:10218000A020FFF7ADFF0021C820FFF7A9FF002125
:10219000A620FFF7A5FF0021A420FFF7A1FF002143
:1021A0002F20FFF79DFF00214020FFF799FF00211E
:1021B000F820FFF795FF0021D020FFF791FF0021C5
:1021C0003020FFF78DFF0021B020FFF789FF0021AD
:1021D0001020FFF785FF00210846FFF781FF00244C
:1021E00005E001210020FFF77BFF601C84B240F274
:1021F0005F308442F5DB0021AF20FFF771FF10BD97
:1022000010B501212848FEF76AFD42F21070FFF771
:102210007BFF01212448FEF757FD42F21070FFF7C3
:1022200073FF0120FFF77DFFFFF78CFF00BF102138
:102230001C48FEF720FC0028F9D10220FFF771FFAF
:10224000FFF780FF00BF10211648FEF714FC00289E
:10225000F9D110BD70B506460D463046FFF761FF57
:102260000021B020FFF73CFF00211020FFF738FFCE
:1022700000210846FFF734FF002407E035F814106A
:10228000C8B20121FFF72CFF601C84B2B4F5587F5F
:10229000F4DB00BF10210348FEF7EDFB0028F9D165
:1022A00070BD000000000A4000800C4070B50024A2
:1022B0004948406820F0C000474948600A2000F0C3
:1022C00003FA06464548056815F0200F01D144F091
:1022D000100415F0040F01D044F480743E480568E2
:1022E00015F0010F01D144F0010415F0020F01D1E6
:1022F00044F0020415F0040F01D144F0040415F079
:10230000100F01D144F0080415F0200F01D144F062
:10231000200400BF304600F0E2F90028FAD12E4830
:102320000568406840F0C0002B49486015F0800FF8
:1023300001D144F0400415F0400F01D144F0800475
:102340002748048070BD0020264948808880704757
:1023500010B5002405E00020234921F81400601C7A
:10236000C4B2092CF7DBFFF7EEFF10BD2DE9F041F9
:10237000FFF79CFF1A480788FFF7E5FF002424E0D9
:102380000120A04086B2184830F814506804050CAB
:10239000374201D045F0010505F00300012802D0C5
:1023A00002280CD105E00F48408830430D49488091
:1023B00005E00C48808830430A49888000BF00BF90
:1023C000094820F81450601CC4B2092CD8DB054819
:1023D0000780BDE8F081000000000B4000800A404B
:1023E0001A0000201C000020C000002010B5044688
:1023F00014F0010F04D080210A48FEF770FC03E0BE
:1024000080210848FEF760FC14F0020F04D0402140
:102410000448FEF764FC03E040210248FEF754FC48
:1024200010BD000000000B40294800788006000E17
:10243000274908702748006810F4807F04D00846B8
:10244000007840F0010008702248006810F4007F16
:1024500005D01F48007840F002001D4908701C4854
:10246000007800F00F000F281DD2DFE800F01C12EA
:10247000081C091C1C13141C1C0A1C0B150000BF93
:1024800000BF00BF14480088401E00B212490880F7
:1024900009E000BF00BF00BF0F480088401C00B229
:1024A0000D49088000BF00BF70470C49B1F900001A
:1024B000094909884FF6FC72114009B2074A118098
:1024C00011460988091A08B28110054A118070471F
:1024D0002400002000000B402200002026000020E5
:1024E000280000202DE9F04104460D4616464FF025
:1024F000000804F4E060C71147F0A00700BF4FF0E8
:102500008040FEF73DFF0128F9D100213846FEF753
:1025100007FF00BF4FF00070FEF732FF0128F9D12E
:10252000C007FEF72DFF01283ED1E0B2FEF700FF05
:1025300000BF4FF00070FEF723FF0128F9D1C0075C
:10254000FEF71EFF01282CD101213846FEF7E8FED8
:1025500000BF4FF00070FEF713FF0128F9D1C0074C
:10256000FEF70EFF012819D112E01EB10020FEF780
:10257000E9FE02E00820FEF7E5FE00BF4FF0007024
:10258000FEF7FEFE0128F9D1FEF7E1FE28706D1C72
:102590003000A6F10101CEB2E7D107E04FF0030809
:1025A00004E04FF0020801E04FF00108FEF7C6FE1C
:1025B0004046BDE8F0812DE9F04104460D4616463F
:1025C0004FF0000804F4E060C71147F0A00700BF17
:1025D0004FF08040FEF7D4FE0128F9D100213846A3
:1025E000FEF79EFE00BF4FF00070FEF7C9FE012807
:1025F000F9D1C007FEF7C4FE01282BD1E0B2FEF7E7
:1026000097FE00BF4FF00070FEF7BAFE0128F9D127
:10261000C007FEF7B5FE012819D112E02878FEF7B1
:1026200087FE6D1C00BF4FF00070FEF7A9FE012869
:10263000F9D1C003FEF7A4FE012802D14FF0030830
:1026400004E03000A6F10101CEB2E7D104E04FF082
:10265000020801E04FF00108FEF770FE4046BDE8B9
:10266000F08110B500BF4FF08040FEF789FE0128D1
:10267000F9D10021A020FEF753FE00BF4FF00070FB
:10268000FEF77EFE0128F9D1FEF758FE4FF000401C
:10269000FEF776FE012800D110BD0020FCE7000007
:1026A0001248006810F0010F0DD11148006840F089
:1026B00080700F49086000200C4948600846006897
:1026C00040F001000860704701460A4A12680A4B50
:1026D000B2FBF3F2054B5B6801FB02307047014629
:1026E00002484068401AC00F70470000001000E028
:1026F000FCED00E00000002040420F00214800688F
:1027000000F00100704720480068012121EA902074
:10271000704710B50446012C04D104211B48FEF774
:10272000D3FA03E004211948FEF7D9FA10BD10B519
:102730000446012C04D108211448FEF7C5FA03E031
:1027400008211248FEF7CBFA10BD10B50446012C43
:1027500004D102210B48FEF7B7FA03E00221094831
:10276000FEF7BDFA10BD10B50446012C04D140217E
:102770000748FEF7A9FA03E040210548FEF7AFFA43
:1027800010BD000000800A4000000B4000800E4099
:1027900000800C402DE9F04106460D464FEAE17CF1
:1027A00001EB5C7C4FEAEC0C0CEB4C0C4FF060083E
:1027B00008EB4C1CACF1010CACEB060C0FFA8CF7DF
:1027C0004FEAE17C01EB5C7C4FEAEC0CA1EBCC0C1A
:1027D0000CF0FF0433F81750E8B21AB90125A540F0
:1027E000A8430CE0012A04D10125A5400543E8B225
:1027F00005E0022A03D10125A5404540E8B223F8AF
:102800001700BDE8F0812DE9F043044688461546DF
:102810001E46DDF81C90002709E039467A1CD7B225
:102820002144C8B24B4632464146FFF7B3FFAF42A0
:10283000F3DBBDE8F0832DE9F04380460C461546F6
:102840001E46DDF81C90002709E038467A1CD7B2F6
:102850002044C1B24B4632464046FFF79BFFAF4291
:10286000F3DBBDE8F0830246002003E022F81010FD
:10287000431C98B2B0F5587FF8DB70472DE9FF4F45
:1028800082B01E460F9C92464FEAE27B02EB5B7BD6
:102890004FEAEB0BA2EBCB0B0BF0FF034FEAE27B13
:1028A00002EB5B7B4FEAEB0B0BEB4B0B4FF0600E3D
:1028B0000EEB4B1BABF1010BDDF80CE0ABEB0E0BA1
:1028C0001FFA8BFBCDF800B000256DE04FF000083B
:1028D0002F46DDF800A0AAEB050A1FFA8AFC204665
:1028E0004FF0010A0AFA03FACAF1000A0AF0FF09D6
:1028F00003EB040ABAF1080F0DDA03EB040B4FF0F7
:10290000010A0AFA0BFAAAF1010A0AF0FF0109EA20
:102910000109019405E0C3F1080A1FFA8AFACDF80B
:1029200004A03BE0DDF808A01AF8071001FA03FA4A
:102930004AEA080A1FFA8AF8DDF840A03AF81CA013
:102940000AF0FF0121EA090108EA090A4AEA01013D
:10295000DDF840A02AF81C104FEA28280CF1600A84
:102960001FFA8AFC07EB060A1FFA8AF7DDF804A0B3
:10297000A0EB0A0A1FFA8AF0082804DB4FF0080AC5
:10298000CDF804A000E001904FF0010BDDF804A0A9
:102990000BFA0AFAAAF1010A0AF0FF090028C1D1CC
:1029A00005F1010A1FFA8AF5B5428FDB06B0BDE8D2
:1029B000F08F30B5034600200DE04C6814F830402D
:1029C000944206D14C6804EBC00530CDC3E9004504
:1029D00030BD441CA0B24C788442EEDC4D6830CD52
:1029E000C3E9004500BFF3E72DE9FF4304460F4666
:1029F00015461E46DDF82C904FF000081AE04046C0
:102A0000411C1FFA81F82A5C31466846FFF7D1FF66
:102A1000DDE90001CDE902013078CDE900099DF83A
:102A200009303A4621460398FFF728FF9DF8090030
:102A30002044C4B215F808000028E0D1BDE8FF83A7
:102A40002DE9FC4705460F4616461C46DDF828A032
:102A50004FF0000815E04046411C1FFA81F8305C39
:102A6000E17800FB01F96078CDE9000A237861681C
:102A700001EB09003A462946FFF700FF2078284479
:102A8000C5B216F808000028E5D1BDE8FC870000B3
:102A900002460123FE480068007C90B1FC480068B3
:102AA0004089904204DDFA4800684289052308E025
:102AB000F74800680089904203DAF5480068028907
:102AC0000423F3480068C088904204DDF0480068A1
:102AD000C288032308E0EE4800688088904203DA49
:102AE000EB480068828802230B7090B2704730B5C3
:102AF00002460C460825E6480068407C012806D1BD
:102B0000E3480068018BE2480068438B05E0E04839
:102B10000068818ADE480068C38ADD48006890F852
:102B2000240090B1DA480068C08B904204DDD84898
:102B30000068C28B0C2508E0D5480068808B904265
:102B400003DAD3480068828B0B259A4202DA1A46D0
:102B50000A2503E08A4201DD0A460925257090B264
:102B600030BDF0B5054616461020012E06D0022EC7
:102B700009D0032E0CD0042E14D10EE001F10A046A
:102B8000CA890B890EE001F108044A898B8909E0A2
:102B900001F11E044A8C8B8B04E001F11C04CA8BEA
:102BA0000B8C00BF00BF954202DA1546112003E0EE
:102BB0009D4201DD1D4612202580F0BD10B5B448B0
:102BC00000684488052094FBF0F084B22046FFF7AB
:102BD00028F9AF480068408A0446AD490968497C35
:102BE000012904D1204600EBD071491000E02146B4
:102BF0008CB2052094FBF0F084B22046FFF714F964
:102C000010BD10B504460120A2490870002048708C
:102C100041F288304880400088800020C8804FF40E
:102C2000FA50088140F6B830488142F2107088812D
:102C30000020C881087448744FF47A60488244F6D2
:102C4000206088820020C88249F640400883002026
:102C5000488349F28800888347F23050C88349F698
:102C6000404008840020488481F824008A49087084
:102C7000487042F6E060488044F62060888000207A
:102C8000C8804FF47A50088140F2DC50488144F605
:102C9000206088810020C881087448744FF4FA606D
:102CA000488244F6206088820020C88244F6206072
:102CB00008830020488344F25060888341F270709A
:102CC000C88344F6206008840020488481F82400EA
:102CD0001CB908466E49086002E06E486C490860FD
:102CE0006B4909680878FFF722FD69490968487C43
:102CF000FFF72BFD68494878FFF735FD10BD6749A0
:102D0000097811F0040F09D00421654A117000BF41
:102D1000634909780029FBD1102000E000207047AA
:102D200010B502205E49087000BF5D480078002899
:102D3000FBD10124FFF7E3FF0443204610BD86B01A
:102D4000012400220C21052000F095FF5549086060
:102D50000846006808B900BFFEE710E100235A1ECC
:102D600003A95048006801F0F0F80398072802D042
:102D7000082810D107E002A90498FFF789FE44490A
:102D80000968488007E002A90498FFF7B0FE4049AF
:102D90000968488200BF00BF04F00F00012802D07C
:102DA00002280ED15BE0039803280BD1394838493B
:102DB000086008203A49087000BF394800780028A8
:102DC000FBD19FE0039804280BD1334830490860B9
:102DD00008203349087000BF314800780028FBD133
:102DE00090E0039805280CD100202949096848740F
:102DF00008202B49087000BF294800780028FBD123
:102E000080E0039806280CD1012021490968487404
:102E100008202349087000BF214800780028FBD112
:102E200070E00398022801D101246BE00398012887
:102E300014D11A48007810F0100F04D11748007808
:102E400010F0200F00D15DE001201549087000BF8F
:102E5000134800780028FBD1022453E052E0039885
:102E6000022803D1FFF75CFF04464BE003980328D8
:102E700023D107480068074988421ED0FFF750FF5A
:102E80000446042001F0CEFB0248014908600BE033
:102E90003C000020520E0020780E00202C00002064
:102EA0002D000020400000200820B549087000BF18
:102EB000B34800780028FBD124E00398042816D1F9
:102EC000B0480068B049884211D0FFF729FF044696
:102ED000042001F0A7FBAD48AA4908600820A849D2
:102EE000087000BFA64800780028FBD10AE0A84877
:102EF000007810F0020F04D00124FFF700FF044314
:102F000000E000BF00BF0398FF2808D10120019016
:102F100000231A4601A99F48006800F051FF72B6CD
:102F2000984909680878FFF702FC62B69549096874
:102F3000487CFFF70AFC94494878FFF714FC914954
:102F40000968488A02A9FFF7D2FD8E4909684882BC
:102F50008C490968488802A9FFF79AFD89490968E0
:102F60004880FFF72BFE002514F0020F00D001254A
:102F700014F0100F00D002252846FFF737FAEDE6CF
:102F800010B58348007810F00A0F00D104E04FF428
:102F9000FA708149088007E07F48008820B17E48A8
:102FA0000088401E7C4908807B48008818B9FFF7DC
:102FB000A5FB012803D105207849088007E0774860
:102FC000008820B175480088401E74490880734805
:102FD0000088A0B96E48007820F001006C490870A4
:102FE0000846007840F006000870C8206C49088048
:102FF000012300226B496C48006800F04FFF6048D5
:10300000007810F0040F05D06148007820F004002B
:103010005F4908705A48007810F0020F13D05C48DE
:10302000007810F0020F0ED15948007820F001000E
:10303000574908700846007840F002000870C82020
:103040005749088014E04E48007810F0010F0FD067
:103050004F48007810F0010F0AD14D48007820F059
:1030600002004B4908700846007840F001000870E3
:103070004348007810F0080F02D064204B490880C4
:103080004B48007810F0010F06D04148007840F01E
:1030900008003F4908700AE04548007810F0020F28
:1030A00005D03B48007820F008003949087000201E
:1030B000334908703E4908703948008858B138488B
:1030C0000088401E364908803148007840F01000E2
:1030D0002F49087005E02E48007820F010002C4998
:1030E00008703248008858B130480088401E2F4987
:1030F00008802748007820F020002549087005E066
:103100002348007840F020002149087020480078CA
:1031100010F00A0F03D00020FFF7FBFA07E01C486D
:10312000007810F0010F02D00120FFF7F2FA10BD75
:1031300010B5FEF78EFE1F480088401E0004000CEC
:103140001C49088003D10520088000F061FBFFF7CF
:1031500017FFFFF769F91848406900F5486084B225
:1031600015488068A04203D213488068201A00E006
:1031700020461149486109150F48FEF73CF810BD7B
:103180002D0000203C000020780E0020520E002070
:103190002C000020640000203000002032000020BD
:1031A000340000208C66000840000020360000201B
:1031B0002E00002038000020008007400EB50020BF
:1031C0000090E248408810F0100F0CD0E0480078E2
:1031D000022803D10020DE49087004E0DC480078B2
:1031E000401CDB490870DB48008878B3D848007879
:1031F00020B1012812D002282CD11FE00720009016
:10320000D54800684088D349B1F9001001EB41026C
:10321000C2EBC11100EB810001901BE0082000907F
:10322000CD480068408ACB49B1F9001001EB41025A
:10323000C2EBC11100EB810001900BE0C548B0F971
:103240000000002803DD0620009002E003E00520D6
:10325000009000BF00BF009830B100231A466946B5
:10326000BE48006800F0ACFD0EBDF0B58DB0142274
:10327000BB4908A801F0A6FD1422B949143103A8DE
:1032800001F0A0FD0021B748FFF7EDFA0021B64894
:10329000FFF7E9FAB548008803F08AF90746B44910
:1032A00003F0ACF8064603F07DF8044622460B46D0
:1032B000B0A108A801F054FCAA48B04B08AA00210C
:1032C00000900846FFF790FBA3490968488803F07F
:1032D0006FF90746A64903F091F8064603F062F835
:1032E000044622460B46A3A103A801F039FC9D48E1
:1032F000A34BA4A2262100900020FFF7A1FB994830
:10330000A24B03AA212100902020FFF76DFBA048CB
:10331000008803F04DF90746954903F06FF806461B
:1033200003F040F8044622460B469AA108A801F093
:1033300017FC8D48914B08AA002100900846FFF722
:1033400053FB85490968488A03F032F907468849E2
:1033500003F054F8064603F025F8044622460B46CF
:103360008CA103A801F0FCFB7F48854B85A2262198
:1033700000900020FFF764FB7B48844B03AA2121C7
:1033800000902020FFF730FB764801236022372190
:1033900000900020FFF737FA724801230D223821F0
:1033A00000903020FFF747FA7C48B0F9000003F0A6
:1033B000E7F8064602F0F6FF0446B02022460B4628
:1033C00077A1009008A801F0CBFB66486C4B08AAD7
:1033D000392100903F20FFF733FB5F4800680078F9
:1033E000012808D15F48664B70A239210090002067
:1033F000FFF726FB07E05B48614B6EA23921009086
:103400000020FFF71DFB5848012360223721009060
:103410000020FFF7F8F9544801230D2238210090CD
:103420002A20FFF708FA4C480068407C012808D1A0
:103430004D48534B61A2392100900220FFF700FB59
:1034400007E049484E4B5EA2392100900220FFF769
:10345000F7FA5C48006803F0ABF80746444902F00D
:10346000CDFF064602F09EFF044622460B4656A1BB
:1034700008A801F075FB3C48414B08AA392100908F
:103480002F20FFF7DDFA3C208DF8200000208DF87A
:1034900021002F48007820B101280FD0022827D121
:1034A00019E030494A484078CDE9000148490B7895
:1034B000262248685921FFF7E1F919E02A494448D2
:1034C0004078CDE9000142490B782622486859210D
:1034D000FFF7D4F90CE024493D484078CDE90001DC
:1034E0003B490B78382248682321FFF7C7F900BF12
:1034F00000BF1C490120FEF7ADFE1B490220FEF76C
:10350000A9FE0DB0F0BD08B500220421052000F091
:10351000B2FB304908600846006808B900BFFEE702
:1035200012E000235A1E69462A48006800F00DFD8B
:10353000009810B1012806D102E0FFF796FE02E0E4
:10354000FFF73CFE00BF00BFEBE700001C000020BF
:1035500044000020280000203C0000204000002003
:1035600098660008D2000020920700205800002032
:1035700000007A4425352E3266560000FC7A000899
:10358000C07600085345543A00000000987C0008BB
:103590005A00002025352E32664100004C000020E4
:1035A00025322E30662563430000000043682E203C
:1035B0003556000043682E31325600003430410049
:1035C000323041005C00002025352E316657000066
:1035D000AC7C00084800002086B001F008FA049096
:1035E0000220FDF793FF43E0FA2104A800F0E7FF73
:1035F0004FF0000AD0460BE0FDF7F4FF022001F087
:1036000011F8FDF7F9FF50441FFA80FA08F101089C
:10361000B8F10A0FF0D3504602F0CAFF834602F019
:10362000C1FE144A144BCDE9000102F0D3FC134A49
:10363000134BCDE9020102F0CDFC04460022114BF0
:1036400002F0F0FB064602F095FC00B20E4908803D
:103650000846B0F90000192801DA322003E00A48D0
:10366000B0F9000040001FFA80F94846FEF7E8FB79
:10367000BAE700009A9999999999B93F21B072686F
:1036800091EDCCBF00C06C404C00002086B0002201
:103690000421052000F0EFFA25490860084600687B
:1036A00008B900BFFEE742E000235A1E05A92048E2
:1036B000006800F04AFC0598002837D1FEF756FE56
:1036C000FEF7F3FE002002901A48408810F0200F09
:1036D00002D00320029016E01648808810F0200FD8
:1036E00002D0042002900EE01248408810F0800FB3
:1036F00002D00220029006E00E48408810F0400FF1
:1037000001D001200290029830B100231A4602A98C
:103710000948006800F054FB0120019000231A467C
:1037200001A90648006800F04BFB00BF00BFBBE7E3
:10373000500000201C000020400000204800002015
:1037400008B500220421052000F095FA80490860A0
:103750000846006808B900BFFEE7032200210120E7
:1037600000F089FA7B4908600846006830B1002300
:103770001A4619467748006800F022FB7548006831
:1037800008B900BFFEE742E000235A1E69467048B0
:10379000006800F0DAFB0098012837D103206E4959
:1037A00008700023021F19466A48006800F0CDFB2C
:1037B0006A48008880106A4908800846008800EB43
:1037C0008000088067480088801067490880674843
:1037D0000068407C012807D10846008800EB800083
:1037E0004004000C088005E05F48008800EB800082
:1037F0005D4908805A4800885B49098848434FF46E
:103800007A7190FBF1F05A49086000BF00BFBBE736
:1038100010B558480078032852D005DC48B101287B
:1038200012D0022870D141E0102863D01128F9D1BC
:103830006BE049480078504908700846007810B19C
:1038400001204C49087080E04B48007800F00500EA
:1038500001280CD14848007820F00500464908703E
:1038600002204449087000203C4908801DE042487D
:10387000007810F0020F0CD03F48007820F00200D2
:103880003D49087010203B490870002035490880E8
:103890000BE00020374908702F49087000231A46B2
:1038A00019462C48006800F0F9FA4EE00420FDF7B4
:1038B00024FE04203149087003202E49087044E09A
:1038C0002E480078042806DAFDF793FE234909887C
:1038D0000844224908802948007838B1FDF77BFE6A
:1038E00026480078401E2549087002E00120214941
:1038F00008702AE00720FDF700FE04201F49087029
:1039000011201C49087020E01BE01C4800780428A6
:1039100006DAFDF76EFE134909880844114908804C
:10392000FDF759FE1548007838B1FDF754FE1348ED
:103930000078401E1149087002E001200D4908700E
:1039400003E000200B49087000BF00BF10BD00005D
:103950006400002068000020540000206000002067
:1039600058000020620000205A0000203C00002087
:103970005C00002055000020560000205700002069
:10398000FCF736FC00BFFEE7001F4FF080730360BA
:10399000001F0160001F2B4B0360143802602038A9
:1039A00070474FF6FF104FF0E02148610720086193
:1039B000704710B52448006840F47F002249086031
:1039C0000846006840F07F400860FFF7EAFF0020EB
:1039D0001E490860FCF7E4FB002010BD70474FF063
:1039E000805019491C390860BFF34F8FBFF36F8FA8
:1039F000704710B5FCF7FCFB14480068401C1349E5
:103A00000860BFF34F8FBFF36F8F10BD10B50F4825
:103A10000068401E0D4908600846006810B9002083
:103A2000FCF7EDFB10BD10B5FCF7E2FB00F08DFCE0
:103A300020B14FF0805004491C3908600020FCF789
:103A4000DEFB10BD8139000820ED00E06C00002095
:103A5000434A22F00700434A10600022414B5A605B
:103A600044F2F832404B5A6000221A60014644F298
:103A7000F8324A601A460A6070472DE9F041044660
:103A80004FF0000800F095FD3848006820B9FFF7B6
:103A9000DFFF01203549086044B1083414F0070FF6
:103AA00004D004F00700C0F108000444002C32D018
:103AB00044F2F83084422ED22A4F3846056801E09D
:103AC0002F462D686868A04202D228680028F7D1E6
:103AD000254885421FD0386800F1080828683860FA
:103AE0006868001B102810D92E196868001B7060C8
:103AF0006C6071681B4800E00068026852688A4286
:103B0000FAD302683260066000BF19496868096824
:103B1000081A1749086000F0A8FC4046BDE8F0818B
:103B200070B506463546B6B1083D2C4600F041FD5D
:103B300061680C4800E00068026852688A42FAD363
:103B40000268226004600A496068096808440849FC
:103B5000086000F08AFC70BD054800687047704737
:103B6000A60E0020780000208000002074000020B5
:103B70007000002000F1080141604FF0FF318160CA
:103B800000F10801C160016100210160704700215E
:103B90000161704742684A6093688B60936859601E
:103BA0009160086103685B1C0360704710B50246B2
:103BB0000B685C1C01D1106907E002F1080000E00D
:103BC0004068446824689C42FAD944684C604C6858
:103BD000A160886041600A611468641C146010BDB3
:103BE0000146D1E901309860D1E9010358600A69C2
:103BF0005068884201D188685060002008611068D0
:103C0000401E10601068704770B505460E462C4681
:103C1000FFF7EFFED4E90F12206801FB020060609D
:103C20000020A0632068A060E06B401E226C216829
:103C300000FB0210E0604FF0FF306064A06476B9D2
:103C4000206908B9012000E0002080B904F11000CB
:103C500000F002FF01280AD1FFF7C1FE07E004F1DE
:103C60001000FFF787FF04F12400FFF783FFFFF741
:103C7000CDFE012070BD2DE9F04705460E46914668
:103C80004FF00008C5B14C20FFF7F7FE04469CB189
:103C900005FB06F0471C3846FFF7EFFE2060206862
:103CA00038B1E563266401212046FFF7ADFFA04649
:103CB00002E02046FFF734FF4046BDE8F08710B52C
:103CC0000446FFF796FE11E0606A08B9012000E0A3
:103CD000002038B904F1240000F0BEFE18B100F055
:103CE0001FFF00E005E0A06C401EA064A06C00284F
:103CF000EADC00BF4FF0FF30A064FFF787FEFFF75C
:103D000078FE11E0206908B9012000E0002050B9D8
:103D100004F1100000F0A0FE08B100F001FF606C9B
:103D2000401E606400E002E0606C0028EADC00BF36
:103D30004FF0FF306064FFF769FE10BD70B50546B7
:103D4000FFF757FEA86BE96B884201D1012400E020
:103D50000024FFF75BFE204670BD70B504460E469A
:103D60001546206C40B37DB93146226CA06800F046
:103D7000E4FF216CA0680844A060D4E901108842E7
:103D80001AD32068A06017E03146226CE06800F08A
:103D9000D4FF216CE068401AE0602168E068884246
:103DA00003D2216C6068401AE060022D04D1A06B40
:103DB00010B1A06B401EA063A06B401CA06370BD3F
:103DC0002DE9FF4182B006460F461D464FF0000820
:103DD000344600BFFFF70DFEA06BE16B884201D3B4
:103DE000022D18D12A4639462046FFF7B6FF606AF1
:103DF00008B9012000E0002038B904F1240000F0E7
:103E00002BFE012801D1FFF7EAFDFFF7FFFD01209E
:103E100006B0BDE8F081049818B9FFF7F7FD00205F
:103E2000F6E7B8F1000F04D1684600F048FE4FF005
:103E30000108FFF7EBFD00F0BCFBFFF7DAFD606C5B
:103E4000401C00D16064A06C401C00D1A064FFF74E
:103E5000DDFD04A9684600F039FEC0B92046FFF731
:103E60006DFF70B104F11000049900F0D7FD2046F9
:103E7000FFF725FF00F0F9FA0028ABD1FFF7AFFDFF
:103E8000A8E72046FFF71BFF00F0EFFAA2E7204665
:103E9000FFF715FF00F0E9FA0020B9E72DE9F04738
:103EA0000546894616461F462C46FCF7A1F9824670
:103EB000A06BE16B884201D3022F1CD13A464946E0
:103EC0002046FFF74AFFA06C401C0ED1606A08B97B
:103ED000012000E0002058B904F1240000F0BCFDEE
:103EE00030B12EB10120306002E0A06C401CA06413
:103EF0004FF0010801E04FF000085046FCF77FF951
:103F00004046BDE8F08770B50546FFF772FDA86B27
:103F100008B9012400E00024FFF778FD204670BDB9
:103F200070B504460D46206870B1216CE068084405
:103F3000E0606168E068884201D32068E06028465C
:103F4000226CE16800F0F9FE70BD2DE9FF4383B0FB
:103F5000054688461E464FF000092C4600BFFFF775
:103F600048FDA06B58B3E76841462046FFF7D8FFED
:103F70008EB9A06B401EA063206908B9012000E043
:103F80000020B0B904F1100000F066FD012810D146
:103F9000FFF725FD0DE0E760606A08B9012000E049
:103FA000002030B904F1240000F056FD08B1FFF7FD
:103FB00016FDFFF72BFD012007B0BDE8F083059843
:103FC00018B9FFF723FD0020F6E7B9F1000F04D17F
:103FD00001A800F074FD4FF00109FFF717FD00F094
:103FE000E8FAFFF706FD606C401C00D16064A06C2D
:103FF000401C00D1A064FFF709FD05A901A800F04D
:1040000065FDC0B92046FFF77EFF70B104F12400C2
:10401000059900F003FD2046FFF751FE00F025FA58
:1040200000289CD1FFF7DBFC99E72046FFF747FE0D
:1040300000F01BFA93E72046FFF741FE00F015FA67
:104040000020B9E72DE9F0470546884616462C467C
:10405000FCF7CEF88146A06BE8B141462046FFF759
:104060005FFFA06B401EA063606C401C0ED12069F6
:1040700008B9012000E0002058B904F1100000F058
:10408000EBFC30B12EB10120306002E0606C401CCE
:104090006064012700E000274846FCF7B0F8384686
:1040A000BDE8F0872DE9F047054688462C46FCF729
:1040B0009FF88146A06B38B1E76841462046FFF77C
:1040C0002FFFE760012600E000264846FCF797F83E
:1040D0003046BDE8F08770B50446FFF78AFCA56B53
:1040E000FFF794FC284670BD70B504462546FFF7DF
:1040F00080FCD5E90E10461AFFF788FC304670BDEB
:104100000146886B704770B5044625462868FFF75E
:1041100007FD2846FFF704FD70BD01468A6B0AB90A
:10412000012000E00020704701468A6BCB6B9A4269
:1041300001D1012000E000207047000010B50024EC
:1041400007E004EB8401F74A02EB8100FFF712FD60
:10415000641C052CF5D3F448FFF70CFDF348FFF77A
:1041600009FDF348FFF706FDF248FFF703FDF248AB
:10417000FFF700FDEC48F1490860EC48F0490860A1
:1041800010BD2DE9F04704460F4616469946DDF866
:104190002080002507E0795D04F134004155785D09
:1041A00000B902E06D1C102DF5D300BF00214320A3
:1041B0000155052E00D30426E662201DFFF7E7FC1B
:1041C00004F11800FFF7E3FC2461C6F10500A061CB
:1041D0006462BDE8F08770B505460E464420FFF7DF
:1041E0004CFC044694B11EB9A800FFF746FC00E061
:1041F00030462063206B20B92046FFF791FC002455
:1042000004E0A900A522206B00F00EFE204670BD40
:104210002DE9FF4F81B0804615469946DDE90E7ABB
:1042200028461099FFF7D7FF0446002C4ED0681E91
:10423000216B01EB800B2BF0070B00953A462046D3
:10424000119B0299FFF79DFF4A4641465846FFF7EA
:104250009BFB2060BAF1000F01D0CAF80040FFF7C5
:10426000C8FBB8480068401CB6490860B6480068FA
:1042700040B9B54804600846006801280CD1FFF732
:104280005DFF09E0B148006830B9AF480068C06A16
:10429000B84201D8AC480460AD480068401CAC4945
:1042A0000860AC49E06A0968884202D9A949E06A15
:1042B0000860E16A01EB81019A4A02EB8100211D4D
:1042C000FFF768FC0126FFF7A1FB01E04FF0FF3686
:1042D000012E09D19D48006830B19B480068C06A32
:1042E000B84201D2FFF77BFB304605B0BDE8F08F46
:1042F00070B50546FFF77DFB15B99348006800E0EF
:1043000028460446201DFFF76BFCA06A18B104F193
:104310001800FFF765FC211D8648FFF73BFC8E481F
:104320000068401C8C49086089480068401C884926
:104330000860FFF76BFB8548006828B18248006879
:10434000844201D1FFF74BFB70BD2DE9F0410027FE
:104350008248006800287AD181480068401C804962
:104360000860084606680EBB744908687449096805
:10437000724A1160724908607A490968491C794A91
:1043800011606E490968096809B9012100E000213E
:1043900021B14FF0FF31744A116006E067490968A6
:1043A000C968CC68704A6168116000BF6E480068D7
:1043B00086423AD300BF61480068006808B901200E
:1043C00000E0002020B14FF0FF30674908602BE08B
:1043D0005A480068C068C4686568AE4202D2624844
:1043E000056021E0201DFFF7FBFBA06A18B104F176
:1043F0001800FFF7F5FB5749E06A0968884202D9BF
:104400005449E06A0860E16A01EB8101454A02EB28
:104410008100211DFFF7BEFB4B49E06A0968C96AAC
:104420008842C8D30127C6E700BF47480068C06A72
:1044300000EB80003B4951F82000012800D90127FA
:104440004A48006850B9FDF78FFD07E0FFE747488D
:104450000068401C45490860FDF786FD4448006837
:1044600000B101273846BDE8F08170B50025FFF79F
:10447000C0FA3A480068401E38490860084600689B
:1044800000284AD12F480068002846D023E0284859
:10449000C068C46804F11800FFF7A2FB201DFFF7F5
:1044A0009FFB2C49E06A0968884202D92949E06AE1
:1044B0000860E16A01EB81011A4A02EB8100211DCB
:1044C000FFF768FB2049E06A0968C96A884202D39D
:1044D0000120274908601648006808B9012000E05B
:1044E00000200028D3D02148006878B10AE0FFF707
:1044F0002CFF10B101201E4908601C480068401EB6
:104500001A490860194800680028F0D11848006866
:10451000012802D10125FFF762FAFFF777FA284652
:1045200070BD0000A052002004530020185300204A
:104530002C5300204053002054530020B80000208A
:10454000BC00002090000020880000209C0000207B
:10455000B0000020980000208C000020A000002067
:1045600094000020AC000020B4000020A400002033
:10457000A800002010B50446F74800684460F748DA
:104580000068844207D2F4480168091DF4480068B5
:10459000FFF70CFB0CE0F0480168091DF1480068CA
:1045A000FFF704FBF0480068844201D2EE48046043
:1045B00010BDEE480068401CEC49086070472DE9CA
:1045C000F047044688464FF00009FFF7F2FFE34842
:1045D0000768206800EB08052068B84207D9206802
:1045E000A8420BD9BD4209D94FF0010906E0206865
:1045F000A84201D8BD4201D94FF001092560B9F1A7
:10460000000F07D0D4480068001DFFF7E9FA2846DC
:10461000FFF7B0FFFFF729FF06460EB9FFF7DFF9F6
:10462000BDE8F08770B5044600267CB1FFF7C1FFF6
:10463000CA4800680519C8480068001DFFF7D0FA8D
:104640002846FFF797FFFFF710FF06460EB9FFF762
:10465000C6F970BD70B50446FFF7CBF914B9BE4872
:10466000006800E020460646F56AFFF7CFF92846C5
:1046700070BD2DE9F04707460D464FF00009052DA6
:1046800000D30425FFF7B5F917B9B348006800E077
:1046900038460446E66AAE423FD0B5420BD9AE4832
:1046A000006884420DD0AC480068C06AA84208D8AF
:1046B0004FF0010905E0A8480068844201D14FF09D
:1046C0000109D4F82C80E562C5F10500A06108EB72
:1046D0008801A74A02EB81016069884201D101206B
:1046E00000E0002098B1201DFFF77AFAA149E06AA6
:1046F0000968884202D99F49E06A0860E16A01EBD3
:1047000081019B4A02EB8100211DFFF743FAB9F1B9
:10471000010F01D1FFF763F900BFFFF777F9BDE89B
:10472000F0879248006818B10120934908602CE096
:1047300000209149086004E08E480068401E8D49C1
:1047400008608C48006800EB8000894951F820001F
:1047500008B9012000E000200028EDD18549096852
:1047600001EB8101824A02EB8100416849684160A6
:1047700000F1080142688A4202D1416849684160FB
:104780004168C968744A116000BF704770B505463A
:10479000FFF72FF915B97048006800E02846044675
:1047A000201DFFF71DFAA06A18B104F11800FFF7E9
:1047B00017FA211D7148FFF7EDF9FFF727F9664851
:1047C0000068844211D16E48006810B1FFF707F904
:1047D0000BE06A4800686B490968884203D10020F1
:1047E0005D49086001E0FFF79CFF70BD10B5014610
:1047F00000200A46614C5369A34201D1012300E025
:10480000002373B1604C936AA34201D1012300E0FD
:10481000002333B9936A0BB9012300E0002303B1ED
:10482000012010BD70B505462C4644B34A480068C7
:10483000844224D0FFF7DDF82046FFF7D7FF012898
:104840001BD1201DFFF7CCF94A49E06A096888426C
:1048500002D94849E06A0860E16A01EB8101444AF3
:1048600002EB8100211DFFF795F93B49E06A0968D9
:10487000C96A884201D3FFF7B2F8FFF7C7F870BDE5
:104880002DE9F041054600262C46FBF7B1FC074612
:104890002046FFF7ABFF012823D134480068D8B980
:1048A0002D49E06A0968C96A884200D30126201DA3
:1048B000FFF796F92F49E06A0968884202D92D4925
:1048C000E06A0860E16A01EB8101294A02EB81009C
:1048D000211DFFF75FF904E004F118012A48FFF7F2
:1048E00059F93846FBF78BFC3046BDE8F08110B52E
:1048F0000446206BFFF714F92046FFF711F910BDAD
:1049000070B523E0FFF755FE2048006808B9012084
:1049100000E000200546FFF7A8FDBDB9FFF769F8E4
:104920001A48C068C468201DFFF75AF91548006886
:10493000401E1449086016480068401E144908606B
:10494000FFF764F82046FFF7D2FF00BF1048006869
:104950000028D7D170BD00008800002094000020FE
:10496000BC000020B8000020B4000020A0000020FF
:10497000A052002098000020A800002054530020DE
:104980009C000020900000202C5300204053002069
:104990008C00002000BFFFF7B3FF634800680128C8
:1049A000F9D9FFF71CF8F6E71FB500200090019039
:1049B0000290034680225DA103905E48FFF728FC29
:1049C0000446012C09D1FBF713FC01205A49086069
:1049D00000205A490860FEF7ECFF1FBD10B5FBF739
:1049E00007FC002054490860FEF7F8FF10BD10B521
:1049F000FEF7FFFF51480468FFF708F8204610BD96
:104A000070B5FBF7F5FB05464C4804682846FBF7F4
:104A1000F6FB204670BD4A480068704770B50646F0
:104A20000C464848016818313046FFF7BFF8454842
:104A30000068001DFFF7D4F8601C06D141480168EA
:104A4000091D4148FFF7A6F805E03C480068051934
:104A50002846FFF78FFD70BD70B50646F068C46844
:104A600004F11800FFF7BCF838480068A0B9201D11
:104A7000FFF7B6F83649E06A0968884202D9344936
:104A8000E06A0860E16A01EB8101274A02EB8100DC
:104A9000211DFFF77FF804E004F118012D48FFF70E
:104AA00079F82849E06A0968C96A884204D301256F
:104AB00001202949086000E00025284670BD2749EB
:104AC000096801601D4909684160704770B5044676
:104AD0000D46FEF78EFF194802682868401C01D178
:104AE000002619E01D4920680968884204D06068E2
:104AF000904201D801260FE06068101A29688842A8
:104B000009D228686168511A401A28602046FFF7C8
:104B1000D6FF002600E00126FEF778FF304670BD84
:104B200001200D4908607047A052002049444C45BF
:104B300000000000954900089C000020940000201F
:104B4000900000208800002054530020A000002086
:104B5000980000202C530020A8000020AC0000206A
:104B60000FB41CB5074B06AA7B4469460090059814
:104B700000F07BFB0020694600F08AFB1CBC5DF85E
:104B800014FB00002507000070B504468569006825
:104B9000C10601D5302600E02026C00708D070BD30
:104BA000D4E9012130469047206A00F101002062DB
:104BB0006D1EF5D570BD70B5044685690068C007E7
:104BC00008D170BDD4E9012120209047206A00F16E
:104BD000010020626D1EF5D570BD70B505460C460E
:104BE000012A05D02868800600D5EA69002302E082
:104BF000012305E05B1C934202D2E05C0028F9D15E
:104C0000A869E618C01AA861286A184428622846CC
:104C1000FFF7BAFF04E0D5E9012114F8010B904732
:104C2000B442F8D32846FFF7C6FF70BD2DE9F04720
:104C30004FF0000A04468946C0F820A02046E168EB
:104C40008847002876D0252806D0D4E9012190474E
:104C5000206A401C2062F1E7E16820460025884771
:104C6000C4F81CA006460027C4F818A02A2E09D0B4
:104C7000304601F0B9F838B304EB8708303EC8F885
:104C8000186019E059F8041B204604EB8702916173
:104C9000E1688847012F064618D1E069002820DA2C
:104CA00025F020051DE0D8F8180000EB800006EB89
:104CB00040003038C8F818002046E16888470646AA
:104CC00001F092F80028EED1012F0AD02E2E08D143
:104CD0002046E16888477F1C0646022F45F02005E4
:104CE000C4DBA069002803DA404245F00105A06159
:104CF000E80701D025F01005B6B1A6F1410019284A
:104D000002D8203645F400654A46314620462560E3
:104D10004D46FBF70FFA58B1012806D0ED1D25F0DE
:104D2000070000F1080989E704E005F1040985E7B7
:104D300030468AE7206ABDE8F087032A40F23080D7
:104D400010F0030C00F0158011F8013BBCF1020FCC
:104D5000624498BF11F801CB00F8013B38BF11F84D
:104D6000013BA2F1040298BF00F801CB38BF00F864
:104D7000013B11F0030300F02580083AC0F00880E1
:104D800051F8043B083A51F804CBA0E80810F5E7C5
:104D9000121D5CBF51F8043B40F8043BAFF30080A8
:104DA000D20724BF11F8013B11F801CB48BF11F81D
:104DB000012B24BF00F8013B00F801CB48BF00F8ED
:104DC000012B704710B5203AC0F00B80B1E81850A5
:104DD000203AA0E81850B1E81850A0E81850BFF4E5
:104DE000F5AF5FEA027C24BFB1E81850A0E8185084
:104DF00044BF18C918C0BDE810405FEA827C24BFD8
:104E000051F8043B40F8043B08BF7047D20728BF65
:104E100031F8023B48BF11F8012B28BF20F8023BB4
:104E200048BF00F8012B704702F0FF0343EA03225A
:104E300042EA024200F049BA704770477047704733
:104E40002DE9FF4F0C461E464FF0FF378BB0D2E9DD
:104E50000001DDF860800A908A46C1F30A5505B961
:104E60003D46002108464FF00000BAF1000F00F463
:104E7000400005DA00EB80004FF4400101EA5000E9
:104E80004FEA9059B9F1010F00DDB9460A9850EA8E
:104E90004A000FD044F61050A5F2FF3545432F14B9
:104EA000B8F1000F1FD07542291E1FDD4846C9F119
:104EB00000021CE0B8F1010F4FF0000001D1F243F5
:104EC00007E0302101E02154401CB042FBDB3046BA
:104ED0000022002121540B99C1F80880C1E900206B
:104EE0000FB0BDE8F08FBD1B6D1CDDE74A4600DA50
:104EF000694206A800F094FA06AB07CB03AB07C3E0
:104F000050460A9900F0A1FB8DE80700A0F500507B
:104F10001F3800900398002D09DD42F21F014A4618
:104F2000084403A90390684600F000FE08E0A0F5DD
:104F300000504A461F3803A90390684600F00AFE55
:104F40008DE807000004000C03D04FF0FF3041084B
:104F500000E01046B8F1000F03D000220092154681
:104F60001FE0751E06D400F0D5F902F1300262553B
:104F70006D1EF8D5B3460122084302D000227F1CE3
:104F800004E02078302801D100227F1E002A0997F2
:104F900086D01DE0112D07DA00F0BCF930326255E1
:104FA0006D1C50EA0102F5D108430FD10021681EA3
:104FB00005E0235C625C6354491C2254401E81421C
:104FC000F7DBAB46A81B401E099001E0009848B1F2
:104FD000002004F80B000B98099AC0F80880C0E97B
:104FE000002B7DE711264FF0000859E72DE9F04F1F
:104FF00088460446D21D22F0070191B0D1E9000194
:10500000CDE90A0100F0DCFE02460B98C00F01D08A
:105010002D2007E02068810701D52B2002E0202108
:1050200001EAC000032A099001D0072A05DB0346E4
:105030004146204600F0B4F90EE12068800601D513
:10504000E06900E00620B8F1650F814606D0B8F1AE
:10505000660F18D0B8F1670F72D132E00020B9F1B5
:10506000110F009001DB112301E009F101030AAAED
:1050700001A90CA8FFF7E4FEDDE90C70002609F198
:105080000105834648E001204B4600904FF0004761
:105090000AAA01A90CA8FFF7D3FEDDE90C050E99B9
:1050A0000026AB4619B909F1010100EB0105B9EB86
:1050B000050003D4C0F1FF3609F10105A5EB090095
:1050C0002BE0B9F1010F01DA4FF001090020B9F12D
:1050D000110F0090484601DD112300E003460AAAA3
:1050E00001A90CA8FFF7ACFEDDE90C704D460026C7
:1050F0008346206800070AD4AB4500DA5D4601A864
:10510000012D04DD411911F8011C302907D04F454C
:1051100002DA17F1040F04DA0120824610E06D1E56
:10512000EEE7002F02DCED1B3E4403E0781CA842B2
:1051300000DD0546A7EB060000F1010A4FF000472D
:105140002068000703D4AA4501DB4FF0FF3A002195
:10515000B7F1004F0DF143088DF8431022D0022023
:105160002B23002F01DA7F422D230A22011EA0F1FA
:10517000010000DC4FB197FBF2F102FB117C0F46FE
:105180000CF1300C08F801CDF0E7A8F10100037034
:105190002168090501D5452100E06521A0F101083C
:1051A00000F8011C09980FA9A1EB080707F10707F0
:1051B00000B1012000EB050101EBEA70A169384460
:1051C000A1EB0000A0F10100A0612068C00602D49C
:1051D0002046FFF7D9FC099830B1D4E90121904766
:1051E000206A00F1010020622068C00620D5204618
:1051F000FFF7CAFC1CE0002E04DBB34502DD01A86A
:10520000805D00E03020D4E901219047206A761CBF
:10521000401CBAF1010A20620AD100F077F8C06898
:105220000168405CD4E901219047206A401C20625B
:10523000281EA5F10105DEDC07E0D4E9012118F8FC
:10524000010B9047206A401C2062381EA7F101071D
:10525000F3DC2046FFF7AFFC022011B041E600006E
:1052600001694A1C02610878704700B58FB0CDE92A
:1052700001310021059105497944CDE9031011461A
:105280006846FFF7D3FC0FB000BD0000E5FFFFFF4D
:105290000A6802F8010B0A60704710B5436913B140
:1052A000AFF3008001E0FFF798FC012010BD126809
:1052B00000F124010A7000224A700122EDE7116812
:1052C0004FF0FF32E9E74FF000020429C0F01280EE
:1052D00010F0030C00F01881CCF1040CBCF1020FAB
:1052E00018BF00F8012BA8BF20F8022BA1EB0C017E
:1052F00000F00AB95FEAC17C24BF00F8012B00F876
:10530000012B48BF00F8012B704700000048704790
:105310008853002030B5B0F10A024FEA900E71F1C7
:1053200000034EEA817EB0EB0E0061EB91014FEA83
:10533000101E4EEA017E10EB0E0041EB11114FEAF8
:10534000102E4EEA016E10EB0E0041EB11214FEAD8
:10535000104E4EEA014E10EB0E0041EB1141401889
:1053600041F100014FEAD00040EA41704FEAD1011B
:1053700010EB80054FEA810444EA907444EB010489
:105380006D1944EB0404521BA3414FF0000348BFC6
:105390000A3200D530BD401C41F1000130BD000093
:1053A0002DE9F04104461F4603260168072A01F44F
:1053B000006004DB08B116A505E016A503E008B1FE
:1053C00015A500E015A521F010002060A069C01E01
:1053D000A0610FB1401EA0612046FFF7D5FB4FB181
:1053E000D4E9012138469047206A401C2062C01C45
:1053F000206206E0206AFAE7D4E9012115F8010BE2
:105400009047761EF8D22046FFF7D5FBBDE8F08125
:105410004E414E006E616E00494E4600696E660058
:105420002DE9F047814616468AB035487844D0E9E0
:10543000002380680092CDE90130314878440C386F
:10544000D0E90223006903924FF03702CDE904301E
:1054500041F69B30014491FBF2F0A0F1800502FB84
:1054600010141B3C02D56442012000E00020DFF84C
:1054700090A080460027FA44AAF1C60A0DE0E00792
:1054800009D03246684607EB47010AEB810100F07C
:1054900061FB8DE8070064107F1C002CEFD1184FD2
:1054A0007F44B43F17E0E80713D007EB04100DF179
:1054B000180A90E80E00AAE80E00C068F04201D178
:1054C00098190890324606A903A800F043FB03ABE5
:1054D00007C36D10641C002DE5D132466946B8F152
:1054E000000F03A802D000F021FB01E000F032FB26
:1054F000C9E90001C9F808200AB0BDE8F08700003A
:10550000142900004FF0000200B513469446964659
:10551000203922BFA0E80C50A0E80C50B1F12001C6
:10552000BFF4F7AF090728BFA0E80C5048BF0CC074
:105530005DF804EB890028BF40F8042B08BF7047D2
:1055400048BF20F8022B11F0804F18BF00F8012B44
:105550007047000000487047685300207546FFF709
:10556000F9FFAE4605006946534620F00700854620
:1055700018B020B5FAF758FEBDE820404FF00006FD
:105580004FF000074FF000084FF0000B21F007012B
:10559000AC46ACE8C009ACE8C009ACE8C009ACE86E
:1055A000C0098D4670470446AFF300802046FAF7E5
:1055B000E0FD00004FF0013C50F8042B51F8043B93
:1055C0009A4221D1A2EB0C03934313EACC1317D1D7
:1055D00050F8042B51F8043B9A4215D1A2EB0C036E
:1055E000934313EACC130BD150F8042B51F8043B2E
:1055F0009A4209D1A2EB0C03934313EACC13DBD0FC
:105600004FF00000704700BFD01A01BAB1FA81F123
:1056100001F0180122FA01F0CB40C1F12001DBB208
:10562000C0B2C01A2CFA01F3D11A914311EAC31186
:10563000E6D17047004870476C530020014918209C
:10564000ABBEFEE72600020070475FEA400C08BFD1
:1056500091F0000F4FEA8C234FEAC12243EA5151E7
:105660004FEA1C5018BF00F5F0404FEA300018BF59
:1056700041F000415FEA6C5C00F02980BCF1FF3F23
:1056800008BF40F080407047130C06BF12044FF073
:10569000100C4FF0000C130E04BF12020CF1080C9A
:1056A000130F04BF12010CF1040C930F04BF9200FE
:1056B0000CF1020CD30F04BF52000CF1010C114687
:1056C0004FF00002A0F11F00A0EB0C00704711F09A
:1056D000004F08BF704731F000413FF4D5AF0B0CCD
:1056E00006BF09044FF0100C4FF0000C0B0E04BF66
:1056F00009020CF1080C0B0F04BF09010CF1040C9A
:105700008B0F04BF89000CF1020CCB0F04BF4900C2
:105710000CF1010CCCF12003A0EB0C0022FA03F3F6
:1057200002FA0CF241EA030100F10100704720F097
:105730007F4C80EA030023F07F47ACEB070303F5BF
:105740007C5300F0004003F1FF032DE980494FEA4C
:10575000154B09B44FEA144325EA0B4E24EA0348DB
:105760000FF2042606EB132749083E785FEA32025F
:1057700003FB0667C7F5000707FB06F64FEA543739
:105780004FEAD64606F1020607FB066CCCF1005C38
:105790004FEA1C472CEA074C07FB06F40CFB06F506
:1057A00004EB15464FEA961634BF00204FF0004038
:1057B0004FEAD13706FB07FC4FEA1C4C0CFB0BF7FA
:1057C000D21B03FB0CF761EB07010CFB0EF7B0EBF0
:1057D000074072EB17420CFB08F734BFA2EB0742FD
:1057E000B2EB074261EB17414FEA0C444FEA9107D5
:1057F00006FB07FC4FEA1C4C0CFB0BF7B0EBC74059
:1058000072EB573203FB0CF734BFA2EBC742B2EB8B
:10581000C74261EB57310CFB0EF7B0EBC70072EBE0
:1058200057720CFB08F734BFA2EBC702B2EBC702FA
:1058300061EB5771039F4FEA816141EA921104EBDA
:10584000CC044FEAD1374FEA826206FB07FC42EAFA
:1058500090124FEA80604FEA1C4C0CFB0BF7D21BF6
:1058600003FB0CF761EB07010CFB0EF7B0EB0740F5
:1058700072EB17420CFB08F734BFA2EB0742B2EB06
:10588000074261EB17414FEA8C554FEA910704EB51
:105890009C2406FB07FC4FEA1C4C0CFB0BF7B0EBFF
:1058A000C74072EB573203FB0CF734BFA2EBC74281
:1058B000B2EBC74261EB57310CFB0EF7B0EBC70000
:1058C00072EB57720CFB08F734BFA2EBC702B2EBC6
:1058D000C70261EB577115EB4C254FEA816141EA34
:1058E00092114FEA82624FEAD13742EA901206FBE8
:1058F00007FC44F100044FEA80604FEA1C4C0CFBAB
:105900000BF7D21B03FB0CF761EB07010CFB0EF747
:10591000B0EB074072EB17420CFB08F734BFA2EB69
:105920000742B2EB074261EB174115EB1C154FEA3A
:10593000813141EA92414FEA823242EA90424FEA93
:1059400080304FEA0C7644F1000448EA03434EEA03
:105950000B484FF0000EB2EB080C71EB030724BFAD
:10596000624639464EEB0E0E4FF0000B00185241C6
:1059700049414BEB0B0BB2EB080C71EB03077BF1CE
:10598000000B24BF624639464EEB0E0E4FF0000B63
:105990000018524149414BEB0B0BB2EB080C71EB79
:1059A00003077BF1000B24BF624639464EEB0E0E17
:1059B00051EA020718BF46F0010616EB0E7655F1C4
:1059C000000254F1000103D5BDE88901BDE800885B
:1059D000BDE88901BDE80048B619524141EB01011B
:1059E000A3F10103704780807F7E7D7C7B7A79788C
:1059F000777676757473727171706F6E6E6D6C6C94
:105A00006B6A6A6968686766666564646363626135
:105A10006160605F5F5E5E5D5D5C5C5B5B5A5A59B6
:105A20005958585757565655555554545353525222
:105A30005251515050504F4F4F4E4E4D4D4D4C4C7A
:105A40004C4B4B4B4A4A4A494949484848474747C3
:105A50004746464645454544444444434343434200
:105A6000424242414141002B26D4770021D01CB54F
:105A70004FEA370703B44FF010004FF010014FF01A
:105A800000000FBCBDE810400BF1010BBBF1010F92
:105A900008BF5FEA170722BF12F1010211F10101ED
:105AA0004FF0004143F1000300F0004043EA0000E2
:105AB0007047F9D35708DAE746EA064613F1400F74
:105AC0004FEA16461FDD13F1200FDFBF16430A46CB
:105AD000002120335B42C8D0C3F1200746EA0646C6
