:020000040800F2
:10000000806300201D020008250200082702000866
:10001000390200083B0200083D0200080000000011
:100020000000000000000000000000009101000836
:100030004102000800000000C50100085F40000800
:1000400047020008470200084702000800000000BD
:10005000000000002D3E000847020008470200088B
:10006000470200080000000047020008470200089D
:10007000470200080000000047020008C5220008EF
:10008000470200084702000800000000470200087D
:10009000470200080000000000000000000000000F
:1000A00000000000000000000000000047020008FF
:1000B00047020008470200084702000847020008FC
:1000C00000F002F800F055F80AA090E8000C824415
:1000D0008344AAF10107DA4501D100F04AF8AFF2F2
:1000E000090EBAE80F0013F0010F18BFFB1A43F016
:1000F00001031847E484000004850000103A24BF7F
:1001000078C878C1FAD8520724BF30C830C144BF7C
:1001100004680C60704700000023002400250026BE
:10012000103A28BF78C1FBD8520728BF30C148BF5A
:100130000B607047662906F08686642904F05687AE
:10014000632905F05884002070471FB506F06FFE44
:1001500005F0D2FC04000020002106F00BFA401C40
:1001600060600020002106F01BFAE0601FBD10B5A2
:1001700010BD05F0F2FD1146FFF7E7FF01F0FBFAB5
:1001800005F010FE03B4FFF7F2FF03BC05F014FE08
:100190001A4B19680868B0E8F00F80F309884FF02F
:1001A000000080F311884EF00D0E70470000000033
:1001B00003480068006880F3088862B600DF00BF6B
:1001C00008ED00E0EFF309800C4B1A6820E9F00F0E
:1001D000106008B54FF0200080F3118804F045FC52
:1001E0004FF0000080F31188BDE8084019680868E6
:1001F000B0E8F00F80F30988704700BFA00000202E
:10020000EFF311804FF0200181F31188704780F3E4
:1002100011887047EFF30580704700000D48804754
:100220000D480047FEE71EF0040F0CBFEFF30880F7
:10023000EFF3098001F0C9BFFEE7FEE7FEE7FEE746
:10024000FEE7FEE7FEE7FEE704480549054A064BE0
:1002500070470000CD020008C1000008805D00204A
:1002600080630020805F0020805F002010B51F4B5E
:10027000D8681F4C800701D5601000E02046D9687F
:10028000C90700D04008D968490704D55968C1F3A7
:100290000321491C4843D968164AC1F3012139B1E9
:1002A000012907D002290DD049F64040106010BD49
:1002B000146010BDD968C1F30311491CB0FBF1F003
:1002C000106010BD4FF40040106010BD07480A498F
:1002D000C161C1680021C16042684160826881607B
:1002E0000269016142694161C0E70000000002400B
:1002F00000127A000000002010000008FE4A19B128
:10030000D1690143D1617047D1698143D16170479F
:10031000F94AD16821F440710143D1607047C0F3BC
:100320004211012909D0F549C96B00F01F020120D3
:100330009040084204D001207047EF490968F4E773
:100340000020704710B500234FF4C0641720FFF75A
:10035000E6FF5B1CA34201D20028F7D01720FFF76D
:10036000DEFF08B1012010BD002010BDE449086087
:10037000704700B50120FFF7F9FFFFF7E3FF00200A
:10038000FFF7C6FFDC48C1680021C16042684160D8
:1003900082688160026901614269416182698161AB
:1003A000D849C16100BD00B5FFF7E3FF0121C806D0
:1003B000FFF7A4FFD148C16B41F48101C163C16B58
:1003C00001F48101C16300BDCB498A6822F00302B8
:1003D0008A60012806D0022803D1886840F0030013
:1003E00088607047886840F001008860704710B5E9
:1003F00000234FF4C0642220FFF791FF5B1CA3424F
:1004000001D20028F7D02220FFF789FF08B1012090
:1004100010BD002010BDB949CA6B22F00302CA63A7
:10042000012806D0022803D1C86B40F00300C8633E
:100430007047C86B40F00100C863704710B50023D7
:100440004FF4C0640D20FFF76AFF5B1CA34201D28A
:100450000028F7D00D20FFF762FF08B1012010BD82
:10046000002010BDA54AD16B21F07C5141EA00600B
:10047000D0637047A2491C39086070479F4AD16B0E
:1004800021F4F81141EA0040D063704710B5002311
:100490004FF4C0641520FFF742FF5B1CA34201D25A
:1004A0000028F7D01520FFF73AFF08B1012010BD52
:1004B000002010BD904AD36823F003030343D360A8
:1004C000506820F4706040EA012050608E48D0F8F7
:1004D0008810002904D0012140F88C1F0021016000
:1004E00070478A490860704789490860704710B5AD
:1004F00000234FF4C0642120FFF711FF5B1CA342CF
:1005000001D20028F7D02120FFF709FF08B1012010
:1005100010BD002010BD784AD16821F0F00141EAF9
:100520000010D0607047744A136923F0030303433B
:100530001361506820F0F00040EA011050607248EA
:10054000D0F88010002904D0012140F8841F002138
:10055000016070476F49086070476F4908607047D5
:1005600010B500234FF4C0642020FFF7D8FE5B1CB9
:10057000A34201D20028F7D02020FFF7D0FE08B117
:10058000012010BD002010BD644908607047644917
:1005900008607047584A516921F0330101435161A5
:1005A0007047554A516921F4706141EA0020506159
:1005B00070475C49086070474F4A916921F0F0012B
:1005C00041EA0010906170475749086070474A4AF5
:1005D000916921F00F01014391617047534908600F
:1005E00070472DE9F04FDFF820B1DBF88411DFF818
:1005F00040A14FEA4A0509B1514600E02946DBF81F
:10060000802102B149080B46DBF88821DFF8E8C0F9
:100610002AB1DCF80420C2F30322521C5343DCF855
:100620000C204FF40048C2F3012249F6404901274B
:1006300052B1012A0AD0022A1BD0C0F80090DBF880
:100640000422CAB1524618E00560F8E7DCF80C2035
:100650004FEA1212120701D41A4608E0DCF80C2007
:10066000C2F30212521C07FA02F2B3FBF2F202606A
:10067000E5E7C0F80080E2E72A46DBF8004204B173
:1006800052081446DBF808622EB1DCF80460C6F3A9
:100690000316761C74432646DBF810B2BBF1000F3C
:1006A00000D076084660DCF8186036095FEA067B01
:1006B00007D506F0070B0BF1010B07FA0BF6B5FB9C
:1006C000F6F5C560DCF818605FEA067B07D506F032
:1006D000070B0BF1010B07FA0BF6BAFBF6FAC0F8A1
:1006E00010A0DCF8146016F0030604D0012E39D0F7
:1006F000022E39D021461DE00000024000800D404E
:10070000D807B04310000008000040428801404272
:10071000880040420802404280004042200240429D
:1007200010024042B40240422403404220034042AF
:1007300000093D00DCF81420C2F30112B2B1012A15
:1007400016D0022A00D02946DCF81420120A13071A
:1007500005D502F00702521C9740B1FBF7F181600A
:10076000BDE8F08F1146C6E71946C4E74146EBE7FE
:100770004946E9E700210160416001614161416250
:1007800003210162704710B54A8802610A894B89CA
:100790000C881A448B8903EB04231A44CB881A442F
:1007A0000260CA8989881144416010BD002181809E
:1007B0000722C28041810181818102224280018021
:1007C000704721B1416841F00201416070474168C2
:1007D0004FF6FD721140416070471AB142690A43F9
:1007E0004261704742698A43426170478069814330
:1007F00001D00020704701207047C069084201D035
:100800000120704700207047026A0A430262704765
:100810001AB1426A0A4342627047426AC94389B2C6
:100820000A404262704781607047806880B27047BA
:10083000C068084201D0012070470020704710B501
:100840000A4BDA6A0A4CA04205D142F0807020F0CF
:10085000FF020A4308E0074CA04205D142F00070B5
:1008600020F47F4040EA0122DA6210BD000002401D
:100870000000044000000A400021C16001614160A5
:100880000160816041618161C16170472DE9FF4F65
:10089000D0F8048082680192D0F80C900769D0F8F3
:1008A00014C082690092D0F81CA000220123032505
:1008B0004FF001160C885EE05FEAC47B56D091F8D9
:1008C00002B028EA03080BFA02FB48EA0B0891F889
:1008D00008E04FEA420B0EFA0BFECDF80CB0DDF843
:1008E00004B02BEA050B4EEA0B0ECDF804E091F8AC
:1008F0000AB029EA03090BFA02FB49EA0B0991F84D
:1009000003E002F1100B0EFA0BFECDF808B091F8DF
:1009100004B0B74347EA0E070BFA02FB47EA0B079E
:1009200091F805E0DDF808B02CEA060C0EFA0BFE93
:1009300091F806B04CEA0E0C0BFA02FB4CEA0B0CD9
:1009400091F809E0DDF80CB00EFA0BFEDDF800B00E
:100950002BEA050B4EEA0B0ECDF800E091F807B03C
:100960002AEA030A0BFA02FB4AEA0B0A5B00AD0013
:100970007600521C6408002C9ED1474A904202D156
:100980004FF01F0101E04FF0000128EA0108C0F814
:10099000048002D14FF01F0101E04FF00001019BE4
:1009A00023EA0103836002D14FF01F0101E04FF001
:1009B000000129EA0109C0F80C9002D14FF01F0193
:1009C00001E04FF0000127EA0107076102D14FF073
:1009D0001F0101E04FF000012CEA010CC0F814C027
:1009E00002D14FF01F0101E04FF00001009A22EA0E
:1009F0000102826102D14FF01F0101E04FF00001BE
:100A00002AEA010AC0F81CA0BDE8FF8F4FF6FF716B
:100A1000018000218170C170017141718171C171CA
:100A200001724172817270470068084201D0012052
:100A3000704700207047006870470368164A90426C
:100A400001D11F2200E0002293430B430360704753
:100A50000368114A904201D11F2200E000220A439C
:100A600093430360704710B503680B4CA04201D15B
:100A70001F2400E00024A34312B10B43036010BD08
:100A80008B43036010BD044A904201D11F2200E055
:100A9000002291430160704700000B400021C160BB
:100AA000016041608160016241628162C1620163F3
:100AB00041638163C163016641668166C16601610C
:100AC00041618161C161016741678167C1670164FB
:100AD00041648164C164016541658165C165704798
:100AE00010B50A8802604A8842608A888260CA8893
:100AF0000B898C891A444B8923441A44CB891A44A4
:100B0000C2604A8A8B8A1A44CB8A098A03EB011194
:100B10001144016510BD0021018041808180C180A8
:100B2000018141818181C181018241828182C182B1
:100B30007047C26811B142F0010101E022F00101E9
:100B4000C1607047016070474160704781607047C5
:100B5000C36823F002031A44C260816070470068D2
:100B600080B27047C26822F470621144C16070475D
:100B7000C26822F030021144C1607047C26822F09E
:100B8000C0021144C1607047C26822F008021144DB
:100B9000C160704710B5046D24F0FE04114401EBF0
:100BA00003112144016510BD026D22F0F00202EB39
:100BB000011101657047026D22F00C0211440165BC
:100BC0007047026D22F00202114401657047026D08
:100BD00022F00102114401657047C068000701D48A
:100BE0000020704708207047C068400701D40020EB
:100BF00070470120704710B54A88CB884C891A4449
:100C00000B8923441A448B8902EB8312CB891A4443
:100C10000B8A1A448B880BB102F500520B8800EB4B
:100C200083031A62488ACA8A1044898A01B1001D66
:100C3000186610BD0021018041808180C180018142
:100C400041818181C181018241828182C18270475B
:100C500000EB81000261704700EB81000267704782
:100C600010B500EB81000146046E24F00804234413
:100C700003660846026110BD10B500EB8100014615
:100C8000046E24F00804234403660846026710BD7E
:100C900000EB8100006980B2704700EB8100006FBB
:100CA00080B2704700EB81002030016812B141F43E
:100CB000807101E021F480710160704700EB8100D8
:100CC000016A21F4005111440162704700EB810078
:100CD000016A21F4805111440162704700EB8100E8
:100CE000016A21F4606111440162704700EB8100E8
:100CF000016A21F0C00101EB82110162704700EB33
:100D00008100016A21F0300111440162704700EB5B
:100D10008100016A21F00F0111440162704700EB6C
:100D20008100006A400401D4002070470120704710
:100D300000EB8100016E21F0030111440166704750
:100D400000EB81006030016812B141F0040101E064
:100D500021F004010160704710B5CA884B880C89E6
:100D600002EB03128B889B0003EB04331A444B897C
:100D700002EB83228B8902EB03220B8800EB8300BA
:100D800002630A8A4B8AC9891A4402EB0121016471
:100D900010BD002141808180C1800181418181811C
:100DA000C18101824182704710B5029C00EB810035
:100DB000016B21F01F01240104EB82021A4411444B
:100DC000016310BD00EB8100016B21F00C0101EB10
:100DD00082010163704700EB8100016B21F0030188
:100DE00011440163704700EB8100016B21F0100199
:100DF00001EB02110163704710B5029C00EB81000A
:100E0000016B21F4F851240304EB822202EB03224C
:100E10001144016310BD00EB8100016B21F44061BE
:100E200001EB82210163704700EB8100016B21F42B
:100E3000407101EB02210163704700EB8100016BFF
:100E400021F4805101EB02310163704710B5029C1F
:100E500003EB0222224400EB8100026410BD406DCE
:100E60007047406D084201D0012070470020704754
:100E7000426D8A4342657047C36D0AB10B4300E07F
:100E80008B43C3657047836D0AB10B4300E08B430E
:100E900083657047426D806D02400A400AB10120AF
:100EA00070470020704710B50F4B5A6A0F4CA04294
:100EB00005D122F0FF00084340F0807212E00C4C94
:100EC000A04206D122F47F4040EA012040F00072A7
:100ED00008E0084CA04205D122F47F0040EA01401E
:100EE00040F080625A6210BD0000024000000740DE
:100EF00000800740000008403B48002181600161FC
:100F00000122826101604160704737498A68436805
:100F10009B0602D542F0200201E022F020028A6006
:100F200000680860000A48607047002141600121A4
:100F3000016070472C4A916810B141F0800001E0D7
:100F400021F0800090607047274A916810B141F00D
:100F5000400001E021F040009060704722480069A5
:100F6000C00701D001207047002070471E488169EA
:100F700041F00101816170471B4A20F001000843E4
:100F80005061902090617047174948611020886136
:100F900070471548402181617047134940F0200097
:100FA000886170471048C068C0B270470E488169B8
:100FB000006941EA0020C14340EA0140704700B5A2
:100FC0000246FFF7F3FF824301D0002000BD01205D
:100FD00000BD00B50246FFF7E9FF104201D0012035
:100FE00000BD002000BD000000000540CD480021EC
:100FF000016041608160C160016141618269C269D3
:10100000016241628162C16270478268016843681F
:101010001144C26802EB037211440269114442692F
:101020008069114401EB4050BF4BBE490A689A43A6
:101030001044086070470021016041608160C16018
:101040000161416181617047B64A116821F0F07118
:1010500001EB40501060704730B5B2490A68B24B9E
:10106000DB1C1A40D0E900342344D0E9024504EBEC
:101070000514234444692344C4692344446A234433
:10108000846A03EB446313444A6822F40032046A1E
:1010900002EB44420B604A60028B0A61428B8A6019
:1010A0000069886230BD30B59E494A689F4B1A403E
:1010B000D0E900342344D0E9024504EB051423446D
:1010C00044692344C4692344046A03EB8443446AA7
:1010D0002344846A03EB44631A444A60028B4A61E6
:1010E000428BCA600069C86230BD00210160416066
:1010F0008160C1600161416101834183C16101621D
:10110000416281627047874A116810B141F0010065
:1011100001E021F0010010607047824A516810B16F
:1011200041F0010001E021F00100506070477D4A6C
:10113000116821F4F87101EB001010607047794AD2
:10114000516821F4F87101EB001050607047754947
:10115000886270477349C8627047724B1A6822F4FC
:10116000027208441044186070476E4B5A6822F4AB
:10117000027208441044586070476A4A116821F0AE
:101180000801084410607047664A516821F0080160
:10119000084450607047634A116821F400710844A4
:1011A000106070475F4A516821F400710844506034
:1011B000704710B55B4B1C6824F4806422441A60AD
:1011C0001861996010BD10B5564B5C6824F48064BA
:1011D00022445A605861D96010BD52490861704775
:1011E0005049486170474F49886070474D49C86011
:1011F00070474C48016841F002010160704749485E
:10120000416841F00201416070474648806970477B
:101210004448C06970474348016A406A01EB004096
:1012200070474048006A70473E48406A704700B5C2
:101230000246FFF7F0FF104201D0012000BD002060
:1012400000BD3849096A014201D0012070470020E1
:1012500070473449496A014201D00120704700209B
:1012600070473048016A21F00101016270472D4842
:10127000416A21F00101416270472A48016A21F068
:101280000201016270472748416A21F00201416270
:10129000704770B5234E336A756A84008004020C6F
:1012A00021B142EA030045EA144103E023EA0200C7
:1012B00025EA14413062716270BD1A4B1A6A11B18D
:1012C00042EA800001E022EA800018627047154B74
:1012D0005A6A11B142EA800001E022EA80005862B5
:1012E000704700B50246FFF796FF02EA9001014001
:1012F00009B1012000BD002000BD0A49096A00EAC9
:101300009100084008B1012070470020704705494E
:10131000496A00EA9100084008B1012070470020A6
:1013200070470000008008400000FFF10300FBF15F
:1013300000210163C16241609022826101624162C9
:10134000816202224263816381644FF440710163D0
:10135000704770B586B004460D4601A8FFF741F905
:1013600001986849896A684B01229C4205D101F0C5
:1013700007018A40B0FBF2F007E0644B9C4204D1C5
:10138000C1F302218A40B0FBF2F02A689108B0FB59
:10139000F1F3990903F03F03800003EB8116B0FBE2
:1013A000F6F0801AC001B0FBF2F0022802D900204A
:1013B00006B070BD6162A362E06AA988EA886B89A1
:1013C00011432A891A4311430143E162206B4FF60E
:1013D00080718843A989014321630120E8E74FF424
:1013E0001651016000218180C180018141814FF44B
:1013F00040718181704721B1016B41F001010163AE
:101400007047016B4FF6FE721140016370471AB1CD
:10141000826B0A4382637047826B8A4382637047A0
:10142000C06B814301D00020704701207047006CE1
:10143000084201D00120704700207047426C0A43E7
:101440004264704742EAC101416370471AB1826C3D
:101450000A4382647047826CC94389B20A4082643D
:101460007047C1F3080101607047006880B270479F
:1014700021B1C16A41F00101C1627047C16A4FF6F2
:10148000FE721143C162704730B585B004460D4607
:10149000042D08D16846FFF7A4F800984FF4E11135
:1014A000B0FBF1F02062206B2843206305B030BD13
:1014B00021B1016B41F0020101637047016B4FF6EE
:1014C000FD721143016370478069084201D0012019
:1014D00070470020704710B50A4B9A6A0A4CA04228
:1014E00005D142F0807020F0FF020A4308E0074C6B
:1014F000A04205D142F0007020F47F4040EA012272
:101500009A6210BD000002400000034000800340CA
:1015100010B583680268B3F1406F26D08469641EF9
:101520009B0E9C4022440A604269042A1FD0C26874
:10153000B2F1404F1FD083695B1E920F9340426807
:101540001A444A60D0E903231A43446A8368234358
:101550001A43036A1A43C3691A43836940695B1ECD
:1015600042EA031202438A6010BD0A60DCE7426867
:101570000C324A60E6E742684A60E3E771480021BE
:10158000416081604161491EC1614162C162416344
:10159000C1630121C164704729B16A49C96801EB7F
:1015A00000111046B4E7684901EB00111046AFE79F
:1015B00001EB00111046ABE770B58AB005460C464A
:1015C000604E6148B06021680091F16801EB05113F
:1015D00001914FF000610291090103914FF0085110
:1015E0000491042105916168890006914FF400413E
:1015F0000791A1680891E168099100EB051168461F
:10160000FFF786FF01207060607D0122AA4001285B
:1016100009D0F2617262B2627263207D012804D047
:10162000F2630AB070BDB261F4E7B263F9E770B576
:1016300006460C46434D4449A960206818B101EBA9
:101640000611FFF765FF606820B1E96801EB06113C
:10165000FFF75EFF01206860607B0122B240012835
:101660000AD0EA616A62AA62A07B38B12A63207B51
:10167000012805D0EA6370BDAA61F3E76A63F6E763
:10168000AA6370BD002101604160816001734173F4
:10169000817370470021016041608160C160016118
:1016A000017541757047012282402648012901D009
:1016B000C2627047826270470121814021484161C6
:1016C000704720490120C86470471E4A39B1D1686B
:1016D00001EB00108068C0F30910401C704791684E
:1016E00001EB0010F6E70122164B8240092926D2B1
:1016F000DFE801F02505090D1115191D21001868F5
:1017000000F001007047D86C00F001007047986A43
:101710001040C0B27047186A1040C0B270471869D4
:101720001040C0B2704798691040C0B27047186B43
:101730001040C0B27047986B1040C0B27047002094
:1017400070470000008002400004002008B5042219
:101750006946002000F0B8FF4C4900980422694611
:1017600040F2FC7000F0B0FF494A0099914201D06C
:1017700040F0020008BD1FB500F0FCF800F02EF9A3
:1017800001F074F800F01FFB00F043FB00F093FB46
:1017900000F080F900F04AFB00F083FA00F0F0FA64
:1017A00000F061FE00F0F6FE00F0FEFE3948008811
:1017B000800603D5012001F056FA02E0002001F076
:1017C00052FA01253448E903002401604FF050002B
:1017D00000F065FC552000F065FC30480460446072
:1017E000CDE900540294002380222DA12E480394B9
:1017F00002F04AFF0226CDE9006402940023802211
:101800002AA12D48039402F03FFF00940194029412
:101810000023802229A12B48039402F035FF0320E6
:10182000CDE9000402940023802227A129480394D3
:1018300002F02AFFCDE9006402940023802226A151
:101840002648039402F020FFCDE900542E020294B2
:101850000023324622A12548039402F015FFCDE96A
:10186000005402940023324621A12448039402F03C
:101870000BFFCDE9005402940023802220A12448CC
:10188000039402F001FF03F0E6F9FEE7556677885E
:10189000112233442200002000E100E01800002063
:1018A00047554920746F7000FD330008436F6E7612
:1018B0006572746572000000512D000853657276E0
:1018C00069636500C53400084469737061746368B6
:1018D0006572000049350008414443006536000840
:1018E0005541525432205258000000002739000858
:1018F000554152543220545800000000DD3B00088E
:10190000536F756E64206472697665720000000022
:10191000D93E0008FE48FD498160012141607047C1
:101920002DE9F04107460D46F94E0124BC40F46212
:10193000286820B1F54901EB0711FFF7E9FD686858
:1019400020B1F16801EB0711FFF7E2FD687B012888
:101950000AD0F4617462A87B40B13463287B01280B
:1019600006D0F463BDE8F081B461F3E77463F5E792
:10197000B463F7E710B50120FEF726FDFEF737FD4B
:10198000012800D0FEE707210220FEF793FD012089
:10199000FEF7AAFDFEF7ABFD012800D0FEE7002010
:1019A000FEF7B9FD0120FEF79CFD4FF48070FEF7B5
:1019B000AFFC2020FEF7EEFD0020FEF7F2FD012037
:1019C000FEF7F7FDFEF752FC0121D248FEF796FC28
:1019D000BDE810400121D048FEF790BC2DE9F04150
:1019E000CE4908684FF6FF021040CD4A40F44070DF
:1019F000104308606FF00407384600F004FCC94C3F
:101A00002060BD10284600F0FEFB60606E1030467E
:101A100000F0F9FBA060052000F0F5FBE0600F206E
:101A200000F0F1FB20610621052000F0E0FB06211B
:101A30000F2000F0DCFB384600F0E5FB2060284674
:101A400000F0E1FB6060304600F0DDFBA0600520A7
:101A500000F0D9FBE0600F2000F0D5FB206181E7AA
:101A600010B56FF0040000F0CEFBAE4C20606FF0BC
:101A7000010000F0C8FB60604FF0FF3000F0C3FBD6
:101A8000A060052000F0BFFBE0600F2000F0BBFB72
:101A9000206110BD2DE9FE4FDFF88CB25846FEF7ED
:101AA000EBFEA248FEF7E8FEA148FEF7E5FEA148DE
:101AB000FEF7E2FEA048FEF7DFFEA048FEF7DCFEE0
:101AC000C0219A48FEF7B9FF6846FEF79FFF212024
:101AD000ADF8000001248DF80A4069465846FEF72B
:101AE000D5FE4FF00409ADF800908DF8034069462B
:101AF0005846FEF7CBFE0225ADF800508DF80240A7
:101B00008DF8094069465846FEF7C0FE1820ADF82A
:101B100000008DF8085069465846FEF7B7FE684643
:101B2000FEF774FF4FF0800AADF800A08DF80A4070
:101B30008DF8095003268DF808608DF8024069463B
:101B40005846FEF7A3FE4027ADF800704FF000089E
:101B50008DF8028069465846FEF798FE6846FEF703
:101B600055FF40F23770ADF800008DF80A40694625
:101B70006E48FEF78BFEA002ADF8000069466B4888
:101B8000FEF784FEC020ADF800008DF802408DF80D
:101B9000094069466548FEF779FE6846FEF736FF5C
:101BA000ADF800908DF80A408DF808508DF8094086
:101BB00069465F48FEF76AFEADF800608DF809508F
:101BC00069465B48FEF762FE6846FEF71FFF9720F6
:101BD000ADF8000069465748FEF758FE2820ADF8DA
:101BE00000008DF80A408DF808508DF809508DF8E6
:101BF000024069464F48FEF749FEADF800708DF887
:101C0000044069464B48FEF741FE6846FEF7FEFE7B
:101C10004520ADF800008DF80A408DF809508DF888
:101C2000024069464448FEF731FEADF800A08DF849
:101C3000086069464048FEF729FE0A20ADF800001A
:101C40008DF8085069463C48FEF720FE6846FEF7CE
:101C5000DDFE0C20ADF800008DF80A408DF809403B
:101C60008DF8024069463548FEF710FE6846FEF7DB
:101C7000CDFEADF800508DF80A408DF809508DF872
:101C800008608DF8024069462C48FEF7FFFDADF86C
:101C900000408DF8028069462848FEF7F7FDBDE850
:101CA000FE8F2DE9FF476846FFF799FBDFF890901C
:101CB0004846FFF73DFB4FF4E13600966027ADF84C
:101CC00004700024ADF80640ADF808404FF010084D
:101CD000ADF80A80FD00ADF80C5000214846FFF732
:101CE000FAFB69464846FFF734FB01214846FFF7F7
:101CF00082FBDFF850A05046FFF71AFB0096ADF8C4
:101D00000470ADF80640ADF808401DE00004002066
:101D1000008002400000E023E0C413000CED00E06E
:101D20000000FA050008002000800A4000000B4077
:101D300000800B4000000C4000800C4000800E40F2
:101D40000080034000000340ADF80A80ADF80C505D
:101D500000215046FFF7BFFB69465046FFF7F9FAEE
:101D600001215046FFF747FB022211465046FFF77C
:101D700069FB022211464846FFF764FBBDE8FF8776
:101D800070B5FFF7FBFBFD484FF0FF340462846140
:101D9000861501213046FEF7B1FAF94D002128469B
:101DA000FEF74DFD00216962F64841623046FEF7BC
:101DB000A5FAF54AC2F8FC41C2F8FC40FFF7AAFDBB
:101DC0002020D06770BD1FB56846FEF7EFFCED4CD4
:101DD00000212046FEF733FD0420ADF8000002226A
:101DE000ADF802200021ADF804100820ADF806007F
:101DF000ADF80810ADF80A10ADF80C10ADF80E20D3
:101E000069462046FEF7BFFC01212046FEF7D9FCBB
:101E10001FBD1CB50120FFF78DF84FF480700090B6
:101E2000002001906846FFF770F81CBD30B593B0F4
:101E3000FFF7DCF80CA8FFF7FEF800240C940A204A
:101E40000D904FF400300E9040000F904000109025
:101E500040001190012512950CA8FFF7D6F801A8B3
:101E6000FFF743F904200190029403941F2004908B
:101E700005940694ADF81C40ADF81E40E8020890A9
:101E800009954FF4E0400A900B9401A8FFF7E4F89D
:101E900001A8FFF708F900210620FFF70EFA00213C
:101EA0000620FFF714FA0120FFF72DF90120FFF7B4
:101EB00034F913B030BD2DE9F04391B00BA8FEF713
:101EC0002AFE1F20ADF82E0040F2F310ADF83000CE
:101ED000AE4E0BA93046FEF703FE05A8FEF7AAFE9C
:101EE0000024ADF816404FF44068ADF81E8001257F
:101EF000ADF814504FF00809ADF8269005A930460A
:101F0000FEF779FE6846FEF744FFADF80240ADF8F3
:101F10000450ADF80650ADF80840ADF80A50ADF8E1
:101F20000C50ADF8005069463046FEF715FFF92019
:101F3000706100213046FEF7B6FF01213046FEF702
:101F4000F8FD0BA8FEF7E7FDADF82E5040F6FF7048
:101F5000ADF830008E4F0BA93846FEF7C1FD05A83D
:101F6000FEF768FEADF81640ADF81E80ADF826907D
:101F7000ADF8144005A93846FEF73DFE0226ADF83F
:101F8000146005A93846FEF736FE05A8FEF752FE96
:101F9000ADF816406802ADF81E00ADF81450ADF86B
:101FA000264005A93846FEF726FE6846FEF7F1FEF4
:101FB000ADF80850ADF80A60ADF80C50ADF800402F
:101FC00069463846FEF7C8FEADF8006069463846F7
:101FD000FEF7C2FE3C61BC617C6101229102384681
:101FE000FEF751FF00213846FEF75DFF012138461C
:101FF000FEF79FFD0BA8FEF78EFD0F20ADF82E001B
:102000006320ADF83000634F0BA93846FEF768FD3A
:1020100005A8FEF70FFEADF81440ADF81640ADF878
:102020001E80ADF8269005A93846FEF7E4FD684607
:10203000FEF7AFFEADF80040ADF80460ADF8024029
:10204000ADF8065069463846FEF786FEADF81460D6
:1020500005A93846FEF7CFFDADF80060ADF80440A5
:10206000ADF80640ADF80A60ADF80850ADF80C5078
:1020700069463846FEF770FE3C61BC610021384677
:10208000FEF711FF01213846FEF753FD11B0BDE800
:10209000F0833F49086170473D49886170473D4979
:1020A00088617047642800D964203A490861704704
:1020B00038B500F009FC00285ED172B6002000F0AF
:1020C00009FC41F2883000F0EAFB04460020FFF7EB
:1020D000E9FF0020FFF7E3FF0020FFF7DAFF002011
:1020E000FFF7DAFF00212C4800F075FC00212B4897
:1020F00000F071FC28480090294B2AA20A210020F8
:1021000000F00DFD25480090254B26A20A21002055
:1021100000F005FD204600F0C7FB0028FAD100F0D2
:10212000E4FB012000F0ECFB012000F0F4FB1A4975
:10213000012000F0C2F91949022000F0BEF94FF465
:102140007A7000F0ACFB0446204600F0ADFB00289E
:10215000FAD11748FEF790FB1648FEF78DFB16489C
:10216000FEF78AFB1548FEF787FB1548FEF784FB50
:102170001448FEF781FBFEE726E0000000800240E5
:102180000000044000000A4084E000E00000074036
:10219000008007400000084086080020460F00200D
:1021A000507F0008506F776572204F464600000050
:1021B00000800A4000000B4000800B4000000C40F3
:1021C00000800C4000800E4038BD154902680A604E
:1021D00042684A6082688A60C268CA6002690A61AD
:1021E00042694A6182698A61C069C861FEE749073C
:1021F000090E002804DA0B4A00F00F0081547047E2
:10220000094A81547047002805DA064900F00F009A
:10221000405C400970470449405C40097047000039
:102220003C08002014ED00E000E400E07CB500F084
:102230002DFB0546002001903B4C6168491E616002
:1022400009D100903948002301AA6946006802F0CC
:1022500084F819206060A168491EA16008D1354842
:10226000002301AA3249006802F077F83220A0600A
:10227000E168491EE16008D13048002301AA2E49D7
:10228000006802F06AF80A20E0602169491E2161B5
:1022900008D12C48002301AA2949006802F05DF802
:1022A00005202061019818B127494FF0805008603F
:1022B000284600F0F0FA1C4914310A68824200D224
:1022C00008607CBD10B500F0E1FA0446FFF7F0FEAF
:1022D00015490888401E0004000C088003D1052021
:1022E000088001F00AFA00F058FE00F0B3F9174A2E
:1022F000506900F5486080B29168814201D29168CE
:10230000401A50614FF480611046FEF7B1FD00F0B5
:10231000BDFA0146204600F0BCFA034914314A6870
:10232000824200D2486010BD04000020500000200E
:102330004C6E0008480000208C6E000858000020F9
:10234000A86E00088400002004ED00E00080074033
:1023500070B50446012901D144F48074694D02210D
:102360002846FEF765FA0128F9D121462846BDE83E
:102370007040FEF758BA10B500F091FA04462046B6
:1023800000F092FA0028FAD110BD10B55E4A01287B
:1023900007D004211046FEF75BFBBDE81040142077
:1023A000E9E704211046FEF748FBF6E770B5002187
:1023B000E220FFF7CDFF00213D20FFF7C9FF0021FC
:1023C0000120FFF7C5FF0021E120FFF7C1FF002139
:1023D0000846FFF7BDFF00212420FFF7B9FF0021C9
:1023E0009020FFF7B5FF0021A020FFF7B1FF0021EB
:1023F000C820FFF7ADFF0021A620FFF7A9FF0021AD
:10240000A420FFF7A5FF00212F20FFF7A1FF002147
:102410004020FFF79DFF0021F820FFF799FF0021E2
:10242000D020FFF795FF00213020FFF791FF00211A
:10243000B020FFF78DFF00211020FFF789FF00215A
:102440000846FFF785FF002440F25F350121002098
:10245000FFF77EFF641CA4B2AC42F7D3BDE8704026
:102460000021AF2074E770B5274C01212046FEF70C
:10247000EFFA42F210752846FFF77DFF0121204652
:10248000FEF7DBFA2846FFF776FF0120FFF77DFF16
:10249000FFF78CFF1B4C10212046FEF7C9F90028DE
:1024A000F9D10220FFF771FFFFF780FF10212046CE
:1024B000FEF7BEF90028F9D170BD70B50D46FFF7E3
:1024C00064FF0021B020FFF743FF00211020FFF739
:1024D0003FFF00210846FFF73BFF00244FF45876EA
:1024E00035F814000121C0B2FFF732FF641CA4B21A
:1024F000B442F5D3034C10212046FEF799F9002889
:10250000F9D170BD00000A4000800C4070B5002475
:102510003D4D686820F0C00068600A2000F0BFF9F7
:1025200006463A480068810600D41024400701D4CA
:1025300044F480742868C10701D144F00104810784
:1025400001D444F00204410701D444F00404C1065C
:1025500001D444F00804800601D444F0200430463D
:1025600000F0A2F90028FAD12868696841F0C0019A
:102570006960010601D444F04004400601D444F0EF
:1025800080042348048070BD21480021801C4180C4
:102590008180704700201F4A002122F81010401C43
:1025A000C0B20928F9D3EFE72DE9F041FFF7AEFFFC
:1025B00017480488FFF7E8FF0020154D0126154F46
:1025C000AD1C06FA00F18AB237F810104904090C64
:1025D000144201D041F0010101F00303012B02D0AC
:1025E000022B07D103E06B8813436B8002E0AB88BA
:1025F0001343AB8027F81010401CC0B20928E0D369
:102600002C80BDE8F081000000000B4000800A40F3
:10261000200000207408002070B504460C4DE0072F
:1026200004D080212846FEF713FA03E080212846D3
:10263000FEF703FAA00705D52846BDE87040402103
:10264000FEF706BA2846BDE870404021FEF7F5B90E
:1026500000000B401A4908788006000E0870194ADD
:102660001368DB0502D540F0010008701068800592
:1026700003D5087840F002000870087800F00F00D9
:102680000F280CD2DFE800F00B0C080B080B0B0C2A
:102690000C0B0B080B080C004888401E4880704744
:1026A0004888401C4880704705498A8848884FF60A
:1026B000FC7318408880801A00B28010C880704770
:1026C0002800002000000B402DE9F04707460D468A
:1026D0001446002607F4E060C00940F0A0084FF05F
:1026E00080494846FEF775FC0128FAD10021404692
:1026F000FEF742FC4FF0007A5046FEF76AFC0128D4
:10270000FAD14FF000494846FEF763FC012805D096
:102710000126FEF73EFC3046BDE8F087F8B2FEF732
:1027200033FC57463846FEF754FC0128FAD1484698
:10273000FEF74FFC012801D00226EAE701214046BE
:10274000FEF71AFC3846FEF744FC0128FAD1484649
:10275000FEF73FFC012812D00326DAE71CB1002067
:10276000FEF71BFC02E00820FEF717FC3846FEF7D8
:1027700030FC0128FAD1FEF715FC05F8010B20000A
:10278000A4F10104E4B2E9D1C3E72DE9F0478046A2
:102790000D461446002608F4E060C00940F0A0078A
:1027A0004FF080494846FEF714FC0128FAD1002179
:1027B0003846FEF7E1FB4FF000773846FEF709FC9C
:1027C0000128FAD14FF000494846FEF702FC0128E3
:1027D00004D00126FEF7DDFB30469DE708F0FF0040
:1027E000FEF7D2FB3846FEF7F4FB0128FAD1484643
:1027F000FEF7EFFB012801D00226EBE74FF400487B
:102800000DE02878FEF7C0FB6D1C3846FEF7E1FBB3
:102810000128FAD14046FEF7DCFB012805D0200054
:10282000A4F10104E4B2ECD1D4E70326D2E710B559
:102830004FF080442046FEF7CCFB0128FAD100215E
:10284000A020FEF799FB4FF000742046FEF7C1FB75
:102850000128FAD1FEF79DFB4FF00040FEF7B9FBCF
:10286000012801D0002010BD012010BD11480168D1
:10287000C9070AD1016841F0807101600E4800214A
:102880004160016841F00101016070470A484068F9
:102890007047081A704708494968081A704706497E
:1028A000496801EB4010704703494968081AC00F96
:1028B00070470000FCED00E0001000E01B480068DD
:1028C00040F30000401C70471948006840F3802026
:1028D000401C7047174A012803D004211046FEF718
:1028E000B7B804211046FEF7A8B8124A012803D051
:1028F00008211046FEF7ACB808211046FEF79DB837
:102900000A4A012803D002211046FEF7A1B802218D
:102910001046FEF792B8084A012803D0402110461D
:10292000FEF796B840211046FEF787B800800A40AF
:1029300000000B4000800E4000800C4030B5CC08F9
:1029400004EB4404C0EB44155F3533F81500C0B206
:10295000012401F007018C4022B1012A04D0022A8F
:1029600005D006E0A04304E00443E0B201E04440A7
:10297000E0B223F8150030BD2DE9F0430546DDF83F
:102980001C90884616461F46002409E02046641C19
:102990002844E4B2C0B24B463A464146FFF7CEFF68
:1029A000B442F3D3BDE8F0832DE9F0438046DDF86F
:1029B0001C900D4616461F46002409E02046284478
:1029C000641CC1B2E4B24B463A464046FFF7B6FF3C
:1029D000B442F3D3E6E700224FF4587320F8121004
:1029E000521C92B29A42F9D370472DE9FF4FDDE9AC
:1029F0000D8A02F00707D00800EB4000C1EB401041
:102A00005F301FFA80FE00254FF0010B45E04FF0CC
:102A1000000C2E46AEEB050084B240460BFA07F1DF
:102A20004942CAB207EB0809B9F1080F06D20BFAFE
:102A300009F1491EC9B20A4041462AE0C7F108011E
:102A400089B226E0DDF8009019F8069009FA07F936
:102A500049EA0C091FFA89FC3AF8149009F0FF09B9
:102A600029EA02090CEA020242EA09022AF81420C1
:102A70004FEA1C2C6034A4B2F21896B2401A80B20D
:102A8000082801D3082100E001460BFA01F2521E8A
:102A9000D2B20028D6D16D1CADB29D42B7D3BDE8ED
:102AA000FF8F30B500234C6849780AE014F83350A2
:102AB000954204D104EBC30106C906C030BD5B1CBE
:102AC0009BB29942F2D806CC06C030BD2DE9FF4733
:102AD0000546DDF830908A4616469846002419E0EF
:102AE0002046641C325CA4B241466846FFF7D9FF19
:102AF000DDE90001CDE9020198F80000CDE9000907
:102B00009DF8097052463B4629460398FFF76DFF32
:102B10007819C5B2305D0028E2D1BDE8FF872DE904
:102B2000FC430646DDF82480894617461C460025EE
:102B300012E028466D1C385CE178ADB248436178FC
:102B4000CDE900186168237808444A463146FFF70A
:102B50004CFF20783044C6B2785D0028E9D1BDE84A
:102B6000FC83000010B50122FE4B5B691C7C54B154
:102B70005C89844202DB2046052204E01C898442F1
:102B800001DC20460422DC88844202DB204603224A
:102B900004E09B88834201DC184602220A7080B25E
:102BA00010BD70B50823EF4A5269547C012C0AD03D
:102BB000948AD58A92F824606EB1D68B864205DB62
:102BC00030460C2307E0148B558BF3E7928B82423F
:102BD00001DC10460B23A84202DC28460A2303E04E
:102BE000A04201DB204609230B7080B270BD30B5D6
:102BF0001025012A16D0032A0AD0042A0DD001F18B
:102C000008024B898C89984211DA1846112512E086
:102C100001F11E024B8C8C8BF5E701F11C02CB8B72
:102C20000C8CF0E701F10A02CB890C89EBE7A0429A
:102C300001DD204612251080284630BD70B5C94DF3
:102C4000686940880524B0FBF4F0FFF722FA69694F
:102C5000488A497C012900D14008B0FBF4F0BDE866
:102C60007040FFF719BA70B5BF4901220A700022FF
:102C70004A7041F288334B805B008B80CA804FF4EE
:102C8000FA540C8140F6B8344C818B81CA810A74A5
:102C90004A744FF47A634B8244F620638B82CA8273
:102CA0005C000C834A8349F288058D8347F23055D6
:102CB000CD830C844A8481F8242001F126042270FB
:102CC000627042F6E0656580A380E2804FF47A5539
:102CD000258140F2DC556581A381E2812274627412
:102CE0004FF4FA656582A382E2822383628344F211
:102CF0005065A58341F27075E5832384628484F86E
:102D00002420984D68B1696168690078FFF7EDFD8E
:102D10006869407CFFF7F4FD6078BDE87040FFF71C
:102D2000FABD6C61F0E78F480178490706D50421A8
:102D3000417041780029FCD1102070470020704775
:102D400088480621417041780029FCD10120704754
:102D500086B000220C21052001F00DFA814CA06103
:102D600060B1DFF8048208254FF400374FF4803B50
:102D7000DFF8F891012608F1260A03E1FEE70828AA
:102D80003FD121E002A90498FFF7ECFE6169488079
:102D90009DF80800022813D0032811D0042811D070
:102DA00005280FD0CDF800B0009840F03200009018
:102DB00000231A466946D9F8000001F069FA20E0BC
:102DC0000097F1E70097EFE702A90498FFF7E9FE03
:102DD000616948829DF8080009281AD00A2818D08D
:102DE0000B2818D00C2816D0CDF800B0009840F071
:102DF0003200009000231A466946D9F8000001F01D
:102E000047FA206900F00F00012806D0022816D1E9
:102E100042E00097EAE70097E8E7039803280FD01D
:102E20000398042813D00398052817D00398062880
:102E30001CD00398022820D0039801281FD06DE0F1
:102E4000C4F81480657060780028FCD166E0C4F88E
:102E500014A0657060780028FCD15FE061690020F3
:102E60004874657060780028FCD157E0606946744A
:102E7000657060780028FCD150E026614EE0207833
:102E8000C0064BD42078800648D56670607800284C
:102E9000FCD10220206141E00398022803D003986E
:102EA000032804D013E0FFF74BFF206136E0606990
:102EB00040450CD0FFF744FF2061042001F069FD7C
:102EC000C4F81480657060780028FCD126E003986F
:102ED00004280FD1606950450CD0FFF731FF206105
:102EE000042001F056FDC4F8148065706078002855
:102EF000FCD113E02078800710D52661FFF713FF7F
:102F0000216908432061C00608D5194800900023B4
:102F10001A466946D9F8000001F0BAF90398FF286B
:102F200007D10196134800231A4601A9006801F051
:102F3000AFF972B660690078FFF7D7FC62B66069D6
:102F4000407CFFF7DDFC9AF80100FFF7E4FC6069C4
:102F500002A9408AFFF725FE61694882488802A9D4
:102F60000AE0000030000020061600208400002047
:102F7000340003006C000020FFF7F4FD6169488015
:102F8000FFF75CFE00235A1E03A9A06901F036FA80
:102F9000039807283FF4F6AEF1E62DE9F041002052
:102FA000604D29784FF4FA7611F00A0F01D0AE8007
:102FB00005E0A98811B1491EA98000E0012018B1DF
:102FC000FFF77CFC044600E000243CB1E88808B12F
:102FD000401EE880E888C82718B111E00520E88085
:102FE000F8E7287820F001002870287840F00600E3
:102FF00028702F81012300224B49A86901F0ADF907
:103000006878400703D5287820F004002870687895
:1030100080070CD52878800709D4287820F0010093
:103020002870287840F0020028702F810DE0687821
:10303000C0070AD02878C00707D1287820F00200FE
:103040002870287840F0010028706878000701D5C2
:10305000642068816878C00600D56E81A878C007B2
:1030600004D0287840F00800287006E0A87880078F
:1030700003D5287820F00800287000206870A87018
:10308000287810F00A0F03D00020FFF723FC05E09A
:103090002878C00702D00120FFF71CFC0020297807
:1030A000C90702D0A98901B90120012C02D02969E0
:1030B000C90601D540F00200FFF7AEFA012C0BD192
:1030C000E88948B91A48012300221849006801F02C
:1030D00044F94FF47A70E881288930B1401E288184
:1030E000287840F01000287003E0287820F01000C5
:1030F0002870688930B1401E6881287820F020004F
:10310000287003E0287840F020002870A88908B1D2
:10311000401EA881E889002801D0401EE881BDE852
:10312000F081000030000020586E0008AC6E0008EE
:10313000840000203EB500220092C048C04940886B
:10314000C00604D50878022815D0401C0870BD4878
:10315000B0F900301BB30878BB490A68B949B1F926
:10316000001001EB4104C4EBC11130B101280BD0B8
:10317000022817D10FE00A70E9E707200090508875
:1031800000EB810001900DE008200090508A00EBD8
:103190008100019006E0002B02DD0620009001E096
:1031A000052000900098002806D0A84800231A4661
:1031B0006946006801F06CF83EBDF0B58DB0142290
:1031C000A34908A802F0CEF81422A149143103A89B
:1031D00002F0C8F800219F48FFF7FDFB00219E4840
:1031E000FFF7F9FB9D48008803F0C8FD9C4F394666
:1031F00003F002FD03F0D4FC02460B4699A108A897
:1032000001F08EFE934C0021984B08AA08460094CA
:10321000FFF75CFC8C4D2868408803F0AFFD394611
:1032200003F0EAFC03F0BCFC02460B468DA103A8A8
:1032300001F076FE8E4B8FA2262100200094FFF72E
:103240006EFC8E4B03AA212120200094FFF73EFC48
:103250008B48008803F092FD394603F0CDFC03F063
:103260009FFC02460B4687A108A801F059FE7A4E42
:1032700000217E4B08AA08460096FFF727FC286825
:10328000408A03F07BFD394603F0B6FC03F088FC6E
:1032900002460B467BA103A801F042FE744B75A2C7
:1032A000262100200096FFF73AFC744B03AA212147
:1032B00020200096FFF70AFC01236022372100201E
:1032C0000094FFF759FB01230D2238213020009490
:1032D000FFF76AFB6D48B0F9000003F04EFAB02228
:1032E000009202460B466AA108A801F019FE604B45
:1032F00008AA39213F200094FFF711FC28680078C4
:10330000012844D05A4B65A2392100200094FFF7D0
:1033100006FC01236022372100200096FFF72CFBDA
:1033200001230D2238212A200096FFF73DFB286853
:10333000407C012833D04E4B5AA2392102200096FE
:10334000FFF7EDFB5848006803F018FD394603F01D
:1033500053FC03F025FC02460B4654A108A801F0DB
:10336000DFFD434B08AA39212F200096FFF7D7FB3A
:103370003C208DF8200000208DF8210030484D4978
:103380000078A0B101281CD002282DD123E0384BB1
:1033900049A2392100200094FFF7C1FBB9E7344B63
:1033A00047A2392102200096FFF7B9FBCAE7487807
:1033B000CDE900040B78486826225921FFF715FB58
:1033C00012E04878CDE900060B784868262259219A
:1033D000FFF70BFB08E04878CDE900060B7848685A
:1033E00038222321FFF701FB1A490120FFF765F876
:1033F00019490220FFF761F80DB0F0BD08B50022B1
:103400000421052000F0B7FE0D4C606010B14FF0B4
:10341000FF3508E0FEE7012805D102E0FFF7CDFE09
:1034200001E0FFF787FE00232A466946606800F046
:10343000E5FF00980028F1D0EDE700002200002011
:103440004C0000202E0000204400002048000020F6
:10345000646E000886080020460F002060000020EF
:1034600000007A4425352E32665600008C83000811
:10347000507F00085345543A00000000288500089A
:103480006200002025352E326641000054000020E5
:1034900025322E30662563430000000043682E313C
:1034A00032560000323041006800002025352E31B0
:1034B000665700003C85000843682E203556000002
:1034C0003430410008B501F0E9FB00900220FDF71F
:1034D00036FE174CFA21684601F032FA0026002524
:1034E000FDF78DFE022001F054FAFDF791FE304405
:1034F00086B26D1C0A2DF3D3304603F055F90D4A00
:103500000D4B03F065F90D4A0D4B03F061F90022F4
:103510000C4B03F05BF803F001F900B2208019288E
:1035200001DA322000E0400080B2FEF7B8FDD1E7BA
:10353000540000209A9999999999B93F21B07268DD
:1035400091EDCCBF00C06C4086B000240022082161
:103550000A2000F010FEDFF8FC80C8F8000040B13F
:1035600001253D4F0226A1464FF0FF3B40F2112AB4
:1035700060E0FEE70ADC80B1B0F5007F37D0A0F54F
:103580000070013835D00F284BD134E001293CD0F0
:10359000A1F58071EF3944D125E0FFF705F8FFF779
:1035A00083F87888204378800024810602D50320A0
:1035B00001900FE0B9888A0602D50420019009E045
:1035C000020601D4C90501D5019603E010F4A07FDD
:1035D00000D001950095214800231A4669460068ED
:1035E00000F056FE1DE00598204384B219E00195D5
:1035F00017E0019615E0072001900598029010E071
:1036000008200190059802900BE00598142803D03B
:103610000598282803D004E00520019001E0062049
:103620000190019830B10E4800231A4601A90068A4
:1036300000F02EFE00235A4604A9D8F8000000F03E
:10364000DDFECDF804900498A0F211215045D7D0AA
:1036500090E70000580000202200002050000020C9
:103660004800002008B500220421052000F083FD59
:10367000594C206180B103220021012000F07BFD24
:10368000606120B100231A46194600F001FE60690E
:1036900018B14FF0FF3521E0FEE7FEE70320207070
:1036A00000232A461946606900F0A8FE2089800898
:1036B00000EB800081B2A18060898008E080474AE9
:1036C0001268527C012A13D000EB8000E080E08871
:1036D00041434FF47A7091FBF0F0E06000232A46FA
:1036E0006946206900F08AFE00980128F6D1D5E7E6
:1036F00000EB80004000E080E9E770B5364C002226
:103700002146607801250426C978032838D005DCD5
:1037100050B101280ED0022804D12AE0102840D050
:10372000112845D0627070BD2078A0700028FAD0B2
:10373000657070BDA07800F00501012908D08107EF
:103740000DD520F00200A07010206070628170BD65
:1037500020F00500A07002206070228170BD6270B0
:1037600022706069BDE8704000231A46194600F0D7
:10377000F4BD0420FDF7DBFCE6700320607070BD33
:10378000042904D2FDF741FD218908442081E07815
:1037900028B1FDF72EFDE078401EE07070BD657029
:1037A00070BD0720FDF7C3FCE6701120607070BD8E
:1037B000042904D2FDF729FD618908446081FDF7E1
:1037C00018FDE07828B1FDF714FDE078401EE070A8
:1037D00070BD657070BD00005C00002044000020DA
:1037E00041604280002303804FF6FF7002E0521ECA
:1037F00021F81200002AFAD170470388426832F893
:1038000013200A804FF6FF718A420ED00388426867
:1038100022F8131042880188521E914201DA491C95
:1038200000E000210180012070470020704730B582
:103830008FB01446FE4A904201D1012500E00325D5
:103840000190486802904FF0406003904FF0804034
:1038500004904FF088500590012206924888079006
:103860000020089091040991C9000A9101A90B91C7
:103870000C900D908DF838208DF839008DF83A00B5
:103880000BA9E8B2FEF74CF8EA4800EB0510016816
:103890002160416861608068A0600FB030BD1FB5D5
:1038A000E34A904201D1002300E0022300220A6093
:1038B00048608A604FF04040C8600A61012048615A
:1038C0008A61CA6184040C6244054C6200920192D0
:1038D00002928DF80C008DF80D208DF80E206946AF
:1038E000D8B2FEF71DF81FBD1CB50446204601F0F6
:1038F000D5FC01F0A8FA01900198002812D02146C9
:10390000019801F0A7FC0220ADF80000CA4800238E
:103910001A466946006800F0BBFC002802D10198F5
:1039200001F0D7FA1CBDBCB000240025012601F02F
:10393000B5F90590C048C822C0490830FFF750FFCC
:10394000BD49BB4FBE4A08313846FFF770FF012121
:103950000846FDF7A8FE012211463846FDF776FD20
:10396000FEF77EF80DF1A009A246B7024FF001085C
:10397000052105A800F0E4FFA2E0BDF84C0010F41A
:10398000E06FF9D1C0B2202806D00D280BD00A284C
:1039900009D0012E0DD015E02146641CA4B209F80F
:1039A00001A0012613E02146641CA4B209F801A07D
:1039B0000DE0294614AB09EB04026D1CADB243F8CF
:1039C000212000262146641CA4B209F801000D281C
:1039D00003D00A2801D0502C72D1002D6DD0CDF823
:1039E0000CA04FF48070ADF8040096A1149801F07B
:1039F0001FFD00286DD094A1149801F019FD002836
:103A00006BD092A1149801F013FD002869D092A107
:103A1000149801F00DFD002877D092A1149801F0C0
:103A200007FD00286FD094A1149801F001FD002833
:103A30006AD093A1149801F0FBFC002876D092A1E3
:103A4000149801F0F5FC002871D092A1149801F0AF
:103A5000EFFC00286CD092A1149801F0E9FC00283A
:103A600067D091A1149801F0E3FC002873D090A1D5
:103A7000149801F0DDFC00286ED091A1149801F09B
:103A8000D7FC002869D092A1149801F0D1FC00283D
:103A900070D040F20110ADF80400039830B19148A5
:103AA00000231A4603A9006800F0F2FB62480023D5
:103AB0001A4601A9006800F0EBFB0024002501264E
:103AC0005D4813A90830FFF798FE00283FF450AF77
:103AD00053E74FF400700390DFE740F201200390BA
:103AE000DBE7022D04D2ADF804807FA00290D4E77A
:103AF0004FF40470039000221146159801F071FBF9
:103B00000490CAE701E015E028E0022D04D2ADF8E8
:103B100004807CA00290C0E740F2112003900022B4
:103B20001146159801F05DFB0490B6E71AE01DE020
:103B300021E024E0022D04D2ADF8048078A00290A8
:103B4000ABE740F21220039000221146159801F0D5
:103B500048FB0490A1E716E019E01CE00397CDF8BC
:103B600010809AE703970820049096E703970220B5
:103B7000049092E720E00397042004908DE70397D8
:103B80004020049089E703978020049085E70397FD
:103B90001020049081E7022D04D2ADF8048069A0C2
:103BA00002907AE74FF48260039000221146159844
:103BB00001F0DFFA049070E76A4C6BA106A8226856
:103BC00001F0AEF906A8FFF78FFE6EA106A86268A5
:103BD00001F0A6F906A8FFF787FE5EE78CB0DFF8D4
:103BE000509069464846FFF75AFE002208210A20F5
:103BF00000F0C1FA104E3060C0B103220021012054
:103C000000F0B9FA706020B100231A46194600F09E
:103C10003FFB706858B100231A46194600F0EEFBCE
:103C20004FF000584FF0FF370023B9E0D8E0D8E05C
:103C3000000003400004002074000020B81600209B
:103C4000481800206F6E00006F6666007365745F31
:103C5000766F6C74616765007365745F637572720B
:103C6000656E74007365745F63757272656E745F00
:103C70006C696D697400000062746E5F6573630047
:103C800062746E5F6F6B000062746E5F6C65667469
:103C90000000000062746E5F726967687400000063
:103CA00062746E5F6F6E000062746E5F6F666600B6
:103CB000707573685F656E636F6465720000000005
:103CC000656E636F6465725F64656C7461000000AB
:103CD0006765745F74696D655F70726F66696C6942
:103CE0006E670000580000204552523A206D6973FB
:103CF00073696E6720617267756D656E74205B6DA8
:103D0000565D0D004552523A206D697373696E67B6
:103D100020617267756D656E74205B6D415D0D008D
:103D20004552523A206D697373696E6720617267FC
:103D3000756D656E74202832302F3430295B415DFB
:103D40000D0000004552523A206D697373696E6729
:103D500020617267756D656E74205B7469636B7347
:103D60005D0D0000180000205379737469636B20A7
:103D7000686F6F6B206D6178207469636B733A2094
:103D800025640D0054696D65723220495352206DCF
:103D90006178207469636B733A2025640D0000001C
:103DA0003A460AA9306800F029FBBDF8280001282E
:103DB00018D0022816D0B0F5807F15D0314C20469F
:103DC00001F06CFA0546444511D2642D00D96425F2
:103DD0002A4621462C4801F0FFFA2B48009007E0C4
:103DE000FEE7FEE70B9CEAE7264C241FE7E700947A
:103DF000069500216A460846FDF7CEFB012100200A
:103E0000FDF751FC012202214846FDF71FFB00236C
:103E10003A461946706800F0F1FABDF82800022809
:103E20007FF402AF0B9801F054F8FDE638B500209E
:103E30000090164CA06AC0070ED11548816C890706
:103E40000AD5816C21F002018164124800236A4680
:103E50001946406800F081FAA06A800709D40E482C
:103E60000E490A6802614A684261896881610220DC
:103E7000A06202210020FDF736FC012801D1FDF7E8
:103E800020FC38BD986E00085416002000800240C7
:103E900000000340740000200004002048180020A7
:103EA000052800D30020474951F8200070474649B3
:103EB000421E8A60400848617047434A516B40F691
:103EC0000C43994318B140F60800014302E040F268
:103ED00004400143516370470EB5002001908046B5
:103EE0008346002204210A2000F045F93549091FC4
:103EF000086080BBFEE788B2090C404554D9804673
:103F0000019151E0D84500D901244FF0000A062C58
:103F100040D2DFE804F03F030C1A23370198FFF783
:103F2000BFFF81460224C3464FF0000839E0D9F8AC
:103F30000400009099F800700098384303D009F10C
:103F4000080903242DE000242BE02FB17F1EBFB20F
:103F5000009E042425E027E0022422E030887588B2
:103F600055EA000107D0361D38B1FFF7A0FF012048
:103F7000FFF7A3FF04E0032413E00020FFF79DFFF9
:103F800005240EE025B16D1EADB24FF0010A08E028
:103F9000042406E04FF0000B0020FFF78EFF4FF0E7
:103FA000010ABAF1000FB2D006480023001F5A1EC2
:103FB00002A9006800F022FA029911F5803FA1D011
:103FC00099E700008800002000000740FCF718F97E
:103FD000FEE7A0F120004FF08073C36181612849A2
:103FE000416140F8202970474FF0E0204FF6FF1163
:103FF000416107210161704710B52248016841F411
:104000007F010160016841F07F410160FFF7ECFF33
:104010001D4900200860FCF7CBF8002010BD704758
:1040200018494FF080501C390860BFF34F8FBFF321
:104030006F8F704710B5FCF7E3F813480168491C0F
:104040000160BFF34F8FBFF36F8F10BD0E4908683B
:10405000401E0860002801D1FCF7D9B8704710B5A0
:10406000FCF7CEF800F09BFB20B106494FF08050E2
:104070001C390860BDE810400020FCF7C8B80000FB
:10408000CD3F000820ED00E09C00002000F1080179
:1040900041604FF0FF328260C16001610021016028
:1040A000704700210161704742684A6093688B60E5
:1040B00093685960916008610168491C016070470C
:1040C00030B50C68621C02D000F1080202E00269FF
:1040D00004E01A4653681D68A542FAD953684B603C
:1040E00099608A60516008610168491C016030BDB7
:1040F000D0E901219160D0E90112516001694A685B
:10410000824201D182684A60002202610868401E32
:104110000860704770B504460D46FFF78BFFD4E981
:104120000F12206801FB020060600020A06320687D
:10413000A060E06B226C2168401E00FB0210E06072
:104140004FF0FF306064A06404F110004DB1FFF740
:104150009DFF04F12400FFF799FFFFF777FF01208F
:1041600070BD21690029F8D000F0C7FD0128F4D105
:10417000FFF756FFF1E72DE9F04105460F4600260F
:10418000B5B14C2000F05FFE04468CB105FB07F092
:10419000401C00F058FE206038B1E563276401211F
:1041A0002046FFF7B7FF264602E0204600F091FECA
:1041B0003046BDE8F08170B50446FFF73BFF04F1DF
:1041C00024050AE0606A58B1284600F096FD08B15F
:1041D00000F0EAFDA06C401EA064A06C0028F1DC99
:1041E0004FF0FF35A564FFF731FFFFF723FF04F120
:1041F00010060AE0206958B1304600F07EFD08B193
:1042000000F0D2FD606C401E6064606C0028F1DC40
:104210006564BDE87040FFF719BF10B50446FFF7AD
:1042200009FFA06BE16B884201D1012400E000246A
:10423000FFF70CFF204610BD70B504461546226CF2
:1042400012B37DB1E06801F048F8E168206C091A0A
:10425000E1602268914202D26168081AE060022D92
:104260000DD011E0A06801F038F8216CA068084476
:10427000A0606168884207D32068A06004E0A06B5A
:1042800010B1A06B401EA063A06B401CA06370BD6A
:104290002DE9FF4182B0044688461F4600250026CE
:1042A000FFF7C8FEA06BE16B884205D3022F03D055
:1042B0000498A8B1C5B11BE03A4641462046FFF735
:1042C000BBFF606A38B104F1240000F016FD01283C
:1042D00001D1FFF7A5FEFFF7B9FE012006B068E7A0
:1042E000FFF7B4FE0020F9E7684600F032FD012533
:1042F000FFF7ACFE00F01FFBFFF79CFE606C401C5C
:1043000000D16664A06C401C00D1A664FFF79EFE3D
:1043100004A9684600F023FD30B12046FFF74BFFAB
:1043200000F0A4FA0020D9E72046FFF776FF70B12D
:1043300004F11000049900F0C6FC2046FFF73BFF93
:1043400000F094FA0028ABD1FFF76AFEA8E72046F8
:10435000FFF731FF00F08AFAA2E72DE9F0410446A9
:104360000F4615461E46FBF74BFF8046A06BE16BE0
:10437000884207D3022E05D000244046FBF747FFB2
:10438000204616E7324639462046FFF755FFA06C17
:10439000401C04D0A06C401CA0640124EDE7606ABE
:1043A0000028FAD004F1240000F0A7FC0028F4D083
:1043B000002DF2D001202860EFE710B50446FFF78A
:1043C00039FEA06B20B10024FFF740FE204610BD4F
:1043D0000124F9E730B40C460368002B0CD0026CC2
:1043E000C1681144C1604568A94200D3C360C16877
:1043F000204630BC00F071BF30BC70472DE9FF4152
:1044000082B0044688461F4600250026FFF712FEAC
:10441000A06B10B3E56841462046FFF7DBFF6FB1A4
:10442000E560606A30B104F1240000F066FC08B178
:10443000FFF7F6FDFFF70AFE01204FE7A06B401ED5
:10444000A06320690028F5D004F1100000F055FCAD
:104450000128EFD1FFF7E4FDECE7049808B125B19E
:1044600007E0FFF7F3FD002038E7684600F071FC35
:104470000125FFF7EBFD00F05EFAFFF7DBFD606C56
:10448000401C00D16664A06C401C00D1A664FFF7FC
:10449000DDFD04A9684600F062FC30B12046FFF75C
:1044A0008AFE00F0E3F9002018E72046FFF785FFB9
:1044B00070B104F12400049900F005FC2046FFF7D8
:1044C0007AFE00F0D3F90028A0D1FFF7A9FD9DE7FF
:1044D0002046FFF770FE00F0C9F997E72DE9F0419B
:1044E00004460F461546FBF78BFE0646A06BE0B16F
:1044F00039462046FFF76EFFA06B401EA063606C3C
:10450000401C04D0606C401C606401240EE02069F3
:104510000028FAD004F1100000F0EFFB0028F4D0DE
:10452000002DF2D001202860EFE700243046FBF791
:104530006EFE20463DE62DE9F04104460F46FBF7AE
:104540005FFE0646A06B38B1E56839462046FFF7A6
:1045500041FFE560012400E000243046FBF757FEF0
:10456000204626E610B50446FFF764FDA46BFFF76E
:104570006DFD204610BD10B50446FFF75BFDD4E984
:104580000E10441AFFF762FD204610BD806B704785
:1045900010B50446206800F09CFC2046BDE81040A1
:1045A00000F097BC806B08B1002070470120704775
:1045B000816BC06B814201D10120704700207047A0
:1045C00070B50024FE4D04EB840005EB8000FFF77E
:1045D0005DFD641C052CF6D3F9486430FFF756FDE9
:1045E000F7487830FFF752FDF5488C30FFF74EFD65
:1045F000F348A030FFF74AFDF148B430FFF746FD1D
:10460000EF49F048643101631431416370BD70B506
:10461000044615460023E218C85C82F83400C85CE2
:1046200010B15B1C102BF6D3002084F84300052D3D
:1046300000D30425E562201DFFF733FD04F11800C7
:10464000FFF72FFD2461C5F10500A061646270BD14
:1046500070B506460D46442000F0F5FB044644B113
:10466000B60045B12846206348B1A522314600F086
:10467000ABFE204670BD304600F0E5FBF3E7204678
:1046800000F027FC0024F4E72DE9FF4F81B08246BB
:10469000DDE90E68109917469B463846FFF7D8FFAC
:1046A0000446C84DF4B3216B781E01EB800020F066
:1046B0000709009732462046119B0299FFF7A7FF92
:1046C0005A4651464846FFF784FC2060B8F1000F77
:1046D00001D0C8F80040FFF7ADFCA868401CA860F6
:1046E000286810B1686938B10BE02C60A86801280F
:1046F00007D1FFF765FF04E02868C06AB04200D820
:104700002C60A86A401CA862E06A2969884200D926
:104710002861AB4900EB800001EB8000211DFFF711
:10472000C3FC00E003E00124FFF790FC01E04FF040
:10473000FF34012C07D1686928B12868C06AB042EB
:1047400001D2FFF76DFC05B02046BDE8F08F70B5D3
:104750000446FFF76FFC9B4D04B92C68201DFFF742
:10476000C7FCA06A18B104F11800FFF7C1FC944817
:10477000211DA030FFF798FC6868401C6860A86A9B
:10478000401CA862FFF762FC6869002806D0286810
:10479000844203D1BDE87040FFF742BC70BD2DE9F3
:1047A000F0470025874FB86950B1F869401CF8619F
:1047B000FDF73CFD386A00B101252846BDE8F087C9
:1047C000F868401CF860FE684FF0FF3976B9386B26
:1047D000796B39637863786A401C7862386B00685B
:1047E000A0B1386BC068C0684068F862F86ADFF84A
:1047F000D08186420FD3386B006850B1386BC068E7
:10480000C4686068864215D2F86204E0C7F82C904C
:10481000ECE7C7F82C903868C06A00EB800058F8C5
:104820002000012800D90125F8690028C2D1FDF730
:10483000FDFCBFE7201DFFF75BFCA06A18B104F187
:104840001800FFF755FCE06A3969884200D93861E1
:1048500000EB800008EB8000211DFFF725FCE06ADB
:104860003968C96A8842C6D30125C4E72DE9F041F9
:104870000027FFF7DFFB534DA869401EA861A86918
:10488000D8BBA868C8B3DFF83881012608F18C08C6
:104890001CE0D8F80C00C46804F11800FFF728FCED
:1048A000201DFFF725FCE06A2969884200D92861AC
:1048B000434900EB800001EB8000211DFFF7F4FB72
:1048C000E06A2968C96A884200D32E62D8F80000DD
:1048D0000028DED1E86938B909E0FFF760FF00B1D0
:1048E0002E62E869401EE861E8690028F5D1286A6F
:1048F000012802D10127FFF793FBFFF7A7FB3846FA
:10490000BDE8F08170B504462E4D28684460E86823
:10491000844206D22968686B091DBDE87040FFF724
:10492000CFBB2968286B091DFFF7CAFBE86A8442E0
:1049300000D2EC6270BD23488169491C81617047D7
:1049400070B505460C460022FFF7F5FF1D4EF068D6
:104950002B681C44834205D9A34208D9844206D956
:10496000012204E0A34201D8844200D901222C6034
:1049700032B13068001DFFF7BBFB2046FFF7C2FFD6
:10498000FFF774FF002803D1BDE87040FFF748BB74
:1049900070BD10B5024600206AB1FFF7CCFF094890
:1049A000C1688C180068001DFFF7A2FB2046FFF7C6
:1049B000A9FFFFF75BFF002808D1BDE8104003E026
:1049C00054180020A0000020FFF72ABB10BD10B52E
:1049D0000446FFF72FFB0CB9F5480468E46AFFF7BB
:1049E00035FB204610BD2DE9F04104460D4600265A
:1049F000052D00D30425FFF71DFBED4F04B93C68DE
:104A0000E06AA8422DD0854208D939688C4209D085
:104A10003968C96AA94205D8012603E039688C4281
:104A200000D10126E562C5F10501A161E14D00EB70
:104A30008000616905EB800081420ED1201DFFF7E7
:104A400057FBE06A3969884200D9386100EB800081
:104A500005EB8000211DFFF727FB012E01D1FFF799
:104A6000DFFABDE8F041FFF7F1BAD149886910B12A
:104A700001200862704700200862CE4A02E00869FF
:104A8000401E0861086900EB800052F820000028F1
:104A9000F5D0086900EB800002EB800042685268A4
:104AA000426000F108039A4201D1526842604068B6
:104AB000C0680860704770B50446FFF7BBFABC4D8C
:104AC00004B92C68201DFFF713FBA06A18B104F18C
:104AD0001800FFF70DFBB748211DB430FFF7E4FACB
:104AE000FFF7B4FA286884420DD1686918B1BDE8AF
:104AF0007040FFF795BAAF48A968B43000688842A3
:104B000002D10020286070BDBDE87040ADE70021F3
:104B1000A84B4269B4339A4206D1806AA3F12802B5
:104B2000904201D000B901210846704770B5044693
:104B3000002C25D09E4D2868844221D0FFF77AFAB8
:104B40002046FFF7E4FF012816D1201DFFF7D0FA19
:104B5000E06A2969884200D92861964900EB800003
:104B600001EB8000211DFFF79FFAE06A2968C96AFE
:104B7000884201D3FFF754FABDE87040FFF766BAE8
:104B800070BD2DE9F04104460025FBF739FB0746CF
:104B90002046FFF7BCFF012808D1854EB06950B10F
:104BA000844804F118018C30FFF77EFA3846FBF791
:104BB0002EFB2846A4E6E06A3168C96A884200D321
:104BC0000125201DFFF794FAE06A3169884200D977
:104BD0003061784900EB800001EB8000211DFFF778
:104BE00063FAE3E710B50446206B00F072F9204643
:104BF000BDE8104000F06DB970B56E4E6C4DA0363A
:104C00001CE0FFF798FE306820B10024FFF72EFE6D
:104C1000A4B901E00124F9E7FFF70CFAF068C468D1
:104C2000201DFFF765FAA868401EA8606868401E4E
:104C30006860FFF70BFA2046FFF7D4FF686800288A
:104C4000DFD170BD5B4CFFF7D7FF20680128FAD990
:104C5000FFF7E6F9F7E71FB50024009401940294EA
:104C60002346802254A156480394FFF70DFD0128E6
:104C700009D1FBF7C5FA4E4801214161C460BDE886
:104C80001F40FFF7B9B91FBD10B5FBF7B9FA484986
:104C900000204861BDE81040FFF7C1B910B5FFF72B
:104CA000C9F94348C468FFF7D1F9204610BD10B5D3
:104CB000FBF7A6FA3E49CC68FBF7A9FA204610BDDF
:104CC0003B488068704770B50D46394C21681831F3
:104CD000FFF7F6F92068001DFFF70AFA681C04D0F8
:104CE000E0682844BDE870400CE62168BDE87040EB
:104CF0003048091DB430FFF7D7B970B5C068C46833
:104D000004F118000646FFF7F3F9294DAA696AB1C4
:104D1000284831468C30FFF7C7F9E06A2968C96A2C
:104D2000884214D301200121296270BD201DFFF7A4
:104D3000DFF9E06A2969884200D928611D4900EB42
:104D4000800001EB8000211DFFF7AEF9E5E70020B0
:104D500070BD17494A6A0260C9684160704770B502
:104D600004460D46FFF766F91149C8682A68531CC6
:104D700008D02368496A8B4206D06168814203D813
:104D800001240DE000240BE06168401A904206D235
:104D9000101A28602046FFF7DCFF002400E0012401
:104DA000FFF754F9204670BD0149012008627047A1
:104DB000A00000205418002049444C450000000089
:104DC000454C000830B5544900E011460A6882425B
:104DD000FBD34B685C18844203D140681844486098
:104DE00008460D6844682318AB420DD14A4B0C3B72
:104DF0001B689A4206D05268224442600A681268D0
:104E0000026002E0036000E00260814200D00860BE
:104E100030BD424820F007013F4801600023436055
:104E200044F2F830084408383B4A0C3A10604360BA
:104E3000036044F2F0334B600860506808385060FB
:104E4000D806906070472DE9F04105460026FFF72F
:104E500072FD314F0C3F386808B9FFF7DAFFB868C8
:104E6000054231D13DB10835680704D005F007008F
:104E7000C0F1080005443DB37868854224D826492E
:104E80000846046801E0214604466068A84202D250
:104E900020680028F7D13868844215D00E6808369B
:104EA000206808606068411B102904D960194160BE
:104EB0006560FFF787FF60687968091A7960B968EB
:104EC0000843606000202060FFF7D0FC3046BDE85A
:104ED000F08170B5002819D0083804460E4D60687E
:104EE0000C3DA968084211D02268002A0ED18843DF
:104EF0006060FFF720FD60686968084468602046CC
:104F0000FFF760FFBDE87040FFF7B0BC70BD02481E
:104F10000C38406870477047E400002024190020D6
:104F20000FB41CB5074B06AA7B4469460090059850
:104F300000F03FFD0020694600F04EFD1CBC5DF80E
:104F400014FB0000AD0A000070B5044685690068D6
:104F5000C10601D5302600E02026C00708D070BD6C
:104F6000D4E9012130469047206A00F10100206217
:104F70006D1EF5D570BD70B5044685690068C00723
:104F800008D170BDD4E9012120209047206A00F1AA
:104F9000010020626D1EF5D570BD70B505460C464A
:104FA000012A05D02868800600D5EA69002302E0BE
:104FB000012305E05B1C934202D2E05C0028F9D19A
:104FC000A869E618C01AA861286A18442862284609
:104FD000FFF7BAFF04E0D5E9012114F8010B90476F
:104FE000B442F8D32846FFF7C6FF70BD2DE9F04163
:104FF0000746002510687529394616A411D0AFF36D
:105000000080002803DAC0F1000013A407E039682B
:105010008A0701D511A402E0490704D510A401258F
:1050200001E0AFF3008000210A2307F1240607E026
:10503000B0FBF3F203FB1200303070541046491CF1
:105040000028F5D12B4622463846BDE8F04100F055
:105050003FBA0000000000002D0000002B000000FF
:10506000200000002DE9F0474FF0000A0446894671
:10507000C0F820A02046E1688847002876D025287F
:1050800006D0D4E901219047206A401C2062F1E754
:10509000E168204600258847C4F81CA00646002782
:1050A000C4F818A02A2E09D0304601F05BFA38B3B4
:1050B00004EB8708303EC8F8186019E059F8041B63
:1050C000204604EB87029161E1688847012F06467C
:1050D00018D1E069002820DA25F020051DE0D8F875
:1050E000180000EB800006EB40003038C8F81800CC
:1050F0002046E1688847064601F034FA0028EED1E0
:10510000012F0AD02E2E08D12046E16888477F1C47
:105110000646022F45F02005C4DBA069002803DA0B
:10512000404245F00105A061E80701D025F01005D7
:10513000B6B1A6F14100192802D8203645F4006521
:105140004A463146204625604D46FAF7F3FF58B1EE
:10515000012806D0ED1D25F0070000F1080989E7B8
:1051600004E005F1040985E730468AE7206ABDE8D6
:10517000F0872DE9F0470F46914680460446002609
:1051800014F8015B2DB100F097F90068405DC0078D
:10519000F6D12B2D02D02D2D18D0641E4A4639464B
:1051A000204600F034FC27B13968A14201D1C7F88C
:1051B00000804FF0020471050BD54042002803DD4A
:1051C00000F082F90460A007BDE8F08746F480662D
:1051D000E4E70028F8DA00F077F904606FF00040A7
:1051E000F2E72DE9F05F0F4693468046044600261D
:1051F00000F06AF9D0F80090824614F8015B2DB1F6
:1052000000F05AF90068405DC007F6D12B2D02D09E
:105210002D2D1AD0641E0021CAF800105A463946B6
:10522000204600F0F4FB014627B13868A04201D1C6
:10523000C7F80080DAF80000022809D0CAF8009008
:10524000700505D54842BDE8F09F46F48066E2E768
:105250000846F8E740EA0103024630B59B0710D143
:105260004FF0013400E008C208C91D1B9D4315EA38
:10527000C41FF8D013F0FF0102F8011B0DD01B0A68
:10528000F8E711F8013B002B02F8013B05D011F8BB
:10529000013B002B02F8013BF3D130BD10B5431C9C
:1052A00002E010F8011B71B18107FAD14FF0013211
:1052B00002C88C1A8C4314EAC211F9D0C01A0A062B
:1052C00003D0C01E10BDC01A10BD0A0401D0801E3C
:1052D00010BD0902FCD0401E10BD032A40F23080F0
:1052E00010F0030C00F0158011F8013BBCF1020F27
:1052F000624498BF11F801CB00F8013B38BF11F8A8
:10530000013BA2F1040298BF00F801CB38BF00F8BE
:10531000013B11F0030300F02580083AC0F008803B
:1053200051F8043B083A51F804CBA0E80810F5E71F
:10533000121D5CBF51F8043B40F8043BAFF3008002
:10534000D20724BF11F8013B11F801CB48BF11F877
:10535000012B24BF00F8013B00F801CB48BF00F847
:10536000012B704710B5203AC0F00B80B1E81850FF
:10537000203AA0E81850B1E81850A0E81850BFF43F
:10538000F5AF5FEA027C24BFB1E81850A0E81850DE
:1053900044BF18C918C0BDE810405FEA827C24BF32
:1053A00051F8043B40F8043B08BF7047D20728BFC0
:1053B00031F8023B48BF11F8012B28BF20F8023B0F
:1053C00048BF00F8012B704702F0FF0343EA0322B5
:1053D00042EA024200F06CBB10B5044610F0030F25
:1053E00008BF11F0030F40F015804FF0013E121F6F
:1053F000C0F20E8051F8043BA3EB0E0C2CEA030C18
:105400001CEACE1C08BF40F8043BF0D0A1F1040117
:1054100002F10402521E08DB11F8013B002B00F8D8
:10542000013BF7D1114600F041FB204610BD0000C2
:105430004FF0013C50F8042B51F8043B9A4221D123
:10544000A2EB0C03934313EACC1317D150F8042BAF
:1054500051F8043B9A4215D1A2EB0C03934313EA93
:10546000CC130BD150F8042B51F8043B9A4209D1CC
:10547000A2EB0C03934313EACC13DBD04FF00000F4
:10548000704700BFD01A01BAB1FA81F101F01801DA
:1054900022FA01F0CB40C1F12001DBB2C0B2C01A48
:1054A0002CFA01F3D11A914311EAC311E6D17047E6
:1054B000704770477047000010B500F01DFB001DDD
:1054C00010BD00BFB1100000004870471C5D0020F7
:1054D0002DE9F0470D4604469246994600F124080E
:1054E0000168880604D5E06921F01001216000E020
:1054F0000120A84202DDA0EB050700E00027A1691A
:1055000007EB050202EB0900A1EB0000A061206897
:10551000C00602D42046FFF717FD002608E0D4E9B4
:1055200001211AF806009047206A401C761C206270
:105530004E45F4DB2068C0060AD52046FFF704FD7F
:1055400006E0D4E9012130209047206A401C206207
:10555000381EA7F10107F4DC07E0D4E9012118F8AF
:1055600005009047206A401C2062281EA5F1010515
:10557000F3DC2046FFF7FFFC2068000602D502207E
:10558000BDE8F0870120FBE770472DE9FF4F0C468F
:105590001E464FF0FF378BB0D2E90001DDF8608086
:1055A0000A908A46C1F30A5505B93D4600210846CE
:1055B0004FF00000BAF1000F00F4400005DA00EBF4
:1055C00080004FF4400101EA50004FEA9059B9F1D0
:1055D000010F00DDB9460A9850EA4A000FD044F6A0
:1055E0001050A5F2FF3545432F14B8F1000F1FD01E
:1055F0007542291E1FDD4846C9F100021CE0B8F1C2
:10560000010F4FF0000001D1F24307E0302101E02B
:105610002154401CB042FBDB3046002200212154C3
:105620000B99C1F80880C1E900200FB0BDE8F08FE8
:10563000BD1B6D1CDDE74A4600DA694206A800F092
:10564000F3FA06AB07CB03AB07C350460A9900F049
:10565000BAFB8DE80700A0F500501F3800900398B2
:10566000002D09DD42F21F014A46084403A90390B8
:10567000684600F019FE08E0A0F500504A461F38C1
:1056800003A90390684600F023FE8DE8070000049C
:10569000000C03D04FF0FF30410800E01046B8F195
:1056A000000F03D00022009215461FE0751E06D49D
:1056B00000F026FA02F1300262556D1EF8D5B346AD
:1056C0000122084302D000227F1C04E02078302809
:1056D00001D100227F1E002A099786D01DE0112DDE
:1056E00007DA00F00DFA303262556D1C50EA010203
:1056F000F5D108430FD10021681E05E0235C625CF0
:105700006354491C2254401E8142F7DBAB46A81B60
:10571000401E099001E0009848B1002004F80B00F9
:105720000B98099AC0F80880C0E9002B7DE7112684
:105730004FF0000859E72DE9F04F88460446D21D86
:1057400022F0070191B0D1E90001CDE90A0100F092
:10575000F5FE02460B98C00F01D02D2007E020680F
:10576000810701D52B2002E0202101EAC000032A95
:10577000099001D0072A05DB03464146204600F088
:1057800005FA0EE12068800601D5E06900E00620F8
:10579000B8F1650F814606D0B8F1660F18D0B8F1A0
:1057A000670F72D132E00020B9F1110F009001DBD8
:1057B000112301E009F101030AAA01A90CA8FFF7CE
:1057C000E4FEDDE90C70002609F10105834648E09E
:1057D00001204B4600904FF000470AAA01A90CA8EF
:1057E000FFF7D3FEDDE90C050E990026AB4619B98B
:1057F00009F1010100EB0105B9EB050003D4C0F18B
:10580000FF3609F10105A5EB09002BE0B9F1010F05
:1058100001DA4FF001090020B9F1110F009048465C
:1058200001DD112300E003460AAA01A90CA8FFF735
:10583000ACFEDDE90C704D4600268346206800076B
:105840000AD4AB4500DA5D4601A8012D04DD4119FB
:1058500011F8011C302907D04F4502DA17F1040F67
:1058600004DA0120824610E06D1EEEE7002F02DC14
:10587000ED1B3E4403E0781CA84200DD0546A7EB83
:10588000060000F1010A4FF000472068000703D42A
:10589000AA4501DB4FF0FF3A0021B7F1004F0DF1AF
:1058A00043088DF8431022D002202B23002F01DA69
:1058B0007F422D230A22011EA0F1010000DC4FB11E
:1058C00097FBF2F102FB117C0F460CF1300C08F84B
:1058D00001CDF0E7A8F1010003702168090501D5A9
:1058E000452100E06521A0F1010800F8011C09989C
:1058F0000FA9A1EB080707F1070700B1012000EB92
:10590000050101EBEA70A1693844A1EB0000A0F1A8
:105910000100A0612068C00602D42046FFF714FBF6
:10592000099830B1D4E901219047206A00F10100C3
:1059300020622068C00620D52046FFF705FB1CE04A
:10594000002E04DBB34502DD01A8805D00E03020BD
:10595000D4E901219047206A761C401CBAF1010A63
:1059600020620AD100F0C8F8C0680168405CD4E940
:1059700001219047206A401C2062281EA5F10105E4
:10598000DEDC07E0D4E9012118F8010B9047206A1A
:10599000401C2062381EA7F10107F3DC2046FFF708
:1059A000EAFA022011B041E601694A1C0261087856
:1059B000704700B58FB0CDE901310021059105494F
:1059C0007944CDE9031011466846FFF74BFB0FB051
:1059D00000BD0000E5FFFFFF0A6802F8010B0A6046
:1059E000704710B5436913B1AFF3008001E0FFF7D2
:1059F000D4FA012010BD126800F124010A700022BF
:105A00004A700122EDE711684FF0FF32E9E72DE916
:105A1000F05F82468B46154600270AF10104B9461D
:105A20000078302801D09DB113E014F8010B012754
:105A3000782803D0582801D045B10AE00DB1102DC7
:105A400007D1002714F8010B102502E0082500E01B
:105A50000A250026B0460EE005FB080005FB06F10E
:105A600001271FFA80F801EB1046B6F5803F00D3FE
:105A7000B94614F8010B294600F0C8F80028EBDA03
:105A8000BBF1000F05D00FB1641E00E05446CBF807
:105A90000040B9F1000F06D0FFF716FD02210160AA
:105AA000C81EBDE8F09F48EA0640FAE74FF0000242
:105AB0000429C0F0128010F0030C00F02981CCF111
:105AC000040CBCF1020F18BF00F8012BA8BF20F88E
:105AD000022BA1EB0C0100F01BB95FEAC17C24BFD3
