:020000040800F2
:10000000C8730020650200086D0200086F02000836
:100010008102000883020008850200080000000039
:10002000000000000000000000000000D9010008EE
:1000300089020008000000000D020008276900087E
:100040008F0200088F0200088F02000800000000E5
:1000500000000000116300088F0200088F020008F2
:100060008F020008000000008F0200088F020008C5
:100070008F020008000000008F020008714E000887
:100080008F0200088F020008000000008F020008A5
:100090008F020008000000000000000000000000C7
:1000A0000000000000000000000000008F020008B7
:1000B0008F0200088F0200088F0200088F020008DC
:1000C00000F002F800F079F80AA090E8000C8244F1
:1000D0008344AAF10107DA4501D100F06EF8AFF2CE
:1000E000090EBAE80F0013F0010F18BFFB1A43F016
:1000F00001031847B0370100D03701000A444FF020
:10010000000C10F8013B13F0070408BF10F8014B76
:100110001D1108BF10F8015B641E05D010F8016BBB
:10012000641E01F8016BF9D113F0080F1EBF10F81F
:10013000014BAD1C0C1B09D16D1E58BF01F801CB42
:10014000FAD505E014F8016B01F8016B6D1EF9D5C5
:100150009142D6D3704700000023002400250026DA
:10016000103A28BF78C1FBD8520728BF30C148BF1A
:100170000B60704766290FF0AB8564290DF0AE86E1
:1001800075290DF0AB8663290EF0E58373290EF017
:10019000EA83002070471FB50EF03CFC04000020ED
:1001A00000210FF04BF9401C6060002000210FF08F
:1001B0005BF9E0601FBD10B510BD0EF035FD1146B6
:1001C000FFF7E9FF01F01CFB0EF053FD03B4FFF74E
:1001D000F2FF03BC0EF054FD1A4B19680868B0E832
:1001E000F00F80F309884FF0000080F311884EF083
:1001F0000D0E70470000000003480068006880F39F
:10020000088862B600DF00BF08ED00E0EFF3098068
:100210000C4B1A6820E9F00F106008B54FF0200071
:1002200080F3118807F0E8F84FF0000080F31188A0
:10023000BDE8084019680868B0E8F00F80F3098845
:10024000704700BFAC050020EFF311804FF0200194
:1002500081F31188704780F311887047EFF30580B0
:10026000704700000D4880470D480047FEE71EF02C
:10027000040F0CBFEFF30880EFF3098004F037BDE3
:10028000FEE7FEE7FEE7FEE7FEE7FEE7FEE7FEE746
:1002900004480549054A064B70470000170300084B
:1002A000C1000008C86D0020C8730020C86F00207E
:1002B000C86F002010B51F4BD8681F4C800700285E
:1002C00001DA601000E02046D968C90700D0400874
:1002D000D968490704D55968C1F30321491C48432B
:1002E000D968164AC1F3012139B1012907D0022981
:1002F0000DD049F64040106010BD146010BDD968A3
:10030000C1F30311491CB0FBF1F0106010BD4FF4B4
:100310000040106010BD07480949C161C168002153
:10032000C16042684160826881600269016142691E
:100330004161BFE70000024000127A000000002087
:1003400010000008002101604160016141614162CB
:1003500003210162704710B54A8802610A894B89FE
:100360000C881A448B8903EB04231A44CB881A4463
:100370000260CA8989881144416010BD00218180D2
:100380000722C28041810181818102224280018055
:100390007047002904D0416841F002014160704774
:1003A00041684FF6FD72114041607047002A03D04A
:1003B00042690A434261704742698A434261704719
:1003C0008069814301D00020704701207047C069D7
:1003D000084201D00120704700207047026A0A439A
:1003E00002627047002A03D0426A0A4342627047A1
:1003F000426AC94389B20A404262704781607047CD
:10040000806880B27047C068084201D00120704700
:100410000020704710B50B4BDA6A0B4CA04205D197
:1004200042F0807020F0FF020A4308E0074CA0422F
:1004300005D142F0007020F47F4040EA0122DA62E8
:1004400010BD0000000002400000044000000A400F
:100450000021C16001614160016081604161816191
:10046000C16170472DE9FF4FD0F804908768D0F83C
:100470000CA0D0F81080D0F814C082690192C26933
:1004800000920022012303254FF001160C885EE044
:100490005FEAC47B56D091F802B029EA03090BFA4F
:1004A00002FB49EA0B0991F808E04FEA420B0EFA09
:1004B0000BFEAF434EEA0707CDF80CB091F80AB037
:1004C0002AEA030A0BFA02FB4AEA0B0A91F803E054
:1004D00002F1100B0EFA0BFECDF808B091F804B043
:1004E00028EA060848EA0E080BFA02FB48EA0B085D
:1004F00091F805E0DDF808B02CEA060C0EFA0BFEC8
:1005000091F806B04CEA0E0C0BFA02FB4CEA0B0C0D
:1005100091F809E0DDF80CB00EFA0BFEDDF804B03E
:100520002BEA050B4EEA0B0ECDF804E0DDF800B027
:1005300091F807E02BEA030B0EFA02FE4BEA0E0BD2
:10054000CDF800B05B00AD007600521C6408002CB2
:100550009ED14749884202D14FF01F0101E04FF080
:10056000000129EA0109C0F8049002D14FF01F01EF
:1005700001E04FF0000127EA0107876002D14FF048
:100580001F0101E04FF000012AEA010AC0F80CA0A7
:1005900002D14FF01F0101E04FF0000128EA0108ED
:1005A000C0F8108002D14FF01F0101E04FF00001B0
:1005B0002CEA010CC0F814C002D14FF01F0101E079
:1005C0004FF00001019A22EA0102826102D14FF04C
:1005D0001F0101E04FF00001009A22EA0102C2610E
:1005E000BDE8FF8F4FF6FF71018000218170C1705F
:1005F000017141718171C1710172417281727047E3
:100600000068084201D00120704700207047006850
:1006100070470368164A904201D11F2200E0002271
:1006200093430B43036070470368114A904201D122
:100630001F2200E000220A4393430360704710B575
:1006400003680B4CA04201D11F2400E00024A34307
:1006500012B10B43036010BD8B43036010BD044A0D
:10066000904201D11F2200E00022914301607047B7
:1006700000000B400021C1600160416081600162A7
:1006800041628162C162016341638163C16301664A
:1006900041668166C166016141618161C161016735
:1006A00041678167C167016441648164C164016518
:1006B00041658165C165704710B50A8802604A8846
:1006C00042608A888260CA880B898C891A444B8967
:1006D00023441A44CB891A44C2604A8A8B8A1A443A
:1006E000CB8A098A03EB01111144016510BD002179
:1006F000018041808180C180018141818181C181EE
:10070000018241828182C1827047C268002902D081
:1007100042F0010101E022F00101C1607047016077
:1007200070474160704781607047C36823F00203DF
:100730001A44C26081607047006880B27047C26826
:1007400022F470621144C1607047C26822F0300226
:100750001144C1607047C26822F0C0021144C160F8
:100760007047C26822F008021144C160704710B59A
:10077000046D24F0FE04114401EB031121440165D2
:1007800010BD026D22F0F00202EB0111016570470D
:10079000026D22F00C02114401657047026D22F0D7
:1007A0000202114401657047026D22F001021144FA
:1007B00001657047C0680007002801DB0020704712
:1007C00008207047C0684007002801DB0020704700
:1007D0000120704710B54A88CB884C891A440B8990
:1007E00023441A448B8902EB8312CB891A440B8A67
:1007F0001A448B88002B01D002F500520B8800EBC5
:1008000083031A62488ACA8A1044898A01B1001D8A
:10081000186610BD0021018041808180C180018166
:1008200041818181C181018241828182C18270477F
:1008300000EB81000261704700EB810002677047A6
:1008400010B500EB81000146046E24F00804234437
:1008500003660846026110BD10B500EB8100014639
:10086000046E24F00804234403660846026710BDA2
:1008700000EB8100006980B2704700EB8100006FDF
:1008800080B2704700EB810020300168002A02D05E
:1008900041F4807101E021F480710160704700EB48
:1008A0008100016A21F4005111440162704700EB9C
:1008B0008100016A21F4805111440162704700EB0C
:1008C0008100016A21F4606111440162704700EB0C
:1008D0008100016A21F0C00101EB821101627047C1
:1008E00000EB8100016A21F0300111440162704780
:1008F00000EB8100016A21F00F0111440162704791
:1009000000EB8100006A4004002801DB00207047F2
:100910000120704700EB8100016E21F003011144BA
:100920000166704700EB810060300168002A02D048
:1009300041F0040101E021F004010160704710B5AD
:10094000CA884B880C8902EB03128B889B0003EB4F
:1009500004331A444B8902EB83228B8902EB032276
:100960000B8800EB830002630A8A4B8AC9891A4408
:1009700002EB0121016410BD002141808180C18012
:10098000018141818181C18101824182704710B51D
:10099000029C00EB8100016B21F01F01240104EB9C
:1009A00082021A441144016310BD00EB8100016B07
:1009B00021F00C0101EB82010163704700EB810023
:1009C000016B21F0030111440163704700EB8100CA
:1009D000016B21F0100101EB02110163704710B5AA
:1009E000029C00EB8100016B21F4F851240304EB1D
:1009F000822202EB03221144016310BD00EB81004F
:100A0000016B21F4406101EB82210163704700EB2F
:100A10008100016B21F4407101EB022101637047F9
:100A200000EB8100016B21F4805101EB0231016385
:100A3000704710B5029C03EB0222224400EB8100B8
:100A4000026410BD406D7047406D084201D0012026
:100A5000704700207047426D8A4342657047C36DFE
:100A6000002A01D00B4300E08B43C3657047836DC0
:100A7000002A01D00B4300E08B4383657047426D31
:100A8000806D02400A40002A01D0012070470020FA
:100A9000704710B50F4B5A6A0F4CA04205D122F097
:100AA000FF00084340F0807212E00C4CA04206D1D7
:100AB00022F47F4040EA012040F0007208E0084C38
:100AC000A04205D122F47F0040EA014040F080625C
:100AD0005A6210BD0000024000000740008007403D
:100AE000000008403C4800218160016101228261D0
:100AF00001604160704738498A6803799B06002B82
:100B000002DA42F0200201E022F020028A6000684E
:100B10000860000A486070470021416001210160BF
:100B200070472D4A9168002802D041F0800001E012
:100B300021F0800090607047274A9168002802D019
:100B400041F0400001E021F04000906070472248F1
:100B50000069C00701D001207047002070471E487F
:100B6000816941F00101816170471B4A20F0010059
:100B700008435061902090617047174948611020E8
:100B8000886170471448402181617047124940F0E4
:100B90002000886170471048C068C0B270470E4896
:100BA0008169006941EA0020C14340EA0140704781
:100BB00000B50246FFF7F3FF824301D0002000BDDD
:100BC000012000BD00B50246FFF7E9FF104201D049
:100BD000012000BD002000BD00000540D1480021DB
:100BE000016041608160C160016141618269C269E7
:100BF000016241628162C162704782680168037963
:100C00001144C26802EB0372114402691144426943
:100C1000008B114401EB4050C349C24A13688B4317
:100C20001844106070470021016041608160C1601C
:100C30000161416181617047BA4A116821F0F07128
:100C400001EB40501060704730B5B6490A68B64BAA
:100C5000DB1C1A40D0E900342344D0E9024504EB00
:100C60000514234444692344C4692344446A234447
:100C700090F8284003EB446313444A6822F400329E
:100C8000048C02EB44420B604A60028B0A61428B87
:100C90008A600069886230BD30B5A2494A68A34BBA
:100CA0001A40D0E900342344D0E9024504EB05148E
:100CB000234444692344C4692344048C03EB8443E0
:100CC000446A234490F8284003EB44631A444A6082
:100CD000028B4A61428BCA600069C86230BD002144
:100CE000016041608160C1600161416101834183B4
:100CF000C16101624162816270478A4A11680028BD
:100D000002D041F0010001E021F0010010607047C5
:100D1000844A5168002802D041F0010001E021F02E
:100D20000100506070477F4A116821F4F87101EBAF
:100D30000010106070477B4A516821F4F87101EB94
:100D40000010506070477749886270477549C862E3
:100D50007047744B1A6822F40272084410441860F9
:100D60007047704B5A6822F402720844104458606D
:100D700070476C4A116821F0080108441060704700
:100D8000684A516821F00801084450607047654A7C
:100D9000116821F40071084410607047614A51687D
:100DA00021F4007108445060704710B55D4B1C6819
:100DB00024F4806422441A601861996010BD10B553
:100DC000584B5C6824F4806422445A605861D960AE
:100DD00010BD5449086170475249486170475149F4
:100DE000886070474F49C86070474E48016841F0BD
:100DF0000201016070474B48416841F002014160C7
:100E000070474848806970474648C0697047454800
:100E1000016A406A01EB004070474248006A70472F
:100E20004048406A704700B50246FFF7F0FF1042A5
:100E300001D0012000BD002000BD3A49096A0142ED
:100E400001D001207047002070473649496A0142AD
:100E500001D001207047002070473248016A21F01C
:100E60000101016270472F48416A21F0010141628E
:100E700070472C48016A21F002010162704729483D
:100E8000416A21F002014162704770B5254E336A14
:100E9000756A84008004020C002904D042EA030031
:100EA00045EA144103E023EA020025EA14413062D6
:100EB000716270BD1B4B1A6A002902D042EA8000A1
:100EC00001E022EA800018627047164B5A6A002936
:100ED00002D042EA800001E022EA800058627047B6
:100EE00000B50246FFF793FF02EA9001014009B105
:100EF000012000BD002000BD0A49096A00EA9100F6
:100F00000840002801D001207047002070470549A3
:100F1000496A00EA91000840002801D0012070478A
:100F200000207047008008400000FFF10300FBF143
:100F300000210163C16241609022826101624162CD
:100F4000816202224263816381644FF440710163D4
:100F5000704770B586B004460D4601A800F086FBC8
:100F600001986B49896A6B4B01229C4205D101F0C3
:100F700007018A40B0FBF2F007E0674B9C4204D1C6
:100F8000C1F302218A40B0FBF2F02A689108B0FB5D
:100F9000F1F3990903F03F03800003EB8116B0FBE6
:100FA000F6F0801AC001B0FBF2F0022802D900204E
:100FB00006B070BD6162A362E06AA988EA886B89A5
:100FC00011432A891A4311430143E162206B4FF612
:100FD00080718843A989014321630120E8E74FF428
:100FE0001651016000218180C180018141814FF44F
:100FF000407181817047002904D0016B41F00101EB
:1010000001637047016B4FF6FE7211400163704738
:10101000002A03D0826B0A4382637047826B8A4343
:1010200082637047C06B814301D00020704701206C
:101030007047006C084201D00120704700207047C3
:10104000426C0A434264704742EAC10141637047FF
:10105000002A03D0826C0A4382647047826CC943C1
:1010600089B20A4082647047C1F308010160704789
:10107000006880B27047002904D0C16A41F00101C4
:10108000C1627047C16A4FF6FE721143C162704778
:1010900030B585B004460D46042D08D1684600F0F1
:1010A000E5FA00984FF4E111B0FBF1F02062206BFB
:1010B0002843206305B030BD002904D0016B41F006
:1010C000020101637047016B4FF6FD72114301632A
:1010D00070478069084201D00120704700207047A6
:1010E00010B50B4B9A6A0B4CA04205D142F08070B0
:1010F00020F0FF020A4308E0074CA04205D142F06D
:10110000007020F47F4040EA01229A6210BD000086
:1011100000000240000003400080034010B58368D7
:101120000268B3F1406F26D08469641E9B0E9C4018
:1011300022440A604269042A1FD0C268B2F1404FBB
:101140001FD083695B1E920F934042681A444A6025
:10115000D0E903231A43446A836823431A43036A8A
:101160001A43C3691A43836940695B1E42EA03124A
:1011700002438A6010BD0A60DCE742680C324A60B4
:10118000E6E742684A60E3E7704800214160816019
:101190004161491EC1614162C1624163C163012174
:1011A000C1647047002905D06849C96801EB001186
:1011B0001046B3E7664901EB00111046AEE701EBBC
:1011C00000111046AAE770B58AB005460C465F4E7E
:1011D0005F48B06021680091F16801EB0511019151
:1011E0004FF000610291090103914FF00851049101
:1011F000042105916168890006914FF4004107912F
:10120000A1680891E168099100EB05116846FFF7B4
:1012100085FF01207060607D0122AA40012809D06D
:10122000F2617262B2627263207D012804D0F263BF
:101230000AB070BDB261F4E7B263F9E770B5064673
:101240000C46424D4249A9602068002803D001EBBA
:101250000611FFF763FF606820B1E96801EB061132
:10126000FFF75CFF01206860607B0122B24001282B
:101270000AD0EA616A62AA62A07B38B12A63207B45
:10128000012805D0EA6370BDAA61F3E76A63F6E757
:10129000AA6370BD002101604160816001734173E8
:1012A000817370470021016041608160C16001610C
:1012B000017541757047012282402448012901D0FF
:1012C000C262704782627047012181401F484161BC
:1012D00070471E490120C86470471C4A002907D086
:1012E000D16801EB00100089C0F30910401C704761
:1012F000916801EB0010F6E710B501228240134C13
:10130000D2B2092920D2DFE801F01F05090D101320
:1013100016191C00206800F0010010BDE06C00F000
:10132000010010BDA06A104010BD206A104010BD21
:101330002069104010BDA069104010BD206B104006
:1013400010BDA06B104010BD002010BD00800240F9
:1013500000080020FE4A002903D0D1690143D16171
:101360007047D1698143D1617047F94AD16821F44E
:1013700040710143D1607047C0F34211012909D087
:10138000F449C96B00F01F0201209040084204D0CC
:1013900001207047EE490968F4E70020704708B55E
:1013A000002000904FF4C0631720FFF7E5FF00997D
:1013B000491C00910099994201D20028F4D01720CD
:1013C000FFF7DAFF08B1012008BD002008BDE2499F
:1013D0000860704700B50120FFF7F9FFFFF7DFFF56
:1013E0000020FFF7C2FFDA48C1680021C1604268EF
:1013F000416082688160026901614269416182697C
:101400008161D649C16100BD00B5FFF7E3FF01214D
:10141000C806FFF79FFFCF48C16B41F48101C1634C
:10142000C16B01F48101C16300BDC9498A6822F022
:1014300003028A60012806D0022803D1886840F0A0
:10144000030088607047886840F00100886070473A
:1014500008B5002000904FF4C0632220FFF78CFFF6
:101460000099491C00910099994201D20028F4D0BA
:101470002220FFF781FF08B1012008BD002008BD30
:10148000B449CA6B22F00302CA63012806D00228BD
:1014900003D1C86B40F00300C8637047C86B40F0CD
:1014A0000100C863704708B5002000904FF4C06386
:1014B0000D20FFF761FF0099491C009100999942A6
:1014C00001D20028F4D00D20FFF756FF08B101200B
:1014D00008BD002008BD9F4AD16B21F07C5141EA34
:1014E0000060D06370479C491C3908607047994A76
:1014F000D16B21F4F81141EA0040D063704708B580
:10150000002000904FF4C0631520FFF735FF0099CD
:10151000491C00910099994201D20028F4D015206D
:10152000FFF72AFF08B1012008BD002008BD884A46
:10153000D36823F003030343D360506820F4706042
:1015400040EA012050608648D0F88810002904D075
:10155000012140F88C1F002101607047814908601B
:10156000704781490860704708B5002000904FF42B
:10157000C0632120FFF700FF0099491C00910099EA
:10158000994201D20028F4D02120FFF7F5FE08B1DE
:10159000012008BD002008BD6D4AD16821F0F0018E
:1015A00041EA0010D0607047694A136923F00303D1
:1015B00003431361506820F0F00040EA01105060CE
:1015C0006748D0F88010002904D0012140F8841F1A
:1015D00000210160704765490860704764490860F0
:1015E000704708B5002000904FF4C0632020FFF73B
:1015F000C3FE0099491C00910099994201D200282C
:10160000F4D02020FFF7B8FE08B1012008BD00206B
:1016100008BD5849086070475749086070474C4AF0
:10162000516921F03301014351617047484A5169C2
:1016300021F4706141EA0020506170474F49086011
:101640007047434A916921F0F00141EA001090612E
:1016500070474B49086070473D4A916921F00F017E
:101660000143916170474749086070472DE9F04F89
:10167000DFF8ECB0DBF88411DFF80CA100294FEAA9
:101680004A0501D0514600E02946DBF8802102B12D
:1016900049080B46DBF88821DFF8B4C02AB1DCF832
:1016A0000420C2F30322521C5343DCF80C204FF4F5
:1016B0000048C2F3012249F64049012752B1012AEC
:1016C0000AD0022A1BD0C0F80090DBF80422CAB16D
:1016D000524618E00560F8E7DCF80C204FEA1212D9
:1016E000120701D41A4608E0DCF80C20C2F30212FB
:1016F000521C07FA02F2B3FBF2F20260E5E7C0F80F
:101700000080E2E72A46DBF8004204B152081446A2
:10171000DBF808622EB1DCF80460C6F30316761C11
:1017200074432646DBF810B2BBF1000F00D07608F8
:101730004660DCF8186036095FEA067B07D506F0DC
:10174000070B0BF1010B07FA0BF6B5FBF6F51DE0E5
:101750000000024000800D40D807B0431000000890
:101760000000404288014042880040420802404256
:10177000800040422002404210024042B4024042F7
:10178000240340422003404200093D00C560DCF8CC
:1017900018605FEA067B07D506F0070B0BF1010B1B
:1017A00007FA0BF6BAFBF6FAC0F810A0DCF81460E2
:1017B00016F0030604D0012E1AD0022E1AD02146AC
:1017C000DCF81420C2F30112B2B1012A16D0022AA9
:1017D00000D02946DCF81420120A130705D502F0C0
:1017E0000702521C9740B1FBF7F18160BDE8F08F12
:1017F0001146E5E71946E3E74146EBE74946E9E7E5
:101800001FB502F016FF02F048FF02F009F803F0DE
:10181000F9F803F01DF903F06DF902F09AFF03F0F7
:1018200024F903F09DF803F0A6F800F016FA02F090
:101830000CFD04F096FC49480125E90300240160F1
:1018400000F0ACFD502003F049FA552003F049FAAE
:10185000434804604460CDE9005402940023802290
:1018600040A14248039405F0D8FB4148CDE901046A
:101870000226002380223FA141480096039405F0F0
:10188000CCFB009401940294002380223DA13F48A8
:10189000039405F0C2FB0320CDE900040294002369
:1018A00080223BA13D48039405F0B7FBCDE90054ED
:1018B0000294002380223AA13C48039405F0ADFB3A
:1018C000CDE9006402940023802239A139480394B1
:1018D00005F0A3FBCDE9005401231E020294324619
:1018E00035A13848039405F098FBCDE900540294E3
:1018F0000123324634A13748039405F08EFBCDE92D
:10190000005402940223324633A12E48039405F07A
:1019100084FBCDE9005402940223324631A12D48C4
:10192000039405F07AFBCDE9005402940023802251
:101930002FA13348039405F070FB009401940294A6
:10194000002380222FA13348039405F066FB03F0A7
:1019500047FA03F07AFA05F046FEFEE700E100E000
:101960008400002047554920746F7000E538000856
:1019700028000020436F6E76657274657200000067
:10198000B92C00085365727669636500F943000855
:101990004469737061746368657200007530000893
:1019A000627574746F6E7320746F7000015000085C
:1019B000414443002B1A00085541525431205258DB
:1019C000000000004B570008554152543120545834
:1019D00000000000C75900085541525432205258A7
:1019E00000000000554152543220545800000000BD
:1019F000536F756E64206472697665720000000032
:101A0000DF440008454550524F4D206472697665A9
:101A10007200000099610008694880887047684832
:101A2000C08870476648C068704708B50022042126
:101A3000052005F004F8624C206180B103220021EA
:101A4000012004F0FCFF606120B100231A46194612
:101A500005F08CF8606918B14FF0FF3537E0FEE70C
:101A6000FEE70320207000232A461946606905F02E
:101A700062F92089800800EB800081B2A180608932
:101A80008008E0804F4AD2F8D020526E127F520771
:101A900007D500EB80004FF6FF7202EA4000E080BD
:101AA00002E000EB8000E080E08841434FF47A7070
:101AB00091FBF0F0E06044480D2101700521417078
:101AC0000146424800231A46006805F04FF80023FB
:101AD0002A466946206905F02EF900980128F6D1BA
:101AE000BFE770B5364C00222146607801250426F8
:101AF000C978032838D005DC50B101280ED002285F
:101B000004D12AE0102840D0112845D0627070BD61
:101B10002078A0700028FAD0657070BDA07800F021
:101B20000501012908D081070DD520F00200A07021
:101B300010206070628170BD20F00500A07002204E
:101B40006070228170BD627022706069BDE8704073
:101B500000231A46194605F09DB80420FFF7E3F864
:101B6000E6700320607070BD042904D2FFF749F9C4
:101B7000218908442081E07828B1FFF736F9E07820
:101B8000401EE07070BD657070BD0720FFF7CBF898
:101B9000E6701120607070BD042904D2FFF731F99E
:101BA000618908446081FFF720F9E07828B1FFF7E8
:101BB0001CF9E078401EE07070BD657070BD0000DB
:101BC000040000204C0C0020000C00203C000020F1
:101BD00070B500244C4D686820F0C00068600F208C
:101BE00001F037FE064649480068810600D41024FB
:101BF000400701D444F480742868C10701D144F03F
:101C00000104810701D444F00204410701D444F0E7
:101C10000404C10601D444F00804800601D444F051
:101C20002004304601F01AFE0028FAD128686968BD
:101C300041F0C0016960010601D444F0400440064F
:101C400001D444F080043248048070BD3148002142
:101C500041808180C1800181704700202D4A002190
:101C60000A3222F81010401CC0B20928F9D3EDE75F
:101C70002DE9F04104F042FEFFF7AAFF04F04AFE0E
:101C80002348008820F00F05FFF7E0FF0021214CDA
:101C900001274FF6FF7C04F10A0607FA01F082B231
:101CA00036F811000CEA4000154201D040F0010066
:101CB00000F00303012B04D0022B06D0032B19D113
:101CC00011E063881343638014E0A3881343A38067
:101CD000C0F38803A3F58078B8F1FF080AD0E38841
:101CE0001343E38006E0C0F38803FF2B02D123896E
:101CF0001343238126F81100491CC9B20929CCD30A
:101D00002580BDE8F081000000000B4000800A4003
:101D10001C000020100C00201E48006840F300004A
:101D2000401C70471C48006840F38020401C7047EE
:101D30001A4A012803D004211046FEF775BC04217D
:101D40001046FEF766BC15480068C0F38000704777
:101D5000124A012803D008211046FEF765BC08216D
:101D60001046FEF756BC0B4A012803D0022110464C
:101D7000FEF75ABC02211046FEF74BBC084A012868
:101D800003D040211046FEF74FBC40211046FEF71D
:101D900040BC000000800A4000000B4000800E4064
:101DA00000800C40FE4890F8FC00012801D0002083
:101DB000704701207047012804D0F94868308088B6
:101DC00080B27047F648FAE7012804D0F44868303A
:101DD000808980B27047F248FAE7012804D0F048C1
:101DE0006830008980B27047ED48FAE7012805D0D5
:101DF000EB48683021B1406980B27047E848F9E7A4
:101E00000069F9E7012807D0E548683031B190F85A
:101E10002000C0F340007047E148F7E790F8200049
:101E200000F001007047012806D0DD48683029B174
:101E30004430008880B27047D948F8E72430F8E78A
:101E4000012806D0D648683029B14430008980B2D4
:101E50007047D348F8E72430F8E7012806D0D04887
:101E6000683029B14430808880B27047CC48F8E7A8
:101E70002430F8E7012807D0C948683031B1443030
:101E800032B1006980B27047C548F7E72430F7E700
:101E9000C068F7E7012808D0C148683039B144303C
:101EA0003AB1007FC0F340007047BD48F6E72430E8
:101EB000F6E7007F00F001007047B94890F8FD0098
:101EC00000F001007047B64890F8FD00C0F34000F4
:101ED0007047B348B0F8FE007047012806D0B048FC
:101EE0006830406E007FC0F380007047AC48F8E770
:101EF000AB48D0F8D000007800F001007047A94846
:101F0000006890F904007047A6490028096802D0CB
:101F100091F90600704791F90500704710B5024627
:101F20000020147FE30704D0D3688B4201DB1946FD
:101F30000220A30705D513698B4202DC194640F045
:101F4000010053688B4202DB194640F00800936899
:101F50008B4202DC194640F0040013688B4202D029
:101F6000116040F0100010BD30B500244569954265
:101F700001DB2A4608248569954202DC2A4644F0A2
:101F80000404057F71B10169914203D1C5F3400199
:101F9000994205D0026163F34105057744F01004CE
:101FA000204630BDC168914203D105F0010199423C
:101FB000F6D0C26063F30005057744F01004EFE744
:101FC000012803D076486830001D70477448FBE74D
:101FD000012804D07248683019B144307047704805
:101FE000FAE724307047012803D06D486830001D9F
:101FF00094E76B48FBE7012803D069486830001D6F
:10200000B2E76748FBE7012805D06548683021B191
:102010004430114682E76248F9E72430F9E730B4EA
:1020200014461A46029B012806D05D48683029B143
:102030004430214630BC97E75948F8E72430F8E7A8
:1020400030B50546022A02DA0222082007E04FF4E2
:10205000FA70824202DD0246042000E01020504B5C
:10206000FD331C7865F3000461F341041C70A3F890
:10207000012030BD012807D0002805D04848D0F8FD
:10208000D000007800F001007047002808D0012837
:1020900006D04348D0F8D000406E007FC0F38000E7
:1020A000704741483E490068091D02880A6042881D
:1020B000CA6082880A6183790A7F63F300020A7723
:1020C000C37963F341020A77028A0A62428ACA62CA
:1020D000828A0A63837D91F83C2063F3000281F8D1
:1020E0003C20C37D63F3410281F83C20028B0A64EB
:1020F000428BCA64828B0A65837F91F85C2063F30C
:10210000000281F85C20C37F63F3410281F85C2008
:10211000091F90F82020002A58D001F144026C31A8
:1021200041F8082C02890A604289CA6082890A61E2
:10213000837B0A7F63F300020A77C37B63F3410268
:102140000A77428C0A62828CCA62C28C0A6390F857
:10215000283091F83C2063F3000281F83C2090F88D
:10216000293063F3410281F83C20428D0A64828D5C
:10217000CA64C28D0A6590F8303091F85C2063F330
:10218000000281F85C2090F8313063F3410281F85D
:102190005C206C3990F83220D2B1014AAC3205E0B3
:1021A0004C0C0020DC010020E0010020DE3141F871
:1021B000122C10F8343FCA7F63F30002CA774378C9
:1021C00063F34102CA77408808847047F94AA6E75A
:1021D000F84A6832E3E700B50120FFF7ECFDF64B63
:1021E0001968088000210120FFF700FE1968488067
:1021F00001210846FFF7FAFD1968888000210120B7
:10220000FFF700FE1968887101210846FFF7FAFD03
:102210001968C87100210120FFF705FE19680882BE
:10222000002211460120FFF725FE1968488201228D
:1022300000211046FFF71EFE196888820022114611
:102240000120FFF727FE196888750122002110463A
:10225000FFF720FE1968C87501210846FFF7E3FD66
:1022600019680883012100220846FFF703FE196858
:102270004883012211461046FFF7FCFD1968888348
:10228000012100220846FFF705FE19688877012220
:1022900011461046FFF7FEFD1968C8770120FFF7C9
:1022A0001CFE196881F820000020FFF784FD1968E2
:1022B000088100210846FFF799FD1968488101212E
:1022C0000020FFF793FD1968888100210846FFF779
:1022D00099FD1968887301210020FFF793FD1968A3
:1022E000C87300210846FFF79EFD19684884002244
:1022F00011461046FFF7BEFD1968888400210122AF
:102300000846FFF7B7FD1968C88400221146104639
:10231000FFF7C0FD196881F8280000210122084656
:10232000FFF7B8FD196881F8290001210020FFF7A7
:102330007AFD19684885002201211046FFF79AFDB1
:1023400019688885012211460020FFF793FD19685E
:10235000C885002201211046FFF79CFD196881F80D
:102360003000012211460020FFF794FD196881F822
:1023700031000020FFF7B1FD196881F83200FFF746
:102380009CFD196881F83400FFF79DFD196881F8FC
:102390003500FFF79EFD1968C88600BD70B58548F9
:1023A0004FF4807124380BF099FF824C303414F8CC
:1023B000540C40F0010020F0020004F8540C0025F9
:1023C00044F84C5C42F2107044F8480C44F83C5C11
:1023D00044F8380C14F8140C20F0040004F8140C21
:1023E00044F82C5C44F6206044F8280C44F81C5C4B
:1023F00044F8180C217B41F00401217344F80C5C73
:10240000410044F8081C6560A160217D21F00101B4
:1024100021F002012175E5612062E562206394F8F4
:10242000541021F0040184F85410E5632064E5643D
:10243000206594F8741041F0040184F87410E56587
:102440002066E566206794F8A90040F0010020F0BE
:10245000020084F8A9000A20A4F8AA0055482061C7
:102460006830A0672438E067543C00F0E8FC00F0D6
:102470009EFC0028FBD054F8D00F007800F001003B
:10248000FFF766FC2068406E007FC0F38000FFF716
:102490006AFC2068808880B200F048FC2068406EAA
:1024A000017F0088C1F3800180B200F055FC2068F4
:1024B0000078C0F34000FFF761FC84F8285070BD3D
:1024C00005230B7004234B70002802D0807808711C
:1024D00000E00B714A7100208871C871704730B4F8
:1024E000344B0524343B1C7004245C70002802D05B
:1024F0008078187100E01C71002058719A71D971B0
:102500002E4800232B49006830BC1A46343904F0A9
:102510002DBB4068002805D0002300681A461946E4
:1025200004F024BB704770472DE9F04700250627CB
:10253000204EA846243E4FF0010996F8FC40D6F8FC
:10254000D01008280DD2DFE800F02C75520C0404DE
:1025500091AC012C07D0032C0FD0022C01D186F8AE
:10256000FC80BDE8F08700F06AFC86F8FC80BDE8DE
:10257000F047012200210846B1E700F060FCD6F8E0
:10258000D0000078C0F34000FFF7F8FB86F8FC802D
:102590000320FFF7C8FFBDE8F047052200210846E9
:1025A0009DE76CB1022C0BD0BDE8F04701484438E0
:1025B000AFE70000700C0020E00100203C0000208C
:1025C0000878C0F34000FFF7D9FB00F021FC102889
:1025D00009D00125FE48FFF79CFF3A462946BDE891
:1025E000F047FB487BE786F8FC900027F2E7032CD6
:1025F00003D00878C00709D00225F548FFF789FF06
:102600003A462946BDE8F047F14868E7012C04D076
:1026100000F0FEFB102800D00125002DEDD1002098
:10262000FFF7ACFB0220FFF77EFF032086F8FC00DB
:102630000327E2E700F003FC86F8FC80032C10D0AF
:10264000D6F8D0000078C0F34000FFF797FB0124D4
:10265000DF48FFF75EFF22462946BDE8F047DC4829
:102660003DE70320FFF75FFF0524F1E7022086F82E
:10267000FC0000F0F2FB102802D000F0E0FB012586
:10268000022229460020FFF72AFF032C7FF469AFBE
:102690000320FFF748FFBDE8F04705220021084668
:1026A0001DE7CC48C0F804900023011DCA481A4613
:1026B0000068BDE8F04704F059BA10B5C448407846
:1026C000002807D001283BD1FFF785FDBDE8104069
:1026D000BF481EE70520FFF727FF04F00FF9FFF7BB
:1026E000E0FC04F017F902E0012004F015FE00F010
:1026F0005EFB0028F8D0B64C2034D4F8D000406EF1
:10270000007FC0F3800000F06EFB102814D154F855
:10271000D00F808880B200F009FB2068406E017FF6
:102720000088C1F3800180B200F016FB20680078B9
:10273000C0F34000FFF722FBBDE81040A448E8E6E4
:1027400010BD2DE9F84F002600250024A04FDFF82A
:102750008CA23846797807F12008007A08F1680BD6
:1027600007F110090A297DD2DFE801F07CFDFC05A4
:102770003C84E57CFBFAFFF77DFC387204F0BEF880
:10278000387AF968FFF72FFC044604F0C3F8E00636
:102790000BD5D8F8D010387A0A7802F001029042AE
:1027A00003D1888880B200F0C1FA8948FFF7B1FEF2
:1027B0008749032210318648FFF782FE397A99F85B
:1027C000080061F3000089F8080089F80640DAF88B
:1027D000000001B00023BDE8F04F7D491A461031DA
:1027E00004F0C4B9FFF746FC3872787AFFF74DFC65
:1027F000787204F083F8797A387AFA68FFF703FC84
:10280000044604F087F8E00612D5D8F8D010387ADC
:102810000A7802F0010290420AD14A6E787A117F5A
:10282000C1F38001884203D1108880B200F094FA8D
:102830006748FFF76EFE6649042210316448FFF7CF
:102840003FFE397A99F8080061F30000797A61F364
:10285000410089F8080089F8064000235C491A46BF
:10286000103100E0BCE0DAF8000001B0BDE8F04F44
:1028700004F07CB9FFF7FEFB387204F03FF8BB7A36
:10288000797A387AFA68FFF7B6FB0546E80607D585
:10289000387AFFF795FB0168387AFFF7A4FB044606
:1028A00004F038F8E0060BD5D8F8D000397A027871
:1028B00002F00102914203D1808880B200F036FA22
:1028C0004348FFF726FE4249052210314048FFF7F2
:1028D000F7FD397A99F8080061F30000797A61F31D
:1028E000820089F8080089F80650394900231A4601
:1028F0001031DAF8000004F039F9E00670D53449F7
:10290000032210310020FFF7DBFD397A99F8080027
:1029100061F3000089F8080044F0200089F80600FF
:10292000DAF8000001B00023BDE8F04F28491A464C
:10293000103104F01BB9FFF79DFB3872787AFFF76E
:10294000A4FB787203F0DAFFF87A0090BA7A797A09
:10295000387AFB68FFF763FB0546E8060ED503E00F
:1029600075E154E1D9E068E0797A387AFFF730FB15
:102970000268797A387AFFF746FB044603F0CAFF0B
:10298000E00612D5D8F8D000397A027802F00102B8
:1029900091420AD1406E7A7A017FC1F380018A4266
:1029A00003D1008880B200F0D7F90948FFF7B1FDE4
:1029B0000749062210310648FFF782FD397A99F857
:1029C000080061F30000797A61F34100B97A08E008
:1029D0002C0C002020000020140000203C000020CF
:1029E00081E061F3820089F8080089F8065000232D
:1029F0001A46CB49DAF8000004F0B8F8E00672D5C0
:102A00000422C7490020FFF75BFD397A99F80800D6
:102A100061F30000797A61F3410089F8080044F01D
:102A2000200089F80600DAF8000001B00023BDE8B4
:102A3000F04F1A46BA4904F099B8FFF71BFB3872F9
:102A4000D8F8D010097801F0010188424CD0042058
:102A5000FFF76AFD02E0012004F05EFC00F0A7F938
:102A60000028F8D0387A00F0A7F9102801D0012604
:102A70003BE003F043FF387A012803D1DFF8A0B22E
:102A80000BF1100BC8F8D0B003F044FF02E00120B6
:102A900004F042FC00F08BF90028F8D0D8F8D00000
:102AA000406E007FC0F3800000F09DF910251028D3
:102AB00001D0012619E0D8F8D000808880B200F05B
:102AC00035F9D8F8D000406E017F0088C1F380014D
:102AD00080B200F041F9D8F8D0000078C0F340008F
:102AE000FFF74CF901E0E5E00F258D481038FFF7BE
:102AF00010FD8B490122A1F11000FFF7E1FC89F8DC
:102B0000065089F80760DAF8000001B00023BDE83C
:102B1000F04F1A46824904F029B8FFF7ABFA387231
:102B2000787AFFF7B2FA7872397A012903D1DFF89F
:102B3000F0B10BF1100BDBF86420127FC2F38002BE
:102B4000904244D0D8F8D000007800F001008142D3
:102B50002ED198F8FC00012828D0032803D125E0C5
:102B6000012004F0D9FB00F022F90028F8D0787A8F
:102B700000F039F9102801D0012629E003F0BEFE4B
:102B8000787A80B10BF14400CBF8640003F0C2FE08
:102B9000DBF86400017F0088C1F3800180B200F09F
:102BA000DBF8102514E00BF12400EDE702260FE01E
:102BB00003F0A4FE787A38B10BF14400CBF864003E
:102BC00003F0A8FE102503E00BF12400F6E70F2523
:102BD00053481038FFF79DFC51490222A1F1100023
:102BE000FFF76EFC397A99F8080061F3000089F864
:102BF000080089F8065089F80760DAF8000001B08B
:102C00000023BDE8F04F1A46454903F0AFBF03F07B
:102C100075FE797A387AFA68FFF712FA044603F0FB
:102C200079FE3F481038FFF774FC3D490822A1F1B6
:102C30001000FFF745FC89F80640DAF8000001B003
:102C40000023BDE8F04F1A46354903F08FBF03F06B
:102C500055FE3448397A00680171797A4171B97A40
:102C6000817103F057FED8F8D000808880B200F060
:102C70005DF8D8F8D000406E017F0088C1F3800174
:102C800080B200F069F826481038FFF742FC24496A
:102C90000922A1F11000FFF713FC102089F80600AB
:102CA000DAF8000001B00023BDE8F04F1A461C49D5
:102CB00003F05CBFBDE8F88F00221021052003F06F
:102CC000BEFE194D2860B0B1002103F087FE144C00
:102CD0004FF0FF36103C1249002332461039286865
:102CE00004F029F820780528F5D2DFE800F0110576
:102CF0000E031500EFE7FEE7607810B1FFF721FD46
:102D0000E9E7207AFFF710FCE5E7FFF7D6FCE2E7FA
:102D10000720FFF709FCDEE70620FFF705FCDAE7EE
:102D20003C0C0020DC010020200000200521B0FB2D
:102D3000F1F0C64A126892F9042092FBF1F10844BE
:102D4000002801DA002004E0B0F5805F01DB40F6E6
:102D5000FF7080B201F0BCBF30B4BC4A4FF4805564
:102D60006C1E136801290BD00521B0FBF1F093F91B
:102D7000062092FBF1F10A18002A11DA002212E073
:102D80000A21B0FBF1F093F9052092FBF1F10A184A
:102D9000002A01DA002206E0AA4204DB224602E011
:102DA000AA4200DB224690B230BC01F094BFA84892
:102DB000007800F01000704710B5A54C2178C907C5
:102DC00001D0132010BD2178C90601D4112010BDF7
:102DD00072B6FEF7BDFF62B608206070607800280A
:102DE000FCD1102010BD10B5994C2178C90701D035
:102DF000132010BD2178C90601D4112010BDFEF7A3
:102E0000B2FF0820607060780028FCD1102010BD4F
:102E10008F480178C90701D0102070470178490711
:102E200001D5122070470178C90601D411207047DE
:102E30000121417041780029FCD11020704784485D
:102E400001788907002901DA1020704702214170BA
:102E500041780029FCD1102070477D480178C907CE
:102E600001D0112070470421417041780029FCD124
:102E7000102070472DE9F8434FF00008CDF800808E
:102E8000FEF750FF724D80B9287880060DD4714846
:102E9000006850B101236A466F4903F0FBFE012828
:102EA00003D1287840F02000287028784FF4FA7772
:102EB00010F02A0F01D0AF8003E0A88808B1401EAF
:102EC000A880A88848B10024644E54B1E88808B1AD
:102ED000401EE880012C09D016E0FEF71DFF0446D5
:102EE000F2E7B6F8FE004008E880F3E7A88958B991
:102EF00096F8FD00800707D55A480123002258495B
:102F0000006803F0C7FEAF814FF04B09012C16D1CA
:102F1000E888A0B996F8FD00C00710D0287820F006
:102F200001002870287840F006002870A5F8089065
:102F30004E48012300224C49006803F0ABFE68783C
:102F4000400703D5287820F00400287068788007AF
:102F50000DD5287880070AD4287820F00100287041
:102F6000287840F002002870A5F8089010E06878F2
:102F7000C0070DD02878C0070AD12878400707D4A9
:102F8000287820F002002870287840F0010028708E
:102F90006878000701D5322028816878C00600D5FE
:102FA0006F81A878C00704D0287840F00800287006
:102FB00006E0A878800703D5287820F0080028705C
:102FC00085F8018085F8028085F80380287810F064
:102FD0002A0F03D00020FEF7ABFE05E02878C007DB
:102FE00002D00120FEF7A4FE0020297801F0210183
:102FF000012902D1698901B90120012C03D096F879
:10300000FC10022901D140F0020001F0D3F9288917
:1030100030B1401E2881287820F01000287003E08D
:10302000287840F010002870688908B1401E688137
:10303000A88908B1401EA8810098002803D00C4937
:103040004FF080500860BDE8F8830000DC010020EC
:103050002C0000203C000020F4FC00084C0C002058
:1030600010FD000868000020D4FC000820000020AB
:1030700004ED00E092B00024002210210A2003F0A9
:10308000DEFCFE4D286000287ED0032200210120B6
:1030900003F0D5FC686020B100231A46194603F0FE
:1030A00065FD6868002870D003220021012003F02C
:1030B000C6FCA86020B100231A46194603F056FD4D
:1030C000A86800287ED000231A461946EB4E03F06C
:1030D00032FE322004F020F905208DF80C00002784
:1030E0000497E74D00231A4603A9286803F03EFD24
:1030F000E448077007A9816006F1080BC0F804B026
:103100000146E1484FF0FF3900234A46006803F0CA
:103110002DFD00234A461946B06803F00CFE04203A
:1031200008909DF81C0000287ED000200990D74E02
:1031300000231A4608A9306803F018FD4FF0020872
:103140008DF828808DF8297000200B90D0484FF022
:10315000FF3900234A460AA9006803F007FD03204F
:103160008DF80C0000200490C54D00231A4603A9D9
:10317000286803F0FBFC7D2004F0CEF803200890C3
:1031800000231A4608A901E060E060E030460068CC
:1031900003F0ECFC4FF0060ACDF820A08DF8248057
:1031A0009DF81C0000F00C008DF825009DF83C00F7
:1031B0008DF82600304600234A4608A9006803F02F
:1031C000D5FC00E044E0DFF8CC82CDF81880DFF8D1
:1031D000C89200231A4606A9D9F8000003F0C6FCDD
:1031E0008DF80CA000231A4603A9286803F0BEFC42
:1031F000A449012014310870A84800231A46006829
:1032000003F0B4FCA6489F4900231A461431006815
:1032100003F0ACFC99499B48091D41604FF0FF3A0F
:10322000002352460EA900E013E0944D286803F0F5
:1032300082FD9DF83800401F0928EFD2DFE800F03A
:10324000F22A8A41CD050BF0EF00E7E7FEE7FEE743
:10325000FEE701206AE78B482030017821F07F01EA
:10326000091D01709DF8390001280AD00228D5D126
:103270008C48844900231A462031006803F076FC0C
:10328000CCE789487F4900231A462031006803F0C3
:103290006DFCC3E7002CC1D1012400231A46194656
:1032A000686803F048FD7748032101709DF83C10E1
:1032B00001720146744800231A46006803F056FC68
:1032C000ACE79DF83D00E0B17848069000231A462F
:1032D00006A9D9F8000003F049FC062008908DF8F3
:1032E00024709DF83D008DF825009DF83C008DF878
:1032F00026000023524608A9306803F037FC00245A
:103300008CE702208DF828008DF82970CDF82CB0BC
:103310005F48002352460AA9006803F027FC0023F7
:1033200052461946A86803F006FD03208DF80C00EC
:10333000CDF810B0524800231A4603A9006803F0E4
:1033400015FC002352461946A86803F0F4FCCDF89A
:103350001880BBE7002C93D1012400231A4619469C
:10336000686803F0E8FC02F0F5FE02208DF8280002
:1033700001208DF82900CDF82CB0454800231A46CD
:103380000AA9006803F0F2FB00235A1E1946A86838
:1033900003F0D1FC4FF0040A8DF80CA0CDF810B06A
:1033A000374800231A4603A9006803F0DFFB002317
:1033B0005A1E1946A86803F0BEFC324880F800A0E7
:1033C0009DF83C1001721099C16001462E480023FF
:1033D0001A46006803F0CAFB20E79DF83D00D8B10B
:1033E000324906910621089101218DF824108DF8AB
:1033F00025009DF83C008DF826000023524608A9C0
:10340000306803F0B3FB00231A4606A9D9F8000080
:1034100003F0ACFB002401E7CDF81880E2E7C2E03E
:10342000E2E0FFE79DF83D0028B19DF83E10C90697
:1034300001D5012200E0002228B99DF83E1006299E
:1034400001D0012100E0002111439DF83C20032A16
:103450003AD091B1052108918DF824009DF83E00E5
:103460008DF825009DF840009DF8261060F30001BE
:10347000C0F3400262F341011AE025E03C00002065
:10348000940000204C0D0020E40100205400002096
:10349000200000203200010068000020DC00002035
:1034A000E0000020D0010020CC010020320002000A
:1034B000C0F3800060F382018DF8261000231A46C5
:1034C00008A9306803F052FB9DF83D1029B19DF822
:1034D0003E00C00601D5012200E0002229B99DF876
:1034E0003E00062801D0012000E00020104330B348
:1034F000A648027822F07F02921C22F0800202701D
:1035000001719DF8401001F001024271C1F34001C8
:1035100081719DF83C00012806D09D4800231A4681
:103520009A49006803F022FB9DF83C00022806D06F
:10353000984800231A469549006803F017FB9DF848
:103540003C0001283FF481AE0228FBD006979DF88D
:103550003D0080B19DF83E0000F02F010F2904D0FE
:10356000C0F30110012803D012E08B4806900FE051
:10357000CDF818800CE09DF83F0018B18648801CFB
:10358000069005E09DF83E00022801D18348069090
:1035900006980028D6D000231A4606A9D9F80000BC
:1035A00003F0E4FA3AE60820089000231A4608A936
:1035B000306803F0DBFA7548017821F07F01891C3F
:1035C00021F080010170072101710146704800233C
:1035D0001A46006803F0CAFA6E4800231A466B497F
:1035E000006803F0C3FA19E634B16D4800235A1E8F
:1035F0001946406803F09FFB02F0ACFD02208DF8F5
:10360000280001258DF82950CDF82CB065480023FD
:103610001A460AA9006803F0A9FA0023604C5E1E4E
:1036200032461946A06803F086FB04208DF80C0092
:10363000CDF810B05C4800231A4603A9006803F0D7
:1036400095FA002332461946A06803F074FB002364
:103650001A461946606803F06EFB4C482038057026
:1036600002A9816001A9C160014650480023324689
:10367000006803F07BFA002332461946606803F0C5
:103680005AFB72B641F2883000F0E3F8044600209D
:1036900001F024FB002001F01BFB002001F01BFBCC
:1036A000002009F05EFA002009F03CFA404809F0D9
:1036B00085FB0022012311463EA009F053FC0123A3
:1036C000002260213EA009F04DFC0123222260214E
:1036D0003EA009F047FC3F4809F070FB9DF8080048
:1036E000E0B301230C2279213BA009F03BFC9DF8BB
:1036F0000400A0B3112841D001232E22792136A045
:1037000009F030FC374800F0EEFD204600F0A6F846
:103710000028FAD1FEF71CFB0020FEF724FB002056
:10372000FEF72CFB304800F094F80446204600F0E9
:1037300095F80028FAD12D48FCF78AFE2C48FCF7B2
:1037400087FE2C48FCF784FE2B48FCF781FE2B48B3
:10375000FCF77EFE2A48FCF77BFEFEE700E006E071
:1037600001230C22792127A009F0FCFBBFE70123EC
:103770002E22792123A009F0F5FBC3E701232E2295
:10378000792123A009F0EEFBBCE700006C0D0020BE
:10379000CC010020D00100203200020034000300E0
:1037A0003C0000202000002094000020E4010020C4
:1037B00054220108506F776572204F464600000082
:1037C00053657474696E67730000000050726F6611
:1037D000696C65007C1301084E4F54207361766557
:1037E00064000000A866002040420F0000800A40EC
:1037F00000000B4000800B4000000C4000800C409B
:1038000000800E407361766564204F4B000000001D
:103810006E6F7420726571757269656400000000D6
:1038200011480168C9070AD1016841F0807101603F
:103830000E4800214160016841F0010101607047BC
:103840000A4840687047081A704708494968081ACA
:1038500070470649496801EB4010704703494968C1
:10386000081AC00F70470000FCED00E0001000E0F7
:103870001A4908788006000E0870194A1368DB059B
:10388000002B02DA40F0010008701068800503D5B3
:10389000087840F002000870087800F00F000F2848
:1038A0000CD2DFE800F00B0C080B080B0B0C0C0B18
:1038B0000B080B080C004888401E48807047488859
:1038C000401C4880704705498A88488820F00300DA
:1038D0008880801A00B28010C8807047480000209D
:1038E00000000B401FB5002208210A2003F0A7F8B2
:1038F000FE4C6060E0B303220021012003F09FF83A
:10390000A06020B100231A46194603F02FF9A068E1
:1039100078B300231A46194603F00DFA032200215A
:10392000012003F08CF8E06020B100231A4619460C
:1039300003F01CF9E068E8B100231A46194603F0C9
:10394000FAF9EB4803214170E8490831416004F07D
:1039500074FAE84807F01DFB4FF0FF3500232A46B4
:1039600002A9606803F0E7F902980E28F6D202E097
:103970000BE00BE00BE0DFE800F021363E0B2943C3
:103980008C07860707070789E8E7FEE7FEE7FEE7FB
:1039900004F0F2FE06F0AAFC06F0BCFC06F0EAFC1D
:1039A00006F0FCFC06F0D4FCF0208DF8000069461F
:1039B000D04807F034FA07F07AFACFE707F05FFC57
:1039C00007F02AFBCC4800F08EFCC7E7F1208DF809
:1039D000000003988DF801006946C64807F01FFAF9
:1039E00007F065FABAE7BDF80C00C1B2BDF80E00E9
:1039F00007F024FCB2E7BDF90C0007F02FFCADE79F
:103A00009DF80C000928A9D2DFE800F00537300640
:103A10000D1622053A00A1E79DF80E0000F0010006
:103A200004F061FE9AE79DF80E00C0F3400100F03B
:103A3000010004F06AFE91E79DF80E00410701D4F1
:103A4000012100E0022100F0010005F0F2F985E714
:103A50009DF80E00410701D4012200E00222C0F3CC
:103A6000400100F0010005F0B0F977E79DF80E0085
:103A700000F0010004F05FFE70E704F07DFE6DE7EA
:103A800006F034FC6AE704F0D9FE67E704F0E9FECB
:103A900064E79DF80C0020B101282FD0022869D1DD
:103AA0004EE09DF80D0060B1082820D01E230022B2
:103AB0000321022006F0ADFF9DF80E0006F03AFC4F
:103AC00058E000221E231146104606F0A2FF04F023
:103AD00053FE0321102005F0ACF910210322084603
:103AE00005F073F906F002FC06F044FC42E0022106
:103AF0001E230022084606F08CFFDDE79DF80D002E
:103B000060B1082815D01E2300220321022006F0F0
:103B100080FF9DF80E0006F00DFC2BE000221E2316
:103B20000121104606F075FF9DF80E0006F002FC1C
:103B300020E002211E230022084606F06AFFE8E783
:103B400002F01CFB80B19DF80D0030B11E23002255
:103B50000421012006F05DFF0CE000221E23052158
:103B6000104606F056FF05E000221E2304211046F1
:103B700006F04FFF00202070F0E65D4A01231C3A5A
:103B80001370507003209070012902D00020506003
:103B9000704756480C305060704770B504460D466B
:103BA00001210220FFF7E9FF51481C3804724572D9
:103BB0000146524800235D1E2A46006802F0D6FFE7
:103BC0004A4800232A461946C06803F0B4F8204644
:103BD000BDE8704004F0AFBD70B504460D4601214C
:103BE0000320FFF7CAFF42481C380472C560014633
:103BF000424800235D1E2A46006802F0B7FF3B489A
:103C000000232A461946C06803F095F82046BDE80F
:103C1000704004F068BD70B504460D46164601219B
:103C20000420FFF7AAFF324B1C3B1C725D72DE6062
:103C3000324800232E495E1E32461C39006802F0CD
:103C400095FF2A48002332461946C06803F073F8EE
:103C500029462046BDE8704004F057BD2DE9F041EB
:103C600006460D461746984601210520FFF785FFB9
:103C70001F4C1C3C26726572A772C4F80C801F484A
:103C800000231B495C1E22461C39006802F06EFFAF
:103C90001648002322461946C06803F04CF845B187
:103CA0000221304605F0C5F83046BDE8F04104F089
:103CB0001ABD0121F5E72DE9F0470646DDF8209011
:103CC0000F461546984601210620FFF756FF084C7F
:103CD0001C3C26726772A57284F80B80C4F80C90A5
:103CE00000235C1E024922461C3909E050000020D6
:103CF000A40D0020D4530020A8660020200000203E
:103D00007748006802F032FF7648002322461946C1
:103D1000C06803F010F855B102223946304605F06C
:103D200054F839463046BDE8F04704F0EEBC0122B5
:103D3000F3E770B504460D46164601210820FFF74B
:103D40001CFF694B1C725D72DE60654800235C1EBF
:103D500022466549006802F009FF624800232246B6
:103D60001946C06802F0E7FFBDE8704006F0BEBA31
:103D700070B504460E46154600210920FFF7FDFEEA
:103D8000594B1C725E729D72554800235A1E006882
:103D9000BDE87040544902F0E9BE10B5524A05230F
:103DA0001C32137010725172504800234E495C1E31
:103DB00022461C31006802F0D9FE4A480023224600
:103DC0001946806802F0B7FFBDE8104006F0A2BABD
:103DD00010B5444C217800290CD1434906221039F2
:103DE0000A700871424800231A46006802F0BEFEBD
:103DF0000120207010BD10B53A4C2278002A0FD156
:103E0000394A0723103A13701071916038483649C7
:103E100000231A461039006802F0A8FE0120207025
:103E200010BD38B5304A02231C3213701072C2F82C
:103E30000CD011612D4800232B495C1E22461C31F9
:103E4000006802F093FE2748002322461946806846
:103E500002F071FF9DF8000038BD30B4224B0224FF
:103E600010331C70187259729A72224800231E492E
:103E700000685A1E30BC103102F078BE0EB5022127
:103E80008DF8001041788DF8011081788DF80810B8
:103E90004168019100784FF0FF32012806D01648A2
:103EA00000236946006802F061FE0EBD134800233E
:103EB0006946006802F05AFE0EBD1CB5044602F0C9
:103EC0001DFD2078694601F0ABF902F023FD9DF855
:103ED000000060709DF80100A070019860601CBD3A
:103EE0002000002050000020880D0020E401002068
:103EF0003C00002094000020E0000020DC000020B6
:103F00002DE9F04707460D461446002607F4E06009
:103F1000C00940F0A0084FF080494846FCF752FE27
:103F20000128FAD100214046FCF71FFE4FF0007A2D
:103F30005046FCF747FE0128FAD14FF000494846A9
:103F4000FCF740FE012805D00126FCF71BFE304699
:103F5000BDE8F087F8B2FCF710FE57463846FCF78C
:103F600031FE0128FAD14846FCF72CFE012801D089
:103F70000226EAE701214046FCF7F7FD3846FCF748
:103F800021FE0128FAD14846FCF71CFE012812D078
:103F90000326DAE71CB10020FCF7F8FD02E0082058
:103FA000FCF7F4FD3846FCF70DFE0128FAD1FCF7CA
:103FB000F2FD05F8010B2000A4F10104E4B2E9D1FF
:103FC000C3E710B54FF080442046FCF7FBFD012805
:103FD000FAD10021A020FCF7C8FD4FF00074204664
:103FE000FCF7F0FD0128FAD1FCF7CCFD4FF00040C2
:103FF000FCF7E8FD012801D0002010BD012010BD14
:104000002DE9F04106460F461546FFF7DAFF002876
:10401000FBD012E006F00F00C0F11004AC4200D952
:10402000ECB2224639463046FFF76AFF002807D136
:10403000301986B2281B85B22744002DEAD1002012
:10404000BDE8F0812DE9F04780460D461446002674
:1040500008F4E060C00940F0A0074FF080494846EE
:10406000FCF7B0FD0128FAD100213846FCF77DFDB0
:104070004FF000773846FCF7A5FD0128FAD14FF044
:1040800000494846FCF79EFD012804D00126FCF7B4
:1040900079FD30465CE708F0FF00FCF76EFD38461E
:1040A000FCF790FD0128FAD14846FCF78BFD01286A
:1040B00001D00226EBE74FF400480DE02878FCF72A
:1040C0005CFD6D1C3846FCF77DFD0128FAD14046A9
:1040D000FCF778FD012805D02000A4F10104E4B22A
:1040E000ECD1D4E70326D2E72DE9F04106460F468E
:1040F0001546FFF766FF0028FBD016E006F00F001C
:10410000C0F11004AC4200D9ECB222463946304628
:10411000FFF798FF002893D1301986B2281B85B28B
:104120002744FFF74EFF0028FBD0002DE6D10020EA
:1041300086E7000070B50446012901D144F480747B
:104140009A4D02212846FCF75EF90128F9D1214653
:104150002846BDE87040FCF751B910B5FFF779FB70
:1041600004462046FFF77AFB0028FAD110BD10B5AF
:104170008F4A012807D004211046FCF755FABDE804
:1041800010401420E9E704211046FCF742FAF6E754
:1041900070B50021E220FFF7CDFF00213D20FFF7A1
:1041A000C9FF00210120FFF7C5FF0021E120FFF733
:1041B000C1FF00210846FFF7BDFF00212420FFF7C3
:1041C000B9FF00219020FFF7B5FF0021A020FFF7E5
:1041D000B1FF0021C820FFF7ADFF0021A620FFF7A7
:1041E000A9FF0021A420FFF7A5FF00212F20FFF742
:1041F000A1FF00214020FFF79DFF0021F820FFF7DD
:1042000099FF0021D020FFF795FF00213020FFF714
:1042100091FF0021B020FFF78DFF00211020FFF754
:1042200089FF00210846FFF785FF002440F25F3533
:1042300001210020FFF77EFF641CA4B2AC42F7D33B
:10424000BDE870400021AF2074E770B5584C0121E3
:104250002046FCF7E9F94FF47A652846FFF77DFF21
:1042600001212046FCF7D5F92846FFF776FF01200B
:10427000FFF77DFFFFF78CFF4C4C10212046FCF729
:10428000C2F80028F9D10220FFF771FFFFF780FF85
:1042900010212046FCF7B7F80028F9D170BD70B5A1
:1042A0000D46FFF764FF0021B020FFF743FF002118
:1042B0001020FFF73FFF00210846FFF73BFF0024D7
:1042C0004FF4587615F814000121FFF733FF641CF2
:1042D000A4B2B442F6D3354C10212046FCF793F833
:1042E0000028F9D170BD2DE9F047064609270120C5
:1042F000FFF73DFF0021B020FFF71CFF0021102039
:10430000FFF718FF00210846FFF714FF60244FF065
:10431000000811E00025641EA4B20121305DFFF702
:1043200009FF6D1CADB2602DF5D304F59074A4B2F5
:1043300008F1010808F0FF08B845EBD3DFF86C90EE
:1043400010214846FCF75FF80028F9D10220FFF75A
:104350000EFF0021B020FFF7EDFE00211020FFF737
:10436000E9FE00210846FFF7E5FEC0244FF00008F3
:1043700011E00025641EA4B20121305DFFF7DAFED2
:104380006D1CADB2602DF5D304F59074A4B208F1A4
:10439000010808F0FF08B845EBD310214846FCF7A8
:1043A00032F80028F9D1BDE8F087000000000A408B
:1043B00000800C4070B504460C4DE00704D080210D
:1043C0002846FCF731F903E080212846FCF721F963
:1043D000A00705D52846BDE870404021FCF724B968
:1043E0002846BDE870404021FCF713B900000B409F
:1043F0002548B0F90000704708B503F01BF900909C
:104400000220FCF798FC204C4FF48025FA216846E6
:1044100002F059FF00270026FCF7EDFC022002F015
:104420007BFF2846FCF7FFFC0028FAD0FCF7ECFCE9
:10443000384487B2761C052EEED338460BF001F9CE
:10444000124A134B0BF010F9124A134B0BF00CF9F4
:104450000022124B0BF01EF80BF0C4F800B22080C3
:10446000192801DA322000E0400080B200F036FC6A
:104470000D2060600A48044900231A46091D00689F
:1044800002F074FBC2E70000600000209A9999993D
:104490009999C93F21B0726891EDCCBF00C06C40C2
:1044A00054000020052800D30020474951F820007F
:1044B00070474649421E8A60400848617047434A37
:1044C000516B40F60C439943002803D040F6080096
:1044D000014302E040F204400143516370470EB5CE
:1044E0000020019080468346002204210A2002F029
:1044F000A6FA3549091F086080BBFEE788B2090C9F
:10450000404554D98046019151E0D84500D9012455
:104510004FF0000A062C40D2DFE804F03F030C1AEB
:1045200023370198FFF7BEFF81460224C3464FF0B0
:10453000000839E0D9F80400009099F8007000985C
:10454000384303D009F1080903242DE000242BE0AF
:104550002FB17F1EBFB2009E042425E027E0022475
:1045600022E03088758855EA000107D0361D38B141
:10457000FFF79FFF0120FFF7A2FF04E0032413E0F1
:104580000020FFF79CFF05240EE025B16D1EADB2A3
:104590004FF0010A08E0042406E04FF0000B002071
:1045A000FFF78DFF4FF0010ABAF1000FB2D00648B5
:1045B0000023001F5A1E02A9006802F0BCFB0299EA
:1045C00011F5803FA1D099E76C0000200000074062
:1045D000FB48FA4981602121416070472DE9F04193
:1045E00007460D46F64E0124BC40F46228680028B8
:1045F00004D0F24901EB0711FCF790FD686820B187
:10460000F16801EB0711FCF789FD687B01280AD0EE
:10461000F4617462A87B40B13463287B012806D022
:10462000F463BDE8F081B461F3E77463F5E7B46364
:10463000F7E710B50120FCF7F8FEFCF709FF0128A9
:1046400000D0FEE707210220FCF771FF0120FCF7F4
:1046500088FFFCF789FF012800D0FEE70020FCF767
:104660009BFF0120FCF77AFF4FF48070FCF77DFE82
:104670002020FCF7D4FF0020FCF7D8FF0120FCF736
:10468000DDFFFBF717FE0121CE48FCF763FEBDE816
:1046900010400121CC48FCF75DBE2DE9F041CB492B
:1046A00008684FF6FF021040C94A40F440701043BA
:1046B00008606FF00407384600F037FBC54C2060F7
:1046C000BD10284600F031FB60606E10304600F0EF
:1046D0002CFBA060052000F028FBE0600F2000F01C
:1046E00024FB20610621052000F013FB06210F208A
:1046F00000F00FFB384600F018FB2060284600F061
:1047000014FB6060304600F010FBA060052000F054
:104710000CFBE0600F2000F008FB206181E710B582
:104720006FF0040000F001FBAA4C20606FF0010064
:1047300000F0FBFA60604FF0FF3000F0F6FAA06086
:10474000052000F0F2FAE0600F2000F0EEFA2061A0
:1047500010BD2DE9FE4FDFF880B25846FBF778FE1A
:104760009E48FBF775FE9E48FBF772FE9D48FBF7DF
:104770006FFE9D48FBF76CFE9C48FBF769FEC0216D
:104780009648FBF746FF6846FBF72CFF2120ADF863
:10479000000001248DF80A4069465846FBF762FE86
:1047A0004FF00409ADF800908DF803406946584673
:1047B000FBF758FE0225ADF800508DF802408DF849
:1047C000094069465846FBF74DFE1820ADF8000039
:1047D0008DF8085069465846FBF744FE6846FBF7DB
:1047E00001FF4FF0800AADF800A08DF80A408DF867
:1047F000095003268DF808608DF802406946584636
:10480000FBF730FE4027ADF800704FF000088DF840
:10481000028069465846FBF725FE6846FBF7E2FE34
:1048200040F23770ADF800008DF80A4069466B48D9
:10483000FBF718FEA002ADF8000069466748FBF7D9
:1048400011FEC020ADF800008DF802408DF809403F
:1048500069466248FBF706FE6846FBF7C3FEADF803
:1048600000908DF80A408DF808508DF8094069468F
:104870005B48FBF7F7FDADF800608DF8095069461D
:104880005748FBF7EFFD6846FBF7ACFE9720ADF805
:10489000000069465348FBF7E5FD2820ADF800000D
:1048A0008DF80A408DF808508DF809508DF80240B7
:1048B00069464C48FBF7D6FDADF800708DF8044012
:1048C00069464848FBF7CEFD6846FBF78BFE45205E
:1048D000ADF800008DF80A408DF809508DF80240BF
:1048E00069464148FBF7BEFDADF800A08DF80860B1
:1048F00069463D48FBF7B6FD0A20ADF800008DF88B
:10490000085069463848FBF7ADFD6846FBF76AFE7C
:104910000C20ADF800008DF80A408DF809408DF8A4
:10492000024069463148FBF79DFD6846FBF75AFE99
:10493000ADF800508DF80A408DF809508DF80860E8
:104940008DF8024069462948FBF78CFDADF8004020
:104950008DF8028069462548FBF784FDBDE8FE8F8F
:1049600010B500212248FCF7BBFBBDE81040002138
:104970002048FCF7B5BB70B5FCF706FC10484FF0BB
:10498000FF3404628461861501213046FCF7E2FCA5
:10499000194D00212846FBF73DFD002169621748AB
:1049A00041623046FCF7D6FC154AC2F8FC41C2F819
:1049B000FC40FFF70DFE2020D06770BD00080020EE
:1049C000008002400000E023E0C413000CED00E092
:1049D0000000FA05B80D002000800A4000000B40DE
:1049E00000800B4000000C4000800C4000800E4016
:1049F00000000340008003400000044000000A4023
:104A000084E000E01FB56846FBF7B8FCCD4C002100
:104A10002046FBF7FFFC0420ADF800000222ADF8B1
:104A200002200021ADF804100820ADF80600ADF812
:104A30000810ADF80A10ADF80C10ADF80E2069465C
:104A40002046FBF788FC01212046FBF7A2FC1FBD96
:104A50001CB50120FCF765F84FF480700090002031
:104A600001906846FCF747F81CBD30B593B0FCF7E1
:104A7000B5F80CA8FCF7D7F800240C940A200D9088
:104A80004FF400300E9040000F9040001090400016
:104A90001190012512950CA8FCF7AFF801A8FCF7BE
:104AA0001EF904200190029403941F2004900594A1
:104AB0000694ADF81C40ADF81E40E8020890099538
:104AC0004FF4E0400A900B9401A8FCF7BDF801A850
:104AD000FCF7E2F800210620FCF7ECF900210620A3
:104AE000FCF7F3F90120FCF708F90120FCF710F9B5
:104AF00013B030BD2DE9F04391B00BA8FBF7F7FDE3
:104B00001F20ADF82E0040F2F310ADF830008E4EAD
:104B10000BA93046FBF7D0FD05A8FBF77BFE002470
:104B2000ADF816404FF44068ADF81E800125ADF891
:104B300014504FF00809ADF8269005A93046FBF750
:104B400049FE6846FBF718FFADF80240ADF8045087
:104B5000ADF80650ADF80840ADF80A50ADF80C506D
:104B6000ADF8005069463046FBF7E9FEF920706168
:104B700000213046FBF78DFF01213046FBF7C5FDD4
:104B80000BA8FBF7B4FDADF82E5040F6FF70ADF862
:104B900030006E4F0BA93846FBF78EFD05A8FBF7DA
:104BA00039FEADF81640ADF81E80ADF82690ADF890
:104BB000144005A93846FBF70DFE0226ADF8146037
:104BC00005A93846FBF706FE05A8FBF723FEADF85E
:104BD00016406802ADF81E00ADF81450ADF826403E
:104BE00005A93846FBF7F6FD6846FBF7C5FEADF8AC
:104BF0000850ADF80A60ADF80C50ADF800406946B9
:104C00003846FBF79CFEADF8006069463846FBF776
:104C100096FE3C61BC617C61012291023846FBF743
:104C200026FF00213846FBF734FF01213846FBF709
:104C30006CFD0BA8FBF75BFD0F20ADF82E00632089
:104C4000ADF83000424F0BA93846FBF735FD05A8FB
:104C5000FBF7E0FDADF81440ADF81640ADF81E804E
:104C6000ADF8269005A93846FBF7B4FD6846FBF77A
:104C700083FEADF80040ADF80460ADF80240ADF839
:104C8000065069463846FBF75AFEADF8146005A990
:104C90003846FBF79FFDADF80060ADF80440ADF875
:104CA0000640ADF80A60ADF80850ADF80C50694602
:104CB0003846FBF744FE3C61BC6100213846FBF7F7
:104CC000E8FE01213846FBF720FD11B0BDE8F08376
:104CD0001E49086170471D49886170471C498861F9
:104CE0007047642800D96420194908617047194940
:104CF00002680A6042684A6082688A60C268CA6064
:104D000002690A6142694A6182698A61C069C8614F
:104D1000FEE74907090E002804DA0F4A00F00F00E9
:104D2000815470470D4A81547047002805DA0A49BA
:104D300000F00F00405C400970470849405C4009A2
:104D40007047000000000A40000007400080074054
:104D500000000840F40D002014ED00E000E400E045
:104D600010B502F0F8FEC0B2052838D2DFE800F036
:104D7000030C151E2700574800231A460068BDE89B
:104D80001040534901F0F2BE544800231A4600680F
:104D9000BDE81040504901F0E9BE524800231A46D0
:104DA0000068BDE810404E4901F0E0BE4F480023C6
:104DB0001A460068BDE810404B4901F0D7BE4D4887
:104DC00000231A464A49006801F0D0FE4A480023F1
:104DD0001A460068BDE81040454901F0C7BE10BD45
:104DE00038B5464D00230122322145A0009502F03E
:104DF00085FE474C206001231A46052145A00095F9
:104E000002F07CFE606002230122192146A0009579
:104E100002F074FEA060032301220A2145A0009540
:104E200002F06CFEE06004230122052147A00095FA
:104E300002F064FE2061002054F8201021B1401CD3
:104E4000C0B20528F8D338BDFEE7F8B50024661EC9
:104E50002F4D02F0EFFB02460096002355F8240088
:104E6000194602F00DFD641CE4B2052CF1D3F8BD27
:104E700010B5FEF7E5FC044638490888401E0004DA
:104E8000000C088003D105200880FCF72AFEFDF7FE
:104E9000F1FFFEF7EDFC324A506900F5486080B240
:104EA0009168814201D29168401A50614FF480614B
:104EB0001046FBF7D0FDFEF7C3FC01462046FEF787
:104EC000C2FC2649091D4A68824200D2486010BDD2
:104ED000E4FC0008200000200CFD00086800002011
:104EE00004FD000854000020B4FD000894000020D8
:104EF000A0000020DC000020E0000020614D000840
:104F0000436F6E7665727465722074696D657200A8
:104F10002C0E0020536F756E642064726976657282
:104F20002074696D657200004755492074696D658C
:104F300072000000427574746F6E7320647269763B
:104F400065722074696D657200000000554152540D
:104F50002052582074696D657200000080000020A6
:104F600000800740A74880787047A648407870477F
:104F7000A44800787047A448A249006810F8382F68
:104F80000A7042784A708078887070479E489D49C0
:104F900000680A7800F8382F4A7842708978817062
:104FA000704710B50020974C2178002915D0974AFA
:104FB00063789188528801F4807102F48072002B2A
:104FC0000CD0134600D11146A2784AB1012A0ED066
:104FD000022A02D1002900D0012010BD0B46F1E7C2
:104FE00009B1022010BD002BFCD0012010BD00290A
:104FF000FCD0FCF7D7FE08B1012010BD022010BD87
:105000000EB500220C21052001F019FD7D49891EF5
:10501000886068B3881C4FF0000B80F800B080F8FF
:1050200001B080F802B07A4806228270C0F804B05D
:1050300081F800B081F801B0DFF8D881734F764E67
:105040004FF00109DFF8BCA10023AAF1020A5A1EA1
:105050006946DAF8080001F06EFE9DF800000728A6
:10506000F0D2DFE800F00443061F303D4000E9E7DE
:10507000FEE701F043FC63489DF8081001709DF8BD
:10508000091041709DF80A10817001F043FC0198ED
:105090000028D7D0019800231A460068194601F06D
:1050A00065FDCFE701F02AFCFFF765FF01F032FC58
:1050B00001980028C6D0019800231A4600681946B6
:1050C00001F054FDBEE7FFF761FF01980028B9D059
:1050D000019800231A460068194601F047FDB1E720
:1050E0008AF80090AEE78AF80190ABE79AF80000E2
:1050F0000028A7D0FCF7BCFDFEF7E5FBFFF751FF4A
:105100000446434D85F8009085F80190B8788006F4
:1051100009D585F8089000235A1E2946D8F80000C2
:1051200001F024FD0BE03879800608D585F808B039
:1051300000235A1E3649D8F8000001F017FD85F803
:1051400001B09AF80100E0B17888010606D4012C7C
:1051500004D040060CD4022C0AD012E085F8089046
:1051600000235A1E2A49D8F8000001F0FFFC08E08D
:1051700085F808B000235A1E2549D8F8000001F030
:10518000F5FC204D0A35C5F8009001244FF6FF7A52
:10519000EC807888204208D0A5F8049019490023B3
:1051A0001A460A31306801F0E1FCF888204208D044
:1051B0000320A880134900231A460A31306801F001
:1051C000D5FC3889204208D00520A8800D4900234D
:1051D0001A460A31306801F0C9FC0AEA4404002C7E
:1051E000D6D10E48B0F9000000283FF440AF0221AC
:1051F0002960A880034900231A460A31306801F06B
:10520000B5FC1FE78E000020E0010020100C0020FC
:10521000400E002020000020540000204E000020FE
:10522000FE4A0128126807D01432107808705068BE
:1052300048605078487070470C32F6E70A2803D06F
:105240000D2801D000207047012070472DE9F74F4D
:1052500090B0012A04D0DFF8C88306D1F14D05E0F3
:10526000DFF8BC83A8F10408F7E7EF4D4FF0000723
:105270003C4602D14FF0010001E04FF002008DF8F2
:105280001900CDF8348002D14FF0010001E04FF059
:1052900002008DF832004FF0010A8DF830A0DFF8DF
:1052A0008C93D9F82420DDE9100101F029FA0028B7
:1052B00008DAD9F82020DDE9100101F021FA0028F0
:1052C00000DB0127D9F81020DDE9100101F018FA00
:1052D0004FF0020B00287DDB9DF80C0020F07F00D2
:1052E000801C40F080008DF80C00D9F88420DDE9A6
:1052F000100101F005FA002801DB01260CE0D9F8C5
:105300008820DDE9100101F0FBF9002801DB00260F
:1053100002E0FCF7EDFD0646C448D0F88C20DDE93C
:10532000100101F0EDF9002802DB4FF000090FE059
:10533000BE48D0F89020DDE9100101F0E1F9002825
:1053400002DB4FF0010903E03046FCF7C6FD814661
:10535000B648826ADDE9100101F0D2F900283DDB90
:10536000002677B3B14F6B46FA6CDDE9100101F00E
:10537000DFF9C4B264B9D7F89410009809F000F8C6
:1053800040B1D7F89810009808F0FAFF28B104242B
:1053900034B116E08DF83860FAE78DF838A0F7E7F9
:1053A0008DF83160A24800235F1E3A460CA90068C0
:1053B00001F0DCFB00233A461946D8F8000001F062
:1053C000BAFC002C09D18DF8106000235A1E03A9E5
:1053D000286800E0B1E001F0C9FBA2E19348C26A8D
:1053E000DDE9100101F08CF900280BDB0FB1052479
:1053F00097E18DF810A000235A1E03A9286801F038
:10540000B5FB8EE1DFF824A2DAF83020DDE91001E7
:1054100001F076F9002820DBA7B18DF838608DF80F
:1054200039908DF831B0824800235F1E3A460CA9AE
:10543000006801F09BFB00233A461946D8F80000AB
:1054400001F079FC8DF810B08DF8116000235A1E20
:1054500003A9286801F08AFB63E1DAF83420DDE96A
:10546000100101F04DF900282DDBF7B1DAF85020DA
:10547000DDE9100102AB01F073F9C4B2ACB98DF8EB
:10548000386002980F9003208DF83100071F68489C
:1054900000233A460CA9006801F068FB00233A4655
:1054A0001946D8F8000001F046FC002C95D10320E5
:1054B0008DF810008DF8116000235A1E03A928688A
:1054C00001F054FB2DE1DAF83820DDE9100101F09C
:1054D00017F900288CDB07B3DAF85420DDE9100156
:1054E00002AB01F03DF9C4B2BCB98DF838608DF85B
:1054F000399002980F9004208DF83100471F4C48D6
:1055000000233A460CA9006801F030FB00233A461C
:105510001946D8F8000001F00EFC002C0CD1042034
:105520008DF810008DF811608DF8129000235A1E2E
:1055300003A9286801F01AFBF3E0D9F81420DDE98B
:10554000100101F0DDF8002874DBD9F87820DDE9DE
:1055500010016B4601F0ECF8C0B280BBD9F8A41082
:10556000009808F00DFF00B3D9F8A810009808F0D3
:1055700007FFE8B1D9F8AC10009808F001FFD0B1EE
:10558000D9F8B010009808F0FBFEC8B1D9F8B410F3
:10559000009808F0F5FEB8B1D9F8B810009808F0F6
:1055A000EFFEA8B10424BCB159E0ADF82CA0FAE795
:1055B000ADF82CB0F7E70320ADF82C00F3E777E067
:1055C0000420ADF82C00EEE70520ADF82C00EAE74A
:1055D0000620ADF82C00E6E7D9F87C20DDE91001C3
:1055E0006B4601F0A5F8C4B22CBBD9F8BC100098EA
:1055F00008F0C6FEA8B3D9F8C010009808F0C0FEA5
:1056000080B3D9F8C410009808F0BAFE58B3D9F89E
:10561000C810009808F0B4FE80B30DE0DC01002053
:10562000B0000020CC010020D0010020C0FD000807
:10563000200000204BE012E0D9F8CC10009808F0D0
:105640009FFE00B3D9F8D010009808F099FEF0B191
:10565000D9F8D410009808F093FEE0B10424F4B116
:1056600026E001E003E006E0ADF82EA0F7E7082011
:10567000ADF82E00F3E7ADF82EB0F0E7FFE7042019
:10568000ADF82E00EBE74020ADF82E00E7E78020D4
:10569000ADF82E00E3E71020ADF82E00DFE7CDF8DF
:1056A00028A0A44800235A1E0AA9006801F05EFA47
:1056B000D9F88020DDE9100101AB01F06DF8C0B22E
:1056C00068BBCDF828B00198ADF82C0029E0D9F8D6
:1056D0001820DDE9100101F013F800280DDB9DF81A
:1056E0000C0020F07F00C01C8DF80C0000235A1E17
:1056F00003A9286801F03AFA13E0D9F81C20DDE983
:10570000100100F0FDFF00280ADB0B208DF81800C7
:10571000894800235A1E06A9006801F027FA00E014
:105720000124002C0ED09DF80C0020F07F00401CBE
:105730008DF80C008DF8104000235A1E03A928682C
:1057400001F014FA13B0BDE8F08FB0B0012869D0B1
:105750007A4C7B4821780568012966D014350022EF
:105760000C21052001F06BF96168086000285ED00B
:1057700003220021012001F062F9E168086020B1F4
:1057800000231A46194601F0F1F9E0680068E0B319
:1057900001F0B4F8012001F04EFAA1680860A8B346
:1057A00000231A46194601F0C6FA01F0B3F8207832
:1057B00000F066FE2078634900F07EFE0DF10906D8
:1057C00017965027ADF804704FF0FF3A4FF00109DB
:1057D0000DF1040860680023524600682DA901F00D
:1057E000AAFA9DF8B400012824D0022835D0032855
:1057F000F0D1207801AA17A900F0D7FE8DF8080093
:105800000028E7D0BDF8040001E011E011E0C0F18C
:105810005000ADF806000023ADF8B0308DF8B2901E
:10582000002072E0454C103C93E70C3597E7FEE70B
:10583000FEE7FEE76A782078696800F04DFE287878
:105840000028C7D0207800F08DFEA06800231A46FB
:105850000068194601F08AF9BCE7207800F08DFE57
:10586000A068006801F009FA834601F087FF8345CC
:1058700006D0A068002352460068194601F05BFA82
:10588000207800F054FE207800F082FE1796ADF8E4
:1058900004709DF8BC2020782E9900F01DFE01F0C8
:1058A0002DF82E9868609DF8BC0068709DF8B500D2
:1058B000287001F02FF8287800288BD0207800F08D
:1058C00051FEA06800231A460068194601F04EF9FF
:1058D00080E708EB00025179202926D0092924D03D
:1058E0000A2922D00D2920D09DF8B21059B1BDF857
:1058F000B010521D01F1010C08EB8101ADF8B0C0F0
:10590000CA658DF8B230401CC0B2BDF806108142A5
:10591000DFD8BDF8B00020B1C1B2227818A8FFF7D7
:1059200095FCADF80470179654E753718DF8B2905A
:10593000E9E70000540000203C000020C4000020E3
:10594000DC0100203D52000808B50021009101282B
:105950000AD0F54800236A46C0681946006801F07D
:1059600099F90098C0B208BDEF487438F2E72DE904
:10597000F04107460D46144621E0B5F1005F10D214
:10598000642C01D9642600E0264607F11000324657
:105990002946804608F0C9FCA01B84B23544414624
:1059A00002E02946264600243878324600F02CFED4
:1059B000F86800235A1E0068194601F0BCF9002C53
:1059C000DBD1BDE8F0818AB0012839D0D64C002265
:1059D0000C210A2001F033F86168086098B30322B3
:1059E0000021012001F02BF8E168086020B10023BC
:1059F0001A46194601F0BAF8E068006828B3002397
:105A00001A46194601F097F92078C84900F05CFD64
:105A1000C74F4FF0FF38606800234246006807A96F
:105A200001F089F90025A94600269DF81C0000F028
:105A30007F0105291BD2DFE801F0091B44F0EF00CC
:105A4000B94C743CC3E7FFE7FEE7FEE7089D9DF80D
:105A50002600C00702D0BDF8240002E0089808F034
:105A600071FB1FFA80F99DF82600C0F3400639E16A
:105A700004F110052846F96800F0AAFE9DF8200000
:105A8000062813D2DFE800F0120306090C0FD7F83E
:105A9000D8100DE0D7F8DC100AE0D7F8E01007E0E6
:105AA000D7F8E41004E0D7F8E41001E0D7F8EC10E0
:105AB000284600F0A2FE284608F044FB1FFA80F9B1
:105AC00010E104F11005000601D4B96800E079681E
:105AD000284600F07DFE2846396900F07DFE9DF8DD
