:020000040800F2
:1000000058680020590200086102000863020008D5
:10001000750200087702000879020008000000005D
:10002000000000000000000000000000CD010008FA
:100030007D0200080000000001020008074A0008D5
:100040008302000883020008830200080000000009
:10005000000000007B4800088302000883020008BB
:1000600083020008000000008302000883020008E9
:10007000830200080000000083020008BF3F000860
:1000800083020008830200080000000083020008C9
:1000900083020008000000000000000000000000D3
:1000A00000000000000000000000000083020008C3
:1000B000830200088302000883020008830200080C
:1000C00000F002F800F073F80AA090E8000C8244F7
:1000D0008344AAF10107DA4501D100F068F8AFF2D4
:1000E000090EBAE80F0013F0010F18BFFB1A43F016
:1000F0000103184718FE000038FE00000A444FF0C4
:10010000000C10F8013B13F0070408BF10F8014B76
:100110001D1108BF10F8015B641E05D010F8016BBB
:10012000641E01F8016BF9D113F0080F1EBF10F81F
:10013000014BAD1C0C1B09D16D1E58BF01F801CB42
:10014000FAD505E014F8016B01F8016B6D1EF9D5C5
:100150009142D6D3704700000023002400250026DA
:10016000103A28BF78C1FBD8520728BF30C148BF1A
:100170000B60704766290CF05781642909F03C83B5
:1001800063290AF00E80002070471FB50AF00CF9B1
:100190000400002000210BF009FC401C60600020DE
:1001A00000210BF019FCE0601FBD10B510BD0AF076
:1001B0002DFA1146FFF7E9FF01F02FFB0AF09EFC34
:1001C00003B4FFF7F2FF03BC0AF0D2FE1A4B196822
:1001D0000868B0E8F00F80F309884FF0000080F362
:1001E00011884EF00D0E70470000000003480068B3
:1001F000006880F3088862B600DF00BF08ED00E009
:10020000EFF309800C4B1A6820E9F00F106008B575
:100210004FF0200080F3118805F001F94FF0000045
:1002200080F31188BDE8084019680868B0E8F00F4D
:1002300080F30988704700BFB0010020EFF3118000
:100240004FF0200181F31188704780F311887047C7
:10025000EFF30580704700000D4880470D480047C8
:10026000FEE71EF0040F0CBFEFF30880EFF30980E8
:1002700003F034BEFEE7FEE7FEE7FEE7FEE7FEE73B
:10028000FEE7FEE704480549054A064B70470000B3
:100290000B030008C10000085862002058680020C5
:1002A000586400205864002010B51F4BD8681F4CBC
:1002B0008007002801DA601000E02046D968C907ED
:1002C00000D04008D968490704D55968C1F3032113
:1002D000491C4843D968164AC1F3012139B10129A3
:1002E00007D002290DD049F64040106010BD1460BF
:1002F00010BDD968C1F30311491CB0FBF1F01060C7
:1003000010BD4FF40040106010BD07480949C1619D
:10031000C1680021C16042684160826881600269F1
:10032000016142694161BFE70000024000127A00AA
:100330000000002010000008002101604160016100
:100340004161416203210162704710B54A88026130
:100350000A894B890C881A448B8903EB04231A44BD
:10036000CB881A440260CA8989881144416010BD53
:10037000002181800722C280418101818181022286
:10038000428001807047002904D0416841F0020199
:100390004160704741684FF6FD72114041607047FF
:1003A000002A03D042690A434261704742698A4386
:1003B000426170478069814301D00020704701206D
:1003C0007047C069084201D0012070470020704783
:1003D000026A0A4302627047002A03D0426A0A4353
:1003E00042627047426AC94389B20A40426270471A
:1003F00081607047806880B27047C068084201D051
:10040000012070470020704710B50B4BDA6A0B4C87
:10041000A04205D142F0807020F0FF020A4308E0BC
:10042000074CA04205D142F0007020F47F4040EA22
:100430000122DA6210BD000000000240000004400A
:1004400000000A400021C1600161416001608160DB
:1004500041618161C16170472DE9FF4FD0F804907F
:100460008768D0F80CA0D0F81080D0F814C082694A
:100470000192C26900920022012303254FF0011668
:100480000C885EE05FEAC47B56D091F802B029EA9E
:1004900003090BFA02FB49EA0B0991F808E04FEA5D
:1004A000420B0EFA0BFEAF434EEA0707CDF80CB035
:1004B00091F80AB02AEA030A0BFA02FB4AEA0B0A8D
:1004C00091F803E002F1100B0EFA0BFECDF808B024
:1004D00091F804B028EA060848EA0E080BFA02FB75
:1004E00048EA0B0891F805E0DDF808B02CEA060CA4
:1004F0000EFA0BFE91F806B04CEA0E0C0BFA02FB5A
:100500004CEA0B0C91F809E0DDF80CB00EFA0BFE8A
:10051000DDF804B02BEA050B4EEA0B0ECDF804E033
:10052000DDF800B091F807E02BEA030B0EFA02FEAB
:100530004BEA0E0BCDF800B05B00AD007600521C0C
:100540006408002C9ED14749884202D14FF01F0118
:1005500001E04FF0000129EA0109C0F8049002D13E
:100560004FF01F0101E04FF0000127EA010787600B
:1005700002D14FF01F0101E04FF000012AEA010A09
:10058000C0F80CA002D14FF01F0101E04FF00001B4
:1005900028EA0108C0F8108002D14FF01F0101E0E5
:1005A0004FF000012CEA010CC0F814C002D14FF04A
:1005B0001F0101E04FF00001019A22EA010282616D
:1005C00002D14FF01F0101E04FF00001009A22EA32
:1005D0000102C261BDE8FF8F4FF6FF71018000216B
:1005E0008170C170017141718171C171017241727B
:1005F000817270470068084201D0012070470020D6
:100600007047006870470368164A904201D11F2264
:1006100000E0002293430B43036070470368114AD4
:10062000904201D11F2200E000220A43934303605D
:10063000704710B503680B4CA04201D11F2400E0A5
:100640000024A34312B10B43036010BD8B4303602E
:1006500010BD044A904201D11F2200E000229143C4
:100660000160704700000B400021C16001604160E3
:100670008160016241628162C162016341638163A1
:10068000C163016641668166C16601614161816144
:10069000C161016741678167C16701644164816429
:1006A000C164016541658165C165704710B50A88FF
:1006B00002604A8842608A888260CA880B898C8975
:1006C0001A444B8923441A44CB891A44C2604A8A8B
:1006D0008B8A1A44CB8A098A03EB01111144016504
:1006E00010BD0021018041808180C1800181418154
:1006F0008181C181018241828182C1827047C26849
:10070000002902D042F0010101E022F00101C160A4
:100710007047016070474160704781607047C368EF
:1007200023F002031A44C26081607047006880B2FF
:100730007047C26822F470621144C1607047C26899
:1007400022F030021144C1607047C26822F0C0023A
:100750001144C1607047C26822F008021144C160B0
:10076000704710B5046D24F0FE04114401EB031131
:100770002144016510BD026D22F0F00202EB01116F
:1007800001657047026D22F00C021144016570474B
:10079000026D22F00202114401657047026D22F0E1
:1007A0000102114401657047C0680007002801DBA1
:1007B0000020704708207047C0684007002801DB10
:1007C000002070470120704710B54A88CB884C89BB
:1007D0001A440B8923441A448B8902EB8312CB8978
:1007E0001A440B8A1A448B88002B01D002F5005260
:1007F0000B8800EB83031A62488ACA8A1044898AEC
:1008000001B1001D186610BD00210180418081806A
:10081000C180018141818181C181018241828182C6
:10082000C182704700EB81000261704700EB8100DC
:100830000267704710B500EB81000146046E24F09A
:100840000804234403660846026110BD10B500EB9E
:1008500081000146046E24F0080423440366084620
:10086000026710BD00EB8100006980B2704700EBA9
:100870008100006F80B2704700EB8100203001687A
:10088000002A02D041F4807101E021F480710160FE
:10089000704700EB8100016A21F4005111440162AC
:1008A000704700EB8100016A21F48051114401621C
:1008B000704700EB8100016A21F46061114401621C
:1008C000704700EB8100016A21F0C00101EB821149
:1008D0000162704700EB8100016A21F03001114490
:1008E0000162704700EB8100016A21F00F011144A1
:1008F0000162704700EB8100006A4004002801DBC0
:10090000002070470120704700EB8100016E21F04C
:10091000030111440166704700EB810060300168FB
:10092000002A02D041F0040101E021F0040101603D
:10093000704710B5CA884B880C8902EB03128B886C
:100940009B0003EB04331A444B8902EB83228B890F
:1009500002EB03220B8800EB830002630A8A4B8AB6
:10096000C9891A4402EB0121016410BD00214180B4
:100970008180C180018141818181C1810182418267
:10098000704710B5029C00EB8100016B21F01F0144
:10099000240104EB82021A441144016310BD00EBF0
:1009A0008100016B21F00C0101EB820101637047B2
:1009B00000EB8100016B21F00301114401637047DA
:1009C00000EB8100016B21F0100101EB02110163CA
:1009D000704710B5029C00EB8100016B21F4F851C7
:1009E000240304EB822202EB03221144016310BDB5
:1009F00000EB8100016B21F4406101EB8221016376
:100A0000704700EB8100016B21F4407101EB022182
:100A10000163704700EB8100016B21F4805101EB11
:100A200002310163704710B5029C03EB022222449D
:100A300000EB8100026410BD406D7047406D0842BC
:100A400001D00120704700207047426D8A43426503
:100A50007047C36D002A01D00B4300E08B43C36590
:100A60007047836D002A01D00B4300E08B43836500
:100A70007047426D806D02400A40002A01D001207B
:100A800070470020704710B50F4B5A6A0F4CA042B8
:100A900005D122F0FF00084340F0807212E00C4CB8
:100AA000A04206D122F47F4040EA012040F00072CB
:100AB00008E0084CA04205D122F47F0040EA014042
:100AC00040F080625A6210BD000002400000074002
:100AD00000800740000008403C480021816001611F
:100AE0000122826101604160704738498A68037958
:100AF0009B06002B02DA42F0200201E022F02002E5
:100B00008A6000680860000A486070470021416000
:100B10000121016070472D4A9168002802D041F000
:100B2000800001E021F0800090607047274A9168C2
:100B3000002802D041F0400001E021F04000906028
:100B4000704722480069C00701D00120704700208B
:100B500070471E48816941F00101816170471B4A5D
:100B600020F00100084350619020906170471749C0
:100B700048611020886170471448402181617047A6
:100B8000124940F02000886170471048C068C0B228
:100B900070470E488169006941EA0020C14340EA7C
:100BA0000140704700B50246FFF7F3FF824301D0D2
:100BB000002000BD012000BD00B50246FFF7E9FF9F
:100BC000104201D0012000BD002000BD0000054002
:100BD000D1480021016041608160C16001614161D3
:100BE0008269C269016241628162C1627047826842
:100BF000016803791144C26802EB0372114402696F
:100C000011444269008B114401EB4050C349C24A70
:100C100013688B43184410607047002101604160E5
:100C20008160C1600161416181617047BA4A1168A8
:100C300021F0F07101EB40501060704730B5B649BB
:100C40000A68B64BDB1C1A40D0E900342344D0E9D3
:100C5000024504EB0514234444692344C469234436
:100C6000446A234490F8284003EB446313444A68E1
:100C700022F40032048C02EB44420B604A60028B87
:100C80000A61428B8A600069886230BD30B5A24932
:100C90004A68A34B1A40D0E900342344D0E9024506
:100CA00004EB0514234444692344C4692344048C9D
:100CB00003EB8443446A234490F8284003EB4463E5
:100CC0001A444A60028B4A61428BCA600069C8625A
:100CD00030BD0021016041608160C16001614161FE
:100CE00001834183C16101624162816270478A4A26
:100CF0001168002802D041F0010001E021F001005C
:100D000010607047844A5168002802D041F0010009
:100D100001E021F00100506070477F4A116821F422
:100D2000F87101EB0010106070477B4A516821F4A4
:100D3000F87101EB00105060704777498862704786
:100D40007549C8627047744B1A6822F402720844ED
:100D5000104418607047704B5A6822F402720844BD
:100D60001044586070476C4A116821F0080108442B
:100D700010607047684A516821F0080108445060CB
:100D80007047654A116821F400710844106070478B
:100D9000614A516821F4007108445060704710B5F1
:100DA0005D4B1C6824F4806422441A6018619960C9
:100DB00010BD10B5584B5C6824F4806422445A601E
:100DC0005861D96010BD5449086170475249486163
:100DD00070475149886070474F49C86070474E4816
:100DE000016841F00201016070474B48416841F0E1
:100DF0000201416070474848806970474648C069B1
:100E000070474548016A406A01EB0040704742481C
:100E1000006A70474048406A704700B50246FFF7D5
:100E2000F0FF104201D0012000BD002000BD3A4972
:100E3000096A014201D001207047002070473649FD
:100E4000496A014201D001207047002070473248B2
:100E5000016A21F00101016270472F48416A21F0C7
:100E60000101416270472C48016A21F002010162D0
:100E700070472948416A21F002014162704770B50C
:100E8000254E336A756A84008004020C002904D060
:100E900042EA030045EA144103E023EA020025EA9E
:100EA00014413062716270BD1B4B1A6A002902D076
:100EB00042EA800001E022EA800018627047164B87
:100EC0005A6A002902D042EA800001E022EA80004A
:100ED0005862704700B50246FFF793FF02EA90019F
:100EE000014009B1012000BD002000BD0A49096A86
:100EF00000EA91000840002801D00120704700203E
:100F000070470549496A00EA91000840002801D06D
:100F10000120704700207047008008400000FFF16A
:100F20000300FBF100210163C162416090228261F4
:100F300001624162816202224263816381644FF4F3
:100F400040710163704770B586B004460D4601A834
:100F500000F086FB01986B49896A6B4B01229C4229
:100F600005D101F007018A40B0FBF2F007E0674BC2
:100F70009C4204D1C1F302218A40B0FBF2F02A68FE
:100F80009108B0FBF1F3990903F03F03800003EBF4
:100F90008116B0FBF6F0801AC001B0FBF2F0022817
:100FA00002D9002006B070BD6162A362E06AA98820
:100FB000EA886B8911432A891A4311430143E1628C
:100FC000206B4FF680718843A9890143216301207A
:100FD000E8E74FF41651016000218180C180018152
:100FE00041814FF4407181817047002904D0016B29
:100FF00041F0010101637047016B4FF6FE72114031
:1010000001637047002A03D0826B0A4382637047F2
:10101000826B8A4382637047C06B814301D000209A
:10102000704701207047006C084201D001207047D2
:1010300000207047426C0A434264704742EAC10193
:1010400041637047002A03D0826C0A438264704770
:10105000826CC94389B20A4082647047C1F30801B7
:1010600001607047006880B27047002904D0C16AEF
:1010700041F00101C1627047C16A4FF6FE7211432F
:10108000C162704730B585B004460D46042D08D1C5
:10109000684600F0E5FA00984FF4E111B0FBF1F07A
:1010A0002062206B2843206305B030BD002904D0A6
:1010B000016B41F0020101637047016B4FF6FD7255
:1010C0001143016370478069084201D001207047D5
:1010D0000020704710B50B4B9A6A0B4CA04205D10B
:1010E00042F0807020F0FF020A4308E0074CA04263
:1010F00005D142F0007020F47F4040EA01229A625C
:1011000010BD0000000002400000034000800340CA
:1011100010B583680268B3F1406F26D08469641EFD
:101120009B0E9C4022440A604269042A1FD0C26878
:10113000B2F1404F1FD083695B1E920F934042680B
:101140001A444A60D0E903231A43446A836823435C
:101150001A43036A1A43C3691A43836940695B1ED1
:1011600042EA031202438A6010BD0A60DCE742686B
:101170000C324A60E6E742684A60E3E770480021C3
:10118000416081604161491EC1614162C162416348
:10119000C1630121C1647047002905D06849C9684D
:1011A00001EB00111046B3E7664901EB0011104650
:1011B000AEE701EB00111046AAE770B58AB005460C
:1011C0000C465F4E5F48B06021680091F16801EB0A
:1011D000051101914FF000610291090103914FF057
:1011E00008510491042105916168890006914FF42A
:1011F00000410791A1680891E168099100EB051190
:101200006846FFF785FF01207060607D0122AA40DB
:10121000012809D0F2617262B2627263207D0128F6
:1012200004D0F2630AB070BDB261F4E7B263F9E7CB
:1012300070B506460C46424D4249A9602068002818
:1012400003D001EB0611FFF763FF606820B1E96886
:1012500001EB0611FFF75CFF01206860607B012253
:10126000B24001280AD0EA616A62AA62A07B38B162
:101270002A63207B012805D0EA6370BDAA61F3E7E9
:101280006A63F6E7AA6370BD002101604160816076
:101290000173417381737047002101604160816077
:1012A000C160016101754175704701228240244887
:1012B000012901D0C26270478262704701218140DA
:1012C0001F48416170471E490120C86470471C4A8D
:1012D000002907D0D16801EB00100089C0F3091084
:1012E000401C7047916801EB0010F6E710B5012231
:1012F0008240134CD2B2092920D2DFE801F01F0549
:10130000090D101316191C00206800F0010010BD13
:10131000E06C00F0010010BDA06A104010BD206A12
:10132000104010BD2069104010BDA069104010BDD4
:10133000206B104010BDA06B104010BD002010BDF0
:101340000080024000040020FE4A002903D0D16939
:101350000143D1617047D1698143D1617047F94A36
:10136000D16821F440710143D1607047C0F342114C
:10137000012909D0F449C96B00F01F0201209040F7
:10138000084204D001207047EE490968F4E70020C4
:10139000704708B5002000904FF4C0631720FFF796
:1013A000E5FF0099491C00910099994201D200285B
:1013B000F4D01720FFF7DAFF08B1012008BD0020A4
:1013C00008BDE2490860704700B50120FFF7F9FF4A
:1013D000FFF7DFFF0020FFF7C2FFDA48C1680021F6
:1013E000C16042684160826881600269016142694E
:1013F000416182698161D649C16100BD00B5FFF7D5
:10140000E3FF0121C806FFF79FFFCF48C16B41F4FE
:101410008101C163C16B01F48101C16300BDC94990
:101420008A6822F003028A60012806D0022803D1CC
:10143000886840F0030088607047886840F00100C9
:101440008860704708B5002000904FF4C0632220E8
:10145000FFF78CFF0099491C00910099994201D235
:101460000028F4D02220FFF781FF08B1012008BD39
:10147000002008BDB449CA6B22F00302CA630128E8
:1014800006D0022803D1C86B40F00300C863704740
:10149000C86B40F00100C863704708B50020009099
:1014A0004FF4C0630D20FFF761FF0099491C0091C4
:1014B0000099994201D20028F4D00D20FFF756FF81
:1014C00008B1012008BD002008BD9F4AD16B21F062
:1014D0007C5141EA0060D06370479C491C39086028
:1014E0007047994AD16B21F4F81141EA0040D0636A
:1014F000704708B5002000904FF4C0631520FFF737
:1015000035FF0099491C00910099994201D20028A9
:10151000F4D01520FFF72AFF08B1012008BD0020F4
:1015200008BD884AD36823F003030343D36050689F
:1015300020F4706040EA012050608648D0F888109E
:10154000002904D0012140F88C1F00210160704760
:1015500081490860704781490860704708B50020DC
:1015600000904FF4C0632120FFF700FF0099491C51
:1015700000910099994201D20028F4D02120FFF770
:10158000F5FE08B1012008BD002008BD6D4AD168F4
:1015900021F0F00141EA0010D0607047694A1369F8
:1015A00023F0030303431361506820F0F00040EA86
:1015B000011050606748D0F88010002904D0012144
:1015C00040F8841F0021016070476549086070473A
:1015D00064490860704708B5002000904FF4C0636C
:1015E0002020FFF7C3FE0099491C00910099994201
:1015F00001D20028F4D02020FFF7B8FE08B1012066
:1016000008BD002008BD5849086070475749086068
:1016100070474C4A516921F03301014351617047D1
:10162000484A516921F4706141EA002050617047D5
:101630004F4908607047434A916921F0F00141EA3F
:101640000010906170474B49086070473D4A9169AE
:1016500021F00F01014391617047474908607047CD
:101660002DE9F04FDFF8ECB0DBF88411DFF80CA1C6
:1016700000294FEA4A0501D0514600E02946DBF82F
:10168000802102B149080B46DBF88821DFF8B4C09D
:101690002AB1DCF80420C2F30322521C5343DCF8C5
:1016A0000C204FF40048C2F3012249F640490127BB
:1016B00052B1012A0AD0022A1BD0C0F80090DBF8F0
:1016C0000422CAB1524618E00560F8E7DCF80C20A5
:1016D0004FEA1212120701D41A4608E0DCF80C2077
:1016E000C2F30212521C07FA02F2B3FBF2F20260DA
:1016F000E5E7C0F80080E2E72A46DBF8004204B1E3
:1017000052081446DBF808622EB1DCF80460C6F318
:101710000316761C74432646DBF810B2BBF1000FAB
:1017200000D076084660DCF8186036095FEA067B70
:1017300007D506F0070B0BF1010B07FA0BF6B5FB0B
:10174000F6F51DE00000024000800D40D807B043D0
:1017500010000008000040428801404288004042DA
:1017600008024042800040422002404210024042B3
:10177000B4024042240340422003404200093D009D
:10178000C560DCF818605FEA067B07D506F0070B3A
:101790000BF1010B07FA0BF6BAFBF6FAC0F810A032
:1017A000DCF8146016F0030604D0012E1AD0022EC5
:1017B0001AD02146DCF81420C2F30112B2B1012A7A
:1017C00016D0022A00D02946DCF81420120A13078A
:1017D00005D502F00702521C9740B1FBF7F181607A
:1017E000BDE8F08F1146E5E71946E3E74146EBE730
:1017F0004946E9E708B504226946002001F008FCE3
:101800000422694640F2FC7001F002FC524A009941
:10181000914201D040F0020008BD1FB501F03DFF2C
:1018200001F06FFF01F084F902F061F902F085F92F
:1018300002F0D5F901F0C1FF02F08CF902F0C4F812
:1018400002F032F901F041FD00F0F1F901254348C1
:10185000E90300240160502002F0B5FA552002F09F
:10186000B5FA3F48046044603E480570CDE9005435
:101870000294002380223CA13D48039403F0DCFB4A
:101880003C48CDE901040226002380223AA13D48CC
:101890000096039403F0D0FB00940194029400237B
:1018A000802239A13A48039403F0C6FB0320CDE916
:1018B000000402940023802236A13948039403F0E7
:1018C000BBFBCDE9005402940023802235A13848A7
:1018D000039403F0B1FBCDE900640294002380225D
:1018E00034A13548039403F0A7FBCDE9005401234C
:1018F0001E020294324631A13348039403F09CFB4C
:10190000CDE9005402940123324630A132480394B9
:1019100003F092FBCDE900540294022332462FA13A
:101920002948039403F088FBCDE900540294022374
:1019300032462DA12848039403F07EFBCDE90054E4
:101940000294002380222BA12E48039403F074FB01
:1019500003F05CFEFEE700001122334400E100E0EA
:10196000800000207000002047554920746F7000EF
:101970002F2D00082C000020436F6E766572746571
:1019800072000000D9210008536572766963650012
:101990007134000844697370617463686572000093
:1019A0006D290008627574746F6E7320746F700017
:1019B0004540000841444300091A0008554152546B
:1019C00031205258000000007B4500085541525418
:1019D000312054580000000051470008554152542E
:1019E00032205258000000005541525432205458C1
:1019F00000000000536F756E642064726976657232
:101A0000000000004735000808B500220421052029
:101A100003F085F8604C606180B103220021012051
:101A200003F07DF8A06120B100231A46194603F0A7
:101A300005F9A06918B14FF0FF3534E0FEE7FEE785
:101A40000320207000232A461946A06903F0ACF950
:101A50002089800800EB800081B2A1806089800825
:101A6000E0804E4A126F526B927B520707D500EB13
:101A700080004FF6FF7202EA4000E08002E000EBD7
:101A80008000E080E08841434FF47A7091FBF0F0F1
:101A9000E0600620206142483F4900231A46103189
:101AA000006803F0CBF800232A466946606903F01A
:101AB0007BF900980128F6D1C2E770B5364C0022B8
:101AC0002146607801250426C978032838D005DC32
:101AD00050B101280ED0022804D12AE0102840D0AD
:101AE000112845D0627070BD2078A0700028FAD00F
:101AF000657070BDA07800F00501012908D081074C
:101B00000DD520F00200A07010206070628170BDC1
:101B100020F00500A07002206070228170BD62700C
:101B20002270A069BDE8704000231A46194603F0F0
:101B3000EAB80420FFF7F1F8E6700320607070BD8A
:101B4000042904D2FFF757F9218908442081E0785D
:101B500028B1FFF744F9E078401EE07070BD657071
:101B600070BD0720FFF7D9F8E6701120607070BDD6
:101B7000042904D2FFF73FF9618908446081FFF727
:101B80002EF9E07828B1FFF72AF9E078401EE070DE
:101B900070BD657070BD0000040000202C0800209E
:101BA0004C00002070B500244A4D686820F0C00049
:101BB00068600A2000F0D5FF0646474800688106A5
:101BC00000D41024400701D444F480742868C1076D
:101BD00001D144F00104810701D444F0020441071B
:101BE00001D444F00404C10601D444F00804800682
:101BF00001D444F02004304600F0B8FF0028FAD1A8
:101C00002868696841F0C0016960010601D444F0A8
:101C10004004400601D444F080043048048070BD84
:101C20002F48002141808180C180018170470020C0
:101C30002B4A00210A3222F81010401CC0B2092899
:101C4000F9D3EDE72DE9F041FFF7ACFF2348008819
:101C500020F00F05FFF7E4FF0021214C01274FF68C
:101C6000FF7C04F10A0607FA01F082B236F811008F
:101C70000CEA4000154201D040F0010000F00303DF
:101C8000012B04D0022B06D0032B19D111E063885D
:101C90001343638014E0A3881343A380C0F3880335
:101CA000A3F58078B8F1FF080AD0E3881343E380F6
:101CB00006E0C0F38803FF2B02D12389134323815D
:101CC00026F81100491CC9B20929CCD32580BDE8EA
:101CD000F081000000000B4000800A40200000203E
:101CE000000800201E48006840F30000401C7047B8
:101CF0001C48006840F38020401C70471A4A0128A5
:101D000003D004211046FEF789BC04211046FEF7DB
:101D10007ABC15480068C0F380007047124A012859
:101D200003D008211046FEF779BC08211046FEF7C3
:101D30006ABC0B4A012803D002211046FEF76EBC94
:101D400002211046FEF75FBC084A012803D040215B
:101D50001046FEF763BC40211046FEF754BC00005D
:101D600000800A4000000B4000800E4000800C40C4
:101D700010B5002300241470847BE40706D0C488C7
:101D80008C4203DB21460AB102241470847BA40731
:101D900006D504898C4203DC21460AB10124147063
:101DA00044888C4203DB21460AB1082414708488DD
:101DB0008C4203DC21460AB10424147002888A4252
:101DC00001D001800123184610BD70B5049C002588
:101DD000002626704689964203DB32460CB108265F
:101DE00026708689964203DC32460CB104262670A2
:101DF00011B101290FD01CE0C188914204D1817B2F
:101E000001F00101994214D0C280817B63F300018B
:101E1000817301250DE00189914204D1817BC1F3D9
:101E20004001994205D00281817B63F341018173B6
:101E30000125284670BD10B501280AD058B1FB48CD
:101E4000006F0024801CFFF793FF00B1012420469F
:101E500010BDF648F5E7F5483830F2E7F8B5054625
:101E6000069F012D12D09DB1F048006F0446002658
:101E7000A01C0097FFF7A9FF30B161880022284617
:101E8000FFF7D9FF40F002063046F8BDE748EDE71E
:101E9000E6483830EAE770B515461A4601280ED0F4
:101EA00078B1E248006F79B101290FD0406B00246E
:101EB0002946FFF75DFF00B10124204670BDDB48D5
:101EC000F1E7DA483830EEE71230F0E72230EEE79B
:101ED000F8B50E46114605461A46DDE90630012DD5
:101EE00016D0BDB1D14C246FBEB1012E17D0646B9A
:101EF000002700902046FFF768FF38B122880023B2
:101F000031462846FFF7C7FF40F002073846F8BDC4
:101F1000C64CE9E7C54C3834E6E71234E8E722342A
:101F2000E6E710B502EBD2725210012A03DA012261
:101F300008241C7007E0FA2A03DDFA2204241C702E
:101F400001E000241C70B94B75331C7860F3000469
:101F500061F341041C70A3F8012010BD017802292F
:101F600004D001290AD049B100207047AF49096F58
:101F7000097801F0010101700120704701207047CC
:101F80000178022904D061B101290AD000207047EC
:101F9000A649096F496B897BC1F38001017001205B
:101FA000704701207047002803D0012801D000208D
:101FB00070470120704708B54FF40031012813D055
:101FC000022811D0042811D008280FD04810009002
:101FD000009840F032000090954800231A46694668
:101FE000006802F02BFE08BD0091F1E70091EFE7D9
:101FF00008B5904800908E4800231A46694600684C
:1020000002F01CFE08BD08B58B48009088480023EC
:102010001A466946006802F011FE08BD70B5834C8F
:10202000217841F0010121F0020141F0010121F08C
:102030000201217041F2883161800021A18042F2C9
:102040001072E28021816281A181E281227C22F0F2
:10205000010222F00202227494F8202022F00405EA
:102060004FF47A636382A18244F62062E282218384
:102070006283A183E28325F0010525F0020584F83F
:10208000205094F8305045F004066384A184550034
:10209000E58421856585A185E58526F0010525F086
:1020A000020584F8305004F11205656394F8385045
:1020B00025F0010525F0020584F8385042F6E06568
:1020C0006587A187E287A4F84010A4F84220A4F80D
:1020D0004410A4F8462094F8485025F0010525F056
:1020E000020584F8485094F8585025F004055E1015
:1020F000A4F84A60A4F84C10A4F84E20A4F850109C
:10210000A4F85220A4F85410A4F8562025F0010594
:1021100025F0020584F8585094F8685045F00405FD
:10212000A4F85A30A4F85C10A4F85E20A4F860105B
:10213000A4F86220A4F86410A4F8662025F0010138
:1021400021F0020184F8681004F14A01E16694F874
:10215000751041F0010121F0020184F8751005218C
:10216000A4F87610012829D004F13800206700F087
:102170000EFB00F0C4FA0028FBD0206F007800F0BE
:102180000100FFF7CBFD206F406B807BC0F3800028
:10219000FFF7CFFD206F408800F0A4FA206F406B5E
:1021A000817B0088C1F3800100F0A1FA206F0078E4
:1021B000BDE87040C0F34000FFF7C6BD1B48D5E73F
:1021C0000A220A7004224A7002780A714078487123
:1021D0000020C8718871704786B000220C2105204C
:1021E00002F09DFCDFF854A0CAF8000050B30020B4
:1021F00003F03CF90021DAF8000002F05FFC0B4D1F
:102200000F4E0A4C03AF4FF0FF09103D4FF0020B89
:102210004FF0000800235A1E03A9DAF8000002F06C
:10222000C3FD9DF80C000B28F4D20CE02C08002014
:102230005800002034000300340002002400002075
:102240004000002007E0DFE800F0FDFCFBFA073764
:1022500075B7F9F8F700FEE7381DFFF77FFE98B174
:102260009DF8100002AA0599FFF7E5FDC0070DD003
:10227000206F9DF81010027802F00102914205D102
:10228000408800F02FFA01E0CDF80890F84903A843
:10229000FFF796FF0120E8719DF81010287A61F38E
:1022A000010028729DF80800A87100231A46F04921
:1022B000306802F0C3FCADE7381DFFF74FFEE8B110
:1022C0009DF81100FFF76FFEC0B102A800909DF8C5
:1022D00012309DF811109DF81000059AFFF7BEFD11
:1022E000C0070DD0206F9DF81010027802F0010297
:1022F000914205D1408800F0F5F901E0CDF8089051
:10230000DB4903A8FFF75CFF0320E8719DF810107C
:10231000287A61F301009DF8111061F3051028720D
:102320009DF80800A87100231A46D149306802F0D0
:1023300085FC6FE7381DFFF711FE08B3781DFFF726
:102340001FFEE8B19DF811109DF8100002AB059A30
:10235000FFF7A1FDC00715D0206F9DF8101002787F
:1023600002F0010291420DD1406B9DF81120817B5A
:10237000C1F380018A4205D1008800F0B8F901E07C
:10238000CDF80890BA4903A8FFF71AFF85F807B0FF
:102390009DF81010287A61F301009DF8111061F387
:1023A000830028729DF80800A87100231A46B049DE
:1023B000306802F043FC2DE7381DFFF7CFFD58B31E
:1023C000781DFFF7DDFD38B39DF81200FFF7EBFD38
:1023D00010B302A89DF81310CDE900109DF812204B
:1023E0009DF811109DF81000059BFFF771FDC007C7
:1023F00012D0206F9DF81010027802F00102914275
:102400000AD1406B9DF81120817BC1F380018A4283
:1024100002D1008800F06BF9CDF80890944903A828
:10242000FFF7CEFE85F807B09DF81010287A61F30B
:1024300001009DF8111006E033E1DDE080E013E0DB
:1024400018E1F1E03DE161F383009DF8121061F3C2
:10245000051028729DF80800A87100231A468449C7
:10246000306802F0EBFBD5E6381DFFF777FD00285A
:10247000A1D0216F9DF81000097801F00101884278
:1024800002D1FFF7C0FDC5E694F87400012807D11A
:1024900000F07DF984F8748002E0012002F052FF20
:1024A00000F02DF90028F8D09DF8100000F02CF96C
:1024B000102804D000F06BF9FFF7A5FDAAE69DF8FF
:1024C0001000012803D06A484830206705E06848BA
:1024D0001030FAE7012002F035FF00F010F9002873
:1024E000F8D0206F406B807BC0F3800000F023F9B0
:1024F000102804D000F04BF9FFF785FD8AE6206F25
:10250000408800F0EFF8206F406B817B0088C1F3BA
:10251000800100F0ECF8206F0078C0F34000FFF776
:1025200013FC534903A8FFF74BFE0620E87185F81A
:10253000068000231A464E49306802F07FFB69E6A8
:1025400094F8740001281DD0381DFFF707FD0028FE
:1025500089D0781DFFF714FD002884D0206F9DF8E6
:102560001110426B927BC2F38002914210D100782D
:102570009DF8101000F00100814209D10420FFF7FE
:102580001AFD47E6FFF73FFD44E6012002F0DAFEC0
:1025900000F0B5F80028F8D09DF8110000F0CBF855
:1025A000102804D000F0F3F8FFF72DFD32E69DF877
:1025B0001100F0B1206F2230216F4863817B0088C9
:1025C000C1F3800100F093F8294903A8FFF7F8FD53
:1025D0000520E8719DF81010287A61F30100287237
:1025E00085F8068000231A462149306802F026FB50
:1025F00010E6206F1230DFE79DF811109DF81000F3
:1026000002AB059AFFF78DFC194903A8FFF7D8FD27
:102610000720E8719DF80800A87100231A461449A4
:10262000306802F00BFBF5E5CDF8088094F87400F3
:1026300008B1022807D100F093F8102813D0FFF753
:10264000E2FCCDF808900A4903A8FFF7B9FD08207D
:10265000E8719DF80800A87100231A460449306803
:1026600002F0ECFAD6E5012084F87400EBE70000F4
:102670001C08002094F87400012801D100F087F8AC
:1026800084F87480144903A8FFF79AFD0820E871C4
:1026900085F8068000231A460F49306802F0CEFA0A
:1026A000B8E500F082F8102806D0FFF7ACFC00F087
:1026B0006EF884F87480ADE5FFF79AFC84F874B086
:1026C000A8E50120CAF80400054800231A4603497A
:1026D000006802F0B3FA9DE51C08002028000020E5
:1026E000180000200521B0FBF1F001F066BB0129C4
:1026F00000D140080521B0FBF1F001F061BB954825
:10270000007800F01000704710B5924C2178C9078E
:1027100001D0132010BD2178C90601D4112010BDAD
:1027200072B6FFF7FBFA62B6082060706078002886
:10273000FCD1102010BD10B5864C2178C90701D0FE
:10274000132010BD2178C90601D4112010BDFFF758
:10275000F0FA0820607060780028FCD1102010BDCD
:102760007C480178C90701D01020704701784907DB
:1027700001D5122070470178C90601D41120704795
:102780000121417041780029FCD110207047714827
:1027900001788907002901DA102070470221417071
:1027A00041780029FCD1102070476A480178C90798
:1027B00001D0112070470421417041780029FCD1DB
:1027C000102070472DE9F041624D28784FF4FA77D8
:1027D00010F00A0F01D0AF8003E0A88808B1401EB6
:1027E000A880A88848B100245B4E54B1E88808B19D
:1027F000401EE880012C08D015E0FFF773FA04466C
:10280000F2E7B6F87600E880F4E7A88958B996F8B8
:102810007500800707D55248012300224F49006800
:1028200002F071FAAF814FF04B08012C16D1E88805
:10283000A0B996F87500C00710D0287820F00100E4
:102840002870287840F006002870A5F808804648CF
:10285000012300224349006802F055FA68784007D6
:1028600003D5287820F004002870687880070DD5FB
:10287000287880070AD4287820F00100287028786A
:1028800040F002002870A5F8088010E06878C007C2
:102890000DD02878C0070AD12878400707D42878B7
:1028A00020F002002870287840F001002870687835
:1028B000000701D5322028816878C00600D56F81D5
:1028C000A878C00704D0287840F00800287006E0F7
:1028D000A878800703D5287820F008002870002009
:1028E0006870A870287810F00A0F03D00020FFF756
:1028F00005FA05E02878C00702D00120FFF7FEF9AD
:1029000000202978C90702D0698901B90120012C6A
:1029100003D096F87410022901D140F0020000F0B3
:1029200089FD288930B1401E2881287820F01000C8
:10293000287003E0287840F010002870688908B1FA
:10294000401E6881A889002801D0401EA881BDE8EA
:10295000F0810000300000202C08002044C5000851
:102960005800002028C50008240000208EB0002256
:1029700010210A2002F0D3F8DFF89881C8F800008F
:10298000002867D0FA2002F0DDFC04200290012527
:102990000395614C00231A4602A9206802F04EF903
:1029A0000020FFF73BFB5D48006802F09AFD6420C1
:1029B00002F0C8FC0320029000231A4602A92068F6
:1029C00002F03CF92E040196554F00231A4601A946
:1029D000386802F033F94FF0FF3900234A460AA95C
:1029E000D8F8000002F0E0F99DF82800072832D05E
:1029F000082840D009284BD00A28EED105200290A3
:102A00009DF82F008DF80C009DF8300000F00301B8
:102A10008DF80D10C0F381018DF80F10C0F3011077
:102A20008DF80E0000231A4602A9206802F006F96C
:102A30009DF82D00012851D002284FD00020019090
:102A40009DF82C00001F062840D2DFE800F0353545
:102A500035353F35FEE70295BDF82C00ADF80C008A
:102A6000BDF82E00ADF80E0000231A4602A920681A
:102A700002F0E4F8B1E702200290BDF82C00ADF8B6
:102A80000C0000231A4602A9206802F0D7F8A4E738
:102A90009DF82C008DF81C009DF829008DF81D0074
:102AA000DDE90C01CDE908011E4800231A4607A9FB
:102AB000006802F0C3F890E79DF82E0000B34FF4D1
:102AC00000300190019840F032000190019828B147
:102AD00000231A4601A9386802F0B0F89DF82D00CD
:102AE000012801D00228C5D18DF81050012809D045
:102AF0000D4800231A4604A9006802F09FF86CE70D
:102B00000196DFE7094800231A4604A9006802F08D
:102B100095F862E7400000204C0000202C000020C7
:102B20005800002024000020A00100209C0100206B
:102B300011480168C9070AD1016841F0807101603C
:102B40000E4800214160016841F0010101607047B9
:102B50000A4840687047081A704708494968081AC7
:102B600070470649496801EB4010704703494968BE
:102B7000081AC00F70470000FCED00E0001000E0F4
:102B80001A4908788006000E0870194A1368DB0598
:102B9000002B02DA40F0010008701068800503D5B0
:102BA000087840F002000870087800F00F000F2845
:102BB0000CD2DFE800F00B0C080B080B0B0C0C0B15
:102BC0000B080B080C004888401E48807047488856
:102BD000401C4880704705498A88488820F00300D7
:102BE0008880801A00B28010C8807047440000209E
:102BF00000000B40012802D0FB4840887047FA488B
:102C00003838FAE7012802D0F748C0887047F648FC
:102C10003838FAE7012802D0F34880887047F24834
:102C20003838FAE7012803D0EF4821B140897047CE
:102C3000ED483838F9E700897047012805D0EA489F
:102C400031B1007CC0F340007047E7483838F7E7FF
:102C5000007C00F001007047012804D0E24829B14F
:102C6000223000887047E0483838F8E71230F8E73B
:102C7000012804D0DC4829B1223080887047DA4826
:102C80003838F8E71230F8E7012804D0D64829B1DF
:102C9000223040887047D4483838F8E71230F8E7D7
:102CA000012805D0D04831B1223032B100897047B7
:102CB000CD483838F7E71230F7E7C0887047012869
:102CC00007D0C94841B1223042B1807BC0F34000F7
:102CD0007047C5483838F5E71230F5E7807B00F0DB
:102CE00001007047C048383890F8750000F00100C6
:102CF0007047BD48383890F87500C0F34000704701
:102D0000B9483838B0F876007047012805D0B64881
:102D1000406B807BC0F380007047B3483838F7E7DA
:102D2000B1483838006F007800F00100704786B075
:102D3000002208210A2001F0F2FEAC4C2060C0B154
:102D400002F081FEAA4804F057FD4FF0FF35002342
:102D50002A4604A9206802F027F804980C28F6D225
:102D6000DFE800F0162931081C38BE06060606CB3F
:102D7000EDE7FEE7FFF7D4FF03F0C5FAF0208DF88A
:102D8000080002A99A4804F07BFC04F0BFFCDEE7CF
:102D900004F075FD974800F0E6FAD8E7F1208DF8C9
:102DA000080005988DF8090002A9914804F068FC14
:102DB00004F0ACFCCBE7BDF81400C1B2BDF81600BE
:102DC00004F00FFEC3E7BDF914000028BFD004F0E3
:102DD00018FEBCE79DF814000828B8D2DFE800F020
:102DE00004050F1D3B646E73B1E79DF81500FFF7F6
:102DF00001FF01469DF8150003F059FAA7E79DF879
:102E000017109DF81500FFF727FF02469DF81710D1
:102E10009DF8150003F052FA99E79DF816109DF8F9
:102E20001500FFF7FFFE03469DF816109DF81500EC
:102E3000FFF703FF02469DF816109DF8150004F0F9
:102E400046FA9DF81500FFF7D5FE01469DF81500DE
:102E500003F02DFA7BE79DF816209DF817109DF8DA
:102E60001500FFF71DFF06469DF816209DF8171068
:102E70009DF81500FFF723FF034600969DF81620E6
:102E80009DF817109DF8150004F033FA9DF81710FF
:102E90009DF81500FFF7E0FE02469DF817109DF81B
:102EA000150003F00BFA52E79DF81500FFF72DFF10
:102EB00001469DF8150003F00EFA48E7FFF730FFD2
:102EC00003F021FA43E7FFF70DFF0346FFF711FF79
:102ED0000146FFF715FF0246184604F01FFA36E7D1
:102EE0004548008803F07CF94448008803F093F9D2
:102EF0004348006803F0ABF929E74248B0F9000005
:102F000003F0C1F923E7404A0923137003235370E8
:102F1000042313711072D1603C4800235A1E3A49B1
:102F2000006801F08BBE30B4374C092525700325AD
:102F300065700525257120726172A272E3603348C5
:102F400021460023006830BC5A1E01F077BE30B421
:102F50002D4B09241C7003245C7006241C7118720C
:102F60005972DA60294800235A1E006830BC26498D
:102F700001F064BEF0B4049D234C0926267003269C
:102F800066700726267120726172A272E372E56094
:102F90001E48214600230068F0BC5A1E01F04EBEB8
:102FA000194A0923137003235370082313711072F5
:102FB0005172164800235A1E1349006801F03EBEA4
:102FC00030B4114B09241C7003245C7008241C715C
:102FD00018725972DA600D4800235A1E006830BC1E
:102FE000094901F02BBE0000640800204C000020BD
:102FF00090520020345B0020080000200A000020CE
:103000001000002050000020A408002040000020F4
:103010002DE9F04707460D461446002607F4E06008
:10302000C00940F0A0084FF080494846FDF7C4FDB4
:103030000128FAD100214046FDF791FD4FF0007ABA
:103040005046FDF7B9FD0128FAD14FF00049484636
:10305000FDF7B2FD012805D00126FDF78DFD3046B4
:10306000BDE8F087F8B2FDF782FD57463846FDF718
:10307000A3FD0128FAD14846FDF79EFD012801D0A5
:103080000226EAE701214046FDF769FD3846FDF7D3
:1030900093FD0128FAD14846FDF78EFD012812D094
:1030A0000326DAE71CB10020FDF76AFD02E00820E4
:1030B000FDF766FD3846FDF77FFD0128FAD1FDF7E3
:1030C00064FD05F8010B2000A4F10104E4B2E9D18C
:1030D000C3E72DE9F04780460D461446002608F464
:1030E000E060C00940F0A0074FF080494846FDF776
:1030F00063FD0128FAD100213846FDF730FD4FF07D
:1031000000773846FDF758FD0128FAD14FF0004905
:103110004846FDF751FD012804D00126FDF72CFD9E
:1031200030469DE708F0FF00FDF721FD3846FDF72A
:1031300043FD0128FAD14846FDF73EFD012801D0A4
:103140000226EBE74FF400480DE02878FDF70FFD6D
:103150006D1C3846FDF730FD0128FAD14046FDF7D9
:103160002BFD012805D02000A4F10104E4B2ECD12C
:10317000D4E70326D2E710B54FF080442046FDF790
:103180001BFD0128FAD10021A020FDF7E8FC4FF03B
:1031900000742046FDF710FD0128FAD1FDF7ECFC84
:1031A0004FF00040FDF708FD012801D0002010BDC0
:1031B000012010BD70B50446012901D144F480748A
:1031C0009A4D02212846FDF718F90128F9D1214628
:1031D0002846BDE87040FDF70BB910B5FFF7C1FCFC
:1031E00004462046FFF7C2FC0028FAD110BD10B5F6
:1031F0008F4A012807D004211046FDF70FFABDE8D9
:1032000010401420E9E704211046FDF7FCF9F6E729
:1032100070B50021E220FFF7CDFF00213D20FFF730
:10322000C9FF00210120FFF7C5FF0021E120FFF7C2
:10323000C1FF00210846FFF7BDFF00212420FFF752
:10324000B9FF00219020FFF7B5FF0021A020FFF774
:10325000B1FF0021C820FFF7ADFF0021A620FFF736
:10326000A9FF0021A420FFF7A5FF00212F20FFF7D1
:10327000A1FF00214020FFF79DFF0021F820FFF76C
:1032800099FF0021D020FFF795FF00213020FFF7A4
:1032900091FF0021B020FFF78DFF00211020FFF7E4
:1032A00089FF00210846FFF785FF002440F25F35C3
:1032B00001210020FFF77EFF641CA4B2AC42F7D3CB
:1032C000BDE870400021AF2074E770B5584C012173
:1032D0002046FDF7A3F942F210752846FFF77DFF5F
:1032E00001212046FDF78FF92846FFF776FF0120E0
:1032F000FFF77DFFFFF78CFF4C4C10212046FDF7B8
:103300007CF80028F9D10220FFF771FFFFF780FF5A
:1033100010212046FDF771F80028F9D170BD70B575
:103320000D46FFF764FF0021B020FFF743FF0021A7
:103330001020FFF73FFF00210846FFF73BFF002466
:103340004FF4587615F814000121FFF733FF641C81
:10335000A4B2B442F6D3354C10212046FDF74DF807
:103360000028F9D170BD2DE9F04706460927012054
:10337000FFF73DFF0021B020FFF71CFF00211020C8
:10338000FFF718FF00210846FFF714FF60244FF0F5
:10339000000811E00025641EA4B20121305DFFF792
:1033A00009FF6D1CADB2602DF5D304F59074A4B285
:1033B00008F1010808F0FF08B845EBD3DFF86C907E
:1033C00010214846FDF719F80028F9D10220FFF72F
:1033D0000EFF0021B020FFF7EDFE00211020FFF7C7
:1033E000E9FE00210846FFF7E5FEC0244FF0000883
:1033F00011E00025641EA4B20121305DFFF7DAFE62
:103400006D1CADB2602DF5D304F59074A4B208F133
:10341000010808F0FF08B845EBD310214846FCF737
:10342000ECFF0028F9D1BDE8F087000000000A4059
:1034300000800C4070B504460C4DE00704D080219C
:103440002846FDF7EBF803E080212846FDF7DBF87E
:10345000A00705D52846BDE870404021FDF7DEB83D
:103460002846BDE870404021FDF7CDB800000B4074
:1034700008B502F0EEF800900220FDF756FC1C4C57
:10348000FA21684601F035FF00260025FDF7ADFC66
:10349000022001F057FFFDF7B1FC304486B26D1CED
:1034A0000A2DF3D3304608F006FC124A124B08F0FE
:1034B00051FC124A124B08F04DFC0022114B08F04F
:1034C000D3FA08F0C9FB00B22080192801DA3220B3
:1034D00000E0400080B200F076FC0B2060600A48FB
:1034E000034900231A46091D006801F0A7FBC7E73E
:1034F000500000209A9999999999B93F21B0726822
:1035000091EDCCBF00C06C404C000020052800D3DA
:103510000020474951F8200070474649421E8A6002
:10352000400848617047434A516B40F60C43994349
:10353000002803D040F60800014302E040F20440B6
:103540000143516370470EB50020019080468346C9
:10355000002204210A2001F0E2FA3549091F08601F
:1035600080BBFEE788B2090C404554D980460191E2
:1035700051E0D84500D901244FF0000A062C40D272
:10358000DFE804F03F030C1A23370198FFF7BEFF72
:1035900081460224C3464FF0000839E0D9F8040000
:1035A000009099F800700098384303D009F1080999
:1035B00003242DE000242BE02FB17F1EBFB2009E1C
:1035C000042425E027E0022422E03088758855EAAB
:1035D000000107D0361D38B1FFF79FFF0120FFF72C
:1035E000A2FF04E0032413E00020FFF79CFF052462
:1035F0000EE025B16D1EADB24FF0010A08E00424C3
:1036000006E04FF0000B0020FFF78DFF4FF0010A9E
:10361000BAF1000FB2D006480023001F5A1E02A9BB
:10362000006801F0C1FB029911F5803FA1D099E734
:103630005C00002000000740FE48FD498160012138
:10364000416070472DE9F04107460D46F94E0124CF
:10365000BC40F4622868002804D0F54901EB07114A
:10366000FDF756FD686820B1F16801EB0711FDF721
:103670004FFD687B01280AD0F4617462A87B40B1D9
:103680003463287B012806D0F463BDE8F081B4617F
:10369000F3E77463F5E7B463F7E710B50120FDF7CE
:1036A000BEFEFDF7CFFE012800D0FEE70721022075
:1036B000FDF737FF0120FDF74EFFFDF74FFF012813
:1036C00000D0FEE70020FDF761FF0120FDF740FF7D
:1036D0004FF48070FDF743FE2020FDF79AFF002095
:1036E000FDF79EFF0120FDF7A3FFFCF7DDFD0121A3
:1036F000D148FDF729FEBDE810400121CF48FDF774
:1037000023BE2DE9F041CE4908684FF6FF02104074
:10371000CC4A40F44070104308606FF0040738460C
:1037200000F0FAFBC84C2060BD10284600F0F4FB06
:1037300060606E10304600F0EFFBA060052000F0E6
:10374000EBFBE0600F2000F0E7FB20610621052085
:1037500000F0D6FB06210F2000F0D2FB384600F027
:10376000DBFB2060284600F0D7FB6060304600F0AD
:10377000D3FBA060052000F0CFFBE0600F2000F03D
:10378000CBFB206181E710B56FF0040000F0C4FBB3
:10379000AD4C20606FF0010000F0BEFB60604FF0A8
:1037A000FF3000F0B9FBA060052000F0B5FBE06041
:1037B0000F2000F0B1FB206110BD2DE9FE4FDFF8B6
:1037C0008CB25846FCF73EFEA148FCF73BFEA148F0
:1037D000FCF738FEA048FCF735FEA048FCF732FEA7
:1037E0009F48FCF72FFEC0219948FCF70CFF684664
:1037F000FCF7F2FE2120ADF8000001248DF80A400C
:1038000069465846FCF728FE4FF00409ADF80090D1
:103810008DF8034069465846FCF71EFE0225ADF8B8
:1038200000508DF802408DF8094069465846FCF773
:1038300013FE1820ADF800008DF808506946584670
:10384000FCF70AFE6846FCF7C7FE4FF0800AADF8A9
:1038500000A08DF80A408DF8095003268DF8086005
:103860008DF8024069465846FCF7F6FD4027ADF852
:1038700000704FF000088DF8028069465846FCF74A
:10388000EBFD6846FCF7A8FE40F23770ADF800008B
:103890008DF80A4069466E48FCF7DEFDA002ADF8DF
:1038A000000069466A48FCF7D7FDC020ADF800006B
:1038B0008DF802408DF8094069466548FCF7CCFD5B
:1038C0006846FCF789FEADF800908DF80A408DF847
:1038D00008508DF8094069465E48FCF7BDFDADF81B
:1038E00000608DF8095069465A48FCF7B5FD6846F6
:1038F000FCF772FE9720ADF8000069465648FCF7C9
:10390000ABFD2820ADF800008DF80A408DF8085076
:103910008DF809508DF8024069464F48FCF79CFD30
:10392000ADF800708DF8044069464B48FCF794FDF3
:103930006846FCF751FE4520ADF800008DF80A40BE
:103940008DF809508DF8024069464448FCF784FD23
:10395000ADF800A08DF8086069464048FCF77CFD92
:103960000A20ADF800008DF8085069463B48FCF786
:1039700073FD6846FCF730FE0C20ADF800008DF8B2
:103980000A408DF809408DF8024069463448FCF73A
:1039900063FD6846FCF720FEADF800508DF80A4044
:1039A0008DF809508DF808608DF8024069462C4862
:1039B000FCF752FDADF800408DF8028069462848BA
:1039C000FCF74AFDBDE8FE8F2DE9FF476846FDF78D
:1039D00000FBDFF890904846FDF7A4FA4FF4E1367B
:1039E00000966027ADF804700024ADF80640ADF8ED
:1039F00008404FF01008ADF80A80FD00ADF80C50FB
:103A000000214846FDF766FB69464846FDF79BFAEC
:103A100001214846FDF7E9FADFF84CA05046FDF7D2
:103A200081FA0096ADF80470ADF806401EE0000083
:103A300000040020008002400000E023E0C41300E6
:103A40000CED00E00000FA05B408002000800A40F8
:103A500000000B4000800B4000000C4000800C4038
:103A600000800E400080034000000340ADF8084095
:103A7000ADF80A80ADF80C5000215046FDF72AFB46
:103A800069465046FDF75FFA01215046FDF7ADFA51
:103A9000022211465046FDF7D1FA0222114648464D
:103AA000FDF7CCFABDE8FF8770B5FDF767FBF84876
:103AB0004FF0FF3404628461861501213046FDF722
:103AC00043FCF44D00212846FCF79EFC002169626E
:103AD000F14841623046FDF737FCF04AC2F8FC413C
:103AE000C2F8FC40FFF7A8FD2020D06770BD1FB5CD
:103AF0006846FCF73DFCE84C00212046FCF784FCBE
:103B00000420ADF800000222ADF802200021ADF83B
:103B100004100820ADF80600ADF80810ADF80A1042
:103B2000ADF80C10ADF80E2069462046FCF70DFCF0
:103B300001212046FCF727FC1FBD1CB50120FCF726
:103B4000EAFF4FF480700090002001906846FCF777
:103B5000CCFF1CBD30B593B0FDF73AF80CA8FDF7CB
:103B60005CF800240C940A200D904FF400300E9065
:103B700040000F90400010904000119001251295D8
:103B80000CA8FDF734F801A8FDF7A3F80420019074
:103B9000029403941F20049005940694ADF81C40F1
:103BA000ADF81E40E802089009954FF4E0400A90F5
:103BB0000B9401A8FDF742F801A8FDF767F8002172
:103BC0000620FDF771F900210620FDF778F90120A4
:103BD000FDF78DF80120FDF795F813B030BD2DE904
:103BE000F04391B00BA8FCF77CFD1F20ADF82E0030
:103BF00040F2F310ADF83000A94E0BA93046FCF7A7
:103C000055FD05A8FCF700FE0024ADF816404FF462
:103C10004068ADF81E800125ADF814504FF008093A
:103C2000ADF8269005A93046FCF7CEFD6846FCF7B6
:103C30009DFEADF80240ADF80450ADF80650ADF869
:103C40000840ADF80A50ADF80C50ADF80050694688
:103C50003046FCF76EFEF920706100213046FCF71B
:103C600012FF01213046FCF74AFD0BA8FCF739FD95
:103C7000ADF82E5040F6FF70ADF83000894F0BA91B
:103C80003846FCF713FD05A8FCF7BEFDADF816405D
:103C9000ADF81E80ADF82690ADF8144005A9384661
:103CA000FCF792FD0226ADF8146005A93846FCF732
:103CB0008BFD05A8FCF7A8FDADF816406802ADF82D
:103CC0001E00ADF81450ADF8264005A93846FCF7A3
:103CD0007BFD6846FCF74AFEADF80850ADF80A6077
:103CE000ADF80C50ADF8004069463846FCF721FEAF
:103CF000ADF8006069463846FCF71BFE3C61BC61CC
:103D00007C61012291023846FCF7ABFE0021384667
:103D1000FCF7B9FE01213846FCF7F1FC0BA8FCF7D3
:103D2000E0FC0F20ADF82E006320ADF830005E4FB0
:103D30000BA93846FCF7BAFC05A8FCF765FDADF801
:103D40001440ADF81640ADF81E80ADF8269005A9D8
:103D50003846FCF739FD6846FCF708FEADF8004030
:103D6000ADF80460ADF80240ADF80650694638463B
:103D7000FCF7DFFDADF8146005A93846FCF724FD1B
:103D8000ADF80060ADF80440ADF80640ADF80A604B
:103D9000ADF80850ADF80C5069463846FCF7C9FD3F
:103DA0003C61BC6100213846FCF76DFE01213846BC
:103DB000FCF7A5FC11B0BDE8F0833A4908617047F3
:103DC000384988617047384988617047642800D94C
:103DD000642035490861704710B5FDF789FF002858
:103DE0007BD172B60020FDF789FF41F28830FEF7E3
:103DF000B8FE04460020FFF7E9FF0020FFF7E3FFCD
:103E00000020FFF7DAFF0020FFF7DAFF002004F0C0
:103E10006AFE002004F048FE244804F091FF0123CC
:103E20000A22002122A005F021F801230A226021A4
:103E30001FA005F01BF82046FEF798FE0028FAD1D7
:103E4000FDF76CFF0020FDF774FF0020FDF77CFFFD
:103E50001A48FFF788FA4FF47A70FEF782FE04469C
:103E60002046FEF783FE0028FAD11548FCF7EAFA4F
:103E70001448FCF7E7FA1448FCF7E4FA1348FCF797
:103E8000E1FA1348FCF7DEFA1248FCF7DBFAFEE72A
:103E9000008002400000044000000A4084E000E08E
:103EA000000007400080074000000840B8F5000807
:103EB000506F776572204F4646000000345B00204B
:103EC00000800A4000000B4000800B4000000C40C6
:103ED00000800C4000800E40FFE710BD14490268CE
:103EE0000A6042684A6082688A60C268CA60026981
:103EF0000A6142694A6182698A61C069C861FEE7F4
:103F00004907090E002804DA0A4A00F00F0081541C
:103F10007047094A81547047002805DA054900F0C6
:103F20000F00405C400970470349405C40097047FE
:103F3000F008002014ED00E000E400E07CB5FEF79E
:103F400007FE054600200190364C217839B36168A0
:103F5000491E616009D100903348002301AA6946D7
:103F6000006800F0D0FE19206060A168491EA160C1
:103F700008D12F48002301AA2C49006800F0C3FE95
:103F80003220A060E168491EE16008D12A48002380
:103F900001AA2849006800F0B6FE0520E0600198FB
:103FA00018B126494FF0805008602846FEF7D5FD2D
:103FB0001C4910310A68824200D208607CBD10B5ED
:103FC000FEF7C6FD0446FFF707FF16494888401E66
:103FD0000004000C488003D105204880FDF76DFDEA
:103FE000FEF7F0FBFEF7CCFD154A506900F548607E
:103FF00080B29168814201D29168401A50614FF4B9
:1040000080611046FCF721FDFEF7A2FD0146204627
:10401000FEF7A1FD034910314A68824200D2486090
:1040200010BD0000700000204C00002034C50008C6
:104030002400002040C500085800002004ED00E0E6
:104040000080074086B001F004FB0190434E444DD0
:10405000DFF810A14FF0090B01274FF003084FF6CE
:10406000FF790A2101A801F044F9FDF7EBFDFEF705
:10407000B2FD8DF808B0B07880060AD58DF80C80B6
:104080008DF8107000231A4602A9286800F0D6FDAA
:104090000DE0307980060AD58DF80C8000208DF86F
:1040A000100000231A4602A9286800F0C7FD708896
:1040B000010602D4B188C90509D502208DF80C008B
:1040C00000231A4602A9286800F0B8FD0AE010F49F
:1040D000A07F07D08DF80C7000231A4602A928682B
:1040E00000F0ACFD07208DF808000124ADF80E406B
:1040F0007088204207D0ADF80C7000231A4602A940
:10410000286800F09BFDF088204207D0ADF80C80B5
:1041100000231A4602A9286800F090FD3089204249
:1041200008D00520ADF80C0000231A4602A9286823
:1041300000F084FD09EA4404002CD7D1BAF900004C
:1041400000288ED008218DF80810ADF80C0000234F
:104150001A4602A9286800F071FD82E700080020D5
:10416000400000204A0000202DE9F0410546884625
:1041700016461F462C460C35216821B1404605F0F5
:104180002DFD0028F6D120793070A0683860BDE898
:10419000F08170B504460E4625460834296821B1E1
:1041A000304605F01BFD0028F6D1284670BD2DE9EC
:1041B000FC4780460C461546002C0FD04FF00109F5
:1041C0004E466B4601AA3748D8F80010FFF7CCFFDF
:1041D000641EE7B2009800285ED15FE00020BDE8D1
:1041E000FC8758F826100098FFF7D3FF0446607943
:1041F000010605D5761CF6B27F1E17F0FF074DD0DD
:1042000000F07F00062843D2DFE800F042030D17DC
:104210002635217958F8260005EBC1014860207940
:1042200005F8309034E02179E08805EBC101888001
:104230002179022005F831002AE0002258F82600F2
:10424000114605F0D4FB217905EBC10148602179C5
:10425000032005F831001BE0002258F82600114623
:1042600005F08DFB217905EBC1014860217904201F
:1042700005F831000CE058F82600002107F085FB16
:10428000217905EBC10148602179052005F831004D
:10429000761CF6B27F1EFFB2002FA2D19DF804005B
:1042A0009DE7000050010020416042800023038010
:1042B0004FF6FF7002E0521E21F81200002AFAD1D8
:1042C00070470388426832F813200A804FF6FF7166
:1042D0008A420ED00388426822F81310428801886F
:1042E000521E914201DA491C00E0002101800120A8
:1042F00070470020704730B58FB01446C84A9042CE
:1043000001D1012500E003250190486802904FF09B
:10431000406003904FF0804004904FF0885005902B
:104320000122069248880790002008909104099184
:10433000C9000A9101A90B910C900D908DF83820BD
:104340008DF839008DF83A00E8B20BA9FFF77AF939
:10435000B44800EB05100168216041686160806825
:10436000A0600FB030BD10B5012815D0C822AE49ED
:10437000AE48FFF799FFAF4CAD4AAC492046FFF776
:10438000BAFF01210320FCF790FF20460122BDE87F
:1043900010401146FCF756BEA448C822A64908386A
:1043A000FFF782FFA24AA1499D4C0C3A08392046EA
:1043B000FFF7A1FF01210846FCF777FF2046012205
:1043C000BDE810401146FCF73DBEF8B50D46144659
:1043D000012805D0954E35B12CB1208818B117E0D1
:1043E000924E083EF7E70020F8BDBDF8002012F419
:1043F000E06F0DD1D3B22A68501C2860137020885A
:10440000401E82B2228052B10A2B08D00D2B06D05A
:1044100069463046FFF755FF0028E6D1F8BD012078
:10442000F8BDF0B587B00023012906D0834C8DF884
:104430000C3004D14FF0010103E0814CF7E74FF05D
:1044400002018DF80D108DF800304FF001054FF08E
:1044500002074FF0030601281DD0022866D003286A
:1044600079D0042873D08DF800709DF80C0030B11D
:10447000744800231A4603A9006800F0DFFB9DF88A
:104480000000002805D000231A466946206800F085
:10449000D5FB07B0F0BD1078042198B390880923AC
:1044A00040B101280BD002280ED003281FD08DF870
:1044B0000060DAE78DF80C308DF81070D5E78DF8D4
:1044C0000C308DF81050D0E7107E68B18DF80C30AC
:1044D0008DF81010107A08B1908900E002208DF854
:1044E0001400D0690690C0E78DF80010BDE7107E7B
:1044F000B0B18DF80C3006208DF81000107A10B194
:10450000908901E00FE002208DF81400107C08B1C2
:10451000908A00E002208DF81500D0690690A4E78B
:104520008DF80010A1E78DF800109EE7107878B1A3
:10453000107A68B107208DF80C009089ADF8120050
:104540009088ADF810008DF800508EE703E010E081
:104550008DF8006089E7107840B108208DF80C00D4
:104560009088ADF810008DF800507EE78DF800605F
:104570007BE70A208DF8000077E7A2B000F0FF0883
:10458000B8F1010F1ED02A4D5C3521955027209798
:1045900001F05FF801904046FFF7E5FE052101A814
:1045A00000F0A7FE20AA21A94046FFF70EFF002831
:1045B000F4D0BDF88000C0F1500080B20024012684
:1045C000002216E01A4D0C35DFE7AB5C202B23D020
:1045D000092B21D00A2B1FD00D2B1DD03EB1AB18BB
:1045E00021460CAE641CA4B246F821300026521CB1
:1045F000D2B28242E9D364B1282102A805F09CFA24
:10460000E1B202AA0CA8FFF7D2FD02AA4146FFF7C9
:1046100008FF20972195C1E70021A9540126E6E76C
:104620000000034000040020B80A0020940100208C
:10463000540C00200080034028090020A001002025
:104640009C0100204000002010B50021B14C0A461A
:10465000491CC9B204EBC2031A780AB18242F6D1EE
:10466000586810BD1FB5AC4A904201D1002300E04C
:10467000022300220A6048608A604FF04040C86010
:104680000A61012048618A61CA6184040C624405A0
:104690004C620092019202928DF80C008DF80D2070
:1046A0008DF80E20D8B26946FEF7CCFF1FBD2DE96C
:1046B000F05F8346884616461C469748834502D1DC
:1046C0004FF0000701E04FF0020702D1DFF84C92F3
:1046D00003E0DFF8489209F1640902D1DFF840A253
:1046E00032E0DFF83CA20AF1040A2DE0B6F1005FE7
:1046F0000ED2642C01D9642500E025462A463146B5
:10470000484605F040FA601B84B22E44484602E059
:10471000304625460024C8F80000C8F81850F8B202
:1047200042460021FCF738FDF8B20121FCF7BDFD3F
:10473000012202215846FCF785FC00235A1E194627
:10474000DAF8000000F030FB002CCFD1BDE8F09F7C
:104750008EB0C0B2012805D0714EA6F1040605D175
:104760006F4C06E06E4EA6F10806F8E76C4C04F1BB
:10477000040402D1DFF8A08101E0DFF8A88101D1B3
:10478000664F02E0654F07F1640704A94046FFF752
:1047900069FF00220C210A2000F0C1F9306020B32B
:1047A00003220021012000F0BAF9206020B100238B
:1047B0001A46194600F042FA2068B8B100231A469A
:1047C000194600F0F1FA4FF0FF3900234A4601A9DB
:1047D000306800F0E9FA9DF80400811F052933D202
:1047E000DFE801F005050B0B0F00FEE7FEE7029D79
:1047F000284605F035F984B22DE0029DBDF80C4045
:1048000029E03D460024DFF820A148A12846DAF837
:10481000002004F08BFF284605F022F983B22A46D7
:1048200004A94046FFF743FF47A12846DAF80420D1
:1048300004F07CFF284605F013F983B22A4604A948
:104840004046FFF734FF06E0FFF7FEFE0546284628
:1048500005F006F984B235B12CB123462A4604A9E5
:104860004046FFF724FF9DF80400072801D00928DF
:10487000ABD1029801F009F8A7E738B50020009005
:10488000384CA06A264DC007A5F108050DD1224875
:10489000816C890709D5816C21F0020181640023B4
:1048A0006A461946A86800F02EFAA06A40070DD49F
:1048B0001C48816C890709D5816C21F00201816453
:1048C00000236A461946E86800F01DFAA06A8007CE
:1048D00009D4254825490A6802614A684261896805
:1048E00081610220A062A06A000709D41E48204905
:1048F0000A6802634A684263896881630820A0628B
:1049000002210020FCF7F2FC012801D1FCF7DBFCBE
:1049100038BD0000E8C5000800000340000D00207D
:10492000A4010020008003408000002053797374AC
:1049300069636B20686F6F6B206D617820746963A9
:104940006B733A2025640D0054696D6572322049FD
:104950005352206D6178207469636B733A2025642B
:104960000D0000000080024000040020480C0020E0
:10497000540C0020FBF762FCFEE7A0F120004FF092
:104980008073C36181612849416140F820297047E3
:104990004FF0E0204FF6FF114161072101617047A0
:1049A00010B52248016841F47F010160016841F0BF
:1049B0007F410160FFF7ECFF1D4900200860FBF715
:1049C00015FC002010BD704718494FF080501C396D
:1049D0000860BFF34F8FBFF36F8F704710B5FBF7C1
:1049E0002DFC13480168491C0160BFF34F8FBFF3D2
:1049F0006F8F10BD0E490868401E0860002801D165
:104A0000FBF723BC704710B5FBF718FC00F09FFBC9
:104A100020B106494FF080501C390860BDE81040B5
:104A20000020FBF712BC00007549000820ED00E0F3
:104A3000AC01002000F1080141604FF0FF328260BC
:104A4000C160016100210160704700210161704770
:104A500042684A6093688B6093685960916008610E
:104A60000168491C0160704730B50C68621C02D0B7
:104A700000F1080202E0026904E01A4653681D686A
:104A8000A542FAD953684B6099608A605160086109
:104A90000168491C016030BDD0E901219160D0E975
:104AA0000112516001694A68824201D182684A60FC
:104AB000002202610868401E0860704770B5044615
:104AC0000D46FFF78BFFD4E90F12206801FB0200AF
:104AD00060600020A0632068A060E06B226C216809
:104AE000401E00FB0210E0604FF0FF306064A064E5
:104AF00004F110004DB1FFF79DFF04F12400FFF712
:104B000099FFFFF777FF012070BD21690029F8D0D8
:104B100000F0CEFD0128F4D1FFF756FFF1E72DE9B3
:104B2000F04105460F460026002D16D04C2000F01F
:104B300066FE04468CB105FB07F0401C00F05FFEEA
:104B4000206038B1E563276401212046FFF7B6FFF6
:104B5000264602E0204600F098FE3046BDE8F0818F
:104B600070B50446FFF73AFF04F124050AE0606AD5
:104B700058B1284600F09CFD08B100F0F0FDA06C93
:104B8000401EA064A06C0028F1DC4FF0FF35A56446
:104B9000FFF730FFFFF722FF04F110060AE020695B
:104BA00058B1304600F084FD08B100F0D8FD606CCB
:104BB000401E6064606C0028F1DC6564BDE87040F4
:104BC000FFF718BF10B50446FFF708FFA06BE16BB5
:104BD000884201D1012400E00024FFF70BFF2046AA
:104BE00010BD70B504461546226C002A22D07DB156
:104BF000E06804F054FFE168206C091AE160226863
:104C0000914202D26168081AE060022D0DD011E0D5
:104C1000A06804F044FF216CA0680844A0606168AB
:104C2000884207D32068A06004E0A06B10B1A06B9D
:104C3000401EA063A06B401CA06370BD2DE9FF4126
:104C400082B0044688461F4600250026FFF7C6FEB0
:104C5000A06BE16B884205D3022F03D00498A8B162
:104C6000C5B11BE03A4641462046FFF7BAFF606AED
:104C700038B104F1240000F01BFD012801D1FFF739
:104C8000A3FEFFF7B7FE012006B067E7FFF7B2FE0D
:104C90000020F9E7684600F037FD0125FFF7AAFE7E
:104CA00000F022FBFFF79AFE606C401C00D16664A6
:104CB000A06C401C00D1A664FFF79CFE04A96846C6
:104CC00000F028FD30B12046FFF74AFF00F0A7FAB8
:104CD0000020D9E72046FFF775FF70B104F11000FE
:104CE000049900F0CBFC2046FFF73AFF00F097FA5A
:104CF0000028ABD1FFF768FEA8E72046FFF730FF9A
:104D000000F08DFAA2E72DE9F04104460F46154662
:104D10001E46FBF793FA8046A06BE16B884207D3EF
:104D2000022E05D000244046FBF78FFA204615E7F7
:104D3000324639462046FFF754FFA06C401C04D091
:104D4000A06C401CA0640124EDE7606A0028FAD042
:104D500004F1240000F0ACFC0028F4D0002DF2D0C7
:104D600001202860EFE710B50446FFF737FEA06B7F
:104D700020B10024FFF73EFE204610BD0124F9E7D4
:104D800030B40C460368002B0CD0026CC16811448F
:104D9000C1604568A94200D3C360C168204630BCE9
:104DA00004F07DBE30BC70472DE9FF4182B004465F
:104DB00088461F4600250026FFF710FEA06B10B3A3
:104DC000E56841462046FFF7DBFF6FB1E560606AAA
:104DD00030B104F1240000F06BFC08B1FFF7F4FDE2
:104DE000FFF708FE01204FE7A06B401EA06320697B
:104DF0000028F5D004F1100000F05AFC0128EFD192
:104E0000FFF7E2FDECE7049808B125B107E0FFF7F2
:104E1000F1FD002038E7684600F076FC0125FFF739
:104E2000E9FD00F061FAFFF7D9FD606C401C00D18C
:104E30006664A06C401C00D1A664FFF7DBFD04A9EA
:104E4000684600F067FC30B12046FFF789FE00F0AD
:104E5000E6F9002018E72046FFF785FF70B104F15E
:104E60002400049900F00AFC2046FFF779FE00F0C8
:104E7000D6F90028A0D1FFF7A7FD9DE72046FFF750
:104E80006FFE00F0CCF997E72DE9F04104460F469C
:104E90001546FBF7D3F90646A06BE0B1394620462C
:104EA000FFF76EFFA06B401EA063606C401C04D037
:104EB000606C401C606401240EE020690028FAD078
:104EC00004F1100000F0F4FB0028F4D0002DF2D023
:104ED00001202860EFE700243046FBF7B6F92046B2
:104EE0003CE62DE9F04104460F46FBF7A7F90646DC
:104EF000A06B38B1E56839462046FFF741FFE56011
:104F0000012400E000243046FBF79FF9204625E607
:104F100010B50446FFF762FDA46BFFF76BFD20465A
:104F200010BD10B50446FFF759FDD4E90E10441A20
:104F3000FFF760FD204610BD806B704710B504463A
:104F4000206800F0A2FC2046BDE8104000F09DBCA7
:104F5000806B002801D00020704701207047816BD2
:104F6000C06B814201D101207047002070470000D2
:104F700070B50024FE4D04EB840005EB8000FFF7C4
:104F800059FD641C052CF6D3F9486430FFF752FD37
:104F9000F7487830FFF74EFDF5488C30FFF74AFDB3
:104FA000F348A030FFF746FDF148B430FFF742FD6B
:104FB000EF49F048643101631431416370BD70B54D
:104FC000044615460023E218C85C82F83400C85C29
:104FD00010B15B1C102BF6D3002084F84300052D84
:104FE00000D30425E562201DFFF72FFD04F1180012
:104FF000FFF72BFD2461C5F10500A061646270BD5F
:1050000070B506460D46442000F0F9FB044644B155
:10501000B60045B12846206348B1A522314604F0C8
:1050200083FD204670BD304600F0E9FBF3E72046E3
:1050300000F02BFC0024F4E72DE9FF4F81B08246FD
:10504000DDE90E68109917469B463846FFF7D8FFF2
:105050000446C84DF4B3216B781E01EB800020F0AC
:105060000709009732462046119B0299FFF7A7FFD8
:105070005A4651464846FFF780FC2060B8F1000FC1
:1050800001D0C8F80040FFF7A9FCA868401CA86040
:10509000286810B1686938B10BE02C60A868012855
:1050A00007D1FFF765FF04E02868C06AB04200D866
:1050B0002C60A86A401CA862E06A2969884200D96D
:1050C0002861AB4900EB800001EB8000211DFFF758
:1050D000BFFC00E003E00124FFF78CFC01E04FF08F
:1050E000FF34012C07D1686928B12868C06AB04232
:1050F00001D2FFF769FC05B02046BDE8F08F70B51E
:105100000446FFF76BFC9B4D04B92C68201DFFF78C
:10511000C3FCA06A18B104F11800FFF7BDFC944865
:10512000211DA030FFF794FC6868401C6860A86AE5
:10513000401CA862FFF75EFC6869002806D028685A
:10514000844203D1BDE87040FFF73EBC70BD2DE93D
:10515000F0470025874FB86900280AD0F869401C3D
:10516000F861FEF7EBFE386A00B101252846BDE87C
:10517000F087F868401CF860FE684FF0FF3976B998
:10518000386B796B39637863786A401C7862386B66
:105190000068A0B1386BC068C0684068F862F86AFF
:1051A000DFF8CC8186420FD3386B006850B1386B82
:1051B000C068C4686068864215D2F86204E0C7F827
:1051C0002C90ECE7C7F82C903868C06A00EB8000A0
:1051D00058F82000012800D90125F8690028C2D11B
:1051E000FEF7ACFEBFE7201DFFF756FCA06A18B122
:1051F00004F11800FFF750FCE06A3969884200D9D1
:10520000386100EB800008EB8000211DFFF720FCD7
:10521000E06A3968C96A8842C6D30125C4E72DE926
:10522000F0410027FFF7DAFB524DA869401EA86144
:10523000A869D8BBA868C8B3DFF83481012608F193
:105240008C081CE0D8F80C00C46804F11800FFF7C3
:1052500023FC201DFFF720FCE06A2969884200D961
:10526000286100EB8001424800EB8100211DFFF71F
:10527000EFFBE06A2968C96A884200D32E62D8F839
:1052800000000028DED1E86938B909E0FFF75FFFC8
:1052900000B12E62E869401EE861E8690028F5D196
:1052A000286A012802D10127FFF78EFBFFF7A2FB36
:1052B0003846BDE8F08170B504462E4D286844603C
:1052C000E868844206D22968686B091DBDE8704011
:1052D000FFF7CABB2968286B091DFFF7C5FBE86A01
:1052E000844200D2EC6270BD22488169491C816110
:1052F000704770B505460C460022FFF7F5FF1D4EBE
:10530000F0682B681C44834205D9A34208D9844223
:1053100006D9012204E0A34201D8844200D9012227
:105320002C6032B13068001DFFF7B6FB2046FFF756
:10533000C2FFFFF774FF002803D1BDE87040FFF7FC
:1053400043BB70BD10B502460020002A0DD0FFF708
:10535000CBFF0848C1688C180068001DFFF79CFB54
:105360002046FFF7A8FFFFF75AFF002808D103E007
:10537000C80D0020B0010020BDE81040FFF724BB9D
:1053800010BD10B50446FFF729FB0CB9F6480468B8
:10539000E46AFFF72FFB204610BD2DE9F0410446DB
:1053A0000D460026052D00D30425FFF717FBEE4F11
:1053B00004B93C68E06AA8422DD0854208D9396812
:1053C0008C4209D03968C96AA94205D8012603E090
:1053D00039688C4200D10126E562C5F10501A16161
:1053E000E24D00EB8000616905EB800081420ED147
:1053F000201DFFF751FBE06A3969884200D9386106
:1054000000EB800005EB8000211DFFF721FB012E42
:1054100001D1FFF7D9FABDE8F041FFF7EBBAD24965
:105420008869002802D001200862704700200862C5
:10543000CE4A02E00869401E0861086900EB80005E
:1054400052F820000028F5D0086900EB800002EB3C
:10545000800042685268426000F108039A4201D11C
:10546000526842604068C0680860704770B5044682
:10547000FFF7B4FABC4D04B92C68201DFFF70CFBF4
:10548000A06A18B104F11800FFF706FBB748211D08
:10549000B430FFF7DDFAFFF7ADFA286884420DD18A
:1054A000686918B1BDE87040FFF78EBAAF48A968C7
:1054B000B4300068884202D10020286070BDBDE889
:1054C0007040ACE70021A94B4269B4339A4206D13F
:1054D000806AA3F12802904201D000B90121084658
:1054E000704770B50446002C25D09F4D2868844233
:1054F00021D0FFF773FA2046FFF7E4FF012816D109
:10550000201DFFF7C9FAE06A2969884200D928619D
:10551000964900EB800001EB8000211DFFF798FA0F
:10552000E06A2968C96A884201D3FFF74DFABDE8ED
:105530007040FFF75FBA70BD2DE9F04104460025C9
:10554000FAF77CFE07462046FFF7BCFF012808D18A
:10555000854EB06950B1854804F118018C30FFF7D1
:1055600077FA3846FAF771FE2846A2E6E06A316813
:10557000C96A884200D30125201DFFF78DFAE06A31
:105580003169884200D93061784900EB800001EB35
:105590008000211DFFF75CFAE3E710B50446206B9D
:1055A00000F073F92046BDE8104000F06EB970B508
:1055B0006E4E6D4DA0361CE0FFF796FE306820B1B0
:1055C0000024FFF72CFEA4B901E00124F9E7FFF75E
:1055D00005FAF068C468201DFFF75EFAA868401E4F
:1055E000A8606868401E6860FFF704FA2046FFF76D
:1055F000D4FF68680028DFD170BD5C4CFFF7D7FF8F
:1056000020680128FAD9FFF7DFF9F7E71FB5002472
:105610000094019402942346802255A15648039495
:10562000FFF70AFD012809D1FAF708FE4E480121CB
:105630004161C460BDE81F40FFF7B2B91FBD10B59E
:10564000FAF7FCFD484900204861BDE81040FFF72B
:10565000BAB910B5FFF7C2F94348C468FFF7CAF9F1
:10566000204610BD10B5FAF7E9FD3F49CC68FAF7BE
:10567000ECFD204610BD3C488068704770B50D4673
:10568000394C21681831FFF7EFF92068001DFFF74A
:1056900003FA681C04D0E0682844BDE870400AE6BC
:1056A0002168BDE870403148091DB430FFF7D0B91A
:1056B00070B5C068C46804F118000646FFF7ECF93D
:1056C000294DAA696AB1294831468C30FFF7C0F9E3
:1056D000E06A2968C96A884214D30120012129623D
:1056E00070BD201DFFF7D8F9E06A2969884200D90A
:1056F00028611E4900EB800001EB8000211DFFF7AF
:10570000A7F9E5E7002070BD17494A6A0260C96839
:105710004160704770B504460D46FFF75FF91249C6
:10572000C8682A68531C08D02368496A8B4206D08F
:105730006168814203D801240DE000240BE0616818
:10574000401A904206D2101A28602046FFF7DCFF6C
:10575000002400E00124FFF74DF9204670BD024906
:105760000120086270470000B0010020C80D002031
:1057700049444C4500000000FB55000830B5544931
:1057800000E011460A688242FBD34B685C188442F1
:1057900003D140681844486008460D6844682318DF
:1057A000AB420DD14A4B0C3B1B689A4206D0526863
:1057B000224442600A681268026002E0036000E06E
:1057C0000260814200D0086030BD424820F00701ED
:1057D0003F4801600023436044F2F8300844083831
:1057E0003B4A0C3A10604360036044F2F0334B6074
:1057F0000860506808385060D806906070472DE9FE
:10580000F04105460026FFF76FFD314F0C3F386829
:1058100008B9FFF7DAFFB868054231D13DB1083564
:10582000680704D005F00700C0F1080005443DB347
:105830007868854224D826490846046801E0214654
:1058400004466068A84202D220680028F7D1386870
:10585000844215D00E680836206808606068411BD5
:10586000102904D9601941606560FFF787FF6068FF
:105870007968091A7960B96808436060002020607F
:10588000FFF7CDFC3046BDE8F08170B5002819D097
:10589000083804460E4D60680C3DA968084211D0D6
:1058A0002268002A0ED188436060FFF71DFD606802
:1058B0006968084468602046FFF760FFBDE87040F3
:1058C000FFF7ADBC70BD02480C38406870477047A8
:1058D000F4010020980E0020F7B582B06D4C9DF8C1
:1058E0000C006B4F9DF80D10227A6B4D0B286FD07A
:1058F00004DC012826D0022810D104E0F0280ED0C4
:10590000F128F9D113E042F0100040F0400040F0DF
:105910008000207201215F4802F068FA90E05F4940
:105920005B4801F0ADFE5A4802F06AF988E009B11F
:10593000012000E0022029780843287042F040004E
:1059400020727DE0002003F0AFF8207A4FF00006CF
:10595000000632D5B87CCDE9000651483B7C027880
:1059600050480178002003F06FF94F4803F0E8F940
:10597000012302221C214DA003F078FA01230F22FB
:1059800008214CA003F072FA0123022265214DA0E8
:1059900003F06CFA4E4803F0D3F901230F226A2179
:1059A0004CA003F063FA01202421CDE9001060230C
:1059B0001B2219464A4803F047F94A4803F0C0F948
:1059C000287800F00300012803D0022808D00DE059
:1059D00016E001233722052143A003F047FA05E032
:1059E00001233722052143A003F040FA2E70607A8C
:1059F00020F001006072207A20F0400020721FE049
:105A000005291DD1BDF80E00012819D1387AC0062C
:105A10000BD53B491E4801F033FE2049394801F0BF
:105A20002FFE384802F0ECF80AE03549354801F01D
:105A300027FE1A49164801F023FE154802F0E0F847
:105A400005B00120F0BD10B50021124802F02FFC76
:105A500010482D494161022180F824100E49091D8A
:105A600081620B4A0A60826A264951600021818165
:105A7000C181C02101824421418200F0E8F905483A
:105A800001F04DF8BDE81040014801F066BD00008E
:105A9000E054002090520020FC01002030C6000895
:105AA0002602002024020020B8F5000850533230AE
:105AB00030000000506F77657220737570706C79DC
:105AC000000000004D445233324639517800000046
:105AD000E4DA0008706F776572656420627900000F
