:020000040800F2
:1000000040730020650200086D0200086F020008BE
:100010008102000883020008850200080000000039
:10002000000000000000000000000000D9010008EE
:1000300089020008000000000D0200083368000873
:100040008F0200088F0200088F02000800000000E5
:10005000000000001D6200088F0200088F020008E7
:100060008F020008000000008F0200088F020008C5
:100070008F020008000000008F0200087D4D00087C
:100080008F0200088F020008000000008F020008A5
:100090008F020008000000000000000000000000C7
:1000A0000000000000000000000000008F020008B7
:1000B0008F0200088F0200088F0200088F020008DC
:1000C00000F002F800F079F80AA090E8000C8244F1
:1000D0008344AAF10107DA4501D100F06EF8AFF2CE
:1000E000090EBAE80F0013F0010F18BFFB1A43F016
:1000F00001031847BC360100DC3601000A444FF00A
:10010000000C10F8013B13F0070408BF10F8014B76
:100110001D1108BF10F8015B641E05D010F8016BBB
:10012000641E01F8016BF9D113F0080F1EBF10F81F
:10013000014BAD1C0C1B09D16D1E58BF01F801CB42
:10014000FAD505E014F8016B01F8016B6D1EF9D5C5
:100150009142D6D3704700000023002400250026DA
:10016000103A28BF78C1FBD8520728BF30C148BF1A
:100170000B60704766290FF0318564290DF03486D5
:1001800075290DF0318663290EF06B8373290EF00B
:100190007083002070471FB50EF0C2FB04000020E2
:1001A00000210FF0D1F8401C6060002000210FF00A
:1001B000E1F8E0601FBD10B510BD0EF0BBFC1146AC
:1001C000FFF7E9FF01F01CFB0EF0D9FC03B4FFF7C9
:1001D000F2FF03BC0EF0DAFC1A4B19680868B0E8AD
:1001E000F00F80F309884FF0000080F311884EF083
:1001F0000D0E70470000000003480068006880F39F
:10020000088862B600DF00BF08ED00E0EFF3098068
:100210000C4B1A6820E9F00F106008B54FF0200071
:1002200080F3118807F06EF84FF0000080F311881A
:10023000BDE8084019680868B0E8F00F80F3098845
:10024000704700BFB0050020EFF311804FF0200190
:1002500081F31188704780F311887047EFF30580B0
:10026000704700000D4880470D480047FEE71EF02C
:10027000040F0CBFEFF30880EFF3098004F0BDBC5E
:10028000FEE7FEE7FEE7FEE7FEE7FEE7FEE7FEE746
:1002900004480549054A064B70470000170300084B
:1002A000C1000008406D002040730020406F002016
:1002B000406F002010B51F4BD8681F4C80070028E6
:1002C00001DA601000E02046D968C90700D0400874
:1002D000D968490704D55968C1F30321491C48432B
:1002E000D968164AC1F3012139B1012907D0022981
:1002F0000DD049F64040106010BD146010BDD968A3
:10030000C1F30311491CB0FBF1F0106010BD4FF4B4
:100310000040106010BD07480949C161C168002153
:10032000C16042684160826881600269016142691E
:100330004161BFE70000024000127A000000002087
:1003400010000008002101604160016141614162CB
:1003500003210162704710B54A8802610A894B89FE
:100360000C881A448B8903EB04231A44CB881A4463
:100370000260CA8989881144416010BD00218180D2
:100380000722C28041810181818102224280018055
:100390007047002904D0416841F002014160704774
:1003A00041684FF6FD72114041607047002A03D04A
:1003B00042690A434261704742698A434261704719
:1003C0008069814301D00020704701207047C069D7
:1003D000084201D00120704700207047026A0A439A
:1003E00002627047002A03D0426A0A4342627047A1
:1003F000426AC94389B20A404262704781607047CD
:10040000806880B27047C068084201D00120704700
:100410000020704710B50B4BDA6A0B4CA04205D197
:1004200042F0807020F0FF020A4308E0074CA0422F
:1004300005D142F0007020F47F4040EA0122DA62E8
:1004400010BD0000000002400000044000000A400F
:100450000021C16001614160016081604161816191
:10046000C16170472DE9FF4FD0F804908768D0F83C
:100470000CA0D0F81080D0F814C082690192C26933
:1004800000920022012303254FF001160C885EE044
:100490005FEAC47B56D091F802B029EA03090BFA4F
:1004A00002FB49EA0B0991F808E04FEA420B0EFA09
:1004B0000BFEAF434EEA0707CDF80CB091F80AB037
:1004C0002AEA030A0BFA02FB4AEA0B0A91F803E054
:1004D00002F1100B0EFA0BFECDF808B091F804B043
:1004E00028EA060848EA0E080BFA02FB48EA0B085D
:1004F00091F805E0DDF808B02CEA060C0EFA0BFEC8
:1005000091F806B04CEA0E0C0BFA02FB4CEA0B0C0D
:1005100091F809E0DDF80CB00EFA0BFEDDF804B03E
:100520002BEA050B4EEA0B0ECDF804E0DDF800B027
:1005300091F807E02BEA030B0EFA02FE4BEA0E0BD2
:10054000CDF800B05B00AD007600521C6408002CB2
:100550009ED14749884202D14FF01F0101E04FF080
:10056000000129EA0109C0F8049002D14FF01F01EF
:1005700001E04FF0000127EA0107876002D14FF048
:100580001F0101E04FF000012AEA010AC0F80CA0A7
:1005900002D14FF01F0101E04FF0000128EA0108ED
:1005A000C0F8108002D14FF01F0101E04FF00001B0
:1005B0002CEA010CC0F814C002D14FF01F0101E079
:1005C0004FF00001019A22EA0102826102D14FF04C
:1005D0001F0101E04FF00001009A22EA0102C2610E
:1005E000BDE8FF8F4FF6FF71018000218170C1705F
:1005F000017141718171C1710172417281727047E3
:100600000068084201D00120704700207047006850
:1006100070470368164A904201D11F2200E0002271
:1006200093430B43036070470368114A904201D122
:100630001F2200E000220A4393430360704710B575
:1006400003680B4CA04201D11F2400E00024A34307
:1006500012B10B43036010BD8B43036010BD044A0D
:10066000904201D11F2200E00022914301607047B7
:1006700000000B400021C1600160416081600162A7
:1006800041628162C162016341638163C16301664A
:1006900041668166C166016141618161C161016735
:1006A00041678167C167016441648164C164016518
:1006B00041658165C165704710B50A8802604A8846
:1006C00042608A888260CA880B898C891A444B8967
:1006D00023441A44CB891A44C2604A8A8B8A1A443A
:1006E000CB8A098A03EB01111144016510BD002179
:1006F000018041808180C180018141818181C181EE
:10070000018241828182C1827047C268002902D081
:1007100042F0010101E022F00101C1607047016077
:1007200070474160704781607047C36823F00203DF
:100730001A44C26081607047006880B27047C26826
:1007400022F470621144C1607047C26822F0300226
:100750001144C1607047C26822F0C0021144C160F8
:100760007047C26822F008021144C160704710B59A
:10077000046D24F0FE04114401EB031121440165D2
:1007800010BD026D22F0F00202EB0111016570470D
:10079000026D22F00C02114401657047026D22F0D7
:1007A0000202114401657047026D22F001021144FA
:1007B00001657047C0680007002801DB0020704712
:1007C00008207047C0684007002801DB0020704700
:1007D0000120704710B54A88CB884C891A440B8990
:1007E00023441A448B8902EB8312CB891A440B8A67
:1007F0001A448B88002B01D002F500520B8800EBC5
:1008000083031A62488ACA8A1044898A01B1001D8A
:10081000186610BD0021018041808180C180018166
:1008200041818181C181018241828182C18270477F
:1008300000EB81000261704700EB810002677047A6
:1008400010B500EB81000146046E24F00804234437
:1008500003660846026110BD10B500EB8100014639
:10086000046E24F00804234403660846026710BDA2
:1008700000EB8100006980B2704700EB8100006FDF
:1008800080B2704700EB810020300168002A02D05E
:1008900041F4807101E021F480710160704700EB48
:1008A0008100016A21F4005111440162704700EB9C
:1008B0008100016A21F4805111440162704700EB0C
:1008C0008100016A21F4606111440162704700EB0C
:1008D0008100016A21F0C00101EB821101627047C1
:1008E00000EB8100016A21F0300111440162704780
:1008F00000EB8100016A21F00F0111440162704791
:1009000000EB8100006A4004002801DB00207047F2
:100910000120704700EB8100016E21F003011144BA
:100920000166704700EB810060300168002A02D048
:1009300041F0040101E021F004010160704710B5AD
:10094000CA884B880C8902EB03128B889B0003EB4F
:1009500004331A444B8902EB83228B8902EB032276
:100960000B8800EB830002630A8A4B8AC9891A4408
:1009700002EB0121016410BD002141808180C18012
:10098000018141818181C18101824182704710B51D
:10099000029C00EB8100016B21F01F01240104EB9C
:1009A00082021A441144016310BD00EB8100016B07
:1009B00021F00C0101EB82010163704700EB810023
:1009C000016B21F0030111440163704700EB8100CA
:1009D000016B21F0100101EB02110163704710B5AA
:1009E000029C00EB8100016B21F4F851240304EB1D
:1009F000822202EB03221144016310BD00EB81004F
:100A0000016B21F4406101EB82210163704700EB2F
:100A10008100016B21F4407101EB022101637047F9
:100A200000EB8100016B21F4805101EB0231016385
:100A3000704710B5029C03EB0222224400EB8100B8
:100A4000026410BD406D7047406D084201D0012026
:100A5000704700207047426D8A4342657047C36DFE
:100A6000002A01D00B4300E08B43C3657047836DC0
:100A7000002A01D00B4300E08B4383657047426D31
:100A8000806D02400A40002A01D0012070470020FA
:100A9000704710B50F4B5A6A0F4CA04205D122F097
:100AA000FF00084340F0807212E00C4CA04206D1D7
:100AB00022F47F4040EA012040F0007208E0084C38
:100AC000A04205D122F47F0040EA014040F080625C
:100AD0005A6210BD0000024000000740008007403D
:100AE000000008403C4800218160016101228261D0
:100AF00001604160704738498A6803799B06002B82
:100B000002DA42F0200201E022F020028A6000684E
:100B10000860000A486070470021416001210160BF
:100B200070472D4A9168002802D041F0800001E012
:100B300021F0800090607047274A9168002802D019
:100B400041F0400001E021F04000906070472248F1
:100B50000069C00701D001207047002070471E487F
:100B6000816941F00101816170471B4A20F0010059
:100B700008435061902090617047174948611020E8
:100B8000886170471448402181617047124940F0E4
:100B90002000886170471048C068C0B270470E4896
:100BA0008169006941EA0020C14340EA0140704781
:100BB00000B50246FFF7F3FF824301D0002000BDDD
:100BC000012000BD00B50246FFF7E9FF104201D049
:100BD000012000BD002000BD00000540D1480021DB
:100BE000016041608160C160016141618269C269E7
:100BF000016241628162C162704782680168037963
:100C00001144C26802EB0372114402691144426943
:100C1000008B114401EB4050C349C24A13688B4317
:100C20001844106070470021016041608160C1601C
:100C30000161416181617047BA4A116821F0F07128
:100C400001EB40501060704730B5B6490A68B64BAA
:100C5000DB1C1A40D0E900342344D0E9024504EB00
:100C60000514234444692344C4692344446A234447
:100C700090F8284003EB446313444A6822F400329E
:100C8000048C02EB44420B604A60028B0A61428B87
:100C90008A600069886230BD30B5A2494A68A34BBA
:100CA0001A40D0E900342344D0E9024504EB05148E
:100CB000234444692344C4692344048C03EB8443E0
:100CC000446A234490F8284003EB44631A444A6082
:100CD000028B4A61428BCA600069C86230BD002144
:100CE000016041608160C1600161416101834183B4
:100CF000C16101624162816270478A4A11680028BD
:100D000002D041F0010001E021F0010010607047C5
:100D1000844A5168002802D041F0010001E021F02E
:100D20000100506070477F4A116821F4F87101EBAF
:100D30000010106070477B4A516821F4F87101EB94
:100D40000010506070477749886270477549C862E3
:100D50007047744B1A6822F40272084410441860F9
:100D60007047704B5A6822F402720844104458606D
:100D700070476C4A116821F0080108441060704700
:100D8000684A516821F00801084450607047654A7C
:100D9000116821F40071084410607047614A51687D
:100DA00021F4007108445060704710B55D4B1C6819
:100DB00024F4806422441A601861996010BD10B553
:100DC000584B5C6824F4806422445A605861D960AE
:100DD00010BD5449086170475249486170475149F4
:100DE000886070474F49C86070474E48016841F0BD
:100DF0000201016070474B48416841F002014160C7
:100E000070474848806970474648C0697047454800
:100E1000016A406A01EB004070474248006A70472F
:100E20004048406A704700B50246FFF7F0FF1042A5
:100E300001D0012000BD002000BD3A49096A0142ED
:100E400001D001207047002070473649496A0142AD
:100E500001D001207047002070473248016A21F01C
:100E60000101016270472F48416A21F0010141628E
:100E700070472C48016A21F002010162704729483D
:100E8000416A21F002014162704770B5254E336A14
:100E9000756A84008004020C002904D042EA030031
:100EA00045EA144103E023EA020025EA14413062D6
:100EB000716270BD1B4B1A6A002902D042EA8000A1
:100EC00001E022EA800018627047164B5A6A002936
:100ED00002D042EA800001E022EA800058627047B6
:100EE00000B50246FFF793FF02EA9001014009B105
:100EF000012000BD002000BD0A49096A00EA9100F6
:100F00000840002801D001207047002070470549A3
:100F1000496A00EA91000840002801D0012070478A
:100F200000207047008008400000FFF10300FBF143
:100F300000210163C16241609022826101624162CD
:100F4000816202224263816381644FF440710163D4
:100F5000704770B586B004460D4601A800F086FBC8
:100F600001986B49896A6B4B01229C4205D101F0C3
:100F700007018A40B0FBF2F007E0674B9C4204D1C6
:100F8000C1F302218A40B0FBF2F02A689108B0FB5D
:100F9000F1F3990903F03F03800003EB8116B0FBE6
:100FA000F6F0801AC001B0FBF2F0022802D900204E
:100FB00006B070BD6162A362E06AA988EA886B89A5
:100FC00011432A891A4311430143E162206B4FF612
:100FD00080718843A989014321630120E8E74FF428
:100FE0001651016000218180C180018141814FF44F
:100FF000407181817047002904D0016B41F00101EB
:1010000001637047016B4FF6FE7211400163704738
:10101000002A03D0826B0A4382637047826B8A4343
:1010200082637047C06B814301D00020704701206C
:101030007047006C084201D00120704700207047C3
:10104000426C0A434264704742EAC10141637047FF
:10105000002A03D0826C0A4382647047826CC943C1
:1010600089B20A4082647047C1F308010160704789
:10107000006880B27047002904D0C16A41F00101C4
:10108000C1627047C16A4FF6FE721143C162704778
:1010900030B585B004460D46042D08D1684600F0F1
:1010A000E5FA00984FF4E111B0FBF1F02062206BFB
:1010B0002843206305B030BD002904D0016B41F006
:1010C000020101637047016B4FF6FD72114301632A
:1010D00070478069084201D00120704700207047A6
:1010E00010B50B4B9A6A0B4CA04205D142F08070B0
:1010F00020F0FF020A4308E0074CA04205D142F06D
:10110000007020F47F4040EA01229A6210BD000086
:1011100000000240000003400080034010B58368D7
:101120000268B3F1406F26D08469641E9B0E9C4018
:1011300022440A604269042A1FD0C268B2F1404FBB
:101140001FD083695B1E920F934042681A444A6025
:10115000D0E903231A43446A836823431A43036A8A
:101160001A43C3691A43836940695B1E42EA03124A
:1011700002438A6010BD0A60DCE742680C324A60B4
:10118000E6E742684A60E3E7704800214160816019
:101190004161491EC1614162C1624163C163012174
:1011A000C1647047002905D06849C96801EB001186
:1011B0001046B3E7664901EB00111046AEE701EBBC
:1011C00000111046AAE770B58AB005460C465F4E7E
:1011D0005F48B06021680091F16801EB0511019151
:1011E0004FF000610291090103914FF00851049101
:1011F000042105916168890006914FF4004107912F
:10120000A1680891E168099100EB05116846FFF7B4
:1012100085FF01207060607D0122AA40012809D06D
:10122000F2617262B2627263207D012804D0F263BF
:101230000AB070BDB261F4E7B263F9E770B5064673
:101240000C46424D4249A9602068002803D001EBBA
:101250000611FFF763FF606820B1E96801EB061132
:10126000FFF75CFF01206860607B0122B24001282B
:101270000AD0EA616A62AA62A07B38B12A63207B45
:10128000012805D0EA6370BDAA61F3E76A63F6E757
:10129000AA6370BD002101604160816001734173E8
:1012A000817370470021016041608160C16001610C
:1012B000017541757047012282402448012901D0FF
:1012C000C262704782627047012181401F484161BC
:1012D00070471E490120C86470471C4A002907D086
:1012E000D16801EB00100089C0F30910401C704761
:1012F000916801EB0010F6E710B501228240134C13
:10130000D2B2092920D2DFE801F01F05090D101320
:1013100016191C00206800F0010010BDE06C00F000
:10132000010010BDA06A104010BD206A104010BD21
:101330002069104010BDA069104010BD206B104006
:1013400010BDA06B104010BD002010BD00800240F9
:1013500000080020FE4A002903D0D1690143D16171
:101360007047D1698143D1617047F94AD16821F44E
:1013700040710143D1607047C0F34211012909D087
:10138000F449C96B00F01F0201209040084204D0CC
:1013900001207047EE490968F4E70020704708B55E
:1013A000002000904FF4C0631720FFF7E5FF00997D
:1013B000491C00910099994201D20028F4D01720CD
:1013C000FFF7DAFF08B1012008BD002008BDE2499F
:1013D0000860704700B50120FFF7F9FFFFF7DFFF56
:1013E0000020FFF7C2FFDA48C1680021C1604268EF
:1013F000416082688160026901614269416182697C
:101400008161D649C16100BD00B5FFF7E3FF01214D
:10141000C806FFF79FFFCF48C16B41F48101C1634C
:10142000C16B01F48101C16300BDC9498A6822F022
:1014300003028A60012806D0022803D1886840F0A0
:10144000030088607047886840F00100886070473A
:1014500008B5002000904FF4C0632220FFF78CFFF6
:101460000099491C00910099994201D20028F4D0BA
:101470002220FFF781FF08B1012008BD002008BD30
:10148000B449CA6B22F00302CA63012806D00228BD
:1014900003D1C86B40F00300C8637047C86B40F0CD
:1014A0000100C863704708B5002000904FF4C06386
:1014B0000D20FFF761FF0099491C009100999942A6
:1014C00001D20028F4D00D20FFF756FF08B101200B
:1014D00008BD002008BD9F4AD16B21F07C5141EA34
:1014E0000060D06370479C491C3908607047994A76
:1014F000D16B21F4F81141EA0040D063704708B580
:10150000002000904FF4C0631520FFF735FF0099CD
:10151000491C00910099994201D20028F4D015206D
:10152000FFF72AFF08B1012008BD002008BD884A46
:10153000D36823F003030343D360506820F4706042
:1015400040EA012050608648D0F88810002904D075
:10155000012140F88C1F002101607047814908601B
:10156000704781490860704708B5002000904FF42B
:10157000C0632120FFF700FF0099491C00910099EA
:10158000994201D20028F4D02120FFF7F5FE08B1DE
:10159000012008BD002008BD6D4AD16821F0F0018E
:1015A00041EA0010D0607047694A136923F00303D1
:1015B00003431361506820F0F00040EA01105060CE
:1015C0006748D0F88010002904D0012140F8841F1A
:1015D00000210160704765490860704764490860F0
:1015E000704708B5002000904FF4C0632020FFF73B
:1015F000C3FE0099491C00910099994201D200282C
:10160000F4D02020FFF7B8FE08B1012008BD00206B
:1016100008BD5849086070475749086070474C4AF0
:10162000516921F03301014351617047484A5169C2
:1016300021F4706141EA0020506170474F49086011
:101640007047434A916921F0F00141EA001090612E
:1016500070474B49086070473D4A916921F00F017E
:101660000143916170474749086070472DE9F04F89
:10167000DFF8ECB0DBF88411DFF80CA100294FEAA9
:101680004A0501D0514600E02946DBF8802102B12D
:1016900049080B46DBF88821DFF8B4C02AB1DCF832
:1016A0000420C2F30322521C5343DCF80C204FF4F5
:1016B0000048C2F3012249F64049012752B1012AEC
:1016C0000AD0022A1BD0C0F80090DBF80422CAB16D
:1016D000524618E00560F8E7DCF80C204FEA1212D9
:1016E000120701D41A4608E0DCF80C20C2F30212FB
:1016F000521C07FA02F2B3FBF2F20260E5E7C0F80F
:101700000080E2E72A46DBF8004204B152081446A2
:10171000DBF808622EB1DCF80460C6F30316761C11
:1017200074432646DBF810B2BBF1000F00D07608F8
:101730004660DCF8186036095FEA067B07D506F0DC
:10174000070B0BF1010B07FA0BF6B5FBF6F51DE0E5
:101750000000024000800D40D807B0431000000890
:101760000000404288014042880040420802404256
:10177000800040422002404210024042B4024042F7
:10178000240340422003404200093D00C560DCF8CC
:1017900018605FEA067B07D506F0070B0BF1010B1B
:1017A00007FA0BF6BAFBF6FAC0F810A0DCF81460E2
:1017B00016F0030604D0012E1AD0022E1AD02146AC
:1017C000DCF81420C2F30112B2B1012A16D0022AA9
:1017D00000D02946DCF81420120A130705D502F0C0
:1017E0000702521C9740B1FBF7F18160BDE8F08F12
:1017F0001146E5E71946E3E74146EBE74946E9E7E5
:101800001FB502F09CFE02F0CEFE01F087FF03F050
:101810007FF803F0A3F803F0F3F802F020FF03F0E1
:10182000AAF803F023F803F02CF800F014FA02F001
:1018300092FC04F01CFC49480125E90300240160E6
:1018400000F098FD502003F0CFF9552003F0CFF9B8
:10185000434804604460CDE9005402940023802290
:1018600040A14248039405F05EFB4148CDE90104E4
:101870000226002380223FA141480096039405F0F0
:1018800052FB009401940294002380223DA13F4822
:10189000039405F048FB0320CDE9000402940023E3
:1018A00080223BA13D48039405F03DFBCDE9005467
:1018B0000294002380223AA13C48039405F033FBB4
:1018C000CDE9006402940023802239A139480394B1
:1018D00005F029FBCDE9005401231E020294324693
:1018E00035A13848039405F01EFBCDE9005402945D
:1018F0000123324634A13748039405F014FBCDE9A7
:10190000005402940223324633A12E48039405F07A
:101910000AFBCDE9005402940223324631A12D483E
:10192000039405F000FBCDE90054029400238022CB
:101930002FA13348039405F0F6FA00940194029421
:10194000002380222FA13348039405F0ECFA03F022
:10195000CDF903F000FA05F0CCFDFEE700E100E070
:101960008800002047554920746F7000E137000857
:101970002C000020436F6E76657274657200000063
:10198000C32B000853657276696365000543000840
:101990004469737061746368657200007D2F00088C
:1019A000627574746F6E7320746F70000D4F000851
:1019B000414443002B1A00085541525431205258DB
:1019C0000000000057560008554152543120545829
:1019D00000000000D358000855415254322052589C
:1019E00000000000554152543220545800000000BD
:1019F000536F756E64206472697665720000000032
:101A0000EB430008454550524F4D2064726976659E
:101A100072000000A5600008684880887047674829
:101A2000C08870476548C068704708B50022042127
:101A3000052004F08AFF614C206180B1032200215F
:101A4000012004F082FF606120B100231A4619468C
:101A500005F012F8606918B14FF0FF3536E0FEE787
:101A6000FEE70320207000232A461946606905F02E
:101A7000E8F82089800800EB800081B2A1806089AD
:101A80008008E0804E4A126F526B927B520707D556
:101A900000EB80004FF6FF7202EA4000E08002E0B7
:101AA00000EB8000E080E08841434FF47A7091FBC6
:101AB000F0F0E06043480D210170052141700146BE
:101AC000414800231A46006804F0D6FF00232A4646
:101AD0006946206905F0B5F800980128F6D1C0E7FD
:101AE00070B5364C00222146607801250426C9785D
:101AF000032838D005DC50B101280ED0022804D1CB
:101B00002AE0102840D0112845D0627070BD20789E
:101B1000A0700028FAD0657070BDA07800F00501B3
:101B2000012908D081070DD520F00200A0701020F7
:101B30006070628170BD20F00500A07002206070AE
:101B4000228170BD627022706069BDE87040002320
:101B50001A46194605F024B80420FFF7E4F8E670A9
:101B60000320607070BD042904D2FFF74AF921896F
:101B700008442081E07828B1FFF737F9E078401E6B
:101B8000E07070BD657070BD0720FFF7CCF8E6709F
:101B90001120607070BD042904D2FFF732F9618909
:101BA00008446081FFF721F9E07828B1FFF71DF9BB
:101BB000E078401EE07070BD657070BD04000020CC
:101BC0004C0C0020000C00204000002070B50024C8
:101BD0004C4D686820F0C00068600F2001F0B7FD30
:101BE000064649480068810600D41024400701D405
:101BF00044F480742868C10701D144F001048107CE
:101C000001D444F00204410701D444F00404C106A5
:101C100001D444F00804800601D444F02004304686
:101C200001F09AFD0028FAD12868696841F0C001E6
:101C30006960010601D444F04004400601D444F038
:101C400080043248048070BD314800214180818089
:101C5000C1800181704700202D4A00210A3222F8FC
:101C60001010401CC0B20928F9D3EDE72DE9F0416E
:101C700004F0CAFDFFF7AAFF04F0D2FD2348008854
:101C800020F00F05FFF7E0FF0021214C01274FF660
:101C9000FF7C04F10A0607FA01F082B236F811005F
:101CA0000CEA4000154201D040F0010000F00303AF
:101CB000012B04D0022B06D0032B19D111E063882D
:101CC0001343638014E0A3881343A380C0F3880305
:101CD000A3F58078B8F1FF080AD0E3881343E380C6
:101CE00006E0C0F38803FF2B02D12389134323812D
:101CF00026F81100491CC9B20929CCD32580BDE8BA
:101D0000F081000000000B4000800A401C00002011
:101D1000100C00201E48006840F30000401C704773
:101D20001C48006840F38020401C70471A4A012874
:101D300003D004211046FEF777BC04211046FEF7BD
:101D400068BC15480068C0F380007047124A01283B
:101D500003D008211046FEF767BC08211046FEF7A5
:101D600058BC0B4A012803D002211046FEF75CBC88
:101D700002211046FEF74DBC084A012803D040213D
:101D80001046FEF751BC40211046FEF742BC000051
:101D900000800A4000000B4000800E4000800C4094
:101DA000FD4890F87400012801D000207047012000
:101DB0007047012803D0F848383040887047F6480B
:101DC000FBE7012803D0F4483830C0887047F24858
:101DD000FBE7012803D0F048383080887047EE4890
:101DE000FBE7012804D0EC48383019B1408970472E
:101DF000E948FAE700897047012806D0E6483830FC
:101E000029B1007CC0F340007047E348F8E7007C4C
:101E100000F001007047012805D0DF48383021B1BB
:101E2000223000887047DC48F9E71230F9E70128D2
:101E300005D0D948383021B1223080887047D64843
:101E4000F9E71230F9E7012805D0D348383021B13D
:101E5000223040887047D048F9E71230F9E701286E
:101E600006D0CD48383029B122302AB100897047D8
:101E7000C948F8E71230F8E7C0887047012808D051
:101E8000C548383039B122303AB1807BC0F34000C8
:101E90007047C148F6E71230F6E7807B00F001009A
:101EA0007047BD4890F8750000F001007047BA48CF
:101EB00090F87500C0F340007047B748B0F876005E
:101EC0007047012806D0B4483830406B807BC0F39F
:101ED00080007047B048F8E7AF48006F007800F026
:101EE00001007047AD48006890F904007047AB49A5
:101EF0000028096802D091F90600704791F90500A1
:101F0000704710B502460020937BDC0704D0D488CC
:101F10008C4201DB214602209B0705D513898B42A9
:101F200002DC194640F0010053888B4202DB19465F
:101F300040F0080093888B4202DC194640F0040010
:101F400013888B4202D0118040F0100010BD30B5D4
:101F500000244589954201DB2A460824858995425B
:101F600002DC2A4644F00404857B71B10189914268
:101F700003D1C5F34001994205D0028163F34105C5
:101F8000857344F01004204630BDC188914203D1CE
:101F900005F001019942F6D0C28063F30005857314
:101FA00044F01004EFE7012803D07B483830801C50
:101FB000A7E77948FBE770B50546012D0BD0764CB5
:101FC0003834A01CFFF7C3FF064661882846FFF798
:101FD000EAFF304670BD704CF3E7012805D06E482B
:101FE000383021B1223011468BE76B48F9E71230C7
:101FF000F9E72DE9F0410E4611461A46069B0546C3
:10200000012D0FD0644C383476B122342046FFF7CE
:102010009EFF0746228831462846FFF7DEFF3846F6
:10202000BDE8F0815C4CEFE71234EFE730B50546D0
:10203000022A02DA0222082007E04FF4FA708242F4
:1020400002DD0246042000E01020534B75331C785B
:1020500065F3000461F341041C70A3F8012030BD56
:10206000012806D0002804D04B48006F007800F00B
:1020700001007047002807D0012805D04648006FAE
:10208000406B807BC0F38000704745484249006840
:10209000891C02880A804288CA8082880A818379E2
:1020A0008A7B63F300028A73C37963F341028A7304
:1020B000028A0A82428ACA82828A0A83837D8A7F4E
:1020C00063F300028A77C37D63F341028A77028B50
:1020D0000A84428BCA84828B0A85837F91F82E20E2
:1020E00063F3000281F82E20C37F63F3410281F87D
:1020F0002E20891E90F82020002A53D001F12202C0
:102100003A3141F8062C02890A804289CA808289C4
:102110000A81837B8A7B63F300028A73C37B63F348
:1021200041028A73428C0A82828CCA82C28C0A83E0
:1021300090F828308A7F63F300028A7790F829307C
:1021400063F341028A77428D0A84828DCA84C28DEC
:102150000A8590F8303091F82E2063F3000281F860
:102160002E2090F8313063F3410281F82E203A3965
:1021700090F83220C2B1084A5A3241F86C2F10F858
:10218000343F4A7A63F300024A72437863F34102B0
:102190004A724088488170474C0C0020E0010020C2
:1021A000E4010020FE4AABE7FD4A3832E5E700B51E
:1021B0000120FFF7FEFDFB4B19680880002101207C
:1021C000FFF70FFE1968488001210846FFF709FE56
:1021D0001968888000210120FFF70EFE19688871B8
:1021E00001210846FFF708FE1968C8710021012087
:1021F000FFF711FE19680882002211460120FFF73F
:102200002EFE19684882012200211046FFF727FEA2
:1022100019688882002211460120FFF72FFE1968F5
:102220008875012200211046FFF728FE1968C8753D
:1022300001210846FFF7EFFD1968088301210022FC
:102240000846FFF70CFE1968488301221146104624
:10225000FFF705FE19688883012100220846FFF771
:102260000DFE19688877012211461046FFF706FE19
:102270001968C8770120FFF724FE196881F820004B
:102280000020FFF796FD1968088100210846FFF736
:10229000A8FD1968488101210020FFF7A2FD1968F7
:1022A000888100210846FFF7A7FD1968887301217E
:1022B0000020FFF7A1FD1968C87300210846FFF749
:1022C000AAFD19684884002211461046FFF7C7FD91
:1022D00019688884002101220846FFF7C0FD1968AB
:1022E000C884002211461046FFF7C8FD196881F81E
:1022F0002800002101220846FFF7C0FD196881F877
:10230000290001210020FFF786FD19684885002279
:1023100001211046FFF7A3FD1968888501221146A7
:102320000020FFF79CFD1968C88500220121104696
:10233000FFF7A4FD196881F8300001221146002042
:10234000FFF79CFD196881F831000020FFF7B9FD07
:10235000196881F83200FFF7A4FD196881F834008C
:10236000FFF7A5FD196881F83500FFF7A6FD19688C
:10237000C88600BD10B58A48782112380BF034FFAA
:10238000874C0A3414F81C0C40F0010020F00200C5
:1023900004F81C0C002024F8180C42F2107124F8E8
:1023A000161C24F8100C24F80E1C217921F00401CD
:1023B000217124F8080C44F6206124F8061C2080C2
:1023C0006180227D42F00402227520814A006281F0
:1023D00020826282227F22F0010222F00202227712
:1023E000208461842085618594F83C2022F00402D9
:1023F00084F83C20208661862087618794F84C20F1
:1024000042F0040284F84C20A4F84000A4F84210E2
:10241000A4F84800A4F84A1094F8590040F00100CC
:1024200020F0020084F859000A20A4F85A005C4801
:10243000A06138302065123860651C3C00F083FCD8
:1024400000F039FC0028FBD0206F007800F001007C
:10245000FFF77CFC206F406B807BC0F38000FFF7B0
:1024600080FC206F408800F0E5FB206F406B817B93
:102470000088C1F3800100F0F3FB206F0078BDE815
:102480001040C0F34000FFF777BC05230B70042316
:102490004B70002802D08078087100E00B714A71FF
:1024A00000208871C87176E630B43D4B0524223B8C
:1024B0001C7004245C70002802D08078187100E041
:1024C0001C71002058719A71D97137480023344922
:1024D000006830BC1A46223904F0CEBA40680028A1
:1024E00005D0002300681A46194604F0C5BA52E622
:1024F0002E4800784FE62DE9F04700250627284EA4
:10250000A846123E4FF0010996F87440316F082832
:102510000DD2DFE800F02B78550C040493AE012CAB
:1025200007D0042C0FD0022C01D186F87480BDE8AE
:10253000F08700F008FC86F87480BDE8F0470122BF
:1025400000210846B0E700F0FEFB306F0078C0F3D2
:102550004000FFF711FC86F874800220FFF7C8FFE7
:10256000BDE8F0470522002108469DE734B1022C62
:1025700004D0BDE8F0470A483238AFE70878C0F326
:102580004000FFF7F9FB00F0C7FB102814D001252D
:1025900003483238FFF7A2FF3A462946004807E0D1
:1025A0005E0C0020E40100204000002020000020FC
:1025B000BDE8F047323877E786F874900027E7E700
:1025C000042C03D00878C00709D00225FE48FFF785
:1025D00085FF3A462946BDE8F047FB4864E7012CF1
:1025E00004D000F099FB102800D00125002DEDD17A
:1025F0000020FFF7C1FB0120FFF77AFF042086F8D7
:1026000074000327E2E700F09EFB86F87480042C38
:102610000FD0306F0078C0F34000FFF7ADFB01240E
:10262000E948FFF75BFF22462946BDE8F047E64848
:102630003AE70220FFF75CFF0524F1E7022086F865
:10264000740000F08EFB102802D000F07CFB012506
:10265000022229460020FFF727FF042C7FF467AFF2
:102660000220FFF745FFBDE8F0470522002108469C
:102670001AE7D648C0F8089000F10801D4480023B2
:102680001A460068BDE8F04704F0F6B910B5CE4828
:102690004078002807D0012837D1FFF788FDBDE832
:1026A0001040C9481AE70520FFF725FF04F0ACF8F1
:1026B000FFF7EBFC04F0B4F802E0012004F0B2FDF7
:1026C00000F0F9FA0028F8D0BF4C2034206F406B9E
:1026D000807BC0F3800000F00AFB102811D1206F2E
:1026E000408800F0A7FA206F406B817B0088C1F31F
:1026F000800100F0B5FA206F0078C0F34000FFF7CA
:102700003BFBBDE81040B048E8E610BD2DE9F84FAE
:1027100000260025AC4FDFF8BCA23846797807F1D7
:102720002008007A07F1100908F138040A297DD23F
:10273000DFE801F07CFDFC053B82BD7CFBFAFFF786
:102740008FFC387204F060F8387AF968FFF72BFCD8
:10275000044604F065F8E0060AD5D8F87010387A17
:102760000A7802F00102904202D1488800F062FA31
:102770009548FFF7B3FE9449032210319248FFF7C2
:1027800084FE397A99F8080061F3000089F808009E
:1027900089F80640DAF8000001B00023BDE8F04FE8
:1027A00089491A46103104F067B9FFF759FC3872AD
:1027B000787AFFF75FFC787204F026F8797A387A35
:1027C000FA68FFF70AFC044604F02AF8E00611D57F
:1027D000D8F87010387A0A7802F00102904209D1D4
:1027E0004A6B787A917BC1F38001884202D11088CC
:1027F00000F036FA7448FFF771FE73490422103175
:102800007148FFF742FE397A99F8080061F3000039
:10281000797A61F3410089F8080089F806400023BD
:1028200069491A461031DAF8000000E0C7E101B04A
:10283000BDE8F04F04F020B9FFF712FC387203F046
:10284000E3FFBB7A797A387AFA68FFF7B4FB04467B
:1028500003F0E6FFE0060AD5D8F87010387A0A7857
:1028600002F00102904202D1488800F0E3F9564894
:10287000FFF734FE5449052210315348FFF705FE97
:10288000397A99F8080061F30000797A61F38200DF
:1028900089F8080089F80640DAF8000001B0002342
:1028A000BDE8F04F48491A46103104F0E5B8FFF78B
:1028B000D7FB3872787AFFF7DDFB787203F0A4FF5C
:1028C000F87A0090BA7A797A387AFB68FFF791FB48
:1028D000044603F0A5FFE00611D5D8F87000397A58
:1028E000027802F00102914209D1406B7A7A817B31
:1028F000C1F380018A4202D1008800F0B1F9324868
:10290000FFF7ECFD3049062210312F48FFF7BDFDDF
:10291000397A99F8080061F30000797A61F341008F
:10292000B97A61F3820003E018E1F7E083E00EE09A
:1029300089F8080089F80640DAF8000001B00023A1
:10294000BDE8F04F20491A46103104F095B8FFF762
:1029500087FB3872D8F87010097801F001018842BD
:1029600050D00420FFF7C7FD02E0012004F05AFC1C
:1029700000F0A1F90028F8D0387A00F0A1F9102869
:1029800001D001263FE003F03FFF387A012801D152
:102990000D4C2034C8F8704003F042FF02E00120E3
:1029A00004F040FC00F087F90028F8D0D8F8700057
:1029B000406B807BC0F3800000F099F9102510284F
:1029C0000AD001261FE000002C0C0020200000206F
:1029D0001400002040000020D8F87000408800F06B
:1029E00029F9D8F87000406B817B0088C1F3800121
:1029F00000F036F9D8F870000078C0F34000FFF717
:102A0000BBF900E00F258848FFF768FD86490122E1
:102A100010318548FFF739FD89F8065089F80760BD
:102A2000DAF8000001B00023BDE8F04F7E491A46F5
:102A3000103104F021B8FFF713FB3872787AFFF7F2
:102A400019FB7872397A012901D1774C2034626BF5
:102A5000927BC2F38002904240D0D8F87000007898
:102A600000F0010081422BD198F87400012825D094
:102A7000042803D122E0012004F0D4FB00F01BF96C
:102A80000028F8D0787A00F032F9102801D0012619
:102A900025E003F0B9FE787A68B104F122006063A2
:102AA00003F0BEFE606B817B0088C1F3800100F003
:102AB000D7F8102513E004F11200F0E702260EE02B
:102AC00003F0A2FE787A30B104F12200606303F0D3
:102AD000A7FE102503E004F11200F7E70F25524886
:102AE000FFF7FCFC5049022210314F48FFF7CDFCA4
:102AF000397A99F8080061F3000089F8080089F82C
:102B0000065089F80760DAF8000001B00023BDE83C
:102B1000F04F45491A46103103F0AEBF03F074FE82
:102B2000797A387AFA68FFF781FA044603F078FE7A
:102B30003D48FFF7D3FC3C49082210313A48FFF7E3
:102B4000A4FC89F80640DAF8000001B00023BDE8D3
:102B5000F04F35491A46103103F08EBF03F054FE92
:102B60003248397A00680171797A4171B97A817194
:102B700003F056FED8F87000408800F05BF8D8F8F3
:102B80007000406B817B0088C1F3800100F068F821
:102B90002548FFF7A3FC2449092210312248FFF7FA
:102BA00074FC102089F80600DAF8000001B0002358
:102BB000BDE8F04F1C491A46103103F05DBFBDE877
:102BC000F88F00221021052003F0BFFE184D686029
:102BD000A0B1002103F088FE134C4FF0FF36002314
:102BE00032461149686804F02CF820780528F6D29E
:102BF000DFE800F011050E031500F0E7FEE760784E
:102C000010B1FFF783FDEAE7207AFFF774FCE6E7EF
:102C1000FFF73CFDE3E70720FFF76DFCDFE7062049
:102C2000FFF769FCDBE700002C0C0020E00100202E
:102C3000200000200521B0FBF1F0C64A126892F98D
:102C4000042092FBF1F10844002801DA002004E09E
:102C5000B0F5805F01DB40F6FF7080B201F0BEBFCF
:102C600030B4BC4A4FF480556C1E136801290BD058
:102C70000521B0FBF1F093F9062092FBF1F10A185F
:102C8000002A11DA002212E00A21B0FBF1F093F9D8
:102C9000052092FBF1F10A18002A01DA002206E071
:102CA000AA4204DB224602E0AA4200DB224690B29E
:102CB00030BC01F096BFA848007800F010007047C3
:102CC00010B5A54C2178C90701D0132010BD21787B
:102CD000C90601D4112010BD72B6FFF737F862B6ED
:102CE0000820607060780028FCD1102010BD10B55D
:102CF000994C2178C90701D0132010BD2178C9064D
:102D000001D4112010BDFFF72CF808206070607806
:102D10000028FCD1102010BD8F480178C90701D0D0
:102D2000102070470178490701D5122070470178BB
:102D3000C90601D411207047012141704178002952
:102D4000FCD110207047844801788907002901DAF6
:102D5000102070470221417041780029FCD11020D9
:102D600070477D480178C90701D0112070470421C0
:102D7000417041780029FCD1102070472DE9F843BB
:102D80004FF00008CDF80080FEF7CAFF724D80B901
:102D9000287880060DD47148006850B101236A4636
:102DA0006F4903F0FDFE012803D1287840F0200090
:102DB000287028784FF4FA7710F02A0F01D0AF80EE
:102DC00003E0A88808B1401EA880A88848B1002464
:102DD000644E54B1E88808B1401EE880012C09D047
:102DE00016E0FEF797FF0446F2E7B6F876004008D3
:102DF000E880F3E7A88958B996F87500800707D5E9
:102E00005A48012300225849006803F0C9FEAF81E7
:102E10004FF04B09012C16D1E888A0B996F875003F
:102E2000C00710D0287820F001002870287840F0E2
:102E300006002870A5F808904E48012300224C494E
:102E4000006803F0ADFE6878400703D5287820F0CD
:102E500004002870687880070DD5287880070AD488
:102E6000287820F001002870287840F002002870AF
:102E7000A5F8089010E06878C0070DD02878C00742
:102E80000AD12878400707D4287820F0020028705B
:102E9000287840F0010028706878000701D53220BA
:102EA00028816878C00600D56F81A878C00704D053
:102EB000287840F00800287006E0A878800703D53D
:102EC000287820F00800287085F8018085F80280B5
:102ED00085F80380287810F02A0F03D00020FEF731
:102EE00025FF05E02878C00702D00120FEF71EFF6D
:102EF0000020297801F02101012902D1698901B955
:102F00000120012C03D096F87410022901D140F061
:102F1000020001F0D5F9288930B1401E28812878B7
:102F200020F01000287003E0287840F0100028708E
:102F3000688908B1401E6881A88908B1401EA8812F
:102F40000098002803D00C494FF080500860BDE87D
:102F5000F8830000E0010020300000204000002045
:102F600000FC00084C0C00201CFC00086C00002039
:102F7000E0FB00082400002004ED00E092B00024F3
:102F8000002210210A2003F0E0FCFE4D28600028FA
:102F90007ED003220021012003F0D7FC686020B11D
:102FA00000231A46194603F067FD6868002870D0B0
:102FB00003220021012003F0C8FCA86020B10023F7
:102FC0001A46194603F058FDA86800287ED0002351
:102FD0001A461946EB4E03F034FE322004F022F973
:102FE00005208DF80C0000270497E74D00231A46B2
:102FF00003A9286803F040FDE448077007A9816031
:1030000006F1080BC0F804B00146E1484FF0FF3963
:1030100000234A46006803F02FFD00234A46194664
:10302000B06803F00EFE042008909DF81C000028F4
:103030007ED000200990D74E00231A4608A9306898
:1030400003F01AFD4FF002088DF828808DF82970E2
:1030500000200B90D0484FF0FF3900234A460AA9C0
:10306000006803F009FD03208DF80C000020049097
:10307000C54D00231A4603A9286803F0FDFC7D20F6
:1030800004F0D0F80320089000231A4608A901E0B4
:1030900060E060E03046006803F0EEFC4FF0060AA6
:1030A000CDF820A08DF824809DF81C0000F00C00C5
:1030B0008DF825009DF83C008DF826003046002351
:1030C0004A4608A9006803F0D7FC00E044E0DFF8B6
:1030D000CC82CDF81880DFF8C89200231A4606A9E2
:1030E000D9F8000003F0C8FC8DF80CA000231A46A4
:1030F00003A9286803F0C0FCA4490120143108701A
:10310000A84800231A46006803F0B6FCA6489F4969
:1031100000231A461431006803F0AEFC99499B481D
:10312000091D41604FF0FF3A002352460EA900E00E
:1031300013E0944D286803F084FD9DF83800401F8B
:103140000928EFD2DFE800F0F22A8A41CD050BF022
:10315000EF00E7E7FEE7FEE7FEE701206AE78B48BE
:103160002030017821F07F01091D01709DF83900A0
:1031700001280AD00228D5D18C48844900231A4658
:103180002031006803F078FCCCE789487F490023B0
:103190001A462031006803F06FFCC3E7002CC1D150
:1031A000012400231A461946686803F04AFD77484F
:1031B000032101709DF83C10017201467448002300
:1031C0001A46006803F058FCACE79DF83D00E0B1FA
:1031D0007848069000231A4606A9D9F8000003F0A3
:1031E0004BFC062008908DF824709DF83D008DF86A
:1031F00025009DF83C008DF826000023524608A9C2
:10320000306803F039FC00248CE702208DF8280098
:103210008DF82970CDF82CB05F48002352460AA9DA
:10322000006803F029FC002352461946A86803F001
:1032300008FD03208DF80C00CDF810B05248002393
:103240001A4603A9006803F017FC002352461946EA
:10325000A86803F0F6FCCDF81880BBE7002C93D1EA
:10326000012400231A461946686803F0EAFC02F0BC
:10327000F7FE02208DF8280001208DF82900CDF8F6
:103280002CB0454800231A460AA9006803F0F4FB55
:1032900000235A1E1946A86803F0D3FC4FF0040A15
:1032A0008DF80CA0CDF810B0374800231A4603A9BA
:1032B000006803F0E1FB00235A1E1946A86803F0DA
:1032C000C0FC324880F800A09DF83C1001721099B3
:1032D000C16001462E4800231A46006803F0CCFB6B
:1032E00020E79DF83D00D8B13249069106210891AA
:1032F00001218DF824108DF825009DF83C008DF8F3
:1033000026000023524608A9306803F0B5FB0023CD
:103310001A4606A9D9F8000003F0AEFB002401E725
:10332000CDF81880E2E7BDE0DDE0FFE79DF83D0065
:1033300028B19DF83E10C90601D5012200E0002207
:1033400028B99DF83E10062901D0012100E0002196
:1033500011439DF83C20032A3AD091B105210891F0
:103360008DF824009DF83E008DF825009DF8400062
:103370009DF8261060F30001C0F3400262F34101A2
:103380001AE025E04000002098000020C40C002036
:10339000E801002058000020240000203200010035
:1033A0006C000020E0000020E4000020D401002098
:1033B000D001002032000200C0F3800060F38201DF
:1033C0008DF8261000231A4608A9306803F054FB34
:1033D0009DF83D1029B19DF83E00C00601D501229F
:1033E00000E0002229B99DF83E00062801D0012006
:1033F00000E00020104330B3A348027822F07F029F
:10340000921C22F08002027001719DF8401001F0C0
:1034100001024271C1F3400181719DF83C00012815
:1034200006D09A4800231A469749006803F024FB07
:103430009DF83C00022806D0954800231A46924980
:10344000006803F019FB9DF83C0001283FF481AEB1
:103450000228FBD006979DF83D0058B19DF83E002C
:10346000010702D08B48069011E0C0060FD5CDF8B9
:1034700018800CE09DF83F0018B18648801C06902B
:1034800005E09DF83E00022801D183480690069889
:103490000028DBD000231A4606A9D9F8000003F063
:1034A000EBFA3FE60820089000231A4608A9306886
:1034B00003F0E2FA7448017821F07F01891C21F0C1
:1034C00080010170072101710146704800231A46EE
:1034D000006803F0D1FA6E4800231A466A49006872
:1034E00003F0CAFA1EE634B16C4800235A1E19468E
:1034F000406803F0A6FB02F0B3FD02208DF828001F
:1035000001258DF82950CDF82CB0654800231A46C6
:103510000AA9006803F0B0FA0023604C5E1E324630
:103520001946A06803F08DFB04208DF80C00CDF83F
:1035300010B05C4800231A4603A9006803F09CFA07
:10354000002332461946A06803F07BFB00231A468D
:103550001946606803F075FB4B482038057002A9D6
:10356000816001A9C16001464F48002332460068CE
:1035700003F082FA002332461946606803F061FBCB
:1035800072B641F2883000F0E2F80446002001F003
:103590002BFB002001F022FB002001F022FB002089
:1035A00009F065FA002009F043FA404809F08CFB65
:1035B0000022012311463EA009F05AFC01230022FB
:1035C00060213EA009F054FC0123222260213EA08C
:1035D00009F04EFC3E4809F077FB9DF80800E0B387
:1035E00001230C2279213BA009F042FC9DF8040044
:1035F000A0B3112841D001232E22792135A009F052
:1036000037FC374800F0F5FD204600F0A5F800280B
:10361000FAD1FEF79BFB0020FEF7A3FB0020FEF78C
:10362000ABFB304800F093F80446204600F094F8D5
:103630000028FAD12C48FCF70BFF2C48FCF708FFB8
:103640002B48FCF705FF2B48FCF702FF2A48FCF744
:10365000FFFE2A48FCF7FCFEFEE700E006E001233F
:103660000C22792126A009F003FCBFE701232E22BA
:10367000792123A009F0FCFBC3E701232E22792145
:1036800022A009F0F5FBBCE7E40C0020D0010020EB
:10369000D40100203200020034000300400000206A
:1036A0002400002098000020E8010020602101088B
:1036B000506F776572204F46460000005365747462
:1036C000696E67730000000050726F66696C650078
:1036D000881201084E4F5420736176656400000023
:1036E0002066002040420F0000800A4000000B408E
:1036F00000800B4000000C4000800C4000800E4019
:103700007361766564204F4B000000006E6F74207B
:103710007265717572696564000000001148016886
:10372000C9070AD1016841F0807101600E4800218B
:103730004160016841F00101016070470A4840683A
:103740007047081A704708494968081A70470649BF
:10375000496801EB4010704703494968081AC00FD7
:1037600070470000FCED00E0001000E01A49087806
:103770008006000E0870194A1368DB05002B02DA78
:1037800040F0010008701068800503D5087840F00B
:1037900002000870087800F00F000F280CD2DFE854
:1037A00000F00B0C080B080B0B0C0C0B0B080B0898
:1037B0000C004888401E488070474888401C48805C
:1037C000704705498A88488820F003008880801A5D
:1037D00000B28010C88070474C00002000000B40F1
:1037E0001FB5002208210A2003F0AFF8FE4C6060EC
:1037F000E0B303220021012003F0A7F8A06020B16C
:1038000000231A46194603F037F9A06878B300235D
:103810001A46194603F015FA03220021012003F08D
:1038200094F8E06020B100231A46194603F024F909
:10383000E068E8B100231A46194603F002FAEB48A3
:1038400003214170E8490831416004F07CFAE848FE
:1038500007F025FB4FF0FF3500232A4602A96068D8
:1038600003F0EFF902980E28F6D202E00BE00BE02D
:103870000BE0DFE800F021363E0B29439707910764
:1038800007070794E8E7FEE7FEE7FEE704F0FAFE25
:1038900006F0B2FC06F0C4FC06F0F2FC06F004FDF3
:1038A00006F0DCFCF0208DF800006946D04807F0F7
:1038B0003CFA07F082FACFE707F067FC07F032FB2B
:1038C000CC4800F096FCC7E7F1208DF80000039883
:1038D0008DF801006946C64807F027FA07F06DFA2F
:1038E000BAE7BDF80C00C1B2BDF80E0007F02CFC21
:1038F000B2E7BDF90C0007F037FCADE79DF80C000E
:103900000928A9D2DFE800F005423B060D1625057F
:103910004500A1E79DF80E0000F0010004F069FEEB
:103920009AE79DF80E00C0F3400100F0010004F09A
:1039300072FE91E79DF80E00C0F3800100F00100D7
:1039400005F0FDF99DF80E0000F0010004F051FEB5
:1039500082E79DF80E00410701D4012200E0022217
:10396000C0F3400100F0010005F0B5F99DF80E002C
:10397000C0F3400100F0010004F04DFE6CE79DF83B
:103980000E0000F0010004F05CFE65E704F07AFE32
:1039900062E706F031FC5FE704F0D6FE5CE704F076
:1039A000E6FE59E79DF80C0020B101282FD002282F
:1039B00069D14EE09DF80D0060B1082820D01E238B
:1039C00000220321022006F0AAFF9DF80E0006F057
:1039D00037FC58E000221E231146104606F09FFFD8
:1039E00004F050FE0321102005F0A9F91021032254
:1039F000084605F070F906F0FFFB06F041FC42E0D6
:103A000002211E230022084606F089FFDDE79DF80B
:103A10000D0060B1082815D01E23002203210220CA
:103A200006F07DFF9DF80E0006F00AFC2BE0002258
:103A30001E230121104606F072FF9DF80E0006F0CD
:103A4000FFFB20E002211E230022084606F067FF4C
:103A5000E8E702F019FB80B19DF80D0030B11E239C
:103A600000220421012006F05AFF0CE000221E2350
:103A70000521104606F053FF05E000221E23042115
:103A8000104606F04CFF00202070E5E6574A01235F
:103A90001C3A1370507003209070012902D000204E
:103AA0005060704750480C305060704770B5044605
:103AB0000D4601210220FFF7E9FF4C481C38047233
:103AC000457201464C4800235D1E2A46006802F0FC
:103AD000D3FF454800232A461946C06803F0B1F8D1
:103AE0002046BDE8704004F0ACBD70B504460D46FC
:103AF00001210320FFF7CAFF3C481C380472C5604F
:103B000001463D4800235D1E2A46006802F0B4FFCE
:103B1000354800232A461946C06803F092F820462B
:103B2000BDE8704004F065BD70B504460D4616460C
:103B300001210420FFF7AAFF2C4B1C3B1C725D7275
:103B4000DE602D48002329495E1E32461C3900687C
:103B500002F092FF2448002332461946C06803F061
:103B600070F829462046BDE8704004F054BD2DE9A8
:103B7000F04106460D461746984601210520FFF7FD
:103B800085FF1A4C1C3C26726572A772C4F80C8023
:103B90001948002315495C1E22461C39006802F0B2
:103BA0006BFF1148002322461946C06803F049F80C
:103BB0002946304605F0C3F83046BDE8F04104F030
:103BC00018BD2DE9F0470646DDF820900F46154652
:103BD000984601210620FFF759FF044C1C3C267231
:103BE0006772A5720AE00000540000201C0D00203E
:103BF0004C530020206600202400002084F80B8015
:103C0000C4F80C907A4800235C1E2246774900686D
:103C100002F032FF7748002322461946C06803F0BD
:103C200010F855B102223946304605F054F83946AD
:103C30003046BDE8F04704F0EEBC0122F3E770B572
:103C400004460D46164601210820FFF71FFF674B6B
:103C50001C725D72DE60664800235C1E224663496A
:103C6000006802F009FF6348002322461946C06835
:103C700002F0E7FFBDE8704006F0BEBA70B504463A
:103C80000E46154600210920FFF700FF574B1C7216
:103C90005E729D72564800235A1E0068BDE870404F
:103CA000524902F0E9BE10B5504A05231C32137088
:103CB00010725172504800234C495C1E22461C3140
:103CC000006802F0D9FE4B4800232246194680685E
:103CD00002F0B7FFBDE8104006F0A2BA10B5454C9F
:103CE000217800290CD14149062210390A70087147
:103CF000424800231A46006802F0BEFE01202070F0
:103D000010BD10B53B4C2278002A0FD1374A07234B
:103D1000103A1370107191603848344900231A46E4
:103D20001039006802F0A8FE0120207010BD38B5DF
:103D30002E4A02231C3213701072C2F80CD011618B
:103D40002D48002329495C1E22461C31006802F0E0
:103D500093FE2848002322461946806802F071FF2E
:103D60009DF8000038BD30B4204B022410331C7085
:103D7000187259729A72224800231C4900685A1E10
:103D800030BC103102F078BE0EB502218DF8001063
:103D900041788DF8011081788DF808104168019103
:103DA00000784FF0FF32012806D0164800236946FC
:103DB000006802F061FE0EBD1348002369460068EA
:103DC00002F05AFE0EBD1CB5044602F01DFD20781F
:103DD000694601F0ABF902F023FD9DF80000607028
:103DE0009DF80100A070019860601CBD000D0020CE
:103DF0002400002054000020E801002040000020A2
:103E000098000020E4000020E00000202DE9F047A9
:103E100007460D461446002607F4E060C00940F04E
:103E2000A0084FF080494846FCF7CCFE0128FAD1A3
:103E300000214046FCF799FE4FF0007A5046FCF70F
:103E4000C1FE0128FAD14FF000494846FCF7BAFEFE
:103E5000012805D00126FCF795FE3046BDE8F08725
:103E6000F8B2FCF78AFE57463846FCF7ABFE01284D
:103E7000FAD14846FCF7A6FE012801D00226EAE75F
:103E800001214046FCF771FE3846FCF79BFE0128F5
:103E9000FAD14846FCF796FE012812D00326DAE74D
:103EA0001CB10020FCF772FE02E00820FCF76EFE59
:103EB0003846FCF787FE0128FAD1FCF76CFE05F8BE
:103EC000010B2000A4F10104E4B2E9D1C3E710B56D
:103ED0004FF080442046FCF775FE0128FAD10021FE
:103EE000A020FCF742FE4FF000742046FCF76AFE6B
:103EF0000128FAD1FCF746FE4FF00040FCF762FEC5
:103F0000012801D0002010BD012010BD2DE9F04195
:103F100006460F461546FFF7DAFF0028FBD012E0F1
:103F200006F00F00C0F11004AC4200D9ECB22246FA
:103F300039463046FFF76AFF002807D1301986B2AC
:103F4000281B85B22744002DEAD10020BDE8F0816E
:103F50002DE9F04780460D461446002608F4E0603F
:103F6000C00940F0A0074FF080494846FCF72AFE00
:103F70000128FAD100213846FCF7F7FD4FF0007711
:103F80003846FCF71FFE0128FAD14FF00049484699
:103F9000FCF718FE012804D00126FCF7F3FD30469B
:103FA0005CE708F0FF00FCF7E8FD3846FCF70AFE86
:103FB0000128FAD14846FCF705FE012801D0022667
:103FC000EBE74FF400480DE02878FCF7D6FD6D1CB8
:103FD0003846FCF7F7FD0128FAD14046FCF7F2FD20
:103FE000012805D02000A4F10104E4B2ECD1D4E70B
:103FF0000326D2E72DE9F04106460F461546FFF7A6
:1040000066FF0028FBD016E006F00F00C0F1100498
:10401000AC4200D9ECB2224639463046FFF798FF51
:10402000002893D1301986B2281B85B22744FFF7A8
:104030004EFF0028FBD0002DE6D1002086E70000CF
:1040400070B50446012901D144F480749A4D0221CF
:104050002846FCF7D8F90128F9D121462846BDE8C1
:104060007040FCF7CBB910B5FFF771FB0446204652
:10407000FFF772FB0028FAD110BD10B58F4A012856
:1040800007D004211046FCF7CFFABDE810401420F9
:10409000E9E704211046FCF7BCFAF6E770B5002109
:1040A000E220FFF7CDFF00213D20FFF7C9FF0021EF
:1040B0000120FFF7C5FF0021E120FFF7C1FF00212C
:1040C0000846FFF7BDFF00212420FFF7B9FF0021BC
:1040D0009020FFF7B5FF0021A020FFF7B1FF0021DE
:1040E000C820FFF7ADFF0021A620FFF7A9FF0021A0
:1040F000A420FFF7A5FF00212F20FFF7A1FF00213B
:104100004020FFF79DFF0021F820FFF799FF0021D5
:10411000D020FFF795FF00213020FFF791FF00210D
:10412000B020FFF78DFF00211020FFF789FF00214D
:104130000846FFF785FF002440F25F35012100208B
:10414000FFF77EFF641CA4B2AC42F7D3BDE8704019
:104150000021AF2074E770B5584C01212046FCF7D0
:1041600063FA4FF47A652846FFF77DFF0121204668
:10417000FCF74FFA2846FFF776FF0120FFF77DFF97
:10418000FFF78CFF4C4C10212046FCF73CF900282F
:10419000F9D10220FFF771FFFFF780FF10212046C1
:1041A000FCF731F90028F9D170BD70B50D46FFF765
:1041B00064FF0021B020FFF743FF00211020FFF72C
:1041C0003FFF00210846FFF73BFF00244FF45876DD
:1041D00015F814000121FFF733FF641CA4B2B442A8
:1041E000F6D3354C10212046FCF70DF90028F9D103
:1041F00070BD2DE9F047064609270120FFF73DFF76
:104200000021B020FFF71CFF00211020FFF718FF4E
:1042100000210846FFF714FF60244FF0000811E06A
:104220000025641EA4B20121305DFFF709FF6D1C5B
:10423000ADB2602DF5D304F59074A4B208F1010875
:1042400008F0FF08B845EBD3DFF86C901021484622
:10425000FCF7D9F80028F9D10220FFF70EFF002162
:10426000B020FFF7EDFE00211020FFF7E9FE00214E
:104270000846FFF7E5FEC0244FF0000811E00025D6
:10428000641EA4B20121305DFFF7DAFE6D1CADB2F1
:10429000602DF5D304F59074A4B208F1010808F07C
:1042A000FF08B845EBD310214846FCF7ACF80028CE
:1042B000F9D1BDE8F087000000000A4000800C4002
:1042C00070B504460C4DE00704D080212846FCF769
:1042D000ABF903E080212846FCF79BF9A00705D540
:1042E0002846BDE870404021FCF79EB92846BDE84D
:1042F00070404021FCF78DB900000B402548B0F913
:104300000000704708B503F01BF900900220FCF78D
:1043100012FD204C4FF48025FA21684602F059FF27
:1043200000270026FCF767FD022002F07BFF2846ED
:10433000FCF779FD0028FAD0FCF766FD384487B217
:10434000761C052EEED338460BF001F9124A134BBA
:104350000BF010F9124A134B0BF00CF90022124B20
:104360000BF01EF80BF0C4F800B22080192801DA17
:10437000322000E0400080B200F036FC0D2060608A
:104380000A48044900231A46091D006802F074FB1C
:10439000C2E70000640000209A9999999999C93F51
:1043A00021B0726891EDCCBF00C06C405800002075
:1043B000052800D30020474951F82000704746499E
:1043C000421E8A60400848617047434A516B40F67C
:1043D0000C439943002803D040F60800014302E053
:1043E00040F204400143516370470EB50020019034
:1043F00080468346002204210A2002F0A6FA3549AD
:10440000091F086080BBFEE788B2090C404554D9FB
:104410008046019151E0D84500D901244FF0000AAF
:10442000062C40D2DFE804F03F030C1A2337019832
:10443000FFF7BEFF81460224C3464FF0000839E073
:10444000D9F80400009099F800700098384303D020
:1044500009F1080903242DE000242BE02FB17F1E71
:10446000BFB2009E042425E027E0022422E0308829
:10447000758855EA000107D0361D38B1FFF79FFF58
:104480000120FFF7A2FF04E0032413E00020FFF760
:104490009CFF05240EE025B16D1EADB24FF0010A60
:1044A00008E0042406E04FF0000B0020FFF78DFF2A
:1044B0004FF0010ABAF1000FB2D006480023001FE6
:1044C0005A1E02A9006802F0BCFB029911F5803F58
:1044D000A1D099E77000002000000740FB48FA498E
:1044E00081602121416070472DE9F04107460D466A
:1044F000F64E0124BC40F4622868002804D0F2493A
:1045000001EB0711FCF70AFE686820B1F16801EBC6
:104510000711FCF703FE687B01280AD0F46174627E
:10452000A87B40B13463287B012806D0F463BDE842
:10453000F081B461F3E77463F5E7B463F7E710B5AE
:104540000120FCF772FFFCF783FF012800D0FEE793
:1045500007210220FCF7EBFF0120FDF702F8FDF731
:1045600003F8012800D0FEE70020FDF715F8012030
:10457000FCF7F4FF4FF48070FCF7F7FE2020FDF706
:104580004EF80020FDF752F80120FDF757F8FBF731
:1045900091FE0121CE48FCF7DDFEBDE8104001216F
:1045A000CC48FCF7D7BE2DE9F041CB4908684FF65F
:1045B000FF021040C94A40F44070104308606FF099
:1045C0000407384600F037FBC54C2060BD10284674
:1045D00000F031FB60606E10304600F02CFBA060F4
:1045E000052000F028FBE0600F2000F024FB206194
:1045F0000621052000F013FB06210F2000F00FFB21
:10460000384600F018FB2060284600F014FB60607C
:10461000304600F010FBA060052000F00CFBE060CD
:104620000F2000F008FB206181E710B56FF0040057
:1046300000F001FBAA4C20606FF0010000F0FBFAD3
:1046400060604FF0FF3000F0F6FAA060052000F047
:10465000F2FAE0600F2000F0EEFA206110BD2DE9C3
:10466000FE4FDFF880B25846FBF7F2FE9E48FBF79C
:10467000EFFE9E48FBF7ECFE9D48FBF7E9FE9D48E8
:10468000FBF7E6FE9C48FBF7E3FEC0219648FBF7EC
:10469000C0FF6846FBF7A6FF2120ADF8000001240B
:1046A0008DF80A4069465846FBF7DCFE4FF00409D6
:1046B000ADF800908DF8034069465846FBF7D2FEEE
:1046C0000225ADF800508DF802408DF8094069468A
:1046D0005846FBF7C7FE1820ADF800008DF80850CB
:1046E00069465846FBF7BEFE6846FBF77BFF4FF076
:1046F000800AADF800A08DF80A408DF80950032615
:104700008DF808608DF8024069465846FBF7AAFE0E
:104710004027ADF800704FF000088DF80280694620
:104720005846FBF79FFE6846FBF75CFF40F2377088
:10473000ADF800008DF80A4069466B48FBF792FE21
:10474000A002ADF8000069466748FBF78BFEC02069
:10475000ADF800008DF802408DF8094069466248C6
:10476000FBF780FE6846FBF73DFFADF800908DF843
:104770000A408DF808508DF8094069465B48FBF700
:1047800071FEADF800608DF8095069465748FBF797
:1047900069FE6846FBF726FF9720ADF800006946E2
:1047A0005348FBF75FFE2820ADF800008DF80A4063
:1047B0008DF808508DF809508DF8024069464C4834
:1047C000FBF750FEADF800708DF80440694648488C
:1047D000FBF748FE6846FBF705FF4520ADF80000F3
:1047E0008DF80A408DF809508DF80240694641481D
:1047F000FBF738FEADF800A08DF8086069463D482B
:10480000FBF730FE0A20ADF800008DF8085069462D
:104810003848FBF727FE6846FBF7E4FE0C20ADF8AE
:1048200000008DF80A408DF809408DF80240694675
:104830003148FBF717FE6846FBF7D4FEADF8005091
:104840008DF80A408DF809508DF808608DF8024007
:1048500069462948FBF706FEADF800408DF8028056
:1048600069462548FBF7FEFDBDE8FE8F10B5002127
:104870002248FCF735FCBDE8104000212048FCF739
:104880002FBC70B5FCF780FC10484FF0FF34046279
:104890008461861501213046FCF75CFD194D00212D
:1048A0002846FBF7B7FD0021696217484162304690
:1048B000FCF750FD154AC2F8FC41C2F8FC40FFF776
:1048C0000DFE2020D06770BD00080020008002404F
:1048D0000000E023E0C413000CED00E00000FA0546
:1048E000300D002000800A4000000B4000800B408B
:1048F00000000C4000800C4000800E40000003408F
:10490000008003400000044000000A4084E000E012
:104910001FB56846FBF732FDCD4C00212046FBF762
:1049200079FD0420ADF800000222ADF8022000213C
:10493000ADF804100820ADF80600ADF80810ADF889
:104940000A10ADF80C10ADF80E2069462046FBF7B2
:1049500002FD01212046FBF71CFD1FBD1CB50120F7
:10496000FCF7DFF84FF4807000900020019068465B
:10497000FCF7C1F81CBD30B593B0FCF72FF90CA8BB
:10498000FCF751F900240C940A200D904FF40030EC
:104990000E9040000F9040001090400011900125B3
:1049A00012950CA8FCF729F901A8FCF798F9042046
:1049B0000190029403941F20049005940694ADF88E
:1049C0001C40ADF81E40E802089009954FF4E04005
:1049D0000A900B9401A8FCF737F901A8FCF75CF9E1
:1049E00000210620FCF766FA00210620FCF76DFA8C
:1049F0000120FCF782F90120FCF78AF913B030BDE1
:104A00002DE9F04391B00BA8FBF771FE1F20ADF824
:104A10002E0040F2F310ADF830008E4E0BA9304658
:104A2000FBF74AFE05A8FBF7F5FE0024ADF816409B
:104A30004FF44068ADF81E800125ADF814504FF0DA
:104A40000809ADF8269005A93046FBF7C3FE684675
:104A5000FBF792FFADF80240ADF80450ADF80650F8
:104A6000ADF80840ADF80A50ADF80C50ADF8005064
:104A700069463046FBF763FFF9207061002130463C
:104A8000FCF707F801213046FBF73FFE0BA8FBF7C8
:104A90002EFEADF82E5040F6FF70ADF830006E4F90
:104AA0000BA93846FBF708FE05A8FBF7B3FEADF8E7
:104AB0001640ADF81E80ADF82690ADF8144005A95B
:104AC0003846FBF787FE0226ADF8146005A9384684
:104AD000FBF780FE05A8FBF79DFEADF816406802C7
:104AE000ADF81E00ADF81450ADF8264005A93846C3
:104AF000FBF770FE6846FBF73FFFADF80850ADF8D6
:104B00000A60ADF80C50ADF8004069463846FBF736
:104B100016FFADF8006069463846FBF710FF3C61B0
:104B2000BC617C61012291023846FBF7A0FF0021A5
:104B30003846FBF7AEFF01213846FBF7E6FD0BA830
:104B4000FBF7D5FD0F20ADF82E006320ADF8300047
:104B5000424F0BA93846FBF7AFFD05A8FBF75AFEFD
:104B6000ADF81440ADF81640ADF81E80ADF82690B3
:104B700005A93846FBF72EFE6846FBF7FDFEADF8AB
:104B80000040ADF80460ADF80240ADF8065069464B
:104B90003846FBF7D4FEADF8146005A93846FBF79C
:104BA00019FEADF80060ADF80440ADF80640ADF870
:104BB0000A60ADF80850ADF80C5069463846FBF76E
:104BC000BEFE3C61BC6100213846FBF762FF01215B
:104BD0003846FBF79AFD11B0BDE8F0831E49086125
:104BE00070471D49886170471C4988617047642877
:104BF00000D96420194908617047194902680A60A0
:104C000042684A6082688A60C268CA6002690A6152
:104C100042694A6182698A61C069C861FEE74907E1
:104C2000090E002804DA0F4A00F00F008154704783
:104C30000D4A81547047002805DA0A4900F00F0038
:104C4000405C400970470849405C400970470000DB
:104C500000000A40000007400080074000000840B4
:104C60006C0D002014ED00E000E400E010B502F04F
:104C7000F8FEC0B2052838D2DFE800F0030C151E9C
:104C80002700574800231A460068BDE810405349E2
:104C900001F0F2BE544800231A460068BDE81040F7
:104CA000504901F0E9BE524800231A460068BDE8A9
:104CB00010404E4901F0E0BE4F4800231A460068FC
:104CC000BDE810404B4901F0D7BE4D4800231A46BD
:104CD0004A49006801F0D0FE4A4800231A4600689D
:104CE000BDE81040454901F0C7BE10BD38B5464D7E
:104CF00000230122322145A0009502F085FE474C99
:104D0000206001231A46052145A0009502F07CFE93
:104D1000606002230122192146A0009502F074FE72
:104D2000A060032301220A2145A0009502F06CFE39
:104D3000E06004230122052147A0009502F064FEF3
:104D40002061002054F8201021B1401CC0B2052879
:104D5000F8D338BDFEE7F8B50024661E2F4D02F0EB
:104D6000EFFB02460096002355F82400194602F096
:104D70000DFD641CE4B2052CF1D3F8BD10B5FEF7AF
:104D8000DDFC044638490888401E0004000C0880F9
:104D900003D105200880FCF7A3FEFDF7EFFFFEF727
:104DA000E5FC324A506900F5486080B29168814262
:104DB00001D29168401A50614FF480611046FBF7B0
:104DC0004AFEFEF7BBFC01462046FEF7BAFC264928
:104DD000091D4A68824200D2486010BDF0FB0008FD
:104DE0002400002018FC00086C00002010FC0008C3
:104DF00058000020C0FC000898000020A4000020FB
:104E0000E0000020E40000206D4C0008436F6E7647
:104E100065727465722074696D657200A40D00205E
:104E2000536F756E64206472697665722074696D63
:104E3000657200004755492074696D657200000075
:104E4000427574746F6E7320647269766572207433
:104E5000696D65720000000055415254205258207F
:104E600074696D65720000008400002000800740B6
:104E7000A74880787047A64840787047A4480078D3
:104E80007047A448A249006810F8382F0A70427889
:104E90004A708078887070479E489D4900680A78FB
:104EA00000F8382F4A78427089788170704710B5C1
:104EB0000020974C2178002915D0974A6378918873
:104EC000528801F4807102F48072002B0CD01346DA
:104ED00000D11146A2784AB1012A0ED0022A02D18D
:104EE000002900D0012010BD0B46F1E709B10220D6
:104EF00010BD002BFCD0012010BD0029FCD0FCF718
:104F00004FFF08B1012010BD022010BD0EB50022D8
:104F10000C21052001F019FD7D49891E886068B3C8
:104F2000881C4FF0000B80F800B080F801B080F8CA
:104F300002B07A4806228270C0F804B081F800B04E
:104F400081F801B0DFF8D881734F764E4FF0010938
:104F5000DFF8BCA10023AAF1020A5A1E6946DAF85A
:104F6000080001F06EFE9DF800000728F0D2DFE88F
:104F700000F00443061F303D4000E9E7FEE701F082
:104F800043FC63489DF8081001709DF809104170BA
:104F90009DF80A10817001F043FC01980028D7D0D9
:104FA000019800231A460068194601F065FDCFE715
:104FB00001F02AFCFFF765FF01F032FC01980028A0
:104FC000C6D0019800231A460068194601F054FD26
:104FD000BEE7FFF761FF01980028B9D001980023D0
:104FE0001A460068194601F047FDB1E78AF80090BB
:104FF000AEE78AF80190ABE79AF800000028A7D046
:10500000FCF734FEFEF7DDFBFFF751FF0446434D8E
:1050100085F8009085F80190B878800609D585F864
:10502000089000235A1E2946D8F8000001F024FDFC
:105030000BE03879800608D585F808B000235A1EA1
:105040003649D8F8000001F017FD85F801B09AF84C
:105050000100E0B17888010606D4012C04D0400696
:105060000CD4022C0AD012E085F8089000235A1EB6
:105070002A49D8F8000001F0FFFC08E085F808B0E4
:1050800000235A1E2549D8F8000001F0F5FC204DF8
:105090000A35C5F8009001244FF6FF7AEC80788835
:1050A000204208D0A5F80490194900231A460A3175
:1050B000306801F0E1FCF888204208D00320A88085
:1050C000134900231A460A31306801F0D5FC3889AB
:1050D000204208D00520A8800D4900231A460A3135
:1050E000306801F0C9FC0AEA4404002CD6D10E480D
:1050F000B0F9000000283FF440AF02212960A880E9
:10510000034900231A460A31306801F0B5FC1FE755
:1051100092000020E4010020100C0020B80D0020B7
:10512000240000205800002052000020FE4A0128E0
:10513000126807D0143210780870506848605078B0
:10514000487070470C32F6E70A2803D00D2801D0CA
:1051500000207047012070472DE9F74F90B0012AD9
:1051600004D0DFF8C88306D1F14D05E0DFF8BC8339
:10517000A8F10408F7E7EF4D4FF000073C4602D1D5
:105180004FF0010001E04FF002008DF81900CDF85A
:10519000348002D14FF0010001E04FF002008DF8A1
:1051A00032004FF0010A8DF830A0DFF88C93D9F867
:1051B0002420DDE9100101F029FA002808DAD9F8E5
:1051C0002020DDE9100101F021FA002800DB012791
:1051D000D9F81020DDE9100101F018FA4FF0020BA8
:1051E00000287DDB9DF80C0020F07F00801C40F043
:1051F00080008DF80C00D9F88420DDE9100101F061
:1052000005FA002801DB01260CE0D9F88820DDE949
:10521000100101F0FBF9002801DB002602E0FCF799
:105220005BFE0646C448D0F88C20DDE9100101F091
:10523000EDF9002802DB4FF000090FE0BE48D0F87E
:105240009020DDE9100101F0E1F9002802DB4FF0C8
:10525000010903E03046FCF734FE8146B648826A15
:10526000DDE9100101F0D2F900283DDB002677B31B
:10527000B14F6B46FA6CDDE9100101F0DFF9C4B201
:1052800064B9D7F89410009809F000F840B1D7F845
:105290009810009808F0FAFF28B1042434B116E001
:1052A0008DF83860FAE78DF838A0F7E78DF83160AF
:1052B000A24800235F1E3A460CA9006801F0DCFBFF
:1052C00000233A461946D8F8000001F0BAFC002C39
:1052D00009D18DF8106000235A1E03A9286800E048
:1052E000B1E001F0C9FBA2E19348C26ADDE9100117
:1052F00001F08CF900280BDB0FB1052497E18DF844
:1053000010A000235A1E03A9286801F0B5FB8EE106
:10531000DFF824A2DAF83020DDE9100101F076F997
:10532000002820DBA7B18DF838608DF839908DF812
:1053300031B0824800235F1E3A460CA9006801F094
:105340009BFB00233A461946D8F8000001F079FC8F
:105350008DF810B08DF8116000235A1E03A928683B
:1053600001F08AFB63E1DAF83420DDE9100101F095
:105370004DF900282DDBF7B1DAF85020DDE91001F6
:1053800002AB01F073F9C4B2ACB98DF83860029881
:105390000F9003208DF83100071F684800233A461C
:1053A0000CA9006801F068FB00233A461946D8F8BA
:1053B000000001F046FC002C95D103208DF8100070
:1053C0008DF8116000235A1E03A9286801F054FBD0
:1053D0002DE1DAF83820DDE9100101F017F9002895
:1053E0008CDB07B3DAF85420DDE9100102AB01F0E1
:1053F0003DF9C4B2BCB98DF838608DF83990029887
:105400000F9004208DF83100471F4C4800233A4686
:105410000CA9006801F030FB00233A461946D8F881
:10542000000001F00EFC002C0CD104208DF81000BF
:105430008DF811608DF8129000235A1E03A9286878
:1054400001F01AFBF3E0D9F81420DDE9100101F0B6
:10545000DDF8002874DBD9F87820DDE910016B460F
:1054600001F0ECF8C0B280BBD9F8A410009808F0A5
:105470000DFF00B3D9F8A810009808F007FFE8B1B5
:10548000D9F8AC10009808F001FFD0B1D9F8B010ED
:10549000009808F0FBFEC8B1D9F8B410009808F0E5
:1054A000F5FEB8B1D9F8B810009808F0EFFEA8B131
:1054B0000424BCB159E0ADF82CA0FAE7ADF82CB04B
:1054C000F7E70320ADF82C00F3E777E00420ADF810
:1054D0002C00EEE70520ADF82C00EAE70620ADF839
:1054E0002C00E6E7D9F87C20DDE910016B4601F0DD
:1054F000A5F8C4B22CBBD9F8BC10009808F0C6FEC1
:10550000A8B3D9F8C010009808F0C0FE80B3D9F84D
:10551000C410009808F0BAFE58B3D9F8C810009823
:1055200008F0B4FE80B30DE0E0010020B4000020DC
:10553000D0010020D4010020CCFC00082400002071
:105540004BE012E0D9F8CC10009808F09FFE00B3B1
:10555000D9F8D010009808F099FEF0B1D9F8D4101D
:10556000009808F093FEE0B10424F4B126E001E0D5
:1055700003E006E0ADF82EA0F7E70820ADF82E0016
:10558000F3E7ADF82EB0F0E7FFE70420ADF82E000A
:10559000EBE74020ADF82E00E7E78020ADF82E00C5
:1055A000E3E71020ADF82E00DFE7CDF828A0A448EF
:1055B00000235A1E0AA9006801F05EFAD9F880207B
:1055C000DDE9100101AB01F06DF8C0B268BBCDF8A8
:1055D00028B00198ADF82C0029E0D9F81820DDE9B1
:1055E000100101F013F800280DDB9DF80C0020F0ED
:1055F0007F00C01C8DF80C0000235A1E03A92868E8
:1056000001F03AFA13E0D9F81C20DDE9100100F0AE
:10561000FDFF00280ADB0B208DF8180089480023C5
:105620005A1E06A9006801F027FA00E00124002CA8
:105630000ED09DF80C0020F07F00401C8DF80C006F
:105640008DF8104000235A1E03A9286801F014FAAF
:1056500013B0BDE8F08FB0B0012869D07A4C7B4818
:1056600021780568012966D0143500220C21052017
:1056700001F06BF96168086000285ED00322002108
:10568000012001F062F9E168086020B100231A46A8
:10569000194601F0F1F9E0680068E0B301F0B4F8F0
:1056A000012001F04EFAA1680860A8B300231A4651
:1056B000194601F0C6FA01F0B3F8207800F066FE52
:1056C0002078634900F07EFE0DF1090617965027F9
:1056D000ADF804704FF0FF3A4FF001090DF10408E6
:1056E00060680023524600682DA901F0AAFA9DF8CF
:1056F000B400012824D0022835D00328F0D1207826
:1057000001AA17A900F0D7FE8DF808000028E7D0FD
:10571000BDF8040001E011E011E0C0F15000ADF867
:1057200006000023ADF8B0308DF8B290002072E092
:10573000454C103C93E70C3597E7FEE7FEE7FEE7A4
:105740006A782078696800F04DFE28780028C7D074
:10575000207800F08DFEA06800231A4600681946E4
:1057600001F08AF9BCE7207800F08DFEA06800689F
:1057700001F009FA834601F087FF834506D0A0684F
:10578000002352460068194601F05BFA207800F0C9
:1057900054FE207800F082FE1796ADF804709DF854
:1057A000BC2020782E9900F01DFE01F02DF82E98D7
:1057B00068609DF8BC0068709DF8B500287001F025
:1057C0002FF8287800288BD0207800F051FEA068B0
:1057D00000231A460068194601F04EF980E708EBED
:1057E00000025179202926D0092924D00A2922D063
:1057F0000D2920D09DF8B21059B1BDF8B010521D3E
:1058000001F1010C08EB8101ADF8B0C0CA658DF85B
:10581000B230401CC0B2BDF806108142DFD8BDF8DE
:10582000B00020B1C1B2227818A8FFF795FCADF8FE
:105830000470179654E753718DF8B290E9E70000B1
:105840005800002040000020C8000020E001002097
:105850004951000808B50021009101280AD0F548F7
:1058600000236A46C0681946006801F099F900985B
:10587000C0B208BDEF487438F2E72DE9F0410746A1
:105880000D46144621E0B5F1005F10D2642C01D919
:10589000642600E0264607F110003246294680467D
:1058A00008F0C9FCA01B84B23544414602E02946F9
:1058B000264600243878324600F02CFEF868002393
:1058C0005A1E0068194601F0BCF9002CDBD1BDE876
:1058D000F0818AB0012839D0D64C00220C210A2050
:1058E00001F033F86168086098B3032200210120B9
:1058F00001F02BF8E168086020B100231A46194630
:1059000001F0BAF8E068006828B300231A46194687
:1059100001F097F92078C84900F05CFDC74F4FF0BF
:10592000FF38606800234246006807A901F089F942
:105930000025A94600269DF81C0000F07F010529DE
:105940001BD2DFE801F0091B44F0EF00B94C743CB6
:10595000C3E7FFE7FEE7FEE7089D9DF82600C007C6
:1059600002D0BDF8240002E0089808F071FB1FFA8D
:1059700080F99DF82600C0F3400639E104F11005D6
:105980002846F96800F0AAFE9DF82000062813D2E8
:10599000DFE800F0120306090C0FD7F8D8100DE06D
:1059A000D7F8DC100AE0D7F8E01007E0D7F8E410E9
:1059B00004E0D7F8E41001E0D7F8EC10284600F036
:1059C000A2FE284608F044FB1FFA80F910E104F11A
:1059D0001005000601D4B96800E07968284600F097
:1059E0007DFE2846396900F07DFE9DF820000828DC
:1059F00029D2DFE800F02942577A99BCBC0400F0B4
:105A000003FFFCF709F8ADF814008146FCF707F82E
:105A1000ADF816008246FCF705F8019000F000FF93
:105A20002846B96C00F05EFE4A462846F96E00F042
:105A300079FE52462846396F00F074FE019A2846D6
:105A4000796F00F06FFE92E0FCF7AAF9ADF8140050
:105A500081462846B96A00F045FE2846F96C00F0F8
:105A600041FEB9F1010F05D0D7F89810284600F093
:105A700039FE7CE0D7F89410F8E7FCF72DFAADF882
:105A8000140081462846F96A00F02CFEB9F1010F96
:105A900005D0D7F88810284600F024FE67E0D7F834
:105AA0008410F8E79DF82100FCF70BFAADF814001C
:105AB00081462846396B00F015FE9DF8210001282B
:105AC0000DD0D7F88810284600F00CFEB9F1000F71
:105AD00008D0D7F89010284600F004FE47E0D7F829
