:020000040800F2
:100000000874002061020008690200086B02000801
:100010007D0200087F020008810200080000000045
:10002000000000000000000000000000D5010008F2
:100030008502000800000000090200082F5B00088C
:100040008B0200088B0200088B02000800000000F1
:1000500000000000695400088B0200088B020008B1
:100060008B020008000000008B0200088B020008D1
:100070008B020008000000008B020008E149000824
:100080008B0200088B020008000000008B020008B1
:100090008B020008000000000000000000000000CB
:1000A0000000000000000000000000008B020008BB
:1000B0008B0200088B0200088B0200088B020008EC
:1000C00000F002F800F076F80AA090E8000C8244F4
:1000D0008344AAF10107DA4501D100F06BF8AFF2D1
:1000E000090EBAE80F0013F0010F18BFFB1A43F016
:1000F00001031847C82D0100E82D01000A444FF004
:10010000000C10F8013B13F0070408BF10F8014B76
:100110001D1108BF10F8015B641E05D010F8016BBB
:10012000641E01F8016BF9D113F0080F1EBF10F81F
:10013000014BAD1C0C1B09D16D1E58BF01F801CB42
:10014000FAD505E014F8016B01F8016B6D1EF9D5C5
:100150009142D6D3704700000023002400250026DA
:10016000103A28BF78C1FBD8520728BF30C148BF1A
:100170000B60704766290FF0F98064290CF0D68275
:1001800063290DF0048073290DF009800020704769
:100190001FB50DF0ABF80400002000210EF0A8FB05
:1001A000401C6060002000210EF0B8FBE0601FBD25
:1001B00010B510BD0DF0CCF91146FFF7E9FF01F0C5
:1001C0001DFB0DF03DFC03B4FFF7F2FF03BC0DF087
:1001D00071FE00001A4B19680868B0E8F00F80F350
:1001E00009884FF0000080F311884EF00D0E704723
:1001F0000000000003480068006880F3088862B6C9
:1002000000DF00BF08ED00E0EFF309800C4B1A6837
:1002100020E9F00F106008B54FF0200080F311883E
:1002200006F0A6F94FF0000080F31188BDE8084001
:1002300019680868B0E8F00F80F30988704700BFBC
:10024000D4010020EFF311804FF0200181F31188D9
:10025000704780F311887047EFF305807047000006
:100260000D4880470D480047FEE71EF0040F0CBF05
:10027000EFF30880EFF3098004F0F7BAFEE7FEE73A
:10028000FEE7FEE7FEE7FEE7FEE7FEE70448054976
:10029000054A064B7047000013030008C100000820
:1002A000086E0020087400200870002008700020EC
:1002B00010B51F4BD8681F4C8007002801DA60106A
:1002C00000E02046D968C90700D04008D96849072E
:1002D00004D55968C1F30321491C4843D968164A1B
:1002E000C1F3012139B1012907D002290DD049F606
:1002F0004040106010BD146010BDD968C1F30311F7
:10030000491CB0FBF1F0106010BD4FF400401060CC
:1003100010BD07480949C161C1680021C160426838
:100320004160826881600269016142694161BFE7A1
:100330000000024000127A000000002010000008B7
:10034000002101604160016141614162032101625C
:10035000704710B54A8802610A894B890C881A4493
:100360008B8903EB04231A44CB881A440260CA89A0
:1003700089881144416010BD002181800722C2801C
:1003800041810181818102224280018070470029E0
:1003900004D0416841F002014160704741684FF666
:1003A000FD72114041607047002A03D042690A4340
:1003B0004261704742698A43426170478069814364
:1003C00001D00020704701207047C069084201D069
:1003D0000120704700207047026A0A43026270479A
:1003E000002A03D0426A0A4342627047426AC94304
:1003F00089B20A404262704781607047806880B26B
:100400007047C068084201D0012070470020704743
:1004100010B50B4BDA6A0B4CA04205D142F080704C
:1004200020F0FF020A4308E0074CA04205D142F049
:10043000007020F47F4040EA0122DA6210BD000023
:10044000000002400000044000000A400021C1609A
:10045000016141600160816041618161C1617047FA
:100460002DE9FF4FD0F804908768D0F80CA0D0F8A1
:100470001080D0F814C082690192C26900920022F3
:10048000012303254FF001160C885EE05FEAC47B70
:1004900056D091F802B029EA03090BFA02FB49EAA7
:1004A0000B0991F808E04FEA420B0EFA0BFEAF433E
:1004B0004EEA0707CDF80CB091F80AB02AEA030A11
:1004C0000BFA02FB4AEA0B0A91F803E002F1100B67
:1004D0000EFA0BFECDF808B091F804B028EA060831
:1004E00048EA0E080BFA02FB48EA0B0891F805E00F
:1004F000DDF808B02CEA060C0EFA0BFE91F806B0F7
:100500004CEA0E0C0BFA02FB4CEA0B0C91F809E0DA
:10051000DDF80CB00EFA0BFEDDF804B02BEA050B8B
:100520004EEA0B0ECDF804E0DDF800B091F807E0DC
:100530002BEA030B0EFA02FE4BEA0E0BCDF800B0CD
:100540005B00AD007600521C6408002C9ED1474928
:10055000884202D14FF01F0101E04FF0000129EA6B
:100560000109C0F8049002D14FF01F0101E04FF0E3
:10057000000127EA0107876002D14FF01F0101E067
:100580004FF000012AEA010AC0F80CA002D14FF096
:100590001F0101E04FF0000128EA0108C0F81080B7
:1005A00002D14FF01F0101E04FF000012CEA010CD5
:1005B000C0F814C002D14FF01F0101E04FF000015C
:1005C000019A22EA0102826102D14FF01F0101E08B
:1005D0004FF00001009A22EA0102C261BDE8FF8FDC
:1005E0004FF6FF71018000218170C170017141716E
:1005F0008171C17101724172817270470068084255
:1006000001D00120704700207047006870470368E0
:10061000164A904201D11F2200E0002293430B436F
:10062000036070470368114A904201D11F2200E025
:1006300000220A4393430360704710B503680B4CD4
:10064000A04201D11F2400E00024A34312B10B43B8
:10065000036010BD8B43036010BD044A904201D17A
:100660001F2200E0002291430160704700000B4010
:100670000021C1600160416081600162416281626C
:10068000C162016341638163C16301664166816642
:10069000C166016141618161C16101674167816733
:1006A000C167016441648164C1640165416581651C
:1006B000C165704710B50A8802604A8842608A881E
:1006C0008260CA880B898C891A444B8923441A4456
:1006D000CB891A44C2604A8A8B8A1A44CB8A098A17
:1006E00003EB01111144016510BD0021018041801F
:1006F0008180C180018141818181C18101824182EA
:100700008182C1827047C268002902D042F0010193
:1007100001E022F00101C160704701607047416053
:10072000704781607047C36823F002031A44C260B7
:1007300081607047006880B27047C26822F47062BE
:100740001144C1607047C26822F030021144C16098
:100750007047C26822F0C0021144C1607047C2688D
:1007600022F008021144C160704710B5046D24F0F6
:10077000FE04114401EB03112144016510BD026D1B
:1007800022F0F00202EB011101657047026D22F0C8
:100790000C02114401657047026D22F002021144FF
:1007A00001657047026D22F0010211440165704736
:1007B000C0680007002801DB002070470820704750
:1007C000C0684007002801DB002070470120704707
:1007D00010B54A88CB884C891A440B8923441A44A3
:1007E0008B8902EB8312CB891A440B8A1A448B88BB
:1007F000002B01D002F500520B8800EB83031A6234
:10080000488ACA8A1044898A01B1001D186610BD41
:100810000021018041808180C180018141818181ED
:10082000C181018241828182C182704700EB8100D7
:100830000261704700EB81000267704710B500EB62
:1008400081000146046E24F0080423440366084630
:10085000026110BD10B500EB81000146046E24F06A
:100860000804234403660846026710BD00EB8100BC
:10087000006980B2704700EB8100006F80B2704762
:1008800000EB810020300168002A02D041F4807121
:1008900001E021F480710160704700EB8100016A82
:1008A00021F4005111440162704700EB8100016A9C
:1008B00021F4805111440162704700EB8100016A0C
:1008C00021F4606111440162704700EB8100016A0C
:1008D00021F0C00101EB82110162704700EB810041
:1008E000016A21F0300111440162704700EB810080
:1008F000016A21F00F0111440162704700EB810091
:10090000006A4004002801DB002070470120704786
:1009100000EB8100016E21F0030111440166704774
:1009200000EB810060300168002A02D041F0040130
:1009300001E021F004010160704710B5CA884B88BE
:100940000C8902EB03128B889B0003EB04331A44DF
:100950004B8902EB83228B8902EB03220B8800EB8D
:10096000830002630A8A4B8AC9891A4402EB012177
:10097000016410BD002141808180C18001814181DD
:100980008181C18101824182704710B5029C00EBD8
:100990008100016B21F01F01240104EB82021A4443
:1009A0001144016310BD00EB8100016B21F00C01CB
:1009B00001EB82010163704700EB8100016B21F0C4
:1009C000030111440163704700EB8100016B21F0CA
:1009D000100101EB02110163704710B5029C00EB9E
:1009E0008100016B21F4F851240304EB822202EB15
:1009F00003221144016310BD00EB8100016B21F45F
:100A0000406101EB82210163704700EB8100016BC3
:100A100021F4407101EB02210163704700EB81007A
:100A2000016B21F4805101EB02310163704710B575
:100A3000029C03EB0222224400EB8100026410BD01
:100A4000406D7047406D084201D001207047002082
:100A50007047426D8A4342657047C36D002A01D0DA
:100A60000B4300E08B43C3657047836D002A01D0C0
:100A70000B4300E08B4383657047426D806D0240FD
:100A80000A40002A01D0012070470020704710B5AD
:100A90000F4B5A6A0F4CA04205D122F0FF000843C9
:100AA00040F0807212E00C4CA04206D122F47F404C
:100AB00040EA012040F0007208E0084CA04205D155
:100AC00022F47F0040EA014040F080625A6210BD8B
:100AD000000002400000074000800740000008407E
:100AE0003C48002181600161012282610160416016
:100AF000704738498A6803799B06002B02DA42F076
:100B0000200201E022F020028A6000680860000AEA
:100B100048607047002141600121016070472D4A03
:100B20009168002802D041F0800001E021F08000AF
:100B300090607047274A9168002802D041F0400039
:100B400001E021F040009060704722480069C00732
:100B500001D001207047002070471E48816941F094
:100B60000101816170471B4A20F001000843506178
:100B70009020906170471749486110208861704744
:100B80001448402181617047124940F0200088617B
:100B900070471048C068C0B270470E48816900694C
:100BA00041EA0020C14340EA0140704700B50246D7
:100BB000FFF7F3FF824301D0002000BD012000BDFC
:100BC00000B50246FFF7E9FF104201D0012000BD49
:100BD000002000BD00000540D148002101604160B7
:100BE0008160C160016141618269C26901624162E3
:100BF0008162C16270478268016803791144C268EA
:100C000002EB03721144026911444269008B1144E2
:100C100001EB4050C349C24A13688B43184410602B
:100C200070470021016041608160C16001614161E4
:100C300081617047BA4A116821F0F07101EB4050B0
:100C40001060704730B5B6490A68B64BDB1C1A40D5
:100C5000D0E900342344D0E9024504EB05142344D1
:100C600044692344C4692344446A234490F82840D7
:100C700003EB446313444A6822F40032048C02EB11
:100C800044420B604A60028B0A61428B8A600069B1
:100C9000886230BD30B5A2494A68A34B1A40D0E9FA
:100CA00000342344D0E9024504EB0514234444698D
:100CB0002344C4692344048C03EB8443446A2344DF
:100CC00090F8284003EB44631A444A60028B4A615F
:100CD000428BCA600069C86230BD0021016041607A
:100CE0008160C1600161416101834183C161016231
:100CF0004162816270478A4A1168002802D041F03F
:100D0000010001E021F0010010607047844A516841
:100D1000002802D041F0010001E021F00100506004
:100D200070477F4A116821F4F87101EB00101060E0
:100D300070477B4A516821F4F87101EB0010506054
:100D400070477749886270477549C8627047744B2D
:100D50001A6822F402720844104418607047704BFD
:100D60005A6822F4027208441044586070476C4A72
:100D7000116821F00801084410607047684A516802
:100D800021F00801084450607047654A116821F459
:100D90000071084410607047614A516821F4007185
:100DA00008445060704710B55D4B1C6824F48064A3
:100DB00022441A601861996010BD10B5584B5C68E8
:100DC00024F4806422445A605861D96010BD5449AB
:100DD00008617047524948617047514988607047BF
:100DE0004F49C86070474E48016841F002010160F8
:100DF00070474B48416841F00201416070474848E4
:100E0000806970474648C06970474548016A406A32
:100E100001EB004070474248006A70474048406A12
:100E2000704700B50246FFF7F0FF104201D00120E5
:100E300000BD002000BD3A49096A014201D00120ED
:100E40007047002070473649496A014201D00120AD
:100E50007047002070473248016A21F001010162A9
:100E600070472F48416A21F00101416270472C48C8
:100E7000016A21F00201016270472948416A21F0AC
:100E800002014162704770B5254E336A756A84006D
:100E90008004020C002904D042EA030045EA144110
:100EA00003E023EA020025EA14413062716270BD5A
:100EB0001B4B1A6A002902D042EA800001E022EAB4
:100EC000800018627047164B5A6A002902D042EA25
:100ED000800001E022EA80005862704700B50246B7
:100EE000FFF793FF02EA9001014009B1012000BD24
:100EF000002000BD0A49096A00EA91000840002864
:100F000001D001207047002070470549496A00EA76
:100F100091000840002801D0012070470020704750
:100F2000008008400000FFF10300FBF10021016395
:100F3000C16241609022826101624162816202224B
:100F40004263816381644FF440710163704770B5FF
:100F500086B004460D4601A800F086FB01986B4957
:100F6000896A6B4B01229C4205D101F007018A403E
:100F7000B0FBF2F007E0674B9C4204D1C1F30221C1
:100F80008A40B0FBF2F02A689108B0FBF1F39909AE
:100F900003F03F03800003EB8116B0FBF6F0801AEC
:100FA000C001B0FBF2F0022802D9002006B070BDEB
:100FB0006162A362E06AA988EA886B8911432A8981
:100FC0001A4311430143E162206B4FF6807188435D
:100FD000A989014321630120E8E74FF4165101601C
:100FE00000218180C180018141814FF44071818164
:100FF0007047002904D0016B41F001010163704783
:10100000016B4FF6FE72114001637047002A03D056
:10101000826B0A4382637047826B8A4382637047A4
:10102000C06B814301D00020704701207047006CE5
:10103000084201D00120704700207047426C0A43EB
:101040004264704742EAC10141637047002A03D0FD
:10105000826C0A4382647047826CC94389B20A4039
:1010600082647047C1F3080101607047006880B274
:101070007047002904D0C16A41F00101C162704784
:10108000C16A4FF6FE721143C162704730B585B038
:1010900004460D46042D08D1684600F0E5FA009894
:1010A0004FF4E111B0FBF1F02062206B2843206384
:1010B00005B030BD002904D0016B41F0020101638D
:1010C0007047016B4FF6FD721143016370478069F1
:1010D000084201D0012070470020704710B50B4B2B
:1010E0009A6A0B4CA04205D142F0807020F0FF02BA
:1010F0000A4308E0074CA04205D142F0007020F4FA
:101100007F4040EA01229A6210BD000000000240C8
:10111000000003400080034010B583680268B3F10B
:10112000406F26D08469641E9B0E9C4022440A6056
:101130004269042A1FD0C268B2F1404F1FD08369B0
:101140005B1E920F934042681A444A60D0E9032321
:101150001A43446A836823431A43036A1A43C369E0
:101160001A43836940695B1E42EA031202438A60A4
:1011700010BD0A60DCE742680C324A60E6E742686C
:101180004A60E3E770480021416081604161491E87
:10119000C1614162C1624163C1630121C1647047A1
:1011A000002905D06849C96801EB00111046B3E772
:1011B000664901EB00111046AEE701EB0011104645
:1011C000AAE770B58AB005460C465F4E5F48B0602E
:1011D00021680091F16801EB051101914FF0006168
:1011E0000291090103914FF00851049104210591E6
:1011F0006168890006914FF400410791A168089148
:10120000E168099100EB05116846FFF785FF0120B1
:101210007060607D0122AA40012809D0F2617262EB
:10122000B2627263207D012804D0F2630AB070BDFF
:10123000B261F4E7B263F9E770B506460C46424D79
:101240004249A9602068002803D001EB0611FFF78E
:1012500063FF606820B1E96801EB0611FFF75CFFEE
:1012600001206860607B0122B24001280AD0EA6157
:101270006A62AA62A07B38B12A63207B012805D06C
:10128000EA6370BDAA61F3E76A63F6E7AA6370BD1B
:101290000021016041608160017341738173704777
:1012A0000021016041608160C1600161017541758B
:1012B0007047012282402448012901D0C262704750
:1012C00082627047012181401F48416170471E4979
:1012D0000120C86470471C4A002907D0D16801EB7F
:1012E00000100089C0F30910401C7047916801EBA1
:1012F0000010F6E710B501228240134CD2B2092942
:1013000020D2DFE801F01F05090D101316191C008B
:10131000206800F0010010BDE06C00F0010010BD7D
:10132000A06A104010BD206A104010BD2069104016
:1013300010BDA069104010BD206B104010BDA06B07
:10134000104010BD002010BD0080024000040020AD
:10135000FE4A002903D0D1690143D1617047D169A8
:101360008143D1617047F94AD16821F4407101434A
:10137000D1607047C0F34211012909D0F449C96B0B
:1013800000F01F0201209040084204D00120704765
:10139000EE490968F4E70020704708B50020009086
:1013A0004FF4C0631720FFF7E5FF0099491C009137
:1013B0000099994201D20028F4D01720FFF7DAFFF4
:1013C00008B1012008BD002008BDE249086070474F
:1013D00000B50120FFF7F9FFFFF7DFFF0020FFF75F
:1013E000C2FFDA48C1680021C1604268416082687A
:1013F0008160026901614269416182698161D64906
:10140000C16100BD00B5FFF7E3FF0121C806FFF78A
:101410009FFFCF48C16B41F48101C163C16B01F4EF
:101420008101C16300BDC9498A6822F003028A6054
:10143000012806D0022803D1886840F003008860A4
:101440007047886840F001008860704708B5002048
:1014500000904FF4C0632220FFF78CFF0099491CD5
:1014600000910099994201D20028F4D02220FFF780
:1014700081FF08B1012008BD002008BDB449CA6B36
:1014800022F00302CA63012806D0022803D1C86BE8
:1014900040F00300C8637047C86B40F00100C863A8
:1014A000704708B5002000904FF4C0630D20FFF78F
:1014B00061FF0099491C00910099994201D20028CE
:1014C000F4D00D20FFF756FF08B1012008BD002021
:1014D00008BD9F4AD16B21F07C5141EA0060D06386
:1014E00070479C491C3908607047994AD16B21F4B8
:1014F000F81141EA0040D063704708B50020009021
:101500004FF4C0631520FFF735FF0099491C009187
:101510000099994201D20028F4D01520FFF72AFF44
:1015200008B1012008BD002008BD884AD36823F017
:1015300003030343D360506820F4706040EA012045
:1015400050608648D0F88810002904D0012140F866
:101550008C1F0021016070478149086070478149F4
:101560000860704708B5002000904FF4C063212048
:10157000FFF700FF0099491C00910099994201D2A0
:101580000028F4D02120FFF7F5FE08B1012008BDA6
:10159000002008BD6D4AD16821F0F00141EA001039
:1015A000D0607047694A136923F003030343136152
:1015B000506820F0F00040EA011050606748D0F811
:1015C0008010002904D0012140F8841F002101600F
:1015D000704765490860704764490860704708B5FE
:1015E000002000904FF4C0632020FFF7C3FE009955
:1015F000491C00910099994201D20028F4D0202082
:10160000FFF7B8FE08B1012008BD002008BD584909
:10161000086070475749086070474C4A516921F08B
:101620003301014351617047484A516921F47061A7
:1016300041EA0020506170474F4908607047434AB3
:10164000916921F0F00141EA0010906170474B4927
:10165000086070473D4A916921F00F010143916193
:1016600070474749086070472DE9F04FDFF8ECB04C
:10167000DBF88411DFF80CA100294FEA4A0501D0FC
:10168000514600E02946DBF8802102B149080B46AB
:10169000DBF88821DFF8B4C02AB1DCF80420C2F3FB
:1016A0000322521C5343DCF80C204FF40048C2F3D1
:1016B000012249F64049012752B1012A0AD0022AE3
:1016C0001BD0C0F80090DBF80422CAB1524618E0E3
:1016D0000560F8E7DCF80C204FEA1212120701D47B
:1016E0001A4608E0DCF80C20C2F30212521C07FA7A
:1016F00002F2B3FBF2F20260E5E7C0F80080E2E735
:101700002A46DBF8004204B152081446DBF80862AE
:101710002EB1DCF80460C6F30316761C744326462B
:10172000DBF810B2BBF1000F00D076084660DCF8A1
:10173000186036095FEA067B07D506F0070B0BF148
:10174000010B07FA0BF6B5FBF6F51DE000000240B1
:1017500000800D40D807B043100000080000404250
:1017600088014042880040420802404280004042D6
:101770002002404210024042B40240422403404250
:101780002003404200093D00C560DCF818605FEAB4
:10179000067B07D506F0070B0BF1010B07FA0BF6DA
:1017A000BAFBF6FAC0F810A0DCF8146016F00306D5
:1017B00004D0012E1AD0022E1AD02146DCF81420B3
:1017C000C2F30112B2B1012A16D0022A00D0294672
:1017D000DCF81420120A130705D502F00702521C88
:1017E0009740B1FBF7F18160BDE8F08F1146E5E766
:1017F0001946E3E74146EBE74946E9E71FB502F042
:10180000D4FB02F006FC01F023FD02F0F8FD02F02B
:101810001CFE02F06CFE02F058FC02F023FE02F007
:101820005BFD02F0C9FD00F008FA02F0D6F903F002
:1018300022FF49480125E9030024016000F070FD02
:10184000502002F048FF552002F048FF4348046052
:101850004460CDE9005402940023802240A1424814
:10186000039404F099FC4148CDE9010402260023C9
:1018700080223FA141480096039404F08DFC00941F
:1018800001940294002380223DA13F48039404F078
:1018900083FC0320CDE900040294002380223BA1B5
:1018A0003D48039404F078FCCDE9005402940023F1
:1018B00080223AA13C48039404F06EFCCDE9006418
:1018C00002940023802239A13948039404F064FC77
:1018D000CDE9005401231E020294324635A1384856
:1018E000039404F059FCCDE90054029401233246DC
:1018F00034A13748039404F04FFCCDE9005402941E
:101900000223324633A12E48039404F045FCCDE96E
:10191000005402940223324631A12D48039404F06E
:101920003BFCCDE900540294002380222FA13348D0
:10193000039404F031FC009401940294002380226B
:101940002FA13348039404F027FC03F009F803F0B7
:1019500034F804F004FFFEE700E100E0840000201A
:1019600047554920746F7000553300082C00002043
:10197000436F6E7665727465720000004F24000834
:101980005365727669636500813D00084469737030
:101990006174636865720000252D000862757474B7
:1019A0006F6E7320746F7000594B00084144430000
:1019B000151A0008554152543120525800000000B9
:1019C0004351000855415254312054580000000042
:1019D000195300085541525432205258000000005B
:1019E000554152543220545800000000536F756E18
:1019F000642064726976657200000000573E00083A
:101A0000454550524F4D2064726976657200000062
:101A10009559000808B500220421052004F013F9A7
:101A2000604C606180B103220021012004F00BF9B9
:101A3000A06120B100231A46194604F093F9A06969
:101A400018B14FF0FF3534E0FEE7FEE703202070C9
:101A500000232A461946A06904F03AFA2089800832
:101A600000EB800081B2A18060898008E0804E4A4E
:101A7000126F526B927B520707D500EB80004FF636
:101A8000FF7202EA4000E08002E000EB8000E080AC
:101A9000E08841434FF47A7091FBF0F0E060082059
:101AA000206142483F4900231A461031006804F083
:101AB00059F900232A466946606904F009FA00983A
:101AC0000128F6D1C2E770B5364C00222146607875
:101AD00001250426C978032838D005DC50B1012837
:101AE0000ED0022804D12AE0102840D0112845D079
:101AF000627070BD2078A0700028FAD0657070BD4B
:101B0000A07800F00501012908D081070DD520F04B
:101B10000200A07010206070628170BD20F005008E
:101B2000A07002206070228170BD62702270A06976
:101B3000BDE8704000231A46194604F078B9042025
:101B4000FFF7EFF8E6700320607070BD042904D23F
:101B5000FFF755F9218908442081E07828B1FFF783
:101B600042F9E078401EE07070BD657070BD0720DE
:101B7000FFF7D7F8E6701120607070BD042904D219
:101B8000FFF73DF9618908446081FFF72CF9E0789F
:101B900028B1FFF728F9E078401EE07070BD65704D
:101BA00070BD0000040000202C0800205800002018
:101BB00070B500244A4D686820F0C00068600A20B3
:101BC00001F05FFB064647480068810600D41024F8
:101BD000400701D444F480742868C10701D144F05F
:101BE0000104810701D444F00204410701D444F008
:101BF0000404C10601D444F00804800601D444F072
:101C00002004304601F042FB0028FAD128686968B8
:101C100041F0C0016960010601D444F0400440066F
:101C200001D444F080043048048070BD2F48002166
:101C300041808180C1800181704700202B4A0021B2
:101C40000A3222F81010401CC0B20928F9D3EDE77F
:101C50002DE9F041FFF7ACFF2348008820F00F0585
:101C6000FFF7E4FF0021214C01274FF6FF7C04F130
:101C70000A0607FA01F082B236F811000CEA4000B9
:101C8000154201D040F0010000F00303012B04D005
:101C9000022B06D0032B19D111E063881343638014
:101CA00014E0A3881343A380C0F38803A3F58078CE
:101CB000B8F1FF080AD0E3881343E38006E0C0F3DD
:101CC0008803FF2B02D123891343238126F81100B7
:101CD000491CC9B20929CCD32580BDE8F081000098
:101CE00000000B4000800A40200000200008002077
:101CF0001E48006840F30000401C70471C48006804
:101D000040F38020401C70471A4A012803D0042168
:101D10001046FEF787BC04211046FEF778BC154834
:101D20000068C0F380007047124A012803D00821E0
:101D30001046FEF777BC08211046FEF768BC0B4A38
:101D4000012803D002211046FEF76CBC0221104688
:101D5000FEF75DBC084A012803D040211046FEF77B
:101D600061BC40211046FEF752BC000000800A40D2
:101D700000000B4000800E4000800C40FE4890F8B0
:101D80007400012801D0002070470120704701280D
:101D900003D0F948383040887047F748FBE70128FE
:101DA00003D0F5483830C0887047F348FBE7012876
:101DB00003D0F148383080887047EF48FBE70128AE
:101DC00004D0ED48383019B140897047EA48FAE745
:101DD00000897047012806D0E748383029B1007CD7
:101DE000C0F340007047E448F8E7007C00F00100D1
:101DF0007047012805D0E048383021B122300088F2
:101E00007047DD48F9E71230F9E7012805D0DA48D4
:101E1000383021B1223080887047D748F9E7123036
:101E2000F9E7012805D0D448383021B12230408864
:101E30007047D148F9E71230F9E7012806D0CE48BB
:101E4000383029B122302AB100897047CA48F8E7F2
:101E50001230F8E7C0887047012808D0C6483830EB
:101E600039B122303AB1807BC0F340007047C2489C
:101E7000F6E71230F6E7807B00F001007047BE48BD
:101E800090F8750000F001007047BB4890F87500AD
:101E9000C0F340007047B848B0F87600704701289A
:101EA00006D0B5483830406B807BC0F38000704767
:101EB000B148F8E7B048006F007800F001007047C3
:101EC000AE48006890F904007047AC4900280968E2
:101ED00002D091F90600704791F90500704710B5DE
:101EE0000022847BE30704D0C3888B4201DB1946C0
:101EF0000222A30704D503898B4201DC1946012283
:101F000043888B4201DB1946042283888B4201DC23
:101F1000194603220180104610BD30B500244589C2
:101F2000954201DB2A4604248589954201DC2A4634
:101F30000324857B29B1028163F341058573204623
:101F400030BDC28063F300058573F8E7012803D034
:101F500089483830801CC2E78748FBE770B50546E2
:101F6000012D0BD0844C3834A01CFFF7D6FF064659
:101F700061882846FFF7EAFF304670BD7E4CF3E7E4
:101F8000012805D07C48383021B122301146A6E71F
:101F90007948F9E71230F9E72DE9F0410E4611468C
:101FA0001A46069B0546012D0FD0734C383476B186
:101FB00022342046FFF7B1FF0746228831462846E3
:101FC000FFF7DEFF3846BDE8F0816B4CEFE71234D7
:101FD000EFE730B5054602EBD2704210012A02DA73
:101FE0000122042005E0FA2A02DDFA22032000E0A3
:101FF0000020614B75331C7865F3000461F34104E4
:102000001C70A3F8012030BD012806D0002804D0A0
:102010005948006F007800F001007047002807D091
:10202000012805D05448006F406B807BC0F38000CE
:102030007047534850490068891C02880A804288CA
:10204000CA8082880A8183798A7B63F300028A735B
:10205000C37963F341028A73028A0A82428ACA827E
:10206000828A0A83837D8A7F63F300028A77C37D35
:1020700063F341028A77028B0A84428BCA84828B83
:102080000A85837F91F82E2063F3000281F82E20C9
:10209000C37F63F3410281F82E20891E90F820202F
:1020A000002A4DD001F122023A3141F8062C028972
:1020B0000A804289CA8082890A81837B8A7B63F392
:1020C00000028A73C37B63F341028A73428C0A82E3
:1020D000828CCA82C28C0A8390F828308A7F63F38C
:1020E00000028A7790F8293063F341028A77428DA3
:1020F0000A84828DCA84C28D0A8590F8303091F8A6
:102100002E2063F3000281F82E2090F8313063F323
:10211000410281F82E203A3990F832209AB1164ABD
:102120005A3241F86C2F10F8343F4A7A63F30002B8
:102130004A72437863F341024A724088488170478B
:102140000D4A1232B0E70C4A4A32EAE700B50120E4
:10215000FFF71DFE0A4B1968088000210120FFF7D8
:102160002EFE1968488001210846FFF728FE1968ED
:1021700088800021012005E02C080020C4010020F7
:10218000C8010020FFF726FE196888710121084662
:10219000FFF720FE1968C87100210120FFF729FE12
:1021A00019680882002211460120FFF746FE1968CF
:1021B0004882012200211046FFF73FFE19688882FD
:1021C000002211460120FFF747FE19688875012299
:1021D00000211046FFF740FE1968C8750121084626
:1021E000FFF707FE19680883012100220846FFF760
:1021F00024FE19684883012211461046FFF71DFE90
:1022000019688883012100220846FFF725FE196816
:102210008877012211461046FFF71EFE1968C8771D
:102220000120FFF73CFE196881F820000020FFF72D
:10223000AEFD1968088100210846FFF7C0FD196846
:10224000488101210020FFF7BAFD1968888100212B
:102250000846FFF7BFFD1968887301210020FFF7CA
:10226000B9FD1968C87300210846FFF7C2FD196857
:102270004884002211461046FFF7DFFD1968888464
:10228000002101220846FFF7D8FD1968C884002202
:1022900011461046FFF7E0FD196881F8280000217B
:1022A00001220846FFF7D8FD196881F829000121AD
:1022B0000020FFF79EFD1968488500220121104685
:1022C000FFF7BBFD19688885012211460020FFF742
:1022D000B4FD1968C885002201211046FFF7BCFD36
:1022E000196881F83000012211460020FFF7B4FD83
:1022F000196881F831000020FFF7D1FD196881F8D5
:102300003200FFF7BCFD196881F83400FFF7BDFD0E
:10231000196881F83500FFF7BEFD1968C88600BD51
:1023200010B57821FE480AF0F5FBFD4C1C3414F87A
:102330001C0C40F0010020F0020004F81C0C0020EE
:1023400024F8180C42F2107124F8161C24F8100C12
:1023500024F80E1C217921F00401217124F8080CC5
:1023600044F6206124F8061C20806180227D42F022
:102370000402227520814A00628120826282227FCB
:1023800022F0010222F0020222772084618420855B
:10239000618594F83C2022F0040284F83C202086D9
:1023A00061862087618794F84C2042F0040284F80B
:1023B0004C20A4F84000A4F84210A4F84800A4F867
:1023C0004A1094F8590040F0010020F0020084F80F
:1023D00059000520A4F85A00A4F10A00A061383081
:1023E0002065123860651C3C00F0ABFB00F061FB1F
:1023F0000028FBD0206F007800F00100FFF794FC6C
:10240000206F406B807BC0F38000FFF798FC206F4B
:10241000408800F00DFB206F406B817B0088C1F38A
:10242000800100F01BFB206F0078BDE81040C0F376
:102430004000FFF78FBC0A220A7004224A7002781B
:102440000A71407848710020C8718871704786B061
:1024500000221021052003F0F6FBDFF8C892C9F82E
:10246000000020B3002103F0BDFBAD4CAE4E04F1E3
:1024700038074FF0020B4FF00008A4F110054FF0A1
:10248000010ADFF8A09200235A1E02A9D9F8000021
:1024900003F01EFD9DF808000E28F2D2DFE800F0E0
:1024A000F6F5F4F380F7ACF1F0EFEE084D5AFEE7E5
:1024B00094F87400012801D100F043FB84F8748083
:1024C000FFF7B7FD02E0012003F0E5FF00F0F1FAAD
:1024D0000028F8D0206F406B807BC0F3800000F0B4
:1024E00004FB102814D04FF0110900F02AFB8C498E
:1024F00002A81039FFF79FFF0B20E87185F80690BE
:10250000874900231A461039306803F02BFCB8E7DE
:10251000206F408800F08CFA206F406B817B008830
:10252000C1F3800100F09AFA206F0078C0F34000F8
:10253000FFF710FC4FF01009D9E7FFF707FE0398EB
:1025400000289ED0039800231A460068194603F01D
:1025500009FC96E703F0D6FA74489DF8101000685D
:1025600001719DF8111041719DF81210817103F0F5
:10257000D5FA206F408800F05BFA206F406B817BBA
:102580000088C1F3800100F069FA03980028BED0EA
:10259000039800231A460068194603F0E3FB70E72E
:1025A0009DF81000FFF730FD8DF810000599FFF73A
:1025B000CDFC8146206F9DF81010027802F00102D8
:1025C000914202D1408800F033FA554902A81039EF
:1025D000FFF731FF85F807A09DF81010287A61F306
:1025E0000100287285F806904D4900231A461039DB
:1025F000306803F0B7FB44E79DF81000FFF704FDD7
:102600008DF810009DF81100FFF708FD8DF81100FE
:102610009DF8103001461846059AFFF7B1FC814637
:10262000206F9DF81010027802F0010291420AD149
:10263000406B9DF81120817BC1F380018A4202D159
:10264000008800F00BFA364902A81039FFF7F3FEB4
:1026500085F807B09DF81010287A61F301009DF805
:10266000111061F38300287285F806902C4900232D
:102670001A461039306803F075FB02E7ACE164E1FB
:10268000F7E038E003E088E093E174E1C0E19DF811
:102690001000FFF7B9FC8DF810009DF812309DF87E
:1026A0001110059AFFF75AFC8146206F9DF8101013
:1026B000027802F00102914202D1408800F0B8F99C
:1026C000174902A81039FFF7B6FE0320E8719DF8FC
:1026D0001010287A61F301009DF8111061F30510C4
:1026E000287285F806900E4900231A461039306882
:1026F00003F038FBC5E69DF81000FFF785FC8DF868
:1027000010009DF81100FFF789FC8DF811009DF86D
:10271000131000919DF812209DF810C0014607E0AB
:102720002C0800202400002040000020C4010020CC
:102730006046059BFFF730FC8146206F9DF8101026
:10274000027802F0010291420AD1406B9DF81120FB
:10275000817BC1F380018A4202D1008800F07EF9BA
:10276000B04902A8FFF767FE0420E8719DF8101039
:10277000287A61F301009DF8111061F383009DF840
:10278000121061F30510287285F8069000231A468E
:10279000A449306803F0E6FA73E69DF81000FFF7ED
:1027A00033FC8DF81000216F097801F00101884297
:1027B0004ED094F87400012807D100F0C2F984F8D3
:1027C000748002E0012003F066FE00F072F9002838
:1027D000F8D09DF8100000F071F9102804D04FF0E7
:1027E000110900F0AEF935E09DF81000012802D083
:1027F0003846206705E08B481030FAE7012003F0E7
:102800004AFE00F056F90028F8D0206F406B807B1C
:10281000C0F3800000F069F9102804D04FF01109CE
:1028200000F08FF916E0206F408800F001F9206F6A
:10283000406B817B0088C1F3800100F00FF9206FAD
:102840000078C0F34000FFF785FA4FF0100901E06F
:102850004FF00309734902A8FFF7EDFD0720E87167
:1028600085F8069000231A466E49306803F07AFA1C
:1028700007E69DF81000FFF7C7FB8DF810009DF8E4
:102880001100FFF7CBFB8DF811009DF81010012906
:1028900012D0B946D9F83420927BC2F3800290421C
:1028A0003ED0226F127802F0010291422ED194F8AC
:1028B0007400012808D127E0DFF8689109F11009B8
:1028C000E8E7012003F0E7FD00F0F3F80028F8D076
:1028D0009DF8110000F009F9102803D000F031F93B
:1028E00011231EE09DF8110058B109F12200C9F82A
:1028F0003400817B0088C1F3800100F0AFF8102321
:102900000FE009F11200F2E711230AE028B109F102
:102910002200C9F83400102303E009F11200F8E79F
:102920000323404902A8FFF786FD0620E8719DF8C1
:102930001010287A61F301002872AB7100231A4647
:102940003849306803F00EFA9BE59DF811109DF8A8
:102950001000059AFFF73DFB0346324902A8FFF736
:102960006AFD0520E871AB7100231A462D493068D5
:1029700003F0F8F985E594F8740080B102280ED0D0
:102980001023284902A8FFF756FD0820E871AB7113
:1029900000231A462349306803F0E4F971E500F09A
:1029A000B9F8102801D01123EBE784F874A01023A4
:1029B000E7E700F0C6F884F874801023194902A8EC
:1029C000FFF739FD0920E871AB7100231A4615495C
:1029D000306803F0C7F954E584F874B000F0BFF82C
:1029E000102813D000F0ADF813200A21297004221A
:1029F0006A7085F8048085F80580E971A871002364
:102A00001A460849306803F0ADF93AE51220ECE7C0
:102A1000C9F804A0054800231A460349006803F0DA
:102A2000A1F92EE51C080020280000201800002035
:102A30000521B0FBF1F0B44A126892F9042092FB30
:102A4000F1F10844002801DA002004E0B0F5805FCD
:102A500001DB40F6FF7080B201F037BE30B4AA4A05
:102A60004FF480556C1E136801290BD00521B0FB73
:102A7000F1F093F9062092FBF1F10A18002A11DA1D
:102A8000002212E00A21B0FBF1F093F9052092FB3D
:102A9000F1F10A18002A01DA002206E0AA4204DB5A
:102AA000224602E0AA4200DB224690B230BC01F08E
:102AB0000FBE9648007800F01000704710B5934C98
:102AC0002178C90701D0132010BD2178C90601D48F
:102AD000112010BD72B6FFF727F962B608206070AA
:102AE00060780028FCD1102010BD10B5874C2178EB
:102AF000C90701D0132010BD2178C90601D41120C7
:102B000010BDFFF71CF90820607060780028FCD128
:102B1000102010BD7D480178C90701D010207047F2
:102B20000178490701D5122070470178C90601D400
:102B3000112070470121417041780029FCD11020FB
:102B40007047724801788907002901DA1020704720
:102B50000221417041780029FCD1102070476B4858
:102B60000178C90701D011207047042141704178D4
:102B70000029FCD1102070472DE9F041634D2878E1
:102B80004FF4FA7710F00A0F01D0AF8003E0A88865
:102B900008B1401EA880A88848B100245C4E54B1FA
:102BA000E88808B1401EE880012C08D015E0FFF746
:102BB0009FF80446F2E7B6F87600E880F4E7A889C3
:102BC00058B996F87500800707D5534801230022AD
:102BD0005049006803F02BF9AF814FF04B08012CEE
:102BE00016D1E888A0B996F87500C00710D02878EB
:102BF00020F001002870287840F006002870A5F821
:102C000008804748012300224449006803F00FF977
:102C10006878400703D5287820F004002870687889
:102C200080070DD5287880070AD4287820F0010085
:102C30002870287840F002002870A5F8088010E07D
:102C40006878C0070DD02878C0070AD128784007D7
:102C500007D4287820F002002870287840F001007E
:102C600028706878000701D5322028816878C0066E
:102C700000D56F81A878C00704D0287840F00800FC
:102C8000287006E0A878800703D5287820F008008F
:102C9000287000206870A870287810F00A0F03D000
:102CA0000020FFF731F805E02878C00702D00120A6
:102CB000FFF72AF800202978C90702D0698901B9ED
:102CC0000120012C03D096F87410022901D140F0A4
:102CD000020001F037F8288930B1401E2881287899
:102CE00020F01000287003E0287840F010002870D1
:102CF000688908B1401E6881A889002801D0401E5B
:102D0000A881BDE8F0810000C4010020300000204F
:102D10002C08002098F40008680000206CF40008DB
:102D20002400002092B0002210210A2002F08BFF24
:102D3000DFF840A4CAF8000000287DD0032200215B
:102D4000012002F080FFCAF8040020B100231A46D7
:102D5000194603F007F8DAF8040000286DD00322C2
:102D60000021012002F06FFFCAF8080020B1002303
:102D70001A46194602F0F6FFDAF8080000287DD05E
:102D8000322003F088FBFC484FF0000980F80090E7
:102D900004A98160F749091D416000231A461946BC
:102DA000DAF8040003F094F8F44800235D1E2A4684
:102DB000F149006802F0D6FF00232A461946DAF8E6
:102DC000040003F085F8042005909DF81000002809
:102DD00068D000200690EA4C00231A4605A9206816
:102DE00002F0C0FF0B208DF82800CDF82C90DFF802
:102DF00094B300232A460AA9DBF8000002F0B2FFD0
:102E000003268DF80060CDF80490DF4800231A46B1
:102E10006946006802F0A6FF7D2003F03CFB0596A2
:102E200000231A4605A9206802F09CFF0627059793
:102E300002208DF8180001E031E031E09DF810002B
:102E400000F00C008DF819009DF83C008DF81A0078
:102E500000232A4605A9206802F084FFCB4803908E
:102E6000CB4E00231A4603A9306802F07BFFC94D00
:102E70004FF0010800235A1E0EA900E011E0DAF815
:102E8000000003F025F89DF83800C01F0A28F1D291
:102E9000DFE800F00A1BF3F241A84FF4F028FEE748
:102EA000FEE7FEE7012095E7CDF81480BDF83C0071
:102EB000ADF81800BDF83E00ADF81A0000231A4620
:102EC00005A9206802F04EFFD4E702200590BDF866
:102ED0003C00ADF8180000231A4605A9206802F04E
:102EE00041FFC7E70B208DF81C009DF83900012831
:102EF00009D00228BED1A84800231A4607A90068B5
:102F000002F030FFB6E7A54800231A4607A900687B
:102F100002F028FFAEE79848022101709DF83C10AE
:102F200001720146954800231A46006802F01AFF14
:102F3000A0E79DF83D00B0B105978DF818908DF889
:102F400019009DF83C008DF81A0000235A1E05A9AF
:102F5000206802F007FF039500231A4603A9306892
:102F600002F000FF86E70B208DF8280000235A1E90
:102F70000AA9DBF8000002F0F5FE03208DF800003E
:102F80007C480830019000231A461946DAF80800F8
:102F900002F09EFF7C4800231A466946006802F052
:102FA000E1FE00235A1E1946DAF8080002F090FFED
:102FB00005978DF818909DF83D008DF819009DF843
:102FC0003C008DF81A0000235A1E05A9206802F063
:102FD000C9FE6E48039000231A4603A9306802F028
:102FE000C1FE47E702F040FB0C208DF82800614845
:102FF00008300B9000231A461946DAF8080002F050
:1030000067FF00231A460AA9DBF8000002F0AAFEB7
:1030100000235A1E1946DAF8080002F059FF04206E
:103020008DF8000053480830019000231A461946D5
:10303000DAF8080002F04CFF534800231A466946AC
:10304000006802F08FFE00235A1E1946DAF80800C5
:1030500002F03EFF4848032101709DF83C100172C8
:103060001099C1600146454800231A46006802F0E5
:1030700079FEFFE634E001E055E040E09DF83D00D8
:10308000B0B105978DF818808DF819009DF83C00B7
:103090008DF81A0000235A1E05A9206802F062FE6E
:1030A000039500231A4603A9306802F05BFEE1E6AF
:1030B00005978DF818808DF819009DF83C008DF863
:1030C0001A0000235A1E05A9206802F04BFE2F4863
:1030D000039000231A4603A9306802F043FEC9E6B4
:1030E0009DF83D109DF83C0002F042FC0720059041
:1030F00000235A1E05A9206802F034FEBAE69DF8A6
:103100003C008DF828009DF839008DF82900DDE994
:103110001001CDE90C0100231A460AA9DBF80000D2
:1031200002F020FEA6E6052005909DF83F008DF8F0
:1031300018009DF8400000F003018DF81910C0F34D
:1031400081018DF81B10C0F301108DF81A000023C7
:103150001A4605A9206802F005FE9DF83D000128E9
:1031600052D0022850D0CDF80C909DF83F000B288B
:103170003BD215E040000020A4080020CC01002034
:1031800058000020240000209000002032000100A0
:103190006800002032000200B8010020B4010020C5
:1031A000DFE800F02306060606060E0E23231900AC
:1031B0009DF83E0008B103951EE0204803901BE0F7
:1031C0009DF83E00032802D0112802D014E0039598
:1031D00012E0039510E09DF83E00132802D0184835
:1031E000039009E01748039006E09DF83E0011287F
:1031F00001D0132800D10395039828B100231A4663
:1032000003A9306802F0AEFD9DF83D00012801D011
:10321000022887D18DF81C80012807D00A48002396
:103220001A4607A9006802F09DFD23E6074800231F
:103230001A4607A9006802F095FD1BE6320001005E
:103240003400030034000200B8010020B401002063
:1032500011480168C9070AD1016841F08071016015
:103260000E4800214160016841F001010160704792
:103270000A4840687047081A704708494968081AA0
:1032800070470649496801EB401070470349496897
:10329000081AC00F70470000FCED00E0001000E0CD
:1032A0001A4908788006000E0870194A1368DB0571
:1032B000002B02DA40F0010008701068800503D589
:1032C000087840F002000870087800F00F000F281E
:1032D0000CD2DFE800F00B0C080B080B0B0C0C0BEE
:1032E0000B080B080C004888401E4880704748882F
:1032F000401C4880704705498A88488820F00300B0
:103300008880801A00B28010C88070474C0000206E
:1033100000000B4038B5FC4A012313701072C2F84C
:103320000CD01161F94C00231A461946A06802F02E
:10333000CFFDF74800235D1E2A46F349006802F0DE
:1033400011FD00232A461946A06802F0C1FD9DF830
:10335000000038BD86B0002208210A2002F073FC6C
:10336000EA4D686068B303220021012002F06BFC83
:10337000A86020B100231A46194602F0F3FCA868A1
:1033800000B3E14803214170E0490831416003F096
:10339000BCFDE04806F015FC4FF0FF360023324636
:1033A00004A9686802F094FD04980E28F6D2DFE8BC
:1033B00000F0283D450A304AE5FDD207070707DF40
:1033C000ECE7FEE7FEE7FEF775FD04F016FAF020E5
:1033D0008DF8080002A9CF4806F039FB06F07FFB04
:1033E0000024C94920461431FFF794FF0146C64A1C
:1033F0002046143205F0B2FD641CE4B20A2CF0D36E
:10340000CCE706F054FD06F01FFCC34800F033FC87
:10341000C4E7F1208DF8080005988DF8090002A98D
:10342000BC4806F014FB06F05AFBB7E7BDF81400E1
:10343000C1B2BDF8160006F019FDAFE7BDF91400E2
:1034400006F024FDAAE79DF814000828A6D2DFE8BC
:1034500000F004050F1D3C74656F9FE79DF8150093
:10346000FEF795FC01469DF8150004F09AF995E7E2
:103470009DF817109DF81500FEF7BBFC02469DF85D
:1034800017109DF8150004F093F987E79DF81610C2
:103490009DF81500FEF793FC04469DF816109DF864
:1034A0001500FEF797FC02469DF816109DF81500D2
:1034B000234605F02AFD9DF81500FEF768FC01463D
:1034C0009DF8150004F06DF968E79DF816209DF849
:1034D00017109DF81500FEF7B0FC04469DF8162065
:1034E0009DF817109DF81500FEF7B6FC03460094F2
:1034F0009DF816209DF817109DF8150005F017FD92
:103500009DF817109DF81500FEF773FC02469DF814
:1035100017109DF8150004F04BF93FE79DF81500D2
:10352000FEF7BDFC01469DF8150004F04EF935E7A5
:10353000FEF7C0FC04F061F930E7FEF7A0FC04469A
:10354000FEF7A3FC0746FEF7A6FC024639462046D6
:1035500005F002FD22E77148008804F0BBF87048CE
:10356000008804F0D2F86F48006804F0EAF815E724
:103570006D48B0F9000004F000F90FE79DF8140061
:1035800020B101282FD002287BD160E09DF81500E2
:10359000B8B1082820D01E2300220321022006F003
:1035A00051F859499DF81600143100E06CE0FFF71E
:1035B000B1FE0146544A9DF81600143205F0CEFCC7
:1035C0005FE000221E231146104606F03BF8FEF78E
:1035D00071FC04F012F954E002211E230022084677
:1035E00006F030F8DDE79DF81500A8B1082827D0CF
:1035F0001E2300220321022006F024F842499DF8F0
:1036000016001431FFF786FE01463F4A9DF816006A
:10361000143205F0A3FC34E000221E2301211046E1
:1036200006F010F838499DF816001431FFF772FEC5
:103630000146354A9DF81600143205F08FFC20E053
:1036400002211E230022084605F0FCFFD6E702F007
:103650008BF980B19DF8150030B11E2300220421A2
:10366000012005F0EFFF0CE000221E23052110468B
:1036700005F0E8FF05E000221E230421104605F0B6
:10368000E1FF0020287089E604F0CAFC86E61E4AA5
:1036900009231C3A1370032353700423137110720F
:1036A000D1602248002318495A1E1C39006802F0D4
:1036B00059BB30B4144C09251C3C2570032565709A
:1036C0000525257120726172A272E36017482146B8
:1036D0000023006830BC5A1E02F044BB30B40A4BD1
:1036E00009241C3B1C7003245C7006241C71187296
:1036F0005972DA600D480023034900685A1E30BC35
:103700001C3902F02FBB0000D40800205400002018
:10371000CC01002090530020E86600200800002023
:103720000A0000201000002060000020400000205F
:10373000F0B4049D524C09262670032666700726B5
:10374000267120726172A272E372E5604D482146D3
:1037500000230068F0BC5A1E02F004BB484A09234B
:10376000137003235370082313711072517245486C
:1037700000235A1E4249006802F0F4BA30B4404BAC
:1037800009241C7003255D701C7118725972DA606F
:103790003C4800235A1E006830BC394902F0E2BAA6
:1037A00010B5394C217800290BD135490B220A700C
:1037B0000871344800231A46006802F0D3FA012049
:1037C000207010BD10B5304C2278002A0DD12C4A43
:1037D0000C231370107191602A4800231A4628495F
:1037E000006802F0BFFA0120207010BD244A0F23A8
:1037F00013700323537010715171224800235A1E15
:103800001F49006802F0AEBA30B41D4B02241033D9
:103810001C70187259729A721C480023184900686B
:103820005A1E30BC103102F09DBA30B4144B09243A
:103830001C7003245C700D241C71187259729A72EA
:10384000104800235A1E006830BC0D4902F08ABAA5
:1038500070B502F057F9FEF733FB04460020FEF77F
:1038600034FB05460120FEF730FB064602F056F910
:10387000324629462046BDE8704005F08FBB000067
:10388000B8080020400000205400002090000020D4
:103890002DE9F04707460D461446002607F4E06080
:1038A000C00940F0A0084FF080494846FDF788F96C
:1038B0000128FAD100214046FDF755F94FF0007A72
:1038C0005046FDF77DF90128FAD14FF000494846EE
:1038D000FDF776F9012805D00126FDF751F93046AC
:1038E000BDE8F087F8B2FDF746F957463846FDF7D0
:1038F00067F90128FAD14846FDF762F9012801D09D
:103900000226EAE701214046FDF72DF93846FDF78A
:1039100057F90128FAD14846FDF752F9012812D08B
:103920000326DAE71CB10020FDF72EF902E008209B
:10393000FDF72AF93846FDF743F90128FAD1FDF7DA
:1039400028F905F8010B2000A4F10104E4B2E9D143
:10395000C3E710B54FF080442046FDF731F9012848
:10396000FAD10021A020FDF7FEF84FF000742046A8
:10397000FDF726F90128FAD1FDF702F94FF00040D2
:10398000FDF71EF9012801D0002010BD012010BD57
:103990002DE9F04106460F461546FFF7DAFF0028ED
:1039A000FBD012E006F00F00C0F11004AC4200D9C9
:1039B000ECB2224639463046FFF76AFF002807D1AD
:1039C000301986B2281B85B22744002DEAD1002089
:1039D000BDE8F0812DE9F04780460D4614460026EB
:1039E00008F4E060C00940F0A0074FF08049484665
:1039F000FDF7E6F80128FAD100213846FDF7B3F8C3
:103A00004FF000773846FDF7DBF80128FAD14FF088
:103A100000494846FDF7D4F8012804D00126FDF7F7
:103A2000AFF830465CE708F0FF00FDF7A4F8384631
:103A3000FDF7C6F80128FAD14846FDF7C1F801287C
:103A400001D00226EBE74FF400480DE02878FDF79F
:103A500092F86D1C3846FDF7B3F80128FAD14046BC
:103A6000FDF7AEF8012805D02000A4F10104E4B26E
:103A7000ECD1D4E70326D2E72DE9F04106460F4604
:103A80001546FFF766FF0028FBD016E006F00F0092
:103A9000C0F11004AC4200D9ECB22246394630469F
:103AA000FFF798FF002893D1301986B2281B85B202
:103AB0002744FFF74EFF0028FBD0002DE6D1002061
:103AC00086E7000070B50446012901D144F48074F2
:103AD0009A4D02212846FCF794FC0128F9D1214691
:103AE0002846BDE87040FCF787BC10B5FFF7C9FB5E
:103AF00004462046FFF7CAFB0028FAD110BD10B5D6
:103B00008F4A012807D004211046FCF78BFDBDE841
:103B100010401420E9E704211046FCF778FDF6E791
:103B200070B50021E220FFF7CDFF00213D20FFF717
:103B3000C9FF00210120FFF7C5FF0021E120FFF7A9
:103B4000C1FF00210846FFF7BDFF00212420FFF739
:103B5000B9FF00219020FFF7B5FF0021A020FFF75B
:103B6000B1FF0021C820FFF7ADFF0021A620FFF71D
:103B7000A9FF0021A420FFF7A5FF00212F20FFF7B8
:103B8000A1FF00214020FFF79DFF0021F820FFF753
:103B900099FF0021D020FFF795FF00213020FFF78B
:103BA00091FF0021B020FFF78DFF00211020FFF7CB
:103BB00089FF00210846FFF785FF002440F25F35AA
:103BC00001210020FFF77EFF641CA4B2AC42F7D3B2
:103BD000BDE870400021AF2074E770B5584C01215A
:103BE0002046FCF71FFD4FF47A652846FFF77DFF5E
:103BF00001212046FCF70BFD2846FFF776FF012048
:103C0000FFF77DFFFFF78CFF4C4C10212046FCF79F
:103C1000F8FB0028F9D10220FFF771FFFFF780FFC2
:103C200010212046FCF7EDFB0028F9D170BD70B5DE
:103C30000D46FFF764FF0021B020FFF743FF00218E
:103C40001020FFF73FFF00210846FFF73BFF00244D
:103C50004FF4587615F814000121FFF733FF641C68
:103C6000A4B2B442F6D3354C10212046FCF7C9FB70
:103C70000028F9D170BD2DE9F0470646092701203B
:103C8000FFF73DFF0021B020FFF71CFF00211020AF
:103C9000FFF718FF00210846FFF714FF60244FF0DC
:103CA000000811E00025641EA4B20121305DFFF779
:103CB00009FF6D1CADB2602DF5D304F59074A4B26C
:103CC00008F1010808F0FF08B845EBD3DFF86C9065
:103CD00010214846FCF795FB0028F9D10220FFF798
:103CE0000EFF0021B020FFF7EDFE00211020FFF7AE
:103CF000E9FE00210846FFF7E5FEC0244FF000086A
:103D000011E00025641EA4B20121305DFFF7DAFE48
:103D10006D1CADB2602DF5D304F59074A4B208F11A
:103D2000010808F0FF08B845EBD310214846FCF71E
:103D300068FB0028F9D1BDE8F087000000000A40C8
:103D400000800C4070B504460C4DE00704D0802183
:103D50002846FCF767FC03E080212846FCF757FC67
:103D6000A00705D52846BDE870404021FCF75ABCA5
:103D70002846BDE870404021FCF749BC00000B40DC
:103D800008B502F013FD00900220FCF7D2FF1C4C96
:103D9000FA21684602F056FB00260025FDF729F8B7
:103DA000022002F078FBFDF72DF8304486B26D1C3E
:103DB0000A2DF3D330460AF020FF124A124B0AF0C4
:103DC0006BFF124A124B0AF067FF0022114B0AF0F8
:103DD000EDFD0AF0E3FE00B22080192801DA32205E
:103DE00000E0400080B200F076FC0D2060600A48E0
:103DF000034900231A46091D006801F0B3FFC7E715
:103E0000600000209A9999999999B93F21B07268F8
:103E100091EDCCBF00C06C4058000020052800D3B5
:103E20000020474951F8200070474649421E8A60E9
:103E3000400848617047434A516B40F60C43994330
:103E4000002803D040F60800014302E040F204409D
:103E50000143516370470EB50020019080468346B0
:103E6000002204210A2001F0EEFE3549091F0860F6
:103E700080BBFEE788B2090C404554D980460191C9
:103E800051E0D84500D901244FF0000A062C40D259
:103E9000DFE804F03F030C1A23370198FFF7BEFF59
:103EA00081460224C3464FF0000839E0D9F80400E7
:103EB000009099F800700098384303D009F1080980
:103EC00003242DE000242BE02FB17F1EBFB2009E03
:103ED000042425E027E0022422E03088758855EA92
:103EE000000107D0361D38B1FFF79FFF0120FFF713
:103EF000A2FF04E0032413E00020FFF79CFF052449
:103F00000EE025B16D1EADB24FF0010A08E00424A9
:103F100006E04FF0000B0020FFF78DFF4FF0010A85
:103F2000BAF1000FB2D006480023001F5A1E02A9A2
:103F3000006801F0CDFF029911F5803FA1D099E70B
:103F40006C00002000000740FE48FD49816001210F
:103F5000416070472DE9F04107460D46F94E0124B6
:103F6000BC40F4622868002804D0F54901EB071131
:103F7000FDF7D2F8686820B1F16801EB0711FDF791
:103F8000CBF8687B01280AD0F4617462A87B40B149
:103F90003463287B012806D0F463BDE8F081B46166
:103FA000F3E77463F5E7B463F7E710B50120FDF7B5
:103FB0003AFAFDF74BFA012800D0FEE7072102206C
:103FC000FDF7B3FA0120FDF7CAFAFDF7CBFA012895
:103FD00000D0FEE70020FDF7DDFA0120FDF7BCFA76
:103FE0004FF48070FDF7BFF92020FDF716FB00208D
:103FF000FDF71AFB0120FDF71FFBFCF759F9012122
:10400000D148FDF7A5F9BDE810400121CF48FDF7E3
:104010009FB92DE9F041CE4908684FF6FF021040E4
:10402000CC4A40F44070104308606FF004073846F3
:1040300000F039FCC84C2060BD10284600F033FC6D
:1040400060606E10304600F02EFCA060052000F08D
:104050002AFCE0600F2000F026FC206106210520EC
:1040600000F015FC06210F2000F011FC384600F08E
:104070001AFC2060284600F016FC6060304600F014
:1040800012FCA060052000F00EFCE0600F2000F0A4
:104090000AFC206181E710B56FF0040000F003FC1A
:1040A000AD4C20606FF0010000F0FDFB60604FF050
:1040B000FF3000F0F8FBA060052000F0F4FBE060AA
:1040C0000F2000F0F0FB206110BD2DE9FE4FDFF85E
:1040D0008CB25846FCF7BAF9A148FCF7B7F9A148E9
:1040E000FCF7B4F9A048FCF7B1F9A048FCF7AEF929
:1040F0009F48FCF7ABF9C0219948FCF788FA68465D
:10410000FCF76EFA2120ADF8000001248DF80A407A
:1041100069465846FCF7A4F94FF00409ADF8009041
:104120008DF8034069465846FCF79AF90225ADF828
:1041300000508DF802408DF8094069465846FCF75A
:104140008FF91820ADF800008DF8085069465846E0
:10415000FCF786F96846FCF743FA4FF0800AADF8A1
:1041600000A08DF80A408DF8095003268DF80860EC
:104170008DF8024069465846FCF772F94027ADF8C1
:1041800000704FF000088DF8028069465846FCF731
:1041900067F96846FCF724FA40F23770ADF8000082
:1041A0008DF80A4069466E48FCF75AF9A002ADF84E
:1041B000000069466A48FCF753F9C020ADF80000DA
:1041C0008DF802408DF8094069466548FCF748F9CA
:1041D0006846FCF705FAADF800908DF80A408DF8B6
:1041E00008508DF8094069465E48FCF739F9ADF88A
:1041F00000608DF8095069465A48FCF731F9684665
:10420000FCF7EEF99720ADF8000069465648FCF738
:1042100027F92820ADF800008DF80A408DF80850E5
:104220008DF809508DF8024069464F48FCF718F99F
:10423000ADF800708DF8044069464B48FCF710F962
:104240006846FCF7CDF94520ADF800008DF80A402E
:104250008DF809508DF8024069464448FCF700F992
:10426000ADF800A08DF8086069464048FCF7F8F802
:104270000A20ADF800008DF8085069463B48FCF76D
:10428000EFF86846FCF7ACF90C20ADF800008DF8AB
:104290000A408DF809408DF8024069463448FCF721
:1042A000DFF86846FCF79CF9ADF800508DF80A403D
:1042B0008DF809508DF808608DF8024069462C4849
:1042C000FCF7CEF8ADF800408DF80280694628482A
:1042D000FCF7C6F8BDE8FE8F2DE9FF476846FCF7FE
:1042E0007CFEDFF890904846FCF720FE4FF4E13664
:1042F00000966027ADF804700024ADF80640ADF8D4
:1043000008404FF01008ADF80A80FD00ADF80C50E1
:1043100000214846FCF7E2FE69464846FCF717FED6
:1043200001214846FCF765FEDFF84CA05046FCF73B
:10433000FDFD0096ADF80470ADF806401EE00000EB
:1043400000040020008002400000E023E0C41300CD
:104350000CED00E00000FA05F808002000800A409B
:1043600000000B4000800B4000000C4000800C401F
:1043700000800E400080034000000340ADF808407C
:10438000ADF80A80ADF80C5000215046FCF7A6FEAF
:1043900069465046FCF7DBFD01215046FCF729FE3B
:1043A000022211465046FCF74DFE022211464846B5
:1043B000FCF748FEBDE8FF8770B5FCF7E3FEFF4859
:1043C0004FF0FF3404628461861501213046FCF70A
:1043D000BFFFFB4D00212846FCF71AF80021696257
:1043E000F84841623046FCF7B3FFF74AC2F8FC4197
:1043F000C2F8FC40FFF7A8FD2020D06770BD1FB5B4
:104400006846FBF7B9FFEF4C00212046FCF700F8A7
:104410000420ADF800000222ADF802200021ADF822
:1044200004100820ADF80600ADF80810ADF80A1029
:10443000ADF80C10ADF80E2069462046FBF789FF59
:1044400001212046FBF7A3FF1FBD1CB50120FCF78F
:1044500066FB4FF480700090002001906846FCF7E6
:1044600048FB1CBD30B593B0FCF7B6FB0CA8FCF7BD
:10447000D8FB00240C940A200D904FF400300E90CD
:1044800040000F90400010904000119001251295BF
:104490000CA8FCF7B0FB01A8FCF71FFC042001905E
:1044A000029403941F20049005940694ADF81C40D8
:1044B000ADF81E40E802089009954FF4E0400A90DC
:1044C0000B9401A8FCF7BEFB01A8FCF7E3FB00215D
:1044D0000620FCF7EDFC00210620FCF7F4FC01208F
:1044E000FCF709FC0120FCF711FC13B030BD2DE9ED
:1044F000F04391B00BA8FCF7F8F81F20ADF82E00A0
:1045000040F2F310ADF83000B04E0BA93046FCF786
:10451000D1F805A8FCF77CF90024ADF816404FF45B
:104520004068ADF81E800125ADF814504FF0080921
:10453000ADF8269005A93046FCF74AF96846FCF725
:1045400019FAADF80240ADF80450ADF80650ADF8D8
:104550000840ADF80A50ADF80C50ADF8005069466F
:104560003046FCF7EAF9F920706100213046FCF78B
:104570008EFA01213046FCF7C6F80BA8FCF7B5F817
:10458000ADF82E5040F6FF70ADF83000904F0BA9FB
:104590003846FCF78FF805A8FCF73AF9ADF8164055
:1045A000ADF81E80ADF82690ADF8144005A9384648
:1045B000FCF70EF90226ADF8146005A93846FCF7A1
:1045C00007F905A8FCF724F9ADF816406802ADF824
:1045D0001E00ADF81450ADF8264005A93846FCF78A
:1045E000F7F86846FCF7C6F9ADF80850ADF80A6070
:1045F000ADF80C50ADF8004069463846FCF79DF91F
:10460000ADF8006069463846FCF797F93C61BC613B
:104610007C61012291023846FCF727FA00213846D6
:10462000FCF735FA01213846FCF76DF80BA8FCF7CA
:104630005CF80F20ADF82E006320ADF83000654F18
:104640000BA93846FCF736F805A8FCF7E1F8ADF8F9
:104650001440ADF81640ADF81E80ADF8269005A9BF
:104660003846FCF7B5F86846FCF784F9ADF8004029
:10467000ADF80460ADF80240ADF806506946384622
:10468000FCF75BF9ADF8146005A93846FCF7A0F813
:10469000ADF80060ADF80440ADF80640ADF80A6032
:1046A000ADF80850ADF80C5069463846FCF745F9AE
:1046B0003C61BC6100213846FCF7E9F9012138462C
:1046C000FCF721F811B0BDE8F0834149086170475B
:1046D0003F49886170473F4988617047642800D925
:1046E00064203C490861704770B5FDF707FB00285E
:1046F00060D172B60020FDF707FB41F28830FEF76B
:10470000C0FD04460020FFF7E6FF0020FFF7DDFFB5
:104710000020FFF7DDFF002006F0F1FE002006F08C
:10472000CFFE2D4807F018F80022012311462BA0D8
:1047300007F0E6F82C48FFF79EFA2046FEF7A6FDA4
:104740000028FAD1FDF7F0FA0020FDF7F8FA002072
:10475000FDF700FB01F06DF8054601F088F804460E
:1047600001230022602121A007F0CAF801232222A0
:10477000602121A007F0C4F8214806F0EDFFD5B173
:1047800001230C2279211FA007F0BAF8A4B1112C43
:1047900063D001232E2279211AA007F0B1F8124824
:1047A000FFF769FA1A48FEF76CFD04462046FEF74B
:1047B0006DFD2FE058E042E048E00000008002403C
:1047C0000000044000000A4084E000E000000740D0
:1047D00000800740000008401C190108506F7765F1
:1047E00072204F4646000000E8660020536574744E
:1047F000696E67730000000050726F66696C650037
:10480000440A01084E4F542073617665640000002D
:1048100040420F000028C9D12948FBF717FE29485C
:10482000FBF714FE2848FBF711FE2848FBF70EFEA5
:104830002748FBF70BFE2748FBF708FEFEE701239E
:104840000C22792124A007F05BF89FE701232E2298
:10485000792121A007F054F8A1E701232E22792124
:1048600020A007F04DF89AE770BD224902680A605F
:1048700042684A6082688A60C268CA6002690A61E6
:1048800042694A6182698A61C069C861FEE7490775
:10489000090E002804DA184A00F00F00815470470E
:1048A000164A81547047002805DA134900F00F00BA
:1048B000405C400970471149405C40097047000066
:1048C00000800A4000000B4000800B4000000C40BC
:1048D00000800C4000800E407361766564204F4B71
:1048E000000000006E6F74207265717572696564F6
:1048F000000000003409002014ED00E000E400E0B6
:1049000010B502F090F9C0B270B1012815D002289C
:104910001CD0032823D14C4800231A460068BDE868
:104920001040484901F01EBA494800231A46006861
:10493000BDE81040454901F015BA474800231A4622
:104940000068BDE81040434901F00CBA4448002318
:104950001A460068BDE81040404901F003BA10BD96
:1049600038B5404D0023012232213FA0009502F0CE
:104970002DF9414C206001231A4605213FA00095E6
:1049800002F024F9606002230122192140A0009561
:1049900002F01CF9A060032301220A213FA0009528
:1049A00002F014F9E060002054F8201021B1401CFE
:1049B000C0B20428F8D338BDFEE7F8B50024661E5F
:1049C0002D4D01F0F3FE02460096002355F8240019
:1049D000194601F0BDFF641CE4B2042CF1D3F8BD0C
:1049E00010B5FEF745FC0446FFF77EFE3149088806
:1049F000401E0004000C088003D105200880FDF74C
:104A000062F8FEF7B9F8FEF74BFC2B4A506900F547
:104A1000486080B29168814201D29168401A506129
:104A20004FF480611046FCF714F8FEF721FC0146B4
:104A30002046FEF720FC1F49091D4A68824200D229
:104A4000486010BD3CF50008900000207CF4000890
:104A50002400002094F40008680000208CF4000872
:104A60005800002001490008436F6E766572746536
:104A7000722074696D6572006C090020536F756E49
:104A800064206472697665722074696D65720000D5
:104A90004755492074696D65720000004275747451
:104AA0006F6E73206472697665722074696D6572C9
:104AB00000000000800000200080074096488078B9
:104AC00070479548407870479348007870479348FE
:104AD0009149006810F8382F0A7042784A7080783F
:104AE000887070478D488C4900680A7800F8382F24
:104AF0004A78427089788170704710B50020864CE2
:104B00002178002915D0864A63789188528801F46B
:104B1000807102F48072002B0CD0134600D1114634
:104B2000A2784AB1012A0ED0022A02D1002900D06F
:104B3000012010BD0B46F1E709B1022010BD002B8A
:104B4000FCD0012010BD0029FCD0FDF717F908B1F9
:104B5000012010BD022010BD88B000220C210520CC
:104B600001F071F86C49486058B388464FF000096D
:104B700088F8009088F8019088F802900126DFF804
:104B8000A0A1684D0327644800235A1E01A940686C
:104B900001F09EF99DF80400012837D0022811D0B9
:104BA000032826D00428EED1FFF79CFF02980028A6
:104BB000E9D0029800231A460068194601F0D2F89D
:104BC000E1E7FEE79DF80C0088F800009DF80D0075
:104BD00088F801009DF80E0088F80200029800286D
:104BE000D1D0029800231A460068194601F0BAF89D
:104BF000C9E7FFF76CFF02980028C4D00298002391
:104C00001A460068194601F0ADF8BCE7FDF720F838
:104C1000FEF771FBFFF771FF044609208DF81000C5
:104C20009AF8020080060AD58DF814708DF8186085
:104C300000231A4604A9286801F094F80DE09AF8B8
:104C40000400800609D58DF814708DF818900023A3
:104C50001A4604A9286801F085F8BAF8020001068E
:104C600006D4012C04D040060CD4022C0AD011E04A
:104C700002208DF8140000231A4604A9286801F0C8
:104C800071F807E08DF8146000231A4604A928681B
:104C900001F068F807208DF8100001244FF6FF7B23
:104CA000ADF81640BAF80200204207D0ADF8146003
:104CB00000231A4604A9286801F054F8BAF806003F
:104CC000204207D0ADF8147000231A4604A92868C2
:104CD00001F048F8BAF80800204208D00520ADF8E5
:104CE000140000231A4604A9286801F03BF80BEAD7
:104CF0004404002CD4D10C48B0F90000002884D022
:104D000008218DF81010ADF8140000231A4604A9EC
:104D1000286801F027F836E78C000020C801002041
:104D20000008002040000020520000202DE9F04142
:104D30000546884616461F462C460C35216821B18B
:104D4000404607F039FF0028F6D120793070A0687E
:104D50003860BDE8F08170B504460E46254608343B
:104D6000296821B1304607F027FF0028F6D12846F0
:104D700070BD2DE9FC4780460C461546002C0FD02F
:104D80004FF001094E466B4601AA3748D8F800108B
:104D9000FFF7CCFF641EE7B2009800285ED15FE009
:104DA0000020BDE8FC8758F826100098FFF7D3FFD5
:104DB00004466079010605D5761CF6B27F1E17F011
:104DC000FF074DD000F07F00062843D2DFE800F057
:104DD00042030D172635217958F8260005EBC1014D
:104DE0004860207905F8309034E02179E08805EBBF
:104DF000C10188802179022005F831002AE00022D3
:104E000058F82600114607F08CFD217905EBC10109
:104E100048602179032005F831001BE0002258F892
:104E20002600114607F045FD217905EBC1014860D8
:104E30002179042005F831000CE058F82600002103
:104E400009F045FD217905EBC10148602179052074
:104E500005F83100761CF6B27F1EFFB2002FA2D1FA
:104E60009DF804009DE700005C0100204160428045
:104E7000002303804FF6FF7002E0521E21F812005B
:104E8000002AFAD170470388426832F813200A805A
:104E90004FF6FF718A420ED00388426822F8131041
:104EA00042880188521E914201DA491C00E000212B
:104EB0000180012070470020704730B58FB0144644
:104EC000C94A904201D1012500E0032501904868BC
:104ED00002904FF0406003904FF0804004904FF0FC
:104EE000885005900122069248880790002008907B
:104EF00091040991C9000A9101A90B910C900D90A0
:104F00008DF838208DF839008DF83A00E8B20BA9F9
:104F1000FFF720F8B54800EB0510016821604168F3
:104F200061608068A0600FB030BD10B5012815D059
:104F3000C822AF49AF48FFF799FFB04CAE4AAD4920
:104F40002046FFF7BAFF01210320FCF7B2F9204603
:104F50000122BDE810401146FCF778B8A548C822E8
:104F6000A7490838FFF782FFA34AA2499E4C0C3A92
:104F700008392046FFF7A1FF01210846FCF799F9FF
:104F800020460122BDE810401146FCF75FB8F8B595
:104F90000D461446012805D0964E35B12CB1208817
:104FA00018B117E0934E083EF7E70020F8BDBDF8B2
:104FB000002012F4E06F0DD1D3B22A68501C286093
:104FC00013702088401E82B2228052B10A2B08D072
:104FD0000D2B06D069463046FFF755FF0028E6D175
:104FE000F8BD0120F8BDF0B587B00023012906D037
:104FF000844C8DF80C3004D14FF0010103E0824C59
:10500000F7E74FF002018DF80D108DF800304FF0EA
:1050100001054FF002074FF00306062879D2DFE8BA
:1050200000F078034E6170741078042198B3908872
:10503000092340B101280BD002280ED003281FD02D
:105040008DF8006067E08DF80C308DF8107062E02C
:105050008DF80C308DF810505DE0107E68B18DF841
:105060000C308DF81010107A08B1908900E0022001
:105070008DF81400D06906904DE08DF800104AE0DC
:10508000107EB0B18DF80C3006208DF81000107A2B
:1050900010B1908901E00FE002208DF81400107C1F
:1050A00008B1908A00E002208DF81500D0690690C2
:1050B00031E08DF800102EE08DF800102BE0107814
:1050C00068B1107A58B107208DF80C009089ADF8BE
:1050D00012009088ADF810008DF800501BE08DF89C
:1050E000006018E0107840B108208DF80C0090881E
:1050F000ADF810008DF800500DE08DF800600AE06A
:1051000007E00A208DF8000005E010208DF80C0063
:1051100001E08DF800709DF80C0030B13B48002391
:105120001A4603A9006800F01DFE9DF80000002843
:1051300005D000231A466946206800F013FE07B028
:10514000F0BDA2B000F0FF08B8F1010F1ED02A4D4B
:105150005C3521955027209701F028FB01904046AF
:10516000FFF7E3FE052101A801F06CF920AA21A9AF
:105170004046FFF70CFF0028F4D0BDF88000C0F1D6
:10518000500080B200240126002216E01A4D0C3592
:10519000DFE7AB5C202B23D0092B21D00A2B1FD0BB
:1051A0000D2B1DD03EB1AB1821460CAE641CA4B231
:1051B00046F821300026521CD2B28242E9D364B1B3
:1051C000282102A807F0A6FCE1B202AA0CA8FFF76A
:1051D000D0FD02AA4146FFF706FF20972195C1E7BF
:1051E0000021A9540126E6E7000003400004002046
:1051F0000C0B0020AC010020A80C00200080034014
:105200007C090020B8010020B401002040000020EB
:1052100010B50021BA4C0A46491CC9B204EBC203BE
:105220001A780AB18242F6D1586810BD1FB5B54A46
:10523000904201D1002300E0022300220A6048606E
:105240008A604FF04040C8600A61012048618A616D
:10525000CA6184040C6244054C620092019202927D
:105260008DF80C008DF80D208DF80E20D8B269460F
:10527000FEF770FE1FBD2DE9F05F83468846164697
:105280001C46A048834502D14FF0000701E04FF0D3
:10529000020702D1DFF8709203E0DFF86C9209F1A7
:1052A000640902D1DFF864A232E0DFF860A20AF1FB
:1052B000040A2DE0B6F1005F0ED2642C01D96425FA
:1052C00000E025462A463146484607F04AFC601B66
:1052D00084B22E44484602E0304625460024C8F8F1
:1052E0000000C8F81850F8B242460021FBF758FFFA
:1052F000F8B20121FBF7DDFF012202215846FBF73E
:10530000A5FE00235A1E1946DAF8000000F0E0FD61
:10531000002CCFD1BDE8F09F8EB0C0B2012805D0DF
:105320007A4FA7F1040705D1784C06E0774FA7F133
:105330000807F8E7754C04F1040402D1DFF8C481D2
:1053400001E0DFF8CC8101D16F4E02E06E4E06F134
:10535000640604A94046FFF769FF00220C210A20D9
:1053600000F071FC386020B303220021012000F01E
:105370006AFC206020B100231A46194600F0F2FCB6
:105380002068B8B100231A46194600F0A1FD4FF07D
:10539000FF3900234A4601A9386800F099FD9DF8BD
:1053A0000400811F062946D2DFE801F005050B0B3A
:1053B0000F32FEE7FEE7029D284607F0EBFA84B2C3
:1053C00040E0029DBDF80C403CE035460024DFF88B
:1053D00044A151A12846DAF8002007F027F9284611
:1053E00007F0D8FA83B22A4604A94046FFF743FFE4
:1053F00050A12846DAF8042007F018F9284607F0EB
:10540000C9FA83B22A4604A94046FFF734FF19E0DF
:10541000354600244E484FA100680268284607F030
:1054200005F9284607F0B6FA83B22A4604A9404691
:10543000FFF721FF06E0FFF7EBFE0546284607F0E1
:10544000A9FA84B235B12CB123462A4604A94046B4
:10545000FFF711FF9DF80400072801D0092898D113
:10546000029801F074FC94E738B500200090404C9D
:10547000A06A264DC007A5F108050DD12148816C11
:10548000890709D5816C21F00201816400236A46F5
:105490001946A86800F0CBFCA06A40070DD41C4850
:1054A000816C890709D5816C21F002018164002398
:1054B0006A461946E86800F0BAFCA06A800709D479
:1054C0002C482D490A6802614A68426189688161F5
:1054D0000220A062A06A000709D4264827490A686A
:1054E00002634A684263896881630820A0620221DE
:1054F0000020FBF7FFFE012801D1FBF7E8FE38BDD5
:1055000048F5000800000340540D0020BC010020B5
:1055100000800340840000205379737469636B201A
:10552000686F6F6B206D6178207469636B733A20CC
:1055300025640D0054696D65723220495352206D07
:105540006178207469636B733A2025640D00000054
:10555000C4010020506F776572206F6E2F6F6666F2
:10556000206379636C65733A2025640D00000000A8
:1055700000800240000400209C0C0020A80C0020A9
:10558000484000214AF20102C30702D082EA5000DB
:1055900000E04008491CC9B20829F5D3704770B52E
:1055A00005460C46104603E015F8011BFFF7E8FF1F
:1055B0002100A4F10104A4B2F6D170BD10B5FE4CD7
:1055C0004FF0FF320C21206807F07AFA20680021A2
:1055D000017141718171016001210172C17110BDC0
:1055E00010B5F54841F288314068018000214180C2
:1055F00042F2107282808171C1714FF4FA630382AA
:105600004182520082828175C1755C0004834183AE
:10561000540084838177C17780F8201042F6E064DB
:105620000481418182818173C1735C1044848184CF
:10563000C28480F8281080F8291043858185C285AE
:1056400080F8301080F8311080F83210012280F894
:10565000342080F835100522C28680F8381080F892
:10566000391080F83A1010BDD3484FF0FF323C217A
:10567000406807F025BAA1E738B5002400200C22C5
:10568000CE49FEF785F905460E2002226946FEF74F
:105690007FF9284310B10124204638BD4FF6FF7230
:1056A0000C21C648FFF77BFFBDF800108842F3D0FD
:1056B0000224F1E738B500241020C0493C220C3107
:1056C000FEF766F905468D2002226946FEF760F96D
:1056D000284310B10424204638BDB8484FF6FF7265
:1056E0003C210C30FFF75BFFBDF800108842F2D080
:1056F0000824F0E7F8B504460A2C39D2902000EBD4
:10570000C410AE493C220C31FEF742F906464FF474
:10571000807000EBC410A9490D224831FEF738F91A
:1057200040EA060540F20D1000EBC4100222694663
:10573000FEF72EF92843A14D553510B10420285508
:10574000F8BD9E484FF6FF723C210C30FFF727FF53
:1057500002469A480D214830FFF721FFBDF800109E
:10576000884202D100202855F8BD08202855F8BDF0
:105770001020F8BD2DE9F84F0024904E90274FF4EB
:10578000807840F20D19553607EBC4108B493C2246
:105790000C31FEF7FDF8824608EBC41087490D2254
:1057A0004831FEF7F5F840EA0A0509EBC410022279
:1057B0006946FEF7EDF8284338B104203055641CE3
:1057C000E4B20A2CE0D3BDE8F88F7C484FF6FF72B4
:1057D0003C210C30FFF7E3FE024678480D214830AB
:1057E000FFF7DDFEBDF80010884202D100203055E1
:1057F000E5E708203055E2E770B504460A2C16D2DA
:105800006E4D5535285D18B108280ED0042070BDA6
:105810004FF4807000EBC4100D22FEF7B9F810B100
:105820000420285570BD002070BD082070BD1020D8
:1058300070BD38B50024604800680168491C0160EB
:105840004FF6FF720C215D48FFF7A9FE00900C2275
:105850005A490020FEF710F90546022269460E203B
:10586000FEF70AF9284300B10124204638BD38B5B7
:10587000002451480068C07900281DD0FFF7F4FECD
:10588000FCF764FCFFF72EF94C484FF6FF723C2101
:105890000C30FFF784FE009048493C220C31102068
:1058A000FEF7EAF80546022269468D20FEF7E4F885
:1058B000284310B1042400E01124204638BDF8B577
:1058C00004460D460A2C41D23C480D21483007F0D1
:1058D00021F93A480C222946483007F042F9374866
:1058E0004FF6FF723C210C30FFF759FE0090024644
:1058F00032480D214830FFF752FE0090902000EB17
:10590000C4102E493C220C31FEF7B6F806464FF47F
:10591000807000EBC41029490D224831FEF7ACF825
:1059200040EA060540F20D1000EBC4100222694661
:10593000FEF7A2F828432149553118B1042004226A
:105940000A55F8BD002000220A55F8BD1020F8BD08
:105950000A2803D219495531085C70471020704756
:1059600015480068C079704713480068007A70478E
:1059700070B504460D46002D02D1012C00D1002443
:1059800000F0C0F80C480068C4710572BDE87040B2
:1059900000F0C4B8002214210A2000F054F9064E89
:1059A000B06078B1054FDFF818807437A7F114059F
:1059B0004FF0FF3964E00000C40100201C0E0020FD
:1059C00040000020FEE7012826D0022833D003281B
:1059D00056D145E0FFF750FE0446A00701D0FFF77F
:1059E000EDFDFFF7C7FE3068007A40B1FFF762FEB9
:1059F000044314F00C0F04D0FFF7F2FD01E0FFF7B1
:105A0000EFFDA8680470686848B3002300681A4670
:105A1000194600F0A7F933E0287A2969FFF7ECFE70
:105A2000E96808706868D0B1002300681A46194612
:105A300000F098F924E00D203870287AFFF788FFED
:105A4000787118B9287AFFF755FE7871287A38717D
:105A500000234A461049D8F8000000F083F90FE00F
:105A60000E203870287AE968FFF729FF7871287AC4
:105A7000387100234A460849D8F8000000F072F94E
:105A8000054900234A461439B06800F021FA287805
:105A900000289FD097E70000900E0020FAF7D2FB75
:105AA000FEE7A0F120004FF08073C36181612849B7
:105AB000416140F8202970474FF0E0204FF6FF1178
:105AC000416107210161704710B52248016841F426
:105AD0007F010160016841F07F410160FFF7ECFF49
