:020000040800F2
:100000006063002019020008210200082302000892
:10001000350200083702000839020008000000001D
:100020000000000000000000000000008D0100083A
:100030003D02000800000000C1010008DB46000886
:1000400043020008430200084302000800000000C9
:1000500000000000D54500084302000843020008E4
:1000600043020008000000004302000843020008A9
:10007000430200080000000043020008493E000857
:100080004302000843020008000000004302000889
:100090004302000800000000000000000000000013
:1000A0000000000000000000000000004302000803
:1000B000430200084302000843020008430200080C
:1000C00000F002F800F053F80AA090E8000C824417
:1000D0008344AAF10107DA4501D100F048F8AFF2F4
:1000E000090EBAE80F0013F0010F18BFFB1A43F016
:1000F00001031847A0E20000C0E20000103A24BF4C
:1001000078C878C1FAD8520724BF30C830C144BF7C
:1001100004680C60704700000023002400250026BE
:10012000103A28BF78C1FBD8520728BF30C148BF5A
:100130000B60704766290AF0BB84642908F0AE851D
:10014000632909F0A482002070471FB509F052FB13
:100150000400002000210AF061F8401C60600020CB
:1001600000210AF071F8E0601FBD10B510BD09F064
:100170004BFC1146FFF7E9FF01F02FFB09F069FC8A
:1001800003B4FFF7F2FF03BC09F06AFC1A4B1968CD
:100190000868B0E8F00F80F309884FF0000080F3A2
:1001A00011884EF00D0E70470000000003480068F3
:1001B000006880F3088862B600DF00BF08ED00E049
:1001C000EFF309800C4B1A6820E9F00F106008B5B6
:1001D0004FF0200080F3118804F08BFF4FF00000F7
:1001E00080F31188BDE8084019680868B0E8F00F8E
:1001F00080F30988704700BFB0000020EFF3118042
:100200004FF0200181F31188704780F31188704707
:10021000EFF30580704700000D4880470D48004708
:10022000FEE71EF0040F0CBFEFF30880EFF3098028
:1002300003F08CBDFEE7FEE7FEE7FEE7FEE7FEE724
:10024000FEE7FEE704480549054A064B70470000F3
:10025000CB020008C1000008605D00206063002040
:10026000605F0020605F002010B51F4BD8681F4CF6
:100270008007002801DA601000E02046D968C9072D
:1002800000D04008D968490704D55968C1F3032153
:10029000491C4843D968164AC1F3012139B10129E3
:1002A00007D002290DD049F64040106010BD1460FF
:1002B00010BDD968C1F30311491CB0FBF1F0106007
:1002C00010BD4FF40040106010BD07480949C161DE
:1002D000C1680021C1604268416082688160026932
:1002E000016142694161BFE70000024000127A00EB
:1002F0000000002010000008002101604160016141
:100300004161416203210162704710B54A88026170
:100310000A894B890C881A448B8903EB04231A44FD
:10032000CB881A440260CA8989881144416010BD93
:10033000002181800722C2804181018181810222C6
:10034000428001807047002904D0416841F00201D9
:100350004160704741684FF6FD721140416070473F
:10036000002A03D042690A434261704742698A43C6
:10037000426170478069814301D0002070470120AD
:100380007047C069084201D00120704700207047C3
:10039000026A0A4302627047002A03D0426A0A4393
:1003A00042627047426AC94389B20A40426270475A
:1003B00081607047806880B27047C068084201D091
:1003C000012070470020704710B50B4BDA6A0B4CC8
:1003D000A04205D142F0807020F0FF020A4308E0FD
:1003E000074CA04205D142F0007020F47F4040EA63
:1003F0000122DA6210BD000000000240000004404B
:1004000000000A400021C16001614160016081601B
:1004100041618161C16170472DE9FF4FD0F80490BF
:100420008768D0F80CA0D0F81080D0F814C082698A
:100430000192C26900920022012303254FF00116A8
:100440000C885EE05FEAC47B56D091F802B029EADE
:1004500003090BFA02FB49EA0B0991F808E04FEA9D
:10046000420B0EFA0BFEAF434EEA0707CDF80CB075
:1004700091F80AB02AEA030A0BFA02FB4AEA0B0ACD
:1004800091F803E002F1100B0EFA0BFECDF808B064
:1004900091F804B028EA060848EA0E080BFA02FBB5
:1004A00048EA0B0891F805E0DDF808B02CEA060CE4
:1004B0000EFA0BFE91F806B04CEA0E0C0BFA02FB9A
:1004C0004CEA0B0C91F809E0DDF80CB00EFA0BFECB
:1004D000DDF804B02BEA050B4EEA0B0ECDF804E074
:1004E000DDF800B091F807E02BEA030B0EFA02FEEC
:1004F0004BEA0E0BCDF800B05B00AD007600521C4D
:100500006408002C9ED14749884202D14FF01F0158
:1005100001E04FF0000129EA0109C0F8049002D17E
:100520004FF01F0101E04FF0000127EA010787604B
:1005300002D14FF01F0101E04FF000012AEA010A49
:10054000C0F80CA002D14FF01F0101E04FF00001F4
:1005500028EA0108C0F8108002D14FF01F0101E025
:100560004FF000012CEA010CC0F814C002D14FF08A
:100570001F0101E04FF00001019A22EA01028261AD
:1005800002D14FF01F0101E04FF00001009A22EA72
:100590000102C261BDE8FF8F4FF6FF7101800021AB
:1005A0008170C170017141718171C17101724172BB
:1005B000817270470068084201D001207047002016
:1005C0007047006870470368164A904201D11F22A5
:1005D00000E0002293430B43036070470368114A15
:1005E000904201D11F2200E000220A43934303609E
:1005F000704710B503680B4CA04201D11F2400E0E6
:100600000024A34312B10B43036010BD8B4303606E
:1006100010BD044A904201D11F2200E00022914304
:100620000160704700000B400021C1600160416023
:100630008160016241628162C162016341638163E1
:10064000C163016641668166C16601614161816184
:10065000C161016741678167C16701644164816469
:10066000C164016541658165C165704710B50A883F
:1006700002604A8842608A888260CA880B898C89B5
:100680001A444B8923441A44CB891A44C2604A8ACB
:100690008B8A1A44CB8A098A03EB01111144016544
:1006A00010BD0021018041808180C1800181418194
:1006B0008181C181018241828182C1827047C26889
:1006C000002902D042F0010101E022F00101C160E5
:1006D0007047016070474160704781607047C36830
:1006E00023F002031A44C26081607047006880B240
:1006F0007047C26822F470621144C1607047C268DA
:1007000022F030021144C1607047C26822F0C0027A
:100710001144C1607047C26822F008021144C160F0
:10072000704710B5046D24F0FE04114401EB031171
:100730002144016510BD026D22F0F00202EB0111AF
:1007400001657047026D22F00C021144016570478B
:10075000026D22F00202114401657047026D22F021
:100760000102114401657047C0680007002801DBE1
:100770000020704708207047C0684007002801DB50
:10078000002070470120704710B54A88CB884C89FB
:100790001A440B8923441A448B8902EB8312CB89B8
:1007A0001A440B8A1A448B88002B01D002F50052A0
:1007B0000B8800EB83031A62488ACA8A1044898A2C
:1007C00001B1001D186610BD0021018041808180AB
:1007D000C180018141818181C18101824182818207
:1007E000C182704700EB81000261704700EB81001D
:1007F0000267704710B500EB81000146046E24F0DB
:100800000804234403660846026110BD10B500EBDE
:1008100081000146046E24F0080423440366084660
:10082000026710BD00EB8100006980B2704700EBE9
:100830008100006F80B2704700EB810020300168BA
:10084000002A02D041F4807101E021F4807101603E
:10085000704700EB8100016A21F4005111440162EC
:10086000704700EB8100016A21F48051114401625C
:10087000704700EB8100016A21F46061114401625C
:10088000704700EB8100016A21F0C00101EB821189
:100890000162704700EB8100016A21F030011144D0
:1008A0000162704700EB8100016A21F00F011144E1
:1008B0000162704700EB8100006A4004002801DB00
:1008C000002070470120704700EB8100016E21F08D
:1008D000030111440166704700EB8100603001683C
:1008E000002A02D041F0040101E021F0040101607E
:1008F000704710B5CA884B880C8902EB03128B88AD
:100900009B0003EB04331A444B8902EB83228B894F
:1009100002EB03220B8800EB830002630A8A4B8AF6
:10092000C9891A4402EB0121016410BD00214180F4
:100930008180C180018141818181C18101824182A7
:10094000704710B5029C00EB8100016B21F01F0184
:10095000240104EB82021A441144016310BD00EB30
:100960008100016B21F00C0101EB820101637047F2
:1009700000EB8100016B21F003011144016370471A
:1009800000EB8100016B21F0100101EB021101630A
:10099000704710B5029C00EB8100016B21F4F85107
:1009A000240304EB822202EB03221144016310BDF5
:1009B00000EB8100016B21F4406101EB82210163B6
:1009C000704700EB8100016B21F4407101EB0221C3
:1009D0000163704700EB8100016B21F4805101EB52
:1009E00002310163704710B5029C03EB02222244DE
:1009F00000EB8100026410BD406D7047406D0842FD
:100A000001D00120704700207047426D8A43426543
:100A10007047C36D002A01D00B4300E08B43C365D0
:100A20007047836D002A01D00B4300E08B43836540
:100A30007047426D806D02400A40002A01D00120BB
:100A400070470020704710B50F4B5A6A0F4CA042F8
:100A500005D122F0FF00084340F0807212E00C4CF8
:100A6000A04206D122F47F4040EA012040F000720B
:100A700008E0084CA04205D122F47F0040EA014082
:100A800040F080625A6210BD000002400000074042
:100A900000800740000008403C480021816001615F
:100AA0000122826101604160704738498A68037998
:100AB0009B06002B02DA42F0200201E022F0200225
:100AC0008A6000680860000A486070470021416041
:100AD0000121016070472D4A9168002802D041F041
:100AE000800001E021F0800090607047274A916803
:100AF000002802D041F0400001E021F04000906069
:100B0000704722480069C00701D0012070470020CB
:100B100070471E48816941F00101816170471B4A9D
:100B200020F0010008435061902090617047174900
:100B300048611020886170471448402181617047E6
:100B4000124940F02000886170471048C068C0B268
:100B500070470E488169006941EA0020C14340EABC
:100B60000140704700B50246FFF7F3FF824301D012
:100B7000002000BD012000BD00B50246FFF7E9FFDF
:100B8000104201D0012000BD002000BD0000054042
:100B9000D1480021016041608160C1600161416113
:100BA0008269C269016241628162C1627047826882
:100BB000016803791144C26802EB037211440269AF
:100BC00011444269008B114401EB4050C349C24AB1
:100BD00013688B4318441060704700210160416026
:100BE0008160C1600161416181617047BA4A1168E9
:100BF00021F0F07101EB40501060704730B5B649FC
:100C00000A68B64BDB1C1A40D0E900342344D0E913
:100C1000024504EB0514234444692344C469234476
:100C2000446A234490F8284003EB446313444A6821
:100C300022F40032048C02EB44420B604A60028BC7
:100C40000A61428B8A600069886230BD30B5A24972
:100C50004A68A34B1A40D0E900342344D0E9024546
:100C600004EB0514234444692344C4692344048CDD
:100C700003EB8443446A234490F8284003EB446325
:100C80001A444A60028B4A61428BCA600069C8629A
:100C900030BD0021016041608160C160016141613E
:100CA00001834183C16101624162816270478A4A66
:100CB0001168002802D041F0010001E021F001009C
:100CC00010607047844A5168002802D041F001004A
:100CD00001E021F00100506070477F4A116821F463
:100CE000F87101EB0010106070477B4A516821F4E5
:100CF000F87101EB001050607047774988627047C7
:100D00007549C8627047744B1A6822F4027208442D
:100D1000104418607047704B5A6822F402720844FD
:100D20001044586070476C4A116821F0080108446B
:100D300010607047684A516821F00801084450600B
:100D40007047654A116821F40071084410607047CB
:100D5000614A516821F4007108445060704710B531
:100D60005D4B1C6824F4806422441A601861996009
:100D700010BD10B5584B5C6824F4806422445A605E
:100D80005861D96010BD54490861704752494861A3
:100D900070475149886070474F49C86070474E4856
:100DA000016841F00201016070474B48416841F021
:100DB0000201416070474848806970474648C069F1
:100DC00070474548016A406A01EB0040704742485D
:100DD000006A70474048406A704700B50246FFF716
:100DE000F0FF104201D0012000BD002000BD3A49B3
:100DF000096A014201D0012070470020704736493E
:100E0000496A014201D001207047002070473248F2
:100E1000016A21F00101016270472F48416A21F007
:100E20000101416270472C48016A21F00201016210
:100E300070472948416A21F002014162704770B54C
:100E4000254E336A756A84008004020C002904D0A0
:100E500042EA030045EA144103E023EA020025EADE
:100E600014413062716270BD1B4B1A6A002902D0B6
:100E700042EA800001E022EA800018627047164BC7
:100E80005A6A002902D042EA800001E022EA80008A
:100E90005862704700B50246FFF793FF02EA9001DF
:100EA000014009B1012000BD002000BD0A49096AC6
:100EB00000EA91000840002801D00120704700207E
:100EC00070470549496A00EA91000840002801D0AE
:100ED0000120704700207047008008400000FFF1AB
:100EE0000300FBF100210163C16241609022826135
:100EF00001624162816202224263816381644FF434
:100F000040710163704770B586B004460D4601A874
:100F100000F086FB01986B49896A6B4B01229C4269
:100F200005D101F007018A40B0FBF2F007E0674B02
:100F30009C4204D1C1F302218A40B0FBF2F02A683E
:100F40009108B0FBF1F3990903F03F03800003EB34
:100F50008116B0FBF6F0801AC001B0FBF2F0022857
:100F600002D9002006B070BD6162A362E06AA98860
:100F7000EA886B8911432A891A4311430143E162CC
:100F8000206B4FF680718843A989014321630120BA
:100F9000E8E74FF41651016000218180C180018192
:100FA00041814FF4407181817047002904D0016B69
:100FB00041F0010101637047016B4FF6FE72114071
:100FC00001637047002A03D0826B0A438263704733
:100FD000826B8A4382637047C06B814301D00020DB
:100FE000704701207047006C084201D00120704713
:100FF00000207047426C0A434264704742EAC101D4
:1010000041637047002A03D0826C0A4382647047B0
:10101000826CC94389B20A4082647047C1F30801F7
:1010200001607047006880B27047002904D0C16A2F
:1010300041F00101C1627047C16A4FF6FE7211436F
:10104000C162704730B585B004460D46042D08D105
:10105000684600F0E5FA00984FF4E111B0FBF1F0BA
:101060002062206B2843206305B030BD002904D0E6
:10107000016B41F0020101637047016B4FF6FD7295
:101080001143016370478069084201D00120704715
:101090000020704710B50B4B9A6A0B4CA04205D14B
:1010A00042F0807020F0FF020A4308E0074CA042A3
:1010B00005D142F0007020F47F4040EA01229A629C
:1010C00010BD00000000024000000340008003400B
:1010D00010B583680268B3F1406F26D08469641E3E
:1010E0009B0E9C4022440A604269042A1FD0C268B9
:1010F000B2F1404F1FD083695B1E920F934042684C
:101100001A444A60D0E903231A43446A836823439C
:101110001A43036A1A43C3691A43836940695B1E11
:1011200042EA031202438A6010BD0A60DCE74268AB
:101130000C324A60E6E742684A60E3E77048002103
:10114000416081604161491EC1614162C162416388
:10115000C1630121C1647047002905D06849C9688D
:1011600001EB00111046B3E7664901EB0011104690
:10117000AEE701EB00111046AAE770B58AB005464C
:101180000C465F4E5F48B06021680091F16801EB4A
:10119000051101914FF000610291090103914FF097
:1011A00008510491042105916168890006914FF46A
:1011B00000410791A1680891E168099100EB0511D0
:1011C0006846FFF785FF01207060607D0122AA401C
:1011D000012809D0F2617262B2627263207D012837
:1011E00004D0F2630AB070BDB261F4E7B263F9E70C
:1011F00070B506460C46424D4249A9602068002859
:1012000003D001EB0611FFF763FF606820B1E968C6
:1012100001EB0611FFF75CFF01206860607B012293
:10122000B24001280AD0EA616A62AA62A07B38B1A2
:101230002A63207B012805D0EA6370BDAA61F3E729
:101240006A63F6E7AA6370BD0021016041608160B6
:1012500001734173817370470021016041608160B7
:10126000C1600161017541757047012282402448C7
:10127000012901D0C262704782627047012181401A
:101280001F48416170471E490120C86470471C4ACD
:10129000002907D0D16801EB00100089C0F30910C4
:1012A000401C7047916801EB0010F6E710B5012271
:1012B0008240134CD2B2092920D2DFE801F01F0589
:1012C000090D101316191C00206800F0010010BD54
:1012D000E06C00F0010010BDA06A104010BD206A53
:1012E000104010BD2069104010BDA069104010BD15
:1012F000206B104010BDA06B104010BD002010BD31
:101300000080024000040020FE4A002903D0D16979
:101310000143D1617047D1698143D1617047F94A76
:10132000D16821F440710143D1607047C0F342118C
:10133000012909D0F449C96B00F01F020120904037
:10134000084204D001207047EE490968F4E7002004
:10135000704708B5002000904FF4C0631720FFF7D6
:10136000E5FF0099491C00910099994201D200289B
:10137000F4D01720FFF7DAFF08B1012008BD0020E4
:1013800008BDE2490860704700B50120FFF7F9FF8A
:10139000FFF7DFFF0020FFF7C2FFDA48C168002136
:1013A000C16042684160826881600269016142698E
:1013B000416182698161D649C16100BD00B5FFF715
:1013C000E3FF0121C806FFF79FFFCF48C16B41F43F
:1013D0008101C163C16B01F48101C16300BDC949D1
:1013E0008A6822F003028A60012806D0022803D10D
:1013F000886840F0030088607047886840F001000A
:101400008860704708B5002000904FF4C063222028
:10141000FFF78CFF0099491C00910099994201D275
:101420000028F4D02220FFF781FF08B1012008BD79
:10143000002008BDB449CA6B22F00302CA63012828
:1014400006D0022803D1C86B40F00300C863704780
:10145000C86B40F00100C863704708B500200090D9
:101460004FF4C0630D20FFF761FF0099491C009104
:101470000099994201D20028F4D00D20FFF756FFC1
:1014800008B1012008BD002008BD9F4AD16B21F0A2
:101490007C5141EA0060D06370479C491C39086068
:1014A0007047994AD16B21F4F81141EA0040D063AA
:1014B000704708B5002000904FF4C0631520FFF777
:1014C00035FF0099491C00910099994201D20028EA
:1014D000F4D01520FFF72AFF08B1012008BD002035
:1014E00008BD884AD36823F003030343D3605068E0
:1014F00020F4706040EA012050608648D0F88810DF
:10150000002904D0012140F88C1F002101607047A0
:1015100081490860704781490860704708B500201C
:1015200000904FF4C0632120FFF700FF0099491C91
:1015300000910099994201D20028F4D02120FFF7B0
:10154000F5FE08B1012008BD002008BD6D4AD16834
:1015500021F0F00141EA0010D0607047694A136938
:1015600023F0030303431361506820F0F00040EAC6
:10157000011050606748D0F88010002904D0012184
:1015800040F8841F0021016070476549086070477A
:1015900064490860704708B5002000904FF4C063AC
:1015A0002020FFF7C3FE0099491C00910099994241
:1015B00001D20028F4D02020FFF7B8FE08B10120A6
:1015C00008BD002008BD58490860704757490860A9
:1015D00070474C4A516921F0330101435161704712
:1015E000484A516921F4706141EA00205061704716
:1015F0004F4908607047434A916921F0F00141EA80
:101600000010906170474B49086070473D4A9169EE
:1016100021F00F010143916170474749086070470D
:101620002DE9F04FDFF8ECB0DBF88411DFF80CA106
:1016300000294FEA4A0501D0514600E02946DBF86F
:10164000802102B149080B46DBF88821DFF8B4C0DD
:101650002AB1DCF80420C2F30322521C5343DCF805
:101660000C204FF40048C2F3012249F640490127FB
:1016700052B1012A0AD0022A1BD0C0F80090DBF830
:101680000422CAB1524618E00560F8E7DCF80C20E5
:101690004FEA1212120701D41A4608E0DCF80C20B7
:1016A000C2F30212521C07FA02F2B3FBF2F202601A
:1016B000E5E7C0F80080E2E72A46DBF8004204B123
:1016C00052081446DBF808622EB1DCF80460C6F359
:1016D0000316761C74432646DBF810B2BBF1000FEC
:1016E00000D076084660DCF8186036095FEA067BB1
:1016F00007D506F0070B0BF1010B07FA0BF6B5FB4C
:10170000F6F51DE00000024000800D40D807B04310
:10171000100000080000404288014042880040421A
:1017200008024042800040422002404210024042F3
:10173000B4024042240340422003404200093D00DD
:10174000C560DCF818605FEA067B07D506F0070B7A
:101750000BF1010B07FA0BF6BAFBF6FAC0F810A072
:10176000DCF8146016F0030604D0012E1AD0022E05
:101770001AD02146DCF81420C2F30112B2B1012ABA
:1017800016D0022A00D02946DCF81420120A1307CA
:1017900005D502F00702521C9740B1FBF7F18160BA
:1017A000BDE8F08F1146E5E71946E3E74146EBE770
:1017B0004946E9E708B504226946002001F060FBCC
:1017C0000422694640F2FC7001F05AFB434A00993A
:1017D000914201D040F0020008BD1FB501F095FE16
:1017E00001F0C7FE01F038F902F0B9F802F0DDF8B7
:1017F00002F02DF901F019FF02F0E4F802F01CF8F4
:1018000002F08AF801F099FC00F0BFF90125344894
:10181000E90300240160502002F00DFA552002F087
:101820000DFA3048046044602F480570CDE900543B
:101830000294002380222DA12E48039403F066FA1F
:101840002D48CDE901040226002380222BA12E4839
:101850000096039403F05AFA009401940294002332
:1018600080222AA12B48039403F050FA0320CDE9EB
:10187000000402940023802227A12A48039403F045
:1018800045FACDE9006402940023802226A127486E
:10189000039403F03BFACDE900542E020294002396
:1018A000324623A12548039403F030FACDE90054D1
:1018B00002940023324622A12448039403F026FA1E
:1018C000CDE9005402940023802221A124480394EE
:1018D00003F01CFA03F004FDFEE70000112233447C
:1018E00000E100E0940000208000002047554920DE
:1018F000746F7000472C000834000020436F6E7630
:101900006572746572000000DF200008536572760E
:1019100069636500E132000844697370617463684B
:1019200065720000C927000841444300651900089A
:10193000554152543220525800000000C540000862
:10194000554152543220545800000000F944000818
:10195000536F756E642064726976657200000000D2
:10196000B733000808B500220421052002F041FF2A
:10197000604C606180B103220021012002F039FF38
:10198000A06120B100231A46194602F0C1FFA069E8
:1019900018B14FF0FF3534E0FEE7FEE7032020707A
:1019A00000232A461946A06903F068F820898008B8
:1019B00000EB800081B2A18060898008E0804E4AFF
:1019C000126F526B927B520707D500EB80004FF6E7
:1019D000FF7202EA4000E08002E000EB8000E0805D
:1019E000E08841434FF47A7091FBF0F0E06006200C
:1019F000206142483F4900231A461031006802F036
:101A000087FF00232A466946606903F037F800988B
:101A10000128F6D1C2E770B5364C00222146607825
:101A200001250426C978032838D005DC50B10128E7
:101A30000ED0022804D12AE0102840D0112845D029
:101A4000627070BD2078A0700028FAD0657070BDFB
:101A5000A07800F00501012908D081070DD520F0FC
:101A60000200A07010206070628170BD20F005003F
:101A7000A07002206070228170BD62702270A06927
:101A8000BDE8704000231A46194602F0A6BF0420A4
:101A9000FFF723F9E6700320607070BD042904D2BB
:101AA000FFF789F9218908442081E07828B1FFF700
:101AB00076F9E078401EE07070BD657070BD07205B
:101AC000FFF70BF9E6701120607070BD042904D295
:101AD000FFF771F9618908446081FFF760F9E078E8
:101AE00028B1FFF75CF9E078401EE07070BD6570CA
:101AF00070BD0000040000201C08002058000020D9
:101B000070B500244A4D686820F0C00068600A2063
:101B100000F0BBFF064647480068810600D4102449
:101B2000400701D444F480742868C10701D144F00F
:101B30000104810701D444F00204410701D444F0B8
:101B40000404C10601D444F00804800601D444F022
:101B50002004304600F09EFF0028FAD1286869680A
:101B600041F0C0016960010601D444F04004400620
:101B700001D444F080043048048070BD2F48002117
:101B800041808180C1800181704700202B4A002163
:101B90000A3222F81010401CC0B20928F9D3EDE730
:101BA0002DE9F041FFF7ACFF2348008820F00F0536
:101BB000FFF7E4FF0021214C01274FF6FF7C04F1E1
:101BC0000A0607FA01F082B236F811000CEA40006A
:101BD000154201D040F0010000F00303012B04D0B6
:101BE000022B06D0032B19D111E0638813436380C5
:101BF00014E0A3881343A380C0F38803A3F580787F
:101C0000B8F1FF080AD0E3881343E38006E0C0F38D
:101C10008803FF2B02D123891343238126F8110067
:101C2000491CC9B20929CCD32580BDE8F081000048
:101C300000000B4000800A40200000200008002027
:101C40001E48006840F30000401C70471C480068B4
:101C500040F38020401C70471A4A012803D0042119
:101C60001046FEF7BBBC04211046FEF7ACBC15487D
:101C70000068C0F380007047124A012803D0082191
:101C80001046FEF7ABBC08211046FEF79CBC0B4A81
:101C9000012803D002211046FEF7A0BC0221104605
:101CA000FEF791BC084A012803D040211046FEF7F8
:101CB00095BC40211046FEF786BC000000800A401B
:101CC00000000B4000800E4000800C4010B5002347
:101CD00000241470847BE40706D0C4888C4203DBA4
:101CE00021460AB102241470847BA40706D5048916
:101CF0008C4203DC21460AB10124147044888C42D2
:101D000003DB21460AB10824147084888C4203DC6A
:101D100021460AB10424147002888A4201D001804D
:101D20000123184610BD70B5049C002500262670BE
:101D30004689964203DB32460CB108262670868916
:101D4000964203DC32460CB10426267011B10129FB
:101D50000FD01CE0C188914204D1817B01F00101C8
:101D6000994214D0C280817B63F300018173012505
:101D70000DE00189914204D1817BC1F34001994278
:101D800005D00281817B63F34101817301252846DF
:101D900070BD10B501280AD058B1FE48006F00246C
:101DA000001DFFF793FF00B10124204610BDF94844
:101DB000F5E7F8483830F2E7F8B50546069F012DFB
:101DC00012D09DB1F348006F04460026201D0097F5
:101DD000FFF7A9FF30B1A18800222846FFF7D9FFFD
:101DE00040F002063046F8BDEA48EDE7E9483830F1
:101DF000EAE770B515461A4601280ED078B1E548D5
:101E0000006F79B101290FD0406B00242946FFF7FC
:101E10005DFF00B10124204670BDDE48F1E7DD48DA
:101E20003830EEE71430F0E72430EEE7F8B50E4630
:101E3000114605461A46DDE90630012D16D0BDB122
:101E4000D44C246FBEB1012E17D0646B00270090D4
:101E50002046FFF768FF38B1228800233146284624
:101E6000FFF7C7FF40F002073846F8BDC94CE9E765
:101E7000C84C3834E6E71434E8E72434E6E7017860
:101E8000022904D001290AD049B100207047C14974
:101E9000096F097801F001010170012070470120EC
:101EA00070470178022904D061B101290AD00020CD
:101EB0007047B849096F496B897BC1F38001017094
:101EC0000120704701207047002803D0012801D06D
:101ED000002070470120704708B54FF400310128F9
:101EE00013D0022811D0042811D008280FD0481090
:101EF0000090009840F032000090A74800231A4656
:101F00006946006802F004FD08BD0091F1E7009108
:101F1000EFE708B5A14800909F4800231A4669469C
:101F2000006802F0F5FC08BD08B59D4800909A488D
:101F300000231A466946006802F0EAFC08BD2DE954
:101F4000F041944C217841F0010121F0020141F06F
:101F5000010121F0020141F0040121700527678091
:101F600041F28831A1800021E18042F21072228189
:101F70006181A281E1812282A27C22F0010222F011
:101F80000202A27494F8222022F004054FF47A632E
:101F9000A382E18244F6206222836183A283E183EB
:101FA000228425F0010525F0020584F8225094F8DA
:101FB000325045F00406A384E184550025856185EF
:101FC000A585E185258626F0010525F0020584F822
:101FD000325004F11405656394F8385025F001057A
:101FE00025F0020545F0040584F83850678742F66D
:101FF000E065A587E187A4F84020A4F84210A4F882
:102000004420A4F84610A4F8482094F84A5025F03B
:10201000010525F0020584F84A5094F85A5025F03D
:1020200004055E10A4F84C60A4F84E10A4F85020EB
:10203000A4F85210A4F85420A4F85610A4F858207C
:1020400025F0010525F0020584F85A5094F86A50ED
:1020500045F00405A4F85C30A4F85E10A4F86020F4
:10206000A4F86210A4F86420A4F86610A4F868200C
:1020700025F0010121F0020184F86A1004F14C01FD
:10208000E166012829D0A1F11400206700F0AFFA21
:1020900000F065FA0028FBD0206F007800F0010006
:1020A000FFF7EAFD206F406B807BC0F38000FFF7F5
:1020B000EEFD206F808800F045FA206F406B817B39
:1020C0000088C1F3800100F042FA206F0078BDE87B
:1020D000F041C0F34000FFF7E5BD2E48D5E786B0DC
:1020E00000220C21052002F084FBDFF8B890C9F82B
:1020F000000030B3002003F023F80021D9F80000DD
:1021000002F046FBDFF8A080224C03AE052709F160
:1021100008054FF0000A4FF0010B00235A1E03A9D7
:10212000D9F8000002F0AAFCBDF80C000B28F4D28C
:10213000DFE800F0FC06FBFAF9084178F8B4F70094
:10214000EBE7FEE7301DFFF79AFE0028E5D09DF88B
:10215000100002AA0599FFF71CFEC0070AD0206FE5
:102160009DF81010027802F00102914202D180889D
:1021700000F0E8F92F6085F804B09DF81000687150
:10218000084900231A460831D8F8000002F0C0FBC5
:102190000CE000001C080020680000203400030050
:1021A0003400020024000020580000209DF80800A0
:1021B000FFF792FEB1E7301DFFF761FE0028ACD0BB
:1021C0009DF81100FFF780FE0028A6D002A800901D
:1021D0009DF812309DF811109DF81000059AFFF738
:1021E000EBFDC0070AD0206F9DF81010027802F0B6
:1021F0000102914202D1808800F0A4F92F602F7172
:102200009DF8100068719DF81100A87100231A460E
:10221000C949D8F8000002F07BFB9DF80800FFF7E1
:102220005BFE7AE7301DFFF72AFE002888D0701D7C
:10223000FFF737FE0028BDD09DF811109DF8100063
:1022400002AB059AFFF7D5FDC00712D0206F9DF8AD
:102250001010027802F0010291420AD1406B9DF801
:102260001120817BC1F380018A4202D1008800F0F5
:102270006EF92F60022028719DF8100068719DF89A
:102280001100E87100231A46AB49D8F8000002F0AB
:102290003FFB9DF80800FFF71FFE3EE7301DFFF7EC
:1022A000EEFD002886D0701DFFF7FBFD0028B8D09A
:1022B0009DF81200FFF708FE0028B2D002A89DF892
:1022C0001310CDE900109DF812209DF811109DF813
:1022D0001000059BFFF7AAFDC00712D0206F9DF8E4
:1022E0001010027802F0010291420AD1406B9DF871
:1022F0001120817BC1F380018A4202D1008800F065
:1023000026F92F600A2028719DF8100068719DF849
:102310001200A8719DF81100E87100231A46864941
:1023200005E0EDE07CE00BE0E1E0D1E0F9E0D8F899
:10233000000002F0EDFA9DF80800FFF7CDFDECE695
:10234000301DFFF79CFD0028A7D0216F9DF81000DD
:10235000097801F00101884202D1FFF7E5FDDCE6D2
:1023600094F87400012807D100F041F984F874A0B2
:1023700002E0012002F050FE00F0F1F80028F8D051
:102380009DF8100000F0F0F8102804D000F02FF9AC
:10239000FFF7CAFDC1E69DF81000012802D067488A
:1023A000206705E065483838FAE7012002F034FE7E
:1023B00000F0D5F80028F8D0206F406B807BC0F388
:1023C000800000F0E8F8102804D000F010F9FFF7C2
:1023D000ABFDA2E6206F808800F0B4F8206F406B60
:1023E000817B0088C1F3800100F0B1F8206F007894
:1023F000C0F34000FFF756FC2F60202028719DF8A5
:1024000010006871206F406B807BC0F38000E87122
:1024100000231A464849D8F8000002F079FA7CE611
:1024200094F8740001281DD0301DFFF728FD002806
:1024300085D0701DFFF735FD002890D0206F9DF8E6
:102440001110426B927BC2F38002914210D100784E
:102450009DF8101000F00100814209D10420FFF71F
:102460003BFD5AE6FFF760FD57E6012002F0D4FD80
:1024700000F075F80028F8D09DF8110000F08BF8F6
:10248000102804D000F0B3F8FFF74EFD45E69DF8A4
:102490001100D0B1206F2430216F4863817B008808
:1024A000C1F3800100F053F82F60102028719DF8CF
:1024B000100068719DF81100E87100231A461E494A
:1024C000D8F8000002F024FA27E6206F1430E3E782
:1024D00094F8740008B10228A1D100F071F8102816
:1024E00002D0FFF721FD18E684F874B015E694F8E1
:1024F0007400012801D100F07AF884F874A00CE689
:1025000000F083F8102806D0FFF70EFD00F06FF8FA
:1025100084F874A001E6FFF7FCFC022084F8740044
:10252000FBE5C9F804B00648034900231A46091F11
:10253000006802F0EDF9F0E52C00002054080020BE
:10254000180000200521B0FBF1F001F06EBB01295D
:1025500000D140080521B0FBF1F001F069BB9448BF
:10256000007800F01000704710B5914C2178C90731
:1025700001D0132010BD2178C90601D4112010BD4F
:1025800072B6FFF779FB62B60820607060780028A9
:10259000FCD1102010BD10B5854C2178C90701D0A1
:1025A000132010BD2178C90601D4112010BDFFF7FA
:1025B0006EFB0820607060780028FCD1102010BDF0
:1025C0007B480178C90701D010207047017849077E
:1025D00001D5122070470178C90601D41120704737
:1025E0000121417041780029FCD1102070477048CA
:1025F00001788907002901DA102070470221417013
:1026000041780029FCD11020704769480178C9073A
:1026100001D0112070470421417041780029FCD17C
:10262000102070472DE9F0410020614D2978614E5E
:1026300011F00A0F4FF4FA7703D1316F0978490787
:1026400001D4AF8005E0A98811B1491EA98000E03E
:10265000012018B1FFF7F4FA044600E0002444B169
:10266000E88808B1401EE880E8884FF04B0820B1A8
:1026700014E0306F4088E880F6E7287820F0010009
:102680002870287840F006002870A5F808804B488C
:10269000012300224849006802F09FF9687840074A
:1026A00003D5287820F004002870687880070DD5BD
:1026B000287880070AD4287820F00100287028782C
:1026C00040F002002870A5F8088010E06878C00784
:1026D0000DD02878C0070AD12878400707D4287879
:1026E00020F002002870287840F0010028706878F7
:1026F000000701D5322028816878C00600D56F8197
:10270000A878C00704D0287840F00800287006E0B8
:10271000A878800703D5287820F0080028700020CA
:102720006870A870287810F00A0F03D00020FFF717
:1027300093FA05E02878C00702D00120FFF78CFA51
:1027400000202978C90702D0698901B90120012C2C
:1027500003D096F87410022901D140F0020000F075
:10276000A1FD012C0BD1A88948B9164801230022EC
:102770001349006802F031F94FF47A70A881288972
:1027800030B1401E2881287820F01000287003E026
:10279000287840F010002870688908B1401E6881D0
:1027A000A889002801D0401EA881BDE8F081000062
:1027B000380000201C080020B4AA000824000020D3
:1027C000D8AA00086800002088B0002208210A204A
:1027D00002F00FF8994C2060D8B1FA2002F01CFCEE
:1027E000042001904FF0010ACDF808A0944E002378
:1027F0001A4601A9306802F08BF8FFF7D1F9DFF82B
:10280000448298F80000800604D50120FFF797FB6A
:1028100003E0FEE70020FFF792FB8B48006802F020
:10282000CAFC642002F0F8FB4FF00309CDF80490D5
:1028300000231A4601A9306802F06AF84FF480308C
:102840000090824800231A466946006802F060F84A
:102850000021206801F09CFF7D4D0227774800236E
:102860005A1E06A9006802F009F906980928F5D24F
:10287000DFE800F006A0A9B2C0D005958500EDE71D
:10288000FFF78EF900F03BF998F8020080060BD5AF
:102890000420ADF80C008DF810A000231A4603A9FF
:1028A000286802F035F80FE098F8040080060BD590
:1028B0000420ADF80C0000208DF8100000231A460B
:1028C00003A9286802F024F8B8F80200010603D42E
:1028D000B8F80410C90508D5ADF80C9000231A46C5
:1028E00003A9286802F014F80AE010F4A07F07D0CA
:1028F000ADF80C7000231A4603A9286802F008F806
:10290000CDF804A001244FF6FF7BADF80A40B8F8DB
:102910000200204207D0ADF808A000231A4601A902
:10292000306801F0F5FFB8F80600204207D0ADF896
:10293000089000231A4601A9306801F0E9FFB8F8B1
:102940000800204208D00520ADF8080000231A46F0
:1029500001A9306801F0DCFF0BEA4404002CD4D15B
:102960003C48B0F90000002889D00197ADF8080074
:1029700000231A4601A9306801F0CAFF6EE7CDF8BE
:1029800004A00798ADF808000798000CADF80A00FD
:1029900000231A4601A9306801F0BAFF5EE70197EB
:1029A0000798ADF8080000231A4601A9306801F025
:1029B000AFFF53E7ADF80C7000231A4603A928684F
:1029C00001F0A6FF4AE7ADF80C9000231A4603A9D0
:1029D000286801F09DFF41E70520ADF80C008DF857
:1029E00010700798059000231A4603A9286801F083
:1029F0008FFF33E70720ADF80C008DF810708DF8CD
:102A000011700798059000231A4603A9286801F061
:102A10007FFF23E70820ADF80C008DF810700798B1
:102A2000142801D0012000E000208DF811000023BF
:102A30001A4603A9286801F06BFF0FE74800002041
:102A4000580000200008002034000020680000200A
:102A5000240000205200002011480168C9070AD153
:102A6000016841F0807101600E48002141600168F9
:102A700041F00101016070470A4840687047081A38
:102A8000704708494968081A70470649496801EBC8
:102A90004010704703494968081AC00F704700008A
:102AA000FCED00E0001000E01A4908788006000EF6
:102AB0000870194A1368DB05002B02DA40F00100A8
:102AC00008701068800503D5087840F0020008708F
:102AD000087800F00F000F280CD2DFE800F00B0C94
:102AE000080B080B0B0C0C0B0B080B080C00488890
:102AF000401E488070474888401C48807047054900
:102B00008A88488820F003008880801A00B28010EC
:102B1000C88070474C00002000000B40042811D0F2
:102B200004DC012808D0022804D109E0082805D0D7
:102B3000102809D0002070470120704702207047FC
:102B4000032070470420704707207047C0B27047C9
:102B5000C14989680A7802F00102824202D188885C
:102B600003F02AB97047012807D0BC4B41B1997CCA
:102B70009A89C1F3400103F092BFB84B383BF5E7A7
:102B8000997C5A8901F0010103F071BF30B4B24B56
:102B90009A68147804F0010484420AD118788842B3
:102BA00007D120B12432108830BC03F028B9143288
:102BB000F9E730BC704730B401280AD0A74C59B1AE
:102BC00024345AB1A27B238930BCC2F3400203F003
:102BD0009FBFA24C383CF2E71434F2E7A27BE388B3
:102BE00030BC02F0010203F073BF70B505460C461D
:102BF00099488168097801F00101A94208D104705F
:102C0000204603F04DF921462846BDE87040BDE757
:102C100070BD70B504460E46012C11D08F4A8E4D02
:102C2000AA601078C0F3000003F021F93146204675
:102C3000FFF7DBFFA8688088BDE8704003F0BCB8F0
:102C4000864A383AEBE71FB5002208210A2001F036
:102C5000D0FD814C6060C0B102F061FD804804F09D
:102C60003DF84FF0FF3500232A4602A9606801F0C5
:102C700005FF02980C28F6D2DFE800F01E31430869
:102C8000244A870606060694EDE7FEE773483838BF
:102C9000006F416B0078897B00F00100C1F3800177
:102CA000FFF7B7FFF0208DF8000069466C4803F08D
:102CB00059FF03F09DFFD6E704F053F8694800F090
:102CC0008AFAD0E7F1208DF8000003988DF8010012
:102CD0006946634803F046FF03F08AFFC3E7BDF887
:102CE0000E00FFF71BFF0646BDF80C00FFF72EFF96
:102CF00001460029B7D0002EB5D0304604F0E3F8E5
:102D0000B1E7BDF90C000028ADD004F0ECF8AAE75B
:102D10009DF80C00C00703D09DF80D00FFF718FFC9
:102D20009DF80C00800705D59DF80F109DF80D004B
:102D3000FFF72CFF9DF80C00400705D59DF80E10FD
:102D40009DF80D00FFF70FFF9DF80C00000707D559
:102D50009DF80E209DF80F109DF80D00FFF72BFF3A
:102D60009DF80C00C00605D59DF80F109DF80D00CC
:102D7000FFF73BFF9DF80C00800685D59DF80F10EE
:102D80009DF80D00FFF745FF6DE73748008802F01A
:102D9000F8FF3648008803F016F83548006803F05D
:102DA00036F860E73348B0F9000003F04CF85AE712
:102DB000314905220A80284A9268127802F00102FD
:102DC0000A7188602D4800231A46006801F0A0BDF2
:102DD00030B4294C0625258020716171A271A36051
:102DE000264821460023006830BC1A4601F090BDF9
:102DF000214907220A80184A93681B7803F00103CF
:102E00000B7112784A7188601C4800231A460068CA
:102E100001F07EBDF0B4049D174C09262680207178
:102E20006171A271E371A560144821460023006816
:102E3000F0BC1A4601F06CBD0F4908220A80064A10
:102E40009268127802F001020A7148710B4800235F
:102E50001A46006801F05CBD5400002054080020B0
:102E6000DC4F002040560020080000200A0000200F
:102E700010000020600000209408002024000020A2
:102E80002DE9F04707460D461446002607F4E0609A
:102E9000C00940F0A0084FF080494846FDF76CFE9D
:102EA0000128FAD100214046FDF739FE4FF0007AA3
:102EB0005046FDF761FE0128FAD14FF0004948461F
:102EC000FDF75AFE012805D00126FDF735FE3046F4
:102ED000BDE8F087F8B2FDF72AFE57463846FDF701
:102EE0004BFE0128FAD14846FDF746FE012801D0E5
:102EF0000226EAE701214046FDF711FE3846FDF7BC
:102F00003BFE0128FAD14846FDF736FE012812D0D3
:102F10000326DAE71CB10020FDF712FE02E00820CC
:102F2000FDF70EFE3846FDF727FE0128FAD1FDF722
:102F30000CFE05F8010B2000A4F10104E4B2E9D174
:102F4000C3E72DE9F04780460D461446002608F4F5
:102F5000E060C00940F0A0074FF080494846FDF707
:102F60000BFE0128FAD100213846FDF7D8FD4FF0BD
:102F700000773846FDF700FE0128FAD14FF00049EE
:102F80004846FDF7F9FD012804D00126FDF7D4FDE0
:102F900030469DE708F0FF00FDF7C9FD3846FDF714
:102FA000EBFD0128FAD14846FDF7E6FD012801D0E6
:102FB0000226EBE74FF400480DE02878FDF7B7FD57
:102FC0006D1C3846FDF7D8FD0128FAD14046FDF7C3
:102FD000D3FD012805D02000A4F10104E4B2ECD116
:102FE000D4E70326D2E710B54FF080442046FDF722
:102FF000C3FD0128FAD10021A020FDF790FD4FF07C
:1030000000742046FDF7B8FD0128FAD1FDF794FDC4
:103010004FF00040FDF7B0FD012801D0002010BDA9
:10302000012010BD70B50446012901D144F480741B
:103030009A4D02212846FDF7C0F90128F9D1214611
:103040002846BDE87040FDF7B3B910B5FFF71DFD88
:1030500004462046FFF71EFD0028FAD110BD10B52A
:103060008F4A012807D004211046FDF7B7FABDE8C2
:1030700010401420E9E704211046FDF7A4FAF6E712
:1030800070B50021E220FFF7CDFF00213D20FFF7C2
:10309000C9FF00210120FFF7C5FF0021E120FFF754
:1030A000C1FF00210846FFF7BDFF00212420FFF7E4
:1030B000B9FF00219020FFF7B5FF0021A020FFF706
:1030C000B1FF0021C820FFF7ADFF0021A620FFF7C8
:1030D000A9FF0021A420FFF7A5FF00212F20FFF763
:1030E000A1FF00214020FFF79DFF0021F820FFF7FE
:1030F00099FF0021D020FFF795FF00213020FFF736
:1031000091FF0021B020FFF78DFF00211020FFF775
:1031100089FF00210846FFF785FF002440F25F3554
:1031200001210020FFF77EFF641CA4B2AC42F7D35C
:10313000BDE870400021AF2074E770B5584C012104
:103140002046FDF74BFA42F210752846FFF77DFF47
:1031500001212046FDF737FA2846FFF776FF0120C8
:10316000FFF77DFFFFF78CFF4C4C10212046FDF749
:1031700024F90028F9D10220FFF771FFFFF780FF43
:1031800010212046FDF719F90028F9D170BD70B55E
:103190000D46FFF764FF0021B020FFF743FF002139
:1031A0001020FFF73FFF00210846FFF73BFF0024F8
:1031B0004FF4587615F814000121FFF733FF641C13
:1031C000A4B2B442F6D3354C10212046FDF7F5F8F1
:1031D0000028F9D170BD2DE9F047064609270120E6
:1031E000FFF73DFF0021B020FFF71CFF002110205A
:1031F000FFF718FF00210846FFF714FF60244FF087
:10320000000811E00025641EA4B20121305DFFF723
:1032100009FF6D1CADB2602DF5D304F59074A4B216
:1032200008F1010808F0FF08B845EBD3DFF86C900F
:1032300010214846FDF7C1F80028F9D10220FFF718
:103240000EFF0021B020FFF7EDFE00211020FFF758
:10325000E9FE00210846FFF7E5FEC0244FF0000814
:1032600011E00025641EA4B20121305DFFF7DAFEF3
:103270006D1CADB2602DF5D304F59074A4B208F1C5
:10328000010808F0FF08B845EBD310214846FDF7C8
:1032900094F80028F9D1BDE8F087000000000A404A
:1032A00000800C4070B504460C4DE00704D080212E
:1032B0002846FDF793F903E080212846FDF783F9BE
:1032C000A00705D52846BDE870404021FDF786B926
:1032D0002846BDE870404021FDF775B900000B405D
:1032E00008B502F020F800900220FDF7FEFC1C4C0F
:1032F000FA21684601F067FE00260025FDF755FD1E
:10330000022001F089FEFDF759FD304486B26D1CA4
:103310000A2DF3D3304607F084F8124A124B07F017
:1033200093F8124A124B07F08FF80022114B06F067
:10333000A1FF07F047F800B22080192801DA3220F7
:1033400000E0400080B200F076FC0B2060600A488C
:10335000034900231A46091D006801F0D9FAC7E79E
:10336000600000209A9999999999B93F21B07268A3
:1033700091EDCCBF00C06C4058000020052800D360
:103380000020474951F8200070474649421E8A6094
:10339000400848617047434A516B40F60C439943DB
:1033A000002803D040F60800014302E040F2044048
:1033B0000143516370470EB500200190804683465B
:1033C000002204210A2001F014FA3549091F08607F
:1033D00080BBFEE788B2090C404554D98046019174
:1033E00051E0D84500D901244FF0000A062C40D204
:1033F000DFE804F03F030C1A23370198FFF7BEFF04
:1034000081460224C3464FF0000839E0D9F8040091
:10341000009099F800700098384303D009F108092A
:1034200003242DE000242BE02FB17F1EBFB2009EAD
:10343000042425E027E0022422E03088758855EA3C
:10344000000107D0361D38B1FFF79FFF0120FFF7BD
:10345000A2FF04E0032413E00020FFF79CFF0524F3
:103460000EE025B16D1EADB24FF0010A08E0042454
:1034700006E04FF0000B0020FFF78DFF4FF0010A30
:10348000BAF1000FB2D006480023001F5A1E02A94D
:10349000006801F0F3FA029911F5803FA1D099E795
:1034A0006C00002000000740FE48FD4981600121BA
:1034B000416070472DE9F04107460D46F94E012461
:1034C000BC40F4622868002804D0F54901EB0711DC
:1034D000FDF7FEFD686820B1F16801EB0711FDF70B
:1034E000F7FD687B01280AD0F4617462A87B40B1C3
:1034F0003463287B012806D0F463BDE8F081B46111
:10350000F3E77463F5E7B463F7E710B50120FDF75F
:1035100066FFFDF777FF012800D0FEE707210220B4
:10352000FDF7DFFF0120FDF7F6FFFDF7F7FF0128AC
:1035300000D0FEE70020FEF709F80120FDF7E8FFC4
:103540004FF48070FDF7EBFE2020FEF742F80020DC
:10355000FEF746F80120FEF74BF8FCF785FE012147
:10356000D148FDF7D1FEBDE810400121CF48FDF75D
:10357000CBBE2DE9F041CE4908684FF6FF0210405E
:10358000CC4A40F44070104308606FF0040738469E
:1035900000F0FAFBC84C2060BD10284600F0F4FB98
:1035A00060606E10304600F0EFFBA060052000F078
:1035B000EBFBE0600F2000F0E7FB20610621052017
:1035C00000F0D6FB06210F2000F0D2FB384600F0B9
:1035D000DBFB2060284600F0D7FB6060304600F03F
:1035E000D3FBA060052000F0CFFBE0600F2000F0CF
:1035F000CBFB206181E710B56FF0040000F0C4FB45
:10360000AD4C20606FF0010000F0BEFB60604FF039
:10361000FF3000F0B9FBA060052000F0B5FBE060D2
:103620000F2000F0B1FB206110BD2DE9FE4FDFF847
:103630008CB25846FCF7E6FEA148FCF7E3FEA14831
:10364000FCF7E0FEA048FCF7DDFEA048FCF7DAFE40
:103650009F48FCF7D7FEC0219948FCF7B4FF6846A5
:10366000FCF79AFF2120ADF8000001248DF80A40F4
:1036700069465846FCF7D0FE4FF00409ADF80090BB
:103680008DF8034069465846FCF7C6FE0225ADF8A2
:1036900000508DF802408DF8094069465846FCF705
:1036A000BBFE1820ADF800008DF80850694658465A
:1036B000FCF7B2FE6846FCF76FFF4FF0800AADF8EA
:1036C00000A08DF80A408DF8095003268DF8086097
:1036D0008DF8024069465846FCF79EFE4027ADF83B
:1036E00000704FF000088DF8028069465846FCF7DC
:1036F00093FE6846FCF750FF40F23770ADF80000CB
:103700008DF80A4069466E48FCF786FEA002ADF8C7
:10371000000069466A48FCF77FFEC020ADF8000053
:103720008DF802408DF8094069466548FCF774FE43
:103730006846FCF731FFADF800908DF80A408DF82F
:1037400008508DF8094069465E48FCF765FEADF803
:1037500000608DF8095069465A48FCF75DFE6846DE
:10376000FCF71AFF9720ADF8000069465648FCF7B1
:1037700053FE2820ADF800008DF80A408DF808505F
:103780008DF809508DF8024069464F48FCF744FE19
:10379000ADF800708DF8044069464B48FCF73CFEDC
:1037A0006846FCF7F9FE4520ADF800008DF80A40A8
:1037B0008DF809508DF8024069464448FCF72CFE0C
:1037C000ADF800A08DF8086069464048FCF724FE7B
:1037D0000A20ADF800008DF8085069463B48FCF718
:1037E0001BFE6846FCF7D8FE0C20ADF800008DF8F3
:1037F0000A408DF809408DF8024069463448FCF7CC
:103800000BFE6846FCF7C8FEADF800508DF80A4084
:103810008DF809508DF808608DF8024069462C48F3
:10382000FCF7FAFDADF800408DF8028069462848A3
:10383000FCF7F2FDBDE8FE8F2DE9FF476846FDF776
:10384000A8FBDFF890904846FDF74CFB4FF4E136BB
:1038500000966027ADF804700024ADF80640ADF87E
:1038600008404FF01008ADF80A80FD00ADF80C508C
:1038700000214846FDF70EFC69464846FDF743FB2C
:1038800001214846FDF791FBDFF84CA05046FDF7BB
:1038900029FB0096ADF80470ADF806401EE000006C
:1038A00000040020008002400000E023E0C4130078
:1038B0000CED00E00000FA05A008002000800A409E
:1038C00000000B4000800B4000000C4000800C40CA
:1038D00000800E400080034000000340ADF8084027
:1038E000ADF80A80ADF80C5000215046FDF7D2FB30
:1038F00069465046FDF707FB01215046FDF755FB91
:10390000022211465046FDF779FB02221146484635
:10391000FDF774FBBDE8FF8770B5FDF70FFCF848B5
:103920004FF0FF3404628461861501213046FDF7B3
:10393000EBFCF44D00212846FCF746FD00216962AE
:10394000F14841623046FDF7DFFCF04AC2F8FC4125
:10395000C2F8FC40FFF7A8FD2020D06770BD1FB55E
:103960006846FCF7E5FCE84C00212046FCF72CFDFE
:103970000420ADF800000222ADF802200021ADF8CD
:1039800004100820ADF80600ADF80810ADF80A10D4
:10399000ADF80C10ADF80E2069462046FCF7B5FCDA
:1039A00001212046FCF7CFFC1FBD1CB50120FDF70F
:1039B00092F84FF480700090002001906846FDF767
:1039C00074F81CBD30B593B0FDF7E2F80CA8FDF714
:1039D00004F900240C940A200D904FF400300E904E
:1039E00040000F904000109040001190012512956A
:1039F0000CA8FDF7DCF801A8FDF74BF904200190B5
:103A0000029403941F20049005940694ADF81C4082
:103A1000ADF81E40E802089009954FF4E0400A9086
:103A20000B9401A8FDF7EAF801A8FDF70FF90021B2
:103A30000620FDF719FA00210620FDF720FA0120E3
:103A4000FDF735F90120FDF73DF913B030BD2DE943
:103A5000F04391B00BA8FCF724FE1F20ADF82E0018
:103A600040F2F310ADF83000A94E0BA93046FCF738
:103A7000FDFD05A8FCF7A8FE0024ADF816404FF4A4
:103A80004068ADF81E800125ADF814504FF00809CC
:103A9000ADF8269005A93046FCF776FE6846FCF79F
:103AA00045FFADF80240ADF80450ADF80650ADF852
:103AB0000840ADF80A50ADF80C50ADF8005069461A
:103AC0003046FCF716FFF920706100213046FCF704
:103AD000BAFF01213046FCF7F2FD0BA8FCF7E1FD2F
:103AE000ADF82E5040F6FF70ADF83000894F0BA9AD
:103AF0003846FCF7BBFD05A8FCF766FEADF816409E
:103B0000ADF81E80ADF82690ADF8144005A93846F2
:103B1000FCF73AFE0226ADF8146005A93846FCF71A
:103B200033FE05A8FCF750FEADF816406802ADF86C
:103B30001E00ADF81450ADF8264005A93846FCF734
:103B400023FE6846FCF7F2FEADF80850ADF80A60B7
:103B5000ADF80C50ADF8004069463846FCF7C9FE98
:103B6000ADF8006069463846FCF7C3FE3C61BC61B5
:103B70007C61012291023846FCF753FF0021384650
:103B8000FCF761FF01213846FCF799FD0BA8FCF713
:103B900088FD0F20ADF82E006320ADF830005E4F99
:103BA0000BA93846FCF762FD05A8FCF70DFEADF841
:103BB0001440ADF81640ADF81E80ADF8269005A96A
:103BC0003846FCF7E1FD6846FCF7B0FEADF8004072
:103BD000ADF80460ADF80240ADF8065069463846CD
:103BE000FCF787FEADF8146005A93846FCF7CCFD5C
:103BF000ADF80060ADF80440ADF80640ADF80A60DD
:103C0000ADF80850ADF80C5069463846FCF771FE27
:103C10003C61BC6100213846FCF715FF01213846A4
:103C2000FCF74DFD11B0BDE8F0833A4908617047DB
:103C3000384988617047384988617047642800D9DD
:103C4000642035490861704710B5FDF7FFFF002873
:103C50007BD172B60020FDF7FFFF41F28830FEF7FE
:103C600014FF04460020FFF7E9FF0020FFF7E3FF01
:103C70000020FFF7DAFF0020FFF7DAFF002004F052
:103C800084F9002004F062F9244804F0ABFA01231F
:103C90000A22002122A004F03BFB01230A2260211A
:103CA0001FA004F035FB2046FEF7F4FE0028FAD1F1
:103CB000FDF7E2FF0020FDF7EAFF0020FDF7F2FF2D
:103CC0001A48FFF788FA4FF47A70FEF7DEFE0446D2
:103CD0002046FEF7DFFE0028FAD11548FCF792FBDC
:103CE0001448FCF78FFB1448FCF78CFB1348FCF7D7
:103CF00089FB1348FCF786FB1248FCF783FBFEE7C1
:103D0000008002400000044000000A4084E000E01F
:103D100000000740008007400000084030DB00083A
:103D2000506F776572204F464600000040560020D5
:103D300000800A4000000B4000800B4000000C4057
:103D400000800C4000800E40FFE710BD144902685F
:103D50000A6042684A6082688A60C268CA60026912
:103D60000A6142694A6182698A61C069C861FEE785
:103D70004907090E002804DA0A4A00F00F008154AE
:103D80007047094A81547047002805DA054900F058
:103D90000F00405C400970470349405C4009704790
:103DA000DC08002014ED00E000E400E07CB5FEF744
:103DB00063FE0546002001903C4C2178A1B3616868
:103DC000491E616009D100903948002301AA694663
:103DD000006800F002FE19206060A168491EA16021
:103DE00008D13548002301AA3249006800F0F5FDEA
:103DF0003220A060E168491EE16008D1304800230C
:103E000001AA2E49006800F0E8FD0A20E06021695F
:103E1000491E216108D12C48002301AA29490068C4
:103E200000F0DBFD05202061019818B127494FF013
:103E3000805008602846FEF724FE1C4914310A68A9
:103E4000824200D208607CBD10B5FEF715FE044624
:103E5000FFF7FAFE15494888401E0004000C488010
:103E600003D105204880FDF7D6FDFEF7DBFBFEF70A
:103E70001BFE174A506900F5486080B29168814284
:103E800001D29168401A50614FF480611046FCF7EE
:103E9000BCFDFEF7F1FD01462046FEF7F0FD0349AB
:103EA00014314A68824200D2486010BD8000002070
:103EB00058000020C0AA000824000020CCAA000856
:103EC00048000020D4AA00086800002004ED00E0AB
:103ED0000080074041604280002303804FF6FF705E
:103EE00002E0521E21F81200002AFAD1704703881E
:103EF000426832F813200A804FF6FF718A420ED0D2
:103F00000388426822F8131042880188521E9142A9
:103F100001DA491C00E000210180012070470020E7
:103F2000704730B58FB01446FA4A904201D101254E
:103F300000E003250190486802904FF04060039034
:103F40004FF0804004904FF0885005900122069277
:103F5000488807900020089091040991C9000A91AF
:103F600001A90B910C900D908DF838208DF8390037
:103F70008DF83A00E8B20BA9FFF79CFAE64800EB8F
:103F8000051001682160416861608068A0600FB021
:103F900030BD1FB5DF4A904201D1002300E002236B
:103FA00000220A6048608A604FF04040C8600A61A1
:103FB000012048618A61CA6184040C6244054C6234
:103FC0000092019202928DF80C008DF80D208DF870
:103FD0000E20D8B26946FFF76DFA1FBD10B5044632
:103FE000CEA1204605F070F8A8B1CEA1204605F07C
:103FF0006BF890B1CDA1204605F066F878B1CEA15E
:10400000204605F061F860B1CEA1204605F05CF8CD
:1040100048B1002010BD012010BD082010BD0220B5
:1040200010BD042010BD102010BD10B50446C8A15D
:10403000204605F049F8D0B1C7A1204605F044F864
:10404000B8B1C6A1204605F03FF8A0B1C6A12046F0
:1040500005F03AF888B1C6A1204605F035F870B1F0
:10406000C5A1204605F030F858B1002010BD012050
:1040700010BD022010BD032010BD042010BD05207E
:1040800010BD062010BD1CB50446204604F05EFF9E
:1040900001F01FFA01900198002812D021460198E2
:1040A00004F030FF0220ADF80000B54800231A46A6
:1040B0006946006800F02CFC002802D1019801F04C
:1040C0004EFA1CBDBCB000240025012601F02BF9DE
:1040D0000590AB48C822AB490830FFF7FBFEA84962
:1040E0008C4FA94A08313846FFF71BFF01210846CB
:1040F000FDF7BBF8012211463846FCF783FF0DF1AE
:10410000A008A1460127052105A800F05CFF7EE07C
:10411000BDF84C0010F4E06F79D1C0B2202806D071
:104120000D280BD00A2809D0012E0DD015E021460C
:10413000641CA4B208F80190012613E02146641C17
:10414000A4B208F801900DE0294614AB08EB040274
:104150006D1CADB243F8212000262146641CA4B298
:1041600008F801000D2803D00A2801D0502C4ED1A8
:10417000002D49D0CDF80C904FF48070ADF80400BC
:1041800082A1149804F0A0FF002849D080A11498BF
:1041900004F09AFF002845D07EA1149804F094FF03
:1041A000002842D07EA1149804F08EFF00284CD045
:1041B0007EA1149804F088FF002856D080A114989E
:1041C00004F082FF002860D07EA1149804F07CFFE8
:1041D00000287CD07FA1149804F076FF00286BD0D3
:1041E00040F20110ADF80400039830B17E4800237E
:1041F0001A4603A9006800F08BFB614800231A46A9
:1042000001A9006800F084FB0024002501265C4819
:1042100013A90830FFF76BFE00283FF474AF77E76F
:104220000397E1E702200390DEE7022D04D2ADF808
:1042300004706EA00290D7E703200390002211467D
:10424000159804F026FE0490CEE7022D04D2ADF8B6
:1042500004706DA00290C7E704200390002211466D
:10426000159804F016FE0490BEE7022D04D2ADF8B6
:1042700004706CA00290B7E705200390002211465D
:10428000159804F006FE0490AEE7032D04D2ADF8B5
:1042900004706DA00290A7E71598FFF7C6FE0446CC
:1042A0005CB11698FFF79AFE60B10821039144EAC9
:1042B0000040049098E70AE019E0ADF804706BA0A4
:1042C000029091E7ADF804706EA002908CE7022D89
:1042D00004D2ADF8047071A0029085E70720039026
:1042E00000221146159804F09CFD04907CE7734C65
:1042F00073A106A8226804F06BFC06A8FFF7C3FEB2
:1043000076A106A8626804F063FC06A8FFF7BBFE6E
:104310006AE70000000003400004002062746E5F42
:104320006573630062746E5F6F6B000062746E5F32
:104330006C6566740000000062746E5F7269676885
:104340007400000062746E5F656E636F6465720076
:10435000646F776E000000007570000075705F7309
:10436000686F72740000000075705F6C6F6E67009C
:10437000686F6C6400000000726570656174000015
:104380009C00002078090020080B00206F6E0000C0
:104390006F6666007365745F766F6C746167650045
:1043A0007365745F63757272656E74007365745FB4
:1043B00063757272656E745F6C696D69740000007C
:1043C0006B657900656E636F6465725F64656C74BC
:1043D000610000006765745F74696D655F70726F7E
:1043E00066696C696E670000480000204552523AC9
:1043F000206D697373696E6720617267756D656E94
:1044000074205B6D565D0D004552523A206D697304
:1044100073696E6720617267756D656E74205B6D80
:10442000415D0D004552523A206D697373696E67A4
:1044300020617267756D656E74202832302F3430BC
:10444000295B415D0D0000004552523A206D6973B1
:1044500073696E67206B657920636F6D6D616E6443
:1044600020617267756D656E74730D004552523A26
:1044700020756E6B6E6F776E206B65792074797026
:10448000650D00004552523A20756E6B6E6F776E67
:10449000206B657920636F64650D00004552523AC8
:1044A000206D697373696E6720617267756D656EE3
:1044B00074205B7469636B735D0D000094000020D1
:1044C0005379737469636B20686F6F6B206D6178CB
:1044D000207469636B733A2025640D0054696D651F
:1044E000723220495352206D6178207469636B7376
:1044F0003A2025640D0000008CB0DFF83091694649
:104500004846FFF746FD002208210A2000F071F915
:10451000474E3060B8B303220021012000F069F952
:10452000706020B100231A46194600F0F1F9706856
:1045300050B300231A46194600F0A0FA4FF0005875
:104540004FF0FF3700233A460AA9306800F096FA88
:10455000BDF8280001281AD0022818D0B0F5807FB5
:1045600017D0344C204604F0F1FC0546444513D2E4
:10457000642D00D964252A4621462F4804F079FD90
:104580002D48009009E000E000E0FEE7FEE70B9C0C
:10459000E8E7284C241FE5E70094069500216A46C9
:1045A0000846FCF7D9FD01210020FCF75EFE012240
:1045B00002214846FCF726FD00233A46194670685A
:1045C00000F05CFABDF828000228BBD10B9800F07F
:1045D000C6FFB7E738B500200090184CA06AC007A6
:1045E0000ED11248816C89070AD5816C21F0020135
:1045F00081640F4800236A461946406800F0EDF9CF
:10460000A06A800709D40E480E490A6802614A6808
:104610004261896881610220A06202210020FCF7CA
:1046200045FE012801D1FCF72EFE38BD00000340F5
:104630009C00002080AB000814090020008002408C
:1046400000040020080B0020FBF7D8FDFEE7A0F1D6
:1046500020004FF08073C36181612849416140F8B7
:10466000202970474FF0E0204FF6FF1141610721EC
:104670000161704710B52248016841F47F01016073
:10468000016841F07F410160FFF7ECFF1D49002008
:104690000860FBF78BFD002010BD704718494FF0F4
:1046A00080501C390860BFF34F8FBFF36F8F704786
:1046B00010B5FBF7A3FD13480168491C0160BFF367
:1046C0004F8FBFF36F8F10BD0E490868401E086002
:1046D000002801D1FBF799BD704710B5FBF78EFD9F
:1046E00000F09FFB20B106494FF080501C39086054
:1046F000BDE810400020FBF788BD000049460008D7
:1047000020ED00E0AC00002000F1080141604FF016
:10471000FF328260C16001610021016070470021A9
:104720000161704742684A6093688B609368596082
:10473000916008610168491C0160704730B50C68E0
:10474000621C02D000F1080202E0026904E01A468D
:1047500053681D68A542FAD953684B6099608A6016
:10476000516008610168491C016030BDD0E9012138
:104770009160D0E90112516001694A68824201D119
:1047800082684A60002202610868401E0860704723
:1047900070B504460D46FFF78BFFD4E90F12206871
:1047A00001FB020060600020A0632068A060E06B55
:1047B000226C2168401E00FB0210E0604FF0FF30C9
:1047C0006064A06404F110004DB1FFF79DFF04F197
:1047D0002400FFF799FFFFF777FF012070BD2169E3
:1047E0000029F8D000F0CEFD0128F4D1FFF756FFE4
:1047F000F1E72DE9F04105460F460026002D16D0C1
:104800004C2000F066FE04468CB105FB07F0401C0E
:1048100000F05FFE206038B1E56327640121204687
:10482000FFF7B6FF264602E0204600F098FE30462D
:10483000BDE8F08170B50446FFF73AFF04F12405A6
:104840000AE0606A58B1284600F09CFD08B100F00B
:10485000F0FDA06C401EA064A06C0028F1DC4FF0BD
:10486000FF35A564FFF730FFFFF722FF04F11006C4
:104870000AE0206958B1304600F084FD08B100F02C
:10488000D8FD606C401E6064606C0028F1DC6564DB
:10489000BDE87040FFF718BF10B50446FFF708FFEA
:1048A000A06BE16B884201D1012400E00024FFF7F6
:1048B0000BFF204610BD70B504461546226C002A39
:1048C00022D07DB1E06804F060FBE168206C091A39
:1048D000E1602268914202D26168081AE060022D0C
:1048E0000DD011E0A06804F050FB216CA0680844D2
:1048F000A0606168884207D32068A06004E0A06BD4
:1049000010B1A06B401EA063A06B401CA06370BDE3
:104910002DE9FF4182B0044688461F460025002647
:10492000FFF7C6FEA06BE16B884205D3022F03D0D0
:104930000498A8B1C5B11BE03A4641462046FFF7AE
:10494000BAFF606A38B104F1240000F01BFD0128B1
:1049500001D1FFF7A3FEFFF7B7FE012006B067E71E
:10496000FFF7B2FE0020F9E7684600F037FD0125A9
:10497000FFF7AAFE00F022FBFFF79AFE606C401CD6
:1049800000D16664A06C401C00D1A664FFF79CFEB9
:1049900004A9684600F028FD30B12046FFF74AFF21
:1049A00000F0A7FA0020D9E72046FFF775FF70B1A5
:1049B00004F11000049900F0CBFC2046FFF73AFF09
:1049C00000F097FA0028ABD1FFF768FEA8E7204671
:1049D000FFF730FF00F08DFAA2E72DE9F041044621
:1049E0000F4615461E46FBF709FC8046A06BE16B9F
:1049F000884207D3022E05D000244046FBF705FC71
:104A0000204615E7324639462046FFF754FFA06C92
:104A1000401C04D0A06C401CA0640124EDE7606A37
:104A20000028FAD004F1240000F0ACFC0028F4D0F7
:104A3000002DF2D001202860EFE710B50446FFF703
:104A400037FEA06B20B10024FFF73EFE204610BDCC
:104A50000124F9E730B40C460368002B0CD0026C3B
:104A6000C1681144C1604568A94200D3C360C168F0
:104A7000204630BC04F089BA30BC70472DE9FF41B4
:104A800082B0044688461F4600250026FFF710FE28
:104A9000A06B10B3E56841462046FFF7DBFF6FB11E
:104AA000E560606A30B104F1240000F06BFC08B1ED
:104AB000FFF7F4FDFFF708FE01204FE7A06B401E53
:104AC000A06320690028F5D004F1100000F05AFC22
:104AD0000128EFD1FFF7E2FDECE7049808B125B11A
:104AE00007E0FFF7F1FD002038E7684600F076FCAC
:104AF0000125FFF7E9FD00F061FAFFF7D9FD606CD1
:104B0000401C00D16664A06C401C00D1A664FFF775
:104B1000DBFD04A9684600F067FC30B12046FFF7D2
:104B200089FE00F0E6F9002018E72046FFF785FF30
:104B300070B104F12400049900F00AFC2046FFF74C
:104B400079FE00F0D6F90028A0D1FFF7A7FD9DE778
:104B50002046FFF76FFE00F0CCF997E72DE9F04112
:104B600004460F461546FBF749FB0646A06BE0B12D
:104B700039462046FFF76EFFA06B401EA063606CB5
:104B8000401C04D0606C401C606401240EE020696D
:104B90000028FAD004F1100000F0F4FB0028F4D053
:104BA000002DF2D001202860EFE700243046FBF70B
:104BB0002CFB20463CE62DE9F04104460F46FBF76E
:104BC0001DFB0646A06B38B1E56839462046FFF765
:104BD00041FFE560012400E000243046FBF715FBAF
:104BE000204625E610B50446FFF762FDA46BFFF7EB
:104BF0006BFD204610BD10B50446FFF759FDD4E902
:104C00000E10441AFFF760FD204610BD806B704700
:104C100010B50446206800F0A2FC2046BDE8104014
:104C200000F09DBC806B002801D00020704701205F
:104C30007047816BC06B814201D101207047002019
:104C40007047000070B50024FE4D04EB840005EBB6
:104C50008000FFF759FD641C052CF6D3F948643039
:104C6000FFF752FDF7487830FFF74EFDF5488C30DE
:104C7000FFF74AFDF348A030FFF746FDF148B43096
:104C8000FFF742FDEF49F04864310163143141639D
:104C900070BD70B5044615460023E218C85C82F862
:104CA0003400C85C10B15B1C102BF6D3002084F8D4
:104CB0004300052D00D30425E562201DFFF72FFDDD
:104CC00004F11800FFF72BFD2461C5F10500A06178
:104CD000646270BD70B506460D46442000F0F9FBD5
:104CE000044644B1B60045B12846206348B1A52228
:104CF000314604F08FF9204670BD304600F0E9FBE4
:104D0000F3E7204600F02BFC0024F4E72DE9FF4FE9
:104D100081B08246DDE90E68109917469B463846F9
:104D2000FFF7D8FF0446C84DF4B3216B781E01EBA2
:104D3000800020F00709009732462046119B029917
:104D4000FFF7A7FF5A4651464846FFF780FC206010
:104D5000B8F1000F01D0C8F80040FFF7A9FCA8681F
:104D6000401CA860286810B1686938B10BE02C605D
:104D7000A868012807D1FFF765FF04E02868C06A2A
:104D8000B04200D82C60A86A401CA862E06A296979
:104D9000884200D92861AB4900EB800001EB80001C
:104DA000211DFFF7BFFC00E003E00124FFF78CFCAE
:104DB00001E04FF0FF34012C07D1686928B1286861
:104DC000C06AB04201D2FFF769FC05B02046BDE8D9
:104DD000F08F70B50446FFF76BFC9B4D04B92C684F
:104DE000201DFFF7C3FCA06A18B104F11800FFF7FB
:104DF000BDFC9448211DA030FFF794FC6868401C5E
:104E00006860A86A401CA862FFF75EFC6869002819
:104E100006D02868844203D1BDE87040FFF73EBC4D
:104E200070BD2DE9F0470025874FB86900280AD0EA
:104E3000F869401CF861FEF7B9FF386A00B1012536
:104E40002846BDE8F087F868401CF860FE684FF01F
:104E5000FF3976B9386B796B39637863786A401CAF
:104E60007862386B0068A0B1386BC068C068406871
:104E7000F862F86ADFF8CC8186420FD3386B00689D
:104E800050B1386BC068C4686068864215D2F86259
:104E900004E0C7F82C90ECE7C7F82C903868C06A9B
:104EA00000EB800058F82000012800D90125F8699E
:104EB0000028C2D1FEF77AFFBFE7201DFFF756FC9E
:104EC000A06A18B104F11800FFF750FCE06A3969D4
:104ED000884200D9386100EB800008EB8000211D7A
:104EE000FFF720FCE06A3968C96A8842C6D3012509
:104EF000C4E72DE9F0410027FFF7DAFB524DA8691E
:104F0000401EA861A869D8BBA868C8B3DFF834817F
:104F1000012608F18C081CE0D8F80C00C46804F1E4
:104F20001800FFF723FC201DFFF720FCE06A296929
:104F3000884200D9286100EB8001424800EB8100E3
:104F4000211DFFF7EFFBE06A2968C96A884200D398
:104F50002E62D8F800000028DED1E86938B909E0EF
:104F6000FFF75FFF00B12E62E869401EE861E86963
:104F70000028F5D1286A012802D10127FFF78EFB0E
:104F8000FFF7A2FB3846BDE8F08170B504462E4D10
:104F900028684460E868844206D22968686B091D65
:104FA000BDE87040FFF7CABB2968286B091DFFF7F1
:104FB000C5FBE86A844200D2EC6270BD2248816978
:104FC000491C8161704770B505460C460022FFF709
:104FD000F5FF1D4EF0682B681C44834205D9A3429F
:104FE00008D9844206D9012204E0A34201D88442B0
:104FF00000D901222C6032B13068001DFFF7B6FBEA
:105000002046FFF7C2FFFFF774FF002803D1BDE879
:105010007040FFF743BB70BD10B502460020002A68
:105020000DD0FFF7CBFF0848C1688C180068001D41
:10503000FFF79CFB2046FFF7A8FFFFF75AFF002869
:1050400008D103E0140B0020B0000020BDE81040A0
:10505000FFF724BB10BD10B50446FFF729FB0CB9C0
:10506000F6480468E46AFFF72FFB204610BD2DE9DF
:10507000F04104460D460026052D00D30425FFF718
:1050800017FBEE4F04B93C68E06AA8422DD0854278
:1050900008D939688C4209D03968C96AA94205D84B
:1050A000012603E039688C4200D10126E562C5F192
:1050B0000501A161E24D00EB8000616905EB800014
:1050C00081420ED1201DFFF751FBE06A3969884209
:1050D00000D9386100EB800005EB8000211DFFF74F
:1050E00021FB012E01D1FFF7D9FABDE8F041FFF70E
:1050F000EBBAD2498869002802D0012008627047C3
:1051000000200862CE4A02E00869401E0861086972
:1051100000EB800052F820000028F5D0086900EB71
:10512000800002EB800042685268426000F1080390
:105130009A4201D1526842604068C0680860704776
:1051400070B50446FFF7B4FABC4D04B92C68201DB5
:10515000FFF70CFBA06A18B104F11800FFF706FB7B
:10516000B748211DB430FFF7DDFAFFF7ADFA286824
:1051700084420DD1686918B1BDE87040FFF78EBA5E
:10518000AF48A968B4300068884202D10020286086
:1051900070BDBDE87040ACE70021A94B4269B43353
:1051A0009A4206D1806AA3F12802904201D000B948
:1051B00001210846704770B50446002C25D09F4D4C
:1051C0002868844221D0FFF773FA2046FFF7E4FFF6
:1051D000012816D1201DFFF7C9FAE06A2969884223
:1051E00000D92861964900EB800001EB8000211D69
:1051F000FFF798FAE06A2968C96A884201D3FFF785
:105200004DFABDE87040FFF75FBA70BD2DE9F0417F
:1052100004460025FAF7F2FF07462046FFF7BCFFD9
:10522000012808D1854EB06950B1854804F11801B4
:105230008C30FFF777FA3846FAF7E7FF2846A2E600
:10524000E06A3168C96A884200D30125201DFFF752
:105250008DFAE06A3169884200D93061784900EB03
:10526000800001EB8000211DFFF75CFAE3E710B539
:105270000446206B00F073F92046BDE8104000F0B2
:105280006EB970B56E4E6D4DA0361CE0FFF796FE00
:10529000306820B10024FFF72CFEA4B901E00124FE
:1052A000F9E7FFF705FAF068C468201DFFF75EFA1A
:1052B000A868401EA8606868401E6860FFF704FA8E
:1052C0002046FFF7D4FF68680028DFD170BD5C4C32
:1052D000FFF7D7FF20680128FAD9FFF7DFF9F7E7D2
:1052E0001FB500240094019402942346802255A106
:1052F00056480394FFF70AFD012809D1FAF77EFF0B
:105300004E4801214161C460BDE81F40FFF7B2B9BA
:105310001FBD10B5FAF772FF484900204861BDE88B
:105320001040FFF7BAB910B5FFF7C2F94348C46897
:10533000FFF7CAF9204610BD10B5FAF75FFF3F49E5
:10534000CC68FAF762FF204610BD3C488068704781
:1053500070B50D46394C21681831FFF7EFF9206818
:10536000001DFFF703FA681C04D0E0682844BDE87C
:1053700070400AE62168BDE870403148091DB4302C
:10538000FFF7D0B970B5C068C46804F118000646CC
:10539000FFF7ECF9294DAA696AB1294831468C30EA
:1053A000FFF7C0F9E06A2968C96A884214D301206E
:1053B0000121296270BD201DFFF7D8F9E06A296933
:1053C000884200D928611E4900EB800001EB800073
:1053D000211DFFF7A7F9E5E7002070BD17494A6ACC
:1053E0000260C9684160704770B504460D46FFF71A
:1053F0005FF91249C8682A68531C08D02368496AB3
:105400008B4206D06168814203D801240DE000245C
:105410000BE06168401A904206D2101A28602046BC
:10542000FFF7DCFF002400E00124FFF74DF92046E0
:1054300070BD02490120086270470000B0000020E2
:10544000140B002049444C4500000000CF520008D6
:1054500030B5544900E011460A688242FBD34B68DC
:105460005C18844203D140681844486008460D68BF
:1054700044682318AB420DD14A4B0C3B1B689A423F
:1054800006D05268224442600A681268026002E054
:10549000036000E00260814200D0086030BD4248F5
:1054A00020F007013F4801600023436044F2F830D8
:1054B000084408383B4A0C3A10604360036044F2E9
:1054C000F0334B600860506808385060D806906030
:1054D00070472DE9F04105460026FFF76FFD314F7B
:1054E0000C3F386808B9FFF7DAFFB868054231D1D8
:1054F0003DB10835680704D005F00700C0F1080089
:1055000005443DB37868854224D826490846046896
:1055100001E0214604466068A84202D220680028C3
:10552000F7D13868844215D00E68083620680860C4
:105530006068411B102904D9601941606560FFF75C
:1055400087FF60687968091A7960B9680843606004
:1055500000202060FFF7CDFC3046BDE8F08170B53B
:10556000002819D0083804460E4D60680C3DA96823
:10557000084211D02268002A0ED188436060FFF7EC
:105580001DFD60686968084468602046FFF760FF99
:10559000BDE87040FFF7ADBC70BD02480C384068F4
:1055A00070477047F4000020E40B0020F7B582B08C
:1055B0006C4C9DF80C006A4F217A6B4D092819D06C
:1055C00004DC01282AD0022814D108E09DF80D201F
:1055D0000B2870D0F0280ED0F128F5D113E041F05F
:1055E000100040F0400040F08000207201215D4832
:1055F00001F054FE90E05D49594801F0B3FA584873
:1056000001F056FD88E00AB1012000E002202A786E
:105610001043287041F0400020727DE0002002F02D
:1056200095FC207A4FF00006000632D5B87CCDE913
:1056300000064F483B7C02784E480178002002F07B
:1056400055FD4D4802F0CEFD012302221C214BA046
:1056500002F05EFE01230F2208214AA002F058FE4C
:105660000123022265214BA002F052FE4C4802F0B9
:10567000B9FD01230F226A214AA002F049FE012050
:105680002421CDE9001060231B221946484802F06E
:105690002DFD484802F0A6FD287800F003000128FF
:1056A00002D0022808D00DE001233722052142A0B4
:1056B00002F02EFE06E00FE001233722052141A073
:1056C00002F026FE2E70607A20F001006072207ACF
:1056D00020F0400020721FE0052A1DD1BDF80E0009
:1056E000012819D1387AC0060BD539491C4801F078
:1056F00039FA1E49374801F035FA364801F0D8FC2E
:105700000AE03349334801F02DFA1849144801F0F2
:1057100029FA134801F0CCFC05B00120F0BD10B50A
:105720000021104802F017F80E482B494161022170
:1057300080F824100C49091D8162094A0A60826AB6
:105740002449516000218181C181C021018244210D
:10575000418200F09CF9BDE81040024800F0D1BE43
:105760002C520020DC4F0020FC000020A8AB0008D9
:105770001E0100201C01002030DB00085053323095
:1057800030000000506F77657220737570706C790F
:10579000000000004D445233324639517800000079
:1057A0005CC00008706F77657265642062790000E4
:1057B000ECE00008BCB10008454550524F4D204F69
:1057C0004B000000454550524F4D204641494C008A
:1057D000A2AB00087C520020AD55000810B5FE4970
:1057E000884206D1C86A00EB80004000FDF7E0FA6D
:1057F00009E0F9494C31884205D1C86A00EB8000C4
:105800004000FDF7F5FA002010BD2DE9FC410446EB
:105810004FF00106607A4FF00007C0074FF00C050B
:105820001CD0ED48844219D1207A00070BD5022004
:1058300002F08CFBCDE90056062327225821E748C9
:1058400002F054FC0AE0012002F080FBCDE9005791
:10585000062327225821E14802F048FC607AC0075D
:105860001DD0DD484C30844219D1207A00070BD579
:10587000022002F06BFBCDE9005606232722B82157
:10588000D64802F033FC0AE0012002F05FFBCDE9CC
:10589000005706232722B821D04802F027FC002019
:1058A000BDE8FC8137B501249DF804100B2906D012
:1058B000DDE9011202F082F8044620463EBD9DF863
:1058C0000510072905D0DDE9011202F077F804463A
:1058D000F3E790F82810090706D440218DF804104A
:1058E00001A901F03FF9E8E7DDE9011202F066F8ED
:1058F0000446E2E710B501244878072802D00024C6
:10590000204610BDB1F90200002804DA4FF0000073
:10591000FDF792FAF4E7F3DD4FF00100FDF78CFAA2
:10592000EEE71CB5417AC90721D0AB494C39884212
:105930001DD1007A4FF00C0400070CD5022002F0B4
:1059400005FB0120CDE90040062338228021A34831
:1059500002F0CCFB0BE0012002F0F8FA0020CDE9C8
:1059600000400623382280219C4802F0BFFB002023
:105970001CBDF7B5064601259DF80410012904D089
:10598000092947D00B297AD152E09348A83002F078
:10599000BFFD914CA834207A000632D5002002F0D9
:1059A000D5FA102002F0EBFA0123C02237210020A3
:1059B00002F016FB01230D223821302002F060FB9B
:1059C00001230D2238218A2002F05AFB844802F07C
:1059D00009FC01232922022182A002F099FC012363
:1059E00029224B2181A002F093FC0123292262216C
:1059F0007CA002F08DFC01232922AB217CA002F0C7
:105A000087FC607A20F001006072207A20F040006C
:105A100020723AE0DDE90112304601F037FE05461A
:105A2000012D32D16C480121A83001F07AFB2CE025
:105A30009DF80520BDF80610012A01D1012924D0C6
:105A4000012A1CD107291AD163484FF04004007A7B
:105A500000070BD560484C3001F02AFB8DF804405C
:105A60005D4801A94C3001F07DF808E05A4801F08A
:105A70001FFB8DF8044001A9574801F073F8DDE9D8
:105A80000112304601F002FE05462846FEBD2DE912
:105A9000F05F01465048A83001F05DFE4E49554880
:105AA000A8314861082081F8240001F130008862A3
:105AB000A0F514710160A0F5057000F5F271896A16
:105AC00048603C3000F5D471896A88603C3000F54C
:105AD000B671896AC8603C3000F59871896A0861BE
