:020000040800F2
:10000000086200201D0200082502000827020008DF
:10001000390200083B0200083D0200080000000011
:100020000000000000000000000000009101000836
:100030004102000800000000C5010008FB3E000866
:1000400047020008470200084702000800000000BD
:1000500000000000C93C00084702000847020008F1
:10006000470200080000000047020008470200089D
:100070004702000800000000470200089D22000817
:10008000470200084702000800000000470200087D
:10009000470200080000000000000000000000000F
:1000A00000000000000000000000000047020008FF
:1000B00047020008470200084702000847020008FC
:1000C00000F002F800F055F80AA090E8000C824415
:1000D0008344AAF10107DA4501D100F04AF8AFF2F2
:1000E000090EBAE80F0013F0010F18BFFB1A43F016
:1000F00001031847CCD50000ECD50000103A24BF0E
:1001000078C878C1FAD8520724BF30C830C144BF7C
:1001100004680C60704700000023002400250026BE
:10012000103A28BF78C1FBD8520728BF30C148BF5A
:100130000B607047662909F05086642907F03887FC
:10014000632908F02E84002070471FB509F039FE9E
:1001500008F0DAFC04000020002109F0EDF9401C51
:1001600060600020002109F0FDF9E0601FBD10B5BE
:1001700010BD08F0D3FD1146FFF7E7FF01F0FBFAD1
:1001800008F0F1FD03B4FFF7F2FF03BC08F0F6FD41
:100190001A4B19680868B0E8F00F80F309884FF02F
:1001A000000080F311884EF00D0E70470000000033
:1001B00003480068006880F3088862B600DF00BF6B
:1001C00008ED00E0EFF309800C4B1A6820E9F00F0E
:1001D000106008B54FF0200080F3118804F093FB05
:1001E0004FF0000080F31188BDE8084019680868E6
:1001F000B0E8F00F80F30988704700BFA800002026
:10020000EFF311804FF0200181F31188704780F3E4
:1002100011887047EFF30580704700000D48804754
:100220000D480047FEE71EF0040F0CBFEFF30880F7
:10023000EFF3098001F0B4BFFEE7FEE7FEE7FEE75B
:10024000FEE7FEE7FEE7FEE704480549054A064BE0
:1002500070470000CD020008C1000008085C0020C3
:1002600008620020085E0020085E002010B51F4BC9
:10027000D8681F4C800701D5601000E02046D9687F
:10028000C90700D04008D968490704D55968C1F3A7
:100290000321491C4843D968164AC1F3012139B1E9
:1002A000012907D002290DD049F64040106010BD49
:1002B000146010BDD968C1F30311491CB0FBF1F003
:1002C000106010BD4FF40040106010BD07480A498F
:1002D000C161C1680021C16042684160826881607B
:1002E0000269016142694161C0E70000000002400B
:1002F00000127A000000002010000008FE4A19B128
:10030000D1690143D1617047D1698143D16170479F
:10031000F94AD16821F440710143D1607047C0F3BC
:100320004211012909D0F549C96B00F01F020120D3
:100330009040084204D001207047EF490968F4E773
:100340000020704710B500234FF4C0641720FFF75A
:10035000E6FF5B1CA34201D20028F7D01720FFF76D
:10036000DEFF08B1012010BD002010BDE449086087
:10037000704700B50120FFF7F9FFFFF7E3FF00200A
:10038000FFF7C6FFDC48C1680021C16042684160D8
:1003900082688160026901614269416182698161AB
:1003A000D849C16100BD00B5FFF7E3FF0121C806D0
:1003B000FFF7A4FFD148C16B41F48101C163C16B58
:1003C00001F48101C16300BDCB498A6822F00302B8
:1003D0008A60012806D0022803D1886840F0030013
:1003E00088607047886840F001008860704710B5E9
:1003F00000234FF4C0642220FFF791FF5B1CA3424F
:1004000001D20028F7D02220FFF789FF08B1012090
:1004100010BD002010BDB949CA6B22F00302CA63A7
:10042000012806D0022803D1C86B40F00300C8633E
:100430007047C86B40F00100C863704710B50023D7
:100440004FF4C0640D20FFF76AFF5B1CA34201D28A
:100450000028F7D00D20FFF762FF08B1012010BD82
:10046000002010BDA54AD16B21F07C5141EA00600B
:10047000D0637047A2491C39086070479F4AD16B0E
:1004800021F4F81141EA0040D063704710B5002311
:100490004FF4C0641520FFF742FF5B1CA34201D25A
:1004A0000028F7D01520FFF73AFF08B1012010BD52
:1004B000002010BD904AD36823F003030343D360A8
:1004C000506820F4706040EA012050608E48D0F8F7
:1004D0008810002904D0012140F88C1F0021016000
:1004E00070478A490860704789490860704710B5AD
:1004F00000234FF4C0642120FFF711FF5B1CA342CF
:1005000001D20028F7D02120FFF709FF08B1012010
:1005100010BD002010BD784AD16821F0F00141EAF9
:100520000010D0607047744A136923F0030303433B
:100530001361506820F0F00040EA011050607248EA
:10054000D0F88010002904D0012140F8841F002138
:10055000016070476F49086070476F4908607047D5
:1005600010B500234FF4C0642020FFF7D8FE5B1CB9
:10057000A34201D20028F7D02020FFF7D0FE08B117
:10058000012010BD002010BD644908607047644917
:1005900008607047584A516921F0330101435161A5
:1005A0007047554A516921F4706141EA0020506159
:1005B00070475C49086070474F4A916921F0F0012B
:1005C00041EA0010906170475749086070474A4AF5
:1005D000916921F00F01014391617047534908600F
:1005E00070472DE9F04FDFF820B1DBF88411DFF818
:1005F00040A14FEA4A0509B1514600E02946DBF81F
:10060000802102B149080B46DBF88821DFF8E8C0F9
:100610002AB1DCF80420C2F30322521C5343DCF855
:100620000C204FF40048C2F3012249F6404901274B
:1006300052B1012A0AD0022A1BD0C0F80090DBF880
:100640000422CAB1524618E00560F8E7DCF80C2035
:100650004FEA1212120701D41A4608E0DCF80C2007
:10066000C2F30212521C07FA02F2B3FBF2F202606A
:10067000E5E7C0F80080E2E72A46DBF8004204B173
:1006800052081446DBF808622EB1DCF80460C6F3A9
:100690000316761C74432646DBF810B2BBF1000F3C
:1006A00000D076084660DCF8186036095FEA067B01
:1006B00007D506F0070B0BF1010B07FA0BF6B5FB9C
:1006C000F6F5C560DCF818605FEA067B07D506F032
:1006D000070B0BF1010B07FA0BF6BAFBF6FAC0F8A1
:1006E00010A0DCF8146016F0030604D0012E39D0F7
:1006F000022E39D021461DE00000024000800D404E
:10070000D807B04310000008000040428801404272
:10071000880040420802404280004042200240429D
:1007200010024042B40240422403404220034042AF
:1007300000093D00DCF81420C2F30112B2B1012A15
:1007400016D0022A00D02946DCF81420120A13071A
:1007500005D502F00702521C9740B1FBF7F181600A
:10076000BDE8F08F1146C6E71946C4E74146EBE7FE
:100770004946E9E700210160416001614161416250
:1007800003210162704710B54A8802610A894B89CA
:100790000C881A448B8903EB04231A44CB881A442F
:1007A0000260CA8989881144416010BD002181809E
:1007B0000722C28041810181818102224280018021
:1007C000704721B1416841F00201416070474168C2
:1007D0004FF6FD721140416070471AB142690A43F9
:1007E0004261704742698A43426170478069814330
:1007F00001D00020704701207047C069084201D035
:100800000120704700207047026A0A430262704765
:100810001AB1426A0A4342627047426AC94389B2C6
:100820000A404262704781607047806880B27047BA
:10083000C068084201D0012070470020704710B501
:100840000A4BDA6A0A4CA04205D142F0807020F0CF
:10085000FF020A4308E0074CA04205D142F00070B5
:1008600020F47F4040EA0122DA6210BD000002401D
:100870000000044000000A400021C16001614160A5
:100880000160816041618161C16170472DE9FF4F65
:10089000D0F8048082680192D0F80C900769D0F8F3
:1008A00014C082690092D0F81CA000220123032505
:1008B0004FF001160C885EE05FEAC47B56D091F8D9
:1008C00002B028EA03080BFA02FB48EA0B0891F889
:1008D00008E04FEA420B0EFA0BFECDF80CB0DDF843
:1008E00004B02BEA050B4EEA0B0ECDF804E091F8AC
:1008F0000AB029EA03090BFA02FB49EA0B0991F84D
:1009000003E002F1100B0EFA0BFECDF808B091F8DF
:1009100004B0B74347EA0E070BFA02FB47EA0B079E
:1009200091F805E0DDF808B02CEA060C0EFA0BFE93
:1009300091F806B04CEA0E0C0BFA02FB4CEA0B0CD9
:1009400091F809E0DDF80CB00EFA0BFEDDF800B00E
:100950002BEA050B4EEA0B0ECDF800E091F807B03C
:100960002AEA030A0BFA02FB4AEA0B0A5B00AD0013
:100970007600521C6408002C9ED1474A904202D156
:100980004FF01F0101E04FF0000128EA0108C0F814
:10099000048002D14FF01F0101E04FF00001019BE4
:1009A00023EA0103836002D14FF01F0101E04FF001
:1009B000000129EA0109C0F80C9002D14FF01F0193
:1009C00001E04FF0000127EA0107076102D14FF073
:1009D0001F0101E04FF000012CEA010CC0F814C027
:1009E00002D14FF01F0101E04FF00001009A22EA0E
:1009F0000102826102D14FF01F0101E04FF00001BE
:100A00002AEA010AC0F81CA0BDE8FF8F4FF6FF716B
:100A1000018000218170C170017141718171C171CA
:100A200001724172817270470068084201D0012052
:100A3000704700207047006870470368164A90426C
:100A400001D11F2200E0002293430B430360704753
:100A50000368114A904201D11F2200E000220A439C
:100A600093430360704710B503680B4CA04201D15B
:100A70001F2400E00024A34312B10B43036010BD08
:100A80008B43036010BD044A904201D11F2200E055
:100A9000002291430160704700000B400021C160BB
:100AA000016041608160016241628162C1620163F3
:100AB00041638163C163016641668166C16601610C
:100AC00041618161C161016741678167C1670164FB
:100AD00041648164C164016541658165C165704798
:100AE00010B50A8802604A8842608A888260CA8893
:100AF0000B898C891A444B8923441A44CB891A44A4
:100B0000C2604A8A8B8A1A44CB8A098A03EB011194
:100B10001144016510BD0021018041808180C180A8
:100B2000018141818181C181018241828182C182B1
:100B30007047C26811B142F0010101E022F00101E9
:100B4000C1607047016070474160704781607047C5
:100B5000C36823F002031A44C260816070470068D2
:100B600080B27047C26822F470621144C16070475D
:100B7000C26822F030021144C1607047C26822F09E
:100B8000C0021144C1607047C26822F008021144DB
:100B9000C160704710B5046D24F0FE04114401EBF0
:100BA00003112144016510BD026D22F0F00202EB39
:100BB000011101657047026D22F00C0211440165BC
:100BC0007047026D22F00202114401657047026D08
:100BD00022F00102114401657047C068000701D48A
:100BE0000020704708207047C068400701D40020EB
:100BF00070470120704710B54A88CB884C891A4449
:100C00000B8923441A448B8902EB8312CB891A4443
:100C10000B8A1A448B880BB102F500520B8800EB4B
:100C200083031A62488ACA8A1044898A01B1001D66
:100C3000186610BD0021018041808180C180018142
:100C400041818181C181018241828182C18270475B
:100C500000EB81000261704700EB81000267704782
:100C600010B500EB81000146046E24F00804234413
:100C700003660846026110BD10B500EB8100014615
:100C8000046E24F00804234403660846026710BD7E
:100C900000EB8100006980B2704700EB8100006FBB
:100CA00080B2704700EB81002030016812B141F43E
:100CB000807101E021F480710160704700EB8100D8
:100CC000016A21F4005111440162704700EB810078
:100CD000016A21F4805111440162704700EB8100E8
:100CE000016A21F4606111440162704700EB8100E8
:100CF000016A21F0C00101EB82110162704700EB33
:100D00008100016A21F0300111440162704700EB5B
:100D10008100016A21F00F0111440162704700EB6C
:100D20008100006A400401D4002070470120704710
:100D300000EB8100016E21F0030111440166704750
:100D400000EB81006030016812B141F0040101E064
:100D500021F004010160704710B5CA884B880C89E6
:100D600002EB03128B889B0003EB04331A444B897C
:100D700002EB83228B8902EB03220B8800EB8300BA
:100D800002630A8A4B8AC9891A4402EB0121016471
:100D900010BD002141808180C1800181418181811C
:100DA000C18101824182704710B5029C00EB810035
:100DB000016B21F01F01240104EB82021A4411444B
:100DC000016310BD00EB8100016B21F00C0101EB10
:100DD00082010163704700EB8100016B21F0030188
:100DE00011440163704700EB8100016B21F0100199
:100DF00001EB02110163704710B5029C00EB81000A
:100E0000016B21F4F851240304EB822202EB03224C
:100E10001144016310BD00EB8100016B21F44061BE
:100E200001EB82210163704700EB8100016B21F42B
:100E3000407101EB02210163704700EB8100016BFF
:100E400021F4805101EB02310163704710B5029C1F
:100E500003EB0222224400EB8100026410BD406DCE
:100E60007047406D084201D0012070470020704754
:100E7000426D8A4342657047C36D0AB10B4300E07F
:100E80008B43C3657047836D0AB10B4300E08B430E
:100E900083657047426D806D02400A400AB10120AF
:100EA00070470020704710B50F4B5A6A0F4CA04294
:100EB00005D122F0FF00084340F0807212E00C4C94
:100EC000A04206D122F47F4040EA012040F00072A7
:100ED00008E0084CA04205D122F47F0040EA01401E
:100EE00040F080625A6210BD0000024000000740DE
:100EF00000800740000008403B48002181600161FC
:100F00000122826101604160704737498A68436805
:100F10009B0602D542F0200201E022F020028A6006
:100F200000680860000A48607047002141600121A4
:100F3000016070472C4A916810B141F0800001E0D7
:100F400021F0800090607047274A916810B141F00D
:100F5000400001E021F040009060704722480069A5
:100F6000C00701D001207047002070471E488169EA
:100F700041F00101816170471B4A20F001000843E4
:100F80005061902090617047174948611020886136
:100F900070471548402181617047134940F0200097
:100FA000886170471048C068C0B270470E488169B8
:100FB000006941EA0020C14340EA0140704700B5A2
:100FC0000246FFF7F3FF824301D0002000BD01205D
:100FD00000BD00B50246FFF7E9FF104201D0012035
:100FE00000BD002000BD000000000540CD480021EC
:100FF000016041608160C160016141618269C269D3
:10100000016241628162C16270478268016843681F
:101010001144C26802EB037211440269114442692F
:101020008069114401EB4050BF4BBE490A689A43A6
:101030001044086070470021016041608160C16018
:101040000161416181617047B64A116821F0F07118
:1010500001EB40501060704730B5B2490A68B24B9E
:10106000DB1C1A40D0E900342344D0E9024504EBEC
:101070000514234444692344C4692344446A234433
:10108000846A03EB446313444A6822F40032046A1E
:1010900002EB44420B604A60028B0A61428B8A6019
:1010A0000069886230BD30B59E494A689F4B1A403E
:1010B000D0E900342344D0E9024504EB051423446D
:1010C00044692344C4692344046A03EB8443446AA7
:1010D0002344846A03EB44631A444A60028B4A61E6
:1010E000428BCA600069C86230BD00210160416066
:1010F0008160C1600161416101834183C16101621D
:10110000416281627047874A116810B141F0010065
:1011100001E021F0010010607047824A516810B16F
:1011200041F0010001E021F00100506070477D4A6C
:10113000116821F4F87101EB001010607047794AD2
:10114000516821F4F87101EB001050607047754947
:10115000886270477349C8627047724B1A6822F4FC
:10116000027208441044186070476E4B5A6822F4AB
:10117000027208441044586070476A4A116821F0AE
:101180000801084410607047664A516821F0080160
:10119000084450607047634A116821F400710844A4
:1011A000106070475F4A516821F400710844506034
:1011B000704710B55B4B1C6824F4806422441A60AD
:1011C0001861996010BD10B5564B5C6824F48064BA
:1011D00022445A605861D96010BD52490861704775
:1011E0005049486170474F49886070474D49C86011
:1011F00070474C48016841F002010160704749485E
:10120000416841F00201416070474648806970477B
:101210004448C06970474348016A406A01EB004096
:1012200070474048006A70473E48406A704700B5C2
:101230000246FFF7F0FF104201D0012000BD002060
:1012400000BD3849096A014201D0012070470020E1
:1012500070473449496A014201D00120704700209B
:1012600070473048016A21F00101016270472D4842
:10127000416A21F00101416270472A48016A21F068
:101280000201016270472748416A21F00201416270
:10129000704770B5234E336A756A84008004020C6F
:1012A00021B142EA030045EA144103E023EA0200C7
:1012B00025EA14413062716270BD1A4B1A6A11B18D
:1012C00042EA800001E022EA800018627047154B74
:1012D0005A6A11B142EA800001E022EA80005862B5
:1012E000704700B50246FFF796FF02EA9001014001
:1012F00009B1012000BD002000BD0A49096A00EAC9
:101300009100084008B1012070470020704705494E
:10131000496A00EA9100084008B1012070470020A6
:1013200070470000008008400000FFF10300FBF15F
:1013300000210163C16241609022826101624162C9
:10134000816202224263816381644FF440710163D0
:10135000704770B586B004460D4601A8FFF741F905
:1013600001986849896A684B01229C4205D101F0C5
:1013700007018A40B0FBF2F007E0644B9C4204D1C5
:10138000C1F302218A40B0FBF2F02A689108B0FB59
:10139000F1F3990903F03F03800003EB8116B0FBE2
:1013A000F6F0801AC001B0FBF2F0022802D900204A
:1013B00006B070BD6162A362E06AA988EA886B89A1
:1013C00011432A891A4311430143E162206B4FF60E
:1013D00080718843A989014321630120E8E74FF424
:1013E0001651016000218180C180018141814FF44B
:1013F00040718181704721B1016B41F001010163AE
:101400007047016B4FF6FE721140016370471AB1CD
:10141000826B0A4382637047826B8A4382637047A0
:10142000C06B814301D00020704701207047006CE1
:10143000084201D00120704700207047426C0A43E7
:101440004264704742EAC101416370471AB1826C3D
:101450000A4382647047826CC94389B20A4082643D
:101460007047C1F3080101607047006880B270479F
:1014700021B1C16A41F00101C1627047C16A4FF6F2
:10148000FE721143C162704730B585B004460D4607
:10149000042D08D16846FFF7A4F800984FF4E11135
:1014A000B0FBF1F02062206B2843206305B030BD13
:1014B00021B1016B41F0020101637047016B4FF6EE
:1014C000FD721143016370478069084201D0012019
:1014D00070470020704710B50A4B9A6A0A4CA04228
:1014E00005D142F0807020F0FF020A4308E0074C6B
:1014F000A04205D142F0007020F47F4040EA012272
:101500009A6210BD000002400000034000800340CA
:1015100010B583680268B3F1406F26D08469641EF9
:101520009B0E9C4022440A604269042A1FD0C26874
:10153000B2F1404F1FD083695B1E920F9340426807
:101540001A444A60D0E903231A43446A8368234358
:101550001A43036A1A43C3691A43836940695B1ECD
:1015600042EA031202438A6010BD0A60DCE7426867
:101570000C324A60E6E742684A60E3E771480021BE
:10158000416081604161491EC1614162C162416344
:10159000C1630121C164704729B16A49C96801EB7F
:1015A00000111046B4E7684901EB00111046AFE79F
:1015B00001EB00111046ABE770B58AB005460C464A
:1015C000604E6148B06021680091F16801EB05113F
:1015D00001914FF000610291090103914FF0085110
:1015E0000491042105916168890006914FF400413E
:1015F0000791A1680891E168099100EB051168461F
:10160000FFF786FF01207060607D0122AA4001285B
:1016100009D0F2617262B2627263207D012804D047
:10162000F2630AB070BDB261F4E7B263F9E770B576
:1016300006460C46434D4449A960206818B101EBA9
:101640000611FFF765FF606820B1E96801EB06113C
:10165000FFF75EFF01206860607B0122B240012835
:101660000AD0EA616A62AA62A07B38B12A63207B51
:10167000012805D0EA6370BDAA61F3E76A63F6E763
:10168000AA6370BD002101604160816001734173F4
:10169000817370470021016041608160C160016118
:1016A000017541757047012282402648012901D009
:1016B000C2627047826270470121814021484161C6
:1016C000704720490120C86470471E4A39B1D1686B
:1016D00001EB00108068C0F30910401C704791684E
:1016E00001EB0010F6E70122164B8240092926D2B1
:1016F000DFE801F02505090D1115191D21001868F5
:1017000000F001007047D86C00F001007047986A43
:101710001040C0B27047186A1040C0B270471869D4
:101720001040C0B2704798691040C0B27047186B43
:101730001040C0B27047986B1040C0B27047002094
:1017400070470000008002400004002008B5042219
:101750006946002001F012F84749009804226946C2
:1017600040F2FC7001F00AF8444A0099914201D01D
:1017700040F0020008BD1FB500F0F2F800F024F9B7
:1017800001F0CEF800F015FB00F039FB00F089FB0A
:1017900000F076F900F040FB00F079FA00F0E6FA8C
:1017A00000F04DFE00F045FF01253548E903002417
:1017B00001604FF0500000F068FC552000F068FC1C
:1017C00030480460446030480570CDE9005402940C
:1017D000002380222DA12F48039402F0A3FE0226AD
:1017E000CDE900640294002380222BA12D480394AC
:1017F00002F098FE009401940294002380222AA112
:101800002B48039402F08EFE0320CDE900040294DD
:101810000023802227A12A48039402F083FECDE909
:10182000006402940023802226A12748039402F03A
:1018300079FECDE900542E0202940023324623A102
:101840002548039402F06EFECDE900540294002373
:10185000324622A12448039402F064FECDE90054EC
:1018600002940023802221A12448039402F05AFE0E
:1018700003F03FF9FEE700005566778811223344F4
:1018800000E100E018000020040000204755492036
:10189000746F7000435C0008436F6E766572746508
:1018A00072000000532C000853657276696365006E
:1018B0006531000844697370617463686572000083
:1018C0000132000841444300353400085541525468
:1018D0003220525800000000B937000855415254D8
:1018E0003220545800000000ED3B0008536F756E25
:1018F000642064726976657200000000753D00081E
:10190000FE48FD4981600121416070472DE9F041A9
:1019100007460D46F94E0124BC40F462286820B108
:10192000F54901EB0711FFF7F3FD686820B1F16895
:1019300001EB0711FFF7ECFD687B01280AD0F46189
:101940007462A87B40B13463287B012806D0F4631D
:10195000BDE8F081B461F3E77463F5E7B463F7E7DA
:1019600010B50120FEF730FDFEF741FD012800D043
:10197000FEE707210220FEF79DFD0120FEF7B4FDE2
:10198000FEF7B5FD012800D0FEE70020FEF7C3FDFD
:101990000120FEF7A6FD4FF48070FEF7B9FC202071
:1019A000FEF7F8FD0020FEF7FCFD0120FEF701FE2A
:1019B000FEF75CFC0121D248FEF7A0FCBDE8104018
:1019C0000121D048FEF79ABC2DE9F041CE490868C4
:1019D0004FF6FF021040CD4A40F4407010430860BB
:1019E0006FF00407384600F0F9FBC94C2060BD10C9
:1019F000284600F0F3FB60606E10304600F0EEFB0E
:101A0000A060052000F0EAFBE0600F2000F0E6FB9C
:101A100020610621052000F0D5FB06210F2000F0F3
:101A2000D1FB384600F0DAFB2060284600F0D6FBF8
:101A30006060304600F0D2FBA060052000F0CEFBD5
:101A4000E0600F2000F0CAFB206181E710B56FF065
:101A5000040000F0C3FBAE4C20606FF0010000F00A
:101A6000BDFB60604FF0FF3000F0B8FBA0600520C8
:101A700000F0B4FBE0600F2000F0B0FB206110BD6F
:101A80002DE9FE4FDFF88CB25846FEF7F5FEA2486E
:101A9000FEF7F2FEA148FEF7EFFEA148FEF7ECFECE
:101AA000A048FEF7E9FEA048FEF7E6FEC0219A48EE
:101AB000FEF7C3FF6846FEF7A9FF2120ADF800003E
:101AC00001248DF80A4069465846FEF7DFFE4FF0C4
:101AD0000409ADF800908DF8034069465846FEF7BA
:101AE000D5FE0225ADF800508DF802408DF8094072
:101AF00069465846FEF7CAFE1820ADF800008DF87A
:101B0000085069465846FEF7C1FE6846FEF77EFF5C
:101B10004FF0800AADF800A08DF80A408DF809500A
:101B200003268DF808608DF8024069465846FEF796
:101B3000ADFE4027ADF800704FF000088DF8028030
:101B400069465846FEF7A2FE6846FEF75FFF40F280
:101B50003770ADF800008DF80A4069466E48FEF710
:101B600095FEA002ADF8000069466B48FEF78EFEB8
:101B7000C020ADF800008DF802408DF8094069469C
:101B80006548FEF783FE6846FEF740FFADF800901B
:101B90008DF80A408DF808508DF8094069465F4875
:101BA000FEF774FEADF800608DF8095069465B4899
:101BB000FEF76CFE6846FEF729FF9720ADF800009F
:101BC00069465748FEF762FE2820ADF800008DF800
:101BD0000A408DF808508DF809508DF8024069468A
:101BE0004F48FEF753FEADF800708DF8044069468B
:101BF0004B48FEF74BFE6846FEF708FF4520ADF860
:101C000000008DF80A408DF809508DF802406946B1
:101C10004448FEF73BFEADF800A08DF80860694629
:101C20004048FEF733FE0A20ADF800008DF808505A
:101C300069463C48FEF72AFE6846FEF7E7FE0C20A0
:101C4000ADF800008DF80A408DF809408DF802408B
:101C500069463548FEF71AFE6846FEF7D7FEADF82E
:101C600000508DF80A408DF809508DF808608DF805
:101C7000024069462C48FEF709FEADF800408DF899
:101C8000028069462848FEF701FEBDE8FE8F2DE977
:101C9000FF476846FFF7A3FBDFF890904846FFF741
:101CA00047FB4FF4E13600966027ADF8047000243E
:101CB000ADF80640ADF808404FF01008ADF80A80C6
:101CC000FD00ADF80C5000214846FFF704FC6946C2
:101CD0004846FFF73EFB01214846FFF78CFBDFF843
:101CE00050A05046FFF724FB0096ADF80470ADF805
:101CF0000640ADF808401DE00004002000800240CE
:101D00000000E023E0C413000CED00E00000FA0541
:101D10000008002000800A4000000B4000800B40BB
:101D200000000C4000800C4000800E40008003400A
:101D300000000340ADF80A80ADF80C500021504679
:101D4000FFF7C9FB69465046FFF703FB01215046E8
:101D5000FFF751FB022211465046FFF773FB0222A8
:101D600011464846FFF76EFBBDE8FF8770B5FFF7E9
:101D700005FCF8484FF0FF340462846186150121A8
:101D80003046FEF7BBFAF44D00212846FEF757FD1A
:101D900000216962F14841623046FEF7AFFAF04A2D
:101DA000C2F8FC41C2F8FC40FFF7AAFD2020D06732
:101DB00070BD1FB56846FEF7F9FCE84C00212046CF
:101DC000FEF73DFD0420ADF800000222ADF8022030
:101DD0000021ADF804100820ADF80600ADF8081099
:101DE000ADF80A10ADF80C10ADF80E20694620468B
:101DF000FEF7C9FC01212046FEF7E3FC1FBD1CB520
:101E00000120FFF797F84FF48070009000200190B8
:101E10006846FFF77AF81CBD30B593B0FFF7E6F8D7
:101E20000CA8FFF708F900240C940A200D904FF439
:101E300000300E9040000F90400010904000119034
:101E4000012512950CA8FFF7E0F801A8FFF74DF95E
:101E500004200190029403941F200490059406949A
:101E6000ADF81C40ADF81E40E802089009954FF40B
:101E7000E0400A900B9401A8FFF7EEF801A8FFF7E5
:101E800012F900210620FFF718FA00210620FFF7BB
:101E90001EFA0120FFF737F90120FFF73EF913B0D2
:101EA00030BD2DE9F04391B00BA8FEF734FE1F20A2
:101EB000ADF82E0040F2F310ADF83000A94E0BA99A
:101EC0003046FEF70DFE05A8FEF7B4FE0024ADF87F
:101ED00016404FF44068ADF81E800125ADF814504F
:101EE0004FF00809ADF8269005A93046FEF783FEAD
:101EF0006846FEF74EFFADF80240ADF80450ADF86D
:101F00000650ADF80840ADF80A50ADF80C50ADF8E9
:101F1000005069463046FEF71FFFF920706100212E
:101F20003046FEF7C0FF01213046FEF702FE0BA847
:101F3000FEF7F1FDADF82E5040F6FF70ADF8300021
:101F4000894F0BA93846FEF7CBFD05A8FEF772FEB8
:101F5000ADF81640ADF81E80ADF82690ADF81440EF
:101F600005A93846FEF747FE0226ADF8146005A91C
:101F70003846FEF740FE05A8FEF75CFEADF81640B9
:101F80006802ADF81E00ADF81450ADF8264005A962
:101F90003846FEF730FE6846FEF7FBFEADF8085007
:101FA000ADF80A60ADF80C50ADF80040694638460F
:101FB000FEF7D2FEADF8006069463846FEF7CCFE6B
:101FC0003C61BC617C61012291023846FEF75BFFF7
:101FD00000213846FEF767FF01213846FEF7A9FDCC
:101FE0000BA8FEF798FD0F20ADF82E006320ADF88A
:101FF00030005E4F0BA93846FEF772FD05A8FEF7CC
:1020000019FEADF81440ADF81640ADF81E80ADF8DD
:10201000269005A93846FEF7EEFD6846FEF7B9FEA4
:10202000ADF80040ADF80460ADF80240ADF80650E0
:1020300069463846FEF790FEADF8146005A93846AB
:10204000FEF7D9FDADF80060ADF80440ADF80640EC
:10205000ADF80A60ADF80850ADF80C506946384646
:10206000FEF77AFE3C61BC6100213846FEF71BFF9B
:1020700001213846FEF75DFD11B0BDE8F0833A4915
:1020800008617047384988617047384988617047EE
:10209000642800D9642035490861704710B500F004
:1020A0006DFC00287BD172B6002000F06DFC41F27F
:1020B000883000F04EFC04460020FFF7E9FF0020C6
:1020C000FFF7E3FF0020FFF7DAFF0020FFF7DAFF5A
:1020D000002005F0B8F8002005F096F8244805F037
:1020E000D9F901230A22002122A005F06AFA01236E
:1020F0000A2260211FA005F064FA204600F02EFCA1
:102100000028FAD100F04BFC002000F053FC002026
:1021100000F05BFC1A4800F0E1F94FF47A7000F02F
:1021200018FC0446204600F019FC0028FAD1154896
:10213000FEF7A2FB1448FEF79FFB1448FEF79CFB3A
:102140001348FEF799FB1348FEF796FB1248FEF77B
:1021500093FBFEE7008002400000044000000A40BC
:1021600084E000E0000007400080074000000840D5
:102170005CCE0008506F776572204F464600000025
:10218000E854002000800A4000000B4000800B4013
:1021900000000C4000800C4000800E40FFE710BDA6
:1021A000144902680A6042684A6082688A60C268AC
:1021B000CA6002690A6142694A6182698A61C069CA
:1021C000C861FEE74907090E002804DA0A4A00F050
:1021D0000F0081547047094A81547047002805DA7E
:1021E000054900F00F00405C400970470349405C1E
:1021F000400970473C08002014ED00E000E400E0D6
:102200007CB500F09DFB0546002001903C4C2178F8
:10221000A1B36168491E616009D10090394800236B
:1022200001AA6946006801F0E6FF19206060A16814
:10223000491EA16008D13548002301AA324900682F
:1022400001F0D9FF3220A060E168491EE16008D1A9
:102250003048002301AA2E49006801F0CCFF0A2073
:10226000E0602169491E216108D12C48002301AAA0
:102270002949006801F0BFFF05202061019818B1CD
:1022800027494FF080500860284600F05EFB1C494B
:1022900014310A68824200D208607CBD10B500F09B
:1022A0004FFB0446FFF7FAFE15494888401E00041C
:1022B000000C488003D10520488001F011F900F09E
:1022C0007EFE00F021FA174A506900F5486080B29E
:1022D0009168814201D29168401A50614FF4806147
:1022E0001046FEF7C5FD00F02BFB0146204600F02E
:1022F0002AFB034914314A68824200D2486010BD6B
:102300000400002008010020E09D0008500000208B
:10231000F89D00085C000020149E00088C0000203E
:1023200004ED00E00080074070B50446012901D1AA
:1023300044F480749A4D02212846FEF779FA012868
:10234000F9D121462846BDE87040FEF76CBA10B5B9
:1023500000F0FFFA0446204600F000FB0028FAD106
:1023600010BD10B58F4A012807D004211046FEF792
:102370006FFBBDE810401420E9E704211046FEF78A
:102380005CFBF6E770B50021E220FFF7CDFF0021EE
:102390003D20FFF7C9FF00210120FFF7C5FF002105
:1023A000E120FFF7C1FF00210846FFF7BDFF002134
:1023B0002420FFF7B9FF00219020FFF7B5FF00218F
:1023C000A020FFF7B1FF0021C820FFF7ADFF0021DB
:1023D000A620FFF7A9FF0021A420FFF7A5FF0021F9
:1023E0002F20FFF7A1FF00214020FFF79DFF0021D4
:1023F000F820FFF799FF0021D020FFF795FF00217B
:102400003020FFF791FF0021B020FFF78DFF002162
:102410001020FFF789FF00210846FFF785FF002401
:1024200040F25F3501210020FFF77EFF641CA4B25B
:10243000AC42F7D3BDE870400021AF2074E770B51F
:10244000584C01212046FEF703FB42F21075284646
:10245000FFF77DFF01212046FEF7EFFA2846FFF740
:1024600076FF0120FFF77DFFFFF78CFF4C4C10211A
:102470002046FEF7DDF90028F9D10220FFF771FFB1
:10248000FFF780FF10212046FEF7D2F90028F9D18E
:1024900070BD70B50D46FFF764FF0021B020FFF757
:1024A00043FF00211020FFF73FFF00210846FFF700
:1024B0003BFF00244FF4587635F814000121C0B2D8
:1024C000FFF732FF641CA4B2B442F5D3344C1021A0
:1024D0002046FEF7ADF90028F9D170BD2DE9F0478F
:1024E000064609270120FFF73CFF0021B020FFF737
:1024F0001BFF00211020FFF717FF00210846FFF700
:1025000013FF60244FF0000811E00025641EA4B200
:102510000121305DFFF708FF6D1CADB2602DF5D3D2
:1025200004F59074A4B208F1010808F0FF08B8455A
:10253000EBD3DFF86C9010214846FEF779F90028BC
:10254000F9D10220FFF70DFF0021B020FFF7ECFECC
:1025500000211020FFF7E8FE00210846FFF7E4FE07
:10256000C0244FF0000811E00025641EA4B2012130
:10257000305DFFF7D9FE6D1CADB2602DF5D304F5CB
:102580009074A4B208F1010808F0FF08B845EBD335
:1025900010214846FEF74CF90028F9D1BDE8F08734
:1025A00000000A4000800C4070B50024434D68686C
:1025B00020F0C00068600A2000F0CBF906464048D1
:1025C0000068810600D41024400701D444F48074CC
:1025D0002868C10701D144F00104810701D444F007
:1025E0000204410701D444F00404C10601D444F0BC
:1025F0000804800601D444F02004304600F0AEF90F
:102600000028FAD12868696841F0C00169600106B4
:1026100001D444F04004400601D444F08004294829
:10262000048070BD27480021801C41808180C180CA
:1026300070470020244A002122F81010401CC0B22C
:102640000928F9D3EEE72DE9F041FFF7ADFF1D486A
:10265000008820F00F05FFF7E5FF0020194C012747
:10266000194EA41C07FA00F18AB236F8101049047A
:10267000090C154201D041F0010101F00303012BC7
:1026800004D0022B06D0032B0ED106E0638813433F
:10269000638009E0A3881343A380C1F38803FF2B61
:1026A00002D1E3881343E38026F81010401CC0B227
:1026B0000928D7D32580BDE8F081000000000B4039
:1026C00000800A40200000207408002070B50446F5
:1026D0000C4DE00704D080212846FEF7B9F903E04D
:1026E00080212846FEF7A9F9A00705D52846BDE8B0
:1026F00070404021FEF7ACB92846BDE8704040214B
:10270000FEF79BB900000B401A4908788006000EBE
:102710000870194A1368DB0502D540F00100087003
:102720001068800503D5087840F00200087008782A
:1027300000F00F000F280CD2DFE800F00B0C080BA4
:10274000080B0B0C0C0B0B080B080C004888401EE8
:10275000488070474888401C4880704705498A88EF
:1027600048884FF6FC7318408880801A00B28010A9
:10277000C88070472A00002000000B402DE9F04778
:1027800007460D461446002607F4E060C00940F0F5
:10279000A0084FF080494846FEF71BFC0128FAD1FB
:1027A00000214046FEF7E8FB4FF0007A5046FEF766
:1027B00010FC0128FAD14FF000494846FEF709FC09
:1027C000012805D00126FEF7E4FB3046BDE8F0877E
:1027D000F8B2FEF7D9FB57463846FEF7FAFB012858
:1027E000FAD14846FEF7F5FB012801D00226EAE7B8
:1027F00001214046FEF7C0FB3846FEF7EAFB012800
:10280000FAD14846FEF7E5FB012812D00326DAE7A5
:102810001CB10020FEF7C1FB02E00820FEF7BDFB63
:102820003846FEF7D6FB0128FAD1FEF7BBFB05F8C8
:10283000010B2000A4F10104E4B2E9D1C3E72DE9C2
:10284000F04780460D461446002608F4E060C009B3
:1028500040F0A0074FF080494846FEF7BAFB012838
:10286000FAD100213846FEF787FB4FF00077384653
:10287000FEF7AFFB0128FAD14FF000494846FEF7BA
:10288000A8FB012804D00126FEF783FB30469DE714
:1028900008F0FF00FEF778FB3846FEF79AFB0128A8
:1028A000FAD14846FEF795FB012801D00226EBE756
:1028B0004FF400480DE02878FEF766FB6D1C3846A3
:1028C000FEF787FB0128FAD14046FEF782FB01287C
:1028D00005D02000A4F10104E4B2ECD1D4E7032632
:1028E000D2E710B54FF080442046FEF772FB012876
:1028F000FAD10021A020FEF73FFB4FF000742046E4
:10290000FEF767FB0128FAD1FEF743FB4FF00040CA
:10291000FEF75FFB012801D0002010BD012010BD93
:1029200011480168C9070AD1016841F0807101604E
:102930000E4800214160016841F0010101607047CB
:102940000A4840687047081A704708494968081AD9
:1029500070470649496801EB4010704703494968D0
:10296000081AC00F70470000FCED00E0001000E006
:102970001B48006840F30000401C7047194800687D
:1029800040F38020401C7047174A012803D00421DF
:102990001046FEF75DB804211046FEF74EB8124A05
:1029A000012803D008211046FEF752B8082110462E
:1029B000FEF743B80A4A012803D002211046FEF769
:1029C00047B802211046FEF738B8084A012803D05C
:1029D00040211046FEF73CB840211046FEF72DB8C6
:1029E00000800A4000000B4000800E4000800C4038
:1029F00030B50122FA4B9B691D7CEC0704D01C8981
:102A0000844201DB20460522AC0704D55C89844260
:102A100001DC204604229C88844202DB20460322FB
:102A200004E0DB88834201DC1846022201B10A700F
:102A300080B230BD30B50822E94B9B695B6B9D7B52
:102A4000EC0704D0DC88844201DB20460C22AC0772
:102A500004D51C89844201DC20460B225C88844218
:102A600002DB20460A2204E09B88834201DC1846F0
:102A7000092201B10A7080B230BD30B50546002090
:102A8000D74B9B699C898C4201DB21460120DC8964
:102A90008C4201DC21460120D14CA469247C25B163
:102AA000598162F341041C7430BD198162F3000442
:102AB0001C7430BD70B5CA4DA86940880524B0FBB0
:102AC000F4F0FFF7DCFAA869416B0888897B4907B5
:102AD00000D54008B0FBF4F0BDE87040FFF7D2BA73
:102AE0002DE9F041BF490A7842F0010222F00202CA
:102AF00042F004020A7001274F7041F288324A8086
:102B000000238B805200CA800B814A818B81CA814D
:102B10000A7C22F0010222F002020A7491F82020BD
:102B200022F004024FF47A654D828B8244F62064D1
:102B3000CC820B834C838B83CC8322F0010222F066
:102B4000020281F8202091F8302042F004064D84E2
:102B50008B846200CA840B854A858B85CA8526F0E2
:102B6000010222F0020281F8302001F112024A63D0
:102B70002632167826F0010626F0020646F00406F4
:102B80001670577042F6E06656809380D4801381A9
:102B900054819381D481167C26F0010626F002062A
:102BA000167492F8206026F004066F105782938204
:102BB000D482138354839383D48326F0010626F0B2
:102BC000020682F8206092F8306046F004065584D0
:102BD0009384D484138554859385D48526F001038A
:102BE00023F0020382F8303001F14A0353637C4C36
:102BF000C0B1A16172B6A0690078C0F30000FFF710
:102C0000CEFE62B6A069406B807BC0F38000FFF708
:102C1000D1FEA0690078C0F34000FFF7D6FEBDE802
:102C2000F04147E7A261E5E76D480178490706D51D
:102C30000421417041780029FCD110207047002008
:102C4000704767480621417041780029FCD1012076
:102C5000704786B000220C21052001F0DAF9604CA3
:102C6000E06118B9FEE7052001F0E1FDE0780028F9
:102C7000F9D00021E06901F09BF95B4DDFF86C9120
:102C80004FF4003708264FF009084FF0010A0023DF
:102C90005A1E03A9E06901F0FFFA0398072804D03F
:102CA00008285BD0092827D12BE002A90498FFF758
:102CB0009FFEA169488006206061494901230022E6
:102CC0001431286801F032FA9DF80800022814D067
:102CD000032812D0042812D0052810D04FF48030D9
:102CE0000090009840F03200009000231A46694698
:102CF000D9F8000001F01AFA69E00097F1E70097AF
:102D0000EFE702A90498FFF795FEA169496B0880D7
:102D1000072060613249012300221431286801F044
:102D200005FA9DF80800092814D00A2812D00B28AB
:102D300012D00C2810D04FF480300090009840F052
:102D40003200009000231A466946D9F8000001F0CD
:102D5000EDF93CE00097F1E70097EFE7BDF81200CE
:102D60000599C2B2BDF81000C0B2FFF786FE02900E
:102D70000B2060611A49012300221431286801F0F8
:102D8000D5F9A06900214088FFF732FEA16948808B
:102D9000062060611249012300221431286801F0E5
:102DA000C5F9FFF787FE9DF80800122820D01128EA
:102DB0001ED04FF480300090009840F03200009018
:102DC00000231A466946D9F8000001F0AFF92069DE
:102DD00000F00F0001280DD002281AD162E0000097
:102DE0003400002088080020080100208C0000200A
:102DF0000097E1E7039804280CD00398052818D021
:102E00000398062825D0039803283AD0039802286F
:102E10003AD0A0E0CC48A0616670C4F814800123C9
:102E20000022CA49286801F081F960780028FCD1A5
:102E300091E0C5483830A0616670C4F81480012361
:102E40000022C249286801F071F960780028FCD19D
:102E500081E0049801280FD0A06900F112014163BC
:102E60006670666101230022B849286801F05EF9A6
:102E700060780028FCD16EE0A06900F12201416376
:102E8000EEE7C4F810A066E02078C00663D420788E
:102E9000800660D584F801A060780028FCD102206B
:102EA000206158E00398032803D00398042804D035
:102EB0001DE0FFF7C6FE20614DE0DFF88CB2A0698F
:102EC000584514D0FFF7BDFE2061042001F0AFFC8F
:102ED000C4F818B06670C4F81480012300229B491E
:102EE000286801F023F960780028FCD133E00398CA
:102EF00005281BD1DFF850B2A0690BF1380B5845FB
:102F000014D0FFF79EFE2061042001F090FCC4F86D
:102F100018B06670C4F81480012300228B49286819
:102F200001F004F960780028FCD114E020788007D3
:102F300011D5C4F810A0FFF777FE2169084320617E
:102F4000C00608D58248009000231A466946D9F881
:102F5000000001F0EBF8039840B9CDF804A07D48DB
:102F600000231A4601A9006801F0E0F872B6A069D2
:102F70000078C0F30000FFF712FD62B6A069406B55
:102F8000807BC0F38000FFF715FD6F483830007874
:102F9000C0F34000FFF719FDA06902A9406B00884B
:102FA000FFF748FDA169496B0880A06902A9408824
:102FB000FFF71EFDA1694880FFF77CFD67E62DE95C
:102FC000F0410020614D143D29784FF4FA7611F05C
:102FD0000A0F01D0AE8005E0A98811B1491EA98071
:102FE00000E0012018B1FFF7C3FC044600E0002414
:102FF0003CB1E88808B1401EE880E888C82718B1CD
:1030000011E00520E880F8E7287820F0010028701A
:10301000287840F0060028702F81012300224E49B5
:10302000E86901F0E8F86878400703D5287820F0CF
:1030300004002870687880070CD52878800709D4A8
:10304000287820F001002870287840F002002870CD
:103050002F810DE06878C0070AD02878C00707D113
:10306000287820F002002870287840F001002870AD
:103070006878000701D5642068816878C00600D5AB
:103080006E81A878C00704D0287840F00800287026
:1030900006E0A878800703D5287820F0080028707B
:1030A00000206870A870287810F00A0F03D0002064
:1030B000FFF76AFC05E02878C00702D00120FFF77F
:1030C00063FC00202978C90702D0A98901B9012031
:1030D000012C02D02969C90601D540F00200FFF792
:1030E000F5FA012C0BD1E88948B91D4801230022CB
:1030F0001A49006801F07FF84FF47A70E881288956
:1031000030B1401E2881287840F01000287003E07C
:10311000287820F010002870688930B1401E68813E
:10312000287820F02000287003E0287840F0200064
:103130002870A88908B1401EA881E889002801D01C
:10314000401EE881BDE8F08188080020480000208A
:103150003400030074000020EC9D0008189E000855
:103160008C00002008B501F0E7FC00900220FDF77C
:10317000E6FF1C4CFA21684601F030FB00260025D2
:10318000FEF73DF8022001F052FBFEF741F8304413
:1031900086B26D1C0A2DF3D3304606F0D0FA124ADF
:1031A000124B06F0DFFA124A124B06F0DBFA00224D
:1031B000114B06F0EDF906F093FA00B220801928C1
:1031C00001DA322000E0400080B2FEF75EFF0A2004
:1031D00060600A48034900231A46091D006800F090
:1031E000A5FFC7E7540000209A9999999999B93F8A
:1031F00021B0726891EDCCBF00C06C400801002086
:1032000088B0002208210A2000F003FF824C2060D1
:10321000C8B1FA2001F00BFB042001904FF0010926
:10322000CDF808907D4D00231A4601A9286800F0CA
:103230007DFFFFF708FA7A4F3888800604D5012011
:10324000FFF74EFC03E0FEE70020FFF749FC75485E
:1032500080F80090642001F0EAFA4FF0030ACDF8FC
:1032600004A000231A4601A9286800F05FFF4FF46C
:10327000803000906C4800231A466946006800F0D0
:1032800055FF0021206800F093FE684E4FF00208C1
:103290004FF0000B604800235A1E06A9006800F09A
:1032A000FBFFCDF80CB00698092875D2DFE800F0D6
:1032B000058B8E91969BA9807500FFF7C4F9FFF7E7
:1032C0004DFA7888800608D50420039000231A461A
:1032D00003A9306800F02AFF0AE0B888800607D505
:1032E0000520039000231A4603A9306800F01EFF52
:1032F0007888010602D4B988C90508D5CDF80CA094
:1033000000231A4603A9306800F010FF0AE010F409
:10331000A07F07D0CDF80C8000231A4603A930689F
:1033200000F004FFCDF80CB0CDF8049001247888AB
:10333000204208D044F48030029000231A4601A9AC
:10334000286800F0F3FEB888204208D044F400302A
:10335000029000231A4601A9286800F0E7FEF888C9
:10336000204208D044F4A020029000231A4601A96C
:10337000286800F0DBFE6004040C002CD7D12C4838
:10338000B0F9000040B1CDF80480029000231A4645
:1033900001A9286800F0CAFE33E0CDF80490079830
:1033A000029000231A4601A9286800F0BFFE28E019
:1033B000CDF804800798029000231A4601A92868D6
:1033C00000F0B4FE1DE0CDF80C801AE0CDF80CA0A2
:1033D00017E0072003900798049012E0092003905B
:1033E000079804900DE0062003900798142803D056
:1033F0000798282803D004E0CDF810B001E0CDF8FC
:103400001090039800283FF445AF00231A4603A903
:10341000306800F08BFE3DE75C00002008010020D2
:1034200022000020370000208C00002050000020E7
:103430003000002008B500220421052000F0E9FD3D
:103440005E4C606180B103220021012000F0E1FDAB
:10345000A06120B100231A46194600F067FEA0695A
:1034600018B14FF0FF3531E0FEE7FEE70320207092
:1034700000232A461946A06900F00EFF2089800823
:1034800000EB800081B2A18060898008E0804C4A16
:103490001268526B927B520704D500EB800040000B
:1034A000E08002E000EB8000E080E08841434FF4E0
:1034B0007A7091FBF0F0E0600520206141483F49BF
:1034C00000231A461031006800F030FE00232A461F
:1034D0006946606900F0E0FE00980128F6D1C5E772
:1034E00070B5364C00222146607801250426C97843
:1034F000032838D005DC50B101280ED0022804D1B1
:103500002AE0102840D0112845D0627070BD207884
:10351000A0700028FAD0657070BDA07800F0050199
:10352000012908D081070DD520F00200A0701020DD
:103530006070628170BD20F00500A0700220607094
:10354000228170BD62702270A069BDE870400023C6
:103550001A46194600F04FBE0420FDF7E8FDE6705C
:103560000320607070BD042904D2FDF74EFE21894E
:1035700008442081E07828B1FDF73BFEE078401E4A
:10358000E07070BD657070BD0720FDF7D0FDE6707E
:103590001120607070BD042904D2FDF736FE6189E8
:1035A00008446081FDF725FEE07828B1FDF721FE93
:1035B000E078401EE07070BD657070BD6000002056
:1035C0004C0000200801002041604280002303805D
:1035D0004FF6FF7002E0521E21F81200002AFAD1C5
:1035E00070470388426832F813200A804FF6FF7153
:1035F0008A420ED00388426822F81310428801885C
:10360000521E914201DA491C00E000210180012094
:1036100070470020704730B58FB01446FA4A904288
:1036200001D1012500E003250190486802904FF088
:10363000406003904FF0804004904FF08850059018
:103640000122069248880790002008909104099171
:10365000C9000A9101A90B910C900D908DF83820AA
:103660008DF839008DF83A000BA9E8B2FEF74EF953
:10367000E64800EB051001682160416861608068E0
:10368000A0600FB030BD1FB5DF4A904201D10023CA
:1036900000E0022300220A6048608A604FF0404048
:1036A000C8600A61012048618A61CA6184040C62B1
:1036B00044054C620092019202928DF80C008DF844
:1036C0000D208DF80E206946D8B2FEF71FF91FBDF8
:1036D00010B50446CEA1204604F080FEA8B1CEA1CC
:1036E000204604F07BFE90B1CDA1204604F076FE8A
:1036F00078B1CEA1204604F071FE60B1CEA1204683
:1037000004F06CFE48B1002010BD012010BD08205F
:1037100010BD022010BD042010BD102010BD10B53A
:103720000446C8A1204604F059FED0B1C7A12046E6
:1037300004F054FEB8B1C6A1204604F04FFEA0B17B
:10374000C6A1204604F04AFE88B1C6A1204604F076
:1037500045FE70B1C5A1204604F040FE58B10020DE
:1037600010BD012010BD022010BD032010BD04209B
:1037700010BD052010BD062010BD1CB50446204616
:1037800004F06EFD01F0ADFA01900198002812D00E
:103790002146019804F040FD0220ADF80000B54834
:1037A00000231A466946006800F0C0FC002802D1D8
:1037B000019801F0DCFA1CBDBCB0002400250126F4
:1037C00001F0BAF90590AB48C822AB490830FFF7C1
:1037D000FBFEA8498C4FA94A08313846FFF71BFF6A
:1037E00001210846FDF75FFF012211463846FDF72B
:1037F0002DFE0DF1A008A1460127052105A800F026
:10380000EDFF7EE0BDF84C0010F4E06F79D1C0B25E
:10381000202806D00D280BD00A2809D0012E0DD063
:1038200015E02146641CA4B208F80190012613E0BB
:103830002146641CA4B208F801900DE0294614AB9F
:1038400008EB04026D1CADB243F82120002621468E
:10385000641CA4B208F801000D2803D00A2801D086
:10386000502C4ED1002D49D0CDF80C904FF48070E3
:10387000ADF8040082A1149804F0B0FD002849D0EE
:1038800080A1149804F0AAFD002845D07EA11498C8
:1038900004F0A4FD002842D07EA1149804F09EFDFF
:1038A00000284CD07EA1149804F098FD002856D032
:1038B00080A1149804F092FD002860D07EA1149895
:1038C00004F08CFD00287CD07FA1149804F086FDC4
:1038D00000286BD040F20110ADF80400039830B11D
:1038E0007E4800231A4603A9006800F01FFC6148C7
:1038F00000231A4601A9006800F018FC00240025E6
:1039000001265C4813A90830FFF76BFE00283FF43E
:1039100074AF77E70397E1E702200390DEE7022D1B
:1039200004D2ADF804706EA00290D7E70320039094
:1039300000221146159804F036FC0490CEE7022DC3
:1039400004D2ADF804706DA00290C7E70420039084
:1039500000221146159804F026FC0490BEE7022DC3
:1039600004D2ADF804706CA00290B7E70520039074
:1039700000221146159804F016FC0490AEE7032DC2
:1039800004D2ADF804706DA00290A7E71598FFF778
:10399000C6FE04465CB11698FFF79AFE60B1082196
:1039A000039140EA0440049098E70AE019E0ADF87A
:1039B00004706BA0029091E7ADF804706EA00290C5
:1039C0008CE7022D04D2ADF8047071A0029085E757
:1039D0000720039000221146159804F0ACFB0490D8
:1039E0007CE7734C73A106A8226804F07BFA06A852
:1039F000FFF7C3FE76A106A8626804F073FA06A872
:103A0000FFF7BBFE6AE7000000000340000400204F
:103A100062746E5F6573630062746E5F6F6B00004B
:103A200062746E5F6C6566740000000062746E5FA5
:103A3000726967687400000062746E5F656E636F20
:103A400064657200646F776E00000000757000009E
:103A500075705F73686F72740000000075705F6C42
:103A60006F6E6700686F6C640000000072657065BF
:103A7000617400007C0000205C090020EC0A00203A
:103A80006F6E00006F6666007365745F766F6C74AE
:103A9000616765007365745F63757272656E74004B
:103AA0007365745F63757272656E745F6C696D695E
:103AB000740000006B657900656E636F6465725F0A
:103AC00064656C74610000006765745F74696D659E
:103AD0005F70726F66696C696E6700005C00002041
:103AE0004552523A206D697373696E67206172673F
:103AF000756D656E74205B6D565D0D004552523AD2
:103B0000206D697373696E6720617267756D656E8C
:103B100074205B6D415D0D004552523A206D697312
:103B200073696E6720617267756D656E74202832E7
:103B3000302F3430295B415D0D0000004552523A70
:103B4000206D697373696E67206B657920636F6D93
:103B50006D616E6420617267756D656E74730D00C2
:103B60004552523A20756E6B6E6F776E206B657999
:103B700020636F64650D00004552523A20756E6BEC
:103B80006E6F776E206B657920747970650D00001B
:103B90004552523A206D697373696E67206172678E
:103BA000756D656E74205B7469636B735D0D0000E9
:103BB000180000205379737469636B20686F6F6B12
:103BC000206D6178207469636B733A2025640D0061
:103BD00054696D65723220495352206D61782074AA
:103BE00069636B733A2025640D0000008CB0DFF828
:103BF000309169464846FFF746FD002208210A2019
:103C000000F007FA474E3060B8B3032200210120CC
:103C100000F0FFF9706020B100231A46194600F049
:103C200085FA706850B300231A46194600F034FB39
:103C30004FF000584FF0FF3700233A460AA930688A
:103C400000F02AFBBDF8280001281AD0022818D05D
:103C5000B0F5807F17D0344C204604F001FB0546B8
:103C6000444513D2642D00D964252A4621462F48A5
:103C700004F089FB2D48009009E000E000E0FEE739
:103C8000FEE70B9CE8E7284C241FE5E70094069527
:103C900000216A460846FDF77FFC01210020FDF760
:103CA00002FD012202214846FDF7D0FB00233A46DF
:103CB0001946706800F0F0FABDF828000228BBD160
:103CC0000B9801F054F8B7E738B500200090184C75
:103CD000A06AC0070ED11248816C89070AD5816C91
:103CE00021F0020181640F4800236A4619464068AA
:103CF00000F081FAA06A800709D40E480E490A68CC
:103D000002614A684261896881610220A0620221E1
:103D10000020FDF7E8FC012801D1FDF7D2FC38BDF9
:103D2000000003407C000020049E0008F8080020EA
:103D30000080024000040020EC0A0020052800D387
:103D40000020474951F8200070474649421E8A60CA
:103D5000400848617047434A516B40F60C43994311
:103D600018B140F60800014302E040F2044001436C
:103D7000516370470EB500200190804683460022B3
:103D800004210A2000F045F93549091F086080BB6D
:103D9000FEE788B2090C404554D98046019151E0B4
:103DA000D84500D901244FF0000A062C40D2DFE8A4
:103DB00004F03F030C1A23370198FFF7BFFF814639
:103DC0000224C3464FF0000839E0D9F804000090FF
:103DD00099F800700098384303D009F108090324CA
:103DE0002DE000242BE02FB17F1EBFB2009E0424E3
:103DF00025E027E0022422E03088758855EA00019A
:103E000007D0361D38B1FFF7A0FF0120FFF7A3FF51
:103E100004E0032413E00020FFF79DFF05240EE0DB
:103E200025B16D1EADB24FF0010A08E0042406E092
:103E30004FF0000B0020FFF78EFF4FF0010ABAF1A0
:103E4000000FB2D006480023001F5A1E02A90068C6
:103E500000F022FA029911F5803FA1D099E7000005
:103E60009000002000000740FCF7CAF9FEE7A0F12F
:103E700020004FF08073C36181612849416140F89F
:103E8000202970474FF0E0204FF6FF1141610721D4
:103E90000161704710B52248016841F47F0101605B
:103EA000016841F07F410160FFF7ECFF1D490020F0
:103EB0000860FCF77DF9002010BD704718494FF0ED
:103EC00080501C390860BFF34F8FBFF36F8F70476E
:103ED00010B5FCF795F913480168491C0160BFF360
:103EE0004F8FBFF36F8F10BD0E490868401E0860EA
:103EF000002801D1FCF78BB9704710B5FCF780F9A9
:103F000000F09BFB20B106494FF080501C3908603F
:103F1000BDE810400020FCF77AB90000693E0008B7
:103F200020ED00E0A400002000F1080141604FF006
:103F3000FF328260C1600161002101607047002191
:103F40000161704742684A6093688B60936859606A
:103F5000916008610168491C0160704730B50C68C8
:103F6000621C02D000F1080202E0026904E01A4675
:103F700053681D68A542FAD953684B6099608A60FE
:103F8000516008610168491C016030BDD0E9012120
:103F90009160D0E90112516001694A68824201D101
:103FA00082684A60002202610868401E086070470B
:103FB00070B504460D46FFF78BFFD4E90F12206859
:103FC00001FB020060600020A0632068A060E06B3D
:103FD000226C2168401E00FB0210E0604FF0FF30B1
:103FE0006064A06404F110004DB1FFF79DFF04F17F
:103FF0002400FFF799FFFFF777FF012070BD2169CB
:104000000029F8D000F0C7FD0128F4D1FFF756FFD2
:10401000F1E72DE9F04105460F460026B5B14C20E9
:1040200000F05FFE04468CB105FB07F0401C00F079
:1040300058FE206038B1E563276401212046FFF770
:10404000B7FF264602E0204600F091FE3046BDE86C
:10405000F08170B50446FFF73BFF04F124050AE048
:10406000606A58B1284600F096FD08B100F0EAFDFC
:10407000A06C401EA064A06C0028F1DC4FF0FF355E
:10408000A564FFF731FFFFF723FF04F110060AE0F4
:10409000206958B1304600F07EFD08B100F0D2FD35
:1040A000606C401E6064606C0028F1DC6564BDE8F3
:1040B0007040FFF719BF10B50446FFF709FFA06B6A
:1040C000E16B884201D1012400E00024FFF70CFFDE
:1040D000204610BD70B504461546226C12B37DB162
:1040E000E06804F0DCF8E168206C091AE1602268FD
:1040F000914202D26168081AE060022D0DD011E0F1
:10410000A06804F0CCF8216CA0680844A060616845
:10411000884207D32068A06004E0A06B10B1A06BB8
:10412000401EA063A06B401CA06370BD2DE9FF4141
:1041300082B0044688461F4600250026FFF7C8FEC9
:10414000A06BE16B884205D3022F03D00498A8B17D
:10415000C5B11BE03A4641462046FFF7BBFF606A07
:1041600038B104F1240000F016FD012801D1FFF759
:10417000A5FEFFF7B9FE012006B068E7FFF7B4FE21
:104180000020F9E7684600F032FD0125FFF7ACFE9C
:1041900000F01FFBFFF79CFE606C401C00D16664C2
:1041A000A06C401C00D1A664FFF79EFE04A96846DF
:1041B00000F023FD30B12046FFF74BFF00F0A4FADA
:1041C0000020D9E72046FFF776FF70B104F1100018
:1041D000049900F0C6FC2046FFF73BFF00F094FA7C
:1041E0000028ABD1FFF76AFEA8E72046FFF731FFB2
:1041F00000F08AFAA2E72DE9F04104460F46154681
:104200001E46FBF7FDFF8046A06BE16B884207D39B
:10421000022E05D000244046FBF7F9FF204616E7A2
:10422000324639462046FFF755FFA06C401C04D0AB
:10423000A06C401CA0640124EDE7606A0028FAD05D
:1042400004F1240000F0A7FC0028F4D0002DF2D0E7
:1042500001202860EFE710B50446FFF739FEA06B98
:1042600020B10024FFF740FE204610BD0124F9E7ED
:1042700030B40C460368002B0CD0026CC1681144AA
:10428000C1604568A94200D3C360C168204630BC04
:1042900004F005B830BC70472DE9FF4182B00446F8
:1042A00088461F4600250026FFF712FEA06B10B3BC
:1042B000E56841462046FFF7DBFF6FB1E560606AC5
:1042C00030B104F1240000F066FC08B1FFF7F6FD00
:1042D000FFF70AFE01204FE7A06B401EA063206994
:1042E0000028F5D004F1100000F055FC0128EFD1B2
:1042F000FFF7E4FDECE7049808B125B107E0FFF70C
:10430000F3FD002038E7684600F071FC0125FFF757
:10431000EBFD00F05EFAFFF7DBFD606C401C00D1A6
:104320006664A06C401C00D1A664FFF7DDFD04A903
:10433000684600F062FC30B12046FFF78AFE00F0CC
:10434000E3F9002018E72046FFF785FF70B104F17C
:104350002400049900F005FC2046FFF77AFE00F0E7
:10436000D3F90028A0D1FFF7A9FD9DE72046FFF76C
:1043700070FE00F0C9F997E72DE9F04104460F46B9
:104380001546FBF73DFF0646A06BE0B139462046D7
:10439000FFF76EFFA06B401EA063606C401C04D052
:1043A000606C401C606401240EE020690028FAD093
:1043B00004F1100000F0EFFB0028F4D0002DF2D043
:1043C00001202860EFE700243046FBF720FF20465D
:1043D0003DE62DE9F04104460F46FBF711FF064686
:1043E000A06B38B1E56839462046FFF741FFE5602C
:1043F000012400E000243046FBF709FF204626E6B2
:1044000010B50446FFF764FDA46BFFF76DFD204671
:1044100010BD10B50446FFF75BFDD4E90E10441A39
:10442000FFF762FD204610BD806B704710B5044653
:10443000206800F09CFC2046BDE8104000F097BCCE
:10444000806B08B10020704701207047816BC06B02
:10445000814201D1012070470020704770B50024CF
:10446000FE4D04EB840005EB8000FFF75DFD641C4E
:10447000052CF6D3F9486430FFF756FDF74878303D
:10448000FFF752FDF5488C30FFF74EFDF348A030A2
:10449000FFF74AFDF148B430FFF746FDEF49F04819
:1044A000643101631431416370BD70B50446154633
:1044B0000023E218C85C82F83400C85C10B15B1CB1
:1044C000102BF6D3002084F84300052D00D30425DB
:1044D000E562201DFFF733FD04F11800FFF72FFD03
:1044E0002461C5F10500A061646270BD70B5064627
:1044F0000D46442000F0F5FB044644B1B60045B13A
:104500002846206348B1A522314603F00DFF20461E
:1045100070BD304600F0E5FBF3E7204600F027FCD5
:104520000024F4E72DE9FF4F81B08246DDE90E68F3
:10453000109917469B463846FFF7D8FF0446C84DEA
:10454000F4B3216B781E01EB800020F0070900977F
:1045500032462046119B0299FFF7A7FF5A46514663
:104560004846FFF784FC2060B8F1000F01D0C8F87E
:104570000040FFF7ADFCA868401CA860286810B197
:10458000686938B10BE02C60A868012807D1FFF7F3
:1045900065FF04E02868C06AB04200D82C60A86AB1
:1045A000401CA862E06A2969884200D92861AB49A9
:1045B00000EB800001EB8000211DFFF7C3FC00E051
:1045C00003E00124FFF790FC01E04FF0FF34012CE1
:1045D00007D1686928B12868C06AB04201D2FFF7E4
:1045E0006DFC05B02046BDE8F08F70B50446FFF7BE
:1045F0006FFC9B4D04B92C68201DFFF7C7FCA06A17
:1046000018B104F11800FFF7C1FC9448211DA03037
:10461000FFF798FC6868401C6860A86A401CA862A4
:10462000FFF762FC6869002806D02868844203D13D
:10463000BDE87040FFF742BC70BD2DE9F047002592
:10464000874FB86950B1F869401CF861FDF7D8FD93
:10465000386A00B101252846BDE8F087F868401C9B
:10466000F860FE684FF0FF3976B9386B796B3963C3
:104670007863786A401C7862386B0068A0B1386B48
:10468000C068C0684068F862F86ADFF8D081864286
:104690000FD3386B006850B1386BC068C46860686D
:1046A000864215D2F86204E0C7F82C90ECE7C7F810
:1046B0002C903868C06A00EB800058F82000012870
:1046C00000D90125F8690028C2D1FDF799FDBFE79F
:1046D000201DFFF75BFCA06A18B104F11800FFF77A
:1046E00055FCE06A3969884200D9386100EB8000E6
:1046F00008EB8000211DFFF725FCE06A3968C96AD4
:104700008842C6D30125C4E72DE9F0410027FFF711
:10471000DFFB534DA869401EA861A869D8BBA868F3
:10472000C8B3DFF83881012608F18C081CE0D8F8FE
:104730000C00C46804F11800FFF728FC201DFFF7E7
:1047400025FCE06A2969884200D92861434900EBC9
:10475000800001EB8000211DFFF7F4FBE06A29686F
:10476000C96A884200D32E62D8F800000028DED142
:10477000E86938B909E0FFF760FF00B12E62E86927
:10478000401EE861E8690028F5D1286A012802D1B5
:104790000127FFF793FBFFF7A7FB3846BDE8F08141
:1047A00070B504462E4D28684460E868844206D2FD
:1047B0002968686B091DBDE87040FFF7CFBB296809
:1047C000286B091DFFF7CAFBE86A844200D2EC623D
:1047D00070BD23488169491C8161704770B50546E9
:1047E0000C460022FFF7F5FF1D4EF0682B681C44B5
:1047F000834205D9A34208D9844206D9012204E0A4
:10480000A34201D8844200D901222C6032B1306821
:10481000001DFFF7BBFB2046FFF7C2FFFFF774FF49
:10482000002803D1BDE87040FFF748BB70BD10B54C
:10483000024600206AB1FFF7CCFF0948C1688C1816
:104840000068001DFFF7A2FB2046FFF7A9FFFFF756
:104850005BFF002808D1BDE8104003E0F80A002003
:10486000A8000020FFF72ABB10BD10B50446FFF7D3
:104870002FFB0CB9F5480468E46AFFF735FB2046C6
:1048800010BD2DE9F04104460D460026052D00D34C
:104890000425FFF71DFBED4F04B93C68E06AA84210
:1048A0002DD0854208D939688C4209D03968C96A47
:1048B000A94205D8012603E039688C4200D10126BF
:1048C000E562C5F10501A161E14D00EB8000616980
:1048D00005EB800081420ED1201DFFF757FBE06AF7
:1048E0003969884200D9386100EB800005EB80000F
:1048F000211DFFF727FB012E01D1FFF7DFFABDE8ED
:10490000F041FFF7F1BAD149886910B1012008627E
:10491000704700200862CE4A02E00869401E086124
:10492000086900EB800052F820000028F5D00869E3
:1049300000EB800002EB800042685268426000F1A8
:1049400008039A4201D1526842604068C06808601A
:10495000704770B50446FFF7BBFABC4D04B92C682C
:10496000201DFFF713FBA06A18B104F11800FFF730
:104970000DFBB748211DB430FFF7E4FAFFF7B4FA96
:10498000286884420DD1686918B1BDE87040FFF70E
:1049900095BAAF48A968B4300068884202D10020B7
:1049A000286070BDBDE87040ADE70021A84B4269AA
:1049B000B4339A4206D1806AA3F12802904201D012
:1049C00000B901210846704770B50446002C25D077
:1049D0009E4D2868844221D0FFF77AFA2046FFF7DF
:1049E000E4FF012816D1201DFFF7D0FAE06A2969FB
:1049F000884200D92861964900EB800001EB8000D5
:104A0000211DFFF79FFAE06A2968C96A884201D32D
:104A1000FFF754FABDE87040FFF766BA70BD2DE9A4
:104A2000F04104460025FBF7EBFB07462046FFF765
:104A3000BCFF012808D1854EB06950B1844804F10B
:104A400018018C30FFF77EFA3846FBF7E0FB28466A
:104A5000A4E6E06A3168C96A884200D30125201DB6
:104A6000FFF794FAE06A3169884200D930617849E9
:104A700000EB800001EB8000211DFFF763FAE3E704
:104A800010B50446206B00F072F92046BDE81040D6
:104A900000F06DB970B56E4E6C4DA0361CE0FFF79E
:104AA00098FE306820B10024FFF72EFEA4B901E083
:104AB0000124F9E7FFF70CFAF068C468201DFFF73E
:104AC00065FAA868401EA8606868401E6860FFF725
:104AD0000BFA2046FFF7D4FF68680028DFD170BDCD
:104AE0005B4CFFF7D7FF20680128FAD9FFF7E6F9FA
:104AF000F7E71FB500240094019402942346802216
:104B000054A156480394FFF70DFD012809D1FBF786
:104B100077FB4E4801214161C460BDE81F40FFF7AB
:104B2000B9B91FBD10B5FBF76BFB484900204861C0
:104B3000BDE81040FFF7C1B910B5FFF7C9F9434808
:104B4000C468FFF7D1F9204610BD10B5FBF758FB3C
:104B50003E49CC68FBF75BFB204610BD3B488068B4
:104B6000704770B50D46394C21681831FFF7F6F9DA
:104B70002068001DFFF70AFA681C04D0E06828448A
:104B8000BDE870400CE62168BDE870403048091D62
:104B9000B430FFF7D7B970B5C068C46804F1180025
:104BA0000646FFF7F3F9294DAA696AB1284831464C
:104BB0008C30FFF7C7F9E06A2968C96A884214D3C4
:104BC00001200121296270BD201DFFF7DFF9E06A95
:104BD0002969884200D928611D4900EB800001EB5A
:104BE0008000211DFFF7AEF9E5E7002070BD1749F1
:104BF0004A6A0260C9684160704770B504460D4654
:104C0000FFF766F91149C8682A68531C08D0236861
:104C1000496A8B4206D06168814203D801240DE0C5
:104C200000240BE06168401A904206D2101A2860F6
:104C30002046FFF7DCFF002400E00124FFF754F9D1
:104C4000204670BD0149012008627047A80000207D
:104C5000F80A002049444C4500000000E14A0008E1
:104C600030B5544900E011460A688242FBD34B68D4
:104C70005C18844203D140681844486008460D68B7
:104C800044682318AB420DD14A4B0C3B1B689A4237
:104C900006D05268224442600A681268026002E04C
:104CA000036000E00260814200D0086030BD4248ED
:104CB00020F007013F4801600023436044F2F830D0
:104CC000084408383B4A0C3A10604360036044F2E1
:104CD000F0334B600860506808385060D806906028
:104CE00070472DE9F04105460026FFF772FD314F70
:104CF0000C3F386808B9FFF7DAFFB868054231D1D0
:104D00003DB10835680704D005F00700C0F1080080
:104D100005443DB37868854224D82649084604688E
:104D200001E0214604466068A84202D220680028BB
:104D3000F7D13868844215D00E68083620680860BC
:104D40006068411B102904D9601941606560FFF754
:104D500087FF60687968091A7960B96808436060FC
:104D600000202060FFF7D0FC3046BDE8F08170B530
:104D7000002819D0083804460E4D60680C3DA9681B
:104D8000084211D02268002A0ED188436060FFF7E4
:104D900020FD60686968084468602046FFF760FF8E
:104DA000BDE87040FFF7B0BC70BD02480C384068E9
:104DB00070477047EC000020C80B0020F7B582B0A8
:104DC0006E4C9DF80C006C4E217A6D4D092819D05F
:104DD00004DC01282AD0022814D108E09DF80D2017
:104DE0000B2874D0F0280ED0F128F5D113E041F053
:104DF000100040F0400040F08000207201215F4828
:104E000001F0CBFB94E05F495B4801F031F85A4870
:104E100001F0D0FA8CE00AB1012000E002202A78EB
:104E20001043287041F04000207281E0002002F021
:104E3000EBF9207A4FF00007000636D5708AC0B231
:104E4000CDE90007308AC3B24F480088C2B24F484C
:104E50000088C1B2002002F0A3FA4D4802F01AFB0C
:104E6000012302221C214BA002F0ABFB01230F22E5
:104E700008214AA002F0A5FB0123022265214BA0D4
:104E800002F09FFB4C4802F005FB01230F226A2130
:104E90004AA002F096FB01202421CDE900106023F6
:104EA0001B221946484802F07BFA484802F0F2FA01
:104EB000287800F00300012802D0022808D00DE075
:104EC00001233722052142A002F07BFB06E00FE020
:104ED00001233722052141A002F073FB2F70607A75
:104EE00020F001006072207A20F0400020721FE064
:104EF000052A1DD1BDF80E00012819D1307AC0064F
:104F00000BD500211C4801F012FB0121364801F0AD
:104F10000EFB354801F04EFA0AE00021324801F05C
:104F200006FB0121144801F002FB134801F042FA8C
:104F300005B00120F0BD10B50021104801F0B1FC12
:104F40000E482A494161022180F820100C49091DB0
:104F50004162094A0A60244A4A6000218181C18174
:104F6000C02101824421418200F093F9BDE8104044
:104F7000024800F096BC0000EC510020C04F002019
:104F8000F4000020D49E00081E0100201C01002017
:104F90005CCE00085053323030000000506F77650F
:104FA0007220737570706C79000000004D445233AC
:104FB000324639517800000088B30008706F776579
:104FC00072656420627900004CD40008E8A40008EF
:104FD000454550524F4D204F4B0000004545505223
:104FE0004F4D204641494C0038520020BD4D00082D
:104FF00010B5FE49884207D1886A00EB8000400462
:10500000000C00F0ECFE0AE0F8494831884206D175
:10501000886A00EB80004004000C00F0F9FE0020DC
:1050200010BD2DE9FC4104464FF00106607A4FF0B7
:105030000C05C0074FF000071CD0EC48844219D182
:10504000207A00070BD5022002F0DEF8CDE90056E9
:10505000062327225821E64802F0A2F90AE001209F
:1050600002F0D2F8CDE90057062327225821E04864
:1050700002F096F9607AC0071DD0DC4848308442BF
:1050800019D1207A00070BD5022002F0BDF8CDE936
:10509000005606232722B821D54802F081F90AE0FC
:1050A000012002F0B1F8CDE9005706232722B821EC
:1050B000CF4802F075F90020BDE8FC8137B5012426
:1050C0009DF804100C2906D0DDE9011201F0FFFC67
:1050D000044620463EBD90F82410090705D5DDE9B9
:1050E000011201F0F4FC0446F3E740218DF80410AE
:1050F00001A900F0BDFEECE710B5012408780C28EA
:1051000002D00024204610BDB1F90220002A04DAA2
:105110004FF0000000F086FEF4E7F3DD4FF00100F1
:1051200000F080FEEEE71CB5417AC90721D0AF49F7
:10513000483988421DD1007A4FF00C0400070CD585
:10514000022002F061F80120CDE900400623382258
:105150008021A74802F024F90BE0012002F054F866
:105160000020CDE90040062338228021A04802F02B
:1051700017F900201CBDF7B5064601259DF804105F
:10518000012904D0092947D00B297AD152E0974848
:10519000A03002F015FB954CA034207A000632D5E1
:1051A000002002F031F8102002F047F80123C0225D
:1051B0003721002002F070F801230D223821302021
:1051C00002F0B9F801230D2238218A2002F0B3F849
:1051D000884802F05FF901232922022186A002F00B
:1051E000F0F9012329224B2185A002F0EAF90123DD
:1051F0002922622180A002F0E4F901232922AB21B7
:1052000080A002F0DEF9607A20F001006072207A5E
:1052100020F0400020723AE0DDE90112304601F052
:10522000ADFA0546012D32D170480121A03001F0C0
:10523000F9F82CE09DF80520BDF80610012A01D1EF
:10524000012924D0012A1CD107291AD167484FF01F
:105250004004007A00070BD56448483001F0AAF8F2
:105260008DF80440614801A9483000F001FE08E0D3
:105270005E4801F09FF88DF8044001A95B4800F0FA
:10528000F7FDDDE90112304601F078FA05462846BF
:10529000FEBD2DE9F05F01465448A03001F001FB4E
:1052A00052495948A0314861082081F8200001F195
:1052B0002C0048622C31A0F50B7008603830486033
:1052C000383088603830C8603830086100F13806FE
:1052D00008464661454C8461A0F18405C561002003
:1052E0002C398881C881C020088244204882084621
:1052F000407A20F002004872084690F8280020F01A
:10530000010081F82800A1F5007001F0E7FCA4F588
:10531000B071012088810020C8815E200882202091
:105320004882062081F8280001F12C0008623748E5
:10533000486201F50071A1F5E47001F0CFFCA4F51D
:1053400094704FF06109A0F80C90A4F594710020BE
:10535000C8815E20088220204882062081F828002B
:1053600001F12C0008622948486201F5E471A1F5B9
:10537000C87001F0B3FCA4F1F0018D2088813920C0
:10538000C881322008820B204882062081F828003C
:1053900001F12C0008621748486201F5C871A1F5B7
:1053A000AC7001F09BFCA4F1B80137208881392052
:1053B000C881282008820B2048820846052780F8EB
:1053C00028702C3008620B48486201F5AC71A1F5D9
:1053D000907001F083FCA4F18001012088813920C4
:1053E000C8814FF02D08084612E000004C51002003
:1053F00040D400085CCE00085345543A0000000039
:1054000056000000410000007751000800D4000859
:10541000A0F810800B204882084680F828702C30B5
:105420000862A848486201F59071304601F056FCC8
:10543000A6F80C903920F081192030820B20708260
:1054400086F82870A4F11C0030629E487062307AA1
:1054500040F0010030720D20F072707A20F00200EE
:105460007072A4F1100001210170974941600C2174
:1054700001729649C16002273776F06100F1B001F0
:10548000103001F0C7FB04F10804DFF84492C4F8BF
:105490000C904FF01E00A0804FF0210AA4F806A047
:1054A000A4F808804FF0150BA4F80AB04FF00000E4
:1054B00084F83D004FF0010084F83E004FF00B00EF
:1054C000E070844EA661E777A7774FF0030060771E
:1054D000207F40F01000207741F20400A0624FF0DE
:1054E0000000E062607820F00200607005F1580171
:1054F000284601F08FFB05F10805C5F80C904FF028
:105500007E00A880A5F806A0A5F80880A5F80AB036
:105510004FF0000085F83D004FF0010085F83E0097
:105520004FF00C00E870AE61EF77AF774FF00300FB
:105530006877287F40F01000287741F20400A862C5
:105540004FF00000E862687820F00200687062485E
:105550004FF001010170614941604FF0C1010172DA
:105560005F49C160277460612F746861BDE8F09F76
:1055700070B504F0CDFB5B4904F008FB04F0DAFAE7
:10558000594C02460B46256A58A1284602F0AAFC4F
:1055900094F8290040F0020084F82900207A40F0B5
:1055A0004000207270BD0A21B0FBF1F14A48002290
:1055B000903801F0BAB970B504F0AAFB494904F07B
:1055C000E5FA04F0B7FA484C024638340B46256A2F
:1055D00048A1284602F086FC94F8290040F0020019
:1055E00084F82900207A40F04000207270BD0A2122
:1055F000B0FBF1F138480022483801F096B970B597
:1056000004F086FB374904F0C1FA04F093FA364CF3
:10561000024670340B46256A38A1284602F062FC27
:1056200094F8290040F0020084F82900207A40F024
:105630004000207270BD10B502462B4CB023A83438
:1056400030A1206A02F04EFC94F8290040F00200DC
:1056500084F82900207A40F04000207210BD10B577
:10566000214C0146E0340129206A0DD027A102F027
:1056700039FC94F8290040F0020084F82900207ACF
:1056800040F04000207210BD22A102F02BFCF0E798
:1056900010B5114C0100A4F1D804206A0DD01FA14F
:1056A00002F020FC94F8290040F0020084F8290060
:1056B000207A40F04000207210BD19A102F012FCC7
:1056C000F0E700005CCE000827510008F950000800
:1056D000BD50000820D00008DC51002023500008F5
:1056E000F14F000800007A44EC4F002025322E32A2
:1056F0006676000025322E326661000025332E3298
:1057000066570000253264256343000043682E314C
:105710003256000043682E355600000034304100F8
:105720003230410010B50021FE4890F82900800772
:1057300000D50121FB488430806A00EB80004004E2
:10574000020C012000F055FB002010BD10B5002117
:10575000F4482C3890F82900800700D50121F14841
:105760003C30806A00EB80004004020C002000F016
:1057700040FB002010BD37B5034601249DF804000E
:105780000B2812D19DF80520BDF80610012A01D181
:10579000022902D0012A06D007E0E2480121C438DC
:1057A00000F040FE07E0012905D0DDE901121846AE
:1057B00001F0BAFB044620463EBD70B5D9487838A2
:1057C00090F8220000EB80004006040E04F109006E
:1057D000C5B2D4480223A438FA220021064600F0BC
:1057E00009FF01232A462146304600F003FF00202E
:1057F00070BD37B501259DF80410012905D040245E
:10580000092920D00B2939D130E0C648C43801F02D
:10581000D7FFC44CC43C207A00060BD5002001F011
:10582000F3FCC14801F036FE012300221621BFA07F
:1058300001F0C7FE607A20F001006072207A20F04B
:10584000400020721FE0DDE9011200F097FF0546DD
:10585000012D18D1B348783800F0ACFD8DF8044024
:10586000B04801A9783800F003FB0CE09DF8051062
:10587000012903D1BDF80610012906D0DDE9011286
:1058800000F07CFF054628463EBDA648783800F06B
:1058900091FD8DF80440A34801A9783800F0E8FA9A
:1058A000F1E72DE9F04701469E48C43800F0F9FFC2
:1058B0009C48A149C4384161082180F8201000F1BA
:1058C0002C01416200F14C050D6000F198074F601A
:1058D000DFF85082C1F8088000F58074CC6000F5D4
:1058E000A4720A6100264E618E61CE618681C681F6
:1058F000C021018244214182417A41F0020141727A
:1059000090F8281021F0010180F8281001464C3051
:1059100001F0A5FB05F10805DFF820A2C5F824A0D9
:105920004FF0010985F82890287E40F00100697841
:1059300041F00201697040F0080020F0040040F0DE
:1059400010002876AE804FF00B00E8804FF060002A
:1059500028814FF0370068814FF006006876A4F187
:105960008000286276A1016079A141607CA18160FC
:105970007FA1C16080A1016181A1416185F8109082
:10598000844868614FF0C101017083494160287803
:1059900020F0010028704FF0FF00A8707F48E860F9
:1059A000A4F58071384601F012FCC7F824A06420E9
:1059B000B881FE81422038820E257D8278A038622F
:1059C000BE7287F80B90A4F11000F86187F8189068
:1059D000C021017075494160A0F1F0012C3801F03F
:1059E000F6FBC8F824A06420A8F80C002420A8F82E
:1059F0000E004220A8F81000A8F812506CA0C8F8B9
:105A0000200088F80A60032788F80B70A4F10800CA
:105A1000C8F81C0088F81890C021017067494160DF
:105A2000A0F1F801083001F0F5F804F108046A204B
:105A3000A080E5804FF03C0020814FF01200608193
:105A40004FF0FE0084F83D004FF0020584F83E5010
:105A5000E570A6705A48A061E577A5776777207F43
:105A600040F01000207741F20400A062E662607806
:105A700040F002006070C4F820904FF00002114620
:105A800008F13C0000F051FF08F1CC00606184F89F
:105A90001090C121017045494160A0F5C871483896
:105AA00001F0B8F808F184016A2088813220C881A9
:105AB0003C20088212204882FE2081F845000846DA
:105AC00080F846500420C872084686723C48086236
:105AD000084680F8275080F8265080F8257090F806
