:020000040800F2
:10000000B85900200D020008150200081702000868
:10001000190200081B0200081D0200080000000071
:100020000000000000000000000000008101000846
:100030002102000800000000B50100081F39000877
:10004000270200082702000827020008000000001D
:10005000000000002702000827020008270200080D
:1000600027020008000000002702000827020008FD
:10007000270200080000000027020008B53300082E
:1000800027020008270200080000000027020008DD
:10009000270200080000000000000000000000002F
:1000A000000000000000000000000000270200081F
:1000B000270200082702000827020008270200087C
:1000C00000F002F800F04CF80AA090E8000C82441E
:1000D0008344AAF10107DA4501D100F041F8AFF2FB
:1000E000090EBAE80F0013F0010F18BFFB1A43F016
:1000F00001031847207B0000407B0000103A24BF1A
:1001000078C878C1FAD8520724BF30C830C144BF7C
:1001100004680C60704700000023002400250026BE
:10012000103A28BF78C1FBD8520728BF30C148BF5A
:100130000B607047662906F01C82632905F0338046
:10014000002070471FB506F008FA05F05BF80400C0
:100150000020002105F0CCFDE0601FBD10B510BDF2
:1001600005F078F91146FFF7EDFF01F002FB05F00D
:1001700096F903B4FFF7F2FF03BC05F0DBF90000CA
:100180001A4B19680868B0E8F00F80F309884FF03F
:10019000000080F311884EF00D0E70470000000043
:1001A00003480068006880F3088862B600DF00BF7B
:1001B00008ED00E0EFF309800C4B1A6820E9F00F1E
:1001C000106008B54FF0BF0080F3118804F025FAE5
:1001D0004FF0000080F31188BDE8084019680868F6
:1001E000B0E8F00F80F30988704700BF7800002066
:1001F000EFF311804FF0BF0181F31188704780F356
:1002000011887047EFF30580704700000948804768
:1002100009480047FEE7FEE7FEE7FEE7FEE7FEE7E8
:10022000FEE7FEE7FEE7FEE704480549054A064B00
:1002300070470000D1020008C1000008B853002038
:10024000B8590020B8550020B855002030B52E4CC4
:10025000E46804F00204022C01D12C4800E02C4890
:10026000294CE46804F00104012C00D14008014647
:10027000254CE46804F00404042C05D1224C646885
:10028000C4F30324631C59431F4CE468C4F30124E2
:1002900024B1012C06D0022C13D10DE01C4C1D4DB5
:1002A0002C6013E0184CE468C4F30314641CB1FB25
:1002B000F4F2184C226009E04FF40044154D2C6014
:1002C00004E049F64044134D2C6000BF00BF30BD30
:1002D00000B511480C49C8610846C0680020C860D4
:1002E0000846406800204860084680680020886012
:1002F00008460069002008610846406900204861FE
:10030000FFF7A4FF00BD00000000024000093D000F
:1003100000127A00000000201000000829B1F94AFC
:10032000D2690243F74BDA6104E0F64AD2698243AC
:10033000F44BDA6170470146F24AD06820F440700D
:100340000843D060704710B5014601F0E003202B50
:1003500002D1EC4B1A6801E0EB4BDA6B01F01F04A1
:100360000123A340134201D0012000E0002010BD72
:1003700070B5002600BF1720FFF7E5FF0546761C85
:10038000B6F5C06F01D2002DF5D01720FFF7DBFFC7
:1003900008B1012400E00024204670BDDB494FF085
:1003A000844202EB41118865704700B50120FFF7D8
:1003B000F5FFFFF7DDFF0020FFF7BDFFD148C06864
:1003C0000020D049C86008464068002048600846C0
:1003D000806800208860084600690020086108469F
:1003E0004069002048610846806900208861C8484B
:1003F000C86100BD00B5FFF7D8FF0121C806FFF7AF
:100400008DFFC148C06B40F48100BF49C8630846F6
:10041000C06B00F48100C86300BDBA49896821F04F
:100420000301B84A9160012802D002280ED106E0EB
:10043000B449896841F00101B24A916007E0B149CD
:10044000896841F00301AF4A916000E000BF00BF3E
:10045000704770B5002600BF2220FFF774FF0546E5
:10046000761CB6F5C06F01D2002DF5D02220FFF723
:100470006AFF08B1012400E00024204670BDA249B3
:10048000C96B21F00301A04AD163012802D00228E0
:100490000ED106E09C49C96B41F001019A4AD16333
:1004A00007E09949C96B41F00301974AD16300E025
:1004B00000BF00BF704770B5002600BF0D20FFF7DA
:1004C00042FF0546761CB6F5C06F01D2002DF5D06F
:1004D0000D20FFF738FF08B1012400E0002420467A
:1004E00070BD0146884AD06B20F07C5040EA016024
:1004F000D063704785494FF0844202EB4111C863D5
:1005000070470146804AD06B20F4F81040EA014061
:10051000D063704770B5002600BF1520FFF713FFAA
:100520000546761CB6F5C06F01D2002DF5D015201A
:10053000FFF709FF08B1012400E00024204670BD48
:1005400030B502466F4BD86820F003001043D860E6
:10055000586820F4706040EA012058606D4B4FF0FD
:10056000844404EB43139B685BB10124694B4FF057
:10057000844505EB4313DC600024664B05EB431315
:10058000DC6030BD634908314FF0844202EB411119
:10059000886070475F494FF0844202EB41118860E8
:1005A000704770B5002600BF2120FFF7CCFE05463E
:1005B000761CB6F5C06F01D2002DF5D02120FFF7D3
:1005C000C2FE08B1012400E00024204670BD0146AF
:1005D0004C4AD06820F0F00040EA0110D06070472B
:1005E00030B50246474B186920F0030010431861EC
:1005F000586820F0F00040EA01105860454B4FF079
:10060000844404EB43131B685BB10124414B4FF05E
:10061000844505EB43135C6000243E4B05EB43131C
:100620005C6030BD3B490C314FF0844202EB41111C
:100630008860704737494FF0844202EB41110860EF
:10064000704770B5002600BF2020FFF77CFE0546EE
:10065000761CB6F5C06F01D2002DF5D02020FFF733
:1006600072FE08B1012400E00024204670BD294933
:100670000C314FF0844202EB41110862704725496A
:100680000C314FF0844202EB411108617047014682
:100690001C4A506920F033000843506170470146FE
:1006A000184A506920F4706040EA01205061704798
:1006B000184910314FF0844202EB411148637047F2
:1006C0000146104A906920F0F00040EA0110906164
:1006D0007047104914314FF0844202EB41114862D7
:1006E00070470146074A906920F00F000843906167
:1006F0007047084914314FF0844202EB41110862FF
:10070000704700000000024000800D403C800D005A
:1007100010000008040002002DE9FC4F0146DFF83C
:100720007CB24FF0844E0EEB4B1BDBF804B0BBF1F8
:10073000000F01D09A4B00E09A4BDFF860B24FF007
:10074000844E0EEB4B1BDBF800B0BBF1000F00D06A
:100750005B081C46DFF844B24FF0844E0EEB4B1B97
:10076000DBF808B0BBF1000F0DD0DFF83CB2DBF8CE
:1007700004B0CBF3032B0BF1010BCDF800B0DDF887
:1007800000B004FB0BF4DFF820B2DBF80CB0CBF3C5
:10079000012BBBF1000F06D0BBF1010F08D0BBF15C
:1007A000020F26D120E0DFF8FCB1C1F800B025E04F
:1007B000DFF8F4B1DBF80CB04FF0080E1EEA1B1F97
:1007C00001D1A0460DE0DFF8E0B1DBF80CB0CBF3CF
:1007D000021B0BF1010B4FF0010E0EFA0BFEB4FBE6
:1007E000FEF8C1F8008009E04FF4004BC1F800B0FA
:1007F00004E049F6404BC1F800B000BF00BFDFF88D
:100800009CB10BF1040B4FF0844E0EEB4B1BDBF84D
:1008100004B0BBF1000F01D0614D00E0614DDFF885
:100820007CB10BF1040B4FF0844E0EEB4B1BDBF84D
:1008300000B0BBF1000F00D06D082F46DFF85CB1AF
:100840000BF1040B4FF0844E0EEB4B1BDBF808B0A2
:10085000BBF1000F0DD0DFF850B1DBF804B0CBF3E3
:10086000031B0BF1010BCDF800B0DDF800B007FB66
:100870000BF7B946DFF824B10BF1040B4FF0844EAF
:100880000EEB4B1BDBF810B0BBF1000F01D04FEAB1
:100890005909C1F80490DFF810B1DBF818B04FEA3D
:1008A0001B1010F0080F02D1DFF8F8C00BE000F0C9
:1008B000070B0BF1010B4FF0010E0EFA0BF0DFF8F6
:1008C000E4B0BBFBF0FCC1F80CC0DFF8DCB0DBF837
:1008D000180010F0080F04D1DFF8C4B0CDF804B050
:1008E0000DE000F0070B0BF1010B4FF0010E0EFABB
:1008F0000BF0DFF8ACB0BBFBF0FBCDF804B0DDF8DB
:1009000004B0C1F810B0DFF8A0B0DBF814B01BF0F1
:10091000030B06D0BBF1010F05D0BBF1020F06D1CE
:1009200003E01E4605E02E4603E0264601E03E4673
:1009300000BF00BFDFF870B0DBF814B0CBF3011BD1
:10094000BBF1000F06D0BBF1010F06D0BBF1020FC7
:1009500008D105E04FF4004206E049F6404203E0CA
:10096000324601E0624600BF00BFDFF83CB0DBF872
:1009700014B04FEA1B2010F0080F01D1924609E095
:1009800000F0070B0BF1010B4FF0010E0EFA0BF00C
:10099000B2FBF0FAC1F808A0BDE8FC8F0C00020021
:1009A00000093D0000127A000000024000210160B1
:1009B000416001614161416203210162704710B5EC
:1009C0004B8803610B890C8803EB04234C89234477
:1009D0008C892344CC881A190260CB898C881A1917
:1009E000426010BD002181800721C180002141812A
:1009F000018181810221418000210180704721B164
:100A0000426842F00202426004E042684FF6FD7321
:100A10001A40426070471AB143690B43436102E0D8
:100A200043698B4343617047024693690B408B4295
:100A300001D1012000E0002070470246D3690B423B
:100A400001D0012000E000207047026A0A430262E0
:100A5000704710B51AB1436A0B43436204E0436A1E
:100A6000CC43A4B22340436210BD8160704701466D
:100A7000886880B270470246D3680B4201D00120DB
:100A800000E00020704702460B4BD86A0B4B9A429D
:100A900005D140F0807020F0FF00084308E0084BCB
:100AA0009A4205D140F0007020F47F4040EA0120D6
:100AB000014BD86270470000000002400000044073
:100AC00000000A400021C160016141600160816055
:100AD00041618161C16170472DE9FE4F4768D0F8DF
:100AE00008C0D0F80C80D0F81090D0F814A0CDF841
:100AF00008A0D0F818A0CDF804A0D0F81CA0CDF81C
:100B000000A00022012303254FF001160C885DE0B0
:100B100014F0010F55D027EA030A91F802B00BFA3E
:100B200002FB4AEA0B0791F808A04FEA420B0AFAC7
:100B30000BFA2CEA050B4AEA0B0C28EA030A91F897
:100B40000AB00BFA02FB4AEA0B0829EA060A91F8F6
:100B500003B002F1100E0BFA0EFB4AEA0B0A91F8F1
:100B600004B00BFA02FB4AEA0B09DDF808A02AEAF6
:100B7000060A91F805B00BFA0EFB4AEA0B0A91F847
:100B800006B00BFA02FB4AEA0B0ACDF808A091F86E
:100B900009A04FEA420B0AFA0BFADDF804B02BEA7F
:100BA000050B4AEA0B0ACDF804A0DDF800A02AEAFA
:100BB000030A91F807B00BFA02FB4AEA0B0ACDF8D8
:100BC00000A05B00AD007600521C6408002C9FD191
:100BD000DFF85CA1504502D14FF01F0A01E04FF051
:100BE000000A27EA0A0AC0F804A0DFF844A1504529
:100BF00002D14FF01F0A01E04FF0000A2CEA0A0A66
:100C0000C0F808A0DFF828A1504502D14FF01F0A14
:100C100001E04FF0000A28EA0A0AC0F80CA0DFF849
:100C200010A1504502D14FF01F0A01E04FF0000A19
:100C300029EA0A0AC0F810A0DFF8F4A0504502D152
:100C40004FF01F0B01E04FF0000BDDF808A02AEA7F
:100C50000B0AC0F814A0DFF8D8A0504502D14FF01D
:100C60001F0B01E04FF0000BDDF804A02AEA0B0A8D
:100C7000C0F818A0DFF8B8A0504502D14FF01F0B04
:100C800001E04FF0000BDDF800A02AEA0B0AC0F8E3
:100C90001CA0BDE8FE8F4FF6FF710180002181701E
:100CA000C170017141718171C171017241728172B2
:100CB0007047024613680B4201D0012000E000207B
:100CC00070470146086870470268194B984201D185
:100CD0001F2300E000239A430A4302607047026822
:100CE000134B984201D11F2300E000230B439A438A
:100CF0000260704730B5134604680D4DA84201D11B
:100D00001F2500E0002524EA05021BB142EA010488
:100D1000046002E022EA0104046030BD044A90420B
:100D200001D11F2200E0002221EA02020260704786
:100D300000000B400021C1600160416081600162E0
:100D400041628162C162016341638163C163016683
:100D500041668166C166016141618161C16101676E
:100D600041678167C167016441648164C164016551
:100D700041658165C165704730B50C8804604C8859
:100D800044608C888460CC880D892C444D892C4427
:100D90008D892C44CD896319C3604C8A0D8A04EB7C
:100DA00005148D8A2C44CD8A6219026530BD00215C
:100DB000018041808180C180018141818181C18127
:100DC000018241828182C18270470A46C16812B1A4
:100DD00041F0010101E021F00101C16070470160B3
:100DE0007047416070478160704710B50B46C1681D
:100DF00021F002011144C160836010BD0146086802
:100E000080B270470A46C16821F470611144C16024
:100E100070470A46C16821F030011144C160704733
:100E20000A46C16821F0C0011144C16070470A46FA
:100E3000C16821F008011144C160704730B50C460B
:100E4000016D21F0FE01A51805EB0315294401658C
:100E500030BD0A46016D21F0F00101EB0211016580
:100E600070470A46016D21F00C011144016570477D
:100E70000A46016D21F002011144016570470A46DE
:100E8000016D21F001011144016570470146CA68F6
:100E900012F0080F01D1002000E008207047014641
:100EA000CA6812F0040F01D1002000E00120704751
:100EB00070B54D88CE8835440E8935444E89354409
:100EC0008E8905EB8615CE8935440E8AAC198D883E
:100ED0000DB104F500540A8800F1200545F82240C0
:100EE0004D8ACE8AAB198D8A05B11B1D00F16005B4
:100EF00045F8223070BD0021018041808180C18091
:100F0000018141818181C181018241828182C182CD
:100F1000704710B500F1100404EB81031A6010BD96
:100F200010B500F1700404EB81031A6010BDF0B538
:100F3000144600F1600707EB81052A6822F00802D9
:100F40001A442A60503F07EB81063460F0BDF0B5CB
:100F5000144600F1600707EB81052A6822F00802B9
:100F60001A442A60103707EB81063460F0BD10B5D3
:100F7000024602F1100000EB81031C68A0B210BD14
:100F800010B5024602F1700000EB81031C68A0B2AC
:100F900010BD30B5034603F1200505EB8104206840
:100FA00012B140F4807001E020F48070206030BD08
:100FB00030B5034603F1200505EB8104206820F4D9
:100FC00000501044206030BD30B5034603F12005C9
:100FD00005EB8104206820F480501044206030BD6F
:100FE00030B5034603F1200505EB8104206820F4A9
:100FF00060601044206030BD30B5034603F1200529
:1010000005EB8104206820F0C00000EB8210206016
:1010100030BD30B5034603F1200505EB810420689F
:1010200020F030001044206030BD30B5034603F19D
:10103000200505EB8104206820F00F00104420609B
:1010400030BD10B5024602F1200404EB81031C6898
:1010500014F4804F01D1002000E0012010BD30B514
:10106000034603F1600505EB8104206820F00300CE
:101070001044206030BD30B5034603F1600505EB38
:101080008104206812B140F0040001E020F0040067
:10109000206030BD70B54D882D018E8805EB86052A
:1010A000CE8835440E8905EB06354E8905EB86253D
:1010B0008E8905EB06230A8800F1300545F82230B9
:1010C0000D8ACE8905EB06254E8AAC1900F1400544
:1010D00045F8224070BD002141808180C18001819E
:1010E00041818181C181018241827047F0B504460E
:1010F000059E04F1300707EB8105286820F01F00EA
:10110000370107EB82071F4438442860F0BD30B533
:10111000034603F1300505EB8104206820F00C0044
:1011200000EB8200206030BD30B5034603F130058E
:1011300005EB8104206820F003001044206030BDDE
:1011400030B5034603F1300505EB8104206820F03B
:10115000100000EB0210206030BDF0B50446059E83
:1011600004F1300707EB8105286820F4F8503703B5
:1011700007EB822707EB032738442860F0BD30B522
:10118000034603F1300505EB8104206820F440603C
:1011900000EB8220206030BD30B5034603F13005FE
:1011A00005EB8104206820F4407000EB02202060F1
:1011B00030BD30B5034603F1300505EB81042068EE
:1011C00020F4805000EB0230206030BD70B5049CEC
:1011D00003EB0226351900F1400646F8215070BD98
:1011E0000146486D70470246536D0B4201D1002005
:1011F00000E001207047426D8A434265704710B598
:101200001346C26D0BB10A4300E08A43C26510BDAC
:1012100010B51346826D0BB10A4300E08A43826524
:1012200010BD30B50246546D956D2C4004EA0103A3
:101230000BB9002000E0012030BD0246104B586A77
:10124000104B9A4205D120F0FF00084340F0807017
:1012500012E00D4B9A4206D120F47F4040EA012073
:1012600040F0007008E0094B9A4205D120F47F005D
:1012700040EA014040F08060014B58627047000036
:1012800000000240000007400080074000000840C6
:1012900041480021816001610121816100210160DB
:1012A0004160704710B501463B4882684C6814F0B5
:1012B000200F02D042F0200201E022F020028260E2
:1012C0000B6803601C0A446010BD002141600121CD
:1012D000016070470146304A906811B140F08000CB
:1012E00001E020F080009060704701462A4A906833
:1012F00011B140F0400001E020F0400090607047E4
:1013000025490A6902F00102012A01D1012000E009
:10131000002070472048816941F0010181617047D8
:101320001D4A20F001030B435361902393617047E2
:1013300001461948416110228261704716484021D8
:1013400081617047144940F020028A617047124958
:10135000C868C0B2704710498A690B6942EA032025
:10136000C24340EA0240704730B50446FFF7F3FF3E
:101370002040A04201D1012500E00025284630BDD3
:1013800030B50546FFF7E7FF284201D0012400E011
:101390000024204630BD0000000005400020E34945
:1013A000086048608860C8600861486108468069D4
:1013B0000846C0690020086248628862C8627047B7
:1013C00010B5D0E9003403EB047384682344C46887
:1013D00023440469234444692344846903EB44514E
:1013E000D34AD24B1B6893430B44D04C236010BDAF
:1013F0000021016041608160C160016141618161E2
:101400007047CA4A126822F0F07101EB4052C74B94
:101410001A60704710B5C54B1A68C54BDB1C1A40E3
:10142000D0E90034234484682344C46803EB0413E4
:1014300044692344C4692344446A2344846A03EB13
:1014400044631A44B94B596821F40031036A01EB33
:101450004341B64B1A605960038BB44C2361438BF4
:10146000A3600369A36210BDB04A5168B14A11403C
:10147000D0E900231A4483681A44C36802EB0312BC
:1014800043691A44C3691A44036A02EB8342436AFC
:101490001A44836A02EB43621144A44A5160028BEE
:1014A000A24B5A61428BDA600269DA62704700210E
:1014B000016041608160C1600161416101834183DC
:1014C000C16101624162816270470146974A1068BA
:1014D00011B140F0010001E020F00100934A1060DA
:1014E00070470146914A506811B140F0010001E097
:1014F00020F001008D4A5060704701468B4A106809
:1015000020F4F87000EB0110106070470146874A24
:10151000506820F4F87000EB011050607047834968
:10152000886270478149C862704702467F4B1868DD
:1015300020F40270531818447C4B18607047024620
:101540007A4B586820F4027053181844774B58604F
:1015500070470146754A106820F008000844106082
:1015600070470146714A506820F0080008445060F6
:10157000704701466D4A106820F4007008441060FE
:1015800070470146694A506820F400700844506072
:10159000704710B50346654C206820F48060104405
:1015A00020602361A16010BD10B503465F4C6068E8
:1015B00020F48060104460606361E16010BD5B49AD
:1015C00008617047594948617047584988607047B9
:1015D0005649C86070475548006840F002005349BA
:1015E000086070475148406840F002004F49486029
:1015F00070474E48806970474C48C06970474B48F7
:10160000006A4A49496A00EB014070474748006A4E
:1016100070474648406A704700B50346FFF7EFFF42
:10162000184201D1002200E00122104600BD01460F
:101630003E4A126A0A4201D1002000E001207047B0
:1016400001463A4A526A0A4201D1002000E00120D4
:1016500070473648006A20F001003449086270473C
:101660003248406A20F001003049486270472F48F4
:10167000006A20F002002D49086270472B48406A3A
:1016800020F0020029494862704730B503460C46F5
:10169000264D296A6A6A980024B185B2294342EA34
:1016A000104203E085B2A94322EA10421F4D29628D
:1016B0006A6230BD0A461D4B196A12B141EA8001C7
:1016C00001E021EA8001194B196270470A46174B65
:1016D000596A12B141EA800101E021EA8001134B0D
:1016E0005962704710B50446FFF789FF034604EAC4
:1016F000930003400BB9002200E00122104610BD08
:1017000002460A4B196A02EA9103194009B90020FE
:1017100000E0012070470246044B596A02EA910337
:10172000194009B9002000E00120704700800840FE
:101730000000FFF10300FBF138B5002404226946E4
:10174000002000F0B3FE04463C490098884201D0D6
:1017500044F001040422694640F2FC7000F0A6FE49
:10176000044637490098884201D044F002042046DC
:1017700038BD1FB500F084F800F076FF00F0A8F93E
:1017800000F0CDF900F022FA00F0AFF800F0D4F943
:1017900000F01EFD00F0C4FD00F0D0FD29480088D7
:1017A00010F0200F03D0012001F041FB02E00020E7
:1017B00001F03DFB0F200121814042094FF0E02361
:1017C00003EB8202C2F8001100BF502000F028FB9A
:1017D000552000F028FB00200123CDE900300290C5
:1017E0000346802218A10390194802F08DFC0020C6
:1017F0000223CDE9003002900346802215A1039018
:10180000174802F081FC00200090019002900346EE
:10181000802214A10390154802F076FC00200323D7
:10182000CDE9003002900346802211A103901348B5
:1018300002F06AFC03F034F800BFFEE755667788D3
:10184000112233441C00002047554920544F5000BA
:1018500079360008436F6E7665746572000000008B
:10186000712B00085365727669636500293700089B
:10187000446973706174636865720000DD37000845
:1018800010B50120FEF7C9FDFEF7E3FD012801D0E8
:1018900000BFFEE707210220FEF752FE0120FEF7FF
:1018A00079FEFEF77EFE012801D000BFFEE7002092
:1018B000FEF78DFE0120FEF765FE4FF48070FEF707
:1018C0003AFD2020FEF7E3FE0020FEF7E8FE0120AF
:1018D000FEF7EEFEFEF7BAFC0121FE48FEF71EFD04
:1018E0000121FD48FEF71AFD10BD0EB5FB48FFF7BC
:1018F000E9F8FB48FFF7E6F8FA48FFF7E3F8FA489B
:10190000FFF7E0F8F948FFF7DDF8F948FFF7DAF8F4
:10191000C021F348FFF7D8F96846FFF7BCF921204A
:10192000ADF8000001208DF80A006946EB48FFF78A
:10193000D3F80420ADF8000001208DF803006946BB
:10194000E648FFF7C9F80220ADF8000001208DF845
:1019500002008DF809006946E048FFF7BDF818203D
:10196000ADF8000002208DF808006946DB48FFF75B
:10197000B3F86846FFF78FF9C020ADF800000120EA
:101980008DF802008DF809008DF80A006946D348E9
:10199000FFF7A2F86846FFF77EF940F23770ADF81E
:1019A000000001208DF80A006946CD48FFF794F841
:1019B0004FF48060ADF800006946C948FFF78CF825
:1019C000C020ADF8000001208DF802008DF809005C
:1019D0006946C348FFF780F86846FFF75CF90420C2
:1019E000ADF8000001208DF80A0002208DF80800F3
:1019F00001208DF809006946BA48FFF76DF8032009
:101A0000ADF8000002208DF809006946B548FFF7DF
:101A100063F86846FFF73FF99720ADF80000694684
:101A2000B148FFF759F82820ADF8000001208DF8E3
:101A30000A0002208DF808008DF8090001208DF8B9
:101A400002006946A848FFF747F84020ADF80000BB
:101A500001208DF804006946A348FFF73DF8684669
:101A6000FFF719F94520ADF8000001208DF80A00B4
:101A700002208DF8090001208DF8020069469B487C
:101A8000FFF72AF88020ADF8000003208DF8080049
:101A900069469648FFF720F80A20ADF800000220BA
:101AA0008DF8080069469148FFF716F86846FFF779
:101AB000F2F80C20ADF8000001208DF80A008DF836
:101AC00009008DF8020069468948FFF705F80EBD48
:101AD0001FB56846FEF786FF00218648FEF7D3FF54
:101AE0000420ADF800000220ADF802000020ADF89F
:101AF00004000820ADF806000020ADF80800ADF89D
:101B00000A00ADF80C000220ADF80E0069467948D5
:101B1000FEF755FF01217748FEF771FF1FBD1CB589
:101B20000120FFF7D7FB4FF4807000900020019058
:101B30006846FFF7B7FB1CBD00B593B0FFF72EFC5E
:101B40000CA8FFF755FC00200C900A200D904FF4D4
:101B500000300E9040000F90400010904000119017
:101B6000012012900CA8FFF72BFC01A8FFF79FFCA7
:101B7000042001900020029003901F200490002078
:101B800005900690ADF81C00ADF81E004FF4006003
:101B90000890012009904FF4E0400A9000200B903B
:101BA00001A8FFF737FC01A8FFF75EFC0021062023
:101BB000FFF780FD00210620FFF788FD0120FFF7D9
:101BC00084FC0120FFF78DFC13B000BD00B591B07F
:101BD0000BA8FFF7ECF81F20ADF82E0040F2F31031
:101BE000ADF830000BA94448FFF7C6F805A8FFF789
:101BF00082F90020ADF816004FF44060ADF81E00E9
:101C00000120ADF8140005A93B48FFF751F96846DB
:101C1000FFF761FA0020ADF802000120ADF80400E2
:101C2000ADF806000020ADF808000120ADF80A006C
:101C3000ADF80C00ADF8000069462F48FFF72AFA0E
:101C4000F9202D49486100212B48FFF7F6FA0121C0
:101C50002948FFF7BAF80BA8FFF7A9F80120ADF85B
:101C60002E0040F6FF70ADF830000BA92348FFF7B7
:101C700083F805A8FFF73FF90020ADF816004FF4F0
:101C80004060ADF81E000020ADF8140005A91B4807
:101C9000FFF70EF90220ADF8140005A91748FFF769
:101CA00007F905A8FFF727F90020ADF816004FF453
:101CB0000070ADF81E000120ADF814000020ADF852
:101CC000260005A90D48FFF7F3F86846FFF703FA69
:101CD000012015E00000E02300C4130000800A404A
:101CE00000000B4000800B4000000C4000800C40C6
:101CF00000800E4000000A400000074000800740BE
:101D0000ADF808000220ADF80A000120ADF80C0083
:101D10000020ADF8000069467C48FFF7BBF90220BF
:101D2000ADF8000069467948FFF7B4F9002077491B
:101D3000086188614861012209157448FFF768FA53
:101D400000217248FFF779FA01217048FFF73DF84A
:101D50000BA8FFF72CF80F20ADF82E006320ADF88C
:101D600030000BA96A48FFF707F805A8FFF7C3F88A
:101D70000020ADF81400ADF816004FF44060ADF847
:101D80001E0005A96248FFF793F86846FFF7A3F91C
:101D90000020ADF800000220ADF804000020ADF8EE
:101DA00002000120ADF8060069465948FFF772F9B4
:101DB0000220ADF8140005A95548FFF779F8022074
:101DC000ADF800000020ADF80400ADF806000220D8
:101DD000ADF80A000120ADF80800ADF80C00694626
:101DE0004B48FFF757F900204949086188610021F5
:101DF0004748FFF722FA01214548FEF7E6FF11B0F8
:101E000000BD4249086170474049886170474149B7
:101E10008860014600EBD17252103E4B5A61704708
:101E20003B4988617047642800DD642038490861B7
:101E3000704738B500F04BFC002865D172B6002021
:101E400000F04BFC00F0E1F800F0FFF841F28830C0
:101E500000F01EFC04460020FFF7E5FF0020FFF71E
:101E6000DFFF0020FFF7CDFF0020FFF7CDFF0021AF
:101E7000294800F0DCFC0021284800F0D8FC264866
:101E8000274B28A20A210090002000F0BDFD234826
:101E9000234B24A20A210090002000F0B5FD00BFD2
:101EA000204600F000FC0028FAD100F024FC0120BC
:101EB00000F02FFC012000F03AFC1749012000F04F
:101EC000B1F91649022000F0ADF94FF47A7000F034
:101ED000DFFB044600BF204600F0E5FB0028FAD1F6
:101EE0001348FEF7EFFD1348FEF7ECFD1248FEF72E
:101EF000E9FD1248FEF7E6FD1148FEF7E3FD114843
:101F0000FEF7E0FD00BFFEE738BD0000008007409F
:101F10000000084000000740C200002082070020A7
:101F2000A0750008506F776572204F46460000008C
:101F300000800A4000000B4000800B4000000C4075
:101F400000800C4000800E401CB5002001904D48E0
:101F50000068401E4B4908600AD10090002301AA86
:101F600069464948006801F015FF19204549086095
:101F700046480068401E454908600AD10090002389
:101F800001AA69464248006801F004FF19203F4950
:101F9000086040480068401E3E4908600AD1009031
:101FA000002301AA69463C48006801F0F3FE0A20BC
:101FB000384908601CBD70B5B0F1807F01D36FF067
:101FC0007F400246B2F1807F00D31DE022F07F41C6
:101FD000491E4FF0E023596159170723002907DAFA
:101FE0005C07260E2D4C01F00F052D1F665503E0F2
:101FF0005C07250E2A4C655400BF00214FF0E023FA
:1020000099610721196100BF70BD4FF0E0200069A0
:1020100020F001004FF0E02108617047214A12686A
:10202000111800BF1F4A12688A42FBD1704701464F
:102030001D4A506B40F60C42904340F60802104394
:10204000194A5063194A118070471749486B40F686
:102050000C41884340F204410843134948637047E8
:1020600000B503461846FFF7E2FF00BF0F4800889F
:102070000028FBD100BD00BF0C4800880028FBD120
:102080007047000008000020500000200C000020D5
:102090004C000020100000205800002018ED00E047
:1020A00000E400E0040000200000074018000020C9
:1020B00070B504460D462646012D01D146F48076C2
:1020C00000BF02216B48FEF7D6FC0128F9D131464A
:1020D0006848FEF7CAFC70BD70B50446204600F0A3
:1020E000D7FA054600BF284600F0DDFA0028FAD1ED
:1020F00070BD10B50446012C04D104215E48FEF7E2
:10210000E3FD03E004215C48FEF7E9FD1420FFF73E
:10211000E3FF10BD10B50021E220FFF7C9FF002149
:102120003D20FFF7C5FF00210120FFF7C1FF00217F
:10213000E120FFF7BDFF00210846FFF7B9FF0021AE
:102140002420FFF7B5FF00219020FFF7B1FF002109
:10215000A020FFF7ADFF0021C820FFF7A9FF002155
:10216000A620FFF7A5FF0021A420FFF7A1FF002173
:102170002F20FFF79DFF00214020FFF799FF00214E
:10218000F820FFF795FF0021D020FFF791FF0021F5
:102190003020FFF78DFF0021B020FFF789FF0021DD
:1021A0001020FFF785FF00210846FFF781FF00247C
:1021B00005E001210020FFF77BFF601C84B240F2A4
:1021C0005F308442F5DB0021AF20FFF771FF10BDC7
:1021D00010B501212848FEF782FD42F21070FFF78A
:1021E0007BFF01212448FEF76FFD42F21070FFF7DC
:1021F00073FF0120FFF77DFFFFF78CFF00BF102169
:102200001C48FEF738FC0028F9D10220FFF771FFC7
:10221000FFF780FF00BF10211648FEF72CFC0028B6
:10222000F9D110BD70B506460D463046FFF761FF87
:102230000021B020FFF73CFF00211020FFF738FFFE
:1022400000210846FFF734FF002407E035F814109A
:10225000C8B20121FFF72CFF601C84B2B4F5587F8F
:10226000F4DB00BF10210348FEF705FC0028F9D17C
:1022700070BD000000000A4000800C4070B50024D2
:102280004948406820F0C000474948600A2000F0F3
:10229000FFF906464548056815F0200F01D144F0C6
:1022A000100415F0040F01D044F480743E48056812
:1022B00015F0010F01D144F0010415F0020F01D116
:1022C00044F0020415F0040F01D144F0040415F0A9
:1022D000100F01D144F0080415F0200F01D144F093
:1022E000200400BF304600F0DEF90028FAD12E4865
:1022F0000568406840F0C0002B49486015F0800F29
:1023000001D144F0400415F0400F01D144F08004A5
:102310002748048070BD0020264948808880704787
:1023200010B5002405E00020234921F81400601CAA
:10233000C4B2092CF7DBFFF7EEFF10BD2DE9F04129
:10234000FFF79CFF1A480788FFF7E5FF002424E009
:102350000120A04086B2184830F814506804050CDB
:10236000374201D045F0010505F00300012802D0F5
:1023700002280CD105E00F48408830430D494880C1
:1023800005E00C48808830430A49888000BF00BFC0
:10239000094820F81450601CC4B2092CD8DB054849
:1023A0000780BDE8F081000000000B4000800A407B
:1023B0001A0000201C000020B000002010B50446C8
:1023C00014F0010F04D080210A48FEF788FC03E0D6
:1023D00080210848FEF778FC14F0020F04D0402159
:1023E0000448FEF77CFC03E040210248FEF76CFC49
:1023F00010BD000000000B40284800788006000E49
:10240000264908702648006810F4807F04D00846EA
:10241000007840F0010008702148006810F4007F47
:1024200005D01E48007840F002001C4908701B4887
:10243000007800F00F000F281DD2DFE800F01C121A
:10244000081C091C1C13141C1C0A1C0B150000BFC3
:1024500000BF00BF13480088401E00B21149088029
:1024600009E000BF00BF00BF0E480088401C00B25A
:102470000C49088000BF00BF70470B48B0F900103E
:10248000084800884FF6FC72104000B2064A1080DF
:1024900010460088401A01B28810704724000020BE
:1024A00000000B4022000020260000202DE9F04112
:1024B00004460D4616464FF0000804F4E060C711CC
:1024C00047F0A00700BF4FF08040FEF759FF0128FA
:1024D000F9D100213846FEF723FF00BF4FF000700E
:1024E000FEF74EFF0128F9D1C007FEF749FF01288A
:1024F0003ED1E0B2FEF71CFF00BF4FF00070FEF7C8
:102500003FFF0128F9D1C007FEF73AFF01282CD17F
:1025100001213846FEF704FF00BF4FF00070FEF7C0
:102520002FFF0128F9D1C007FEF72AFF012819D192
:1025300012E01EB10020FEF705FF02E00820FEF7C2
:1025400001FF00BF4FF00070FEF71AFF0128F9D11C
:10255000FEF7FDFE28706D1C3000A6F10101CEB221
:10256000E7D107E04FF0030804E04FF0020801E074
:102570004FF00108FEF7E2FE4046BDE8F0812DE98C
:10258000F04104460D4616464FF0000804F4E060A2
:10259000C71147F0A00700BF4FF08040FEF7F0FEE4
:1025A0000128F9D100213846FEF7BAFE00BF4FF0EE
:1025B0000070FEF7E5FE0128F9D1C007FEF7E0FE46
:1025C00001282BD1E0B2FEF7B3FE00BF4FF0007040
:1025D000FEF7D6FE0128F9D1C007FEF7D1FE01288B
:1025E00019D112E02878FEF7A3FE6D1C00BF4FF052
:1025F0000070FEF7C5FE0128F9D1C003FEF7C0FE4A
:10260000012802D14FF0030804E03000A6F10101D7
:10261000CEB2E7D104E04FF0020801E04FF001082C
:10262000FEF78CFE4046BDE8F08110B500BF4FF0CC
:102630008040FEF7A5FE0128F9D10021A020FEF779
:102640006FFE00BF4FF00070FEF79AFE0128F9D12F
:10265000FEF774FE4FF00040FEF792FE012800D115
:1026600010BD0020FCE700001248006810F0010FC8
:102670000DD11148006840F080700F4908600020BB
:102680000C4948600846006840F001000860704747
:1026900001460A4A12680A4BB2FBF3F2054B5B682B
:1026A00001FB02307047014602484068401AC00FE3
:1026B00070470000001000E0FCED00E0000000208A
:1026C00040420F002148006800F001007047204898
:1026D0000068012121EA9020704710B50446012CC2
:1026E00004D104211B48FEF7EFFA03E00421194846
:1026F000FEF7F5FA10BD10B50446012C04D10821EF
:102700001448FEF7E1FA03E008211248FEF7E7FA61
:1027100010BD10B50446012C04D102210B48FEF770
:10272000D3FA03E002210948FEF7D9FA10BD10B52B
:102730000446012C04D140210748FEF7C5FA03E006
:1027400040210548FEF7CBFA10BD000000800A408A
:1027500000000B4000800E4000800C402DE9F0414D
:1027600006460D464FEAE17C01EB5C7C4FEAEC0C3F
:102770000CEB4C0C4FF0600808EB4C1CACF1010C5E
:10278000ACEB060C0FFA8CF74FEAE17C01EB5C7CBA
:102790004FEAEC0CA1EBCC0C0CF0FF0433F8175013
:1027A000E8B21AB90125A540A8430CE0012A04D1DA
:1027B0000125A5400543E8B205E0022A03D1012521
:1027C000A5404540E8B223F81700BDE8F0812DE9A7
:1027D000F0430446884615461E46DDF81C90002747
:1027E00009E039467A1CD7B22144C8B24B4632467A
:1027F0004146FFF7B3FFAF42F3DBBDE8F0832DE9BD
:10280000F04380460C4615461E46DDF81C90002716
:1028100009E038467A1CD7B22044C1B24B46324652
:102820004046FFF79BFFAF42F3DBBDE8F083024673
:10283000002003E022F81010431C98B2B0F5587F36
:10284000F8DB70472DE9FF4F82B01E460F9C924681
:102850004FEAE27B02EB5B7B4FEAEB0BA2EBCB0B8D
:102860000BF0FF034FEAE27B02EB5B7B4FEAEB0BE3
:102870000BEB4B0B4FF0600E0EEB4B1BABF1010B58
:10288000DDF80CE0ABEB0E0B1FFA8BFBCDF800B0C4
:1028900000256DE04FF000082F46DDF800A0AAEB00
:1028A000050A1FFA8AFC20464FF0010A0AFA03FAC9
:1028B000CAF1000A0AF0FF0903EB040ABAF1080F93
:1028C0000DDA03EB040B4FF0010A0AFA0BFAAAF136
:1028D000010A0AF0FF0109EA0109019405E0C3F1C8
:1028E000080A1FFA8AFACDF804A03BE0DDF808A038
:1028F0001AF8071001FA03FA4AEA080A1FFA8AF8D6
:10290000DDF840A03AF81CA00AF0FF0121EA090115
:1029100008EA090A4AEA0101DDF840A02AF81C1079
:102920004FEA28280CF1600A1FFA8AFC07EB060A16
:102930001FFA8AF7DDF804A0A0EB0A0A1FFA8AF052
:10294000082804DB4FF0080ACDF804A000E001904D
:102950004FF0010BDDF804A00BFA0AFAAAF1010A04
:102960000AF0FF090028C1D105F1010A1FFA8AF512
:10297000B5428FDB06B0BDE8F08F30B503460020CE
:102980000DE04C6814F83040944206D14C6804EBDA
:10299000C00530CDC3E9004530BD441CA0B24C7821
:1029A0008442EEDC4D6830CDC3E9004500BFF3E75B
:1029B0002DE9FF4304460F4615461E46DDF82C90D0
:1029C0004FF000081AE04046411C1FFA81F82A5CCB
:1029D00031466846FFF7D1FFDDE90001CDE902018C
:1029E0003078CDE900099DF809303A462146039830
:1029F000FFF728FF9DF809002044C4B215F808002D
:102A00000028E0D1BDE8FF832DE9FC4705460F46CD
:102A100016461C46DDF828A04FF0000815E0404699
:102A2000411C1FFA81F8305CE17800FB01F9607805
:102A3000CDE9000A2378616801EB09003A4629468E
:102A4000FFF700FF20782844C5B216F808000028D8
:102A5000E5D1BDE8FC87000010B5FE480068448859
:102A6000052094FBF0F084B22046FFF7CAF9F9483C
:102A70000068408A0446F7490968497C012904D165
:102A8000204600EBD071491000E021468CB20520B1
:102A900094FBF0F084B22046FFF7B6F910BD024671
:102AA0000123EC480068007C90B1EA480068408946
:102AB000904204DDE74800684289052308E0E548C4
:102AC00000680089904203DAE24800680289042322
:102AD000E0480068C088904204DDDE480068C28893
:102AE000032308E0DB4800688088904203DAD94875
:102AF0000068828802230B7090B2704730B502469E
:102B00000C460825D3480068407C012806D1D148EE
:102B10000068018BCF480068438B05E0CD48006812
:102B2000818ACC480068C38ACA48006890F82400AB
:102B300090B1C8480068C08B904204DDC548006869
:102B4000C28B0C2508E0C3480068808B904203DAF2
:102B5000C0480068828B0B259A4202DA1A460A2581
:102B600003E08A4201DD0A460925257090B230BD96
:102B70001CB5002500220421052000F0F8FFB6490D
:102B800008600846006808B900BFFEE7A2E000231D
:102B90005A1E01A9B048006801F053F915B1012D82
:102BA0005DD132E00198032803D1AC48A9490860FF
:102BB00055E00198042803D1A948A64908604EE0D1
:102BC0000198052804D10020A2490968487446E00C
:102BD0000198062804D101209E49096848743EE006
:102BE0000198022806D104209E490870012001F0B6
:102BF00095FC34E00198012806D105209949087018
:102C0000012501F08BFC2AE000BF9748007810F006
:102C1000020F02D10198022807D1022091490870C1
:102C20000025052001F07AFC19E00198032802D064
:102C30000198042812D102208A4908700025052035
:102C400001F06CFC0198032802D184488149086096
:102C50000198042802D182487E49086000BF00BF65
:102C6000019810B903208149087072B67949096842
:102C70000878FFF740FD62B676490968487CFFF79F
:102C800048FD77494878FFF752FD72490968488A3C
:102C90006946FFF733FF6F49096848826D49096843
:102CA00048886946FFF7FBFE6A4909684880FFF7D4
:102CB000D3FE00246C48007810F0010F01D00124ED
:102CC00005E06948007810F0040F00D00224204687
:102CD000FFF774FB5BE7F0B5054616461020012EA2
:102CE00006D0022E09D0032E0CD0042E14D10EE0F3
:102CF00001F10A04CA890B890EE001F108044A892E
:102D00008B8909E001F11E044A8C8B8B04E001F1F0
:102D10001C04CA8B0B8C00BF00BF954202DA15461B
:102D2000112003E09D4201DD1D4612202580F0BDEB
:102D30004F48008880104F4908800846008800EB03
:102D4000800008804C48008880104C490880414829
:102D50000068407C012807D10846008800EB80000D
:102D60004004000C088005E04448008800EB800027
:102D7000424908803F4800884049098848434FF449
:102D80007A7190FBF1F03E490860704738B504460F
:102D900069462046FFF783FE2E49096848809DF862
:102DA000000038BD38B5044669462046FFF7A6FE48
:102DB0002849096848829DF8000038BD25490968FE
:102DC000097881420ED0012806D12E49097841F0B8
:102DD00001012C4A117005E02A49097841F00201ED
:102DE000284A117070471B490968497C81420ED0FE
:102DF000012806D12349097841F00801214A1170C0
:102E000005E02049097841F004011E4A117070471D
:102E10001C48007840F010001A49087070471948A3
:102E2000007840F02000174908707047704710B5CF
:102E300004460120094908700020487041F288309A
:102E40004880400088800020C8804FF4FA500881F4
:102E50001AE000003C0000204C000020420E002040
:102E6000680E002029000020280000202A000020F1
:102E700048000020400000204A00002042000020BE
:102E8000440000202C00002040F6B830488142F277
:102E9000107088810020C881087448744FF47A60EB
:102EA000488244F6206088820020C88249F640406B
:102EB00008830020488349F28800888347F2305015
:102EC000C88349F6404008840020488481F82400E3
:102ED000F7490870487042F6E060488044F6206088
:102EE00088800020C8804FF47A50088140F2DC507E
:102EF000488144F6206088810020C88108744874A5
:102F00004FF4FA60488244F6206088820020C8822C
:102F100044F6206008830020488344F25060888390
:102F200041F27070C88344F6206008840020488411
:102F300081F824001CB90846DE49086002E0DE483A
:102F4000DC490860DB4909680878FFF7D4FBD949F8
:102F50000968487CFFF7DDFBD5494878FFF7E7FBB8
:102F600010BDF8B5D54806780024007810B10128C6
:102F70000ED161E0D248007810F0010F09D0D0489E
:102F8000007820F00F00CE490870CB48C94908608E
:102F900076E0CB48007810F0020F09D0C8480078DE
:102FA00020F00E00C6490870C148C249086067E0B9
:102FB000C348007810F0040F0AD0C148007820F010
:102FC0000400BF4908700020BA490968487457E0F6
:102FD000BB48007810F0080F0AD0B948007820F0FC
:102FE0000800B74908700120B2490968487447E0F1
:102FF000B348007810F0200F08D0B148007820F0D6
:103000002000AF49087044F0040439E0AC4800786F
:1030100010F0100F09D0AA48007820F01000A8493D
:103020000870012644F005042AE0A548007820F045
:103030002000A349087023E0A148007820F01C007C
:103040009F4908709F48007810F0020F04D108468D
:10305000007810F0200F09D09948007820F0200067
:103060009749087044F00204002609E0944800786B
:1030700010F0030F03D044F00204002600E000BF6C
:1030800000BF8E48067072B68A4909680878FFF753
:1030900032FB62B687490968487CFFF73AFB8449EE
:1030A0004878FFF744FB83490968488A6946FFF777
:1030B00025FD8049096848827E4909684888694633
:1030C000FFF7EDFC7B4909684880FFF7C5FC03204A
:1030D0007D4908707D48047000257A48007810F01A
:1030E000010F01D0012505E07648007810F0040FAB
:1030F00000D002252846FFF761F9F8BD10B57148E8
:10310000007810F00A0F00D104E04FF4FA70704913
:10311000088007E06E48008820B16D480088401E96
:103120006B4908806A48008818B9FFF7CBFA012874
:1031300003D105206749088007E06648008820B170
:1031400064480088401E634908806248008850B97E
:103150005C48007820F001005A4908700846007861
:1031600040F0060008705948007810F0040F05D0B0
:103170005448007820F00400524908705348007801
:1031800010F0020F10D04F48007810F0040F0BD150
:103190004C48007820F001004A4908700846007841
:1031A00040F00200087014E04848007810F0010F69
:1031B0000FD04448007810F0040F0AD1414800783D
:1031C00020F002003F4908700846007840F00100F6
:1031D00008704148007810F0010F06D03948007897
:1031E00040F00800374908700AE03B48007810F0CA
:1031F000020F05D03348007820F0080031490870EC
:10320000002032490870344908702E48007810F0C8
:103210000A0F03D00020FFF760FA07E02948007882
:1032200010F0010F02D00120FFF757FA10BD10B5C2
:103230002A480078032877D005DC48B1012812D04D
:1032400002286FD163E010286DD01128F9D18FE0EA
:103250001D480078224908700846007810B1012006
:103260001E490870A4E01E48007800F005000128FF
:103270000CD11B48007820F0050019490870022085
:10328000164908700020174908803FE0144800786C
:1032900010F0020F2AD01248007820F002001049E6
:1032A000087010200D49087000200F4908802DE09B
:1032B000680E00203C000020420E00202D0000205F
:1032C0002C000020280000202A00002029000020D7
:1032D0002E000020300000202B00002032000020B3
:1032E0003300002034000020360000204C480088C5
:1032F0004C4908804C4800884C49088000204C49C3
:103300000870FFF715FD00204A49087050E00420BE
:10331000FEF7F3F804204849087003204449087078
:1033200046E001E040E019E043480078042806DA6E
:10333000FEF75FF93A4909880844394908803E4850
:10334000007838B1FEF747F93B480078401E3A490B
:10335000087002E001203649087029E00720FEF7D6
:10336000CCF80420344908701120314908701FE05E
:1033700031480078042806DAFEF73BF92A49098823
:10338000084429490880FEF726F92B48007838B10F
:10339000FEF721F928480078401E2749087002E00E
:1033A00001202349087003E000202149087000BF74
:1033B00000BF10BD10B52148006810F0800F04D088
:1033C00080211E48FDF78BFC03E080211B48FDF7A0
:1033D0007BFCFEF72EFD1A480088401E0004000CFE
:1033E0001749088003D105200880FFF720FFFFF769
:1033F00085FEFFF701F81348406984B204F5486080
:1034000084B210488068A04203D20E488068201A17
:1034100084B20C4844610115FDF7EDFE10BD0000BB
:103420003400002048000020360000204A00002020
:10343000320000202A0000203800002000800A40CE
:103440003A00002000800740F0B58BB01422984964
:1034500006A801F033FC14229549143101A801F0AB
:103460002DFC00219348FFF7E2F900219248FFF775
:10347000DEF99248008803F017F80746904902F0F9
:1034800039FF064602F00AFF044622460B468DA18C
:1034900006A801F0E1FA87488C4B06AA00210090AB
:1034A0000846FFF785FA8A490968488802F0FCFF58
:1034B0000746834902F01EFF064602F0EFFE04466F
:1034C00022460B467FA101A801F0C6FA7948814B3C
:1034D00081A2262100900020FFF796FA7548804BC4
:1034E00001AA212100902020FFF762FA7D48008880
:1034F00002F0DAFF0746724902F0FCFE064602F0CF
:10350000CDFE044622460B4677A106A801F0A4FA98
:1035100069486E4B06AA002100900846FFF748FA5A
:103520006B490968488A02F0BFFF0746644902F008
:10353000E1FE064602F0B2FE044622460B466AA1B0
:1035400001A801F089FA5C48624B63A22621009031
:103550000020FFF759FA5848614B01AA2121009039
:103560002020FFF725FA53480123602237210090DD
:103570000020FFF72CF94F4801230D22382100903D
:103580003020FFF73CF95A48B0F9000002F074FF10
:10359000064602F083FE0446B02022460B4655A1A3
:1035A000009006A801F058FA42484A4B06AA392171
:1035B00000903F20FFF728FA45480068007801286E
:1035C00008D13C48434B4EA2392100900020FFF720
:1035D0001BFA07E037483F4B4BA2392100900020EF
:1035E000FFF712FA344801236022372100900020AF
:1035F000FFF7EDF8304801230D22382100902A20F2
:10360000FFF7FDF832480068407C012808D12A48BD
:10361000304B3FA2392100900220FFF7F5F907E077
:1036200025482C4B3BA2392100900220FFF7ECF9F2
:103630003948006802F038FF0746214902F05AFE77
:10364000064602F02BFE044622460B4633A106A88E
:1036500001F002FA18481F4B06AA392100902F20CA
:10366000FFF7D2F913490120FEF7DCFD12490220D1
:10367000FEF7D8FD0BB0F0BD08B5002204210520EF
:1036800000F075FA274908600846006808B900BFCD
:10369000FEE70CE000235A1E69462248006800F04D
:1036A000D0FB009810B9FFF7CFFE00BF00BFF1E7D5
:1036B00078650008C200002082070020400000203A
:1036C00000007A4425352E3266560000DC79000869
:1036D0003C000020A07500085345543A000000004B
:1036E000787B00084200002025352E32664100001C
:1036F0005400002025322E30662563430000000070
:1037000043682E203556000043682E3132560000A3
:1037100034304100323041004400002025352E3144
:10372000665700005000002086B001F0DCF80490DD
:103730000220FDF7EBFE43E0FA2104A800F0BBFEF7
:103740004FF0000AD0460BE0FDF74CFF022000F0DE
:10375000E5FEFDF751FF50441FFA80FA08F1010819
:10376000B8F10A0FF0D3504602F09EFE834602F0F5
:1037700095FD144A144BCDE9000102F0A7FB134A52
:10378000134BCDE9020102F0A1FB04460022114BCC
:1037900002F0C4FA064602F069FB00B20E49088046
:1037A0000846B0F90000192801DA322003E00A487F
:1037B000B0F9000040001FFA80F94846FEF730FBE0
:1037C000BAE700009A9999999999B93F21B072681E
:1037D00091EDCCBF00C06C40540000201CB500220D
:1037E0000421052000F0C3F920490860084600685C
:1037F00008B900BFFEE738E000235A1E01A91B48A4
:10380000006800F01EFB019870BBFEF797FDFEF705
:1038100034FE002000901648408810F0200F02D09F
:103820000320009016E01248808810F0200F02D08C
:10383000042000900EE00E48408810F0800F02D067
:103840000220009006E00A48408810F0400F01D0A6
:1038500001200090009830B100231A4669460548BF
:10386000006800F029FA00BF00BFC5E7580000203B
:103870001C0000204C000020FCF7BAFC00BFFEE753
:10388000001F4FF080730360001F0160001F2B4B6F
:10389000036014380260203870474FF6FF104FF075
:1038A000E021486107200861704710B5244800688E
:1038B00040F47F00224908600846006840F07F40DD
:1038C0000860FFF7EAFF00201E490860FCF768FC6B
:1038D000002010BD70474FF0805019491C39086016
:1038E000BFF34F8FBFF36F8F704710B5FCF780FCAD
:1038F00014480068401C13490860BFF34F8FBFF3A2
:103900006F8F10BD10B50F480068401E0D4908604C
:103910000846006810B90020FCF771FC10BD10B516
:10392000FCF766FC00F08DFC20B14FF0805004499C
:103930001C3908600020FCF762FC10BD79380008D3
:1039400020ED00E05C000020434A22F00700434ADB
:1039500010600022414B5A6044F2F832404B5A60EA
:1039600000221A60014644F2F8324A601A460A60A0
:1039700070472DE9F04104464FF0000800F095FD36
:103980003848006820B9FFF7DFFF0120354908609B
:1039900044B1083414F0070F04D004F00700C0F15C
:1039A00008000444002C32D044F2F83084422ED275
:1039B0002A4F3846056801E02F462D686868A04206
:1039C00002D228680028F7D1254885421FD03868E0
:1039D00000F10808286838606868001B102810D9B2
:1039E0002E196868001B70606C6071681B4800E0ED
:1039F0000068026852688A42FAD302683260066040
:103A000000BF194968680968081A1749086000F07A
:103A1000A8FC4046BDE8F08170B506463546B6B113
:103A2000083D2C4600F041FD61680C4800E000684C
:103A3000026852688A42FAD30268226004600A4926
:103A40006068096808440849086000F08AFC70BD95
:103A50000548006870477047960E002068000020F7
:103A600070000020640000206000002000F10801C8
:103A700041604FF0FF31816000F10801C1600161D8
:103A800000210160704700210161704742684A606F
:103A900093688B60936859609160086103685B1C50
:103AA0000360704710B502460B685C1C01D11069B9
:103AB00007E002F1080000E04068446824689C4286
:103AC000FAD944684C604C68A160886041600A6122
:103AD0001468641C146010BD0146D1E9013098607F
:103AE000D1E9010358600A695068884201D18868A9
:103AF0005060002008611068401E10601068704718
:103B000070B505460E462C46FFF7EFFED4E90F12BE
:103B1000206801FB020060600020A0632068A060B4
:103B2000E06B401E226C216800FB0210E0604FF049
:103B3000FF306064A06476B9206908B9012000E014
:103B4000002080B904F1100000F002FF01280AD122
:103B5000FFF7C1FE07E004F11000FFF787FF04F153
:103B60002400FFF783FFFFF7CDFE012070BD2DE994
:103B7000F04705460E4691464FF00008C5B14C206F
:103B8000FFF7F7FE04469CB105FB06F0471C3846DC
:103B9000FFF7EFFE2060206838B1E563266401215D
:103BA0002046FFF7ADFFA04602E02046FFF734FFB6
:103BB0004046BDE8F08710B50446FFF796FE11E0D9
:103BC000606A08B9012000E0002038B904F124003F
:103BD00000F0BEFE18B100F01FFF00E005E0A06C91
:103BE000401EA064A06C0028EADC00BF4FF0FF304C
:103BF000A064FFF787FEFFF778FE11E0206908B99F
:103C0000012000E0002050B904F1100000F0A0FEF7
:103C100008B100F001FF606C401E606400E002E04B
:103C2000606C0028EADC00BF4FF0FF306064FFF7F3
:103C300069FE10BD70B50546FFF757FEA86BE96B2E
:103C4000884201D1012400E00024FFF75BFE2046FA
:103C500070BD70B504460E461546206C40B37DB964
:103C60003146226CA06800F0E4FF216CA068084493
:103C7000A060D4E9011088421AD32068A06017E040
:103C80003146226CE06800F0D4FF216CE068401AF5
:103C9000E0602168E068884203D2216C6068401AC5
:103CA000E060022D04D1A06B10B1A06B401EA06398
:103CB000A06B401CA06370BD2DE9FF4182B0064699
:103CC0000F461D464FF00008344600BFFFF70DFEBB
:103CD000A06BE16B884201D3022D18D12A463946E8
:103CE0002046FFF7B6FF606A08B9012000E0002017
:103CF00038B904F1240000F02BFE012801D1FFF7B0
:103D0000EAFDFFF7FFFD012006B0BDE8F081049851
:103D100018B9FFF7F7FD0020F6E7B8F1000F04D15E
:103D2000684600F048FE4FF00108FFF7EBFD00F099
:103D3000BCFBFFF7DAFD606C401C00D16064A06C36
:103D4000401C00D1A064FFF7DDFD04A9684600F027
:103D500039FEC0B92046FFF76DFF70B104F11000C5
:103D6000049900F0D7FD2046FFF725FF00F0F9FA8F
:103D70000028ABD1FFF7AFFDA8E72046FFF71BFFF8
:103D800000F0EFFAA2E72046FFF715FF00F0E9FA8E
:103D90000020B9E72DE9F0470546894616461F463B
:103DA0002C46FCF725FA8246A06BE16B884201D3D2
:103DB000022F1CD13A4649462046FFF74AFFA06C25
:103DC000401C0ED1606A08B9012000E0002058B9FB
:103DD00004F1240000F0BCFD30B12EB101203060B0
:103DE00002E0A06C401CA0644FF0010801E04FF01D
:103DF00000085046FCF703FA4046BDE8F08770B56E
:103E00000546FFF772FDA86B08B9012400E0002405
:103E1000FFF778FD204670BD70B504460D4620685A
:103E200070B1216CE0680844E0606168E068884235
:103E300001D32068E0602846226CE16800F0F9FEBA
:103E400070BD2DE9FF4383B0054688461E464FF0FE
:103E500000092C4600BFFFF748FDA06B58B3E76888
:103E600041462046FFF7D8FF8EB9A06B401EA063E5
:103E7000206908B9012000E00020B0B904F1100069
:103E800000F066FD012810D1FFF725FD0DE0E76089
:103E9000606A08B9012000E0002030B904F1240074
:103EA00000F056FD08B1FFF716FDFFF72BFD0120CE
:103EB00007B0BDE8F083059818B9FFF723FD00208F
:103EC000F6E7B9F1000F04D101A800F074FD4FF03E
:103ED0000109FFF717FD00F0E8FAFFF706FD606C37
:103EE000401C00D16064A06C401C00D1A064FFF7AE
:103EF00009FD05A901A800F065FDC0B92046FFF73E
:103F00007EFF70B104F12400059900F003FD204606
:103F1000FFF751FE00F025FA00289CD1FFF7DBFCEB
:103F200099E72046FFF747FE00F01BFA93E720468B
:103F3000FFF741FE00F015FA0020B9E72DE9F04740
:103F40000546884616462C46FCF752F98146A06B7A
:103F5000E8B141462046FFF75FFFA06B401EA0631B
:103F6000606C401C0ED1206908B9012000E00020DF
:103F700058B904F1100000F0EBFC30B12EB1012073
:103F8000306002E0606C401C6064012700E00027A4
:103F90004846FCF734F93846BDE8F0872DE9F0478C
:103FA000054688462C46FCF723F98146A06B38B1BC
:103FB000E76841462046FFF72FFFE760012600E053
:103FC00000264846FCF71BF93046BDE8F08770B57F
:103FD0000446FFF78AFCA56BFFF794FC284670BDEA
:103FE00070B504462546FFF780FCD5E90E10461A49
:103FF000FFF788FC304670BD0146886B704770B58E
:10400000044625462868FFF707FD2846FFF704FD0C
:1040100070BD01468A6B0AB9012000E0002070479C
:1040200001468A6BCB6B9A4201D1012000E000204F
:104030007047000010B5002407E004EB8401F74A44
:1040400002EB8100FFF712FD641C052CF5D3F44848
:10405000FFF70CFDF348FFF709FDF348FFF706FDF6
:10406000F248FFF703FDF248FFF700FDEC48F14985
:104070000860EC48F049086010BD2DE9F04704469F
:104080000F4616469946DDF82080002507E0795D49
:1040900004F134004155785D00B902E06D1C102D2B
:1040A000F5D300BF002143200155052E00D304267F
:1040B000E662201DFFF7E7FC04F11800FFF7E3FCC0
:1040C0002461C6F10500A0616462BDE8F08770B5A7
:1040D00005460E464420FFF74CFC044694B11EB939
:1040E000A800FFF746FC00E030462063206B20B9B3
:1040F0002046FFF791FC002404E0A900A522206BD4
:1041000000F00EFE204670BD2DE9FF4F81B08046C5
:1041100015469946DDE90E7A28461099FFF7D7FF34
:104120000446002C4ED0681E216B01EB800B2BF057
:10413000070B00953A462046119B0299FFF79DFF19
:104140004A4641465846FFF79BFB2060BAF1000FF4
:1041500001D0CAF80040FFF7C8FBB8480068401C0F
:10416000B6490860B648006840B9B54804600846DA
:10417000006801280CD1FFF75DFF09E0B148006835
:1041800030B9AF480068C06AB84201D8AC48046092
:10419000AD480068401CAC490860AC49E06A096859
:1041A000884202D9A949E06A0860E16A01EB81010D
:1041B0009A4A02EB8100211DFFF768FC0126FFF7F8
:1041C000A1FB01E04FF0FF36012E09D19D480068A8
:1041D00030B19B480068C06AB84201D2FFF77BFB50
:1041E000304605B0BDE8F08F70B50546FFF77DFBA2
:1041F00015B99348006800E028460446201DFFF7E3
:104200006BFCA06A18B104F11800FFF765FC211DD2
:104210008648FFF73BFC8E480068401C8C490860CC
:1042200089480068401C88490860FFF76BFB854897
:10423000006828B182480068844201D1FFF74BFB37
:1042400070BD2DE9F04100278248006800287AD12E
:1042500081480068401C80490860084606680EBB1B
:104260007449086874490968724A116072490860A3
:104270007A490968491C794A11606E4909680968D8
:1042800009B9012100E0002121B14FF0FF31744A4A
:10429000116006E067490968C968CC68704A6168BE
:1042A000116000BF6E48006886423AD300BF614883
:1042B0000068006808B9012000E0002020B14FF03C
:1042C000FF30674908602BE05A480068C068C4683E
:1042D0006568AE4202D26248056021E0201DFFF70A
:1042E000FBFBA06A18B104F11800FFF7F5FB574972
:1042F000E06A0968884202D95449E06A0860E16AC4
:1043000001EB8101454A02EB8100211DFFF7BEFB55
:104310004B49E06A0968C96A8842C8D30127C6E7E1
:1043200000BF47480068C06A00EB80003B4951F875
:104330002000012800D901274A48006850B9FDF73C
:1043400003FE07E0FFE747480068401C4549086056
:10435000FDF7FAFD4448006800B101273846BDE882
:10436000F08170B50025FFF7C0FA3A480068401E9A
:10437000384908600846006800284AD12F4800687C
:10438000002846D023E02848C068C46804F118001B
:10439000FFF7A2FB201DFFF79FFB2C49E06A09688D
:1043A000884202D92949E06A0860E16A01EB81018B
:1043B0001A4A02EB8100211DFFF768FB2049E06AE1
:1043C0000968C96A884202D3012027490860164853
:1043D000006808B9012000E000200028D3D021485F
:1043E000006878B10AE0FFF72CFF10B101201E49E8
:1043F00008601C480068401E1A4908601948006897
:104400000028F0D118480068012802D10125FFF7E3
:1044100062FAFFF777FA284670BD0000905200203C
:10442000F4520020085300201C5300203053002079
:1044300044530020A8000020AC0000208000002091
:10444000780000208C000020A000002088000020C0
:104450007C00002090000020840000209C000020B0
:10446000A4000020940000209800002010B504460D
:10447000F74800684460F7480068844207D2F4486F
:104480000168091DF4480068FFF70CFB0CE0F048D8
:104490000168091DF1480068FFF704FBF048006857
:1044A000844201D2EE48046010BDEE480068401C12
:1044B000EC49086070472DE9F047044688464FF004
:1044C0000009FFF7F2FFE3480768206800EB0805E2
:1044D0002068B84207D92068A8420BD9BD4209D943
:1044E0004FF0010906E02068A84201D8BD4201D979
:1044F0004FF001092560B9F1000F07D0D4480068DA
:10450000001DFFF7E9FA2846FFF7B0FFFFF729FF84
:1045100006460EB9FFF7DFF9BDE8F08770B504462F
:1045200000267CB1FFF7C1FFCA4800680519C848DA
:104530000068001DFFF7D0FA2846FFF797FFFFF746
:1045400010FF06460EB9FFF7C6F970BD70B50446F8
:10455000FFF7CBF914B9BE48006800E020460646D4
:10456000F56AFFF7CFF9284670BD2DE9F0470746F9
:104570000D464FF00009052D00D30425FFF7B5F9CE
:1045800017B9B348006800E038460446E66AAE4210
:104590003FD0B5420BD9AE48006884420DD0AC483C
:1045A0000068C06AA84208D84FF0010905E0A84891
:1045B0000068844201D14FF00109D4F82C80E562F3
:1045C000C5F10500A06108EB8801A74A02EB810153
:1045D0006069884201D1012000E0002098B1201DCF
:1045E000FFF77AFAA149E06A0968884202D99F492F
:1045F000E06A0860E16A01EB81019B4A02EB8100FD
:10460000211DFFF743FAB9F1010F01D1FFF763F95B
:1046100000BFFFF777F9BDE8F0879248006818B14E
:104620000120934908602CE000209149086004E0D3
:104630008E480068401E8D4908608C48006800EB79
:104640008000894951F8200008B9012000E00020CD
:104650000028EDD18549096801EB8101824A02EB0E
:10466000810041684968416000F1080142688A425E
:1046700002D14168496841604168C968744A116063
:1046800000BF704770B50546FFF72FF915B97048A0
:10469000006800E028460446201DFFF71DFAA06AC6
:1046A00018B104F11800FFF717FA211D7148FFF740
:1046B000EDF9FFF727F966480068844211D16E488A
:1046C000006810B1FFF707F90BE06A4800686B4912
:1046D0000968884203D100205D49086001E0FFF7C6
:1046E0009CFF70BD10B5014600200A46614C53691D
:1046F000A34201D1012300E0002373B1604C936A0F
:10470000A34201D1012300E0002333B9936A0BB91E
:10471000012300E0002303B1012010BD70B5054660
:104720002C4644B34A480068844224D0FFF7DDF8A1
:104730002046FFF7D7FF01281BD1201DFFF7CCF93A
:104740004A49E06A0968884202D94849E06A086033
:10475000E16A01EB8101444A02EB8100211DFFF770
:1047600095F93B49E06A0968C96A884201D3FFF7B5
:10477000B2F8FFF7C7F870BD2DE9F04105460026F5
:104780002C46FBF735FD07462046FFF7ABFF012817
:1047900023D134480068D8B92D49E06A0968C96A4C
:1047A000884200D30126201DFFF796F92F49E06AC1
:1047B0000968884202D92D49E06A0860E16A01EB84
:1047C0008101294A02EB8100211DFFF75FF904E016
:1047D00004F118012A48FFF759F93846FBF70FFD95
:1047E0003046BDE8F08110B50446206BFFF714F9A0
:1047F0002046FFF711F910BD70B523E0FFF755FE15
:104800002048006808B9012000E000200546FFF7B5
:10481000A8FDBDB9FFF769F81A48C068C468201D33
:10482000FFF75AF915480068401E144908601648F9
:104830000068401E14490860FFF764F82046FFF73F
:10484000D2FF00BF104800680028D7D170BD00001B
:104850007800002084000020AC000020A800002088
:10486000A40000209000002090520020880000202A
:1048700098000020445300208C000020800000207D
:104880001C530020305300207C00002000BFFFF7A5
:10489000B3FF634800680128F9D9FFF71CF8F6E771
:1048A0001FB50020009001900290034680225DA178
:1048B00003905E48FFF728FC0446012C09D1FBF762
:1048C00097FC01205A49086000205A490860FEF709
:1048D000ECFF1FBD10B5FBF78BFC002054490860AE
:1048E000FEF7F8FF10BD10B5FEF7FFFF5148046852
:1048F000FFF708F8204610BD70B5FBF779FC0546B8
:104900004C4804682846FBF77AFC204670BD4A48AC
:104910000068704770B506460C4648480168183173
:104920003046FFF7BFF845480068001DFFF7D4F890
:10493000601C06D141480168091D4148FFF7A6F8EF
:1049400005E03C48006805192846FFF78FFD70BD5B
:1049500070B50646F068C46804F11800FFF7BCF8AB
:1049600038480068A0B9201DFFF7B6F83649E06A5C
:104970000968884202D93449E06A0860E16A01EBBB
:104980008101274A02EB8100211DFFF77FF804E037
:1049900004F118012D48FFF779F82849E06A096801
:1049A000C96A884204D3012501202949086000E032
:1049B0000025284670BD2749096801601D4909681E
:1049C0004160704770B504460D46FEF78EFF1948EA
:1049D00002682868401C01D1002619E01D492068A2
:1049E0000968884204D06068904201D801260FE02F
:1049F0006068101A2968884209D228686168511ACB
:104A0000401A28602046FFF7D6FF002600E0012666
:104A1000FEF778FF304670BD01200D4908607047F1
:104A20009052002049444C45000000008D48000889
:104A30008C000020840000208000002078000020EE
:104A40004453002090000020880000201C530020C8
:104A5000980000209C0000200FB41CB5074B06AA4C
:104A60007B4469460090059800F07BFB0020694676
:104A700000F08AFB1CBC5DF814FB00002507000059
:104A800070B5044685690068C10601D5302600E08E
:104A90002026C00708D070BDD4E9012130469047D8
:104AA000206A00F1010020626D1EF5D570BD70B561
:104AB000044685690068C00708D170BDD4E90121AA
:104AC00020209047206A00F1010020626D1EF5D57C
:104AD00070BD70B505460C46012A05D028688006D1
:104AE00000D5EA69002302E0012305E05B1C934244
:104AF00002D2E05C0028F9D1A869E618C01AA861C2
:104B0000286A184428622846FFF7BAFF04E0D5E96E
:104B1000012114F8010B9047B442F8D32846FFF75F
:104B2000C6FF70BD2DE9F0474FF0000A04468946E4
:104B3000C0F820A02046E1688847002876D02528C4
:104B400006D0D4E901219047206A401C2062F1E799
:104B5000E168204600258847C4F81CA006460027C7
:104B6000C4F818A02A2E09D0304601F0B9F838B39D
:104B700004EB8708303EC8F8186019E059F8041BA8
:104B8000204604EB87029161E1688847012F0646C1
:104B900018D1E069002820DA25F020051DE0D8F8BA
:104BA000180000EB800006EB40003038C8F8180011
:104BB0002046E1688847064601F092F80028EED1C9
:104BC000012F0AD02E2E08D12046E16888477F1C8D
:104BD0000646022F45F02005C4DBA069002803DA51
:104BE000404245F00105A061E80701D025F010051D
:104BF000B6B1A6F14100192802D8203645F4006567
:104C00004A463146204625604D46FBF793FA58B197
:104C1000012806D0ED1D25F0070000F1080989E7FD
:104C200004E005F1040985E730468AE7206ABDE81B
:104C3000F087032A40F2308010F0030C00F015805A
:104C400011F8013BBCF1020F624498BF11F801CB8F
:104C500000F8013B38BF11F8013BA2F1040298BFF4
:104C600000F801CB38BF00F8013B11F0030300F05E
:104C70002580083AC0F0088051F8043B083A51F802
:104C800004CBA0E80810F5E7121D5CBF51F8043B07
:104C900040F8043BAFF30080D20724BF11F8013B7A
:104CA00011F801CB48BF11F8012B24BF00F8013BDC
:104CB00000F801CB48BF00F8012B704710B5203A2F
:104CC000C0F00B80B1E81850203AA0E81850B1E8C5
:104CD0001850A0E81850BFF4F5AF5FEA027C24BF7B
:104CE000B1E81850A0E8185044BF18C918C0BDE872
:104CF00010405FEA827C24BF51F8043B40F8043B3B
:104D000008BF7047D20728BF31F8023B48BF11F8EF
:104D1000012B28BF20F8023B48BF00F8012B704749
:104D200002F0FF0343EA032242EA024200F049BADA
:104D300070477047704770472DE9FF4F0C461E467D
:104D40004FF0FF378BB0D2E90001DDF860800A90A8
:104D50008A46C1F30A5505B93D46002108464FF081
:104D60000000BAF1000F00F4400005DA00EB80000B
:104D70004FF4400101EA50004FEA9059B9F1010F98
:104D800000DDB9460A9850EA4A000FD044F61050A8
:104D9000A5F2FF3545432F14B8F1000F1FD075421F
:104DA000291E1FDD4846C9F100021CE0B8F1010FC1
:104DB0004FF0000001D1F24307E0302101E021541F
:104DC000401CB042FBDB30460022002121540B99ED
:104DD000C1F80880C1E900200FB0BDE8F08FBD1B0D
:104DE0006D1CDDE74A4600DA694206A800F094FA35
:104DF00006AB07CB03AB07C350460A9900F0A1FBF3
:104E00008DE80700A0F500501F3800900398002D92
:104E100009DD42F21F014A46084403A9039068468F
:104E200000F000FE08E0A0F500504A461F3803A934
:104E30000390684600F00AFE8DE807000004000CAD
:104E400003D04FF0FF30410800E01046B8F1000FEA
:104E500003D00022009215461FE0751E06D400F014
:104E6000D5F902F1300262556D1EF8D5B346012224
:104E7000084302D000227F1C04E02078302801D1B2
:104E800000227F1E002A099786D01DE0112D07DA27
:104E900000F0BCF9303262556D1C50EA0102F5D1C8
:104EA00008430FD10021681E05E0235C625C635457
:104EB000491C2254401E8142F7DBAB46A81B401E12
:104EC000099001E0009848B1002004F80B000B980D
:104ED000099AC0F80880C0E9002B7DE711264FF041
:104EE000000859E72DE9F04F88460446D21D22F00C
:104EF000070191B0D1E90001CDE90A0100F0DCFE23
:104F000002460B98C00F01D02D2007E020688107D2
:104F100001D52B2002E0202101EAC000032A0990DC
:104F200001D0072A05DB03464146204600F0B4F9CC
:104F30000EE12068800601D5E06900E00620B8F1A6
:104F4000650F814606D0B8F1660F18D0B8F1670F2B
:104F500072D132E00020B9F1110F009001DB112372
:104F600001E009F101030AAA01A90CA8FFF7E4FE78
:104F7000DDE90C70002609F10105834648E00120B7
:104F80004B4600904FF000470AAA01A90CA8FFF772
:104F9000D3FEDDE90C050E990026AB4619B909F1DF
:104FA000010100EB0105B9EB050003D4C0F1FF36A8
:104FB00009F10105A5EB09002BE0B9F1010F01DAB8
:104FC0004FF001090020B9F1110F0090484601DDB2
:104FD000112300E003460AAA01A90CA8FFF7ACFEC2
:104FE000DDE90C704D4600268346206800070AD490
:104FF000AB4500DA5D4601A8012D04DD411911F829
:10500000011C302907D04F4502DA17F1040F04DAEA
:105010000120824610E06D1EEEE7002F02DCED1B42
:105020003E4403E0781CA84200DD0546A7EB0600DD
:1050300000F1010A4FF000472068000703D4AA4599
:1050400001DB4FF0FF3A0021B7F1004F0DF14308AB
:105050008DF8431022D002202B23002F01DA7F424B
:105060002D230A22011EA0F1010000DC4FB197FBA5
:10507000F2F102FB117C0F460CF1300C08F801CD67
:10508000F0E7A8F1010003702168090501D5452169
:1050900000E06521A0F1010800F8011C09980FA9A2
:1050A000A1EB080707F1070700B1012000EB05019C
:1050B00001EBEA70A1693844A1EB0000A0F1010006
:1050C000A0612068C00602D42046FFF7D9FC0998E9
:1050D00030B1D4E901219047206A00F1010020623B
:1050E0002068C00620D52046FFF7CAFC1CE0002E31
:1050F00004DBB34502DD01A8805D00E03020D4E987
:1051000001219047206A761C401CBAF1010A2062F6
:105110000AD100F077F8C0680168405CD4E9012149
:105120009047206A401C2062281EA5F10105DEDCA4
:1051300007E0D4E9012118F8010B9047206A401CD0
:105140002062381EA7F10107F3DC2046FFF7AFFC11
:10515000022011B041E6000001694A1C0261087892
:10516000704700B58FB0CDE90131002105910549A7
:105170007944CDE9031011466846FFF7D3FC0FB020
:1051800000BD0000E5FFFFFF0A6802F8010B0A609E
:10519000704710B5436913B1AFF3008001E0FFF72A
:1051A00098FC012010BD126800F124010A70002251
:1051B0004A700122EDE711684FF0FF32E9E74FF046
:1051C00000020429C0F0128010F0030C00F01881D6
:1051D000CCF1040CBCF1020F18BF00F8012BA8BFE2
:1051E00020F8022BA1EB0C0100F00AB95FEAC17CA8
:1051F00024BF00F8012B00F8012B48BF00F8012B59
:1052000070470000004870477853002030B5B0F177
:105210000A024FEA900E71F100034EEA817EB0EB74
:105220000E0061EB91014FEA101E4EEA017E10EB79
:105230000E0041EB11114FEA102E4EEA016E10EBF9
:105240000E0041EB11214FEA104E4EEA014E10EBD9
:105250000E0041EB1141401841F100014FEAD0002E
:1052600040EA41704FEAD10110EB80054FEA81041A
:1052700044EA907444EB01046D1944EB0404521B9E
:10528000A3414FF0000348BF0A3200D530BD401C97
:1052900041F1000130BD00002DE9F04104461F46F8
:1052A00003260168072A01F4006004DB08B116A593
:1052B00005E016A503E008B115A500E015A521F04D
:1052C00010002060A069C01EA0610FB1401EA06147
:1052D0002046FFF7D5FB4FB1D4E90121384690476E
:1052E000206A401C2062C01C206206E0206AFAE7A7
:1052F000D4E9012115F8010B9047761EF8D220461B
:10530000FFF7D5FBBDE8F0814E414E006E616E00A7
:10531000494E4600696E66002DE9F0478146164603
:105320008AB035487844D0E9002380680092CDE9FE
:105330000130314878440C38D0E9022300690392E7
:105340004FF03702CDE9043041F69B30014491FB28
:10535000F2F0A0F1800502FB10141B3C02D5644260
:10536000012000E00020DFF890A080460027FA44EA
:10537000AAF1C60A0DE0E00709D03246684607EBFD
:1053800047010AEB810100F061FB8DE80700641022
:105390007F1C002CEFD1184F7F44B43F17E0E80783
:1053A00013D007EB04100DF1180A90E80E00AAE8DC
:1053B0000E00C068F04201D198190890324606A943
:1053C00003A800F043FB03AB07C36D10641C002D62
:1053D000E5D132466946B8F1000F03A802D000F0CB
:1053E00021FB01E000F032FBC9E90001C9F8082007
:1053F0000AB0BDE8F0870000D42800004FF000029A
:1054000000B5134694469646203922BFA0E80C50BA
:10541000A0E80C50B1F12001BFF4F7AF090728BF95
:10542000A0E80C5048BF0CC05DF804EB890028BF11
:1054300040F8042B08BF704748BF20F8022B11F03A
:10544000804F18BF00F8012B7047000000487047DC
:10545000585300207546FFF7F9FFAE460500694630
:10546000534620F00700854618B020B5FAF7DCFE59
:10547000BDE820404FF000064FF000074FF0000855
:105480004FF0000B21F00701AC46ACE8C009ACE8D6
:10549000C009ACE8C009ACE8C0098D4670470446B5
:1054A000AFF300802046FAF764FE00004FF0013CA5
:1054B00050F8042B51F8043B9A4221D1A2EB0C0383
:1054C000934313EACC1317D150F8042B51F8043B43
:1054D0009A4215D1A2EB0C03934313EACC130BD1E0
:1054E00050F8042B51F8043B9A4209D1A2EB0C036B
:1054F000934313EACC13DBD04FF00000704700BF9A
:10550000D01A01BAB1FA81F101F0180122FA01F0C2
:10551000CB40C1F12001DBB2C0B2C01A2CFA01F3BA
:10552000D11A914311EAC311E6D170470048704780
:105530005C53002001491820ABBEFEE726000200A4
:1055400070475FEA400C08BF91F0000F4FEA8C23D0
:105550004FEAC12243EA51514FEA1C5018BF00F5EF
:10556000F0404FEA300018BF41F000415FEA6C5C48
:1055700000F02980BCF1FF3F08BF40F08040704739
:10558000130C06BF12044FF0100C4FF0000C130E5A
:1055900004BF12020CF1080C130F04BF12010CF12E
:1055A000040C930F04BF92000CF1020CD30F04BF44
:1055B00052000CF1010C11464FF00002A0F11F0047
:1055C000A0EB0C00704711F0004F08BF704731F09E
:1055D00000413FF4D5AF0B0C06BF09044FF0100C8F
:1055E0004FF0000C0B0E04BF09020CF1080C0B0F5E
:1055F00004BF09010CF1040C8B0F04BF89000CF1EE
:10560000020CCB0F04BF49000CF1010CCCF12003BC
:10561000A0EB0C0022FA03F302FA0CF241EA0301B8
:1056200000F10100704720F07F4C80EA030023F076
:105630007F47ACEB070303F57C5300F0004003F118
:10564000FF032DE980494FEA154B09B44FEA144393
:1056500025EA0B4E24EA03480FF2042606EB132733
:1056600049083E785FEA320203FB0667C7F5000788
:1056700007FB06F64FEA54374FEAD64606F1020614
:1056800007FB066CCCF1005C4FEA1C472CEA074C88
:1056900007FB06F40CFB06F504EB15464FEA9616DD
:1056A00034BF00204FF000404FEAD13706FB07FC23
:1056B0004FEA1C4C0CFB0BF7D21B03FB0CF761EB06
:1056C00007010CFB0EF7B0EB074072EB17420CFB27
:1056D00008F734BFA2EB0742B2EB074261EB174178
:1056E0004FEA0C444FEA910706FB07FC4FEA1C4CBB
:1056F0000CFB0BF7B0EBC74072EB573203FB0CF718
:1057000034BFA2EBC742B2EBC74261EB57310CFB8F
:105710000EF7B0EBC70072EB57720CFB08F734BF03
:10572000A2EBC702B2EBC70261EB5771039F4FEACE
:10573000816141EA921104EBCC044FEAD1374FEA80
:10574000826206FB07FC42EA90124FEA80604FEA51
:105750001C4C0CFB0BF7D21B03FB0CF761EB070196
:105760000CFB0EF7B0EB074072EB17420CFB08F78F
:1057700034BFA2EB0742B2EB074261EB17414FEA9D
:105780008C554FEA910704EB9C2406FB07FC4FEA7B
:105790001C4C0CFB0BF7B0EBC74072EB573203FB12
:1057A0000CF734BFA2EBC742B2EBC74261EB5731F3
:1057B0000CFB0EF7B0EBC70072EB57720CFB08F74F
:1057C00034BFA2EBC702B2EBC70261EB577115EB16
:1057D0004C254FEA816141EA92114FEA82624FEA19
:1057E000D13742EA901206FB07FC44F100044FEA6D
:1057F00080604FEA1C4C0CFB0BF7D21B03FB0CF731
:1058000061EB07010CFB0EF7B0EB074072EB1742A0
:105810000CFB08F734BFA2EB0742B2EB074261EB87
:10582000174115EB1C154FEA813141EA92414FEACD
:10583000823242EA90424FEA80304FEA0C7644F1DD
:10584000000448EA03434EEA0B484FF0000EB2EB67
:10585000080C71EB030724BF624639464EEB0E0E6F
:105860004FF0000B0018524149414BEB0B0BB2EBD0
:10587000080C71EB03077BF1000B24BF624639462D
:105880004EEB0E0E4FF0000B0018524149414BEB0E
:105890000B0BB2EB080C71EB03077BF1000B24BF81
:1058A000624639464EEB0E0E51EA020718BF46F02B
:1058B000010616EB0E7655F1000254F1000103D5F6
:1058C000BDE88901BDE80088BDE88901BDE8004860
:1058D000B619524141EB0101A3F1010370478080E9
:1058E0007F7E7D7C7B7A797877767675747372713A
:1058F00071706F6E6E6D6C6C6B6A6A6968686766F2
:1059000066656464636362616160605F5F5E5E5D83
:105910005D5C5C5B5B5A5A595958585757565655F7
:1059200055555454535352525251515050504F4F59
:105930004F4E4E4D4D4D4C4C4C4B4B4B4A4A4A49A9
:1059400049494848484747474746464645454544EC
:105950004444444343434342424242414141002B79
:1059600026D4770021D01CB54FEA370703B44FF097
:1059700010004FF010014FF000000FBCBDE81040C8
:105980000BF1010BBBF1010F08BF5FEA170722BF44
:1059900012F1010211F101014FF0004143F1000346
:1059A00000F0004043EA00007047F9D35708DAE7F7
:1059B00046EA064613F1400F4FEA16461FDD13F183
:1059C000200FDFBF16430A46002120335B42C8D0B8
:1059D000C3F1200746EA064602FA07F74FEA1646E1
:1059E00046EA0706C3F1200722FA03F201FA07F795
:1059F00021FA03F14FF0000342EA0702B1E746EA59
:105A0000020646EA06464FEA164646EA0106BCBFCB
:105A100046EA0646360C4FF000034FF000024FF006
:105A200000019EE72DE9C048934630B491E8380064
:105A300007C831EA400C48BF34EA430C03D5FFF7EE
:105A4000F2FDFFF78CFFF0BCBDE800882DE9C048EF
:105A5000934630B491E8380007C810F0804F08BF73
:105A600013F0804F03D100F005F8FFF778FFF0BC8A
:105A7000BDE8008820F07F4780EA030023F07F4CD8
:105A800007EB0C03A3F57C5300F00040A3F1FE03E9
:105A900092F0000F00F0B38095F0000F00F07780D7
:105AA0002DE901494FEA11404FEA144621EA004826
:105AB00000FB06FC24EA064708FB06F607FB08F88D
:105AC00000FB07F718EB06484CEB164C4FEA124B5D
:105AD00018EB07484FEA15464CEB174022EA0B4EED
